:020000040800F2
:100000009033002099010008FF220008751C0008A9
:10001000FD22000875040008DB290008000000002C
:1000200000000000000000000000000001010008C6
:100030007704000800000000450100086126000860
:10004000B3010008B3010008B3010008B3010008C0
:10005000B3010008B3010008B3010008B3010008B0
:10006000B3010008B3010008B3010008B3010008A0
:10007000B3010008B3010008B3010008B301000890
:10008000B3010008B3010008B3010008B301000880
:10009000B3010008B3010008B3010008B301000870
:1000A000B3010008B3010008B3010008B301000860
:1000B0003527000841270008B3010008B3010008F4
:1000C000B3010008B3010008B3010008B301000840
:1000D000B3010008B3010008B3010008B301000830
:1000E000B3010008B3010008B3010008DFF80CD029
:1000F00000F050F900480047092A0008903300201A
:10010000224B19680868B0E8F00F80F30988BFF344
:100110006F8F4FF0000080F311884EF00D0E704786
:100120000000000006480068006880F3088862B696
:1001300061B6BFF34F8FBFF36F8F00DF00BF00BF0B
:1001400008ED00E0EFF30980BFF36F8F0F4B1A68E3
:1001500020E9F00F106008B54FF0500080F31188CF
:10016000BFF34F8FBFF36F8F03F06AFA4FF00000B9
:1001700080F31188BDE8084019680868B0E8F00FFE
:1001800080F30988BFF36F8F704700BF68000020BD
:10019000EFF3058070470000064880470648004797
:1001A000FEE7FEE7FEE7FEE7FEE7FEE7FEE7FEE727
:1001B000FEE7FEE7ED260008ED00000840EA010337
:1001C0009B0703D009E008C9121F08C0042AFAD20D
:1001D00003E011F8013B00F8013B521EF9D27047D1
:1001E000F0B480EA0102D40F4200B2EB410F02D218
:1001F0000246084611464A0042D0C30DDDB2C1F3A3
:10020000C752AD1A202D35DAC1F3160141F40002B0
:1002100004B15242C5F1200602FA06F12A41104407
:10022000B3EBD05F23D0C4B1012DA0EBC35009DCE8
:10023000F0BC4FF0004202EAC352DBB200F500000E
:1002400000F07AB8400000F1807000EBC350A0F1DC
:10025000807040EAD170490009E0490841EAC07164
:10026000A0EBC35000F50000400800EBC350F0BC09
:1002700000F059B86142012202EB4101001BF6E790
:10028000F0BC704781F00041AAE780F00040A7E78A
:1002900080EA010210B502F00043400022D04A007B
:1002A0001FD0010E01EB1261C0F35600C2F35602DB
:1002B00040F4000042F40002A0FB022000047F3959
:1002C000140400D0401C50EA124001D44000491EE2
:1002D000C2B20C0604EBD010401C4008802A02D0A9
:1002E00003E0002010BD20F00100002900DA00200A
:1002F000184310BD96230022114600F01DB820F0CF
:100300000040C10DC0F3160040F400007F2901DA5F
:1003100000207047962903DCC1F19601C840704760
:100320009639884070470029A8BF7047401C490093
:1003300008BF20F00100704710B4B0FA80FC00FA4A
:100340000CF050EA010404BF10BC704749B1CCF175
:10035000200421FA04F411FA0CF118BF0121214301
:100360000843A3EB0C01CB1D4FEA00614FEA1020BC
:1003700042BF002010BC704700EBC350104400295E
:10038000A4BF10BC7047401C490008BF20F001000A
:1003900010BC7047064C074D06E0E06840F00103D2
:1003A00094E8070098471034AC42F6D3FFF7A2FE5A
:1003B000BC480008DC48000870B504460068816845
:1003C000C943C9071CD1816821F00101816000F097
:1003D000C3FB05460FE000BF00F0BEFB401B022838
:1003E00009D9A06A40F01000A062E06A40F0010064
:1003F000E062012070BD20688068C043C007EBD078
:10040000002070BDF8B5002604460096006881689B
:10041000C943C90728D0816841F0010181601348B0
:1004200013490068B0FBF1F000E0401E0090002886
:10043000FBD100F091FB054611E000BF00F08CFB02
:10044000401B02280BD9A06A40F01000A062E06AAD
:1004500040F00100E06284F824600120F8BD2068CB
:100460008068C043C007E9D10020F8BD40000020EB
:1004700040420F00FEE770470EB56946009001202C
:10048000019007200290074800F05AF8054800F054
:100490001FFA0A21034800F083F9024800F0CEF861
:1004A00080B20EBDA40000202DE9FF4705460020C4
:1004B0000090019002900446039019E00020FFF79D
:1004C000DBFF0099084400900120FFF7D5FF019958
:1004D000084401900220FFF7CFFF029908440290E0
:1004E0000320FFF7C9FF0399641C0844E4B203909A
:1004F000AC42E3D3DFF83C80DFF83C900F4F0024A0
:100500006E4600BF56F82400B0FBF5F0FFF7F2FE90
:100510004146FFF7BDFE4946FFF762FEFFF7EFFEDB
:1005200027F81400641CE4B2042CEBD304B0BDE83B
:10053000F087000023DB793E00007A4400000020B1
:10054000F8B50024009490F824202546012A12D002
:10055000012280F824204A681F23072A0DD206684A
:10056000776B521E02EB820293409F430B689340CD
:100570001F43776319E00220F8BD06680D2A0AD2EE
:10058000376BD21F02EB820293409F430B6893406C
:100590001F43376309E0F76A0D3A02EB820293408A
:1005A0009F430B6893401F43F7620A68072306685E
:1005B0000A2A0AD3F7680A3A02EB420293409F43A1
:1005C0008B6893401F43F76008E0376902EB4202F3
:1005D00093409F438B6893401F4337610A68102AFA
:1005E00001D0112A20D1124B02689A4217D1936888
:1005F0001B0219D4936843F400039360096810291F
:1006000012D10C490C4A0968B1FBF2F101EB8101EE
:10061000490000E0491E00910029FBD104E0816AF5
:1006200041F020018162012480F824502046F8BD69
:10063000002401404000002040420F000068C06CD0
:10064000704700002DE9F0414FF0000704003D46DF
:100650007ED0A06A002628B9E66284F8246020468D
:1006600000F07EF82046FFF7A7FEA16A01F0100116
:10067000014304D0A06A40F01000A06268E0A16AC3
:1006800021F4885141F00201A1626268E169E368E6
:100690000A4347EA43010A43A1684FF48077B9420D
:1006A00008D0012906D00021D4F814C0BCF1010FF4
:1006B00002D00AE03946F7E7F3B1A36A43F020031A
:1006C000A362E36A43F00103E3622368D3F804C042
:1006D0002CF4694C4CEA010CC3F804C023689968F7
:1006E000DFF870C001EA0C0111439960A168B942BA
:1006F0000BD0012909D00CE0DFF85CC0A3690CEB3A
:1007000043330B4343F40061DFE7218A0D05A5F570
:1007100080152168CB6A23F470032B43CB622168D8
:1007200089680E4B1940914208D1E662A16A21F016
:10073000020141F00101A162BDE8F081A06A20F050
:10074000020040F01000A062E06A40F00100E062A8
:100750000120F1E7FDF7E1FF00E0FFFFFE0E1FFFC4
:1007600000B500680B4985B0884210D10A488169FC
:1007700041F4007181618069694600F40070049061
:100780000F20009003200190044800F001F905B00B
:1007900000BD00000024014000100240000801409C
:1007A0002DE9F84300260D460446009600F0D4F9E2
:1007B000804620688168C90508D5A06A40F02000FD
:1007C000A06284F824600120BDE8F8834168C9056F
:1007D00003D4C06A10F4700F26D0022000F056FC3B
:1007E00038490968B1FBF0F72068036936490B42C4
:1007F0004FEA61014FEAA1121BD1C3684FEA611CA5
:1008000013EA0C0F15D103690B4221D1C0681042C5
:100810001ED114201FE0681C06D045B300F09CF9DF
:10082000A0EB0800A84222D8206800688007F2D513
:100830002AE003690B4202D1C168114206D0026965
:1008400022490A4206D1C068084203D1542002E07E
:10085000292000E0FC204743009813E0681C0ED0DC
:100860002DB100F079F9A0EB0800A84207D9A06AE1
:1008700040F00400A06284F824600320A4E70098FC
:10088000401C0090B842E9D321686FF01200086064
:10089000A06A40F40070A06220688068C0F3424003
:1008A00007280CD1E06850B9A06A20F48070A062DB
:1008B000A06AC00403D4A06A40F00100A062002036
:1008C00082E700004000002024499224499224003D
:1008D00070B5044690F8240001280DD0012084F85A
:1008E00024002046FFF78EFD02004FF0000005D0E7
:1008F00084F82400104670BD022070BDA16A40F249
:100900000123994341F48071A1621F4D23681F495F
:10091000AB4218D10E6816F4702F14D0A66A46F4B4
:100920008016A6620E68760505D5A66A26F40056DE
:1009300046F48056A662A66AF6040AD5E66A26F050
:100940000606E66206E0A66A26F48016A6625E68DF
:10095000E9E7E06284F824006FF002001860206884
:100960008368C3F34243072B05D1A84208D1096825
:1009700011F4702F04D0816841F480118160B9E7CF
:10098000816841F4A001F9E70028014004240140F6
:100990002DE9F84FDFF890A100220AF1040B14466C
:1009A00001274FF00F090BF1040E00BF0B6807FA87
:1009B00004F52B40AB4274D1DFF870C14E68A6EB52
:1009C0000C0866452BD00DDC032E34D005DC36B385
:1009D000012E19D0022E2FD11BE0112E16D0122E6F
:1009E0002AD119E0B8F5881F19D006DCB8F5803F88
:1009F00015D0B8F5801F1FD111E0B8F5001F0ED03B
:100A0000B8F5041F18D10AE0CA6815E0CA68121DBB
:100A100012E0CA6808320FE0CA680C320CE08A683B
:100A20002AB1012A4FF0080203D0456104E00422F4
:100A300002E0056100E00022FF2B01D8064601E03C
:100A400000F104064FEA840501D9A5F12005D6F886
:100A500000C009FA05F82CEA080C02FA05F54CEA80
:100A6000050CC6F800C04D68ED0057D5304DAE6995
:100A700046F00106AE61AD6924F0030605F00105FC
:100A800000952C4D06EB050CDCF80850A6074FEA44
:100A9000167809FA08F6B543274EB04202D100266F
:100AA00010E03BE0254EB04201D101260AE0244E81
:100AB000B04201D1022605E0224EB04201D1032608
:100AC00000E0042606FA08F62E43CCF808604D68CC
:100AD000DAF80060ED03554601D51E4300E09E4361
:100AE0002E604D68DBF80060AD035D4601D51E4306
:100AF00000E09E432E604D68DEF80060ED02754612
:100B000001D51E4300E09E432E604D68AD020E4DA0
:100B10002E6801D51E4300E09E432E60641C102CFD
:100B2000FFF444AFBDE8F88F00040140000011104D
:100B3000001002400000014000080140000C01408C
:100B400000100140001401400C0401400AB1016191
:100B500070470904FBE70000014880687047000007
:100B60003400002070B504001BD094F83D0000252F
:100B700020B984F83C50204600F032F9242084F853
:100B80003D002068016821F00101016000F008FCCF
:100B9000404A6168914201D83F4900E03F4988429C
:100BA00001D2012070BD3E492368B0FBF1F15960CC
:100BB0006368934206D94FF4967359434FF47A739E
:100BC000B1FBF3F12368491C19626168914210D8A6
:100BD0004900401EB0FBF1F2521CC2F30B02042A82
:100BE00001D2042022E0B0FBF1F0401CC0F30B0066
:100BF0001CE0A368CBB301EBC10202EB0116421E5D
:100C0000B2FBF6F2521C42F48042120536D06BB3AE
:100C100001EBC10202EB0111401EB0FBF1F0401CE0
:100C2000C0F30B0040F4804040F400402168C861EC
:100C3000D4E90701084321680860D4E90310084398
:100C400021688860D4E9050108432168C8602068EC
:100C5000016841F0010101602564202084F83D0015
:100C6000256384F83E50002070BD00E008E001EBF1
:100C70004106421EB2FBF6F2521CC6E70120D5E740
:100C800001EB4101401EB0FBF1F0401CC0F30B0032
:100C9000CAE70000A086010080841E0000093D0014
:100CA00040420F002DE9FF4F83B09A46DDE91187DE
:100CB00093460446DDF84090FFF74EFF064694F851
:100CC0003D0020287DD1192301224349204600966A
:100CD00001F05DF800287CD194F83C00012878D020
:100CE000012084F83C0020680168C90703D101682D
:100CF00041F0010101602068016821F40061016098
:100D0000212084F83D00402084F83E000025256421
:100D1000C4F82490A4F82A803048E062608D2085D1
:100D2000CDE9007653465A462046049900F0B8FFB4
:100D300080B3206C84F83C50042848D008E0324648
:100D40003946204601F098F830B1206C042839D09B
:100D5000032007B0BDE8F08F606A411C6162216822
:100D600000780861208D401E80B22085618D491E6B
:100D7000618521684A69D24352070BD468B1606A21
:100D8000421C626200780861208D401E2085608DC3
:100D9000401E6085208D0028D1D13246394620463C
:100DA00000F0CEFF0028D0D154F83D0B016841F48B
:100DB00000710160202004F81E09E57765770020A6
:100DC000C7E706E02068016841F400710160012076
:100DD000BFE70220BDE70000020010000000FFFF97
:100DE00000B500680C4985B0884212D1C02000903F
:100DF000122001900320039069460848FFF7C8FDC0
:100E00000748C16941F40011C161C06900F40010D4
:100E1000049005B000BD000000540040000C0140EB
:100E200000100240024881680278114481607047D6
:100E300034000020074810B5016841F0100101603E
:100E4000032000F09DF80F2000F006F800F024F8D1
:100E5000002010BD0020024070B50D4D04464FF437
:100E60007A712878B1FBF0F00A490968B1FBF0F01B
:100E700000F0E8FC48B9102C07D200222146501E91
:100E800000F05EF800206C6070BD012070BD0000B5
:100E90003400002040000020214808B5816941F05D
:100EA00001018161816901F001010091C16941F095
:100EB0008051C161C06900F080500090032000F0B3
:100EC0005FF8002211466FF00B0000F039F80022A5
:100ED00011466FF00A0000F033F8002211466FF05F
:100EE000090000F02DF800221146501F00F028F8EC
:100EF00000221146101F00F023F800220F21901E3F
:100F000000F01EF800220F21501E00F019F80548CD
:100F1000416821F0E06141F00071416008BD0000CE
:100F2000001002400000014000F01F02012191402A
:100F30004009800000F1E020C0F800117047000077
:100F4000F0B40E4B1B680C46C3F30223C3F1070534
:100F5000042D00D90425191D072901D2002300E022
:100F6000DB1E012606FA05F1491E214099409E40EC
:100F7000761E16403143F0BC01F0C2B90CED00E022
:100F8000064900F0070208684FF6FF03184040EAE0
:100F90000220034A10430860704700000CED00E097
:100FA0000000FA052DE9F04186B004004FF000057D
:100FB00004D094F82904002620B108E0012006B0EE
:100FC000BDE8F08184F82864204600F04BF8032047
:100FD00084F82904206801F0F0FC04F110011422C7
:100FE00088466846FFF7EAF894E80F0001F0D2FC63
:100FF0000021206801F0EFFC5FF0010704EB4510D1
:1010000080F8297000F8285F8581C6700661466106
:101010006D1C86610F2DF1D35FF0000004EB4011D1
:1010200081F8296281F82802888681F82B62C1F84C
:101030003862C1F83C62401CC1F840620F28EDD311
:10104000142241466846FFF7B9F894E80F0001F012
:10105000A5FC84F8246084F82974206801F09CFCC5
:101060000020ACE708B500680649884208D1064868
:10107000C16941F40001C161C06900F40000009041
:1010800008BD0000005C00400010024010B529A41B
:1010900001461DCC86B08DE81D002AA02A4C0068B0
:1010A00004900020012923D002293AD010291DD113
:1010B00061682268D20119D5C1F38342C9031DF8C2
:1010C000020009D5616804AAC1F34041515C1F4A7E
:1010D000B2FBF1F1484301E01D4948436168490210
:1010E00004D440005FF00301B0FBF1F006B010BD86
:1010F000226AC2F30121012903D1920701D5C80355
:10110000F4E7022905D1626A920702D549F6404008
:10111000ECE70329EAD121688903E7D54FF224409F
:10112000E4E700F04DF96168C1F38131491C4900E1
:10113000DAE7000002030405060708090A0B0C0D94
:101140000E0F1010010200000010024000127A0081
:1011500000093D002DE9F84305460078354CC007ED
:1011600054D0E0690026C00008D4E06940F0805007
:10117000E061E069012600F0805000902E4801688F
:10118000C90512D40168804641F480710160FFF7FF
:10119000E3FC074605E000BFFFF7DEFCC01B642848
:1011A00023D8D8F80000C005F6D5206A10F44070A6
:1011B00021D0A98801F4407181421CD0206A1F49C6
:1011C000012220F440700A6000220A602062C007F9
:1011D00011D0FFF7C1FC074641F2883808E000BF94
:1011E000FFF7BAFCC11B414502D90320BDE8F883D3
:1011F000206A8007F4D5206A696820F440700843AB
:1012000020621EB1E06920F08050E06128788007FC
:1012100005D56068A96820F44040084360602878DC
:10122000C00605D56068E96820F480000843606066
:101230000020DBE700100240007000404004424202
:101240002DE9F047DFF83C8105460E46D8F800004E
:1012500000F00700B0420CD2D8F8001021F00701CE
:101260003143C8F80010D8F8000000F00700B04281
:1012700063D12878444C800705D56068A96820F0C0
:10128000F000084360602878C00745D068680128EE
:1012900016D02168022816D0890700294DDA616826
:1012A00021F0030101436160FFF756FC69680746BE
:1012B00041F2883001290FD00229814619D027E058
:1012C00021688903E9E78901E7E700BFFFF744FCEC
:1012D000C11B494501D918E081466068C0F381000F
:1012E0000128F3D118E000BFFFF736FCC11B4945C8
:1012F0000BD86068C0F381000228F5D10CE000BF74
:10130000FFF72AFCC11B494502D90320BDE8F0873D
:10131000606810F00C0FF3D1D8F80010404601F0CF
:101320000701B1420BD9016821F007013143016087
:10133000006800F00700B04201D00120E6E72878FD
:10134000400705D56068E96820F4E0600843606004
:101350002878000706D56068296920F4605040EAC3
:10136000C100606000F03CF86168084AC1F30311F5
:10137000515CC840064908600F20FFF76DFD002052
:10138000C4E7000000200240001002405C48000852
:101390004000002001480068704700004000002025
:1013A0000448054900684968044AC1F30221515CB8
:1013B000C840704740000020001002406C48000800
:1013C0000448054900684968044AC1F3C221515CD8
:1013D000C840704740000020001002406C480008E0
:1013E00012A185B00FC98DE80F0014A0144A00683F
:1013F00004905168134801F00C03042B10D0082B03
:101400000ED1C1F38343C9031DF803000AD5516807
:1014100004AAC1F34041515C0A4A5043B0FBF1F0C9
:1014200005B0704708494843FAE700000203040585
:10143000060708090A0B0C0D0E0F10100102000020
:101440000010024000127A0000093D002DE9F84F1B
:1014500004460078B94DC00748D06868C0F38100E1
:10146000012807D06868C0F38100022809D16868A4
:10147000C00306D52868800338D5606800286FD07F
:1014800034E06068B0F5803F0BD010B1B0F5A02F0C
:1014900011D0286820F480302860286820F480204B
:1014A00002E0286840F480302860606888B1FFF767
:1014B00053FB064609E0286840F480202860F0E7E6
:1014C000FFF74AFB801B642875D828688003F7D58E
:1014D0000CE0FFF741FB064605E000BFFFF73CFBD1
:1014E000801B6428F0D828688003F7D42078944EB5
:1014F00080074FF001094FF000083BD5686810F0F5
:101500000C0F07D06868C0F38100022809D1686811
:10151000C00306D42868800714D5206901281FD18C
:1015200010E02069B0B1C6F80090FFF715FB074640
:1015300005E000BFFFF710FBC01B0228C4D82868D5
:101540008007F7D52868616920F0F80040EAC100FB
:1015500028600FE0C6F80080FFF7FEFA074606E0B5
:10156000E9E000BFFFF7F8FAC01B022823D828687B
:101570008007F7D4207800072CD57248A169D9B12B
:10158000C0F80090FFF7E8FA074604E0FFF7E4FA36
:10159000C01B02280FD8686A8007F7D56A484FF445
:1015A000FA510068B0FBF1F0009000BF0098411EB6
:1015B0000091FAD20EE080E0C0F80080FFF7CCFA8C
:1015C000074604E0FFF7C8FAC01B022875D8686A0E
:1015D0008007F7D42078400760D5E8690027C0006D
:1015E00008D4E86940F08050E861E869012700F01C
:1015F0008050009055480168C90513D4016883469E
:1016000041F480710160FFF7A7FA824606E000BF4F
:10161000FFF7A2FAA0EB0A0064284ED8DBF800001E
:10162000C005F5D5E06801280AD008B1052813D017
:10163000286A20F001002862286A20F0040002E0F5
:10164000286A40F001002862E06841F2883B98B1C6
:10165000FFF782FA82460BE0286A40F00400286215
:10166000EEE700BFFFF778FAA0EB0A0159455AD818
:10167000286A8007F6D50CE0FFF76EFA824605E08F
:10168000FFF76AFAA0EB0A0159454CD8286A80078F
:10169000F6D41FB1E86920F08050E861E06988B3B2
:1016A0006968C1F38101022945D00228C6F860802B
:1016B00004D0FFF751FA044638E034E0FFF74CFA63
:1016C000074604E0FFF748FAC01B02282BD8286819
:1016D0008001F7D4206AB0F5803F05D16868A16821
:1016E00020F4003008436860D4E9080108436968C1
:1016F00021F4741108436860C6F86090FFF72CFA73
:10170000044606E015E000BFFFF726FA001B02289A
:1017100009D828688001F7D50BE000BFFFF71CFA55
:10172000001B022802D90320BDE8F88F2868800139
:10173000F4D40020F8E70120F6E700000010024092
:1017400000004242800442424000002000700040FD
:1017500070B5040005D00025A56294F8510010B1C1
:1017600004E0012070BD204600F034F8022084F827
:1017700051002068016821F040010160D4E90101B5
:101780000843D4E903121143084361690843218BDC
:1017900001F400710843E1690843216A0843A16A22
:1017A000084321680860A069042101EA1040616AC9
:1017B0000843216848602168E06A08612068C169BF
:1017C00021F40061C1616565012084F851000020A9
:1017D00070BD000010B50068114986B088421CD168
:1017E0001048816941F48051816180690E4C00F498
:1017F00080500490A02000900220019003200390CC
:1018000069462046FFF7C4F800214020CDE90001D9
:10181000029169462046FFF7BBF806B010BD0000F4
:101820000030014000100240000801404FF0E0216C
:101830000428086903D020F004000861704740F0D4
:101840000400FAE710B5401EB0F1807F01D30120FB
:1018500010BD4FF0E02460610F21601700F050FDD3
:101860000020A06107202061002010BD7047704754
:1018700030B590F83C20012A20D0012280F83C208D
:10188000022380F83D3003685C6824F070045C60DB
:1018900003685C680D682C435C6003689C6824F0F6
:1018A00080049C6003689C6849680C439C6080F8D5
:1018B0003D20002180F83C10084630BD022030BD9C
:1018C00010B5040003D094F83D0010B107E00120EA
:1018D00010BD002084F83C00204600F00DF80220E6
:1018E00084F83D00211D206800F030FF012084F8BD
:1018F0003D00002010BD000008B501681448B1F19A
:10190000804F14D0134A914220D1C16941F00201A5
:10191000C161C069002200F00200009006211D2074
:10192000FFF70EFB1D20BDE80840FFF7FDBAC169B7
:1019300041F00101C161C069002200F00100009086
:1019400005211C20FFF7FCFA1C20ECE708BD000075
:10195000001002400004004070B5044690F83C00BE
:10196000012817D0012584F83C50022084F83D005E
:101970002068826822F0770222F47F428260086841
:10198000502837D00DDC202859D005DC88B310282A
:1019900041D151E0022070BD302853D040283AD1C7
:1019A0003FE060282ED070280BD0B0F5805F03D0C8
:1019B000B0F5005F2FD110E02068816821F00701A9
:1019C00015E0CB68D1E90121206800F0F5FE21681F
:1019D000886840F0770088601DE0CB68D1E901217C
:1019E000206800F0E9FE2068816841F48041816050
:1019F00011E01EE0CA684968206800F0EFFE50213F
:101A0000206806E0CA684968206800F0F8FE602196
:101A1000206800F0DBFE84F83D50002084F83C0094
:101A200070BDCA684968206800F0D8FE402120686F
:101A3000EFE700212068ECE710212068E9E720218A
:101A40002068E6E730212068E3E7704770B5044678
:101A5000006801694FF00005C943890715D4C168C2
:101A6000C943890711D4E91E01610120207720684C
:101A700080698007204602D0FFF7E7FF04E000F00E
:101A800098F8204600F096F8257720680169C94348
:101A9000490717D4C168C943490713D46FF004013B
:101AA0000161022020772068806910F4407F204681
:101AB00002D0FFF7CAFF04E000F07BF8204600F0F8
:101AC00079F8257720680169C943090716D4C168E8
:101AD000C943090712D46FF008010161042020777F
:101AE0002068C0698007204602D0FFF7AEFF04E0FF
:101AF00000F05FF8204600F05DF825772068016966
:101B0000C943C90617D4C168C943C90613D46FF0C5
:101B100010010161082020772068C06910F4407F1F
:101B2000204602D0FFF791FF04E000F042F8204683
:101B300000F040F8257720680169C943C90708D13A
:101B4000C168C943C90704D1891E0161204600F05C
:101B500032F820680169C943090609D4C168C9433C
:101B6000090605D46FF0800101612046FFF77EFE73
:101B700020680169C943490609D4C168C9434906B7
:101B800005D46FF040010161204600F015F820688F
:101B90000169C94389060BD4C168C943890607D4C2
:101BA0006FF0200101612046BDE87040FFF75FBE85
:101BB00070BD704770477047704770B5040004D01F
:101BC00094F83900002510B106E0012070BD84F8BA
:101BD0003850204600F022F8242084F8390020688C
:101BE000C16821F40051C160204600F01BFE20684E
:101BF000016921F4904101612068416921F02A01C5
:101C000041612068C16841F40051C160E563202052
:101C100084F8390084F83A00002070BD10B50068DF
:101C2000114986B088421DD11048816941F4804134
:101C3000816180690E4C00F4804004904FF4007084
:101C40000090022001900320039069462046FEF791
:101C50009FFE00212015CDE9000102916946204632
:101C6000FEF796FE06B010BD00380140001002409D
:101C700000080140FEE701684A69D24352050CD4CE
:101C80006FF480624A6104210164002140F8301F32
:101C9000202242730173012070470020704700002A
:101CA0002DE9F843044600680D46DDE90897016810
:101CB0009846164641F4807101604B4600224FF071
:101CC00001112046009700F062F8E8B9216805F09C
:101CD000FE0008613B464A461849204600F088F855
:101CE00028B1206C04280FD10120BDE8F8832068BA
:101CF0004169806900903A464946204600F0BCF8A8
:101D000020B1206C042813D00320EEE7F5B2B8F11F
:101D1000010F09D02168300A08613A464946204639
:101D200000F0AAF80028ECD1206805610020DCE76B
:101D30002068016841F400710160D5E702000100EC
:101D400070B516460D4604461AE02046FFF793FF8D
:101D500008B1012070BD681C12D025B1FEF7FCFE51
:101D6000801BA8420CD954F8400F40F0200044F8E2
:101D7000100900202060202161732073032070BDB2
:101D800020684069C0434007DFD4002070BD2DE9C2
:101D9000F0471E4690460D460446C1F30747DDF85E
:101DA000209012E0701C10D02EB1FEF7D5FEA0EBF3
:101DB0000900B04209D9002044F8300F2021617396
:101DC000A07320730320BDE8F0872068012F0AD09C
:101DD000806925EA00000004000C06D0002141457E
:101DE000E0D00020EFE74069F3E70121F7E70000CA
:101DF0002DE9F0479A4691460D46044600264FF0DD
:101E00002008C1F307472AE020684069C043400525
:101E100012D42068016841F40071016021686FF4F8
:101E20008060486104202064266384F83D8084F843
:101E30003C600120BDE8F087B9F1FF3F0FD0B9F158
:101E4000000F05D0FEF788FEA0EB0A01494506D930
:101E500044F8306F84F80D8026730320EAE7206889
:101E6000012F07D0D0F8180025EA00000004000C6C
:101E7000E0D0C9E74069F7E770B516460D4604465D
:101E80001AE02046FFF7F7FE08B1012070BD681C7C
:101E900012D025B1FEF760FE801BA8420CD954F881
:101EA000400F40F0200044F810090020206020215D
:101EB00061732073032070BD20684069C043000631
:101EC000DFD4002070BD00003EB512480024104948
:101ED0008460C46044610160012505614FF46021A4
:101EE0004460C161FEF7AEFB18B14D210AA000F0BD
:101EF00075FD07200094CDE9015069460548FEF7BD
:101F00001FFB002803D0572103A000F067FD3EBD52
:101F100000240140A40000202E2E2F5372632F6155
:101F200064632E630000000030B5ABB01422334967
:101F30006846FEF743F90021684600F000FF304C88
:101F40002E4914222060143105A8FEF737F900212C
:101F500005A800F0F4FE29496060142228310AA87F
:101F6000FEF72CF900210AA800F0E9FE2349A06041
:101F700014223C310FA8FEF721F900210FA800F030
:101F8000DEFE1E49E0601422503114A8FEF716F957
:101F9000002114A800F0D3FE1849206114226431F6
:101FA00019A8FEF70BF9002119A800F0C8FE134983
:101FB0006061D1E91E01CDE91E0127A82090002112
:101FC0001EA800F0DDFD0D4DA0618035D5E90101B1
:101FD000CDE9210128A82390002121A800F0D0FDFF
:101FE000E061D5E90401CDE9240129A8269000216A
:101FF00024A800F0C5FD20622BB030BDC04700080A
:1020000008000020F0B52C4885B0816941F020011E
:102010008161816901F020010491816941F004012D
:102020008161816901F004010491816941F0080135
:1020300081618069214E00F0080004900022102187
:102040003046FEF783FD1E4F012202213846FEF77F
:102050007DFD0122D1033046FEF778FD00220821E4
:102060003846FEF773FD012448F21000CDE9000464
:10207000032569463046CDE90245FEF789FC002676
:10208000CDE90046694638460294FEF781FC0A20F5
:10209000CDE9000469463846CDE90245FEF778FCF3
:1020A0004FF44C70CDE90006022002906946384694
:1020B000FEF76EFC05B0F0BD0010024000080140C4
:1020C000000C01400E4810B50C4901600D494160FB
:1020D00000214FF480428160C0E9031241618161B7
:1020E000C1610162FEF73EFD002805D0BDE8104049
:1020F0004C2105A000F072BC10BD0000005400404F
:10210000D4000020A08601002E2E2F5372632F6969
:1021100032632E6300000000114810B50F490160C2
:102120004FF482714160002102228160C0E90312F4
:1021300001224261520282611022C0E907214162FC
:1021400081620A21C162FFF703FB002805D0BDE8C8
:1021500010404F2103A000F041BC10BD00300140F1
:10216000280100202E2E2F5372632F7370692E6367
:102170000000000010B5184886B04FF080410160A3
:1021800040F2E7310024C0E9011440F2CF21C0E958
:1021900003148461FFF794FB18B14A210FA000F0EB
:1021A0001DFC4FF48050009069460B48FFF7D4FBAC
:1021B00018B1502109A000F011FC049404A90648AC
:1021C0000594FFF755FB002803D0572103A000F02A
:1021D00005FC06B010BD0000800100202E2E2F53FC
:1021E00072632F74696D2E630000000010B51848EB
:1021F00086B01649016040F2E7310024C0E90114BD
:102200004721C0E903148461FFF75AFB18B1692123
:1022100010A000F0E3FB4FF48050009069460C489A
:10222000FFF79AFB18B16F210AA000F0D7FB0494C6
:1022300004A907480594FFF71BFB002803D076216B
:1022400004A000F0CBFB06B010BD0000000400406D
:10225000C00100202E2E2F5372632F74696D2E63E0
:10226000000000000D4810B50B4901604FF4E1314A
:102270004160002181600C22C160C0E904128161CB
:10228000C161FFF79AFC002805D0BDE810404C2141
:1022900003A000F0A3BB10BD0038014000020020E5
:1022A0002E2E2F5372632F75736172742E6300008C
:1022B0000D4810B50B490160082141600221816081
:1022C0000321C16000218161C1610162FEF76AFEE4
:1022D000002805D0BDE81040492104A000F07EBBD5
:1022E00010BD0000005C0040400200202E2E2F5345
:1022F00072632F7573622E6300000000FEE7704763
:102300000907090E002806DA00F00F0000F1E020AE
:1023100080F8141D704700F1E02080F80014704729
:1023200070B506465FF0000404F1B000C0B200F0E2
:102330001FF9012000F01CF9102000F019F9002508
:10234000304600F027F96D1CEDB2802DF8D3641CE7
:10235000E4B2082CE8D370BD10B5AE2000F008F947
:10236000202000F005F9102000F002F9B02000F064
:10237000FFF8C82000F0FCF8002000F0F9F8102069
:1023800000F0F6F8402000F0F3F8812000F0F0F8BB
:10239000FF2000F0EDF8A12000F0EAF8A62000F000
:1023A000E7F8A82000F0E4F83F2000F0E1F8A420CE
:1023B00000F0DEF8D32000F0DBF8002000F0D8F8C1
:1023C000D52000F0D5F8F02000F0D2F8D92000F0A8
:1023D000CFF8222000F0CCF8DA2000F0C9F8122063
:1023E00000F0C6F8DB2000F0C3F8202000F0C0F8B1
:1023F0008D2000F0BDF8142000F0BAF8AF2000F0F6
:10240000B7F80020FFF78CFF0021BDE81040084618
:1024100000F09AB82DE9F04790468A460546002616
:10242000DFF848901CE02038C7B27E2D04D90AF1AD
:102430000100002500F0FF0A5146284600F084F80C
:1024400007EB4700002409EB4007385D00F0A2F8D5
:10245000641CE4B2062CF8D3AD1D761CEDB2F6B2C6
:1024600018F806000028DED1BDE8F087A83F000874
:102470002DE9F0471500884604464FF0000601D4C8
:102480002EA201E055422EA2FFF7C4FF642095FB67
:10249000F0F10A2091FBF0F200FB121110318FB223
:1024A00095FBF0F191FBF0F200FB121110311FFAD5
:1024B00081F995FBF0F100FB115010301FFA80FA02
:1024C0007E2C04D908F10100002400F0FF08A01DB3
:1024D000C0B2414600F038F81A4D07EB470005EB53
:1024E0004007B85D00F056F8761CF6B2062EF8D319
:1024F00004F10C00C0B2414600F026F809EB490097
:10250000002605EB4007B85D00F044F8761CF6B2F3
:10251000062EF8D31234E0B2414600F015F80AEB6B
:102520004A00002405EB4005285D00F033F8641CE8
:10253000E4B2062CF8D3BDE8F087000020000000CC
:102540002D000000A83F000810B50446B031C8B205
:1025500000F00EF8102040EA141000F009F804F022
:102560000F00BDE8104040F0010000F001B800008D
:1025700001B584B00121102204A88DE807000B46A4
:10258000002278210248FEF78DFB05B000BD000057
:10259000D400002001B584B00121102204A88DE8E8
:1025A00007000B46402278210248FEF77BFB05B06E
:1025B00000BD0000D4000020012000F0D5FAFBE7A8
:1025C000054C0A20FDF770FF0449A06900F050FB9C
:1025D0000A2000F0C9FAF4E70800002000000020FB
:1025E000094900206FF0630221F81020401CC0B29E
:1025F0000428F9D3044C243C0349206A00F038FB3A
:10260000012000F0B1FAF7E72C000020012000F0D3
:10261000ABFAFBE7012000F0A7FAFBE70EB54FF499
:102620007A7000F0A1FA0D4C0A226846A16900F008
:10263000D5FADDE90010202901D100F05DFA0A2267
:102640006846216A00F0CAFADDE90010202901D1AC
:1026500000F06EFA012000F087FAE5E7080000209C
:1026600010B5FEF7DFFBBDE8104000F05EBB30B5F3
:1026700093B001210804CDE9001000240294022542
:102680000491CDE907504FF4E01009906846FEF739
:10269000DDFE00B1FEE70F20CDE90A054FF48060B2
:1026A000CDE90C4002210AA80E94FEF7C9FD00B145
:1026B000FEE712200F904FF40040CDE911040FA85F
:1026C000FEF748FD00B1FEE7FEF764FE4FF47A71B5
:1026D000B0FBF1F0FFF7B6F80420FFF7A7F80022EF
:1026E0000F21501EFEF72CFC13B030BD0D480168C1
:1026F00041F00101016041680B4A114041600168ED
:102700000A4A11400160016821F48021016041689A
:1027100021F4FE0141604FF41F0181600449C003B0
:1027200008607047001002400000FFF8FFFFF6FE4F
:1027300008ED00E00148FFF789B9000080010020A2
:102740000148FFF783B90000C0010020F0B502681E
:10275000164B174C174D4FF08047984205D0B842A2
:1027600003D0A04201D0A84203D122F070064A68EB
:102770003243984205D0B84203D0A04201D0A842CB
:1027800003D122F44074CA68224322F080044A69CB
:10279000224302608A68C2620A688262984201D15A
:1027A0000969016301214161F0BD0000002C014075
:1027B000000400400008004010B5846842EA03228B
:1027C00024F47F440A432243826010BD826822F0D1
:1027D00070020A4342F007018160704710B5036A36
:1027E000046A24F001040462846924F0F00444EAD9
:1027F000021423F00A020A438461026210BD10B57C
:10280000036A23F0100303628369046A23F47043AC
:1028100043EA023224F0A00343EA0111826101621B
:1028200010BD00002DE9F041044600680169E2682E
:1028300021F44051114301612169A0680843616995
:1028400008432168CA6841F20C639A430243CA6094
:1028500020684169A26921F44071114341614C49EA
:1028600020686425322688423CD1FEF7A9FD00EBA2
:10287000C00101EB001061688900B0FBF1F7FEF7C1
:102880009FFD00EBC00101EB00106168B0468900BC
:10289000B0FBF1F0B0FBF5F06FF01801484307EB27
:1028A000800106EB0110B0FBF5F000F0F006FEF73A
:1028B00087FD00EBC00101EB001061688900B0FBEF
:1028C000F1F0B0FBF5F006EB0016FEF779FD00EB3A
:1028D000C00101EB001061688900B0FBF1F7FEF761
:1028E0006FFD3BE0FEF75CFD00EBC00101EB00106B
:1028F00061688900B0FBF1F7FEF752FD00EBC00103
:1029000001EB00106168B0468900B0FBF1F0B0FB4C
:10291000F5F06FF01801484307EB800106EB01105A
:10292000B0FBF5F000F0F006FEF73AFD00EBC00159
:1029300001EB001061688900B0FBF1F0B0FBF5F02D
:1029400006EB0016FEF72CFD00EBC00101EB0010BA
:1029500061688900B0FBF1F7FEF722FD00EBC001D2
:1029600001EB001061688900B0FBF1F0B0FBF5F0FD
:102970006FF01801484307EB800108EB0110B0FB32
:10298000F5F0216800F00F0030448860BDE8F08168
:1029900000380140002070470020704700B5012139
:1029A000A0F840100021A0F84010A0F84410A0F8B2
:1029B000501000F009F8002000BD30F8401F21F44D
:1029C0003D4101800020704730F8401F41F43F41F5
:1029D00001800020704700207047FEE7FEE702E01C
:1029E00008C8121F08C1002AFAD17047704700209A
:1029F00001E001C1121F002AFBD17047EFF30580EF
:102A0000002800D001207047FEF714FAFFF72FFED0
:102A1000FFF7F8FAFFF758FAFFF754FBFFF77CFBD4
:102A2000FFF7A8FBFFF7E2FBFFF742FCFFF71AFCFA
:102A3000FFF792FC00F00CF8FFF776FA00F09BF835
:102A4000FEE701460020842900D0C81C7047000022
:102A500010B5002114A20846FFF7DCFC14A20121E6
:102A60000020FFF7D7FC14A202210020FFF7D2FCC0
:102A700013A203210020FFF7CDFC13A204210020A4
:102A8000FFF7C8FC13A205210020FFF7C3FC14A226
:102A900006210020FFF7BEFC0721BDE8104013A26D
:102AA0000020FFF7B7BC000050697463683A00006B
:102AB000526F6C6C203A000059617720203A000078
:102AC00054687220203A000050206F666665737467
:102AD0003A00000052206F66666573743A00000089
:102AE00059206F66666573743A00000054206F6663
:102AF000666573743A00000010B50446B0F9002012
:102B000000212420FFF7B4FCB4F902200121242085
:102B1000FFF7AEFCB4F9042002212420FFF7A8FC43
:102B2000B4F906200321BDE810402420FFF7A0BC23
:102B300010B50446B0F9002004214020FFF798FCAE
:102B4000B4F9022005214020FFF792FCB4F90420DB
:102B500006214020FFF78CFCB4F906200721BDE8D0
:102B600010404020FFF784BC10B500B9012000F0F0
:102B700093FC002010BD10B500F026FD002010BD14
:102B80003EB504460020009001900290206800901D
:102B9000606801900C2000F015FBA1680028086017
:102BA00019D0046000220421206800F0C7FDA1684C
:102BB00009684860A168096870B1684600F086F845
:102BC0000100A06800688160A068006803D100BFB0
:102BD00000F0FAFB00203EBD0846F9E72DE9FF4171
:102BE0000D000646029522D04FF000084446CDF86D
:102BF0000C80501C20D002B11446FFF7FFFE2027A6
:102C00000028686869461CD003AA091D00F0C2FFAD
:102C1000012814D0CDF800800398E0B113494FF09B
:102C200080500860BFF34F8FBFF36F8F13E0802099
:102C300000902A46019910E04FF0FF34DDE700973D
:102C4000EAE700232246091D00F09CFD012808D078
:102C50004CB1402000909DE8070086E80700BDE8E1
:102C6000FF810097F7E70020F4E7000004ED00E0A3
:102C700013B582B004000FD000200090FFF7BEFE15
:102C8000002860684FF0000314D06A4603A900F0E2
:102C900023FF012814D102E0802004B010BD009869
:102CA00080B109494FF080500860BFF34F8FBFF3E8
:102CB0006F8F07E0002203A900F05EFE012801D01B
:102CC000FF20EAE70020E8E704ED00E02DE9F0410D
:102CD00005464068C01C20F00307142000F072FA7B
:102CE00004001FD0002628682661C4E9020728686E
:102CF00000F068FA606088B12868784300F062FAF2
:102D0000206040B1002002E061680E54401C296838
:102D10008142F9D806E0606800F056FB204600F0DA
:102D200053FB00242046BDE8F08110B500F0E2FF1F
:102D3000012803D0BDE8104000F0EABC10BD3EB54C
:102D400004460D46B0F90800FFF77BFE02A9CDE965
:102D50000001208A2B4682B2D4E9001000F09EFFC9
:102D6000012801D000203EBD02983EBD2DE9F04172
:102D7000184C0F460546E6682068001D00F0ACFAC6
:102D800038B9206890F82C100120884021698143CF
:102D90002161681C07D137B12168BDE8F0410E48B8
:102DA000091D00F0D1BA20683544B542456021685C
:102DB00005D2A06BBDE8F041091D00F0ADBA606B13
:102DC000091D00F0A9FAA06A854200D2A562BDE8FB
:102DD000F0810000680000207C2F00202DE9F041E8
:102DE000054600F0BDFA2E4CA068401CA06020688B
:102DF0002C4F10B1606940B32DE02560A068012818
:102E000029D1002606EB860007EB800000F076FA59
:102E1000761C072EF6D323488C3000F06FFA214839
:102E2000A03000F06BFA1F48B43000F067FA1D487C
:102E3000C83000F063FA1B48DC3000F05FFA194834
:102E40008C3060631430A06305E02068E96AC06AD2
:102E5000884200D82560606A401C6062E96A0120EF
:102E6000226988401043206101EB810007EB80005C
:102E7000291D00F069FA00F093FA606900280CD06F
:102E80002068E96AC06A884207D207494FF080503B
:102E90000860BFF34F8FBFF36F8FBDE8F081000074
:102EA00068000020A02E002004ED00E070B5114E57
:102EB000114C17E000F0BCFB3068B8B101F012F81B
:102EC00000F04EFAF068C568281D00F005FAA06809
:102ED000401EA0606068401E606000F061FA2846F5
:102EE00000F055F860680028E4D170BD00F0FAFFEA
:102EF000F8E70000682F00206800002030B4026C62
:102F00000B46002A0BD0C1681144C1604468A1423D
:102F100001D30168C16030BC1846FDF74FB930BC21
:102F200070472DE9F041856B174604460026026C78
:102F300082B1C7B1E068FDF741F9E168206C091A78
:102F4000E1602268914202D26168081AE060022FB3
:102F500016D017E02068A8B9606800F03DFF06466B
:102F6000002060600EE0A068FDF728F9216CA068E1
:102F70000844A0606168884204D32068A06001E032
:102F800005B16D1E6D1CA5633046BDE8F08110B51E
:102F90000446006B00F018FA2046BDE8104000F02F
:102FA00013BA000010484FF42051420706D0C01D4C
:102FB0000D4920F00700411AC1F520510B4A0023AA
:102FC0000144C2E900030839103A21F007011160F9
:102FD0004B600B600B1AC0E9001393604FF0004088
:102FE0005360D06070470000A0060020540000200D
:102FF000074C4FF08056074DFFF758FF2068012817
:10300000FAD92E60BFF34F8FBFF36F8FF4E7000044
:10301000A02E002004ED00E02DE9F0479A46DDE9FE
:10302000098481466FF00303206B03EB8202104496
:10303000089D20F00706700707D0502080F3118804
:10304000BFF34F8FBFF36F8FFEE723180A5C83F83F
:1030500034200A5C12B1401C1028F6D3002784F8F3
:103060004370072D00D30625E562C4E91157201DE2
:1030700000F04FF904F1180000F04BF92461C5F19C
:1030800007006462A061E76484F8507052464946C4
:10309000304600F00FF92060B8F1000F01D0C8F8F9
:1030A0000040BDE8F087000030B5114900E011464E
:1030B0000A688242FBD34B685C18844203D14068A3
:1030C00018444860084643681C18944209D1084CCB
:1030D000103C2468A24209D052681A4442600A682F
:1030E00012680260814200D0086030BD0460F9E7D8
:1030F0005400002010B5044600F032F9A06B28B14E
:103100005FF0000400F04CF9204610BD0124F9E7FF
:103110000648416B096829B1416BC968C9684968AB
:10312000816270474FF0FF31FAE70000680000202D
:1031300008484068401C4FF0500080F3118804D0CC
:10314000BFF34F8FBFF36F8FFEE7BFF34F8FBFF318
:103150006F8FFEE75C0000202DE9F041044600F08F
:10316000FFF894F9455004F1240609E0606A48B17B
:10317000304600F07DFE08B100F0B4F96D1E6DB26E
:10318000002DF3DC4FF0FF3684F8456000F008F9BD
:1031900000F0E6F894F9445004F1100709E02069C2
:1031A00048B1384600F064FE08B100F09BF96D1E8E
:1031B0006DB2002DF3DC84F84460BDE8F04100F00E
:1031C000EFB800002DE9F0410546002700F030FA85
:1031D000314E306808B9FFF7E5FEF06805424BD183
:1031E000C5B3083568070ED005F00700C0F1080028
:1031F0000544680707D0502080F31188BFF34F8F34
:10320000BFF36F8FFEE72DB37068854234D8224834
:10321000103001460C6801E020460C466168A94266
:1032200002D221680029F7D131688C4224D0076886
:103230002168016060680837411B10290FD96019A7
:10324000420708D0502080F31188BFF34F8FBFF39F
:103250006F8FFEE710E041606560FFF725FF616852
:103260007068401A7060B268904200D2B060F06836
:1032700001430020C4E9000100F034FE780707D0C4
:10328000502080F31188BFF34F8FBFF36F8FFEE79D
:103290003846BDE8F0810000440000200449086879
:1032A00018B10868826C521C82640868704700007C
:1032B0006800002010B5031F4FF080741C601B1FB6
:1032C00021F001011960191F024B0B6014394038BD
:1032D0000A6010BD31310008D0E9013201699A60FD
:1032E000D0E901235A604A68824201D182684A606B
:1032F000002202610868401E0860704700F1080162
:103300004FF0FF32C0E90112C1600161002101608C
:10331000704700210161704730B50B685A1C02D01C
:1033200000F1080202E0026904E0224654682568C0
:103330009D42FAD953684B6099608A605160086178
:103340000168491C016030BD42684A6093688B6027
:1033500093685960916008610168491C0160704779
:10336000502080F31188BFF34F8FBFF36F8F0A494E
:103370004868401C486001280CD10848006810F0DB
:10338000FF0F07D0502080F31188BFF34F8FBFF39A
:103390006F8FFEE7704700005C00002004ED00E046
:1033A0000849486828B1401E486001D180F311885F
:1033B0007047502080F31188BFF34F8FBFF36F8F9A
:1033C000FEE700005C00002070B5002827D0144DF7
:1033D000A0F108046168E868014207D1502080F339
:1033E0001188BFF34F8FBFF36F8FFEE722683AB1AA
:1033F000502080F31188BFF34F8FBFF36F8FFEE72C
:103400008143616000F014F960686968084468608D
:103410002046FFF749FEBDE8704000F063BD70BD77
:103420004400002006484FF47A710068B0FBF1F1C7
:103430004FF0E020491E4161072101617047000003
:103440004000002010B5FCF7A3FE114910280ED350
:1034500000F1E02090F8F0030A78904207D2502063
:1034600080F31188BFF34F8FBFF36F8FFEE70948DA
:103470000068896800F4E060884207D9502080F332
:103480001188BFF34F8FBFF36F8FFEE710BD0000B1
:103490005C0000200CED00E010B5020014D00F48D5
:1034A000006B38B1502080F31188BFF34F8FBFF30A
:1034B0006F8FFEE700F0BCF800211046FFF756FCC6
:1034C00000F010FD002807D105494FF0805008603A
:1034D000BFF34F8FBFF36F8F10BD00006800002057
:1034E00004ED00E001490120C86170476800002038
:1034F00010B50C4650B1094909681831FFF70CFFA7
:103500002046BDE810400121FFF730BC502080F379
:103510001188BFF34F8FBFF36F8FFEE76800002065
:1035200070B5040039D01D4DE06A2968C96A884227
:1035300033D2A069002804DB2868C06AC0F1070004
:10354000A061E16A164E01EB8101606906EB810121
:1035500088421FD1201DFFF7BFFE012150B9E06A4C
:1035600000EB800256F8222022B92A6901FA00F005
:1035700082432A612868C06AE0622A698140114357
:10358000296100EB800006EB8000211DBDE8704042
:10359000FFF7DABE2868C06AE06270BD68000020EC
:1035A000A02E002028B107490A6A0260C96841605C
:1035B0007047502080F31188BFF34F8FBFF36F8F98
:1035C000FEE70000680000201CB515480024CDE986
:1035D00000402346802213A1144800F05FFB01281D
:1035E00009D0401C1AD1502080F31188BFF34F8FAF
:1035F000BFF36F8FFEE7502080F31188BFF34F8F2A
:10360000BFF36F8F06484FF0FF312C3881620121E4
:103610004161C460BDE81C4000F040B81CBD000022
:103620009400002049444C4500000000F12F0008A0
:103630000248016B491C01637047000068000020CC
:103640001448016B11B10121C16170470021C161B2
:103650000169B1FA81F1C1F11F0101EB81020E494B
:1036600051F822306BB101EB820101F108034A6885
:1036700052684A609A4201D152684A60D16801603A
:103680007047502080F31188BFF34F8FBFF36F8FC7
:10369000FEE7000068000020A02E00201CB519499C
:1036A00008780190FF20087008788DF800009DF8D8
:1036B0000000154A00F0500010700720906005E0EF
:1036C0009DF800305B008DF80030401E9DF8003002
:1036D0001B06F5D4000200F4E060906001980870C9
:1036E0000A48016841F470010160016841F07041CD
:1036F0000160FFF797FE00205060FCF713FD0020EB
:103700001CBD000000E400E05C00002020ED00E0B3
:1037100010B5502080F31188BFF34F8FBFF36F8F28
:1037200000F0F6FA18B104494FF08050086000200C
:1037300080F3118810BD000004ED00E070B50E4666
:10374000050013D0D6B105FB06F04830FFF73AFD6F
:10375000040009D004F1480120468EB10160C0E99F
:103760000F56012100F0C4F8204670BD502080F3B0
:103770001188BFF34F8FBFF36F8FFEE70020E4E7A0
:103780000060ECE72DE9FF4F002683B09B468A4698
:10379000040003D0BAF1000F08D011E0502080F3EC
:1037A0001188BFF34F8FBFF36F8FFEE7206C38B1E6
:1037B000502080F31188BFF34F8FBFF36F8FFEE768
:1037C00000F098FADFF824814FF000094FF080579D
:1037D00048B9059838B1502080F31188BFF34F8F56
:1037E000BFF36F8FFEE7FFF7BBFDA56B45B35146F7
:1037F0002046E668FFF782FBBBF1000F13D0E660BE
:10380000606A50B104F1240000F032FB28B1C8F81E
:103810000070BFF34F8FBFF36F8FFFF7C1FD012023
:1038200007B0BDE8F08F6D1EA563206810B9FFF7E3
:1038300035FD606020690028EFD004F11000E3E757
:10384000059808B11EB106E0FFF7AAFD27E068461B
:10385000FFF7A8FE0126FFF7A3FDFFF7E9FEFFF73C
:103860007FFD94F94400401C01D184F8449094F900
:103870004500401C01D184F84590FFF791FD05A952
:10388000684600F0D5F9002820460AD0FFF764FC0E
:1038900000F028FB2046FFF72DFC0028A3D00020D5
:1038A000BEE7FFF727FCD8B1206830B9FFF758FD15
:1038B0006068FFF735FEFFF773FD04F124000599FA
:1038C000FFF716FE2046FFF747FC00F00BFB002831
:1038D00089D1C8F80070BFF34F8FBFF36F8F82E7B5
:1038E0002046FFF739FC00F0FDFA7CE704ED00E02C
:1038F00070B50D46040025D0FFF732FDD4E90F2046
:10390000216802FB001161600021A1632168A160B0
:103910000A46D4E90F01401E00FB0121E160214667
:103920004FF0FF3001F8440F487004F110008DB1E2
:10393000FFF7E4FC04F12400FFF7E0FCFFF730FDA3
:10394000012070BD502080F31188BFF34F8FBFF36B
:103950006F8FFEE721690029F0D000F089FA002876
:10396000ECD004494FF080500860BFF34F8FBFF395
:103970006F8FE3E704ED00E02DE9FF4782B01D46BD
:103980008A464FF00008040003D0BAF1000F08D0B7
:1039900011E0502080F31188BFF34F8FBFF36F8F7A
:1039A000FEE7206C38B1502080F31188BFF34F8FB1
:1039B000BFF36F8FFEE7022D0AD1E06B012807D01D
:1039C000502080F31188BFF34F8FBFF36F8FFEE756
:1039D00000F090F93F4F4FF000094FF0805648B982
:1039E000049838B1502080F31188BFF34F8FBFF394
:1039F0006F8FFEE7FFF7B4FCA06BE16B884207D343
:103A0000022D05D00498D0B1B8F1000F1AD01EE0F5
:103A10002A4651462046FFF784FA616A19B104F13B
:103A2000240000F025FA20B13E60BFF34F8FBFF3B2
:103A30006F8FFFF7B5FC012006B0BDE8F087FFF7F8
:103A4000AFFC22E06846FFF7ADFD4FF00108FFF73D
:103A5000A7FCFFF7EDFDFFF783FC94F94400401C41
:103A600001D184F8449094F94500401C01D184F8B8
:103A70004590FFF795FC04A9684600F0D9F830B1ED
:103A80002046FFF769FB00F02DFA0020D4E7FFF78E
:103A900067FCA06BE16B884213D1FFF781FC04F156
:103AA00010000499FFF724FD2046FFF755FB00F0B6
:103AB00019FA00289ED13E60BFF34F8FBFF36F8F7E
:103AC00098E7FFF76DFC2046FFF746FB00F00AFA87
:103AD00090E7000004ED00E02DE9F0471F46904616
:103AE0008946040003D0B9F1000F08D011E050203E
:103AF00080F31188BFF34F8FBFF36F8FFEE7206C09
:103B000038B1502080F31188BFF34F8FBFF36F8F10
:103B1000FEE7022F0AD1E06B012807D0502080F386
:103B20001188BFF34F8FBFF36F8FFEE7FFF78AFC5B
:103B30005020EFF3118680F31188BFF34F8FBFF34E
:103B40006F8FA06BE16B884206D3022F04D0002058
:103B500086F31188BDE8F08794F945503A46494606
:103B60002046FFF7DEF9681C04D06D1C84F8455030
:103B70000120EDE7606A0028FAD004F1240000F08B
:103B800077F90028F4D0B8F1000FF1D00121C8F87E
:103B90000010EDE72DE9F04790468946040003D078
:103BA000B9F1000F08D011E0502080F31188BFF365
:103BB0004F8FBFF36F8FFEE7206C38B1502080F33A
:103BC0001188BFF34F8FBFF36F8FFEE7FFF73AFC0B
:103BD0005020EFF3118680F31188BFF34F8FBFF3AE
:103BE0006F8FA76BF7B194F9445049462046FFF711
:103BF00085F97F1EA763681C04D06D1C84F84450AF
:103C0000012010E020690028FAD004F1100000F033
:103C10002FF90028F4D0B8F1000FF1D00121C8F835
:103C20000010EDE7002086F31188BDE8F087000062
:103C300070B50D46040019D005B3FFF791FB164A85
:103C4000D1682868431C0FD02368126A934202D0BF
:103C500062688A421AD96268891A814216D2401A69
:103C600028602046FFF79EFC002410E0502080F3DF
:103C70001188BFF34F8FBFF36F8FFEE7502080F3A3
:103C80001188BFF34F8FBFF36F8FFEE70124FFF75B
:103C900087FB204670BD0000680000202DE9FF5F13
:103CA0008346DDE90E87994616468A469000FFF75F
:103CB00089FA05001AD05420FFF784FA040012D0C4
:103CC00025630021CDE90241CDE900874B4632460C
:103CD00051465846FFF7A0F92046FFF77FF801202C
:103CE00004B0BDE8F09F2846FFF76EFB4FF0FF30B1
:103CF000F6E700000548416919B1006B18B10020D2
:103D000070470120704702207047000068000020C3
:103D10002DE9F0412E4C0027206B40B1A069401CDA
:103D2000A061E06900B101273846BDE8F081E6688E
:103D3000761CE66013D1606B006838B1502080F3C8
:103D40001188BFF34F8FBFF36F8FFEE7606BA16BDE
:103D50006163A063206A401C2062FFF7D9F9A06A62
:103D6000DFF87080864209D3606B006880B1606BB9
:103D7000C068C568686886420DD2A0622068C06AC3
:103D800000EB800158F821000128CAD90127C8E7B3
:103D90004FF0FF30F1E7281DFFF79EFAA86A18B12F
:103DA00005F11800FFF798FAE86A012122698140BD
:103DB0001143216100EB800108EB8100291DFFF711
:103DC000C3FAE86A2168C96A8842CDD30127CBE7E4
:103DD00068000020A02E002070B504004FF0000104
:103DE00040D0214D2868844207D0502080F31188AC
:103DF000BFF34F8FBFF36F8FFEE7A06C38B1401E4B
:103E0000A064636CE26A9A422CD040B12AE0502050
:103E100080F31188BFF34F8FBFF36F8FFEE7201D34
:103E2000FFF75AFA114A012150B9E06A00EB80030A
:103E300052F8233023B92B6901FA00F083432B6138
:103E4000606CE062C0F10700A061E06A2B6981400C
:103E50001943296100EB800002EB8000211DFFF770
:103E600073FA0121084670BD68000020A02E0020D2
:103E70002DE9F041C068C468ACB104F118000746F0
:103E8000FFF72AFA154D286B0126A0B139461448D0
:103E9000FFF75AFAE06A2968C96A88421CD90120EA
:103EA000EE61BDE8F081502080F31188BFF34F8FA1
:103EB000BFF36F8FFEE7201DFFF70EFAE16A2A6954
:103EC00006FA01F01043286101EB81000449B4397E
:103ED00001EB8000211DDBE70020E2E76800002005
:103EE000542F00202DE9F0472C4D00242746286B45
:103EF00038B1FFF735FA286B401E2863286B40B1B4
:103F000046E0502080F31188BFF34F8FBFF36F8FCF
:103F1000FEE7A968224E0120D1B3A6F1B40980467C
:103F20003068E8B1F068C46804F11800FFF7D4F90C
:103F3000201DFFF7D1F9E06A2A6908FA00F1114360
:103F4000296100EB800109EB8100211DFFF7FCF9DD
:103F5000E06A2968C96A8842E2D3C5F81C80DFE7B5
:103F60000CB1FFF7D5F8AC6944B14646FFF7D0FE77
:103F700000B1EE61641EF9D10020A861E86938B192
:103F80000849012738070860BFF34F8FBFF36F8FD1
:103F9000FFF706FA3846BDE8F08700006800002009
:103FA000542F002004ED00E000000000000000009D
:103FB000002F000000000700070000147F147F148A
:103FC00000242A7F2A120062640813230036495510
:103FD000225000000503000000001C2241000000E8
:103FE00041221C000014083E08140008083E08087E
:103FF000000000A0600000080808080800006060D9
:104000000000002010080402003E5149453E000017
:10401000427F4000004261514946002141454B31F9
:10402000001814127F10002745454539003C4A49C5
:104030004930000171090503003649494936000637
:104040004949291E0000363600000000563600009F
:10405000000814224100001414141414000041221A
:10406000140800020151090600324959513E007CF2
:104070001211127C007F49494936003E41414122DC
:10408000007F4141221C007F49494941007F0909C5
:104090000901003E4149497A007F0808087F000075
:1040A000417F4100002040413F01007F0814224130
:1040B000007F40404040007F020C027F007F0408E8
:1040C000107F003E4141413E007F09090906003E44
:1040D0004151215E007F091929460046494949316D
:1040E0000001017F0101003F4040403F001F204090
:1040F000201F003F4038403F00631408146300074E
:104100000870080700615149454300007F414100A4
:1041100000552A552A55000041417F000004020144
:104120000204004040404040000001020400002022
:1041300054545478007F4844443800384444442060
:1041400000384444487F00385454541800087E090D
:1041500001020018A4A4A47C007F080404780000D5
:10416000447D4000004080847D00007F1028440092
:104170000000417F4000007C04180478007C0804A3
:10418000047800384444443800FC242424180018DF
:10419000242418FC007C08040408004854545420CB
:1041A00000043F444020003C4040207C001C204054
:1041B000201C003C4030403C004428102844001C97
:1041C000A0A0A07C004464544C441414141414148F
:1041D00000000000000000000000000000000000DF
:1041E000000000F800000000000000333000000074
:1041F00000100C06100C060000000000000000007B
:1042000040C07840C0784000043F04043F040400EC
:10421000007088FC08300000001820FF211E0000FC
:10422000F008F000E018000000211C031E211E0011
:1042300000F00888700000001E2123241927211097
:1042400010160E000000000000000000000000003A
:10425000000000E0180402000000000718204000E1
:1042600000020418E00000000040201807000000D1
:10427000404080F0804040000202010F0102020035
:10428000000000F0000000000101011F0101010019
:10429000000000000000000080B07000000000007E
:1042A0000000000000000000000101010101010107
:1042B000000000000000000000303000000000009E
:1042C0000000000080601804006018060100000073
:1042D00000E010080810E000000F102020100F0070
:1042E000001010F8000000000020203F20200000F7
:1042F000007008080888700000302824222130004F
:1043000000300888884830000018202020110E0056
:104310000000C02010F8000000070424243F2400FF
:1043200000F80888880808000019212020110E00D4
:1043300000E0108888180000000F112020110E00E6
:1043400000380808C83808000000003F00000000DE
:104350000070880808887000001C222121221C009F
:1043600000E010080810E0000000312222110F00C8
:10437000000000C0C000000000000030300000005D
:1043800000000080000000000000806000000000CD
:1043900000008040201008000001020408102000E6
:1043A0004040404040404000040404040404040031
:1043B00000081020408000000020100804020100C6
:1043C000007048080808F0000000003036010000C6
:1043D000C030C828E810E0000718272423140B0079
:1043E0000000C038E0000000203C230202273820F3
:1043F00008F8888888700000203F202020110E00D7
:10440000C0300808080838000718202020100800CD
:1044100008F808080810E000203F202020100F00B6
:1044200008F88888E8081000203F20202320180082
:1044300008F88888E8081000203F200003000000EA
:10444000C03008080838000007182020221E02008B
:1044500008F808000008F808203F210101213F204A
:10446000000808F8080800000020203F2020000075
:1044700000000808F8080800C08080807F00000065
:1044800008F888C028180800203F2001263820009E
:1044900008F8080000000000203F20202020300005
:1044A00008F8F800F8F80800203F003F003F20001F
:1044B00008F830C00008F808203F200007183F0027
:1044C000E01008080810E0000F10202020100F0056
:1044D00008F808080808F000203F21010101000049
:1044E000E01008080810E0000F18242438504F008E
:1044F00008F8888888887000203F2000030C30204E
:1045000000708808080838000038202121221C008B
:10451000180808F8080818000000203F20000000D4
:1045200008F808000008F808001F202020201F00BD
:104530000878880000C83808000007380E0100001D
:10454000F80800F80008F800033C0700073C0300E7
:10455000081868808068180820302C03032C30204D
:104560000838C800C83808000000203F20000000BC
:1045700010080808C8380800203826212020180014
:10458000000000FE020202000000007F40404000E8
:10459000000C30C000000000000000010638C00020
:1045A00000020202FE000000004040407F000000C8
:1045B00000000402020204000000000000000000ED
:1045C00000000000000000008080808080808080EB
:1045D00000020204000000000000000000000000D3
:1045E00000008080808000000019242222223F20C9
:1045F00008F8008080000000003F112020110E000C
:104600000000008080800000000E1120202011009A
:10461000000000808088F800000E112020103F204C
:104620000000808080800000001F222222221300D0
:10463000008080F0888888180020203F202000001B
:104640000000808080808000006B949494936000D0
:1046500008F8008080800000203F210000203F20DB
:1046600000809898000000000020203F20200000DB
:10467000000000809898000000C08080807F0000CB
:1046800008F8000080808000203F24022D302000A8
:10469000000808F8000000000020203F2020000053
:1046A0008080808080808000203F20003F20003F6D
:1046B0008080008080800000203F210000203F207B
:1046C0000000808080800000001F202020201F002C
:1046D000808000808000000080FFA12020110E005B
:1046E0000000008080808000000E112020A0FF804C
:1046F000808080008080800020203F2120000100F9
:10470000000080808080800000332424242419004D
:10471000008080E0808000000000001F202000005A
:104720008080000000808000001F202020103F209B
:10473000808080000080808000010E30080601002B
:1047400080800080008080800F300C030C300F00D0
:1047500000808000808080000020312E0E312000FB
:10476000808080000080808080818E70180601002B
:1047700000808080808080000021302C2221300049
:1047800000000000807C020200000000003F40406A
:1047900000000000FF00000000000000FF0000001B
:1047A0000002027C800000000040403F000000004A
:1047B00000060101020204040000000000000000E5
:1047C000A4480008B925000800000000000000000F
:1047D0008000000074480008C125000802000000A5
:1047E000000000008000000098480008152600081E
:1047F0000000000000000000800000008C4800085D
:104800000D260008FEFF00000000000080000000F0
:10481000804800081D260008FEFF00000000000080
:1048200080000000B0480008E125000800000000FA
:1048300000000000800000000400000002000000F2
:10484000000000001E000000020000000000000048
:104850000400000002000000000000000000000052
:104860000000000001020304060708090000000020
:10487000010203046D795461736B5F41444300008E
:104880006D795461736B5F4F4C4544006D79546191
:10489000736B5F4C454400006D795461736B5F4EE0
:1048A0007266000064656661756C745461736B00B8
:1048B0006D795461736B5F4B65790000DC480008CB
:1048C00000000020A4000000DE2900088049000844
:1048D000A4000020EC320000EE29000800000000D7
:1048E00000000000000000000000000000000000C8
:1048F00000000000000000000000000000000000B8
:1049000000000000000000000000000000000000A7
:1049100001000000100000000000000000A24A0496
:104920000000000000000000000000000000000087
:10493000000000000000000000000000AAAAAAAACF
:104940000000000000000000000000000000000067
:104950000000000000000000000000000000000057
:104960000000000000000000000000000000000047
:104970000000000000000000000000000000000037
:04000005080000ED02
:00000001FF
