:020000040800F2
:1000000048100020D5000008051A0008C51800088F
:1000100000000000000000000000000000000000E0
:10002000000000000000000000000000D71D0008D4
:100030000000000000000000D51D0008D91D0008C8
:10004000E7000008E7000008E7000008E7000008F4
:10005000E7000008E7000008E7000008E7000008E4
:10006000E7000008E7000008E7000008E7000008D4
:10007000E7000008E7000008E7000008E7000008C4
:10008000E7000008E7000008E7000008E7000008B4
:10009000E7000008E7000008E7000008E7000008A4
:1000A000E7000008E7000008E7000008E700000894
:1000B000E7000008E7000008E7000008512B0008EF
:1000C0000348854600F03CF8004800479D2B000897
:1000D000481000200448804704480047FEE7FEE738
:1000E000FEE7FEE7FEE7FEE7611E0008C10000082C
:1000F00030B50B46014600202022012409E00D46C0
:10010000D5409D4205D31D469540491B2546954047
:1001100040191546521E002DF1DC30BD10B5202AC5
:1001200004DB0846203AD040002110BD0B46D340E6
:10013000D0402024A21A91400843194610BD000067
:10014000064C0125064E05E0E36807CC2B430C3C2A
:1001500098471034B442F7D3FFF7B6FF442C000899
:10016000642C000810B50446FF30FF30023080696F
:100170000122920282181378022B07D0032B05D09C
:10018000052B03D0062B01D0092B0AD102201070B9
:10019000002353709370D3701371507193719360F7
:1001A000D3600748407DC00606D5204602F0BCFC5F
:1001B000204602F0ABFB10BD488800F07FF910BD6F
:1001C000A000002070B54322D20043231458DB0066
:1001D00001221B589202CD889B181A78002D11D04D
:1001E000022A01D0052A0AD14A889A60CA880321C6
:1001F000DA6019705971214601F082FE70BD01F07C
:1002000075FE70BD052A01D0022AF8D10120D871EF
:100210000621197000209870D8701871597170BD3E
:1002200070B5C21DFF320546FA3201209469800282
:1002300021180B7800201F4E032B02D0062B33D140
:100240001DE0CB68002B18D004230B708870C87099
:1002500008714B718868002802D12078412806D0A7
:100260000869D169A2198B69012198471CE00869C6
:10027000D169A2198B690021F7E705220FE0CA793D
:10028000012A02D0002A05D00EE007220A700123BD
:100290008B7006E0084A127D520705D502220A70CB
:1002A0008870C87008714A710622A119284601F0A9
:1002B00043FE70BD01040000A000002010B5C41D65
:1002C000FF34FA340123A1699B02C9180022104BA4
:1002D000CA711B7D5B0706D5062008708A70CA703C
:1002E0000A71487110BD08230B708A70CA700A71B8
:1002F0004B7102F019FCE06980688047BFF34F8FB3
:1003000005490448C860BFF34F8F00BFFDE70000F8
:10031000A00000200400FA0500ED00E0F8B5C71DBC
:10032000FF370E46FA370123B9690546F2889B026A
:100330000020CC18002A40D02278022A04D0092AB2
:1003400002D0E060A06033E07388A360F288E260CE
:10035000002B16D0012B25D909262670A070E0703D
:1003600020719802184B6671C0182369C018FB6988
:100370005B6998470146A08982B2284601F0DCFDFE
:10038000F8BD032A01D9022200E009222270A070E0
:10039000E0702071627108702120487041208870DF
:1003A0000322EAE70F212170A070E07020716171D3
:1003B0003146284601F09AFDF8BD02212170A07057
:1003C000E07020716171F8BD00F8FFFF0649002060
:1003D000C861064801690422114301610169402294
:1003E0001143016170470000280B002000200240EB
:1003F000064A0021D16106490A6902231A430A61AB
:10040000486108694022104308617047280B0020AA
:100410000020024010B5054B0022DA61044A13693E
:10042000012423431361018010BD0000280B00202C
:100430000020024010B50B4A0020D168CB060A49C3
:1004400004D5C86902231843C8611020D3685B072C
:1004500005D5CB6901242343CB6104210843D06037
:1004600010BD000000200240280B002070B505469A
:1004700000F098F90646104C0AE0681C08D0002DE0
:1004800004D000F08FF9801BA84201D9032070BD71
:10049000E068C007F1D1E068800601D52020E06067
:1004A000E068C00602D4E068400703D5FFF7C2FF4A
:1004B000012070BD002070BD0020024031B500F069
:1004C00071F9009C0546601C00D0641C00F06AF9BC
:1004D000401BA042FAD338BDF8B5054623480F4665
:1004E000017E012601290BD0012101762868204CCC
:1004F000012807D02046FFF7B9FF002813D030E0CD
:100500000220F8BD2046FFF7B1FF002829D1FFF7F0
:100510005DFF2046FFF7AAFF064616480169042240
:10052000914301611DE00020C04338606C6812E017
:100530002046FFF75DFF0E48FFF798FF06460D487F
:10054000026902218A430261002E01D03C6008E06A
:100550000120C0022418A868C10268680818A042D7
:10056000E6D80248002101763046F8BD280B00206D
:1005700050C300000020024003480169802211435B
:10058000016100207047000000200240F0B51FB458
:1005900007461A480024017E15461E46012907D049
:1005A000012101761648FFF761FF002803D020E003
:1005B000022005B0F0BD012F02D0022F00D0042789
:1005C000220128463146FFF7A9FD81B20198620059
:1005D0001018FFF71FFF0A48FFF748FF09490A698B
:1005E000520852000A61002803D1641CE4B2BC42E4
:1005F000E6D3024900220A76DBE70000280B002040
:1006000050C300000020024005480169090605D5D5
:10061000044941600449416000207047012070474F
:100620000020024023016745AB89EFCDF8B50023D8
:1006300093E0224601249C40A44622407ED04C6890
:10064000022C01D0122C0CD1DC08A40027183C6A23
:100650005D07ED0E0F26AE40B4430E69AE40264353
:100660003E6205685E000324B4400F79A543BF07CE
:10067000BF0FB7402F4307604D68012D05D0022DF5
:1006800003D0112D01D0122D0ED18568CF68A5435E
:10069000B7402F43876047686546AF430D79ED0645
:1006A000ED0F9D403D434560C568A5438C68B4404F
:1006B0002C43C4604C68E4004ED52B4CA569012640
:1006C0003543A561A4699D0834400094274CAD00D2
:1006D0002F19BC689D072E0F0F25B540AC43092587
:1006E000ED06A84201D1002514E0214DA84201D118
:1006F00001250FE01F4DA84201D102250AE01E4D41
:10070000A84201D1032505E01C4DA84201D10425D2
:1007100000E00525B5402543BD60194C25684E68AD
:100720009543F60300D51543256065684E689543EB
:10073000B60300D515436560A56800E00CE04E687F
:100740009543F60200D51543A560E5684E689543CC
:10075000B60200D51543E5605B1C0A681446DA4012
:1007600000D066E7F8BD0000001002400000014024
:100770000004004800080048000C00480010004831
:10078000000401400069084000D001207047426920
:100790004A4042617047002A01D0816170478162FE
:1007A00070470000014800687047000058000020B2
:1007B00002480168491C0160704700005800002091
:1007C00010B506480168102211430160002000F0B6
:1007D00007F800F017F8002010BD000000200240CC
:1007E00010B5044600F00EFE7D21C900FFF780FC25
:1007F00001F04CF800222146501E00F02FF8002096
:1008000010BD000008B50F488169012211438161C4
:10081000816911400091C26901040A43C261C06943
:100820000022084000901146501F00F017F80022E7
:100830001146901E00F012F800221146501E00F0E2
:100840000DF808BD00100240C106C90E0120884005
:10085000014908607047000000E100E010B501F0B8
:10086000D3F810BD10B50C0606D54906490E1C2458
:1008700061430818283004E01C2461430818FF3045
:10088000093099B2002A06D001228272C180190C67
:100890000181002010BD002282728180F9E71C22B4
:1008A0004A43121810B5FF30FF300230926BC06916
:1008B00001F0E9FD10BD1C224A43121810B5FF30AB
:1008C000FF32FF30013202309269C06901F036FE1A
:1008D00010BD0000F0B54B06CA095B0E002A04D01B
:1008E0001C225A431218283204E01C224A431218D0
:1008F000FF3209320024947013700346C909FF3394
:100900005170E133197A01291AD0012119725178F5
:100910001A4C00291178066814D08D00715B4F06BF
:1009200003D52140164C21437153117800688A0089
:10093000124C815A3034214010246140202414E0AC
:100940000220F0BD8D00715B4F0403D521400D4C9A
:1009500021437153117800688A000A4C815AF13C96
:10096000214001242403614064006140044C403C68
:100970002143815200201872F0BD00008F8F0000CB
:10098000C080000080C00000F0B54D066D0E2E4600
:100990001C246543CF092C18002F01D0283401E016
:1009A000FF3409342670C90961700146FF31E260E5
:1009B000E131E3708C46097A01290DD001226146AC
:1009C0000A72E2789349002A08D0012A20D0022A2C
:1009D0000DD0032A25D111E00220F0BD2378026852
:1009E0009B00D55A0D40FF35FF35023504E02378D2
:1009F00002689B00D55A0D40D55212E02278036858
:100A000092009D5A0D40032149026918995208E04D
:100A1000237802689B00D55A0D400121890269188C
:100A2000D15226780768B5007B5B7B497B4A0B4037
:100A3000134333437B53A57A002D53D02578784E4A
:100A40000B400768AD0033437B53E38850265D08B5
:100A500003686D00F65AF6182378DF0001239B0225
:100A6000FB18F552238950265D0803686D00F65A7D
:100A7000F6182378DF005311FB18F55263780768E6
:100A8000002B237875D09D007B5B5E0403D5654EFB
:100A90000B4033437B53237807689D007B5B5E06E6
:100AA00004D55E4E0B40403633437B5323780568B4
:100AB0009E00AB5B0B405B490B43AB53564E21781A
:100AC000303633400568890013436B522178554C0A
:100AD00000688900F13C23401343435200206146E3
:100AE0000872F0BD6378002BA3881FD05D080368EF
:100AF0005026F65A6D00F6182378DF0001239B027A
:100B0000FB18F552237807689D007B5B5E0604D5D1
:100B10000B40424940310B437B53016820783E4CE7
:100B20008300C85A30342040202440E05D08036828
:100B30005026F65A6D00F6182378DF003A4BFB1862
:100B4000F55203685025ED5A374EEB182578B61C40
:100B5000ED00AD195E19E3683E2B0BD9DD022D0CBB
:100B6000DB0601D16D1EADB2AB020125ED032B43B7
:100B700007E020E0DD032D0CDB0701D06D1CADB2DA
:100B8000AB023380237807689D007B5B5E0403D54E
:100B90000B4024490B437B5301682078214C830090
:100BA000C85AF13C204001242403604064006040A6
:100BB0001043C85292E79D007B5B5E0403D5194E3B
:100BC0000B4033437B53237807689D007B5B5E06B5
:100BD00004D5124E0B40403633437B5323780568CF
:100BE0009E00AB5B0B400D4940310B43AB530D4EA8
:100BF0002178F13E3340012636037340760073407E
:100C00000568890013436B522178034C8900006802
:100C1000303460E78F8900008F8F000080800000F3
:100C20008081000080C0000004040000F0B54D0683
:100C30006D0E1C246C432418FF3409346361226157
:100C40000022A26162702570E5681E46AB4201D9A0
:100C50002B46F21A6261A67A49060122890DD20357
:100C6000002E2F4D06680CD05027BF5BBE192F1FDA
:100C7000C91976183E2B15D9D902090CDF060CD0FC
:100C80000DE05027BF5B4919BE19751820E0890295
:100C9000114300E08902298032E0491E89B28902AD
:100CA000114306E0D903090CDF0701D0491C89B2C2
:100CB000890231806178002902D0012918D01FE013
:100CC00001685026765A71182678F60075194D1964
:100CD0003E2B06D9D902090CDB06D8D1491E89B2B0
:100CE000D5E7D903090CDA07D4D0491C89B2D1E77A
:100CF00001685022525A51182278D20052198B5250
:100D000001682078074B8200885A184001231B0392
:100D100058405B005840044B184388520020F0BDF7
:100D2000060400008FBF000080800000F0B502467E
:100D3000FF32E132137A012B0BD001244F06CB098D
:100D40007F0E1472002B06D01C237B431B18283304
:100D500006E00220F0BD1C234B431B18FF33093370
:100D60009C701F70CE095E70012424031025114B66
:100D7000002F0BD04906C90D002E10D004680E4E6E
:100D8000605A304068401843605210E001680B4ED2
:100D900008883040604068401843088007E00568D4
:100DA000064E685A303E304060401843685200207A
:100DB0001072F0BD80800000BF8F0000BFBF000038
:100DC000F0B506461D464806400E1C2343439C19B9
:100DD000E563A2630022226401232834637020703B
:100DE000E0682B46854203D90546181A606100E089
:100DF0006261A07A2A4F002810D0227830689200D1
:100E0000825C49065206890D002A16DA5022125ACF
:100E100010183A1D89184552228914E0ABB2A288F5
:100E20002169306800F0C3FF30685021095A081862
:100E30002178C900C919455220E05022125A1018D1
:100E4000C9194552E288ABB22169306800F0AFFFA2
:100E500061781448002902D0012907D00EE02178DA
:100E600032688B00D15A01400F4805E02178326882
:100E70008B00D15A01400D480143D152207831688E
:100E80008200084B885A30331840102358402023E2
:100E90005840054B403B184388520020F0BD0000ED
:100EA000020400008F8F0000C080000080C000009E
:100EB00070B50446006840308088C00B02D02046E0
:100EC00000F0C4FD20684030818849050AD581883A
:100ED000334A11408180204600F0DAF80021204694
:100EE00000F000F9206840308188490403D58188EA
:100EF0002C4A11408180206840308188890403D5C4
:100F00008188294A114081802068403081880425E9
:100F1000C904002910DA0188A9430180BD20216895
:100F2000000240310880204600F0BEF820684030C2
:100F300081881E4A114081802068403081880905DF
:100F400017D581881A4A1140818020684030018875
:100F50000822114301802068403001882943018024
:100F6000206840308088C043C00402D5204600F08D
:100F7000FBF8206840308188890506D581880D4AB4
:100F800011408180204600F0A5F82068403081881B
:100F9000C90503D58188084A1140818070BD0000D1
:100FA000FFFB0000FFBF0000FFDF0000FFEF0000BD
:100FB000FFF70000FFFD0000FFFE0000F8B500276E
:100FC0000446002807D02646FF36E136707A002511
:100FD000002802D005E00120F8BD3572204600F05F
:100FE0003BF80320707201210BE01C2078430219AA
:100FF0001046203041720772C572556395637F1C9D
:10100000D5636068B842F0D800200BE01C22424350
:101010001219FF32013255721072D5725561956105
:10102000401CD56162688242F0D82068403001805F
:10103000206840300580206840308580206840303E
:101040000582BF20226800024032108020342571C2
:1010500071720020F8BD000008B500680A49884296
:1010600010D10A48C2690121C9050A43C261C06999
:1010700000220840009011461F20FFF7EFFB1F20C1
:10108000FFF7E2FB08BD0000005C004000100240DA
:1010900010B5C41DFF34FA340121E06901F037FBBB
:1010A000E06901F0FCFA10BD10B504468069002823
:1010B00006D00748016906229143016100F092FEC3
:1010C000FF34FF340234E06901F00CFB10BD000076
:1010D00000ED00E0FF3010B5FF300230C06901F0D4
:1010E00007FB10BD0246FF32E132137A012B08D014
:1010F00001231372002906D02030017100201072E4
:101100007047022070470068802140308181F5E7F8
:1011100010B5872189000A580146FF31ED3110468C
:1011200001F00BFB10BD00684030018B0122D2039F
:1011300011430183002070470146FF31E1310A7AF3
:10114000012A0FD001220A72036840331A80036813
:10115000002240339A8000680323403003800A72E3
:10116000104670470220704710B50446FF30FF302C
:101170000230C06901F049FBA069002804D003488F
:10118000016906221143016110BD000000ED00E07D
:10119000F8B504460068434DC00352D5E8690026FF
:1011A000C00007D4E96928040143E961E969014005
:1011B000012600913C480168C90510D401688215D8
:1011C00011430160FFF7EEFA074604E0FFF7EAFA81
:1011D000C01B642824D834480068C005F6D5286AA6
:1011E00003273F02384020D06168394081421CD03B
:1011F000286A2A6AB843012109040A432A622A6A32
:101200008A432A622862C0070FD0FFF7CBFA00900A
:1012100008E0FFF7C7FA0099411A2448814201D932
:101220000320F8BD286A8007F3D5286A6168B843AF
:1012300008432862002E04D0E86901210907884389
:10124000E8612078C00705D0286BA168800880007D
:10125000084328632078800706D5286B03210904FA
:101260008843E168084328632078800605D5286B09
:10127000102188432169084328632068800305D52D
:10128000286B80218843A169084328632088400592
:1012900005D5286B402188436169084328630020F5
:1012A000F8BD0000001002400070004088130000EC
:1012B000F8B505464E480E460068C007C00FB0425C
:1012C0000AD24B480168490849003143016000686F
:1012D000C007C00FB04270D12878464C800705D5B2
:1012E0006068F0218843A968084360602878C007D7
:1012F00053D06868012817D0022818D0032819D0C5
:1013000021688907002958DA616889088900014342
:101310006160FFF747FA69680746012913D002297F
:101320001DD0032927D034E021688903EAE721682A
:101330008901E7E7616BC903E4E7FFF733FAC11BF3
:101340002D48814223D860680007800F0128F4D11E
:1013500023E0FFF727FAC11B2748814217D86068AE
:101360000007800F0228F4D117E0FFF71BFAC11B1A
:10137000214881420BD860680007800F0328F4D110
:101380000BE0FFF70FFAC11B1B48814201D9032074
:10139000F8BD60680007800FF3D115480168C907E0
:1013A000C90FB1420BD901684908490031430160B6
:1013B0000068C007C00FB04201D00120F8BD2878F6
:1013C000400706D56068072109028843E968084399
:1013D000606000F01DF86168084A0906090F515C59
:1013E000C840074908600020FFF7FAF90020F8BD5F
:1013F000002002400010024088130000042C000866
:101400005C00002001480068704700005C0000207C
:1014100030B516A30FCB89B06C460FC417A30FCB02
:101420000FC41A494A680C20144604401848042C7A
:1014300005D0184B082C04D00C2C00D1184609B04C
:1014400030BD9402240F6D462C5DC96A04AD0907B6
:10145000090FD203695C920F022A02D0032A00D13D
:101460001846FEF745FE6043E9E700000203040565
:10147000060708090A0B0C0D0E0F101001020304D9
:1014800005060708090A0B0C0D0E0F10001002408C
:1014900000127A00006CDC02FEB504460078F04EC3
:1014A000F04DC00748D068680007800F01281FD0A2
:1014B00068680007800F022804D16868C003800FA5
:1014C000022815D06168012919D001208004002963
:1014D00001D0052917D02968B143296029688143C3
:1014E0002960606800281BD0FFF75CF9074613E00D
:1014F0002868800320D56068002876D01CE0286822
:1015000030432860EDE7296801432960F7E7FFF7DA
:1015100049F9C01B642869D828688003F7D50BE017
:10152000FFF740F9074604E0FFF73CF9C01B6428C9
:10153000F1D828688003F7D4207880073ED5686802
:101540000007800F14D068680007800F022804D1BC
:101550006868C003800F01280AD0E0680028286866
:101560001DD0012108432860FFF71CF907460BE056
:10157000286880070BD5E068012836D107E0FFF71F
:1015800011F9C01B0228C6D828688007F7D528683B
:10159000F82188432169C900084328600EE040080B
:1015A00040002860FFF7FEF8074604E0FFF7FAF86E
:1015B000C01B0228AFD828688007F7D4207800071E
:1015C00024D5E0690028686A11D0012108436862C7
:1015D000FFF7E8F8074604E0FFF7E4F8C01B02282D
:1015E00099D8686A8007F7D510E036E1D1E0400865
:1015F00040006862FFF7D6F8074604E0FFF7D2F82C
:10160000C01B022887D8686A8007F7D4207804278F
:101610004007002861DA00200190E869C00008D482
:10162000E969B8060143E961E969014001200091D7
:1016300001908D480168C90511D4016882151143D4
:101640000160FFF7AFF8009005E0FFF7ABF80099F5
:10165000401A642897D884480068C005F5D5A0686A
:1016600001280AD0002801D0052811D0286A400896
:1016700040002862286AB84302E0286A0121084332
:101680002862A068002812D0FFF78CF800900AE0CA
:10169000286A38432862F0E7FFF784F80099411A76
:1016A0007248814275D8286A8007F5D50DE0FFF7AA
:1016B00079F8009006E0FFF775F80099411A6B4839
:1016C000814266D8286A8007F5D40198002804D0A2
:1016D000E969012000078143E9612078C00635D51A
:1016E000606901280CD0401D686B24D038436863C2
:1016F000686B400840006863FFF754F8074622E033
:10170000686B38436863686B012108436863FFF7BF
:1017100049F8074604E0FFF745F8C01B022838D80F
:10172000686B8007F7D5686BF8218843A169C90009
:10173000084368630AE0B8436863F4E7FFF732F8E8
:10174000C01B022825D8686B8007F7D42078800654
:1017500037D568680007800F032813D06868000732
:10176000800F022804D16868C003800F032809D0C5
:10177000206A0028686B16D030436863FFF712F8C0
:1017800006460CE0686BC0031BD5206A012864D1B3
:1017900017E05BE0FFF706F8801B022856D8686B5D
:1017A000C003F7D50DE0B0436863FEF7FBFF0646C4
:1017B00004E0FEF7F7FF801B022847D8686BC003E0
:1017C000F7D4606A002846D069680907890F0229A2
:1017D00043D0012636060228286805D0B043286089
:1017E000FEF7E0FF044633E0B0432860FEF7DAFF7F
:1017F000074604E0FEF7D6FFC01B022826D828685B
:101800008001F7D4E86A216B000900010843E8620F
:10181000A16AE06A084369687B22D20391430843C6
:101820006860286830432860FEF7BCFF044604E087
:10183000FEF7B8FF001B022808D828688001F7D5FA
:1018400009E0FEF7AFFF001B022801D90320FEBD0F
:1018500028688001F5D40020FEBD0120FEBD0000F7
:1018600000000100001002400070004088130000DA
:10187000042204490428086902D090430861704793
:101880001043FBE700E000E070470000094910B595
:10189000401E884201D9012010BD074C6061032120
:1018A000081F00F0B1F80020A0610720206100208F
:1018B00010BD0000FFFFFF0000E000E010B5FFF7E3
:1018C000E3FF10BDFEE710B5FEF756FE002010BD89
:1018D0001FB5002003900090182106480291019046
:1018E00003A96846FEF7F8FD002800D0012004B0E7
:1018F00010BD00000040000800203223537090709B
:10190000D070704710B5FEF77FFE002010BD10B5F7
:10191000002303E00478CC54401C5B1C9342F9D3B1
:10192000084610BDF8B517460D460646002410E0DF
:101930003259291900230220FEF728FE002801D081
:101940000120F8BD30592959884201D00220F8BD44
:10195000241DBC42ECD30020F8BD000070B51A482D
:1019600086B04269012189050A43426142690A4001
:101970000592426949110A43426142690A4005924F
:10198000426949000A4342614069104E08408D1186
:101990000590012229463046FEF7FDFE0420009006
:1019A000002001900124092069460294C006FEF738
:1019B0003DFE032003900194694600950294304651
:1019C000FEF734FE06B070BD00100240000400486F
:1019D00010B500220749084800F029FD07490648CC
:1019E00000F042FF0649044800F094FB024800F072
:1019F0008DFF10BD08000020C800002064000020FA
:101A00003C000020704700008307FF22DB0E9A4055
:101A10008907090E994000280BDA0007000F0838E3
:101A2000830808489B001818C36993430B43C3619C
:101A30007047830804489B001B18186890430843AC
:101A40001860704700ED00E000E400E0F0B585B0FC
:101A500004460020694688802646203678E19A8927
:101A600017073F0F26D0B9000291425A9A809988F1
:101A700009047DD5BE490A400299425238461C21CC
:101A800048430519FF350935A87A0028206870D029
:101A900029788A00825A52046CD55022125ACB00FF
:101AA000B44912185918515A8905890D00917DD0F1
:101AB000EA88BDE09A89D20627D40188AE4A254635
:101AC0001140018020685021095A283508182978CA
:101AD000CA00A8495118405A8005800D2064A16BA6
:101AE0000818A06300212046FEF7D9FE30790028AF
:101AF000B4D068690028B1D13079802108432168C9
:101B0000403188810020307122E12546FF3502886E
:101B100009359A809B881B0519D5098A09182878E8
:101B2000C2009448001D1018085A294683059B0DD1
:101B3000AB61AA88E431206800F024F920688C4A5F
:101B40000188114001802046FFF7E2FA00E1694672
:101B500089880904D8D58649864F0A4002802068C2
:101B60005021095A3F1D09182878C000C01902E009
:101B700085E03DE04FE0085A83059B0DAB6108D03E
:101B8000AA882969206800F0FDF8A9692869401829
:101B9000286100212046FEF78EFE20680146403075
:101BA000008A4018C119E8683E2800E044E00AD9DC
:101BB000C202120CC00601D1521E92B29002012242
:101BC000D203104306E0C203120CC00701D0521C1E
:101BD00092B2900208802168684A08881040012269
:101BE0001203504052005040654A10430880AFE055
:101BF0005021095A0A182978CB005E49091D591845
:101C0000515A8905890D009121D0AA882969009B24
:101C100000F0B8F81BE05022CB00125A55491218B8
:101C2000091D5918515A8905890D009104D02A8936
:101C30002969009B00F0A6F8297820688A004E4B9D
:101C4000815A803319404E4B403319438152A96960
:101C500000980818A861296900980A182A616B6918
:101C6000002B03D0E9680098814204D929782046E6
:101C7000FEF721FE03E029782046FEF7D7FF6846ED
:101C80008088000664D51C204743206802993A4AA0
:101C9000415A3D191140029A28358152A87A0028EC
:101CA000206811D029788A00825C52061ED5502205
:101CB000125AC90012182F480818105A83059B0D94
:101CC000AB6124D0EA881EE05021095A091828780F
:101CD000C20028481018085A83059B0DAB6121D01B
:101CE000AA882969206800F062F81BE05022125A85
:101CF000C90012181F48001D0818105A83059B0DB3
:101D0000AB6104D02A892969206800F050F828784E
:101D100022688000184B115A80331940174BF13359
:101D20001943115220685021095A09182878C20015
:101D300010481018085A8005800DA86129690A18F2
:101D40002A616B692978002B20460DD0FFF738F8FF
:101D50002068014640318A886B469A81120400D57A
:101D60007DE6002005B0F0BDFEF799FDF0E700002C
:101D70008F0F0000020400000F8F00008FBF0000D3
:101D800080800000101810B5012292025C088018B3
:101D9000002C07D002880A70120A4A70801C891C25
:101DA000641EF7D1DA0701D00078087010BD101852
:101DB00001225B1C920210B55B088018002B08D032
:101DC0004A780C78120222430280801C891C5B1E18
:101DD000F6D110BD7047704710B5FEF7E9FCFFF76C
:101DE0006DFD10BD30B599B021200090012001900B
:101DF000089000040A900001022500240B90099528
:101E00000C946846FFF748FB002800D0FEE7072047
:101E10000D900F9401210E9510940DA8FFF748FA2C
:101E2000002800D0FEE7012040041190179411A86B
:101E3000FFF7AEF9002800D0FEE7FFF7E3FA7D21B7
:101E4000C900FEF755F9FFF721FD0420FFF710FD4B
:101E500000221146501EFEF701FD19B030BD0000F2
:101E6000124801680122114301604168104A114083
:101E7000416001680F4A114001600168012292042B
:101E80009143016041683F22120491434160C16A5D
:101E900009090901C162016B074A11400163416BE5
:101EA00049084900416300218160704700100240E9
:101EB0000CB8FF08FFFFF6FE2CFEFCFF10B58522D4
:101EC0009200125852689047002010BD134610B57A
:101ED0000A46002100F0D0FB002010BD134610B5CB
:101EE0000A46002100F099FC002010BD10B5044600
:101EF000802100F051FC0021204600F04DFC10BD77
:101F000010B5FF230324F5331C50C31DF9339A6029
:101F1000DA6013460A46002100F0AEFB002010BD37
:101F200010B5FF210522F5310A5000231A46194643
:101F300000F0A2FB002010BD10B5FF230224F533F2
:101F40001C5082611346C2610A46002100F065FC04
:101F5000002010BD10B5FF210422F5310A500023E6
:101F60001A46194600F059FC002010BD00207047A9
:101F70000020704770B5C41DFF34FA340121A069F8
:101F800089024018002585600221C56001704570F6
:101F90004171A069002806D0E06980688047A06987
:101FA00000F0D1FDA561002070BD00207047000049
:101FB0007CB5C31DFF330246FA33012198698902BB
:101FC00044182178042902D0072952D054E0A1688E
:101FD000002500290ED0012933D9284A8902891801
:101FE0002269DB6989181B69E2689847002828D0B4
:101FF00002207CBD0178002904D0212906D0412986
:1020000013D015E0E06801281BD011E0E168052934
:102010000ED18278417812028918C27800791204B0
:1020200089180006081820610BE0E168052911D025
:102030006846E56005700121C18069461046FFF7DA
:1020400055FFE5600320A5602070A570E57025713F
:10205000607111E08278417812028918C2780079A3
:1020600012048918000608182061D969C9688847D0
:10207000BCE71046FEF722F900207CBD00F8FFFF08
:102080001B21018000487047A00000200A21018028
:1020900000487047BC00002010B5062909D8FF3061
:1020A000FF300230C0690449006800F09EF9024820
:1020B00010BD002010BD0000480B002010B50446E4
:1020C0008320C00000F040FDFF34FF340234A061E3
:1020D000002816D001210022890241184A618A6035
:1020E0000948CA600861CA71022008704A708A7083
:1020F000CA700A7148718A71E06940688047002897
:1021000000D0022010BD00000040000800207047F1
:1021100000207047002903D0FF30FF300230C1613A
:102120000020704700207047F8B54323DB001C589F
:1021300000270B7860263340374E3A463D4643D061
:10214000202B62D14F7800223B0000F00AFD073AB5
:1021500005080B0E20235B00FEF734F855E0FEF770
:10216000DDF852E0FEF75CF84FE0A01901780A298B
:1021700009D00A2101700E2343708270C27002716F
:102180004171827141E0022101704270F5E7012244
:10219000A1192BE0A0190178022907D0032905D045
:1021A000052903D0062901D009292ED10221017069
:1021B00042708270C2700271417182718260C2602D
:1021C00023E0FDF7CFFF20E04B78062B04D00A2B4D
:1021D0000FD00B2B16D111E04B881B0A212B04D1F9
:1021E000CA880E4F092A00D909223946FFF7A4FEF2
:1021F0000BE00949012214316118F7E74A881306F8
:102200001B0E04D0FFF772FE02252846F8BDD0B29F
:10221000A1194861F9E7000000040000B2000020A5
:1022200010B50A46024903A000F0DFF8004810BDCF
:102230002809002044465520436F6E6669670000F8
:1022400012200880004870472800002010B50A4678
:10225000024903A000F0C9F8004810BD2809002079
:1022600044465520496E74657266616365000000DE
:1022700004200880004870472400002010B50A465A
:10228000024903A000F0B1F8004810BD2809002061
:1022900053544D6963726F656C656374726F6E69D8
:1022A0006373000010B50A46024903A000F09DF8D0
:1022B000004810BD2809002053544D333220446F8C
:1022C000776E4C6F6164204669726D77617265202C
:1022D000557064617465000010B50A46024903A098
:1022E00000F083F8004810BD28090020303030305D
:1022F000303030303030314100000000F8B50D464C
:1023000004464988FF300A0AFF300230130000F00B
:1023100028FC08500509165050454D500069237C93
:10232000026817E0217C02264069002905D0C16AB5
:10233000684688470146467047E0816AF8E7CAB2B6
:10234000130000F00EFC06040B0F161A1E24006981
:10235000237C426869461846904716E00069227C53
:10236000836802E00069227CC3686946104698478A
:102370000BE00069227C0369F7E70069227C43696E
:10238000F3E70069227C8369EFE701461DE04069BD
:10239000C9B2836B6A4620469847F6E7217C00293C
:1023A00007D14069416B68468847EEE7217C0029E8
:1023B00004D029462046FFF799FDF8BD4069016B1E
:1023C0006846884707220146427068460088002810
:1023D000F3D0EA88002AF0D0824200D9024668464B
:1023E00002802046FFF7A8FDF8BD70B50023002845
:1023F0001CD00446002502E06D1CEDB2641C26785A
:10240000002EF9D16C00A41C1480CC5403225B1C58
:10241000CA5400245B1C06E0CA545B1CDAB28C541C
:10242000521CD3B2401C0278002AF5D170BD10B501
:10243000002813D0C31DFF33FA335C69002C01D090
:1024400000245C61002900D01961FF210123FD31C6
:102450000B54027000F0ACF8002010BD022010BD3B
:1024600010B5FF30FF3002300024006AFEF732FA68
:10247000002806D0012801D0022801D0022400E063
:102480000124204610BDFEB50446FF30E51DE130B5
:10249000FF35FA3513460190002908D06869426972
:1024A000002A49D00198007F032843D044E0264603
:1024B000FF3681362046716F1430022934D1C2684C
:1024C00081680092914207D9891A81608AB21946BF
:1024D0002046FFF703FD13E0406811460746FDF76D
:1024E00007FE002913D10098874210D3B06F8742AE
:1024F0000DD2002211462046FFF7F0FC0020B06705
:1025000000231A461946204600F0B6F80CE0686928
:10251000C168002905D00198007F032801D1204619
:1025200088472046FFF7FCFC2878012804D10020CA
:10253000287001E0204690470020FEBD70B505469A
:10254000FF35E1352B46203316460446002907D0D7
:1025500058698269002A29D0287F032824D025E0E1
:10256000FF21F531E01D0959FD3003291ED1826894
:10257000C1688A420BD9511A8160C068814200D378
:1025800001468AB231462046FFF7A0FC0EE05869AA
:102590000169002904D0287F032801D120468847FB
:1025A0002046FFF7D7FC01E020469047002070BD91
:1025B00010B51549C41DC861FF341449FA341448D4
:1025C00021620860022208208A6048600020C860FA
:1025D0008861C8610A6108620846FEF7EFFC0028BE
:1025E00004D0FF2135310BA000F0BAFA00221823E5
:1025F0001146206AFEF736F9582300228021206A0E
:10260000FEF730F9002010BD08090020080700205F
:10261000005C00402E2E2F5372632F757362645F2F
:10262000636F6E662E630000FF30CA09FF304906F3
:102630000230490E1C23006A59430818002A01D0B1
:10264000203001E0FF300130807A704770B5FF30F4
:102650001D46FF30023013460024006A2A46FEF76A
:1026600093F9002806D0012801D0022801D00224C5
:1026700000E00124204670BD10B5FF30FF3002306D
:102680000024006AFEF7D2FA002806D0012801D003
:10269000022801D0022400E00124204610BD70B5BC
:1026A0000022044640231146FFF7D0FF4025FF20BB
:1026B000113005512B46002280212046FFF7C6FF2E
:1026C000FF200121FD3025620155E01DFF30FA3069
:1026D0008169002904D040692179426820469047E9
:1026E000002070BDFF30E130417F0177002070474E
:1026F00010B5FF21FD31095C032906D18521890030
:102700000958C969002900D08847002010BD01740C
:102710000020704710B5FF30FF3002300024006AFF
:10272000FEF7E0FC002806D0012801D0022801D0E5
:10273000022400E00124204610BD70B5044641206B
:10274000C0002018054600F07BF82146FF3181319A
:102750000122084680304A67C2898A67007AC1062A
:10276000C90E0AD001290DD0022910D0C109C90112
:10277000204600F011F8002070BD2946204600F0E8
:10278000CAF8F8E72946204600F0B1F9F3E72946F0
:10279000204600F037F9EEE710B5FF30FF30023089
:1027A0000024006AFEF7C2FA002806D0012801D0F2
:1027B000022801D0022400E00124204610BD10B5FB
:1027C000FF30FF3002300024006AFEF7ACFC002826
:1027D00006D0012801D0022801D0022400E0012403
:1027E000204610BD10B5FF30FF3002300024006AD3
:1027F000FEF7A2FC002806D0012801D0022801D053
:10280000022400E00124204610BDFF30E130017FAA
:102810004177042101770020704710B5FF30FF3069
:1028200002300024006AFEF7CBFA002806D0012807
:1028300001D0022801D0022400E00124204610BD6E
:102840000A7802704A784270CB788A781B02D218D4
:1028500042804B790A791B02D21882808A79C97921
:1028600009025118C180704702460020002904D097
:10287000FF32FF320232516170470220704710B5BB
:102880008522920012580224002A04D01268904730
:10289000002800D10024204610BD000070B50E466F
:1028A0008978194D04462970012904D931462046FA
:1028B000FFF71CFB70BD2046FF30E130027F022A8B
:1028C00015D0032AF2D1002917D0606888420AD0B7
:1028D000C1B22046FFF7F2FA297861602046FFF77F
:1028E000CEFF0228E2D02046FFF734FB70BD00295E
:1028F000F9D0032261600277F0E7022202772046D6
:102900006160FFF7DBFAEEE76000002010B5FFF72B
:1029100056FF002010BDF8B500220092C61DFF36FC
:102920004C781746FA3632460125203A230000F04B
:1029300018F90A3C564150410906412B2841FFF73E
:10294000DDFC5DE004468888002818D1C88800288E
:1029500015D1887817464606107F760E03280ED0CC
:10296000BE7731462046FFF7D5FE2046FFF7F2FA44
:10297000002E02D00220387742E03D7740E020462A
:1029800018E0FFF78BFF3BE0CB88012B12D1127FC1
:10299000022A02D0032A0DD104E0012201460831A7
:1029A000876013E00122011D10E0127F022A04D08B
:1029B000032A02D0FFF79AFA22E0C5607168002965
:1029C00001D00321C160014602220C31FFF7B4FAA5
:1029D00016E004464888012812D1756009E00446D3
:1029E000107F022801D00328C9D14888012807D1C7
:1029F000776070698268204690472046FFF7AAFA00
:102A00000098F8BDF8B504460D462878E61D400646
:102A1000FF3600270979800FFA36012809D06A7835
:102A200030462038002A38D0012A1ED0032A3DD152
:102A300006E0706929468268204690470020F8BD6C
:102A4000007F022817D003282CD16888002806D1DF
:102A5000002904D0802902D02046FFF79DFE70692E
:102A6000294682682046904713E0007F022802D062
:102A7000032817D104E0002918D080291AD115E0C5
:102A80006888002812D1480603D02046FFF7E8FCEA
:102A9000E5E72046FFF75EFA08E0007F022807D04E
:102AA00003280BD029462046FFF720FA3846F8BD08
:102AB0004806FBD02046FFF76FFEF7E7C80904D0B1
:102AC0004806400D0519143504E04806400D051967
:102AD000FF3505352046FFF7A7FD002800D001206F
:102AE0002860022229462046FFF726FADEE770B565
:102AF0000446FF30E130007F0D4603280FD12879CE
:102B000001280CD885208000005982682046904713
:102B1000E888002806D12046FFF71CFA02E020468C
:102B2000FFF7E4F9002070BD10B504460179FF30CD
:102B3000FF30023040694268204690472046FFF748
:102B400051FE002010BD704700487047EC02002085
:102B500010B50248FEF7ACF910BD000008070020D0
:102B6000FEE730B47446641E2578641CAB4200D284
:102B70001D46635D5B00E31830BC184702E008C8DF
:102B8000121F08C1002AFAD170477047002001E0E7
:102B900001C1121F002AFBD170470000FDF710FE93
:102BA000FFF720F9FEF7DAFE09200421C006FDF741
:102BB000E9FD00280ED00F4801680F4A1140C203FA
:102BC000914207D141680D4A51601160006880F35D
:102BD00008888847FEF7FCFE01242403084DFF26E1
:102BE000F53621462846FDF7D2FD3046FDF766FC56
:102BF000F7E70000004000080000FE2F0000002062
:102C0000000400480000000000000000010203046E
:102C10000607080940496E7465726E616C20466C47
:102C20006173682020202F307830383030303030D9
:102C3000302F31362A30314B612C34382A30314B29
:102C400067000000642C000800000020C80000009D
:102C50007C2B00082C2D0008C8000020800F0000ED
:102C60008C2B00080000000000000000412200083A
:102C7000712200087D220008A5220008D922000840
:102C8000212200084D220008040309041201000259
:102C900000000040830411DF000201020301000074
:102CA000142C000805190008C7180008D1180008DE
:102CB000251900080F190008F91800080000000085
:102CC00000127A0000000000BD200008751F0008F7
:102CD00029210008B11F0008AB1F00086D1F000864
:102CE000711F0008252100080D210008112100088E
:102CF0008120000881200008812000088D20000824
:102D00009920000809021B00010102C032090400D9
:102D10000000FE01020609210BFF0000041A010059
:0C2D20000A060002000000400100000054
:04000005080000C12E
:00000001FF
