:020000040800F2
:10000000581300208D590008D1020008D3020008BF
:10001000D7020008DB020008DF0200080000000031
:10002000000000000000000000000000E3020008E3
:10003000E502000800000000E7020008E9020008ED
:10004000A7590008A7590008A7590008A759000890
:10005000A7590008A75900082F4C0008A759000805
:10006000A7590008A7590008A7590008A759000870
:10007000A7590008A7590008A7590008A759000860
:10008000A7590008A7590008A7590008A759000850
:10009000A7590008A7590008A7590008A759000840
:1000A000A7590008A7590008A7590008A759000830
:1000B000890A0008A7590008370B0008A75900084B
:1000C000A7590008A7590008A7590008A759000810
:1000D000A759000849590008A7590008A75900085E
:1000E000A7590008A7590008A7590008A7590008F0
:1000F000A7590008A7590008A7590008A7590008E0
:10010000A7590008A7590008A7590008A7590008CF
:10011000A7590008A7590008A7590008A7590008BF
:10012000A7590008A7590008A7590008A7590008AF
:1001300000F002F800F03AF80AA090E8000C8244BF
:100140008344AAF10107DA4501D100F02FF8AFF29C
:10015000090EBAE80F0013F0010F18BFFB1A43F0A5
:10016000010318471498000034980000103A24BF87
:1001700078C878C1FAD8520724BF30C830C144BF0C
:1001800004680C607047000000230024002500264E
:10019000103A28BF78C1FBD8520728BF30C148BFEA
:1001A0000B6070471FB51FBD10B510BD07F040FEB6
:1001B0001146FFF7F7FF00F022F807F05EFE03B4E8
:1001C000FFF7F2FF03BC05F063FB000010B540F23F
:1001D0004C403A49888040F2DC5048800880C88012
:1001E00008814881888105F049F905F071F905F029
:1001F0000CFA0120324908703249087010BD00BF66
:1002000005F0DCFA4FF4A06005F0E0FB04F03EFAE4
:100210004FF4E13005F04BFB00F058F904F036FAEA
:1002200004F0DCFA06E00020274908604FF47A70F9
:1002300005F001FB04F099FB0028F4D101202249CC
:10024000086004F028FC04F021FA04F026FB04F016
:100250001DFA00F057F909E01B48001F006808B9B3
:10026000012000E000201849091F086004F070FD1B
:100270000028F1D1472140F2CF7000F0DEFB47218A
:1002800040F2E73000F0B0FB04F000FA472140F202
:10029000AF4004F016FA00231A461946184604F037
:1002A0008AFAFFF793FF0121084806F0B1FD01210A
:1002B000880706F0ADFD00BFFEE70000A80800209B
:1002C000B5000020B4000020B881214200080040A1
:1002D000704700BFFEE700BFFEE700BFFEE700BFBC
:1002E000FEE7704770477047704700000CB500206C
:1002F000019000906C48006840F480306A490860C2
:1003000000BF6948006800F4003000900198401C6C
:100310000190009818B90198B0F5A06FF1D162482A
:10032000006800F4003010B10120009001E00020CE
:1003300000900098012843D15C48006840F010000C
:100340005A4908600846006820F003000860084623
:10035000006840F002000860534840685249486015
:100360000846406848600846406840F4806048603D
:100370000846406820F47C1048600846406840F415
:10038000E81048600846006840F08070086000BFD0
:100390004548006800F000700028F9D042484068E5
:1003A00020F00300404948600846406840F00200E1
:1003B000486000BF3C48406800F00C000828F9D1B4
:1003C0000CBD10B5FFF792FF10BD10B536480068A0
:1003D00040F001003449086008464068344908404C
:1003E0003149486008460068324908402E49086093
:1003F0000846006820F4802008600846406820F421
:10040000FE0048604FF41F008860FFF7DAFF4FF0EE
:1004100000602949086010BD10B5002100200022AD
:10042000214B5B6803F00C0121B1042906D0082997
:1004300028D107E0214B224C236027E01F4B204CA2
:10044000236023E0184B5B6803F47010164B5B6865
:1004500003F48032022303EB904022B9194B43434B
:10046000174C23600DE0104B5B6803F4003323B19D
:10047000144B4343124C236003E0104B4343104C96
:10048000236003E00D4B0E4C236000BF00BF064B02
:100490005B68C3F303130C4CE15C094B1B68CB4056
:1004A000074C236010BD00000010024000200240F5
:1004B0000000FFF8FFFFF6FE08ED00E000127A00F2
:1004C0000000002000093D000400002008B50121C3
:1004D000082005F005FE4FF47040ADF80000102034
:1004E0008DF8030003208DF802006946044805F0EA
:1004F0003BFB4FF47041024805F0E3FB08BD0000F0
:10050000000C014008B50121082005F0E9FDC020DC
:10051000ADF8000010208DF8030003208DF80200D4
:100520006946F84805F020FBC021F64805F0C9FBF4
:1005300008BD10B5F348006820F07040F14908602C
:100540000846006840F0805008600120EE490860CD
:10055000EE49C1F89801042005F049F9E94800681E
:1005600020F07040E74908600846006840F000400D
:1005700008608021E34805F08AFB08B9012010BD1E
:10058000E048006820F07040DE49086008460068D6
:1005900040F0805008608021DA4805F094FB01208B
:1005A00005F025F90020EAE710B5D648006820F0EC
:1005B0007040D44908600846006840F080500860E8
:1005C0004021D04805F07FFB8021CE4805F07BFB21
:1005D000012005F00CF94021CA4805F072FB01200A
:1005E00005F005F98021C74805F06BFB042005F0F4
:1005F000FEF810BD10B500244021C24805F063FB91
:10060000C048006820F07040BE4908600846006895
:1006100040F0805008608021BA4805F052FB01206C
:1006200005F0E5F84021B74805F04BFB012005F047
:10063000DEF8B448006820F07040B249086008460F
:10064000006840F00040086012E0601CC4B2FA2C60
:100650000EDDAC48006820F07040AA4908600846EA
:10066000006840F080500860FFF79EFF012010BD39
:100670008021A44805F00BFB0028E6D1A1480068C2
:1006800020F070409F4908600846006840F08050A4
:10069000086000209C49091F086000BFE7E710B50B
:1006A0004021984805F00FFB9648006820F0704004
:1006B000944908600846006840F080500860802136
:1006C000904805F000FB022005F091F840218D488C
:1006D00005F0F7FA022005F08AF84021894805F074
:1006E000F2FA022005F083F810BD10B540218548CC
:1006F00005F0E9FA022005F07AF88248006820F057
:100700007040804908600846006840F080500860EA
:1007100080217C4805F0D5FA022005F068F84021D8
:10072000784805F0CEFA022005F061F840217548BE
:1007300005F0C9FA10BD70B504467248006820F093
:100740007040704908600846006840F080500860BA
:1007500000206D49091F0860002520E004F080009A
:1007600020B18021674805F0ACFA03E0802165489C
:1007700005F0A9FA6006040E022005F038F8012001
:100780006149091F0860022005F031F800205F4927
:10079000C1F89801022005F02AF8681CC5B2082D9E
:1007A000DCDB70BD70B500245648006820F0704056
:1007B000544908600846006840F000400860802105
:1007C000504805F07EFA002518E000204E49091F28
:1007D0000860022005F00BF801204C49C1F898018F
:1007E0006006040E8021474805F051FA08B1601CEC
:1007F000C4B2012004F0FBFF681CC5B2082DE4DB85
:10080000204670BD70B506460C461546FFF791FEB2
:100810003046FFF790FFFFF7EDFE2046FFF78BFF16
:10082000FFF7E8FE2846FFF786FFFFF7E3FEFFF736
:10083000BBFE0A2004F0DBFF70BD70B504460D4618
:10084000FFF777FE2046FFF776FFFFF7D3FE284637
:10085000FFF771FFFFF7CEFEFFF76BFE611CC8B21A
:10086000FFF769FFFFF7C6FEFFF79CFF0646FFF79D
:100870009BFE304670BD2DE9F04106460F461446FA
:100880001D46FFF756FE3046FFF755FFFFF7B2FE55
:100890003846FFF750FFFFF7ADFEFFF74AFE711C29
:1008A000C8B2FFF748FFFFF7A5FE0FE0012C05D007
:1008B000FFF778FF2870FFF7F2FE04E0FFF772FF02
:1008C0002870FFF712FF6D1C601EC4B2002CEDDC17
:1008D000FFF76AFE0020BDE8F08170B505460C46C2
:1008E000FFF727FE2846FFF726FFFFF783FE204687
:1008F000FFF721FFFFF77EFEFFF756FE0A2004F008
:100900009AFF70BD000C01409C8121420080214271
:100910002DE9F04105460E4617469846FFF709FEB9
:10092000002141EA4501C8B2FFF705FFFFF762FE6B
:1009300020B1FFF739FE0120BDE8F0813046FFF716
:10094000FAFEFFF757FE00240CE018F80400FFF74A
:10095000F2FEFFF74FFE18B1FFF726FE0120EBE78E
:10096000601CC4B2BC42F0DBFFF71EFE0020E3E7D0
:100970002DE9F04106460F4614461D46FFF7D9FD06
:10098000002141EA4601C8B2FFF7D5FEFFF732FE6B
:1009900020B1FFF709FE0120BDE8F0813846FFF7DE
:1009A000CAFEFFF727FEFFF7C4FD012101EB460158
:1009B000C8B2FFF7C0FEFFF71DFE0FE0012C05D106
:1009C000FFF7F0FE2870FFF790FE04E0FFF7EAFE65
:1009D0002870FFF764FE601EC4B26D1C002CEDD1C0
:1009E000FFF7E2FD0020D7E77FB505460C46012161
:1009F000084605F082FBADF80850ADF80440002031
:100A0000ADF80A00ADF8060001A94FF0804005F0EE
:100A1000A3FE1C208DF8000001208DF803008DF846
:100A2000010002208DF80200684604F0D4FF012284
:100A30001146900706F007FA7FBD7FB505460C46C4
:100A40000121042005F059FBADF80850ADF8044031
:100A50000020ADF80A00ADF8060001A95D4805F0D8
:100A60007BFE1E208DF8000001208DF803008DF81C
:100A700001008DF80200684604F0ADFF0122114626
:100A8000544806F0E0F97FBD10B500240121880725
:100A900006F087FC012849D14F480068401C4E49A8
:100AA0000860084600680A2820DD0020086007204A
:100AB00003F094FF04462146272003F07BFF04F057
:100AC000400098B120224549612003F012FFFF2128
:100AD000E22003F06FFF414804F032F8404800681C
:100AE00008B9012000E000203D4908603D48006849
:100AF000401C3C49086008460068322803DA0020A0
:100B00003949086012E037480068322809DB354867
:100B10000068FA2805DA34480068401D3249086048
:100B200004E000202F4908602F4908600121880750
:100B300006F048FC10BD10B50121264806F031FC36
:100B4000012842D129480068401C2849086003F068
:100B5000ABFC03F0F2FC03F05BFD04F035F901F0AF
:100B600061F901F044FE224B9A685968186803F055
:100B700028F81E480068052190FBF1F201FB1200E5
:100B800050B91748001F006808B9012000E0002094
:100B90001349091F086018E014480068072190FBFA
:100BA000F1F201FB120020B900F00FF900F085F816
:100BB0000BE00E4800680D2190FBF1F201FB1200E2
:100BC00018B900F087F900F00DFA0121014806F08C
:100BD000F9FB10BD00080040C0000020DC00002030
:100BE000B4812142240000202800002020000020A1
:100BF000100200203FB589B000250024202101A863
:100C000007F0D7F8AA208DF804008DF80500F12030
:100C10008DF806001A208DF807009DF825008DF844
:100C200008009DF824008DF809009DF829008DF832
:100C30000A009DF828008DF80B009DF82D008DF816
:100C40000C009DF82C008DF80D009DF831008DF8FA
:100C50000E009DF830008DF80F009DF841008DF8D2
:100C600010009DF840008DF811009DF845008DF8AA
:100C700012009DF844008DF8130000BF05E001A8A4
:100C8000005D2844C5B2601CC4B21F2CF7DB8DF890
:100C9000235000240DE001A8015DFE4805F0C0FBD3
:100CA00000BF4021FB4805F029FC0128F9D1601C58
:100CB000C4B21F2CEFDB0DB030BD30B589B00025BC
:100CC0000024202101A807F074F8AA208DF8040060
:100CD0008DF8050002208DF8060012208DF807001F
:100CE000ED48C0798DF80800EB4880798DF809004F
:100CF000E948407A8DF80A00E748007A8DF80B0041
:100D0000E548C07A8DF80C00E348807A8DF80D0034
:100D1000E14890F83F008DF80E00DF4890F83E0063
:100D20008DF80F00DC4890F841008DF81000DA488B
:100D300090F840008DF81100D74890F843008DF8E6
:100D40001200D54890F842008DF81300D24890F870
:100D500071008DF81400D04890F870008DF81500DF
:100D6000CD4890F873008DF81600CB4890F87200CB
:100D70008DF81700C84890F875008DF81800C6481F
:100D800090F874008DF8190000BF05E001A8005D1F
:100D9000284405B2601C04B2162CF7DBE8B28DF8CB
:100DA0001A0000240DE001A8015DBA4805F038FBE7
:100DB00000BF4021B74805F0A1FB0128F9D1601C14
:100DC00004B2172CEFDB09B030BD70B58AB0002536
:100DD00000BF202101A806F0ECFFAA208DF8040036
:100DE0008DF8050001208DF806000C208DF8070015
:100DF000AA494868AA4908F04BFB064608F0ACFA35
:100E000000B209909DF825008DF808009DF8240097
:100E10008DF80900A1490868A14908F039FB064688
:100E200008F09AFA00B209909DF825008DF80A00A2
:100E30009DF824008DF80B0098498868984908F0BF
:100E400027FB064608F088FA00B209909DF82500B5
:100E50008DF80C009DF824008DF80D009148008855
:100E60004FF4FA61484300B209909DF825008DF8CF
:100E700010009DF824008DF81100012009909DF8C4
:100E800024008DF812008848007809909DF824000D
:100E90008DF81300002405E001A8005D2844C5B2C8
:100EA000601CC4B2102CF7DB8DF8145000240DE048
:100EB00001A8015D774805F0B3FA00BF40217548ED
:100EC00005F01CFB0128F9D1601CC4B2112CEFDB2A
:100ED0000AB070BD30B589B000250024002008900C
:100EE0002021684606F065FFAA208DF800008DF8E5
:100EF000010003208DF8020014208DF803006B48D8
:100F000040798DF80400694800798DF8050067483C
:100F1000C0798DF80600654880798DF80700634830
:100F200040788DF80800614800788DF809005F4826
:100F3000C0788DF80A005D4880788DF80B004FF47A
:100F40007A7008909DF821008DF80C009DF8200023
:100F50008DF80D009DF821008DF80E009DF8200001
:100F60008DF80F009DF821008DF810009DF82000ED
:100F70008DF811009DF821008DF812009DF82000D9
:100F80008DF813009DF821008DF814009DF82000C5
:100F90008DF815009DF821008DF816009DF82000B1
:100FA0008DF8170000BF05E01DF804002844C5B205
:100FB000601CC4B2182CF7DB8DF8185000240DE02B
:100FC0001DF80410334805F02BFA00BF40213148CA
:100FD00005F094FA0128F9D1601CC4B2192CEFDB9A
:100FE00009B030BD30B589B000250024002008903C
:100FF0002021684606F0DDFEAA208DF800008DF85D
:10100000010006208DF8020010208DF8030028480A
:1010100040788DF80400264800788DF805002448B3
:10102000C0788DF80600224880788DF807002048A7
:1010300040798DF808001E4800798DF809001C4899
:10104000C0798DF80A001A4880798DF80B009DF858
:1010500021008DF80C009DF820008DF80D009DF802
:1010600021008DF80E009DF820008DF80F009DF8EE
:1010700021008DF810009DF820008DF811009DF8DA
:1010800021008DF812009DF820008DF8130000BF9C
:1010900016E000000038014024010020100200206A
:1010A0000000C8421C000020B4000020A808002056
:1010B000900000201DF804002844C5B2601CC4B292
:1010C000142CF7DB8DF8145000240DE01DF80410EB
:1010D000F64805F0A5F900BF4021F44805F00EFAE6
:1010E0000128F9D1601CC4B2152CEFDB09B030BD6A
:1010F00070B58AB000250024202101A806F059FE11
:10110000AA208DF804008DF8050011208DF8060046
:1011100012208DF80700E649086FE64908F0B8F993
:10112000064608F019F900B209909DF825008DF8DF
:1011300008009DF824008DF80900DD49486FDD495D
:1011400008F0A6F9064608F007F900B209909DF8E4
:1011500025008DF80A009DF824008DF80B00D44975
:10116000886FD44908F094F9064608F0F5F800B203
:1011700009909DF825008DF80C009DF824008DF84D
:101180000D00CB484168CB4808F082F9064608F0CC
:10119000E3F800B209909DF825008DF80E009DF847
:1011A00024008DF80F00C2488168C24808F070F929
:1011B000064608F0D1F800B209909DF825008DF898
:1011C00010009DF824008DF81100B948C168B94895
:1011D00008F05EF9064608F0BFF800B209909DF8E5
:1011E00025008DF812009DF824008DF81300B048FA
:1011F000D0F8DC10AF4808F04BF9064608F0ACF820
:1012000000B209909DF825008DF814009DF8240087
:101210008DF81500A648D0F8E010A64808F038F977
:10122000064608F099F800B209909DF825008DF85F
:1012300016009DF824008DF817009D48D0F8E410A2
:101240009C4808F025F9064608F086F800B2099097
:101250009DF825008DF818009DF824008DF81900E0
:1012600000BF05E001A8005D2844C5B2601CC4B2FF
:10127000162CF7DB8DF81A5000240DE001A8015D53
:101280008A4805F0CDF800BF4021884805F036F9BE
:101290000128F9D1601CC4B2172CEFDB0AB070BD75
:1012A00070B58AB000250024202101A806F081FD38
:1012B000AA208DF804008DF8050010208DF8060096
:1012C00012208DF807007A48D0F89410794808F079
:1012D000DFF8064608F040F800B209909DF82500B6
:1012E0008DF808009DF824008DF809007048D0F8AA
:1012F0009810704808F0CCF8064608F02DF800B2B7
:1013000009909DF825008DF80A009DF824008DF8BD
:101310000B006748D0F89C10664808F0B9F80646FC
:1013200008F01AF800B209909DF825008DF80C001D
:101330009DF824008DF80D005D48816A5D4808F035
:10134000A7F8064608F008F800B209909DF82500B5
:101350008DF80E009DF824008DF80F005448D0F849
:101360009810544808F094F8064607F0F5FF00B2CC
:1013700009909DF825008DF810009DF824008DF847
:1013800011004B48016B4B4808F082F8064607F005
:10139000E3FF00B209909DF825008DF812009DF83A
:1013A00024008DF813004248D0F80011414808F09D
:1013B0006FF8064607F0D0FF00B209909DF82500AF
:1013C0008DF814009DF824008DF815000020099078
:1013D0009DF825008DF816009DF824008DF8170063
:1013E0003348D0F80811334808F052F8064607F0A1
:1013F000B3FF00B209909DF825008DF818009DF804
:1014000024008DF8190000BF05E001A8005D284404
:10141000C5B2601CC4B2162CF7DB8DF81A5000243C
:101420000DE001A8015D214804F0FAFF00BF402152
:101430001E4805F063F80128F9D1601CC4B2172CCE
:10144000EFDB0AB070BD30B589B000250024202143
:1014500001A806F0AEFCAA208DF804008DF8050066
:101460000C208DF8060012208DF8070000BF05E063
:1014700001A8005D2844C5B2601CC4B21F2CF7DB74
:101480008DF8235000240DE001A8015D074804F009
:10149000C7FF00BF4021054805F030F80128F9D109
:1014A000601CC4B21F2CEFDB09B030BD0038014016
:1014B000E406002000007A4430B589B000250024FD
:1014C000202101A806F075FCAA208DF804008DF8F3
:1014D00005000D208DF8060012208DF8070000BFD2
:1014E00005E001A8005D2844C5B2601CC4B21F2CF1
:1014F000F7DB8DF8235000240DE001A8015DFE48C4
:1015000004F08EFF00BF4021FB4804F0F7FF0128E4
:10151000F9D1601CC4B21F2CEFDB09B030BD30B56F
:1015200089B000250024202101A806F042FCAA2051
:101530008DF804008DF805000E208DF806001220AD
:101540008DF8070000BF05E001A8005D2844C5B282
:10155000601CC4B21F2CF7DB8DF8235000240DE073
:1015600001A8015DE44804F05BFF00BF4021E248B0
:1015700004F0C4FF0128F9D1601CC4B21F2CEFDBBA
:1015800009B030BD30B589B000250024202101A864
:1015900006F00FFCAA208DF804008DF805000F203E
:1015A0008DF8060012208DF8070000BF05E001A8A5
:1015B000005D2844C5B2601CC4B21F2CF7DB8DF857
:1015C000235000240DE001A8015DCB4804F028FF62
:1015D00000BF4021C84804F091FF0128F9D1601CE8
:1015E000C4B21F2CEFDB09B030BDF0B589B00546A1
:1015F0000E4600270024202101A806F0DAFBAA20CD
:101600008DF804008DF80500EF208DF8060002200B
:101610008DF807008DF808508DF8096000BF05E0CF
:1016200001A8005D3844C7B2601CC4B2062CF7DBC9
:101630008DF80A7000240DE001A8015DAE4804F0A9
:10164000EFFE00BF4021AC4804F058FF0128F9D15B
:10165000601CC4B2072CEFDB09B0F0BD2DE9F05FD0
:1016600004460D460026B14607E014F80900304450
:10167000C6B209F1010000F0FF09681E4845F4DC1C
:10168000601910F8010CB04201D0BDE8F09F20783D
:10169000AA2802D16078AF2800D0F6E7A078012808
:1016A0002BD12079012805D1944981F8360003F027
:1016B00046FC22E02079022804D101218F4880F8DD
:1016C0006E101AE02079032808D101208B4981F897
:1016D00036000121894880F86E100EE02079042838
:1016E00004D10121854880F8A61006E02079212840
:1016F00002DB2079262800DD00BFA07802280FD168
:10170000207901280BD1FFF7CBFDA0783146FFF7F8
:101710006CFFFFF7EDFCA0783146FFF766FF00BFD6
:10172000A07810287DD1A0783146FFF75EFF21799F
:10173000090209B2627941EA020007F08BF9824698
:101740006F4A704B07F09EF9074606F049FF6E4955
:10175000C1F89400A179090209B2E27941EA0200D4
:1017600007F078F98246664A664B07F08BF9074620
:1017700006F036FF01466448C0F89810217A090245
:1017800009B2627A41EA020007F064F982465C4AD3
:101790005C4B07F077F9074606F022FF01465A48EE
:1017A000C0F89C10A17A090209B2E27A41EA02006B
:1017B00007F050F98246524A524B07F063F9074648
:1017C00006F00EFF50498862217B090209B2627B54
:1017D00041EA020007F03EF98246494A494B07F0C8
:1017E00051F9074606F0FCFE01464748C162A17B5D
:1017F000090209B2E27B41EA020007F02BF98246B6
:101800003F4A404B07F03EF9074606F0E9FE014625
:101810003D480163217C090209B2627C41EA020071
:1018200000E036E007F016F98246354A354B07F0FE
:1018300029F9074606F0D4FE3349C1F80001A17C1E
:10184000090209B2E27C41EA020007F003F9074607
:101850002B4A2C4B07F016F9824606F0C1FE0146D2
:101860002948C0F80411217D090209B2627D41EACC
:10187000020007F0EFF80746214A224B07F002F971
:10188000824606F0ADFE01461F48C0F8081103F07D
:1018900028FDA07811287DD1A0783146FFF7A5FE5C
:1018A0002179090209B2627941EA020007F0D2F80F
:1018B0000746134A134B07F0E5F8824606F090FE00
:1018C00011490867A179090209B2E27941EA0200E7
:1018D00007F0C0F882460A4A0A4B07F0D3F80746D9
:1018E00006F07EFE08494867217A090209B2627A49
:1018F00041EA02000AE00000003801402401002013
:10190000FCA9F1D24D62503FE406002007F0A2F896
:1019100082469F4A9F4B07F0B5F8074606F060FEE7
:101920009D498867A17A090209B2E27A41EA020078
:1019300007F090F80746964A964B07F0A3F88246C0
:1019400006F04EFE94494860217B090209B2627B91
:1019500041EA020007F07EF807468D4A8D4B07F0FA
:1019600091F8824606F03CFE8B498860A17B090213
:1019700009B2E27B41EA020007F06CF80746844AAC
:10198000844B07F07FF8824606F02AFE8249C86041
:10199000217C00E039E0090209B2627C41EA0200E0
:1019A00007F058F807467A4A7A4B07F06BF88246F8
:1019B00006F016FE7849C1F8DC00A17C090209B2E4
:1019C000E27C41EA020007F045F80746704A714B95
:1019D00007F058F8824606F003FE6F49C1F8E000B0
:1019E000217D090209B2627D41EA020007F032F866
:1019F0000746674A674B07F045F8824606F0F0FD58
:101A00006549C1F8E40003F0D7FBA07812283CD167
:101A1000A0783146FFF7E9FD2179090209B2627920
:101A200041EA020007F016F80746594A594B07F0F9
:101A300029F8824606F0D4FD5749C1F84801A1793A
:101A4000090209B2E27941EA020007F003F8074609
:101A50004F4A504B07F016F8824606F0C1FD4E493A
:101A6000C1F84C01217A090209B2627A41EA020006
:101A700006F0F0FF0746464A464B07F003F8824659
:101A800006F0AEFD4449C1F85001A078132803D1F7
:101A9000A0783146FFF7A9FDA078142803D1A078DB
:101AA0003146FFF7A2FDA078152803D1A078314672
:101AB000FFF79BFD00BFE8E510B504463748007806
:101AC00038B9AA2C05D10120344908703448047073
:101AD0005DE032480078012807D1AF2C05D1022003
:101AE0002E4908702E48447051E02C480078022896
:101AF00007D1F12C05DA03202849087028488470A2
:101B000045E02648007803280CD1322C0ADA04205C
:101B1000224908702248C4702248047000202249DB
:101B2000087034E01D480078042819D11D48007859
:101B3000002815DD1B480078401E1A4908701A4815
:101B4000007819490978491C174A1170001D144979
:101B50000C5414480078D0B905201049087016E0DC
:101B60000E48007805280FD100200C4908700E4857
:101B70000078001D0A490C540B480078401DC1B282
:101B80000748FFF76BFD02E000200449087010BD14
:101B9000FCA9F1D24D62503FE40600203000002045
:101BA000DC0100202E0000202F0000202DE9F0474E
:101BB000002500260027FE49B1F90010FC4AB2F9C1
:101BC00006201144484200EBD071491009B2F94A8D
:101BD0001180F749B1F90220B1F9081011444842C7
:101BE00000EBD071491009B2F24A5180F049B1F9C5
:101BF0000420B1F90A101144484200EBD071491099
:101C000009B2EC4A9180EA49B1F90C10E84AB2F9FC
:101C100012201144484200EBD071491009B2E54A44
:101C20001187E349B1F90E20B1F91410114448426B
:101C300000EBD07149100AB2DE494A87DC49B1F99C
:101C40001020B1F916101144484200EBD071491030
:101C50000AB2D8498A870846B0F90000B1F91210D3
:101C6000401AD44948620846B0F90210B0F914008D
:101C7000091AD0488162B0F90410C162B0F9381075
:101C8000B0F94A00091ACB48C165B0F93A10B0F969
:101C90004C00091AC7480166B0F93C10B0F94E0073
:101CA000091AC44841660146C86D07F091FB814698
:101CB000C049B1F93E0007F08BFB8246BE4A494657
:101CC00001F070FE804607F047FB01B2B948C187BA
:101CD0000146086E07F07CFB8146B649B1F9400029
:101CE00007F076FB8246B44A494601F05BFE804627
:101CF00007F032FB01B2AF48A0F840100146486E31
:101D000007F066FB8146AB49B1F9420007F060FB82
:101D10008246AA4A494601F045FE804607F01CFB70
:101D200001B2A448A0F842100146B1F93E0007F004
:101D30004FFB8046A24907F0ABFB9E490865B1F90D
:101D4000400007F045FB80469D4907F0A1FB014696
:101D5000984841650146B1F9420007F039FB8046D9
:101D6000974907F095FB014692488165808C01B246
:101D70009448954A127820F812108E48008D00B2CF
:101D80009249914A127821F812008A48808D00B257
:101D90008F498D4A127821F8120000240DE08948FD
:101DA00030F914000544894830F914000644884885
:101DB00030F914000744601CC4B2642CEFDB824885
:101DC0000078401C80490870642095FBF0F000B258
:101DD0007849C880642096FBF0F001B27548018113
:101DE000642097FBF0F001B2724841817648007898
:101DF000642802D10020744908706E49B1F90600C8
:101E000007F0E6FA6B498861B1F9080007F0E0FADB
:101E10006849C861B1F90A0007F0DAFA6549086251
:101E2000BDE8F0872DE9F04700250026002761482E
:101E3000B0F900005F49B1F91210401A5D494862DB
:101E40000846B0F90210B0F91400091A5948816225
:101E5000B0F90410C162B0F93A10B0F94C00091A97
:101E60005448C165B0F94A005249B1F93810411AD5
:101E700050480166B0F93C10B0F94E00091A4D48BF
:101E800041660146C86D07F0A3FA81464949B1F998
:101E90003E0007F09DFA8246474A494601F082FD1E
:101EA000804607F059FA01B24248C1870146086EE0
:101EB00007F08EFA81463F49B1F9400007F088FAF1
:101EC00082463D4A494601F06DFD804607F044FADE
:101ED00001B23848A0F840100146486E07F078FA81
:101EE00081463449B1F9420007F072FA8246334A1A
:101EF000494601F057FD804607F02EFA01B22D4801
:101F0000A0F842100146B1F93E0007F061FA8046A0
:101F10002B4907F0BDFA27490865B1F9400007F0E1
:101F200057FA8046264907F0B3FA01462148416531
:101F30000146B1F9420007F04BFA8046204907F00C
:101F4000A7FA01461B488165808C00B22149224ACC
:101F5000127821F812001748008D00B21F491E4A5E
:101F6000127821F812001348808D00B21C491A4AD9
:101F7000127821F8120000240DE0164830F9140000
:101F80000544164830F914000644154830F9140089
:101F90000744601CC4B2642CEFDB0F480078401C7F
:101FA0000D490870642095FBF0F000B2014919E07A
:101FB0001C02002024010020CDCCCC3DCDCC4C3DDA
:101FC000E4A40B3A340200208C000020FC02002024
:101FD000C40300208C0400208D0000205405002044
:101FE0001C060020C880642096FBF0F001B2FE4879
:101FF0000181642097FBF0F001B2FB484181FB486E
:102000000078642802D10020F8490870F649B1F937
:10201000060007F0DDF9F4498861B1F9080007F01E
:10202000D7F9F149C861B1F90A0007F0D1F9EE49D1
:102030000862BDE8F0870FB5A3B0ED4801680068FD
:1020400007F026FA2190EB480168E948006807F09C
:102050001FFA2090E8480168E548006807F018FA80
:102060001F90E4480168006807F012FA1E90E348E8
:102070000168E048006807F00BFA1D90DE4801682F
:10208000006807F005FA1C90DC480168DA4800682F
:1020900007F0FEF91B90D9480168006807F0F8F9CD
:1020A0001A90D7480168006807F0F2F91390D548F4
:1020B0000168006807F0ECF91290D34801680068E5
:1020C00007F0E6F91190D1480168006807F0E0F9DF
:1020D0001090CD480168CB48006807F0D9F90F90FF
:1020E000CA480168C648006807F0D2F90E90C74890
:1020F0002599006807F0CCF90B90C3482499006833
:1021000007F0C6F90990BF48006880F000400790CA
:10211000239907F0BDF90890099907F0C1FA0A90D0
:102120000B9907F0BDFABA490C9007F0B1F90D9080
:10213000B34801680D9806F0ABFFB1490860B34899
:102140002499006807F0A4F90B90AF48259900681E
:1021500007F09EF90990AA480168239807F098F9BA
:102160000890099906F094FF0A900B9907F098FAE5
:10217000A7490C9007F08CF90D90A24801680D98C2
:1021800006F086FF9F490860A0480168239807F081
:102190007FF90B909B482599006807F079F9099021
:1021A00097482499006807F073F90890099907F097
:1021B00077FA0A900B9906F06BFF95490C9007F09F
:1021C00067F90D90904801680D9806F061FF8E49FF
:1021D000086008460168239807F05AF90B9089486F
:1021E0002499006807F054F90990854825990068FA
:1021F00007F04EF90890099906F04AFF0A900B99EA
:1022000007F04EFA82490C9007F042F90D907F4892
:1022100001680D9806F03CFF7C490860DDE912106A
:1022200006F036FF0790119906F032FF08901099DA
:1022300006F02EFF099006F0FFFECDE90A0106F038
:10224000A9F9CDE90C0106F0CBF922906C4822994E
:10225000006806F08BFF6A4908606A4822990068A6
:1022600006F084FF6749086067482299006806F015
:102270007DFF6549086065482299006806F076FF91
:10228000624908602899269807F002F90C9029996C
:1022900007F0FEF800210D9007F02AF801D127B0D1
:1022A00000BD2999084607F0F3F8089028990846D8
:1022B00007F0EEF806902699084607F0E9F8059031
:1022C000069906F0E5FE0790089906F0E1FE0990F0
:1022D00006F0B2FECDE90A0106F05CF9CDE90C0189
:1022E00006F07EF922902299269806F03FFF26906C
:1022F0002299289806F03AFF28902299299806F00A
:1023000035FF29901F991D9807F0CAF94FF08041B9
:102310000D9007F0BDF819901B99209806F0B8FEB3
:102320004FF080410D9007F0B3F818901E99219856
:1023300007F0B6F90C901C9907F0B2F90D901A99B4
:1023400006F0A6FE17901899299807F0A1F80D90AD
:102350001799289807F09CF80C900D9907F0A0F9B0
:1023600016901799269807F093F80D9019992998C7
:1023700007F08EF80C900D9907F092F915901999C5
:10238000289807F085F80D901899269807F080F89E
:102390000C900D9907F084F914901E480168169866
:1023A00007F076F80D901C4801680D9806F070FE55
:1023B0001949086017480168159807F069F80D90E9
:1023C000164801680D9806F063FE1449086011482C
:1023D0000168149807F05CF80D90114801680D9899
:1023E00006F056FE0E491DE0240100208D0000205D
:1023F000580000205C0000206000002064000020E5
:1024000074000020780000207C0000208000002064
:102410006F12833A54000020680000206C000020F6
:10242000700000200860F9481699006807F030F83D
:102430000C90239906F02CFE0D90F54801680D983C
:1024400006F026FE2390F1481599006807F020F861
:102450000C90249906F01CFE0D90EE4801680D9832
:1024600006F016FE2490E9481499006807F010F869
:102470000C90259906F00CFE0D90E74801680D9828
:1024800006F006FE2590E5482599006807F000F85B
:102490000B90E3482499006806F0FAFF0990E148A0
:1024A000006880F000400790239906F0F1FF089043
:1024B000099907F0F5F80A900B9907F0F1F8DA4955
:1024C0000C9006F0E5FF0D90D84801680D9806F0D5
:1024D000DFFDD6490860D1482499006806F0D8FF8E
:1024E0000B90CF482599006806F0D2FF0990CF489D
:1024F0000168239806F0CCFF0890099906F0C8FD02
:102500000A900B9907F0CCF8C7490C9006F0C0FF71
:102510000D90C44801680D9806F0BAFDC1490860E5
:10252000BE480168239806F0B3FF0B90BD4825997B
:10253000006806F0ADFF0990BC482499006806F0D9
:10254000A7FF0890099907F0ABF80A900B9906F0DD
:102550009FFDB5490C9006F09BFF0D90B0480168B7
:102560000D9806F095FDAE4908600846016823986D
:1025700006F08EFF0B90AB482499006806F088FFA8
:102580000990AA482599006806F082FF08900999E9
:1025900006F07EFD0A900B9907F082F8A2490C9094
:1025A00006F076FF0D909D4801680D9806F070FDCD
:1025B0009A4908601E99219806F06AFD07901C99B7
:1025C00006F066FD08901A9906F062FD099006F083
:1025D00033FDCDE90A0105F0DDFFCDE90C0105F081
:1025E000FFFF229091482299006806F0BFFD8F49B5
:1025F00008608C482299006806F0B8FD8949086097
:1026000087482299006806F0B1FD85490860834833
:102610002299006806F0AAFD804908600846016812
:102620004FF0804006F034FF01907C48016801982B
:1026300006F02EFF03907A4801684FF0404006F004
:1026400027FF019076480168019806F021FF02906B
:10265000039907F025F84FF07E51049006F018FD1D
:10266000059006F0E9FCCDE90801704801684FF0DB
:10267000804006F00DFF029068480168029806F05D
:1026800007FF0490674801684FF0804006F000FFA4
:10269000029063480168029806F0FAFE03900499DC
:1026A00006F0F6FC059006F0C7FCCDE90601DDE971
:1026B000082305F0AFFE81F000414FF0C0425C4BB3
:1026C000CDE90A0106F0DEF9CDE90C0105F088FF3D
:1026D00058498860524801684FF0804006F0D8FEA3
:1026E00001904F480168019806F0D2FE03904D48D2
:1026F00001684FF0404006F0CBFE01904948016868
:10270000019806F0C5FE0290039906F0C9FF4FF04C
:102710007E51049006F0BCFC059006F08DFCCDE9DE
:102720000801424801684FF0804006F0B1FE029077
:102730003C480168029806F0ABFE049038480168F6
:102740004FF0804006F0A4FE0290344801680298E1
:1027500006F09EFE0390049906F09AFC059006F0A0
:102760006BFCCDE90601DDE9082305F053FE4FF0CF
:10277000C0422F4BCDE90A0106F084F9CDE90C01E6
:1027800005F02EFF2B494860284801684FF0804033
:1027900006F07EFE049022480168049806F078FE58
:1027A0000690204801684FF0404006F071FE04900A
:1027B0001A480168049806F06BFE0590069906F029
:1027C00067FC079006F038FCCDE9080105F0DAFB5C
:1027D0004FF0C042164BCDE90A0106F053F9CDE99E
:1027E0000C0105F0FDFE1349086000BF57E51CB55C
:1027F0001148006A1049C9690F4CCDE90010A3695E
:10280000A26D616D206DFFF716FC1CBD500000200D
:10281000680000206C000020700000206400002090
:10282000600000205C0000206F12833A58000020F6
:1028300094A94C4010020020240100200FB5C3B021
:10284000FE480168006806F023FE0F9006F0F4FBD6
:10285000CDE92201FA480168F848006806F018FE40
:102860000F9006F0E9FBCDE92001F6480168F34836
:10287000006806F00DFE0F9006F0DEFBCDE91E01AC
:10288000F1480168ED48006806F002FE0F9006F07E
:10289000D3FBCDE91C01EA480168006806F0F8FDA9
:1028A0000F9006F0C9FBCDE91A01E6480168E4483B
:1028B000006806F0EDFD0F9006F0BEFBCDE91801B3
:1028C000E1480168DE48006806F0E2FD0F9006F07E
:1028D000B3FBCDE91601DB480168006806F0D8FDBE
:1028E0000F9006F0A9FBCDE91401D7480168D5483F
:1028F000006806F0CDFD0F9006F09EFBCDE91201B9
:10290000D1480168006806F0C3FD0F9006F094FB03
:10291000CDE910014899469806F0BAFD0E90499904
:1029200006F0B6FD00210F9006F0E2FC01D147B0A1
:1029300000BD4999084606F0ABFD0D904899084640
:1029400006F0A6FD0B904699084606F0A1FD0A90F8
:102950000B9906F09DFB0C900D9906F099FB0E90DB
:1029600001F03CF80F9006F067FB419140904698CB
:1029700006F062FBCDE90C01419B409A06F082F81B
:10298000CDE90E0105F02CFE4690489806F054FB68
:10299000CDE90C01419B409A06F074F8CDE90E0197
:1029A00005F01EFE4890499806F046FBCDE90C0163
:1029B000419B409A06F066F8CDE90E0105F010FE45
:1029C00049904C99084606F063FD0D904B990846D6
:1029D00006F05EFD0B904A99084606F059FD0A90F4
:1029E0000B9906F055FB0C900D9906F051FB0E90DB
:1029F00000F0F4FF0F9006F01FFB419140904A98C1
:102A000006F01AFBCDE90C01419B409A06F03AF81A
:102A1000CDE90E0105F0E4FD4A904B9806F00CFB61
:102A2000CDE90C01419B409A06F02CF8CDE90E014E
:102A300005F0D6FD4B904C9806F0FEFACDE90C015E
:102A4000419B409A06F01EF8CDE90E0105F0C8FD45
:102A50004C90DDE91E23DDE9160105F0F3FDCDE91B
:102A60000A014FF080404C9906F012FD079006F0E5
:102A7000E3FACDE90801DDE90A2306F003F8CDE920
:102A80000E01DDE91C23DDE9180106F0EBF9CDE9C3
:102A900006014FF080404B9906F0FAFC039006F0D7
:102AA000CBFACDE90401DDE9062305F0EBFFCDE922
:102AB0000A0100206549DDE9142306F0D3F9CDE9C8
:102AC0000201DDE9102306F0CDF9CDE906014FF052
:102AD00080404A9906F0DCFC039006F0ADFACDE99F
:102AE0000401DDE9062305F0CDFFCDE90801DDE9AC
:102AF0000A2305F0A7FDCDE90C01DDE90E2305F061
:102B0000A1FDCDE93E01DDE92023DDE9120106F05A
:102B1000A9F9CDE90A014FF080404C9906F0B8FCC4
:102B2000079006F089FACDE90801DDE90A2305F0EE
:102B3000A9FFCDE90E0100204449DDE91A2306F082
:102B400091F9CDE90201DDE9102306F08BF9CDE919
:102B500006014FF080404B9906F09AFC039006F076
:102B60006BFACDE90401DDE9062305F08BFFCDE921
:102B70000A01DDE91C23DDE9180105F063FDCDE95B
:102B800006014FF080404A9906F082FC039006F05F
:102B900053FACDE90401DDE9062305F073FFCDE921
:102BA0000801DDE90A2305F04DFDCDE90C01DDE961
:102BB0000E2305F047FDCDE93C0100202349DDE966
:102BC0001A2306F04FF9CDE90601DDE9142306F0DA
:102BD00049F9CDE90A014FF080404C9906F058FCC4
:102BE000079006F029FACDE90801DDE90A2305F08E
:102BF00049FFCDE90E01DDE92023DDE9120105F0F1
:102C000021FDCDE906014FF080404B9906F040FCD4
:102C1000039006F011FACDE90401DDE9062305F081
:102C200031FFCDE90A01DDE91E23DDE9160106F0D9
:102C300019F9CDE906014FF0804009E05800002065
:102C40005C00002060000020640000200000E03FE5
:102C50004A9906F01DFC039006F0EEF9CDE9040157
:102C6000DDE9062305F00EFFCDE90801DDE90A23C1
:102C700005F0E8FCCDE90C01DDE90E2305F0E2FCEE
:102C8000CDE93A01DDE93C231046194605F0FAFE8C
:102C9000CDE90C01DDE93E231046194605F0F2FEB0
:102CA000CDE90A01DDE90C2305F0CCFCCDE90E01EC
:102CB00005F070FCCDE93801DDE93A01CDE93601D6
:102CC000DDE91E23DDE9160106F0CCF800224FF005
:102CD0008043CDE90E0105F0D5FECDE93401DDE9F3
:102CE0001223DDE9200105F0ADFC00224FF0804306
:102CF000CDE90E0105F0C6FECDE93201DDE91A236A
:102D0000DDE9220106F0AEF8CDE90C01DDE914237E
:102D100006F0A8F8CDE90E01DDE9102305F092FCDC
:102D2000CDE93001DDE91E23DDE9160106F09AF850
:102D3000CDE90A0100204FF08041DDE9362305F09E
:102D4000A1FECDE90801DDE90A2305F09BFECDE9EE
:102D50000E010020FE49DDE9142306F083F8CDE9D9
:102D60000601DDE9102306F07DF8CDE90A01002017
:102D70004FF08041DDE9382305F084FECDE90801FC
:102D8000DDE90A2305F07EFECDE90C01DDE90E2325
:102D900005F058FCCDE92E01DDE91223DDE9200123
:102DA00005F050FCCDE90A0100204FF08041DDE93B
:102DB000362305F067FECDE90801DDE90A2305F0B9
:102DC00061FECDE90E01DDE91C23DDE9180106F005
:102DD00049F8CDE90A0100204FF08041DDE93823B0
:102DE00005F050FECDE90801DDE90A2305F04AFEB1
:102DF000CDE90C01DDE90E2305F024FCCDE92C0121
:102E00000020D349DDE91A2306F02CF8CDE90601AC
:102E1000DDE9142306F026F8CDE90A0100204FF081
:102E20008041DDE9362305F02DFECDE90801DDE91D
:102E30000A2305F027FECDE90E01DDE91623DDE9C1
:102E40001E0105F0FFFBCDE90A0100204FF0804193
:102E5000DDE9382305F016FECDE90801DDE90A2396
:102E600005F010FECDE90C01DDE90E2305F0EAFBCB
:102E7000CDE92A014C9806F0DFF8CDE90601DDE93D
:102E80002C2305F0FFFDCDE90A014B9806F0D4F89C
:102E9000CDE90601DDE92A2305F0F4FDCDE90801BD
:102EA000DDE90A2305F0DEFFCDE90E01499806F0C1
:102EB000C3F8CDE90601DDE9322305F0E3FDCDE9F4
:102EC0000A01489806F0B8F8CDE90601DDE930239B
:102ED00005F0D8FDCDE90801DDE90A2305F0C2FFC0
:102EE000CDE90C01DDE90E2305F0ACFBCDE92801AD
:102EF0004A9806F0A1F8CDE90601DDE92A2305F09C
:102F0000C1FDCDE90A014C9806F096F8CDE906011D
:102F1000DDE92E2305F0B6FDCDE90801DDE90A2340
:102F200005F0A0FFCDE90E01469806F085F8CDE941
:102F30000601DDE9302305F0A5FDCDE90A01499838
:102F400006F07AF8CDE90601DDE9342305F09AFDB3
:102F5000CDE90801DDE90A2305F084FFCDE90C0184
:102F6000DDE90E2305F06EFBCDE926014B9806F056
:102F700063F8CDE90601DDE92E2305F083FDCDE9F7
:102F80000A014A9806F058F8CDE90601DDE92C233C
:102F900005F078FDCDE90801DDE90A2305F062FFBF
:102FA000CDE90E01489806F047F8CDE90601DDE9C4
:102FB000342305F067FDCDE90A01469806F03CF898
:102FC000CDE90601DDE9322305F05CFDCDE908011C
:102FD000DDE90A2305F046FFCDE90C01DDE90E230A
:102FE00005F030FBCDE924015A48006806F024F8CA
:102FF000CDE90801DDE9280105F0F2FA029000F0C0
:1030000048FD039006F018F8CDE90401DDE9282316
:1030100005F038FDCDE90601DDE9082305F032FDB4
:10302000CDE90C014C48006806F006F8CDE90A012C
:10303000DDE90C2305F006FBCDE90E0105F0D0FA21
:10304000454908604348006805F0F6FFCDE90801EE
:10305000DDE9260105F0C4FA029000F01AFD0390A4
:1030600005F0EAFFCDE90401DDE9262305F00AFDBC
:10307000CDE90601DDE9082305F004FDCDE90C01E9
:103080003648006805F0D8FFCDE90A01DDE90C23D8
:1030900005F0D8FACDE90E0105F0A2FA2F49086033
:1030A0002C48006805F0C8FFCDE90801DDE92401DE
:1030B00005F096FA029000F0ECFC039005F0BCFFDE
:1030C000CDE90401DDE9242305F0DCFCCDE90601AE
:1030D000DDE9082305F0D6FCCDE90C0120480068A5
:1030E00005F0AAFFCDE90A01DDE90C2305F0AAFAF3
:1030F000CDE90E0105F074FA194908601648006818
:1031000005F09AFFCDE90C01DDE9280105F068FA28
:10311000019000F0BEFC029012480168029806F08F
:10312000B7F9039005F088FFCDE90401DDE9282314
:1031300005F0A8FCCDE90801439805F07DFFCDE935
:103140000601DDE9082305F07DFACDE90A010BE06F
:103150000000E03F54000020680000206C000020C8
:103160007000002050000020DDE90C2305F06AFA11
:10317000CDE90E0105F034FA4390FE48006805F0F1
:103180005BFFCDE90C01DDE9260105F029FA01908C
:1031900000F07FFC0290F8480168029806F078F988
:1031A000039005F049FFCDE90401DDE9262305F090
:1031B00069FCCDE90801449805F03EFFCDE9060120
:1031C000DDE9082305F03EFACDE90A01DDE90C232B
:1031D00005F038FACDE90E0105F002FA4490E7480F
:1031E000006805F029FFCDE90C01DDE9240105F0B7
:1031F000F7F9019000F04DFC0290DF480168029859
:1032000006F046F9039005F017FFCDE90401DDE96A
:10321000242305F037FCCDE90801459805F00CFFA3
:10322000CDE90601DDE9082305F00CFACDE90A0134
:10323000DDE90C2305F006FACDE90E0105F0D0F921
:103240004590CF48006805F0F7FECDE908014FF042
:103250006040CC49DDE9282305F014FCCDE90601E6
:10326000DDE9082305F00EFCCDE90C01C648006835
:1032700005F0E2FECDE90A01DDE90C2305F0E2F9F3
:10328000CDE90E0105F0ACF9BF490860BC48006803
:1032900005F0D2FECDE908014FF06040B949DDE903
:1032A000262305F0EFFBCDE90601DDE9082305F053
:1032B000E9FBCDE90C01AF48006805F0BDFECDE9A2
:1032C0000A01DDE90C2305F0BDF9CDE90E0105F099
:1032D00087F9A8490860AA48006805F0ADFECDE965
:1032E00008014FF06040A749DDE9242305F0CAFB3F
:1032F000CDE90601DDE9082305F0C4FBCDE90C01A9
:103300009E48006805F098FECDE90A01DDE90C232E
:1033100005F098F9CDE90E0105F062F997490860CA
:103320009948006805F088FECDE90C0192480068D4
:1033300005F082FECDE90401DDE9282305F0A2FBBA
:10334000CDE90801439805F077FECDE90601DDE9F6
:10335000082305F077F9CDE90A01DDE90C2305F032
:1033600071F9CDE90E0105F03BF943908148006801
:1033700005F062FECDE90C017F48006805F05CFEB7
:10338000CDE90401DDE9262305F07CFBCDE9080148
:10339000449805F051FECDE90601DDE9082305F06A
:1033A00051F9CDE90A01DDE90C2305F04BF9CDE92E
:1033B0000E0105F015F944907048006805F03CFED8
:1033C000CDE90C016C48006805F036FECDE904013A
:1033D000DDE9242305F056FBCDE90801459805F009
:1033E0002BFECDE90601DDE9082305F02BF9CDE937
:1033F0000A01DDE90C2305F025F9CDE90E0105F000
:10340000EFF8459061484599006806F041F80D9045
:103410005F484499006806F03BF80B905D480068EF
:1034200080F000400990439906F032F80A900B9919
:1034300006F036F90C900D9906F032F956490E90C7
:1034400006F026F80F90554801680F9805F020FE09
:10345000524908604D484499006806F019F80D90EB
:103460004B484599006806F013F80B904B480168EB
:10347000439806F00DF80A900B9905F009FE0C90A0
:103480000D9906F00DF944490E9006F001F80F90E1
:10349000404801680F9805F0FBFD3E4908603B4835
:1034A0000168439805F0F4FF0D903A48459900688B
:1034B00005F0EEFF0B9039484499006805F0E8FFED
:1034C0000A900B9906F0ECF80C900D9905F0E0FDD0
:1034D00031490E9005F0DCFF0F902D4801680F98E0
:1034E00005F0D6FD2A49086008460168439805F0B2
:1034F000CFFF0D9027484499006805F0C9FF0B9055
:1035000026484599006805F0C3FF0A900B9905F01D
:10351000BFFD0C900D9906F0C3F81F490E9005F001
:10352000B7FF0F90194801680F9805F0B1FD1749D2
:103530000860DDE91A23DDE9220105F083F8CDE911
:103540000801DDE9142305F07DF8CDE90A01DDE984
:10355000102305F077F8CDE90C0105F041F80E9045
:1035600000F03CFA0F9005F067FD419140900B4848
:10357000006815E06C000020500000207000002062
:10358000540000204D62503F68000020640000207D
:10359000600000205C0000206F12833A5800002079
:1035A00005F04AFDCDE90C01419B409A05F06AFA0D
:1035B000CDE90E0105F014F88D4908608D480068CA
:1035C00005F03AFDCDE90C01419B409A05F05AFA0D
:1035D000CDE90E0105F004F88649086086480068C8
:1035E00005F02AFDCDE90C01419B409A05F04AFA0D
:1035F000CDE90E0104F0F4FF7F4908607F480068C0
:1036000005F01AFDCDE90C01419B409A05F03AFA0C
:10361000CDE90E0104F0E4FF78490860084601682E
:103620004FF0804005F034FF039074480168039820
:1036300005F02EFF0590704801684FF0404005F0FE
:1036400027FF03906C480168039805F021FF049060
:10365000059906F025F84FF07E51069005F018FD0B
:10366000079005F0E9FCCDE90A01614801684FF0D7
:10367000804005F00DFF049060480168049805F053
:1036800007FF06905B4801684FF0804005F000FF9F
:10369000049059480168049805F0FAFE05900699CF
:1036A00005F0F6FC079005F0C7FCCDE90801DDE95F
:1036B0000A2304F0AFFE81F000414FF0C042504BAE
:1036C000CDE90C0105F0DEF9CDE90E0104F088FF2B
:1036D0004C498860484801684FF0804005F0D8FEAA
:1036E000039045480168039805F0D2FE05904148D3
:1036F00001684FF0404005F0CBFE03903D48016863
:10370000039805F0C5FE0490059905F0C9FF4FF038
:103710007E51069005F0BCFC079005F08DFCCDE9CC
:103720000A01334801684FF0804005F0B1FE049073
:1037300030480168049805F0ABFE06902E480168F9
:103740004FF0804005F0A4FE04902C4801680498D6
:1037500005F09EFE0590069905F09AFC079005F08D
:103760006BFCCDE90801DDE90A2304F053FE4FF0BC
:10377000C042234BCDE90C0105F084F9CDE90E01DF
:1037800004F02EFF1F494860194801684FF080403F
:1037900005F07EFE069018480168069805F078FE50
:1037A0000890144801684FF0404005F071FE069003
:1037B00012480168069805F06BFE0790089905F01D
:1037C00067FC099005F038FCCDE90A0104F0DAFB4A
:1037D0004FF0C0420A4BCDE90C0105F053F9CDE999
:1037E0000E0104F0FDFE0749086000BFFFF79FB817
:1037F000580000205C0000206000002064000020D1
:1038000094A94C40100200202DE9FF5F88B0924639
:103810009946DDF85CB0ABF1010004B208E0601E2F
:103820000AEBC00103C90AEBC40203C2601E04B262
:10383000002CF4DCDDE90801CAE9000100252E4670
:10384000002418E0169800EBC40003C8CDE902017B
:103850000AEBC40003C8CDE90001DDE9022305F04D
:1038600011F92A463346CDE9040104F0EBFE054682
:103870000E46601C04B25C45E4DB1998401E04B29D
:1038800008E0601E09EBC00103C909EBC40203C2D2
:10389000601E04B2002CF4DC0027B846012418E0B6
:1038A000189800EBC40103C9CDE9020109EBC4007B
:1038B00003C8CDE90001DDE9022305F0E3F83A464B
:1038C0004346CDE9040104F0BDFE07468846601C6E
:1038D00004B219988442E3DB3A464346284631460F
:1038E00005F0C0FAC9E90001D9E90001CDE90601F6
:1038F000DDE906010CB0BDE8F09F2DE9FF5F8EB059
:1039000014461D46DDE91CABCDE90CABCDE90A45FB
:1039100000BFDDE91E01CDE90801DDE90A23DDE98B
:10392000200104F08FFE8046894640464946DDE985
:103930000C2304F087FE02460B46CDE90201404607
:10394000494604F02FFFCDE90401DDE90823DDE954
:103950000E0105F087FACDE90001DDE9042305F049
:1039600091F8CDE90201DDE9082304F06BFE06467B
:103970000F4600201849DDE9042305F073FA42469A
:103980004B46CDE9020105F07DF8CDE90601DDE900
:103990000601CDE92001CDE91E673046394612B057
:1039A000BDE8F09F2DE9F04704460D461646314626
:1039B000284605F06DFD804631464FF07E5005F0FB
:1039C0006FFE8146214605F063FD0746414605F03E
:1039D0005FFBBDE8F08700000000F03F2DE9F05FDD
:1039E00004464FF07F594FF07C51204605F050FDC2
:1039F000824625462E465448A0EB660635462946A3
:103A0000504605F045FD8346294605F041FD8046B8
:103A1000494605F03AFE0746294605F039FD0546B8
:103A20002846BDE8F09F30B50346042400200EE090
:103A300033F910508D4202DA23F8101005E033F903
:103A40001050954201DD23F81020451CA8B2A04279
:103A5000EEDB30BD10B502460423002003E022F85F
:103A60001010441CA0B29842F9DB10BD70B5064698
:103A70000D4614462946304605F0D6FD01D22E46A5
:103A800005E02146304605F0CFFC00D22646304600
:103A900070BD70B5044600250021204605F0C4FC29
:103AA00001D284F000442949204605F0BDFD00D232
:103AB000264C2749204605F0EBFC06464FF07E5188
:103AC00005F0E3FD05460021284605F0ADFC00D2D7
:103AD0000025284670BD10B504460021204605F09B
:103AE000A3FC02D284F0004010BD2046FCE72DE983
:103AF000F04104462146204605F0CAFC07464FF037
:103B0000804105F033FB06464FF07E5105F0BDFDC8
:103B100005462846BDE8F0812DE9F04104462146DE
:103B2000204605F0B5FC8046214605F0B1FC07466D
:103B3000084905F01BFB0646214605F0A6FD054693
:103B40002846BDE8F0810000DF59375F9A99193F98
:103B50004260D53F0000C040FD48FE49486000215A
:103B6000FC488160C160FA4981620021C162016341
:103B7000F748F84908670021F64841678167F4492A
:103B8000C0F894100021C0F89810C0F89C10F048BC
:103B9000F049C1F8DC000021EE48C0F8E010C0F8A0
:103BA000E410EB49C0F800110021C0F80411C0F87E
:103BB0000811E94941618163C0F88010C0F8A41080
:103BC000704707B586B0E348007802287EDBE348FB
:103BD000B0F90200E149B1F90810401A039005F06C
:103BE000F7FBDF49049005F0C1FA0590079905F04D
:103BF0004FFA0790D74800690590079905F048FAF1
:103C0000D449086108464069059008460069049057
:103C1000059905F009FD03D2CE484169016112E022
:103C2000CC48406980F000400590CA4800690146D0
:103C30000490059805F0F8FC05D2C648406980F06C
:103C40000041C4480161C7480168079805F028FD94
:103C50000390C048C06801460290039805F018FC24
:103C60000590BC4800690190BA48806800900199AD
:103C700005F00EFC0390B74840680190079905F0E5
:103C800007FC0290039905F003FA0490059905F0EA
:103C9000FFF9B0494862B34907980860AF48B0F9E6
:103CA0000000AE49B1F90A10401A039005F090FBEC
:103CB000AB49049005F05AFA0590069905F0E8F929
:103CC0000690A448C06F0146059000E086E0069883
:103CD00005F0DEF99F49C8670846D0F880000590D6
:103CE0000846C06F0490059905F09EFC04D29948DF
:103CF000D0F88010C16714E09648D0F8800080F0BA
:103D0000004005909348C06F01460490059805F067
:103D10008BFC06D28F48D0F8800080F000418D489F
:103D2000C16791480168069805F0BAFC039089487C
:103D3000806F01460290039805F0AAFB0590854824
:103D4000C06F01908348406F0090019905F0A0FB7F
:103D500003908048006F01460190069805F098FB9B
:103D60000290039905F094F90490059905F090F9F3
:103D70007849C1F890007C49069808607B48B0F902
:103D80003C00029005F024FB03907248D0F8E40058
:103D900001460290039805F07BFB05906F48B0F94F
:103DA00006006E49B1F90C10401A019005F010FBA5
:103DB00002906848D0F8DC0001460190029805F0B6
:103DC00067FB6B49039005F0D1F90490059905F064
:103DD0005FF96049C1F8FC00002008705D48007878
:103DE000401C5C4908706148B0F93E00039005F042
:103DF000EFFA04905748D0F89000014603900498D9
:103E000005F046F905905348D0F894000146049017
:103E1000059805F03DFB01464E48C0F8A8105348F0
:103E2000B0F93E00039005F0D3FA04904948D0F869
:103E3000900001460390049805F02AF90590454842
:103E4000D0F8A00001460490059805F021F901463C
:103E50004048C0F8A010D0F8A40005903D48D0F824
:103E6000A0000490059905F0DFFB05D23948D0F891
:103E7000A410C0F8A01016E03648D0F8A40080F0D6
:103E8000004005903348D0F8A00001460490059802
:103E900005F0CAFB07D22F48D0F8A40080F00041FB
:103EA0002C48C0F8A0102B48D0F8A0000590294855
:103EB000D0F898000490059905F0EAFA01462548E3
:103EC000C0F8AC102948B0F93E10B0F94400081A07
:103ED000049005F07DFA05901E48D0F89C0001463C
:103EE0000490059805F0D4FA01461A48C0F8B010BD
:103EF0001E48B0F94000039005F06AFA0490154896
:103F0000406A01460390049805F0C2F805901148F4
:103F1000806A01460490059805F0BAFA01460D48FA
:103F2000C1631248B0F94000039005F051FA0490C3
:103F30000848406A01460390049805F0A9F80590E6
:103F40000448406B01460490059805F0A1F811E083
:103F500000002041E40600200000C842A80800201C
:103F60000000A041B0000020AC000020240100208F
:103F70000000A0400146FE484163806B0590FC486C
:103F8000406B0490059905F04FFB03D2F848816B14
:103F9000416312E0F648806B80F000400590F448E1
:103FA000406B01460490059805F03EFB05D2F048B1
:103FB000806B80F00041EE484163ED48406B059016
:103FC000EB48C06A0490059905F062FA0146E8489A
:103FD0000164E848B0F94010B0F94600081A0490AE
:103FE00005F0F6F90590E248006B0146049005984B
:103FF00005F04EFA0146DE484164DE48B0F9420061
:10400000039005F0E5F90490D948D0F8FC0001468A
:104010000390049805F03CF80590D548D0F80001CD
:1040200001460490059805F033FA0146D048C0F8DF
:104030001411D048B0F94210B0F94800081A0490A1
:1040400005F0C6F90590CA48D0F808010146049069
:10405000059805F01DFA0146C548C0F81C11D0F8B6
:10406000AC000490C248D0F8A8000390049905F071
:104070000FF80590BE48D0F8B000014604900598AE
:1040800005F006F80146BA48C0F8B410006C049078
:10409000B748C06B0390049904F0FAFF0590B44848
:1040A000406C01460490059804F0F2FF0146B048C8
:1040B0008164D0F81C010590AD48D0F8140104903B
:1040C000059904F0E5FF0146A948C0F82011D0F891
:1040D0002001A949059005F0A7FA03D2A649A448F2
:1040E000C0F82011A248D0F82001A449059005F09D
:1040F0009BF903D2A1499E48C0F820119D48C18F69
:10410000A0F84410B0F84010A0F84610B0F84210E3
:10411000A0F848109A48B0F9040040F21A418842C9
:104120007DDD98480078012803D096480078002863
:1041300076D19348B0F90400A0F57A7092490860EE
:104140000846006805F044F902908948D0F820013B
:1041500001460190029804F09BFF03908448D0F838
:10416000B40001460290039805F09AFA0490804842
:10417000806C01460390049805F092FA059005F0D2
:10418000EBF800B2814908807F48006805F020F90B
:1041900002907748D0F8200101460190029805F07E
:1041A0007FFA03907248D0F8B40001460290039859
:1041B00004F06EFF04906E48806C014603900498F2
:1041C00005F06EFA059005F0C7F800B26F49488017
:1041D0006D48006805F0FCF802906548D0F82001B1
:1041E00001460190029804F053FF03906048D0F814
:1041F000B40001460290039804F04AFF04905C4822
:10420000806C01460390049804F042FF059005F08D
:10421000A3F800B25D4988805B48006801E0EDE0EA
:1042200022E005F0D5F802905148D0F8200101466F
:104230000190029805F034FA03904D48D0F8B4008C
:1042400001460290039805F02BFA04904848806CD0
:1042500001460390049804F01BFF059005F07CF8DC
:1042600000B24A49C880D6E0464800780228FAD110
:104270004548006805F0ACF801903D48D0F8680169
:1042800001460090019804F003FF02903848D0F8EE
:10429000200101460190029804F0FAFE0390344890
:1042A000D0F8B40001460290039805F0F9F90490A3
:1042B0002F48806C01460390049805F0F1F90590B1
:1042C00005F04AF800B2314908802F48006805F02F
:1042D0007FF801902648D0F86801014600900198C7
:1042E00004F0D6FE02902248D0F820010146019049
:1042F000029805F0D5F903901D48D0F8B4000146A6
:104300000290039804F0C4FE04901948806C0146A2
:104310000390049805F0C4F9059005F01DF800B26B
:104320001A4948801848006805F052F80190104872
:10433000D0F8680101460090019804F0A9FE0290AF
:104340000B48D0F8200101460190029804F0A0FE2D
:1043500003900748D0F8B40001460290039804F097
:1043600097FE04900248806C0146039004980FE089
:10437000E4060020240100200000C8420000C8C25A
:10438000A8080020B5000020A00000209000002018
:1043900004F07EFE059004F0DFFF00B23E49888005
:1043A0003E48006805F014F801903D48D0F86801D7
:1043B00001460090019804F06BFE02903848D0F856
:1043C000200101460190029805F06AF903903448F3
:1043D000D0F8B40001460290039805F061F904900A
:1043E0002F48806C01460390049804F051FE05901C
:1043F00004F0B2FF00B22849C8800CE00020264932
:10440000C880888048800880002125480161C167F4
:104410004163C0F8A0102048B0F90000002802DC79
:1044200000201D4908801C48B0F90200002802DC69
:104430000020194948801848B0F90400002802DC1F
:104440000020154988801448B0F90600002802DCD5
:1044500000201149C88013480078A0B10E48C088D8
:1044600080B205900C48808880B204900A48408849
:1044700080B203900848008880B2029003A90EC958
:1044800000F099F905E000231A461946184600F095
:1044900092F909B000BD000090000020A0000020AB
:1044A000E4060020B400002070B56D480078401C80
:1044B0006B4908706B48C0886B49C8806948408860
:1044C000488068480088088066488088A0F2DC50F0
:1044D00004B26348007832281EDB0020604908706F
:1044E0006248B0F90000001BB0F5967F06DC5F481B
:1044F000B0F90000001B10F5967F02DA5B480480DB
:1045000008E0142094FBF0F057498988084400B271
:1045100055498880554804805349B1F9040004F096
:1045200057FF0646524A5349FFF7A0FA054604F0E2
:1045300013FF00B24C49888070BD4F480078F0B13D
:104540004948B0F90000B0F5E16F18DB4648B0F912
:104550000200B0F5966F12DC4348B0F90400B0F5E4
:10456000966F0CDC4048B0F90600B0F5966F06DC9B
:1045700042480088401C00B24049088002E0002008
:104580003E4908803D48B0F900001E2809DD3A4840
:10459000007830B10020384908703849088038491F
:1045A000086035480078F0B92F48B0F90600B0F53A
:1045B000E16F18DB2C48B0F90200B0F5966F12DC01
:1045C0002948B0F90400B0F5966F0CDC2648B0F924
:1045D0000000B0F5966F06DC2A480088401C00B247
:1045E0002849088002E00020264908802548B0F9C3
:1045F00000001E280BDB2048007840B901201E492E
:10460000087000201F49088001201D49086070477C
:104610001548B0F90E0040F2A461884203DD022083
:10462000194908701BE01048B0F90E0040F214510F
:1046300088420ADD0C48B0F90E0040F2A4618842BD
:1046400003DA01201049087009E00748B0F90E00AC
:1046500040F21451884202DA00200B49087070477A
:10466000B6000020BE080020A8080020B8000020E6
:1046700000007A440000FA44B4000020BA00002090
:10468000B4812142BC000020B500002008B5012102
:10469000082001F025FD0121084601F021FD01213E
:1046A0004A4801F032FB28208DF803001020ADF8B5
:1046B000000003208DF802006946454801F054FAD5
:1046C00008BD30B589B005460C460121082001F02F
:1046D00007FD0121022001F010FD0121084601F033
:1046E000FFFC01213B4801F010FB18208DF807006A
:1046F00003208DF806000220ADF8040001A934481B
:1047000001F032FA1020ADF8040001A9304801F0A0
:104710002BFA2020ADF8040001A92D4801F024FA5D
:1047200001212A4801F0F1FA0120ADF8040001A9A5
:10473000274801F019FA0020ADF81E00ADF81A0064
:10474000ADF81C50ADF8184006A9234802F004F853
:104750006020ADF808000120ADF80A000020ADF897
:10476000100002A91C4802F034F808211A4802F08F
:104770007FFC02A9184802F06EF80821164802F0E2
:1047800080FC02A9144802F0B3F80821124802F094
:1047900085FC02A9104802F0F6F808210E4802F044
:1047A00086FC01210C4802F033FB01210A4802F08B
:1047B0002FFC09B030BD10B5074C34342080241DC7
:1047C0002180241D2280241D238010BD0002300082
:1047D000000C014000081A000004004000B587B03A
:1047E00001210C2001F07CFC0121080301F078FC80
:1047F0000121084601F074FC1020ADF818008DF876
:104800001B0003208DF81A0006A9FB4801F0ACF943
:104810001021F94801F055FA0220ADF8180006A958
:10482000F54801F0A1F90221F34801F04CFA00F03B
:1048300034FA0021F14802F094FE0020ADF80400A3
:104840004FF48270ADF806000020ADF80800ADF816
:104850000A00ADF80C004FF40070ADF80E00102007
:10486000ADF810000020ADF812000720ADF81400DC
:1048700001A9E24802F0D0FD0121E04802F071FEFA
:104880000020DF4908600120DE49C1F884014FF4AF
:104890007A7000F0D0FF07B000BD1FB500210120E5
:1048A00001F078FA0120ADF80C0048208DF80F00D7
:1048B00003A9D14801F058F90120019000208DF89A
:1048C00008000C208DF8090001208DF80A0001A8CD
:1048D00003F0EEF906208DF8000000208DF80100AD
:1048E00001208DF802008DF80300684601F073F88E
:1048F0001FBD2DE9F04107460D4616460020C04970
:104900000C390860384600F0A1F98046002405E023
:10491000FF2000F09BF92855601CC4B2B442F7DBBD
:104920000120B7490C3908604046BDE8F0812DE907
:10493000F04107460C4615460020B1490C39086085
:10494000384600F083F98046002605E014F8010B94
:1049500000F07CF9701CC6B2AE42F7DB0120A8491A
:104960000C3908604046BDE8F0811FB5A6A103C917
:10497000CDE90201102000F0D4F9052202A930206F
:10498000FFF7D5FF052269461020FFF7B2FF00248C
:1049900006E01DF80400A52800D003E0601CC4B2A6
:1049A000052CF6DB00BF052C02D0012004B010BDA1
:1049B0000020FBE770B505460C46002090490C39F5
:1049C0000860284600F042F90646204600F03EF90D
:1049D00001208C49C1F88401304670BD70B5044691
:1049E000002087490C390860204600F02FF9FF208D
:1049F00000F02CF9054601208249C1F884012846BF
:104A000070BD70B50546102000F08BF900207C4980
:104A1000086020222946A020FFF789FF012079495C
:104A2000C1F890010A2000F006FF00BF74489038DA
:104A300000680028FAD10720FFF7D0FF044621467E
:104A40002720FFF7B7FF04F0100028B1FF21E12075
:104A5000FFF7B0FF102070BD04F0200008B1202047
:104A6000F9E7FF20F7E770B50546102000F059F987
:104A70000720FFF7B3FF044621462720FFF79AFFE0
:104A800004F0400028B1FF21E220FFF793FF00204F
:104A900070BD0120FCE710B50020594908600522CF
:104AA0005B492A20FFF743FF01212120FFF782FF06
:104AB00001212220FFF77EFF28212520FFF77AFF22
:104AC00020213120FFF776FF0F212620FFF772FF0C
:104AD0000F212020FFF76EFF01204A49C1F8900105
:104AE00010BD10B500204649086005224949302014
:104AF000FFF71DFF052246492A20FFF718FF012175
:104B00002120FFF757FF01212220FFF753FF1A2131
:104B10002420FFF74FFF28212520FFF74BFF2021FE
:104B20003120FFF747FF07212620FFF743FF0E2123
:104B30002020FFF73FFF01203249C1F8900110BD4E
:104B400008B500220092002102788DF800204278FA
:104B50008DF8012081789DF80020AA2A03D19DF8C4
:104B60000120AA2A00D008BD012904D0022904D0BE
:104B700003291FD100E01EE01DE00279C37802EB9B
:104B8000032212B2244B9A808279437902EB0322EA
:104B900012B2214BDA80827A437A02EB032212B2FC
:104BA0001D4B1A80027AC37902EB032212B21A4B10
:104BB0005A8000E000BF00BF00BFD4E770B50446D4
:104BC0000720FFF70BFF054640212720FFF7F2FEE5
:104BD00005F0400050B3202221466120FFF789FEF6
:104BE000FF21E220FFF7E6FE2046FFF7A9FF0B4872
:104BF0000068A8B9012014E000080140003001401D
:104C00009001214200002142A5A5A5A5A500000014
:104C10007F9800087A980008BE080020B4812142DD
:104C200000200749086000200649086070BD10B5E3
:104C30000548FFF7C3FF012003F0B1F810BD0000E5
:104C4000B4812142C0000020DC00002070B5054680
:104C5000002405E0601CC4B2C82C01DD002070BD3A
:104C60000221394802F001FD0028F3D029463648D8
:104C700002F0A8FC002405E0601CC4B2C82C01DDD1
:104C80000020ECE70121304802F0EFFC0028F3D0CF
:104C90002D4802F099FCC0B2E1E700B587B00121D0
:104CA000042001F01DFA0121080301F019FAE020A7
:104CB000ADF8180018208DF81B0003208DF81A009D
:104CC00006A9224800F050FFE021204800F0F9FF3B
:104CD0000020ADF804004FF48270ADF8060000200B
:104CE000ADF808000220ADF80A000120ADF80C0074
:104CF0004002ADF80E003820ADF810000020ADF8ED
:104D000012000720ADF8140001A90F4802F084FB3F
:104D100001210D4802F025FCFF20FFF797FF07B0A7
:104D200000BD10B50446084800884FF6C77108401A
:104D30000549088008460088204308800121024870
:104D400002F00FFC10BD00000030014000080140DF
:104D500010B500226B21D020FBF754FD0A2000F093
:104D60006AFD03226B21D020FBF74CFD0A2000F0E6
:104D700062FD00221921D020FBF744FD0A2000F03B
:104D80005AFD03221A21D020FBF73CFD0A2000F037
:104D900052FD10221C21D020FBF734FD0A2000F028
:104DA0004AFD10221B21D020FBF72CFD0A2000F029
:104DB00042FD7521D020FBF740FD0446682C01D14F
:104DC000002010BD0120FCE710B5934B0E223B21C3
:104DD000D020FBF750FD904840788F49097840EA91
:104DE000012000B28D4908808B48C0788A498978B3
:104DF00040EA012000B289494880874840798649C5
:104E0000097940EA012000B2844988808248407ACA
:104E10008149097A40EA012000B2804908877E482A
:104E2000C07A7D49897A40EA012001B27B484187F6
:104E30007948407B7849097B40EA012001B27748F4
:104E4000818710BD10B53C21D020FBF7F6FC7249DC
:104E500008703B21D020FBF7F0FC6F4948700846F2
:104E60000078497840EA012000B26C4908803E2170
:104E7000D020FBF7E2FC684988703D21D020FBF789
:104E8000DCFC6549C87008468078C97840EA012092
:104E900000B2624948804021D020FBF7CEFC5E4939
:104EA00008713F21D020FBF7C8FC5B4948710846D8
:104EB0000079497940EA012000B25849888010BD44
:104EC00010B54421D020FBF7B8FC534908724321A8
:104ED000D020FBF7B2FC504948720846007A497A64
:104EE00040EA012000B24D4908874621D020FBF757
:104EF000A4FC494988724521D020FBF79EFC464915
:104F0000C8720846807AC97A40EA012001B2434853
:104F100041874821D020FBF790FC3F490873472187
:104F2000D020FBF78AFC3C4948730846007B497B4C
:104F300040EA012001B23948818710BD704710B5A1
:104F4000C824002035494862002134488162C1628A
:104F5000C165016641662CE0FFF774FFFFF7B0FF03
:104F60002E48C06D2D49B1F9381001442B48C16558
:104F7000016EB0F93A00014428480166416EB0F96B
:104F80003C00014425484166406A2449B1F90010BB
:104F90000844224948620846806AB1F90210014477
:104FA0001E488162C06A1D49B1F9041001441B48C2
:104FB000C162201EA4F101018CB2CDD1C8241748D2
:104FC000C06D90FBF4F001B21448A0F84A10006ED6
:104FD00090FBF4F001B21148A0F84C10406E90FB29
:104FE000F4F001B20D48A0F84E10406A90FBF4F0C6
:104FF00000B20A4948820846806A90FBF4F001B288
:1050000006488182C06A90FBF4F001B20348C18275
:1050100000F0A8F810BD0000E408002024010020E2
:105020000146088870472DE9F04105460E461746AF
:10503000002407E036F81410284602F0B4FCAD1C3A
:10504000601C84B2BC42F5DBBDE8F08130B503469C
:105050000C461546002207E01846FFF7E1FF24F84A
:1050600012009B1C501C82B2AA42F5DB30BD2DE918
:10507000F05F80468A461746B8F1006F02D3374882
:10508000804501D3BDE8F09F02F045FBA8F1006B1D
:105090004FEA9B25CBF34809C9F50074A74200DC11
:1050A0003C464DE04FF0006101EB85208A142C490D
:1050B000FFF7CCFF00260BE009EB0600284931F88A
:1050C00010004FF6FF71884200D003E0701C86B2DA
:1050D000A642F1DB00BFA6421BDA4FF0006101EBF4
:1050E000852002F05DFB002608E03AF8160006EB8A
:1050F00009011B4A22F81100701C86B2A642F4DB9B
:105100004FF0006101EB85208A141549FFF78BFFF2
:1051100004E0224651464046FFF785FFA74200D1F2
:105120000FE06D1C4FF000090AEB440AA044381B45
:1051300087B2B7F5007F02DD4FF4007400E03C4613
:10514000B0E700BF02F0F3FA00BF9BE713B50446D7
:10515000012201A92046FFF78AFF1CBD00000108BB
:10516000F208002010B50122FD49FE48FFF77FFF3D
:105170000122FB49891CFB48801CFFF778FF0122B4
:10518000F749091DF748001DFFF771FF0122F44997
:105190003839F448801DFFF76AFF0122F04936399B
:1051A000F0480830FFF763FF0122ED493439ED483C
:1051B0000A30FFF75CFF10BD3EB5EB494868EB498C
:1051C00004F066F9044604F0E3F880B20290E64980
:1051D0008868E64904F05CF9044604F0D9F880B226
:1051E0000190E149C868E14904F052F9044604F02D
:1051F000CFF880B20090012202A9DA482030FFF7F0
:1052000036FF012201A9D7482230FFF730FF0122E3
:105210006946D4482430FFF72AFFD349086FD349A1
:1052200004F036F9044604F0B3F880B20290CE4997
:10523000486FCE4904F02CF9044604F0A9F880B276
:105240000190C949886FC94904F022F9044604F065
:105250009FF880B20090012202A9C2482830FFF7CF
:1052600006FF012201A9BF482A30FFF700FF0122F3
:105270006946BC482C30FFF7FAFEBB49D1F8DC0088
:10528000BA4904F005F9044604F082F880B20290AD
:10529000B549D1F8E000B54904F0FAF8044604F045
:1052A00077F880B20190B049D1F8E400AF4904F03A
:1052B000EFF8044604F06CF880B20090012202A9D5
:1052C000A8482E30FFF7D3FE012201A9A5483030AF
:1052D000FFF7CDFE01226946A2483230FFF7C7FE34
:1052E0003EBD3EB5A049886AA04904F0D1F8044605
:1052F00004F04EF880B202909B49C86A9B4904F0C2
:10530000C7F8044604F044F880B201909649086B4F
:10531000964904F0BDF8044604F03AF880B20090D3
:10532000012202A98F483430FFF7A1FE012201A912
:105330008C483630FFF79BFE012269468948383099
:10534000FFF795FE8849D1F89400884904F0A0F849
:10535000044604F01DF880B202908349D1F8980009
:10536000824904F095F8044604F012F880B20190E6
:105370007D49D1F89C007D4904F08AF8044604F088
:1053800007F880B20090012202A976483A30FFF770
:105390006EFE012201A973483C30FFF768FE01222E
:1053A000694670483E30FFF762FE6F49D1F8000150
:1053B0006E4904F06DF8044603F0EAFF80B20290F3
:1053C0006949D1F80401694904F062F8044603F020
:1053D000DFFF80B201906449D1F80801634904F00D
:1053E00057F8044603F0D4FF80B20090012202A9CE
:1053F0005C484030FFF73BFE012201A9594842308A
:10540000FFF735FE0122694656484430FFF72FFE6C
:105410003EBD3EB55449D1F84801544904F038F82E
:10542000044603F0B5FF80B202904F49D1F84C0119
:105430004E4904F02DF8044603F0AAFF80B2019013
:105440004949D1F85001494904F022F8044603F0D3
:105450009FFF80B20090012202A942486030FFF70E
:1054600006FE012201A93F486230FFF700FE01223B
:1054700069463C486430FFF7FAFD3EBD10B5012295
:1054800037493848FFF7E2FD01223549891C354884
:10549000801CFFF7DBFD01223149091D3148001D49
:1054A000FFF7D4FD01222E4938392E48801DFFF721
:1054B000CDFD01222A4936392A480830FFF7C6FDBA
:1054C00001222749343927480A30FFF7BFFD10BDB4
:1054D0003EB5012202A923482030FFF7B7FD012283
:1054E00001A920482230FFF7B1FD012269461D487D
:1054F0002430FFF7ABFDBDF8080003F081FF044640
:105500001A4903F033FE18494860BDF8040003F05F
:1055100077FF0446154903F029FE13498860BDF85A
:10552000000003F06DFF0446104903F01FFE0E4912
:10553000C860012202A90B482830FFF787FD01222D
:1055400001A908482A30FFF781FD01226946054874
:105550002C30FFF77BFDBDF8080003F051FF07E09A
:105560006E01002000FC0008E406002000007A44E0
:1055700004468F4903F0FAFD8E490867BDF8040020
:1055800003F03EFF04468A4903F0F0FD894948676D
:10559000BDF8000003F034FF0446854903F0E6FD42
:1055A00084498867012202A98348FFF74FFD012241
:1055B00001A98148801CFFF749FD012269467E4808
:1055C000001DFFF743FDBDF8080003F019FF044676
:1055D000774903F0CBFD7749C1F8DC00BDF8040042
:1055E00003F00EFF0446724903F0C0FD7149C1F893
:1055F000E000BDF8000003F003FF04466C4903F02F
:10560000B5FD6C49C1F8E4003EBD3EB5012202A9DA
:105610006948801DFFF71AFD012201A9664808307C
:10562000FFF714FD0122694663480A30FFF70EFDBB
:10563000BDF8080003F0E4FE04465D4903F096FD62
:105640005C498862BDF8040003F0DAFE044658495C
:1056500003F08CFD01465748C162BDF8000003F01D
:10566000CFFE0446524903F081FD014651480163D3
:10567000012202A950480C30FFF7E8FC012201A9E1
:105680004D480E30FFF7E2FC012269464A481030CF
:10569000FFF7DCFCBDF8080003F0B2FE0446444905
:1056A00003F064FD4349C1F89400BDF8040003F021
:1056B000A7FE04463E4903F059FD01463D48C0F8A7
:1056C0009810BDF8000003F09BFE0446384903F033
:1056D0004DFD01463748C0F89C10012202A936480A
:1056E0001230FFF7B3FC012201A933481430FFF751
:1056F000ADFC0122694630481630FFF7A7FCBDF823
:10570000080003F07DFE0446294903F02FFD2949D6
:10571000C1F80001BDF8040003F072FE04462449FC
:1057200003F024FD01462348C0F80411BDF8000031
:1057300003F066FE04461E4903F018FD01461D48AD
:10574000C0F808113EBD3EB5012202A91A48323008
:10575000FFF77CFC012201A917483430FFF776FCE3
:105760000122694614483630FFF770FCBDF8080086
:1057700003F046FE04460E4903F0F8FC0D49C1F85B
:105780004801BDF8040003F03BFE0446084903F05D
:10579000EDFC0849C1F84C01BDF8000003F030FEF3
:1057A0000446034903F0E2FC0249C1F850013EBD42
:1057B00000007A44E40600202EFC000810B56FF0CB
:1057C000040000F052F92E4800682E49B0FBF1F0B9
:1057D0002D4908700846007800EB4001C1EBC0106D
:1057E0004FF6FF7101EAC0002849088010BD01464C
:1057F000254A12784A434FF0E0235A6100229A6109
:105800001A46126942F001021A6100BF4FF0E0220D
:10581000106900F001021AB100F48032002AF5D0BC
:105820004FF0E022126922F001024FF0E0231A61EA
:1058300000229A6170470146144A12884A434FF089
:10584000E0235A6100229A611A46126942F001026D
:105850001A6100BF4FF0E022106900F001021AB196
:1058600000F48032002AF5D04FF0E022126922F0D5
:1058700001024FF0E0231A6100229A617047000094
:105880000000002000127A00C4000020C6000020A2
:10589000014600BF704700BF3A4A128802F040023A
:1058A000002AF9D0C2B2374B1B1D1A80704710B5C1
:1058B00086B00446012144F2040000F011FC4FF4CC
:1058C0000070ADF8140003208DF8160018208DF834
:1058D000170005A92C4800F047F94FF48060ADF897
:1058E000140004208DF8170005A9274800F03CF9A2
:1058F00025208DF8000000208DF8010002208DF891
:10590000020001208DF80300684600F064F801945D
:105910000020ADF80800ADF80A00ADF80C00ADF8B5
:1059200010000C20ADF80E0001A9164800F07FFC15
:10593000012240F22551134800F011FD01211148C8
:1059400000F001FD06B010BD10B50E48008800F053
:10595000080018B10B48001D0088C4B240F2255160
:10596000084800F0E1FD58B140F22551054800F02B
:1059700005FE0448001D0088C4B22046FCF79CF8D0
:1059800010BD000000380140000801400948804770
:1059900009480047FEE7FEE7FEE7FEE7FEE7FEE711
:1059A000FEE7FEE7FEE7FEE704480549054A064B29
:1059B00070470000CB03000831010008580D00209B
:1059C00058130020580F0020580F00203149014380
:1059D000314A1160704770B5002100230F22C4784E
:1059E00004B32D4C246804F4E064C4F5E064210A97
:1059F000C1F10403CA40447804FA03F184781440E6
:105A000021430901254C0678A155047804F01F05AF
:105A10000124AC4005786D11AD0005F1E025C5F815
:105A2000004109E0047804F01F050124AC401C4D3E
:105A30000678761145F8264070BD1A4A0A4002439E
:105A4000154B1B1F1A60704739B1134A121D12689B
:105A50000243114B1B1D1A6006E00F4A121D12680B
:105A600082430D4B1B1D1A607047042808D14FF06C
:105A7000E021096941F004014FF0E022116107E0E3
:105A80004FF0E021096921F004014FF0E02211619B
:105A9000704700000000FA050CED00E000E400E0B3
:105AA00080E100E080FFFF1F10B50446CC4884422F
:105AB00008D10121042000F02DFB0021042000F07A
:105AC00029FB46E0C748844208D10121082000F0A4
:105AD00021FB0021082000F01DFB3AE0C24884426F
