:020000040800F2
:100000008813002071570008C9020008CB020008BD
:10001000CF020008D3020008D70200080000000049
:10002000000000000000000000000000DB020008EB
:10003000DD02000800000000DF020008E102000805
:100040008B5700088B5700088B5700088B57000808
:100050008B5700088B570008FF4900088B57000892
:100060008B5700088B5700088B5700088B570008E8
:100070008B5700088B5700088B5700088B570008D8
:100080008B5700088B5700088B5700088B570008C8
:100090008B5700088B5700088B5700088B570008B8
:1000A0008B5700088B5700088B5700088B570008A8
:1000B000810A00088B5700082F0B00088B57000897
:1000C0008B5700088B5700088B5700088B57000888
:1000D0008B5700082D5700088B5700088B570008D6
:1000E0008B5700088B5700088B5700088B57000868
:1000F0008B5700088B5700088B5700088B57000858
:100100008B5700088B5700088B5700088B57000847
:100110008B5700088B5700088B5700088B57000837
:100120008B5700088B5700088B5700088B57000827
:1001300000F002F800F03AF80AA090E8000C8244BF
:100140008344AAF10107DA4501D100F02FF8AFF29C
:10015000090EBAE80F0013F0010F18BFFB1A43F0A5
:1001600001031847F495000014960000103A24BFCC
:1001700078C878C1FAD8520724BF30C830C144BF0C
:1001800004680C607047000000230024002500264E
:10019000103A28BF78C1FBD8520728BF30C148BFEA
:1001A0000B6070471FB51FBD10B510BD07F032FDC5
:1001B0001146FFF7F7FF00F020F807F050FD03B4F9
:1001C000FFF7F2FF03BC05F055FA000010B54FF43D
:1001D0007A703949888040F2DC5048800880C880B5
:1001E00008814881888105F034F805F05CF805F055
:1001F000FBF801203149087010BD00BF05F0D0F9AF
:100200004FF4A06005F0D4FA04F012F94FF4E13095
:1002100005F03FFA00F056F904F00AF904F0C6F9C7
:1002200006E00020264908604FF47A7005F0F5F9E1
:1002300004F083FA0028F4D101202149086004F079
:1002400012FB04F0F5F804F010FA04F0F1F800F0F5
:1002500055F909E01A48001F006808B9012000E0BC
:1002600000201749091F086004F05AFC0028F1D14A
:10027000472140F2CF7000F0DCFB472140F2E7302D
:1002800000F0AEFB04F0D4F8002140F69F7004F0BB
:10029000EAF800231A461946184604F05EF9FFF7FB
:1002A00095FF0121074806F0A5FC0121880706F00B
:1002B000A1FC00BFFEE70000DC080020B900002020
:1002C000B881214200080040704700BFFEE700BF30
:1002D000FEE700BFFEE700BFFEE7704770477047CC
:1002E000704700000CB50020019000906C48006839
:1002F00040F480306A49086000BF6948006800F433
:10030000003000900198401C0190009818B90198A5
:10031000B0F5A06FF1D16248006800F4003010B170
:100320000120009001E0002000900098012843D1B6
:100330005C48006840F010005A49086008460068B0
:1003400020F0030008600846006840F002000860E2
:10035000534840685249486008464068486008462B
:10036000406840F4806048600846406820F47C1093
:1003700048600846406840F4E81048600846006855
:1003800040F08070086000BF4548006800F00070D1
:100390000028F9D04248406820F0030040494860F6
:1003A0000846406840F00200486000BF3C48406892
:1003B00000F00C000828F9D10CBD10B5FFF792FF32
:1003C00010BD10B53648006840F00100344908609F
:1003D000084640683449084031494860084600688A
:1003E000324908402E4908600846006820F4802001
:1003F00008600846406820F4FE0048604FF41F0083
:100400008860FFF7DAFF4FF000602949086010BDEF
:1004100010B5002100200022214B5B6803F00C0185
:1004200021B1042906D0082928D107E0214B224C0C
:10043000236027E01F4B204C236023E0184B5B68B0
:1004400003F47010164B5B6803F48032022303EB55
:10045000904022B9194B4343174C23600DE0104BD9
:100460005B6803F4003323B1144B4343124C236005
:1004700003E0104B4343104C236003E00D4B0E4C44
:10048000236000BF00BF064B5B68C3F303130C4C33
:10049000E15C094B1B68CB40074C236010BD00009A
:1004A00000100240002002400000FFF8FFFFF6FEAF
:1004B00008ED00E000127A000000002000093D0075
:1004C0000400002008B50121082005F0FBFC4FF4D2
:1004D0007040ADF8000010208DF8030003208DF867
:1004E00002006946044805F031FA4FF470410248B1
:1004F00005F0D9FA08BD0000000C014008B5012143
:10050000082005F0DFFCC020ADF8000010208DF8B9
:10051000030003208DF802006946F84805F016FA3A
:10052000C021F64805F0BFFA08BD10B5F3480068D1
:1005300020F07040F14908600846006840F08050A3
:1005400008600120EE490860EE49C1F898010420D6
:1005500005F03FF8E948006820F07040E74908607E
:100560000846006840F0004008608021E34805F03C
:1005700080FA08B9012010BDE048006820F0704002
:10058000DE4908600846006840F08050086080211D
:10059000DA4805F08AFA012005F01BF80020EAE7A6
:1005A00010B5D648006820F07040D449086008466D
:1005B000006840F0805008604021D04805F075FA8E
:1005C0008021CE4805F071FA012005F002F84021A3
:1005D000CA4805F068FA012004F0FBFF8021C748F3
:1005E00005F061FA042004F0F4FF10BD10B50024FA
:1005F0004021C24805F059FAC048006820F0704018
:10060000BE4908600846006840F0805008608021BC
:10061000BA4805F048FA012004F0DBFF4021B74852
:1006200005F041FA012004F0D4FFB448006820F03E
:100630007040B24908600846006840F00040086019
:1006400012E0601CC4B2FA2C0EDDAC48006820F049
:100650007040AA4908600846006840F08050086071
:10066000FFF79EFF012010BD8021A44805F001FA8C
:100670000028E6D1A148006820F070409F4908603A
:100680000846006840F08050086000209C49091F1F
:10069000086000BFE7E710B54021984805F005FA6B
:1006A0009648006820F07040944908600846006849
:1006B00040F0805008608021904805F0F6F9022053
:1006C00004F087FF40218D4805F0EDF9022004F089
:1006D00080FF4021894805F0E8F9022004F079FF05
:1006E00010BD10B54021854805F0DFF9022004F067
:1006F00070FF8248006820F070408049086008461A
:10070000006840F08050086080217C4805F0CBF9FB
:10071000022004F05EFF4021784805F0C4F9022071
:1007200004F057FF4021754805F0BFF910BD70B5C2
:1007300004467248006820F070407049086008461E
:10074000006840F08050086000206D49091F086073
:10075000002520E004F0800020B18021674805F0EA
:10076000A2F903E08021654805F09FF96006040EB8
:10077000022004F02EFF01206149091F08600220B9
:1007800004F027FF00205F49C1F89801022004F01F
:1007900020FF681CC5B2082DDCDB70BD70B50024DD
:1007A0005648006820F070405449086008460068C8
:1007B00040F0004008608021504805F074F90025A1
:1007C00018E000204E49091F0860022004F001FFD4
:1007D00001204C49C1F898016006040E8021474869
:1007E00005F047F908B1601CC4B2012004F0F1FE25
:1007F000681CC5B2082DE4DB204670BD70B5064606
:100800000C461546FFF791FE3046FFF790FFFFF7C5
:10081000EDFE2046FFF78BFFFFF7E8FE2846FFF7C7
:1008200086FFFFF7E3FEFFF7BBFE0A2004F0D1FED0
:1008300070BD70B504460D46FFF777FE2046FFF702
:1008400076FFFFF7D3FE2846FFF771FFFFF7CEFED6
:10085000FFF76BFE611CC8B2FFF769FFFFF7C6FE2A
:10086000FFF79CFF0646FFF79BFE304670BD2DE963
:10087000F04106460F4614461D46FFF756FE304629
:10088000FFF755FFFFF7B2FE3846FFF750FFFFF7BF
:10089000ADFEFFF74AFE711CC8B2FFF748FFFFF735
:1008A000A5FE0FE0012C05D0FFF778FF2870FFF7B9
:1008B000F2FE04E0FFF772FF2870FFF712FF6D1CD5
:1008C000601EC4B2002CEDDCFFF76AFE0020BDE81C
:1008D000F08170B505460C46FFF727FE2846FFF766
:1008E00026FFFFF783FE2046FFF721FFFFF77EFE7E
:1008F000FFF756FE0A2004F090FE70BD000C014088
:100900009C812142008021422DE9F04105460E469E
:1009100017469846FFF709FE002141EA4501C8B293
:10092000FFF705FFFFF762FE20B1FFF739FE012058
:10093000BDE8F0813046FFF7FAFEFFF757FE0024CE
:100940000CE018F80400FFF7F2FEFFF74FFE18B1B5
:10095000FFF726FE0120EBE7601CC4B2BC42F0DBCF
:10096000FFF71EFE0020E3E72DE9F04106460F46A3
:1009700014461D46FFF7D9FD002141EA4601C8B2E1
:10098000FFF7D5FEFFF732FE20B1FFF709FE012089
:10099000BDE8F0813846FFF7CAFEFFF727FEFFF7F4
:1009A000C4FD012101EB4601C8B2FFF7C0FEFFF70D
:1009B0001DFE0FE0012C05D1FFF7F0FE2870FFF7B8
:1009C00090FE04E0FFF7EAFE2870FFF764FE601E69
:1009D000C4B26D1C002CEDD1FFF7E2FD0020D7E77B
:1009E0007FB505460C460121084605F078FAADF8BA
:1009F0000850ADF804400020ADF80A00ADF806003C
:100A000001A94FF0804005F099FD1C208DF80000F1
:100A100001208DF803008DF8010002208DF80200FE
:100A2000684604F0CAFE01221146900706F0FDF860
:100A30007FBD7FB505460C460121042005F04FFA25
:100A4000ADF80850ADF804400020ADF80A00ADF84C
:100A5000060001A96A4805F071FD1E208DF800000E
:100A600001208DF803008DF801008DF80200684622
:100A700004F0A3FE01221146614806F0D6F87FBDBE
:100A800010B500240121880706F07DFB012849D11B
:100A90005C480068401C5B490860084600680A28FA
:100AA00020DD00200860072003F080FE0446214678
:100AB000272003F067FE04F0400098B1202252493D
:100AC000612003F0FEFDFF21E22003F05BFE4E48B3
:100AD00003F01EFF4D48006808B9012000E0002027
:100AE0004A4908604A480068401C4949086008466D
:100AF0000068322803DA00204649086012E04448C2
:100B00000068322809DB42480068FA2805DA4148C3
:100B10000068401D3F49086004E000203C4908602F
:100B20003C4908600121880706F03EFB10BD10B566
:100B30000121334806F027FB01285BD136480068C5
:100B4000401C3549086003F07DFB03F0CEFB03F049
:100B500032FC04F021F801F087F901F069FE2F4B17
:100B60009A681968586803F04CF82D48007890B1DD
:100B700029480068052190FBF1F201FB120050B9F1
:100B80002248001F006808B9012000E000201F492A
:100B9000091F08602EE020480068072190FBF1F251
:100BA00001FB120020B900F028F900F09EF821E0C6
:100BB000194800680D2190FBF1F201FB120020B9E9
:100BC00000F0A0F900F026FA14E01548007888B982
:100BD00011480068642190FBF1F201FB120048B952
:100BE0000A48001F006808B9012000E000200749FA
:100BF000091F08600121024806F0D6FA10BD000066
:100C000000080040C4000020E0000020B481214220
:100C100024000020280000202000002014020020D2
:100C2000B80000203FB589B000250024202101A88C
:100C300006F0B1FFAA208DF804008DF80500F12020
:100C40008DF806001A208DF807009DF825008DF814
:100C500008009DF824008DF809009DF829008DF802
:100C60000A009DF828008DF80B009DF82D008DF8E6
:100C70000C009DF82C008DF80D009DF831008DF8CA
:100C80000E009DF830008DF80F009DF841008DF8A2
:100C900010009DF840008DF811009DF845008DF87A
:100CA00012009DF844008DF8130000BF05E001A874
:100CB000005D2844C5B2601CC4B21F2CF7DB8DF860
:100CC000235000240DE001A8015DFE4805F09AFACA
:100CD00000BF4021FB4805F003FB0128F9D1601C4F
:100CE000C4B21F2CEFDB0DB030BD30B589B000258C
:100CF0000024202101A806F04EFFAA208DF8040050
:100D00008DF8050002208DF8060012208DF80700EE
:100D1000ED48C0798DF80800EB4880798DF809001E
:100D2000E948407A8DF80A00E748007A8DF80B0010
:100D3000E548C07A8DF80C00E348807A8DF80D0004
:100D4000E14890F83F008DF80E00DF4890F83E0033
:100D50008DF80F00DC4890F841008DF81000DA485B
:100D600090F840008DF81100D74890F843008DF8B6
:100D70001200D54890F842008DF81300D24890F840
:100D800071008DF81400D04890F870008DF81500AF
:100D9000CD4890F873008DF81600CB4890F872009B
:100DA0008DF81700C84890F875008DF81800C648EF
:100DB00090F874008DF8190000BF05E001A8005DEF
:100DC000284405B2601C04B2162CF7DBE8B28DF89B
:100DD0001A0000240DE001A8015DBA4805F012FADE
:100DE00000BF4021B74805F07BFA0128F9D1601C0B
:100DF00004B2172CEFDB09B030BD70B58AB0002506
:100E000000BF202101A806F0C6FEAA208DF804002C
:100E10008DF8050001208DF806000C208DF80700E4
:100E2000AA494868AA4908F025FA064608F086F952
:100E300000B209909DF825008DF808009DF8240067
:100E40008DF80900A1490868A14908F013FA06467F
:100E500008F074F900B209909DF825008DF80A0099
:100E60009DF824008DF80B0098498868984908F08F
:100E700001FA064608F062F900B209909DF82500D3
:100E80008DF80C009DF824008DF80D009148008825
:100E90004FF4FA61484300B209909DF825008DF89F
:100EA00010009DF824008DF81100012009909DF894
:100EB00024008DF812008848007809909DF82400DD
:100EC0008DF81300002405E001A8005D2844C5B298
:100ED000601CC4B2102CF7DB8DF8145000240DE018
:100EE00001A8015D774805F08DF900BF40217548E4
:100EF00005F0F6F90128F9D1601CC4B2112CEFDB22
:100F00000AB070BD30B589B00025002400200890DB
:100F10002021684606F03FFEAA208DF800008DF8DB
:100F2000010003208DF8020014208DF803006B48A7
:100F300040798DF80400694800798DF8050067480C
:100F4000C0798DF80600654880798DF80700634800
:100F500040788DF80800614800788DF809005F48F6
:100F6000C0788DF80A005D4880788DF80B004FF44A
:100F70007A7008909DF821008DF80C009DF82000F3
:100F80008DF80D009DF821008DF80E009DF82000D1
:100F90008DF80F009DF821008DF810009DF82000BD
:100FA0008DF811009DF821008DF812009DF82000A9
:100FB0008DF813009DF821008DF814009DF8200095
:100FC0008DF815009DF821008DF816009DF8200081
:100FD0008DF8170000BF05E01DF804002844C5B2D5
:100FE000601CC4B2182CF7DB8DF8185000240DE0FB
:100FF0001DF80410334805F005F900BF40213148C1
:1010000005F06EF90128F9D1601CC4B2192CEFDB90
:1010100009B030BD30B589B000250024002008900B
:101020002021684606F0B7FDAA208DF800008DF853
:10103000010006208DF8020010208DF803002848DA
:1010400040788DF80400264800788DF80500244883
:10105000C0788DF80600224880788DF80700204877
:1010600040798DF808001E4800798DF809001C4869
:10107000C0798DF80A001A4880798DF80B009DF828
:1010800021008DF80C009DF820008DF80D009DF8D2
:1010900021008DF80E009DF820008DF80F009DF8BE
:1010A00021008DF810009DF820008DF811009DF8AA
:1010B00021008DF812009DF820008DF8130000BF6C
:1010C00016E0000000380140280100201402002032
:1010D0000000C8421C000020B8000020DC080020EE
:1010E000900000201DF804002844C5B2601CC4B262
:1010F000142CF7DB8DF8145000240DE01DF80410BB
:10110000F84805F07FF800BF4021F64805F0E8F800
:101110000128F9D1601CC4B2152CEFDB09B030BD39
:1011200070B58AB000250024202101A806F033FD07
:10113000AA208DF804008DF8050011208DF8060016
:1011400012208DF80700E849D1F88000E74908F03F
:1011500091F8064607F0F2FF00B209909DF82500CD
:101160008DF808009DF824008DF80900DE49D1F8BB
:101170008400DE4908F07EF8064607F0DFFF00B283
:1011800009909DF825008DF80A009DF824008DF83F
:101190000B00D549D1F88800D44908F06BF8064611
:1011A00007F0CCFF00B209909DF825008DF80C00E7
:1011B0009DF824008DF80D00CB488168CB4808F0DD
:1011C00059F8064607F0BAFF00B209909DF82500CD
:1011D0008DF80E009DF824008DF80F00C248C168FC
:1011E000C24808F047F8064607F0A8FF00B2099089
:1011F0009DF825008DF810009DF824008DF8110051
:10120000B9480169B94808F035F8064607F096FF75
:1012100000B209909DF825008DF812009DF8240079
:101220008DF81300B048D0F8F810B04808F022F854
:10123000064607F083FF00B209909DF825008DF85F
:1012400014009DF824008DF81500A748D0F8FC1074
:10125000A64808F00FF8064607F070FF00B20990A4
:101260009DF825008DF816009DF824008DF81700D4
:101270009D48D0F800119D4807F0FCFF064607F096
:101280005DFF00B209909DF825008DF818009DF8CB
:1012900024008DF8190000BF05E001A8005D284476
:1012A000C5B2601CC4B2162CF7DB8DF81A500024AE
:1012B0000DE001A8015D8B4804F0A4FF00BF4021B0
:1012C000884805F00DF80128F9D1601CC4B2172C2C
:1012D000EFDB0AB070BD70B58AB000250024202174
:1012E00001A806F058FCAA208DF804008DF805002E
:1012F00010208DF8060012208DF807007A48D0F8EB
:10130000A8107A4807F0B6FF064607F017FF00B2AC
:1013100009909DF825008DF808009DF824008DF8AF
:1013200009007148D0F8AC10704807F0A3FF0646DA
:1013300007F004FF00B209909DF825008DF80A001F
:101340009DF824008DF80B006748D0F8B01067486E
:1013500007F090FF064607F0F1FE00B209909DF8F5
:1013600025008DF80C009DF824008DF80D005E48D6
:10137000016B5E4807F07EFF064607F0DFFE00B215
:1013800009909DF825008DF80E009DF824008DF839
:101390000F005548D0F8AC10544807F06BFF0646D4
:1013A00007F0CCFE00B209909DF825008DF81000E2
:1013B0009DF824008DF811004B48816B4B4807F0D5
:1013C00059FF064607F0BAFE00B209909DF82500C5
:1013D0008DF812009DF824008DF813004248D0F8D3
:1013E0002011424807F046FF064607F0A7FE00B26C
:1013F00009909DF825008DF814009DF824008DF8C3
:101400001500002009909DF825008DF816009DF824
:1014100024008DF817003448D0F82811334807F01D
:1014200029FF064607F08AFE00B209909DF82500C4
:101430008DF818009DF824008DF8190000BF05E014
:1014400001A8005D2844C5B2601CC4B2162CF7DBAD
:101450008DF81A5000240DE001A8015D214804F028
:10146000D1FE00BF40211F4804F03AFF0128F9D106
:10147000601CC4B2172CEFDB0AB070BD30B589B068
:1014800000250024202101A806F085FBAA208DF864
:1014900004008DF805000C208DF8060012208DF850
:1014A000070000BF05E001A8005D2844C5B2601C2C
:1014B000C4B21F2CF7DB8DF8235000240DE001A8E7
:1014C000015D084804F09EFE00BF4021054804F07D
:1014D00007FF0128F9D1601CC4B21F2CEFDB09B053
:1014E00030BD000000380140E806002000007A44CA
:1014F00030B589B000250024202101A806F04BFB5F
:10150000AA208DF804008DF805000D208DF8060046
:1015100012208DF8070000BF05E001A8005D2844F7
:10152000C5B2601CC4B21F2CF7DB8DF82350002419
:101530000DE001A8015DFE4804F064FE00BF4021FB
:10154000FB4804F0CDFE0128F9D1601CC4B21F2C69
:10155000EFDB09B030BD30B589B000250024202173
:1015600001A806F018FBAA208DF804008DF80500EC
:101570000E208DF8060012208DF8070000BF05E050
:1015800001A8005D2844C5B2601CC4B21F2CF7DB63
:101590008DF8235000240DE001A8015DE44804F01B
:1015A00031FE00BF4021E24804F09AFE0128F9D143
:1015B000601CC4B21F2CEFDB09B030BD30B589B060
:1015C00000250024202101A806F0E5FAAA208DF8C4
:1015D00004008DF805000F208DF8060012208DF80C
:1015E000070000BF05E001A8005D2844C5B2601CEB
:1015F000C4B21F2CF7DB8DF8235000240DE001A8A6
:10160000015DCB4804F0FEFD00BF4021C84804F056
:1016100067FE0128F9D1601CC4B21F2CEFDB09B0B2
:1016200030BDF0B589B005460E46002700242021C4
:1016300001A806F0B0FAAA208DF804008DF8050084
:10164000EF208DF8060002208DF807008DF8085075
:101650008DF8096000BF05E001A8005D3844C7B2FD
:10166000601CC4B2062CF7DB8DF80A7000240DE074
:1016700001A8015DAE4804F0C5FD00BF4021AC48A3
:1016800004F02EFE0128F9D1601CC4B2072CEFDB58
:1016900009B0F0BD2DE9F05F04460D460026B146C5
:1016A00007E014F809003044C6B209F1010000F067
:1016B000FF09681E4845F4DC601910F8010CB042BF
:1016C00001D0BDE8F09F2078AA2802D16078AF2829
:1016D00000D0F6E7A07801282BD12079012805D188
:1016E000944981F8360003F012FB22E020790228A9
:1016F00004D101218F4880F86E101AE02079032868
:1017000008D101208B4981F836000121894880F8F1
:101710006E100EE02079042804D10121854880F85C
:10172000A61006E02079212802DB2079262800DD9A
:1017300000BFA07802280FD1207901280BD1FFF734
:10174000CAFDA0783146FFF76CFFFFF7E9FCA078EF
:101750003146FFF766FF00BFA07810287DD1A07842
:101760003146FFF75EFF2179090209B2627941EA49
:10177000020007F061F882466F4A704B07F074F878
:10178000074606F01FFE01466D48C0F8A810A17973
:10179000090209B2E27941EA020007F04DF88246F7
:1017A000654A664B07F060F8074606F00BFE0146F7
:1017B0006348C0F8AC10217A090209B2627A41EAA2
:1017C000020007F039F882465B4A5C4B07F04CF8A0
:1017D000074606F0F7FD01465948C0F8B010A17A57
:1017E000090209B2E27A41EA020007F025F88246CE
:1017F000514A524B07F038F8074606F0E3FD014620
:101800004F480163217B090209B2627B41EA020071
:1018100007F012F88246484A484B07F025F8074679
:1018200006F0D0FD014646484163A17B090209B29A
:10183000E27B41EA020006F0FFFF82463E4A3F4B50
:1018400007F012F8074606F0BDFD01463C488163EB
:10185000217C090209B2627C00E039E041EA020021
:1018600006F0EAFF8246344A344B06F0FDFF074695
:1018700006F0A8FD01463248C0F82011A17C0902FB
:1018800009B2E27C41EA020006F0D6FF07462A4A86
:101890002A4B06F0E9FF824606F094FD01462848EF
:1018A000C0F82411217D090209B2627D41EA0200DB
:1018B00006F0C2FF0746204A204B06F0D5FF8246BD
:1018C00006F080FD01461E48C0F8281103F0F4FB25
:1018D000A07811287ED1A0783146FFF7A2FE2179A9
:1018E000090209B2627941EA020006F0A5FF074643
:1018F000114A124B06F0B8FF824606F063FD10490C
:10190000C1F88000A179090209B2E27941EA020036
:1019100006F092FF8246084A084B06F0A5FF0746EC
:1019200006F050FD0649C1F88400217A090209E059
:101930000038014028010020FCA9F1D24D62503F3F
:10194000E806002009B2627A41EA020006F074FF5C
:101950008246A04AA04B06F087FF074606F032FDFC
:101960009E49C1F88800A17A090209B2E27A41EAE7
:10197000020006F061FF0746964A974B06F074FF97
:10198000824606F01FFD95498860217B090209B255
:10199000627B41EA020006F04FFF07468D4A8E4BFC
:1019A00006F062FF824606F00DFD8C49C860A17BFF
:1019B000090209B2E27B41EA020006F03DFF074658
:1019C000844A854B06F050FF824606F0FBFC8349B3
:1019D000086100E03AE0217C090209B2627C41EA38
:1019E000020006F029FF07467A4A7B4B06F03CFFCF
:1019F000824606F0E7FC7949C1F8F800A17C0902AB
:101A000009B2E27C41EA020006F016FF0746714A7D
:101A1000714B06F029FF824606F0D4FC6F49C1F8ED
:101A2000FC00217D090209B2627D41EA020006F054
:101A300003FF0746674A684B06F016FF824606F02A
:101A4000C1FC6649C1F8000103F09EFAA078122893
:101A50003CD1A0783146FFF7E4FD2179090209B2B3
:101A6000627941EA020006F0E7FE0746594A5A4BFE
:101A700006F0FAFE824606F0A5FC5849C1F870014E
:101A8000A179090209B2E27941EA020006F0D4FE26
:101A90000746504A504B06F0E7FE824606F092FC9D
:101AA0004E49C1F87401217A090209B2627A41EA09
:101AB000020006F0C1FE0746464A474B06F0D4FE38
:101AC000824606F07FFC4549C1F87801A0781328CA
:101AD00003D1A0783146FFF7A4FDA078142803D1E4
:101AE000A0783146FFF79DFDA078152803D1A07896
:101AF0003146FFF796FD00BFE3E510B504463848D0
:101B0000007838B9AA2C05D101203549087035482C
:101B100004705DE032480078012807D1AF2C05D170
:101B200002202F4908702F48447051E02C4800785B
:101B3000022807D1F12C05DA032029490870294829
:101B4000847045E02648007803280CD1322C0ADA4C
:101B50000420234908702348C470234804700020DF
:101B60002249087034E01E480078042819D11E4824
:101B70000078002815DD1C480078401E1A490870BE
:101B80001A48007819490978491C184A1170001D33
:101B900014490C5414480078D0B905201049087035
:101BA00016E00F48007805280FD100200C49087076
:101BB0000E480078001D0B490C540C480078401D5D
:101BC000C1B20848FFF766FD02E000200449087032
:101BD00010BD0000FCA9F1D24D62503FE806002084
:101BE00030000020E00100202E0000202F00002007
:101BF0002DE9F047002500260027FE49B1F9001025
:101C0000FC4AB2F906201144484200EBD071491059
:101C100009B2F94A1180F749B1F90220B1F9081067
:101C20001144484200EBD071491009B2F24A518088
:101C3000F049B1F90420B1F90A101144484200EB0F
:101C4000D071491009B2EC4A9180EA49B1F90C10FF
:101C5000E84AB2F912201144484200EBD071491011
:101C600009B2E54A1187E349B1F90E20B1F9141020
:101C70001144484200EBD07149100AB2DE494A874C
:101C8000DC49B1F91020B1F916101144484200EBBB
:101C9000D07149100AB2D8498A870846B0F90000C5
:101CA000B1F91210401AD44948620846B0F902103E
:101CB000B0F91400091AD0488162B0F90410C16269
:101CC000B0F93810B0F94A00091ACB48C165B0F92B
:101CD0003A10B0F94C00091AC7480166B0F93C1037
:101CE000B0F94E00091AC44841660146C86D07F0B4
:101CF00061FA8146C049B1F93E0007F05BFA8246BD
:101D0000BE4A494601F070FE804607F017FA01B25C
:101D1000B948C1870146086E07F04CFA8146B649BA
:101D2000B1F9400007F046FA8246B44A494601F04C
:101D30005BFE804607F002FA01B2AF48A0F84010FF
:101D40000146486E07F036FA8146AB49B1F94200C8
:101D500007F030FA8246AA4A494601F045FE80461D
:101D600007F0ECF901B2A448A0F842100146B1F91D
:101D70003E0007F01FFA8046A24907F07BFA9E4911
:101D80000865B1F9400007F015FA80469D4907F053
:101D900071FA0146984841650146B1F9420007F0E1
:101DA00009FA8046974907F065FA0146924881652D
:101DB000808C01B29448954A127820F812108E480F
:101DC000008D00B29249914A127821F812008A4897
:101DD000808D00B28F498D4A127821F812000024BC
:101DE0000DE0894830F914000544894830F91400A1
:101DF0000644884830F914000744601CC4B2642CBF
:101E0000EFDB82480078401C80490870642095FB15
:101E1000F0F000B27849C880642096FBF0F001B27F
:101E200075480181642097FBF0F001B2724841814E
:101E300076480078642802D10020744908706E4901
:101E4000B1F9060007F0B6F96B498861B1F90800ED
:101E500007F0B0F96849C861B1F90A0007F0AAF9BA
:101E600065490862BDE8F0872DE9F04700250026A6
:101E700000276148B0F900005F49B1F91210401A1B
:101E80005D4948620846B0F90210B0F91400091A19
:101E900059488162B0F90410C162B0F93810B0F944
:101EA0004A00091A5448C165B0F93A10B0F94C001B
:101EB000091A51480166B0F93C10B0F94E00091AF0
:101EC0004D4841660146C86D07F074F981464A499C
:101ED000B1F93E0007F06EF98246484A494601F0E2
:101EE00083FD804607F02AF901B24348C1870146C5
:101EF000086E07F05FF981463F49B1F9400007F0ED
:101F000059F982463D4A494601F06EFD804607F088
:101F100015F901B23848A0F840100146486E07F0A4
:101F200049F981463449B1F9420007F043F9824644
:101F3000334A494601F058FD804607F0FFF801B2E8
:101F40002D48A0F842100146B1F93E0007F032F9E1
:101F500080462C4907F08EF927490865B1F9400001
:101F600007F028F98046274907F084F901462248FE
:101F700041650146B1F9420007F01CF9804621494C
:101F800007F078F901461C488165808C00B222492F
:101F9000224A127821F812001748008D00B2204919
:101FA0001E4A127821F812001348808D00B21D4994
:101FB0001A4A127821F8120000240DE0164830F970
:101FC00014000544164830F914000644154830F949
:101FD00014000744601CC4B2642CEFDB0F48007887
:101FE000401C0E490870642095FBF0F000B20249D5
:101FF000C88019E02002002028010020CDCCCC3D73
:10200000CDCC4C3DE4A40B3A380200208C000020DB
:1020100000030020C8030020900400208D00002051
:102020005805002020060020642096FBF0F001B245
:10203000FE480181642097FBF0F001B2FB4841812A
:10204000FB480078642802D10020F9490870F7495C
:10205000B1F9060007F0AEF8F4498861B1F908005B
:1020600007F0A8F8F149C861B1F90A0007F0A2F831
:10207000EE490862BDE8F0870FB5A3B0ED480168EE
:10208000006807F0F7F82190EB480168E94800681C
:1020900007F0F0F82090E9480168E648006807F08A
:1020A000E9F81F90E4480168006807F0E3F81E9023
:1020B000E3480168E048006807F0DCF81D90DF485D
:1020C0000168006807F0D6F81C90DD480168DB481D
:1020D000006807F0CFF81B90D9480168006807F046
:1020E000C9F81A90D7480168006807F0C3F8139040
:1020F000D5480168006807F0BDF81290D348016820
:10210000006807F0B7F81190D1480168006807F03F
:10211000B1F81090CD480168CB48006807F0AAF8E4
:102120000F90CB480168C748006807F0A3F80E90ED
:10213000C7482599006807F09DF80B90C34824997B
:10214000006807F097F80990BF48006880F00040E9
:102150000790239907F08EF80890099907F092F9F3
:102160000A900B9907F08EF9BA490C9007F082F8A3
:102170000D90B44801680D9806F07CFEB1490860E6
:10218000B3482499006807F075F80B90AF4825997B
:10219000006807F06FF80990AA480168239807F0D3
:1021A00069F80890099906F065FE0A900B9907F006
:1021B00069F9A8490C9007F05DF80D90A2480168F4
:1021C0000D9806F057FEA0490860A14801682398C1
:1021D00007F050F80B909C482599006807F04AF8E2
:1021E000099098482499006807F044F808900999E4
:1021F00007F048F90A900B9906F03CFE95490C90BF
:1022000007F038F80D90914801680D9806F032FEFD
:102210008E49086008460168239807F02BF80B9058
:1022200089482499006807F025F809908548259980
:10223000006807F01FF80890099906F01BFE0A9045
:102240000B9907F01FF983490C9007F013F80D90D4
:102250007F4801680D9806F00DFE7D490860DDE9B4
:10226000121006F007FE0790119906F003FE089081
:10227000109906F0FFFD099006F0D0FDCDE90A01A6
:1022800006F07AF8CDE90C0106F09CF822906D4832
:102290002299006806F05CFE6A4908606A48229943
:1022A000006806F055FE6849086068482299006891
:1022B00006F04EFE6549086065482299006806F000
:1022C00047FE634908602899269806F0D3FF0C90D2
:1022D000299906F0CFFF00210D9006F0FBFE01D1F9
:1022E00027B000BD2999084606F0C4FF0890289938
:1022F000084606F0BFFF06902699084606F0BAFF8A
:102300000590069906F0B6FD0790089906F0B2FD13
:10231000099006F083FDCDE90A0106F02DF8CDE91C
:102320000C0106F04FF822902299269806F010FE34
:1023300026902299289806F00BFE28902299299839
:1023400006F006FE29901F991D9807F09BF84FF0A4
:1023500080410D9006F08EFF19901B99209806F091
:1023600089FD4FF080410D9006F084FF18901E9972
:10237000219807F087F80C901C9907F083F80D90CE
:102380001A9906F077FD17901899299806F072FFB0
:102390000D901799289806F06DFF0C900D9907F095
:1023A00071F816901799269806F064FF0D90199908
:1023B000299806F05FFF0C900D9907F063F81590CF
:1023C0001999289806F056FF0D901899269806F04E
:1023D00051FF0C900D9907F055F814901E480168B4
:1023E000169806F047FF0D901C4801680D9806F0FE
:1023F00041FD1A49086018480168159806F03AFF2F
:102400000D90174801680D9806F034FD14490860D6
:1024100011480168149806F02DFF0D9011480168CD
:102420000D9806F027FD0F4908601DE028010020E7
:102430008D000020580000205C000020600000207B
:102440006400002074000020780000207C00002040
:10245000800000206F12833A5400002068000020A2
:102460006C00002070000020F9481699006806F002
:1024700001FF0C90239906F0FDFC0D90F5480168D2
:102480000D9806F0F7FC2390F1481599006806F0C6
:10249000F1FE0C90249906F0EDFC0D90EE480168D9
:1024A0000D9806F0E7FC2490E9481499006806F0BE
:1024B000E1FE0C90259906F0DDFC0D90E7480168DF
:1024C0000D9806F0D7FC2590E5482599006806F0A0
:1024D000D1FE0B90E3482499006806F0CBFE0990EA
:1024E000E148006880F000400790239906F0C2FEA2
:1024F0000890099906F0C6FF0A900B9906F0C2FFF2
:10250000DA490C9006F0B6FE0D90D94801680D9896
:1025100006F0B0FCD6490860D1482499006806F05E
:10252000A9FE0B90CF482599006806F0A3FE0990FC
:10253000CF480168239806F09DFE0890099906F09F
:1025400099FC0A900B9906F09DFFC8490C9006F083
:1025500091FE0D90C44801680D9806F08BFCC249AD
:102560000860BF480168239806F084FE0B90BE48BF
:102570002599006806F07EFE0990BD482499006800
:1025800006F078FE0890099906F07CFF0A900B99F6
:1025900006F070FCB5490C9006F06CFE0D90B14849
:1025A00001680D9806F066FCAE49086008460168AF
:1025B000239806F05FFE0B90AB482499006806F064
:1025C00059FE0990AA482599006806F053FE089024
:1025D000099906F04FFC0A900B9906F053FFA349A6
:1025E0000C9006F047FE0D909D4801680D9806F08E
:1025F00041FC9B4908601E99219806F03BFC07901E
:102600001C9906F037FC08901A9906F033FC0990E3
:1026100006F004FCCDE90A0105F0AEFECDE90C019F
:1026200005F0D0FE229092482299006806F090FCB6
:102630008F4908608C482299006806F089FC8A4915
:10264000086088482299006806F082FC8549086085
:1026500083482299006806F07BFC8149086008469F
:1026600001684FF0804006F005FE01907C4801684B
:10267000019806F0FFFD03907A4801684FF0404052
:1026800006F0F8FD019077480168019806F0F2FD28
:102690000290039906F0F6FE4FF07E51049006F08A
:1026A000E9FB059006F0BAFBCDE908017048016826
:1026B0004FF0804006F0DEFD029069480168029804
:1026C00006F0D8FD0490684801684FF0804006F09D
:1026D000D1FD029063480168029806F0CBFD03909B
:1026E000049906F0C7FB059006F098FBCDE90601BA
:1026F000DDE9082305F080FD81F000414FF0C04284
:102700005C4BCDE90A0106F0AFF8CDE90C0105F00C
:1027100059FE59498860534801684FF0804006F0DF
:10272000A9FD01904F480168019806F0A3FD0390B0
:102730004D4801684FF0404006F09CFD01904A482A
:102740000168019806F096FD0290039906F09AFE42
:102750004FF07E51049006F08DFB059006F05EFB75
:10276000CDE90801424801684FF0804006F082FD43
:1027700002903D480168029806F07CFD04903948BB
:1027800001684FF0804006F075FD02903448016802
:10279000029806F06FFD0390049906F06BFB05901C
:1027A00006F03CFBCDE90601DDE9082305F024FD38
:1027B0004FF0C0422F4BCDE90A0106F055F8CDE9A4
:1027C0000C0105F0FFFD2C494860294801684FF0D5
:1027D000804006F04FFD049022480168049806F0FE
:1027E00049FD0690204801684FF0404006F042FD48
:1027F00004901B480168049806F03CFD059006997A
:1028000006F038FB079006F009FBCDE9080105F05A
:10281000ABFA4FF0C042174BCDE90A0106F024F89D
:10282000CDE90C0105F0CEFD1349086000BF57E566
:102830001CB51248006A1149C969104CCDE9001055
:10284000A369A26D616D206DFFF716FC1CBD000031
:1028500050000020680000206C0000207000002064
:1028600064000020600000205C0000206F12833AAA
:102870005800002094A94C40140200202801002098
:102880000FB5C3B0FE480168006806F0F3FC0F9076
:1028900006F0C4FACDE92201FA480168F848006858
:1028A00006F0E8FC0F9006F0B9FACDE92001F648F1
:1028B0000168F348006806F0DDFC0F9006F0AEFA00
:1028C000CDE91E01F1480168ED48006806F0D2FC30
:1028D0000F9006F0A3FACDE91C01EA4801680068F0
:1028E00006F0C8FC0F9006F099FACDE91A01E64807
:1028F0000168E448006806F0BDFC0F9006F08EFA0F
:10290000CDE91801E1480168DE48006806F0B2FC34
:102910000F9006F083FACDE91601DB4801680068E4
:1029200006F0A8FC0F9006F079FACDE91401D7481B
:102930000168D548006806F09DFC0F9006F06EFA1D
:10294000CDE91201D1480168006806F093FC0F90B0
:1029500006F064FACDE910014899469806F08AFC21
:102960000E90499906F086FC00210F9006F0B2FB0C
:1029700001D147B000BD4999084606F07BFC0D9097
:102980004899084606F076FC0B904699084606F0F2
:1029900071FC0A900B9906F06DFA0C900D9906F0F7
:1029A00069FA0E9001F03CF80F9006F037FA419169
:1029B0004090469806F032FACDE90C01419B409ACE
:1029C00005F052FFCDE90E0105F0FCFC4690489859
:1029D00006F024FACDE90C01419B409A05F044FF32
:1029E000CDE90E0105F0EEFC4890499806F016FA84
:1029F000CDE90C01419B409A05F036FFCDE90E016F
:102A000005F0E0FC49904C99084606F033FC0D9027
:102A10004B99084606F02EFC0B904A99084606F0A2
:102A200029FC0A900B9906F025FA0C900D9906F0F6
:102A300021FA0E9000F0F4FF0F9006F0EFF94191AB
:102A400040904A9806F0EAF9CDE90C01419B409A82
:102A500005F00AFFCDE90E0105F0B4FC4A904B9851
:102A600006F0DCF9CDE90C01419B409A05F0FCFE33
:102A7000CDE90E0105F0A6FC4B904C9806F0CEF97E
:102A8000CDE90C01419B409A05F0EEFECDE90E0127
:102A900005F098FC4C90DDE91E23DDE9160105F0F8
:102AA000C3FCCDE90A014FF080404C9906F0E2FBEF
:102AB000079006F0B3F9CDE90801DDE90A2305F036
:102AC000D3FECDE90E01DDE91C23DDE9180106F096
:102AD000BBF8CDE906014FF080404B9906F0CAFBE8
:102AE000039006F09BF9CDE90401DDE9062305F02A
:102AF000BBFECDE90A0100206549DDE9142306F09B
:102B0000A3F8CDE90201DDE9102306F09DF8CDE937
:102B100006014FF080404A9906F0ACFB039006F0A6
:102B20007DF9CDE90401DDE9062305F09DFECDE93F
:102B30000801DDE90A2305F077FCCDE90C01DDE9A8
:102B40000E2305F071FCCDE93E01DDE92023DDE92E
:102B5000120106F079F8CDE90A014FF080404C9956
:102B600006F088FB079006F059F9CDE90801DDE988
:102B70000A2305F079FECDE90E0100204449DDE984
:102B80001A2306F061F8CDE90201DDE9102306F011
:102B90005BF8CDE906014FF080404B9906F06AFBE7
:102BA000039006F03BF9CDE90401DDE9062305F0C9
:102BB0005BFECDE90A01DDE91C23DDE9180105F022
:102BC00033FCCDE906014FF080404A9906F052FBF4
:102BD000039006F023F9CDE90401DDE9062305F0B1
:102BE00043FECDE90801DDE90A2305F01DFCCDE92E
:102BF0000C01DDE90E2305F017FCCDE93C010020B6
:102C00002349DDE91A2306F01FF8CDE90601DDE9C5
:102C1000142306F019F8CDE90A014FF080404C99D1
:102C200006F028FB079006F0F9F8CDE90801DDE988
:102C30000A2305F019FECDE90E01DDE92023DDE9C7
:102C4000120105F0F1FBCDE906014FF080404B99F0
:102C500006F010FB039006F0E1F8CDE90401DDE990
:102C6000062305F001FECDE90A01DDE91E23DDE9B9
:102C7000160105F0E9FFCDE906014FF0804009E0BB
:102C8000580000205C00002060000020640000204C
:102C90000000E03F4A9906F0EDFA039006F0BEF816
:102CA000CDE90401DDE9062305F0DEFDCDE90801EB
:102CB000DDE90A2305F0B8FBCDE90C01DDE90E23BF
:102CC00005F0B2FBCDE93A01DDE93C231046194697
:102CD00005F0CAFDCDE90C01DDE93E231046194699
:102CE00005F0C2FDCDE90A01DDE90C2305F09CFBEE
:102CF000CDE90E0105F040FBCDE93801DDE93A01EF
:102D0000CDE93601DDE91E23DDE9160105F09CFF62
:102D100000224FF08043CDE90E0105F0A5FDCDE97D
:102D20003401DDE91223DDE9200105F07DFB0022FD
:102D30004FF08043CDE90E0105F096FDCDE932015B
:102D4000DDE91A23DDE9220105F07EFFCDE90C0162
:102D5000DDE9142305F078FFCDE90E01DDE910234C
:102D600005F062FBCDE93001DDE91E23DDE9160146
:102D700005F06AFFCDE90A0100204FF08041DDE94E
:102D8000362305F071FDCDE90801DDE90A2305F0E0
:102D90006BFDCDE90E010020FE49DDE9142305F0AD
:102DA00053FFCDE90601DDE9102305F04DFFCDE924
:102DB0000A0100204FF08041DDE9382305F054FD81
:102DC000CDE90801DDE90A2305F04EFDCDE90C014E
:102DD000DDE90E2305F028FBCDE92E01DDE9122304
:102DE000DDE9200105F020FBCDE90A0100204FF0CC
:102DF0008041DDE9362305F037FDCDE90801DDE945
:102E00000A2305F031FDCDE90E01DDE91C23DDE9E2
:102E1000180105F019FFCDE90A0100204FF08041AB
:102E2000DDE9382305F020FDCDE90801DDE90A23BD
:102E300005F01AFDCDE90C01DDE90E2305F0F4FAE9
:102E4000CDE92C010020D349DDE91A2305F0FCFE71
:102E5000CDE90601DDE9142305F0F6FECDE90A010E
:102E600000204FF08041DDE9362305F0FDFCCDE97F
:102E70000801DDE90A2305F0F7FCCDE90E01DDE9E3
:102E80001623DDE91E0105F0CFFACDE90A01002085
:102E90004FF08041DDE9382305F0E6FCCDE908017B
:102EA000DDE90A2305F0E0FCCDE90C01DDE90E23A4
:102EB00005F0BAFACDE92A014C9805F0AFFFCDE94B
:102EC0000601DDE92C2305F0CFFCCDE90A014B9882
:102ED00005F0A4FFCDE90601DDE92A2305F0C4FCD5
:102EE000CDE90801DDE90A2305F0AEFECDE90E01CA
:102EF000499805F093FFCDE90601DDE9322305F09D
:102F0000B3FCCDE90A01489805F088FFCDE9060138
:102F1000DDE9302305F0A8FCCDE90801DDE90A234D
:102F200005F092FECDE90C01DDE90E2305F07CFAF7
:102F3000CDE928014A9805F071FFCDE90601DDE9E8
:102F40002A2305F091FCCDE90A014C9805F066FFB3
:102F5000CDE90601DDE92E2305F086FCCDE9080167
:102F6000DDE90A2305F070FECDE90E01469805F073
:102F700055FFCDE90601DDE9302305F075FCCDE90B
:102F80000A01499805F04AFFCDE90601DDE934233D
:102F900005F06AFCCDE90801DDE90A2305F054FEDD
:102FA000CDE90C01DDE90E2305F03EFACDE926015D
:102FB0004B9805F033FFCDE90601DDE92E2305F03E
:102FC00053FCCDE90A014A9805F028FFCDE9060136
:102FD000DDE92C2305F048FCCDE90801DDE90A23F1
:102FE00005F032FECDE90E01489805F017FFCDE956
:102FF0000601DDE9342305F037FCCDE90A014698E6
:1030000005F00CFFCDE90601DDE9322305F02CFCCB
:10301000CDE90801DDE90A2305F016FECDE90C0132
:10302000DDE90E2305F000FACDE924015A480068D5
:1030300005F0F4FECDE90801DDE9280105F0C2F94B
:10304000029000F048FD039005F0E8FECDE9040190
:10305000DDE9282305F008FCCDE90601DDE90823B8
:1030600005F002FCCDE90C014C48006805F0D6FEE5
:10307000CDE90A01DDE90C2305F0D6F9CDE90E0111
:1030800005F0A0F9454908604348006805F0C6FE10
:10309000CDE90801DDE9260105F094F9029000F080
:1030A0001AFD039005F0BAFECDE90401DDE92623FF
:1030B00005F0DAFBCDE90601DDE9082305F0D4FBD4
:1030C000CDE90C013648006805F0A8FECDE90A01FB
:1030D000DDE90C2305F0A8F9CDE90E0105F072F940
:1030E0002F4908602C48006805F098FECDE90801DA
:1030F000DDE9240105F066F9029000F0ECFC039094
:1031000005F08CFECDE90401DDE9242305F0ACFBDC
:10311000CDE90601DDE9082305F0A6FBCDE90C01A8
:103120002048006805F07AFECDE90A01DDE90C23AC
:1031300005F07AF9CDE90E0105F044F91949086066
:103140001648006805F06AFECDE90C01DDE92801AA
:1031500005F038F9019000F0BEFC029012480168B9
:10316000029806F087F8039005F058FECDE90401B7
:10317000DDE9282305F078FBCDE90801439805F047
:103180004DFECDE90601DDE9082305F04DF9CDE955
:103190000A010BE00000E03F54000020680000201E
:1031A0006C0000207000002050000020DDE90C239E
:1031B00005F03AF9CDE90E0105F004F94390FE4817
:1031C000006805F02BFECDE90C01DDE9260105F0D4
:1031D000F9F8019000F07FFC0290F848016802982D
:1031E00006F048F8039005F019FECDE90401DDE989
:1031F000262305F039FBCDE90801449805F00EFEC1
:10320000CDE90601DDE9082305F00EF9CDE90A0153
:10321000DDE90C2305F008F9CDE90E0105F0D2F83F
:103220004490E748006805F0F9FDCDE90C01DDE9BF
:10323000240105F0C7F8019000F04DFC0290DF4832
:103240000168029806F016F8039005F0E7FDCDE955
:103250000401DDE9242305F007FBCDE908014598C9
:1032600005F0DCFDCDE90601DDE9082305F0DCF819
:10327000CDE90A01DDE90C2305F0D6F8CDE90E0110
:1032800005F0A0F84590CF48006805F0C7FDCDE9EE
:1032900008014FF06040CC49DDE9282305F0E4FA4D
:1032A000CDE90601DDE9082305F0DEFACDE90C01E0
:1032B000C648006805F0B2FDCDE90A01DDE90C233E
:1032C00005F0B2F8CDE90E0105F07CF8BF490860C1
:1032D000BC48006805F0A2FDCDE908014FF0604050
:1032E000B949DDE9262305F0BFFACDE90601DDE99C
:1032F000082305F0B9FACDE90C01AF48006805F0E4
:103300008DFDCDE90A01DDE90C2305F08DF8CDE94D
:103310000E0105F057F8A8490860AA48006805F0B2
:103320007DFDCDE908014FF06040A749DDE9242388
:1033300005F09AFACDE90601DDE9082305F094FAD3
:10334000CDE90C019E48006805F068FDCDE90A0151
:10335000DDE90C2305F068F8CDE90E0105F032F83F
:10336000974908609948006805F058FDCDE90C01BF
:103370009248006805F052FDCDE90401DDE92823FB
:1033800005F072FACDE90801439805F047FDCDE953
:103390000601DDE9082305F047F8CDE90A01DDE97A
:1033A0000C2305F041F8CDE90E0105F00BF8439030
:1033B0008148006805F032FDCDE90C017F480068C6
:1033C00005F02CFDCDE90401DDE9262305F04CFADA
:1033D000CDE90801449805F021FDCDE90601DDE9BC
:1033E000082305F021F8CDE90A01DDE90C2305F0F9
:1033F0001BF8CDE90E0104F0E5FF44907048006829
:1034000005F00CFDCDE90C016C48006805F006FDE7
:10341000CDE90401DDE9242305F026FACDE9080110
:10342000459805F0FBFCCDE90601DDE9082304F031
:10343000FBFFCDE90A01DDE90C2304F0F5FFCDE93E
:103440000E0104F0BFFF459061484599006805F002
:1034500011FF0D905F484499006805F00BFF0B9039
:103460005D48006880F000400990439905F002FF34
:103470000A900B9906F006F80C900D9906F002F8E8
:1034800056490E9005F0F6FE0F90554801680F98CA
:1034900005F0F0FC524908604D484499006805F079
:1034A000E9FE0D904B484599006805F0E3FE0B904E
:1034B0004B480168439805F0DDFE0A900B9905F032
:1034C000D9FC0C900D9905F0DDFF44490E9005F0F4
:1034D000D1FE0F90404801680F9805F0CBFC3E49A3
:1034E00008603B480168439805F0C4FE0D903A48D7
:1034F0004599006805F0BEFE0B9039484499006874
:1035000005F0B8FE0A900B9905F0BCFF0C900D99E0
:1035100005F0B0FC31490E9005F0ACFE0F902D483F
:1035200001680F9805F0A6FC2A4908600846016862
:10353000439805F09FFE0D9027484499006805F0D8
:1035400099FE0B9026484599006805F093FE0A9075
:103550000B9905F08FFC0C900D9905F093FF1F4916
:103560000E9005F087FE0F90194801680F9805F03E
:1035700081FC17490860DDE91A23DDE9220104F026
:1035800053FFCDE90801DDE9142304F04DFFCDE937
:103590000A01DDE9102304F047FFCDE90C0104F036
:1035A00011FF0E9000F03CFA0F9005F037FC4191AE
:1035B00040900B48006815E06C000020500000208F
:1035C00070000020540000204D62503F6800002031
:1035D00064000020600000205C0000206F12833A2D
:1035E0005800002005F01AFCCDE90C01419B409ADF
:1035F00005F03AF9CDE90E0104F0E4FE8D490860CA
:103600008D48006805F00AFCCDE90C01419B409A09
:1036100005F02AF9CDE90E0104F0D4FE86490860D0
:103620008648006805F0FAFBCDE90C01419B409A01
:1036300005F01AF9CDE90E0104F0C4FE7F490860D7
:103640007F48006805F0EAFBCDE90C01419B409AF8
:1036500005F00AF9CDE90E0104F0B4FE78490860DE
:10366000084601684FF0804005F004FE039074485E
:103670000168039805F0FEFD0590704801684FF061
:10368000404005F0F7FD03906C480168039805F091
:10369000F1FD0490059905F0F5FE4FF07E5106907E
:1036A00005F0E8FB079005F0B9FBCDE90A01614898
:1036B00001684FF0804005F0DDFD0490604801682E
:1036C000049805F0D7FD06905B4801684FF08040F4
:1036D00005F0D0FD049059480168049805F0CAFD32
:1036E0000590069905F0C6FB079005F097FBCDE91C
:1036F0000801DDE90A2304F07FFD81F000414FF06D
:10370000C042504BCDE90C0105F0AEF8CDE90E01F9
:1037100004F058FE4C498860484801684FF08040EA
:1037200005F0A8FD039045480168039805F0A2FD47
:103730000590414801684FF0404005F09BFD039023
:103740003D480168039805F095FD0490059905F042
:1037500099FE4FF07E51069005F08CFB079005F026
:103760005DFBCDE90A01334801684FF0804005F068
:1037700081FD049030480168049805F07BFD0690B7
:103780002E4801684FF0804005F074FD04902C48ED
:103790000168049805F06EFD0590069905F06AFB36
:1037A000079005F03BFBCDE90801DDE90A2304F0B1
:1037B00023FD4FF0C042234BCDE90C0105F054F836
:1037C000CDE90E0104F0FEFD1F494860194801686B
:1037D0004FF0804005F04EFD0690184801680698AD
:1037E00005F048FD0890144801684FF0404005F08E
:1037F00041FD069012480168069805F03BFD0790D0
:10380000089905F037FB099005F008FBCDE90A019E
:1038100004F0AAFA4FF0C0420A4BCDE90C0105F0C2
:1038200023F8CDE90E0104F0CDFD0749086000BF83
:10383000FFF79FB8580000205C00002060000020C7
:103840006400002094A94C40140200202DE9FF5F81
:1038500088B092469946DDF85CB0ABF1010004B245
:1038600008E0601E0AEBC00103C90AEBC40203C2F0
:10387000601E04B2002CF4DCDDE90801CAE9000195
:1038800000252E46002418E0169800EBC40003C85B
:10389000CDE902010AEBC40003C8CDE90001DDE96E
:1038A000022304F0E1FF2A463346CDE9040104F087
:1038B000BBFD05460E46601C04B25C45E4DB19986E
:1038C000401E04B208E0601E09EBC00103C909EB09
:1038D000C40203C2601E04B2002CF4DC0027B84608
:1038E000012418E0189800EBC40103C9CDE90201D6
:1038F00009EBC40003C8CDE90001DDE9022304F0AF
:10390000B3FF3A464346CDE9040104F08DFD074676
:103910008846601C04B219988442E3DB3A46434669
:103920002846314605F090F9C9E90001D9E90001BE
:10393000CDE90601DDE906010CB0BDE8F09F2DE9F7
:10394000FF5F8EB014461D46DDE91CABCDE90CAB24
:10395000CDE90A4500BFDDE91E01CDE90801DDE939
:103960000A23DDE9200104F05FFD804689464046D8
:103970004946DDE90C2304F057FD02460B46CDE92C
:1039800002014046494604F0FFFDCDE90401DDE9AE
:103990000823DDE90E0105F057F9CDE90001DDE965
:1039A000042304F061FFCDE90201DDE9082304F0FE
:1039B0003BFD06460F4600201849DDE9042305F0CB
:1039C00043F942464B46CDE9020104F04DFFCDE9F3
:1039D0000601DDE90601CDE92001CDE91E6730468B
:1039E000394612B0BDE8F09F2DE9F04704460D4678
:1039F00016463146284605F03DFC804631464FF0DC
:103A00007E5005F03FFD8146214605F033FC074618
:103A1000414605F02FFABDE8F08700000000F03FB6
:103A20002DE9F05F04464FF07F594FF07C5120465E
:103A300005F020FC824625462E465448A0EB66063B
:103A400035462946504605F015FC8346294605F0C3
:103A500011FC8046494605F00AFD0746294605F057
:103A600009FC05462846BDE8F09F30B5034604240E
:103A700000200EE033F910508D4202DA23F81010C6
:103A800005E033F91050954201DD23F81020451C64
:103A9000A8B2A042EEDB30BD10B5024604230020E0
:103AA00003E022F81010441CA0B29842F9DB10BDCC
:103AB00070B506460D4614462946304605F0A6FC6C
:103AC00001D22E4605E02146304605F09FFB00D28C
:103AD0002646304670BD70B50446002500212046BC
:103AE00005F094FB01D284F000442949204605F0FA
:103AF0008DFC00D2264C2749204605F0BBFB06462C
:103B00004FF07E5105F0B3FC05460021284605F034
:103B10007DFB00D20025284670BD10B5044600216B
:103B2000204605F073FB02D284F0004010BD204611
:103B3000FCE72DE9F04104462146204605F09AFBBA
:103B400007464FF0804105F003FA06464FF07E51DC
:103B500005F08DFC05462846BDE8F0812DE9F041D1
:103B600004462146204605F085FB8046214605F0A7
:103B700081FB0746084905F0EBF90646214605F0AA
:103B800076FC05462846BDE8F0810000DF59375F26
:103B90009A99193F4260D53F0000C040FD49FE4858
:103BA00081600021C1600161FA4901630021416324
:103BB0008163F849C0F880100021C0F88410C0F873
:103BC0008810F449C0F8A8100021C0F8AC10C0F863
:103BD000B010F049C0F8F8100021C0F8FC10C0F88F
:103BE0000011EC49C0F820110021C0F82411C0F8E0
:103BF0002811EA4981610164C0F89010C0F8B8103A
:103C0000704707B586B0E648B0F90200E449B1F95B
:103C10000810401A039005F0CDFAE249049005F02F
:103C200097F90590079905F022FCDB4948600846A2
:103C300040680590084640690490059905F01AF916
:103C4000D549486108468069059008464069049056
:103C5000059905F0DBFB03D2CF488169416112E091
:103C6000CD48806980F000400590CB48406901460E
:103C70000490059805F0CAFB05D2C748806980F01A
:103C80000041C5484161C848B0F94000029005F0C4
:103C900091FA0390C048006901460290039805F02C
:103CA000E9FA0590BC4840690190BB48C0680090A3
:103CB000019905F0DFFA0390B74840680190B648D3
:103CC00080680090019905F0D5FA0290039905F0FB
:103CD000D1F80490059905F0CDF8AF498862B34951
:103CE00007980860AE48B0F90000AD49B1F90A1074
:103CF000401A039005F05EFAAA49049005F028F9ED
:103D00000590069905F0B3FBA349C8670846C06F44
:103D100005900846D0F88C000490059905F0AAF8A3
:103D20009D49C1F88C000846D0F8900005900846DF
:103D3000D0F88C000490059905F068FB05D29648F0
:103D4000D0F89010C0F88C1016E09348D0F890008E
:103D500080F0004005909048D0F88C000146049017
:103D6000059805F053FB07D28B48D0F8900080F0FF
:103D700000418948C0F88C108B48B0F93E00029091
:103D800005F018FA03908448D0F8880001460290A4
:103D9000039805F06FFA05907F48D0F88C000190E9
:103DA0007D48D0F884000090019905F063FA0390F3
:103DB0007948C06F01907848D0F880000090019950
:103DC00005F058FA0290039905F054F8049005990B
:103DD00005F050F87049C1F8A000754906980860D0
:103DE0006F48B0F906006E49B1F90C10401A142161
:103DF00090FBF1F0039005F0DDF905906D48016846
:103E0000089805F03FFB80F000400490059905F00C
:103E100039FB6149C1F8F4000846D0F8F400059078
:103E20000846D0F8F8000490059905F023FA5A499D
:103E3000C1F80C015C48B0F94200049005F0BAF9F1
:103E400005905548D0F8000101460490059805F00A
:103E500011FA5149C1F814010846D0F8140105902F
:103E60000846D0F80C010490059905F003F84A497A
:103E7000C1F818015048007810B94E4908980860F8
:103E80000020454908704648B0F9040040F21A4144
:103E900088427DDD49480078012803D047480078F2
:103EA000002876D13E48B0F90400A0F57A70444964
:103EB00008600846006805F07DF902903648D0F8A1
:103EC000180101460190029804F0D4FF0390324893
:103ED000D0F8A00001460290039805F0D3FA0490B0
:103EE0002D48806A01460390049805F0CBFA0590AE
:103EF00005F024F900B2334908803148006805F024
:103F000059F902902448D0F818010146019002980E
:103F100005F0B8FA03902048D0F8A00001460290BE
:103F2000039804F0A7FF04901B48806A01460390A1
:103F3000049805F0A7FA059005F000F900B22149B0
:103F400048801F48006805F035F902901248D0F803
:103F5000180101460190029804F08CFF03900E486E
:103F6000D0F8A00001460290039804F083FF04906B
:103F70000948806A01460390049804F07BFF05908D
:103F800005F0DCF800B20F4988800D4800681BE09E
:103F9000F6E03CE000002041E80600200000C842B6
:103FA000DC0800200000A04128010020B000002013
:103FB000AC000020B4000020B8000020B9000020B0
:103FC000A00000209000002005F0F4F8029098482E
:103FD000D0F8180101460190029805F053FA0390B9
:103FE0009348D0F8A00001460290039805F04AFAE1
:103FF00004908F48806A01460390049804F03AFFC9
:10400000059005F09BF800B28A49C880C6E08A484E
:1040100000780228FAD18948006805F0CBF80190B1
:104020008348D0F8900101460090019804F022FFE7
:1040300002907F48D0F8400101460190029804F0B8
:1040400019FF03907A48D0F8C800014602900398FF
:1040500005F018FA04907648006D01460390049824
:1040600005F010FA059005F069F800B27149088072
:104070007248006805F09EF801906D48D0F89001F4
:1040800001460090019804F0F5FE02906848D0F8CF
:10409000400101460190029805F0F4F9039064484C
:1040A000D0F8C80001460290039804F0E3FE0490A3
:1040B0005F48006D01460390049805F0E3F9059010
:1040C00005F03CF800B25B4948805C48006805F0A8
:1040D00071F801905648D0F890010146009001987F
:1040E00004F0C8FE02905248D0F840010146019009
:1040F000029804F0BFFE03904D48D0F8C800014676
:104100000290039804F0B6FE04904948006D014601
:104110000390049804F0AEFE059005F00FF800B28D
:10412000444988804548006805F044F801904048BB
:10413000D0F8900101460090019804F09BFE029097
:104140003B48D0F8400101460190029805F09AF9E9
:1041500003903748D0F8C80001460290039805F054
:1041600091F904903248006D01460390049804F0E0
:1041700081FE059004F0E2FF00B22E49C8800DE0F8
:1041800000202C49C8808880488008800021284869
:104190004161C0F88C10C163C0F8B4102548B0F973
:1041A0000000002802DC0020224908802148B0F9E4
:1041B0000200002802DC00201E4948801D48B0F99A
:1041C0000400002802DC00201A4988801948B0F950
:1041D0000600002802DC00201649C8801848007834
:1041E000F0B11448B0F906004FF6FF7101EA800003
:1041F00005901048B0F9040001EA800004900D48D1
:10420000B0F9020001EA800003900A48B0F900000A
:1042100001EA8000029003A90EC900F09EF905E0B2
:1042200000231A461946184600F097F909B000BD58
:10423000E806002090000020B9000020A000002027
:10424000B800002070B570480078401C6E490870B6
:104250006E48C0886E49C8806C48408840F6B831C6
:10426000081A00B26A4948806848008840F6B831A8
:10427000081A00B26649088064488088A0F2DC50C1
:1042800004B26148007814281EDB00205E490870E3
:104290006048B0F90000001BB0F5967F06DC5D4871
:1042A000B0F90000001B10F5967F02DA594804802F
:1042B00008E00A2094FBF0F055498988084400B2D0
:1042C00053498880534804805149B1F9040004F0EF
:1042D00071FF0646504A5149FFF7EAFB054604F0D4
:1042E0002DFF00B24A49888070BD4D480078F0B972
:1042F0004748B0F90000B0F5E16F18DB4448B0F969
:104300000200B0F5E16F12DB4148B0F90400B0F5EE
:10431000966F0CDC3E48B0F90600B0F5E16F06DBA5
:1043200040480088401C00B23E49088002E000205E
:104330003C4908803B48B0F900001E2808DD384899
:10434000007828B9012036490870002035490880D6
:1043500033480078F0B12E48B0F90600B0F5966FFA
:1043600018DC2B48B0F90200B0F5E16F12DB2848E9
:10437000B0F90400B0F5966F0CDC2548B0F90000E8
:10438000B0F5966F06DC28480088401C00B226492C
:10439000088002E00020244908802348B0F900008A
:1043A0001E2807DB1E48007820B100201C49087039
:1043B0001D49088070471648B0F90E0040F2A4610C
:1043C000884203DD0220194908701BE01048B0F94B
:1043D0000E0040F2145188420ADD0D48B0F90E007B
:1043E00040F2A461884203DA01201049087009E014
:1043F0000748B0F90E0040F21451884202DA00205A
:104400000A49087070470000BA000020F208002036
:10441000DC080020BC00002000007A440000FA44C0
:10442000B8000020BE000020C0000020B90000201D
:1044300008B50121082001F045FD0121084601F0E1
:1044400041FD0121554801F052FB28208DF8030061
:104450001020ADF8000003208DF802006946504896
:1044600001F074FA08BD30B589B005460C4601214B
:10447000082001F027FD0121022001F030FD01217B
:10448000084601F01FFD0121464801F030FB1820CD
:104490008DF8070003208DF806000220ADF8040017
:1044A00001A93F4801F052FA1020ADF8040001A91B
:1044B0003B4801F04BFA2020ADF8040001A9384830
:1044C00001F044FA0121354801F011FB0120ADF85B
:1044D000040001A9324801F039FA0020ADF81E00AD
:1044E000ADF81A00ADF81C50ADF8184006A92E48DA
:1044F00002F024F86020ADF808000120ADF80A00B1
:104500000020ADF8100002A9274802F054F8082155
:10451000254802F09FFC02A9234802F08EF80821EA
:10452000214802F0A0FC02A91F4802F0D3F808219C
:104530001D4802F0A5FC02A91B4802F016F908214B
:10454000194802F0A6FC0121174802F053FB012193
:10455000154802F04FFC09B030BD10B5B0F57A6FC8
:1045600001DD4FF47A60B1F57A6F01DD4FF47A61C5
:10457000B2F57A6F01DD4FF47A62B3F57A6F01DD3F
:104580004FF47A63084C3C342080241D2180064C73
:1045900034342280241D238010BD0000000230002E
:1045A000000C014000081A000004004000B587B06C
:1045B00001210C2001F086FC0121080301F082FC9E
:1045C0000121084601F07EFC1020ADF818008DF89E
:1045D0001B0003208DF81A0006A9FB4801F0B6F96C
:1045E0001021F94801F05FFA0220ADF8180006A981
:1045F000F54801F0ABF90221F34801F056FA00F05A
:1046000034FA0021F14802F09EFE0020ADF80400CB
:104610004FF48270ADF806000020ADF80800ADF848
:104620000A00ADF80C004FF40070ADF80E00102039
:10463000ADF810000020ADF812000720ADF814000E
:1046400001A9E24802F0DAFD0121E04802F07BFE18
:104650000020DF4908600120DE49C1F884014FF4E1
:104660007A7000F0DAFF07B000BD1FB5002101200D
:1046700001F082FA0120ADF80C0048208DF80F00FF
:1046800003A9D14801F062F90120019000208DF8C2
:1046900008000C208DF8090001208DF80A0001A8FF
:1046A00003F0F8F906208DF8000000208DF80100D5
:1046B00001208DF802008DF80300684601F07DF8B6
:1046C0001FBD2DE9F04107460D4616460020C049A2
:1046D0000C390860384600F0A1F98046002405E056
:1046E000FF2000F09BF92855601CC4B2B442F7DBF0
:1046F0000120B7490C3908604046BDE8F0812DE93A
:10470000F04107460C4615460020B1490C390860B7
:10471000384600F083F98046002605E014F8010BC6
:1047200000F07CF9701CC6B2AE42F7DB0120A8494C
:104730000C3908604046BDE8F0811FB5A6A103C949
:10474000CDE90201102000F0D4F9052202A93020A1
:10475000FFF7D5FF052269461020FFF7B2FF0024BE
:1047600006E01DF80400A52800D003E0601CC4B2D8
:10477000052CF6DB00BF052C02D0012004B010BDD3
:104780000020FBE770B505460C46002090490C3927
:104790000860284600F042F90646204600F03EF93F
:1047A00001208C49C1F88401304670BD70B50446C3
:1047B000002087490C390860204600F02FF9FF20BF
:1047C00000F02CF9054601208249C1F884012846F1
:1047D00070BD70B50546102000F08BF900207C49B3
:1047E000086020222946A020FFF789FF012079498F
:1047F000C1F890010A2000F010FF00BF7448903803
:1048000000680028FAD10720FFF7D0FF04462146B0
:104810002720FFF7B7FF04F0100028B1FF21E120A7
:10482000FFF7B0FF102070BD04F0200008B1202079
:10483000F9E7FF20F7E770B50546102000F059F9B9
:104840000720FFF7B3FF044621462720FFF79AFF12
:1048500004F0400028B1FF21E220FFF793FF002081
:1048600070BD0120FCE710B5002059490860052201
:104870005B492A20FFF743FF01212120FFF782FF38
:1048800001212220FFF77EFF28212520FFF77AFF54
:1048900020213120FFF776FF0F212620FFF772FF3E
:1048A0000F212020FFF76EFF01204A49C1F8900137
:1048B00010BD10B500204649086005224949302046
:1048C000FFF71DFF052246492A20FFF718FF0121A7
:1048D0002120FFF757FF01212220FFF753FF1A2164
:1048E0002420FFF74FFF28212520FFF74BFF202131
:1048F0003120FFF747FF07212620FFF743FF0E2156
:104900002020FFF73FFF01203249C1F8900110BD80
:1049100008B500220092002102788DF8002042782C
:104920008DF8012081789DF80020AA2A03D19DF8F6
:104930000120AA2A00D008BD012904D0022904D0F0
:1049400003291FD100E01EE01DE00279C37802EBCD
:10495000032212B2244B9A808279437902EB03221C
:1049600012B2214BDA80827A437A02EB032212B22E
:104970001D4B1A80027AC37902EB032212B21A4B42
:104980005A8000E000BF00BF00BFD4E770B5044606
:104990000720FFF70BFF054640212720FFF7F2FE17
:1049A00005F0400050B3202221466120FFF789FE28
:1049B000FF21E220FFF7E6FE2046FFF7A9FF0B48A4
:1049C0000068A8B9012014E000080140003001404F
:1049D0009001214200002142A5A5A5A5A500000047
:1049E000639600085E960008F2080020B481214218
:1049F00000200749086000200649086070BD10B516
:104A00000548FFF7C3FF012003F0BBF810BD00000D
:104A1000B4812142C4000020E000002070B50546AA
:104A2000002405E0601CC4B2C82C01DD002070BD6C
:104A30000221394802F00BFD0028F3D02946364800
:104A400002F0B2FC002405E0601CC4B2C82C01DDF9
:104A50000020ECE70121304802F0F9FC0028F3D0F7
:104A60002D4802F0A3FCC0B2E1E700B587B00121F8
:104A7000042001F027FA0121080301F023FAE020C5
:104A8000ADF8180018208DF81B0003208DF81A00CF
:104A900006A9224800F05AFFE021204801F003F85F
:104AA0000020ADF804004FF48270ADF8060000203D
:104AB000ADF808000220ADF80A000120ADF80C00A6
:104AC0004002ADF80E003820ADF810000020ADF81F
:104AD00012000720ADF8140001A90F4802F08EFB68
:104AE00001210D4802F02FFCFF20FFF797FF07B0D0
:104AF00000BD10B50446084800884FF6C77108404D
:104B000005490880084600882043088001210248A2
:104B100002F019FC10BD0000003001400008014007
:104B200010B500226B21D020FBF768FE0A2000F0B0
:104B300074FD03226B21D020FBF760FE0A2000F0F9
:104B40006CFD00221921D020FBF758FE0A2000F04E
:104B500064FD03221A21D020FBF750FE0A2000F04A
:104B60005CFD10221C21D020FBF748FE0A2000F03B
:104B700054FD10221B21D020FBF740FE0A2000F03C
:104B80004CFD7521D020FBF754FE0446682C01D162
:104B9000002010BD0120FCE710B5934B0E223B21F5
:104BA000D020FBF764FE904840788F49097840EAAE
:104BB000012000B28D4908808B48C0788A498978E5
:104BC00040EA012000B289494880874840798649F7
:104BD000097940EA012000B2844988808248407AFD
:104BE0008149097A40EA012000B2804908877E485D
:104BF000C07A7D49897A40EA012001B27B48418729
:104C00007948407B7849097B40EA012001B2774826
:104C1000818710BD10B53C21D020FBF70AFE7249F8
:104C200008703B21D020FBF704FE6F49487008460E
:104C30000078497840EA012000B26C4908803E21A2
:104C4000D020FBF7F6FD684988703D21D020FBF7A6
:104C5000F0FD6549C87008468078C97840EA0120AF
:104C600000B2624948804021D020FBF7E2FD5E4956
:104C700008713F21D020FBF7DCFD5B4948710846F5
:104C80000079497940EA012000B25849888010BD76
:104C900010B54421D020FBF7CCFD534908724321C5
:104CA000D020FBF7C6FD504948720846007A497A81
:104CB00040EA012000B24D4908874621D020FBF789
:104CC000B8FD494988724521D020FBF7B2FD46491D
:104CD000C8720846807AC97A40EA012001B2434886
:104CE00041874821D020FBF7A4FD3F4908734721A5
:104CF000D020FBF79EFD3C4948730846007B497B6A
:104D000040EA012001B23948818710BD704710B5D3
:104D1000C824002035494862002134488162C162BC
:104D2000C165016641662CE0FFF774FFFFF7B0FF35
:104D30002E48C06D2D49B1F9381001442B48C1658A
:104D4000016EB0F93A00014428480166416EB0F99D
:104D50003C00014425484166406A2449B1F90010ED
:104D60000844224948620846806AB1F902100144A9
:104D70001E488162C06A1D49B1F9041001441B48F4
:104D8000C162201EA4F101018CB2CDD1C824174804
:104D9000C06D90FBF4F001B21448A0F84A10006E08
:104DA00090FBF4F001B21148A0F84C10406E90FB5B
:104DB000F4F001B20D48A0F84E10406A90FBF4F0F8
:104DC00000B20A4948820846806A90FBF4F001B2BA
:104DD00006488182C06A90FBF4F001B20348C182A8
:104DE00000F0A8F810BD00001809002028010020DC
:104DF0000146088870472DE9F04105460E461746E2
:104E0000002407E036F81410284602F0BEFCAD1C62
:104E1000601C84B2BC42F5DBBDE8F08130B50346CE
:104E20000C461546002207E01846FFF7E1FF24F87C
:104E300012009B1C501C82B2AA42F5DB30BD2DE94A
:104E4000F05F80468A461746B8F1006F02D33748B4
:104E5000804501D3BDE8F09F02F04FFBA8F1006B45
:104E60004FEA9B25CBF34809C9F50074A74200DC43
:104E70003C464DE04FF0006101EB85208A142C493F
:104E8000FFF7CCFF00260BE009EB0600284931F8BC
:104E900010004FF6FF71884200D003E0701C86B20C
:104EA000A642F1DB00BFA6421BDA4FF0006101EB26
:104EB000852002F067FB002608E03AF8160006EBB2
:104EC00009011B4A22F81100701C86B2A642F4DBCD
:104ED0004FF0006101EB85208A141549FFF78BFF25
:104EE00004E0224651464046FFF785FFA74200D125
:104EF0000FE06D1C4FF000090AEB440AA044381B78
:104F000087B2B7F5007F02DD4FF4007400E03C4645
:104F1000B0E700BF02F0FDFA00BF9BE713B50446FF
:104F2000012201A92046FFF78AFF1CBD00000108ED
:104F30002609002010B50122FD49FE48FFF77FFF3A
:104F40000122FB49891CFB48801CFFF778FF0122E6
:104F5000F749091DF748001DFFF771FF0122F449C9
:104F60003839F448801DFFF76AFF0122F0493639CD
:104F7000F0480830FFF763FF0122ED493439ED486E
:104F80000A30FFF75CFF10BD3EB5EB498868EB497E
:104F900004F070F9044604F0EDF880B20290E6499E
:104FA000C868E64904F066F9044604F0E3F880B204
:104FB0000190E1490869E14904F05CF9044604F014
:104FC000D9F880B20090012202A9DA482030FFF718
:104FD00036FF012201A9D7482230FFF730FF012216
:104FE0006946D4482430FFF72AFFD349D1F880001E
:104FF000D24904F03FF9044604F0BCF880B20290B4
:10500000CD49D1F88400CD4904F034F9044604F0C8
:10501000B1F880B20190C849D1F88800C74904F0BE
:1050200029F9044604F0A6F880B20090012202A9F2
:10503000C0482830FFF703FF012201A9BD482A30EC
:10504000FFF7FDFE01226946BA482C30FFF7F7FE54
:10505000B949D1F8F800B94904F00CF9044604F054
:1050600089F880B20290B449D1F8FC00B34904F049
:1050700001F9044604F07EF880B20190AE49D1F8FF
:105080000001AE4904F0F6F8044604F073F880B26B
:105090000090012202A9A7482E30FFF7D0FE01227E
:1050A00001A9A4483030FFF7CAFE01226946A14891
:1050B0003230FFF7C4FE3EBD3EB59F49086B9F49A5
:1050C00004F0D8F8044604F055F880B202909A49EA
:1050D000486B9A4904F0CEF8044604F04BF880B2CD
:1050E00001909549886B954904F0C4F8044604F092
:1050F00041F880B20090012202A98E483430FFF7B7
:105100009EFE012201A98B483630FFF798FE01224E
:10511000694688483830FFF792FE8749D1F8A800E1
:10512000864904F0A7F8044604F024F880B20290FF
:105130008149D1F8AC00814904F09CF8044604F0A0
:1051400019F880B201907C49D1F8B0007B4904F095
:1051500091F8044604F00EF880B20090012202A9F2
:1051600074483A30FFF76BFE012201A971483C30C8
:10517000FFF765FE012269466E483E30FFF75FFE8D
:105180006D49D1F820016D4904F074F8044603F02C
:10519000F1FF80B202906849D1F82401674904F018
:1051A00069F8044603F0E6FF80B201906249D1F845
:1051B0002801624904F05EF8044603F0DBFF80B288
:1051C0000090012202A95B484030FFF738FE01221F
:1051D00001A958484230FFF732FE0122694655487E
:1051E0004430FFF72CFE3EBD3EB55349D1F8700167
:1051F000524904F03FF8044603F0BCFF80B202902D
:105200004D49D1F874014D4904F034F8044603F0D7
:10521000B1FF80B201904849D1F87801474904F0C4
:1052200029F8044603F0A6FF80B20090012202A9EB
:1052300040486030FFF703FE012201A93D4862307B
:10524000FFF7FDFD012269463A486430FFF7F7FD9C
:105250003EBD10B5012236493648FFF7DFFD012279
:105260003349891C3348801CFFF7D8FD012230499F
:10527000091D3048001DFFF7D1FD01222C493839A6
:105280002C48801DFFF7CAFD0122294936392948DB
:105290000830FFF7C3FD01222549343925480A307B
:1052A000FFF7BCFD10BD3EB5012202A92148203008
:1052B000FFF7B4FD012201A91E482230FFF7AEFD21
:1052C000012269461B482430FFF7A8FDBDF80800FD
:1052D00003F088FF0446194903F03AFE1649886036
:1052E000BDF8040003F07EFF0446144903F030FECD
:1052F0001149C860BDF8000003F074FF04460F496F
:1053000003F026FE0C490861012202A90948283051
:10531000FFF784FD012201A906482A30FFF77EFD30
:105320000122694603482C30FFF778FD08E00000B1
:105330007201002000FC0008E806002000007A440A
:10534000BDF8080003F04EFF0446924903F000FE4A
:105350009149C1F88000BDF8040003F043FF044602
:105360008C4903F0F5FD8C49C1F88400BDF80000BC
:1053700003F038FF0446874903F0EAFD8649C1F887
:105380008800012202A98548FFF748FD012201A9F2
:105390008248801CFFF742FD012269467F48001DBC
:1053A000FFF73CFDBDF8080003F01CFF04467949F7
:1053B00003F0CEFD7849C1F8F800BDF8040003F011
:1053C00011FF0446734903F0C3FD7349C1F8FC00A3
:1053D000BDF8000003F006FF04466E4903F0B8FD77
:1053E0006D49C1F800013EBD3EB5012202A96B48DE
:1053F000801DFFF713FD012201A968480830FFF75F
:105400000DFD0122694665480A30FFF707FDBDF82A
:10541000080003F0E7FE04465E4903F099FD0146EB
:105420005D480163BDF8040003F0DCFE0446594901
:1054300003F08EFD014658484163BDF8000003F0BB
:10544000D1FE0446534903F083FD0146524881636F
:10545000012202A951480C30FFF7E0FC012201A90A
:105460004E480E30FFF7DAFC012269464B481030F7
:10547000FFF7D4FCBDF8080003F0B4FE044645492C
:1054800003F066FD01464448C0F8A810BDF80400CA
:1054900003F0A8FE04463F4903F05AFD01463E488A
:1054A000C0F8AC10BDF8000003F09CFE044639497A
:1054B00003F04EFD01463848C0F8B010012202A9A1
:1054C00036481230FFF7AAFC012201A933481430F4
:1054D000FFF7A4FC0122694630481630FFF79EFC16
:1054E000BDF8080003F07EFE04462A4903F030FDB3
:1054F00001462948C0F82011BDF8040003F072FEEF
:105500000446244903F024FD01462348C0F8241131
:10551000BDF8000003F066FE04461E4903F018FDC6
:1055200001461D48C0F828113EBD3EB5012202A922
:105530001A483230FFF772FC012201A917483430B3
:10554000FFF76CFC0122694614483630FFF766FC11
:10555000BDF8080003F046FE04460E4903F0F8FCCF
:105560000D49C1F87001BDF8040003F03BFE04468C
:10557000084903F0EDFC0849C1F87401BDF80000CA
:1055800003F030FE0446034903F0E2FC0249C1F88F
:1055900078013EBD00007A44E80600202EFC000899
:1055A00010B56FF0040000F052F92E4800682E4943
:1055B000B0FBF1F02D4908700846007800EB40017F
:1055C000C1EBC0104FF6FF7101EAC0002849088006
:1055D00010BD0146254A12784A434FF0E0235A6134
:1055E00000229A611A46126942F001021A6100BF54
:1055F0004FF0E022106900F001021AB100F480328D
:10560000002AF5D04FF0E022126922F001024FF09B
:10561000E0231A6100229A6170470146144A1288F9
:105620004A434FF0E0235A6100229A611A461269F8
:1056300042F001021A6100BF4FF0E022106900F051
:1056400001021AB100F48032002AF5D04FF0E022B6
:10565000126922F001024FF0E0231A6100229A61E0
:10566000704700000000002000127A00C8000020EF
:10567000CA000020014600BF704700BF3A4A1288A6
:1056800002F04002002AF9D0C2B2374B1B1D1A802B
:10569000704710B586B00446012144F2040000F0C2
:1056A00011FC4FF40070ADF8140003208DF81600C3
:1056B00018208DF8170005A92C4800F047F94FF481
:1056C0008060ADF8140004208DF8170005A9274864
:1056D00000F03CF925208DF8000000208DF8010035
:1056E00002208DF8020001208DF80300684600F0CA
:1056F00064F801940020ADF80800ADF80A00ADF898
:105700000C00ADF810000C20ADF80E0001A91648F1
:1057100000F07FFC012240F22551134800F011FDFA
:105720000121114800F001FD06B010BD10B50E4872
:10573000008800F0080018B10B48001D0088C4B2B2
:1057400040F22551084800F0E1FD58B140F22551E2
:10575000054800F005FE0448001D0088C4B220463C
:10576000FCF7CBF910BD00000038014000080140F3
:105770000948804709480047FEE7FEE7FEE7FEE7E5
:10578000FEE7FEE7FEE7FEE7FEE7FEE70448054921
:10579000054A064B70470000C303000831010008AA
:1057A000880D002088130020880F0020880F00201B
:1057B00031490143314A1160704770B5002100231F
:1057C0000F22C47804B32D4C246804F4E064C4F5BB
:1057D000E064210AC1F10403CA40447804FA03F1E9
:1057E0008478144021430901254C0678A15504789A
:1057F00004F01F050124AC4005786D11AD0005F1E2
:10580000E025C5F8004109E0047804F01F050124F3
:10581000AC401C4D0678761145F8264070BD1A4AFA
:105820000A400243154B1B1F1A60704739B1134AD7
:10583000121D12680243114B1B1D1A6006E00F4A2D
:10584000121D126882430D4B1B1D1A6070470428FD
:1058500008D14FF0E021096941F004014FF0E02246
:10586000116107E04FF0E021096921F004014FF0D8
:10587000E0221161704700000000FA050CED00E025
:1058800000E400E080E100E080FFFF1F10B5044667
:10589000CC48844208D10121042000F02DFB0021D6
:1058A000042000F029FB46E0C748844208D10121CA
:1058B000082000F021FB0021082000F01DFB3AE049
:1058C000C248844208D10121102000F015FB0021BC
:1058D000102000F011FB2EE0BD48844208D10121C8
:1058E000202000F009FB0021202000F005FB22E031
:1058F000B848844208D10121402000F0FDFA00217F
:10590000402000F0F9FA16E0B348844208D10121A2
:10591000802000F0F1FA0021802000F0EDFA0AE08A
:10592000AE48844207D10121801500F0E5FA00213C
:10593000A01500F0E1FA10BD10B50121084600F0F5
:10594000DBFA0021012000F0D7FA10BD2DE9F0416B
:10595000024600250026002000230024002791F89D
:1059600003C00CF00F0591F803C00CF0100CBCF153
:10597000000F03D091F802C04CEA050591F800C071
:10598000BCF1000F31D0146800202BE04FF0010C67
:105990000CFA00F3B1F800C00CEA03069E4220D1D5
:1059A00083004FF00F0C0CFA03F7BC4305FA03FC1D
:1059B0004CEA040491F803C0BCF1280F06D14FF063
:1059C000010C0CFA00FCC2F814C00AE091F803C004
:1059D000BCF1480F05D14FF0010C0CFA00FCC2F8E5
:1059E00010C0401C0828D1D31460B1F800C0BCF12D
:1059F000FF0F34DD546800202EE000F1080C4FF05A
:105A0000010808FA0CF3B1F800C00CEA03069E4244
:105A100021D183004FF00F0C0CFA03F7BC4305FAB9
:105A200003FC4CEA040491F803C0BCF1280F05D133
:105A300000F1080C08FA0CF8C2F8148091F803C0C1
:105A4000BCF1480F07D100F1080C4FF0010808FA2B
:105A50000CF8C2F81080401C0828CED35460BDE872
:105A6000F0814FF6FF710180022181700421C17025
:105A700070470246002093680B400BB1012000E004
:105A8000002070470146886880B2704702460020B7
:105A9000D3680B400BB1012000E0002070470146A5
:105AA000C86880B2704701617047416170470AB1B0
:105AB000016100E041617047C16070474FF480327E
:105AC0000A4382618161826182698269704702460C
:105AD0000020434B18684FF68073184040EA0210CC
