:020000040800F2
:1000000028080020F93A00083D0200083F020008D5
:1000100043020008470200084B02000800000000ED
:100020000000000000000000000000004F02000877
:1000300051020008000000005302000855020008A9
:10004000133B0008133B0008133B0008133B000858
:10005000133B0008133B0008133B0008E937000876
:10006000133B0008133B0008133B0008133B000838
:10007000133B0008133B0008133B0008133B000828
:10008000133B0008133B0008133B0008133B000818
:10009000133B0008133B0008133B0008133B000808
:1000A000133B0008133B0008133B0008133B0008F8
:1000B000133B0008210D0008133B0008133B000808
:1000C000133B0008133B0008133B0008133B0008D8
:1000D000133B0008B73A0008133B0008133B000825
:1000E000133B0008133B0008133B0008133B0008B8
:1000F000133B0008133B0008133B0008133B0008A8
:10010000133B0008133B0008133B0008133B000897
:10011000133B0008133B0008133B0008133B000887
:10012000133B0008133B0008133B0008133B000877
:1001300000F002F800F03AF80AA090E8000C8244BF
:100140008344AAF10107DA4501D100F02FF8AFF29C
:10015000090EBAE80F0013F0010F18BFFB1A43F0A5
:10016000010318472473000044730000103A24BFB1
:1001700078C878C1FAD8520724BF30C830C144BF0C
:1001800004680C607047000000230024002500264E
:10019000103A28BF78C1FBD8520728BF30C148BFEA
:1001A0000B6070471FB51FBD10B510BD05F018FCE2
:1001B0001146FFF7F7FF00F009F805F036FC03B42D
:1001C000FFF7F2FF03BC03F01BFC000000BF03F0CD
:1001D000ADFB4FF4A06003F0AFFC4FF4E13003F04F
:1001E0001EFC00F029F900F0FDFA00F041F900F0E2
:1001F0008BFA472140F6C31003F094F841F61F41F3
:10020000632000F061FD03F021F94FF47A7003F0F0
:10021000CAFB06E00020084908604FF47A7003F03A
:10022000C2FB03F0D4F90028F4D101200249086090
:1002300003F061FA00BFFEE7BC812142704700BFB6
:10024000FEE700BFFEE700BFFEE700BFFEE7704726
:1002500070477047704700000CB500200190009077
:100260006C48006840F480306A49086000BF694803
:10027000006800F4003000900198401C0190009844
:1002800018B90198B0F5A06FF1D16248006800F488
:10029000003010B10120009001E000200090009893
:1002A000012843D15C48006840F010005A490860BA
:1002B0000846006820F0030008600846006840F027
:1002C0000200086053484068524948600846406848
:1002D00048600846406840F48060486008464068CE
:1002E00020F47C1048600846406840F4E8104860FC
:1002F0000846006840F08070086000BF454800680C
:1003000000F000700028F9D04248406820F0030057
:10031000404948600846406840F00200486000BF1D
:100320003C48406800F00C000828F9D10CBD10B51D
:10033000FFF792FF10BD10B53648006840F001008D
:1003400034490860084640683449084031494860EB
:1003500008460068324908402E490860084600688F
:1003600020F4802008600846406820F4FE004860C1
:100370004FF41F008860FFF7DAFF4FF00060294953
:10038000086010BD10B5002100200022214B5B68E1
:1003900003F00C0121B1042906D0082928D107E077
:1003A000214B224C236027E01F4B204C236023E08D
:1003B000184B5B6803F47010164B5B6803F48032D3
:1003C000022303EB904022B9194B4343174C23609F
:1003D0000DE0104B5B6803F4003323B1144B43432F
:1003E000124C236003E0104B4343104C236003E0A6
:1003F0000D4B0E4C236000BF00BF064B5B68C3F380
:1004000003130C4CE15C094B1B68CB40074C236089
:1004100010BD000000100240002002400000FFF864
:10042000FFFFF6FE08ED00E000127A000000002059
:1004300000093D000400002008B50121082003F058
:1004400005FF4FF47040ADF8000010208DF8030058
:1004500003208DF802006946044803F03BFC4FF48A
:100460005041024803F0E3FC08BD0000000C0140CD
:1004700010B580226B21D22000F034FB0A2003F05B
:1004800092FA07226821D22000F02CFB0A2003F008
:100490008AFA01226B21D22000F024FB00226C2179
:1004A000D22000F01FFB03221A21D22000F01AFBF9
:1004B0000A2003F078FA04221921D22000F012FB5E
:1004C00008221C21D22000F00DFB0A2003F06BFA59
:1004D00010221B21D22000F005FB0A2003F063FA52
:1004E00002223721D22000F0FDFA0A2003F05BFA45
:1004F00001220A21182000F0F5FA0A2003F053FA2D
:100500007521D22000F009FB044600BF712CFDD1FB
:1005100010BD10B5B04B0E223B21D22000F01BFBCA
:10052000AD484078AC49097840EA012000B2AB49B7
:100530000880A948C078A849897840EA012000B21B
:10054000A6494880A4484079A349097940EA012096
:1005500000B2A2498880A048407A9F49097A40EABF
:10056000012000B29D4908879B48C07A9A49897A40
:1005700040EA012001B2994841879748407B96495B
:10058000097B40EA012001B29448818710BD10B573
:100590003C21D22000F0C1FA8F4908703B21D220C3
:1005A00000F0BBFA8C49487008460078497840EA68
:1005B000012000B2894908803E21D22000F0ADFA26
:1005C000854988703D21D22000F0A7FA8249C87081
:1005D00008468078C97840EA012000B27F49488007
:1005E0004021D22000F099FA7B4908713F21D220A6
:1005F00000F093FA7849487108460079497940EA51
:10060000012000B27549888010BD10B54421D22068
:1006100000F083FA704908724321D22000F07DFA7D
:100620006D4948720846007A497A40EA012000B2D2
:100630006A4908874621D22000F06FFA664988721D
:100640004521D22000F069FA6349C8720846807AD1
:10065000C97A40EA012001B2604841874821D2208E
:1006600000F05BFA5C4908734721D22000F055FA8C
:10067000594948730846007B497B40EA012001B292
:1006800056488187B0F93A00FF2803D15348B0F8A3
:10069000401041875148B0F93C00FF2803D14F4832
:1006A000B0F84210818710BD10B502223721D22048
:1006B00000F018FA01220A21182000F013FA484B22
:1006C00006220321182000F046FA454800784449E4
:1006D000497840EA012000B24049A1F87000404842
:1006E00080783F49C97840EA012001B23B48A0F830
:1006F00072103B4800793A49497940EA012001B239
:100700003648A0F8741010BD10B5C8240020334935
:100710004862002131488162C162C165016641665B
:100720002AE0FFF7F6FE2D48C06D2C49B1F93810CC
:1007300001442A48C165016EB0F93A0001442748D6
:100740000166416EB0F93C00014424484166406AAC
:100750002249B1F900100844204948620846806ADD
:10076000B1F9021001441D488162C06A1B49B1F908
:10077000041001441948C1622000A4F101018CB2A7
:10078000CFD1C8241548C06D90FBF4F001B21348D6
:10079000A0F84A10006E90FBF4F001B20F48A0F8E8
:1007A0004C10406E90FBF4F001B20C48A0F84E10D3
:1007B000406A90FBF4F000B2084948820846806A1B
:1007C00090FBF4F001B205488182C06A90FBF4F01E
:1007D00001B20248C18210BDB2000020CC0000204E
:1007E000C000002008B50121042003F02FFD0320E4
:1007F000ADF8000010208DF8030003208DF80200F2
:100800006946F84803F066FA0321F64803F00FFB47
:1008100008BD10B5F348006820F00F00F1490860EA
:100820000846006840F0010008600120EE490860B9
:10083000EE49C1F88401042003F091F8E94800680A
:1008400020F00F00E74908600846006840F0080003
:1008500008600121E34803F0D0FA08B9012010BD77
:10086000E048006820F00F00DE4908600846006894
:1008700040F0010008600121DA4803F0DAFA0120B3
:1008800003F06DF80020EAE710B5D648006820F0C4
:100890000F00D44908600846006840F00100086075
:1008A0000221D04803F0C5FA0121CE4803F0C1FA75
:1008B000012003F054F80221CA4803F0B8FA0120DD
:1008C00003F04DF80121C74803F0B1FA042003F00A
:1008D00046F810BD10B500240221C24803F0A9FA61
:1008E000C048006820F00F00BE4908600846006854
:1008F00040F0010008600121BA4803F098FA012095
:1009000003F02DF80221B74803F091FA012003F01B
:1009100026F8B448006820F00F00B2490860084685
:10092000006840F00800086012E0601CC4B2FA2CB5
:100930000EDDAC48006820F00F00AA4908600846A8
:10094000006840F001000860FFF79EFF012010BD25
:100950000121A44803F051FA0028E6D1A14800681B
:1009600020F00F009F4908600846006840F0010031
:10097000086000209C49091D086000BFE7E710B52A
:100980000221984803F055FA9648006820F00F00BD
:10099000944908600846006840F0010008600121A1
:1009A000904803F046FA022002F0D9FF02218D4858
:1009B00003F03DFA022002F0D2FF0221894803F041
:1009C00038FA022002F0CBFF10BD10B50221854895
:1009D00003F02FFA022002F0C2FF8248006820F0E4
:1009E0000F00804908600846006840F00100086078
:1009F00001217C4803F01BFA022002F0B0FF022123
:100A0000784803F014FA022002F0A9FF0221754889
:100A100003F00FFA10BD70B504467248006820F06C
:100A20000F00704908600846006840F00100086047
:100A300000206D49091D0860002520E004F08000B9
:100A400020B10121674803F0F2F903E00121654874
:100A500003F0EFF96006040E022002F080FF01208F
:100A60006149091D0860022002F079FF00205F49FA
:100A7000C1F88401022002F072FF681CC5B2082D83
:100A8000DCDB70BD70B500245648006820F00F0014
:100A9000544908600846006840F0080008600121D9
:100AA000504803F0C4F9002518E000204E49091D04
:100AB0000860022002F053FF01204C49C1F8840174
:100AC0006006040E0121474803F097F908B1601C45
:100AD000C4B2012002F043FF681CC5B2082DE4DB5C
:100AE000204670BD70B506460C461546FFF791FED0
:100AF0003046FFF790FFFFF7EDFE2046FFF78BFF34
:100B0000FFF7E8FE2846FFF786FFFFF7E3FEFFF753
:100B1000BBFE0A2002F023FF70BD70B504460D46EF
:100B2000FFF777FE2046FFF776FFFFF7D3FE284654
:100B3000FFF771FFFFF7CEFEFFF76BFE611CC8B237
:100B4000FFF769FFFFF7C6FEFFF79CFF0646FFF7BA
:100B50009BFE304670BD2DE9F04106460F46144617
:100B60001D46FFF756FE3046FFF755FFFFF7B2FE72
:100B70003846FFF750FFFFF7ADFEFFF74AFE711C46
:100B8000C8B2FFF748FFFFF7A5FE0FE0012C05D024
:100B9000FFF778FF2870FFF7F2FE04E0FFF772FF1F
:100BA0002870FFF712FF6D1C601EC4B2002CEDDC34
:100BB000FFF76AFE0020BDE8F08170B505460C46DF
:100BC000FFF727FE2846FFF726FFFFF783FE2046A4
:100BD000FFF721FFFFF77EFEFFF756FE0A2002F027
:100BE000E2FE70BD00080140800121420000214268
:100BF0002DE9F04105460E4617469846FFF709FED7
:100C0000002141EA4501C8B2FFF705FFFFF762FE88
:100C100020B1FFF739FE0120BDE8F0813046FFF733
:100C2000FAFEFFF757FE00240CE018F80400FFF767
:100C3000F2FEFFF74FFE18B1FFF726FE0120EBE7AB
:100C4000601CC4B2BC42F0DBFFF71EFE0020E3E7ED
:100C50002DE9F04106460F4614461D46FFF7D9FD23
:100C6000002141EA4601C8B2FFF7D5FEFFF732FE88
:100C700020B1FFF709FE0120BDE8F0813846FFF7FB
:100C8000CAFEFFF727FEFFF7C4FD012101EB460175
:100C9000C8B2FFF7C0FEFFF71DFE0FE0012C05D123
:100CA000FFF7F0FE2870FFF790FE04E0FFF7EAFE82
:100CB0002870FFF764FE601EC4B26D1C002CEDD1DD
:100CC000FFF7E2FD0020D7E77FB505460C4601217E
:100CD000022003F0C8FAADF80850ADF80440002037
:100CE000ADF80A00ADF8060001A9264803F0EAFDB8
:100CF0001D208DF8000001208DF803008DF8010003
:100D000003208DF80200684602F01BFF0122114605
:100D10001C4804F04EF901211A4804F02FF97FBD58
:100D200010B50121174804F0F2FB012825D101F08C
:100D300017FD15480068401C1349086000F013F9BE
:100D400000F089F810480068132190FBF1F201FBD4
:100D5000120010B9FFF7A8FC0FE00B480068032150
:100D600090FBF1F201FB120038B90848006808B99D
:100D7000012000E00020054908600121014804F03D
:100D8000D7FB10BD0004004014000020B0812142B8
:100D90003FB589B000250024202101A804F0E1FD21
:100DA000AA208DF804008DF80500F1208DF80600CA
:100DB0001A208DF807009DF825008DF808009DF891
:100DC00024008DF809009DF829008DF80A009DF88F
:100DD00028008DF80B009DF82D008DF80C009DF873
:100DE0002C008DF80D009DF831008DF80E009DF857
:100DF00030008DF80F009DF841008DF810009DF82F
:100E000040008DF811009DF845008DF812009DF806
:100E100044008DF8130000BF05E001A8005D2844E0
:100E2000C5B2601CC4B21F2CF7DB8DF82350002420
:100E30000DE001A8015DFE4803F0A8FB00BF4021C2
:100E4000FB4803F011FC0128F9D1601CC4B21F2C2F
:100E5000EFDB0DB030BD30B589B000250024202176
:100E600001A804F07EFDAA208DF804008DF805008D
:100E700002208DF8060012208DF80700ED48C07999
:100E80008DF80800EB4880798DF80900E948407A30
:100E90008DF80A00E748007A8DF80B00E548C07A23
:100EA0008DF80C00E348807A8DF80D00E14890F849
:100EB0003F008DF80E00DF4890F83E008DF80F00DF
:100EC000DC4890F841008DF81000DA4890F84000B6
:100ED0008DF81100D74890F843008DF81200D548DE
:100EE00090F842008DF81300D24890F871008DF808
:100EF0001400D04890F870008DF81500CD4890F897
:100F000073008DF81600CB4890F872008DF817002A
:100F1000C84890F875008DF81800C64890F874001D
:100F20008DF8190000BF05E001A8005D284405B256
:100F3000601C04B2162CF7DBE8B28DF81A0000240E
:100F40000DE001A8015DBA4803F020FB00BF40217D
:100F5000B74803F089FB0128F9D1601C04B2172CB3
:100F6000EFDB09B030BD70B58AB000250024202128
:100F700001A804F0F6FCAA208DF804008DF8050005
:100F800001208DF806000C208DF80700AA4948685A
:100F9000AA4906F007F8064605F09CFF00B2099042
:100FA0009DF825008DF808009DF824008DF80900B3
:100FB000A1490868A14905F0F5FF064605F08AFF3A
:100FC00000B209909DF825008DF80A009DF82400D4
:100FD0008DF80B0098498868984905F0E3FF0646AC
:100FE00005F078FF00B209909DF825008DF80C00FF
:100FF0009DF824008DF80D008F4840798DF80D0084
:101000008D4800798DF80E008B48C07A8DF80F005E
:101010008948807A8DF810008748407A8DF8110051
:10102000002009909DF824008DF8130000BF05E012
:1010300001A8005D2844C5B2601CC4B2102CF7DBC7
:101040008DF8145000240DE001A8015D784803F0EC
:101050009DFA00BF4021764803F006FB0128F9D134
:10106000601CC4B2112CEFDB0AB070BD30B589B082
:1010700000250024202101A804F073FCAA208DF88B
:1010800004008DF8050003208DF8060008208DF877
:10109000070000BF05E001A8005D2844C5B2601C40
:1010A000C4B21F2CF7DB8DF8235000240DE001A8FB
:1010B000015D5F4803F06AFA00BF40215C4803F01D
:1010C000D3FA0128F9D1601CC4B21F2CEFDB09B0A0
:1010D00030BD30B589B000250024202101A804F0DE
:1010E00040FCAA208DF804008DF8050006208DF83C
:1010F000060010208DF8070000BF05E001A8005D84
:101100002844C5B2601CC4B21F2CF7DB8DF82350F5
:1011100000240DE001A8015D454803F037FA00BF47
:101120004021434803F0A0FA0128F9D1601CC4B261
:101130001F2CEFDB09B030BD30B589B0002500248D
:10114000202101A804F00DFCAA208DF804008DF8E0
:1011500005000A208DF8060012208DF8070000BF58
:1011600005E001A8005D2844C5B2601CC4B2162C7D
:10117000F7DB8DF8185000240DE001A8015D2C4824
:1011800003F004FA00BF4021294803F06DFA01285A
:10119000F9D1601CC4B2172CEFDB09B030BD30B5FB
:1011A00089B000250024202101A804F0DAFBAA2040
:1011B0008DF804008DF805000B208DF80600122034
:1011C0008DF8070000BF05E001A8005D2844C5B206
:1011D000601CC4B21F2CF7DB8DF8235000240DE0F7
:1011E00001A8015D124803F0D1F900BF4021104869
:1011F00003F03AFA0128F9D1601CC4B21F2CEFDBCE
:1012000009B030BD30B589B000250024202101A8E7
:1012100004F0A7FBAA208DF804008DF805000C202F
:101220008DF8060012208DF8070000BF0EE00000C8
:1012300000380140CC000020B80100200000C84266
:1012400001A8005D2844C5B2601CC4B21F2CF7DBA6
:101250008DF8235000240DE001A8015DE14803F062
:1012600095F900BF4021DF4803F0FEF90128F9D1CC
:10127000601CC4B21F2CEFDB09B030BD30B589B0A3
:1012800000250024202101A804F06BFBAA208DF882
:1012900004008DF805000D208DF8060012208DF851
:1012A000070000BF05E001A8005D2844C5B2601C2E
:1012B000C4B21F2CF7DB8DF8235000240DE001A8E9
:1012C000015DC84803F062F900BF4021C54803F042
:1012D000CBF90128F9D1601CC4B21F2CEFDB09B097
:1012E00030BD30B589B000250024202101A804F0CC
:1012F00038FBAA208DF804008DF805000E208DF82B
:10130000060012208DF8070000BF05E001A8005D6F
:101310002844C5B2601CC4B21F2CF7DB8DF82350E3
:1013200000240DE001A8015DAE4803F02FF900BFD5
:101330004021AC4803F098F90128F9D1601CC4B2EF
:101340001F2CEFDB09B030BD30B589B0002500247B
:10135000202101A804F005FBAA208DF804008DF8D7
:1013600005000F208DF8060012208DF8070000BF41
:1013700005E001A8005D2844C5B2601CC4B21F2C62
:10138000F7DB8DF8235000240DE001A8015D95489E
:1013900003F0FCF800BF4021924803F065F90128F2
:1013A000F9D1601CC4B21F2CEFDB09B030BDF0B521
:1013B00089B005460E4600270024202101A804F02C
:1013C000D0FAAA208DF804008DF80500EF208DF8E2
:1013D000060002208DF807008DF808508DF809608E
:1013E00000BF05E001A8005D3844C7B2601CC4B26C
:1013F000042CF7DB8DF8087000240DE001A8015DD6
:10140000784803F0C3F800BF4021764803F02CF978
:101410000128F9D1601CC4B21F2CEFDB09B0F0BD6C
:101420002DE9F04104460D460026002704E0E05D6A
:101430003044C6B2781CC7B2681EB842F7DC6019E7
:1014400010F8010CB04201D0BDE8F0812078AA2844
:1014500002D16078AF2800D0F6E7A07801282BD120
:101460002079012805D1604981F83600FFF74CF951
:1014700022E02079022804D101215B4880F86E1017
:101480001AE02079032808D10120574981F8360055
:101490000121554880F86E100EE02079042804D10F
:1014A0000121514880F8A61006E02079212802DBAE
:1014B0002079262800DD00BFA078022816D12079E7
:1014C000012812D1FFF738FEFFF769FEFFF79AFEF9
:1014D000FFF7D4FEFFF705FFFFF736FFA078314690
:1014E000FFF765FF01204149086000BFA078102880
:1014F00003D1A0783146FFF75AFFA078112803D115
:10150000A0783146FFF753FF00BF9DE710B50446B2
:101510003748007838B9AA2C05D101203449087021
:10152000344804705DE032480078012807D1AF2CC0
:1015300005D102202E4908702E48447051E02C48F5
:101540000078022807D1F12C05DA03202849087019
:101550002848847045E02648007803280CD1322CB6
:101560000ADA0420224908702248C4702248047014
:1015700000202249087034E01D480078042819D161
:101580001D480078002815DD1B480078401E1A49C8
:1015900008701A48007819490978491C174A1170CF
:1015A000001D14490C5414480078D0B90520104986
:1015B000087016E00E48007805280FD100200C496D
:1015C00008700E480078001D0A490C540B4800783A
:1015D000401DC1B20748FFF723FF02E00020044985
:1015E000087010BD00380140CC000020B8812142B5
:1015F0001C000020840100201A0000201B00002095
:1016000070B5FEF786FFFE48B0F90000FC49B1F95D
:101610001210401AFA4948620846B0F90210B0F9AF
:101620001400091AF6488162B0F90410C162018FF2
:10163000B0F84A00081A00B2F14908870846418FFD
:10164000B0F84C00081A01B2ED484187818FB0F81C
:101650004E00081A01B2EA4881870146B1F9380004
:1016600005F054FC0546E649B1F93E0005F04EFC94
:101670000646E44A294601F07DFD044605F02AFCB1
:1016800001B2DF48C1870146B1F93A0005F03EFCDE
:101690000546DB49B1F9400005F038FC0646D94A59
:1016A000294601F067FD044605F014FC01B2D44858
:1016B000A0F840100146B1F93C0005F027FC0546B2
:1016C000CF49B1F9420005F021FC0646CE4A294631
:1016D00001F050FD044605F0FDFB01B2C848A0F83A
:1016E00042100146486A05F011FC0546C449B1F9AB
:1016F000060005F00BFC0646C24A294601F03AFDF9
:10170000044605F0E7FB00B2BD49C880886A05F0D1
:10171000FDFB0546BA49B1F9080005F0F7FB06469E
:10172000B84A294601F026FD044605F0D3FB01B274
:10173000B34801810146C86A05F0E8FB0546B04997
:10174000B1F90A0005F0E2FB0646AE4A294601F06F
:1017500011FD044605F0BEFB01B2A94841810146D6
:10176000B1F9060005F0D2FBA5498861B1F908007E
:1017700005F0CCFBA249C861B1F90A0005F0C6FB2F
:101780009F490862B1F93E0005F0C0FB04469F493D
:1017900005F008FC9A490865B1F9400005F0B6FB70
:1017A00004469A4905F0FEFB01469548416501460D
:1017B000B1F9420005F0AAFB0446944905F0F2FB9A
:1017C00001468F48816570BD0FB5C3B09048016870
:1017D000006805F0E7FB0F9005F0ECF9CDE9220178
:1017E0008C4801688A48006805F0DCFB0F9005F022
:1017F000E1F9CDE92001884801688548006805F0D5
:10180000D1FB0F9005F0D6F9CDE91E0183480168A0
:101810007F48006805F0C6FB0F9005F0CBF9CDE9D5
:101820001C017C480168006805F0BCFB0F9005F0C6
:10183000C1F9CDE91A01784801687648006805F0D9
:10184000B1FB0F9005F0B6F9CDE9180173480168B6
:101850007048006805F0A6FB0F9005F0ABF9CDE9E4
:1018600016016D480168006805F09CFB0F9005F0BB
:10187000A1F9CDE91401694801686748006805F0DD
:1018800091FB0F9005F096F9CDE9120163480168CC
:10189000006805F087FB0F9005F08CF9CDE9100189
:1018A0004899469805F07EFB0E90499905F07AFB21
:1018B00000210F9005F0DAFA01D147B000BD499937
:1018C000084605F06FFB0D904899084605F06AFB45
:1018D0000B904699084605F065FB0A900B9905F0B8
:1018E00095F90C900D9905F091F90E9001F05EFCC0
:1018F0000F9005F05FF941914090469805F05AF934
:10190000CDE90C01419B409A04F07AFECDE90E012D
:1019100004F03CFC4690489805F04CF9CDE90C01E8
:10192000419B409A04F06CFECDE90E0104F02EFCC0
:101930004890499805F03EF9CDE90C01419B409A49
:1019400004F05EFECDE90E0104F020FC49904C99B4
:10195000084605F027FB0D904B99084605F022FB41
:101960000B904A99084605F01DFB0A900B9905F06B
:101970004DF90C900D9905F049F90E9001F016FC07
:101980000F9005F017F9419140904A9805F012F92F
:10199000CDE90C01419B409A04F032FECDE90E01E5
:1019A00004F0F4FB4A904B9805F004F9CDE90C01E2
:1019B000419B409A04F024FECDE90E0104F0E6FBC1
:1019C0004B904C9805F0F6F8CDE90C01419B409AFC
:1019D00004F016FECDE90E0104F0D8FB4C90DDE9D1
:1019E0001E23DDE9160104F003FCCDE90A014FF0E6
:1019F00080404C9905F0D6FA079005F0DBF80FE02F
:101A0000CC000020CDCCCC3DCDCC4C3DE4A40B3A59
:101A10004000002044000020480000204C0000202E
:101A2000CDE90801DDE90A2304F0EAFDCDE90E0164
:101A3000DDE91C23DDE9180104F0D2FFCDE9060140
:101A40004FF080404B9905F0ADFA039005F0B2F8E5
:101A5000CDE90401DDE9062304F0D2FDCDE90A0158
:101A60000020FE49DDE9142304F0BAFFCDE90201AC
:101A7000DDE9102304F0B4FFCDE906014FF080400A
:101A80004A9905F08FFA039005F094F8CDE9040126
:101A9000DDE9062304F0B4FDCDE90801DDE90A2300
:101AA00004F0A6FBCDE90C01DDE90E2304F0A0FB58
:101AB000CDE93E01DDE92023DDE9120104F090FFCC
:101AC000CDE90A014FF080404C9905F06BFA079080
:101AD00005F070F8CDE90801DDE90A2304F090FD76
:101AE000CDE90E010020DD49DDE91A2304F078FF7D
:101AF000CDE90201DDE9102304F072FFCDE9060112
:101B00004FF080404B9905F04DFA039005F052F8E4
:101B1000CDE90401DDE9062304F072FDCDE90A01F7
:101B2000DDE91C23DDE9180104F062FBCDE90601C3
:101B30004FF080404A9905F035FA039005F03AF8E5
:101B4000CDE90401DDE9062304F05AFDCDE90801E1
:101B5000DDE90A2304F04CFBCDE90C01DDE90E239D
:101B600004F046FBCDE93C010020BC49DDE91A2325
:101B700004F036FFCDE90601DDE9142304F030FF5F
:101B8000CDE90A014FF080404C9905F00BFA07901F
:101B900005F010F8CDE90801DDE90A2304F030FD75
:101BA000CDE90E01DDE92023DDE9120104F020FB7F
:101BB000CDE906014FF080404B9905F0F3F9039011
:101BC00004F0F8FFCDE90401DDE9062304F018FD77
:101BD000CDE90A01DDE91E23DDE9160104F000FF6D
:101BE000CDE906014FF080404A9905F0DBF90390FA
:101BF00004F0E0FFCDE90401DDE9062304F000FD77
:101C0000CDE90801DDE90A2304F0F2FACDE90C017F
:101C1000DDE90E2304F0ECFACDE93A01DDE93C23DD
:101C20001046194604F0ECFCCDE90C01DDE93E2339
:101C30001046194604F0E4FCCDE90A01DDE90C2365
:101C400004F0D6FACDE90E0104F07AFACDE93801B4
:101C5000DDE93A01CDE93601DDE91E23DDE91601B2
:101C600004F0BEFE00224FF08043CDE90E0104F0E7
:101C7000C7FCCDE93401DDE91223DDE9200104F0E0
:101C8000B7FA00224FF08043CDE90E0104F0B8FC12
:101C9000CDE93201DDE91A23DDE9220104F0A0FEDD
:101CA000CDE90C01DDE9142304F09AFECDE90E0123
:101CB000DDE9102304F09CFACDE93001DDE91E23B3
:101CC000DDE9160104F08CFECDE90A0100204FF099
:101CD0008041DDE9362304F093FCCDE90801DDE91C
:101CE0000A2304F08DFCCDE90E0100205B49DDE9FB
:101CF000142304F075FECDE90601DDE9102304F09C
:101D00006FFECDE90A0100204FF08041DDE9382364
:101D100004F076FCCDE90801DDE90A2304F070FC4B
:101D2000CDE90C01DDE90E2304F062FACDE92E01C4
:101D3000DDE91223DDE9200104F05AFACDE90A01B8
:101D400000204FF08041DDE9362304F059FCCDE955
:101D50000801DDE90A2304F053FCCDE90E01DDE9B9
:101D60001C23DDE9180104F03BFECDE90A01002047
:101D70004FF08041DDE9382304F042FCCDE9080151
:101D8000DDE90A2304F03CFCCDE90C01DDE90E237A
:101D900004F02EFACDE92C0100203049DDE91A23A8
:101DA00004F01EFECDE90601DDE9142304F018FE5F
:101DB000CDE90A0100204FF08041DDE9362304F02F
:101DC0001FFCCDE90801DDE90A2304F019FCCDE987
:101DD0000E01DDE91623DDE91E0104F009FACDE963
:101DE0000A0100204FF08041DDE9382304F008FCAF
:101DF000CDE90801DDE90A2304F002FCCDE90C017C
:101E0000DDE90E2304F0F4F9CDE92A014C9804F041
:101E1000D1FECDE90601DDE92C2304F0F1FBCDE98B
:101E20000A014B9804F0C6FECDE90601DDE92A233C
:101E300004F0E6FBCDE90801DDE90A2304F0D0FD5A
:101E4000CDE90E01499804F0B5FECDE90601DDE9C2
:101E5000322304F0D5FBCDE90A0101E00000E03FA8
:101E6000489804F0A7FECDE90601DDE9302304F02F
:101E7000C7FBCDE90801DDE90A2304F0B1FDCDE996
:101E80000C01DDE90E2304F0B3F9CDE928014A98ED
:101E900004F090FECDE90601DDE92A2304F0B0FB51
:101EA000CDE90A014C9804F085FECDE90601DDE993
:101EB0002E2304F0A5FBCDE90801DDE90A2304F097
:101EC0008FFDCDE90E01469804F074FECDE90601C0
:101ED000DDE9302304F094FBCDE90A01499804F0D0
:101EE00069FECDE90601DDE9342304F089FBCDE983
:101EF0000801DDE90A2304F073FDCDE90C01DDE9F9
:101F00000E2304F075F9CDE926014B9804F052FE3A
:101F1000CDE90601DDE92E2304F072FBCDE90A01CB
:101F20004A9804F047FECDE90601DDE92C2304F0D0
:101F300067FBCDE90801DDE90A2304F051FDCDE995
:101F40000E01489804F036FECDE90601DDE93423A0
:101F500004F056FBCDE90A01469804F02BFECDE9CA
:101F60000601DDE9322304F04BFBCDE90801DDE990
:101F70000A2304F035FDCDE90C01DDE90E2304F060
:101F800037F9CDE92401FE48006804F013FECDE9DD
:101F90000801DDE9280104F0F9F8029001F060F988
:101FA000039004F007FECDE90401DDE9282304F0E5
:101FB00027FBCDE90601DDE9082304F021FBCDE98B
:101FC0000C01F048006804F0F5FDCDE90A01DDE9F7
:101FD0000C2304F00DF9CDE90E0104F0D7F8E9491E
:101FE0000860E748006804F0E5FDCDE90801DDE997
:101FF000260104F0CBF8029001F032F9039004F0CE
:10200000D9FDCDE90401DDE9262304F0F9FACDE993
:102010000601DDE9082304F0F3FACDE90C01DA4802
:10202000006804F0C7FDCDE90A01DDE90C2304F0E6
:10203000DFF8CDE90E0104F0A9F8D3490860D048D3
:10204000006804F0B7FDCDE90801DDE9240104F0E2
:102050009DF8029001F004F9039004F0ABFDCDE986
:102060000401DDE9242304F0CBFACDE90601DDE922
:10207000082304F0C5FACDE90C01C448006804F057
:1020800099FDCDE90A01DDE90C2304F0B1F8CDE9B1
:102090000E0104F07BF8BD490860BA48006804F0FE
:1020A00089FDCDE90C01DDE9280104F06FF801900C
:1020B00001F0D6F80290B6480168029804F072FF69
:1020C000039004F077FDCDE90401DDE9282304F055
:1020D00097FACDE90801439804F06CFDCDE90601BB
:1020E000DDE9082304F084F8CDE90A01DDE90C23D9
:1020F00004F07EF8CDE90E0104F048F84390A248C0
:10210000006804F057FDCDE90C01DDE9260104F07B
:102110003DF8019001F0A4F802909D4801680298F2
:1021200004F040FF039004F045FDCDE90401DDE932
:10213000262304F065FACDE90801449804F03AFD3D
:10214000CDE90601DDE9082304F052F8CDE90A01E2
:10215000DDE90C2304F04CF8CDE90E0104F016F88B
:1021600044908A48006804F025FDCDE90C01DDE9C2
:10217000240104F00BF8019001F072F802908448F9
:102180000168029804F00EFF039004F013FDCDE9FE
:102190000401DDE9242304F033FACDE90801459870
:1021A00004F008FDCDE90601DDE9082304F020F87C
:1021B000CDE90A01DDE90C2304F01AF8CDE90E019E
:1021C00003F0E4FF45906E48006804F0F3FCCDE9AD
:1021D00008014FF080406F49DDE9282304F010FA30
:1021E000CDE90601DDE9082304F00AFACDE90C0186
:1021F0006448006804F0DEFCCDE90A01DDE90C2347
:1022000003F0F6FFCDE90E0103F0C0FF5D49086061
:102210005B48006804F0CEFCCDE908014FF0804037
:102220005C49DDE9262304F0EBF9CDE90601DDE99F
:10223000082304F0E5F9CDE90C015348006804F0E7
:10224000B9FCCDE90A01DDE90C2303F0D1FFCDE9AA
:102250000E0103F09BFF4C4908604948006804F0F8
:10226000A9FCCDE908014FF080404A49DDE924236B
:1022700004F0C6F9CDE90601DDE9082304F0C0F950
:10228000CDE90C014148006804F094FCCDE90A0155
:10229000DDE90C2303F0ACFFCDE90E0103F076FF7E
:1022A0003A4908603748006804F084FCCDE90C0125
:1022B0003748006804F07EFCCDE90401DDE92823FD
:1022C00004F09EF9CDE90801439804F073FCCDE9D0
:1022D0000601DDE9082303F08BFFCDE90A01DDE902
:1022E0000C2303F085FFCDE90E0103F04FFF43906F
:1022F0002548006804F05EFCCDE90C012448006824
:1023000004F058FCCDE90401DDE9262304F078F956
:10231000CDE90801449804F04DFCCDE90601DDE962
:10232000082303F065FFCDE90A01DDE90C2303F082
:102330005FFFCDE90E0103F029FF449013480068C8
:1023400004F038FCCDE90C011148006804F032FCBF
:10235000CDE90401DDE9242304F052F9CDE90801B7
:10236000459804F027FCCDE90601DDE9082303F0D8
:102370003FFFCDE90A01DDE90C2303F039FF0BE053
:102380003C00002050000020540000205800002095
:1023900038000020E17A743FCDE90E0103F0F6FE2B
:1023A0004590FE484599006804F0FCFD0D90FC48FE
:1023B0004499006804F0F6FD0B90FA48006880F03C
:1023C00000400990439904F0EDFD0A900B9904F048
:1023D000F1FE0C900D9904F0EDFEF3490E9004F01F
:1023E000E1FD0F90F14801680F9804F00FFCEF49F0
:1023F0000860EA484499006804F0D4FD0D90E8486C
:102400004599006804F0CEFD0B90E84801684398B8
:1024100004F0C8FD0A900B9904F0F8FB0C900D999C
:1024200004F0C8FEE0490E9004F0BCFD0F90DD48BA
:1024300001680F9804F0EAFBDA490860D7480168A0
:10244000439804F0AFFD0D90D6484599006804F01C
:10245000A9FD0B90D5484499006804F0A3FD0A90AB
:102460000B9904F0A7FE0C900D9904F0CFFBCE4918
:102470000E9004F097FD0F90C94801680F9804F082
:10248000C5FBC749086008460168439804F08AFD07
:102490000D90C4484499006804F084FD0B90C34833
:1024A0004599006804F07EFD0A900B9904F0AEFB9C
:1024B0000C900D9904F07EFEBB490E9004F072FD65
:1024C0000F90B64801680F9804F0A0FBB34908606C
:1024D000DDE91A23DDE9220103F08AFECDE90801D6
:1024E000DDE9142303F084FECDE90A01DDE91023C0
:1024F00003F07EFECDE90C0103F048FE0E9000F0E3
:1025000055FE0F9004F056FB41914090A74800689B
:1025100004F050FBCDE90C01419B409A04F070F8A7
:10252000CDE90E0103F032FEA04908609D48006825
:1025300004F040FBCDE90C01419B409A04F060F8A7
:10254000CDE90E0103F022FE964908609448006828
:1025500004F030FBCDE90C01419B409A04F050F8A7
:10256000CDE90E0103F012FE8D4908608B4800682A
:1025700004F020FBCDE90C01419B409A04F040F8A7
:10258000CDE90E0103F002FE8449086008460168A7
:102590004FF0804004F006FD0390804801680398E6
:1025A00004F000FD05907E4801684FF0404004F0C3
:1025B000F9FC03907A480168039804F0F3FC049056
:1025C000059904F0F7FD4FF07E51069004F01EFBD4
:1025D000079004F0EFFACDE90A01744801684FF062
:1025E000804004F0DFFC04906C480168049804F01B
:1025F000D9FC06906B4801684FF0804004F0D2FC93
:10260000049067480168049804F0CCFC0590069992
:1026100004F0FCFA079004F0CDFACDE90801DDE9F9
:102620000A2303F0CDFC81F000414FF0C042604B23
:10263000CDE90C0103F0E4FFCDE90E0103F0A6FDA6
:102640005C498860564801684FF0804004F0AAFC5D
:10265000039053480168039804F0A4FC0590514886
:1026600001684FF0404004F09DFC03904D48016824
:10267000039804F097FC0490059904F09BFD4FF03B
:102680007E51069004F0C2FA079004F093FACDE967
:102690000A01464801684FF0804004F083FC049032
:1026A00040480168049804F07DFC06903C480168AD
:1026B0004FF0804004F076FC04903848016804989C
:1026C00004F070FC0590069904F0A0FA079004F05D
:1026D00071FACDE90801DDE90A2303F071FC4FF03E
:1026E000C042334BCDE90C0103F08AFFCDE90E0166
:1026F00003F04CFD2F4948602C4801684FF08040A2
:1027000004F050FC069026480168069804F04AFC44
:102710000890244801684FF0404004F043FC0690C4
:102720001E480168069804F03DFC0790089904F0E3
:102730006DFA099004F03EFACDE90A0103F0F8F9C8
:102740004FF0C0421A4BCDE90C0103F059FFCDE91F
:102750000E0103F01BFD1749086000BFFFF7ADB87D
:102760002DE9F04385B0FEF74BFF1349B1F9740032
:1027700004F0CCFB04461049B1F9720004F0C6FB2A
:1027800005460D49B1F9700004F0C0FB06460A4940
:10279000B1F90A0004F0BAFB07460FE04C00002034
:1027A00048000020440000200AD7A33B400000203E
:1027B00094A94C40B8010020CC000020FE49B1F99A
:1027C000080004F0A3FB8046FB49B1F9060004F0C1
:1027D0009DFB8146F84BCDE90087CDE90265049465
:1027E0009A6D596D186D4B46FEF7EEFF05B0BDE8CA
:1027F000F0830FB5A3B0F1480168006804F0D2FB84
:102800002190EF480168ED48006804F0CBFB209070
:10281000EC480168E948006804F0C4FB1F90E848F0
:102820000168006804F0BEFB1E90E7480168E448B8
:10283000006804F0B7FB1D90E2480168006804F0EE
:10284000B1FB1C90E0480168DE48006804F0AAFB78
:102850001B90DD480168006804F0A4FB1A90DB4877
:102860000168006804F09EFB1390D9480168006875
:1028700004F098FB1290D7480168006804F092FBBE
:102880001190D5480168006804F08CFB1090D14885
:102890000168CF48006804F085FB0F90CE480168BE
:1028A000CA48006804F07EFB0E90CB48259900686A
:1028B00004F078FB0B90C7482499006804F072FB81
:1028C0000990C348006880F000400790239904F005
:1028D00069FB0890099904F06DFC0A900B9904F0CB
:1028E00069FCBE490C9004F05DFB0D90B74801688F
:1028F0000D9804F08BF9B5490860B7482499006831
:1029000004F050FB0B90B3482599006804F04AFB93
:102910000990AE480168239804F044FB0890099997
:1029200004F074F90A900B9904F044FCAB490C9044
:1029300004F038FB0D90A64801680D9804F066F984
:10294000A3490860A4480168239804F02BFB0B906E
:102950009F482599006804F025FB09909B4824991D
:10296000006804F01FFB0890099904F023FC0A900A
:102970000B9904F04BF999490C9004F013FB0D905E
:10298000944801680D9804F041F99249086008469E
:102990000168239804F006FB0B908D482499006889
:1029A00004F000FB099089482599006804F0FAFAC0
:1029B0000890099904F02AF90A900B9904F0FAFB9F
:1029C00086490C9004F0EEFA0D90834801680D984A
:1029D00004F01CF980490860DDE9121004F016F9D2
:1029E0000790119904F012F90890109904F00EF96B
:1029F000099004F0DFF8CDE90A0103F0A1FBCDE96D
:102A00000C0103F0C3FB229070482299006804F087
:102A10006BF96E4908606E482299006804F064F909
:102A20006B4908606B482299006804F05DF96949B8
:102A3000086069482299006804F056F96649086000
:102A40002899269804F0AEFA0C90299904F0AAFA75
:102A500000210D9004F00AFA01D127B000BD299998
:102A6000084604F09FFA08902899084604F09AFA5C
:102A700006902699084604F095FA0590069904F008
:102A8000C5F80790089904F0C1F8099004F092F88D
:102A9000CDE90A0103F054FBCDE90C0103F076FB0C
:102AA00022902299269804F01FF9269022992898BE
:102AB00004F01AF928902299299804F015F9299020
:102AC0001F991D9804F076FB4FF080410D9004F0A3
:102AD00069FA19901B99209804F098F84FF08041FA
:102AE0000D9004F05FFA18901E99219804F062FB93
:102AF0000C901C9904F05EFB0D901A9904F086F876
:102B000017901899299804F04DFA0D901799289864
:102B100004F048FA0C900D9904F04CFB16901799AC
:102B2000269804F03FFA0D901999299804F03AFA82
:102B30000C900D9904F03EFB15901999289804F01B
:102B400031FA0D901899269804F02CFA0C900D99F2
:102B500004F030FB149022480168169804F022FA21
:102B60000D90204801680D9804F050F81D49086048
:102B70001B480168159804F015FA0D901A48016871
:102B80000D9804F043F81849086015480168149836
:102B900004F008FA0D90154801680D9804F036F815
:102BA0001249086012481699006804F0FBF90C906D
:102BB000239904F02BF81DE0CC00002040000020F9
:102BC00044000020480000204C0000205C00002051
:102BD0006000002064000020680000200AD7A33BAA
:102BE0003C0000205000002054000020580000202D
:102BF000380000200D90ED4801680D9804F006F8AB
:102C00002390EB481599006804F0CCF90C902499B6
:102C100003F0FCFF0D90E74801680D9803F0F6FF04
:102C20002490E3481499006804F0BCF90C902599AD
:102C300003F0ECFF0D90E04801680D9803F0E6FF0B
:102C40002590DE482599006804F0ACF90B90DC482B
:102C50002499006804F0A6F90990DA48006880F029
:102C600000400790239904F09DF90890099904F019
:102C7000A1FA0A900B9904F09DFAD3490C9004F044
:102C800091F90D90D14801680D9803F0BFFFCF492D
:102C90000860CA482499006804F084F90B90C84879
:102CA0002599006804F07EF90990C84801682398C6
:102CB00004F078F90890099903F0A8FF0A900B999D
:102CC00004F078FAC0490C9004F06CF90D90BD48FE
:102CD00001680D9803F09AFFBA490860B748016887
:102CE000239804F05FF90B90B6482599006804F02A
:102CF00059F90990B5482499006804F053F90890EF
:102D0000099904F057FA0A900B9903F07FFFAE4936
:102D10000C9004F047F90D90A94801680D9803F054
:102D200075FFA749086008460168239804F03AF93E
:102D30000B90A4482499006804F034F90990A34842
:102D40002599006804F02EF90890099903F05EFFB8
:102D50000A900B9904F02EFA9B490C9004F022F98A
:102D60000D90964801680D9803F050FF9349086054
:102D70001E99219803F04AFF07901C9903F046FF23
:102D800008901A9903F042FF099003F013FFCDE970
:102D90000A0103F0D5F9CDE90C0103F0F7F922900F
:102DA0008A482299006803F09FFF88490860854897
:102DB0002299006803F098FF8249086080482299B0
:102DC000006803F091FF7E4908607C482299006802
:102DD00003F08AFF79490860084601684FF0804097
:102DE00004F0E0F8019075480168019804F0DAF801
:102DF0000390734801684FF0404004F0D3F801900D
:102E00006F480168019804F0CDF80290039904F02E
:102E1000D1F94FF07E51049003F0F8FE059003F0D5
:102E2000C9FECDE90801694801684FF0804004F00F
:102E3000B9F8029061480168029804F0B3F8049070
:102E4000604801684FF0804004F0ACF802905C48A4
:102E50000168029804F0A6F80390049903F0D6FEE6
:102E6000059003F0A7FECDE90601DDE9082303F094
:102E7000A7F881F000414FF0C042554BCDE90A015F
:102E800003F0BEFBCDE90C0103F080F951498860E5
:102E90004B4801684FF0804004F084F801904848A6
:102EA0000168019804F07EF80390464801684FF0ED
:102EB000404004F077F8019042480168019804F01E
:102EC00071F80290039904F075F94FF07E51049067
:102ED00003F09CFE059003F06DFECDE908013B4830
:102EE00001684FF0804004F05DF8029035480168B9
:102EF000029804F057F80490314801684FF0804080
:102F000004F050F802902D480168029804F04AF845
:102F10000390049903F07AFE059003F04BFECDE98F
:102F20000601DDE9082303F04BF84FF0C042284BBF
:102F3000CDE90A0103F064FBCDE90C0103F026F9A9
:102F400024494860214801684FF0804004F02AF885
:102F500004901B480168049804F024F8069019486E
:102F600001684FF0404004F01DF8049013480168D8
:102F7000049804F017F80590069903F047FE0790AF
:102F800003F018FECDE9080102F0D2FD4FF0C04277
:102F90000F4BCDE90A0103F033FBCDE90C0103F03F
:102FA000F5F80C49086000BF57E50000500000200C
:102FB0003800002054000020580000204C00002061
:102FC00048000020440000200AD7A33B4000002016
:102FD00094A94C40B80100202DE9FF5F88B09246CB
:102FE0009946DDF85CB0ABF1010004B208E0601E68
:102FF0000AEBC00103C90AEBC40203C2601E04B29B
:10300000002CF4DCDDE90801CAE9000100252E46A8
:10301000002418E0169800EBC40003C8CDE90201B3
:103020000AEBC40003C8CDE90001DDE9022303F087
:10303000E7FA2A463346CDE9040103F0D9F80546FC
:103040000E46601C04B25C45E4DB1998401E04B2D5
:1030500008E0601E09EBC00103C909EBC40203C20A
:10306000601E04B2002CF4DC0027B846012418E0EE
:10307000189800EBC40103C9CDE9020109EBC400B3
:1030800003C8CDE90001DDE9022303F0B9FA3A46AD
:103090004346CDE9040103F0ABF807468846601CBF
:1030A00004B219988442E3DB3A4643462846314647
:1030B00003F096FCC9E90001D9E90001CDE9060158
:1030C000DDE906010CB0BDE8F09F2DE9FF5F8EB091
:1030D00014461D46DDE91CABCDE90CABCDE90A4534
:1030E00000BFDDE91E01CDE90801DDE90A23DDE9C4
:1030F000200103F07DF88046894640464946DDE9D7
:103100000C2303F075F802460B46CDE90201404658
:10311000494603F01DF9CDE90401DDE90823DDE9A5
:103120000E0103F05DFCCDE90001DDE9042303F0AD
:1031300067FACDE90201DDE9082303F059F80646F4
:103140000F4600201849DDE9042303F049FC4246FC
:103150004B46CDE9020103F053FACDE90601DDE962
:103160000601CDE92001CDE91E673046394612B08F
:10317000BDE8F09F2DE9F04704460D46164631465E
:10318000284603F00FFF804631464FF07E5004F092
:1031900011F88146214603F005FF0746414603F03A
:1031A00035FDBDE8F08700000000F03F2DE9F05F3D
:1031B00004464FF07F594FF07C51204603F0F2FE59
:1031C000824625462E465348A0EB660635462946DC
:1031D000504603F0E7FE8346294603F0E3FE8046AF
:1031E000494603F0DCFF0746294603F0DBFE0546AF
:1031F0002846BDE8F09F30B50346042400200EE0C9
:1032000033F910508D4202DA23F8101005E033F93B
:103210001050954201DD23F81020451CA8B2A042B1
:10322000EEDB30BD10B502460423002003E022F897
:103230001010441CA0B29842F9DB10BD70B50646D0
:103240000D4614462946304603F078FF01D22E463B
:1032500005E02146304603F071FE00D2264670BDDF
:1032600070B5044600250021204603F067FE01D218
:1032700084F000442849204603F060FF00D2264C29
:103280002649204603F08EFE06464FF07E5103F09D
:1032900086FF05460021284603F050FE00D2002597
:1032A000284670BD10B504460021204603F046FEB6
:1032B00002D284F0004010BD2046FCE72DE9F04129
:1032C00004462146204603F06DFE07464FF080413C
:1032D00003F00AFD06464FF07E5103F060FF0546FD
:1032E0002846BDE8F0812DE9F041044621462046FC
:1032F00003F058FE8046214603F054FE0746084975
:1033000003F0F2FC0646214603F049FF0546284635
:10331000BDE8F081DF59375F9A99193F4260D53F88
:103320000000C04030B589B005460C460121082098
:1033300000F08CFF0121042000F095FF18208DF88B
:1033400007004020ADF8040003208DF8060001A915
:103350003C4800F0BFFC8020ADF8040001A93948CA
:1033600000F0B8FC4FF48070ADF8040001A93548B6
:1033700000F0B0FC4FF40070ADF8040001A9314832
:1033800000F0A8FC0020ADF81E00ADF81A00ADF862
:103390001C50ADF8184006A92B4801F093FA6020A4
:1033A000ADF808000120ADF80A000020ADF81000CB
:1033B00002A9254801F0C3FA0821234801F00EFFB5
:1033C00002A9214801F0FDFA08211F4801F00FFF72
:1033D00002A91D4801F042FB08211B4801F014FF1F
:1033E00002A9194801F085FB0821174801F015FFD3
:1033F0000121154801F0C2FD0121134801F0BEFE74
:1034000009B030BD10B5B0F57A7F01DD4FF47A70A8
:10341000B1F57A7F01DD4FF47A71B2F57A7F01DD83
:103420004FF47A72B3F57A7F01DD4FF47A73064C6C
:1034300034342080241D2180241D2280241D2380DB
:1034400010BD0000000C01400008004000B589B02C
:1034500001210C2000F0FAFE0121080300F0F6FE25
:103460000121084600F0F2FE1020ADF820008DF892
:10347000230003208DF8220008A9DF4800F02AFC71
:103480001021DD4800F0D3FC0120ADF8200008A990
:10349000DA4800F01FFC0121D84800F0CAFC0121E5
:1034A000084600F02DFD0220019000208DF8080054
:1034B0000C208DF8090001208DF80A0001A802F007
:1034C000CFF90220ADF8200048208DF8230008A98C
:1034D000CA4800F0FFFB07208DF8000000208DF89F
:1034E00001008DF8020001208DF80300684600F00D
:1034F00028FB0221C14800F09AFC00F0BCF9002131
:10350000BF4802F0E4F80020ADF80C004FF48270E0
:10351000ADF80E000020ADF81000ADF81200ADF8C7
:1035200014004FF40070ADF816001020ADF818002C
:103530000020ADF81A000720ADF81C0003A9B04820
:1035400002F020F80121AE4802F0C1F80020AD4998
:1035500008600120AC49C1F8800109B000BD2DE927
:10356000F04107460D4616460020A8490860384637
:1035700000F05AF98046002405E0FF2000F054F9DD
:103580002855601CC4B2B442F7DB01209F49086093
:103590004046BDE8F0812DE9F04107460C4615464E
:1035A00000209A490860384600F03EF9804600261F
:1035B00005E014F8010B00F037F9701CC6B2AE42FA
:1035C000F7DB0120914908604046BDE8F0811FB556
:1035D0008FA103C9CDE90201102000F090F9052266
:1035E00002A93020FFF7D7FF052269461020FFF718
:1035F000B6FF002406E002A8005DA52800D003E085
:10360000601CC4B2052CF6DB00BF052C02D00120E3
:1036100004B010BD0020FBE770B505460C46002045
:103620007A490860284600F0FFF80646204600F078
:10363000FBF801207449C1F88001304670BD70B5B7
:103640000446002071490860204600F0EDF8FF2094
:1036500000F0EAF8054601206B49C1F880012846D0
:1036600070BD70B50546102000F049F9002065498D
:10367000086020222946A020FFF78DFF012066491F
:10368000C1F890010A2000F08EF900BF5F487C3835
:1036900000680028FAD10720FFF7D1FF0446214631
:1036A0002720FFF7B9FF04F0100028B1FF21E12027
:1036B000FFF7B2FF102070BD04F0200008B12020F9
:1036C000F9E7FF20F7E770B50546102000F017F97D
:1036D0000720FFF7B4FF044621462720FFF79CFF91
:1036E00004F0400028B1FF21E220FFF795FF002001
:1036F00070BD0120FCE710B500204249086005229A
:1037000046492A20FFF747FF01212120FFF784FFC8
:1037100001212220FFF780FF28212520FFF77CFFD1
:1037200020213120FFF778FF0F212620FFF774FFBB
:103730000F212020FFF770FF01203749C1F89001C9
:1037400010BD10B500202F490860052234493020F3
:10375000FFF721FF052231492A20FFF71CFF012135
:103760002120FFF759FF01212220FFF755FF1A21E1
:103770002420FFF751FF28212520FFF74DFF2021AE
:103780003120FFF749FF07212620FFF745FF0E21D3
:103790002020FFF741FF01201F49C1F8900110BD13
:1037A00070B50446102000F0AAF80720FFF747FF85
:1037B000054629462720FFF72FFF05F0400090B16E
:1037C000202221466120FFF7CAFEFF21E220FFF7F9
:1037D00023FF0E483C30006808B9012000E00020BB
:1037E0000A493C31086070BD10B50E48FFF7D8FF9C
:1037F000022002F0ACF810BD00080140000C0140AE
:10380000003001409001214200802142808121420C
:10381000A5A5A5A5A50000000000214293730008FE
:103820008E7300088400002070B50546002405E072
:10383000601CC4B2C82C01DD002070BD02213948D3
:1038400001F0C9FF0028F3D02946364801F070FF87
:10385000002405E0601CC4B2C82C01DD0020ECE7A8
:103860000121304801F0B7FF0028F3D02D4801F0C6
:1038700061FFC0B2E1E700B587B00121042000F08C
:10388000E5FC0121080300F0E1FCE020ADF81800A0
:1038900018208DF81B0003208DF81A0006A9224875
:1038A00000F018FAE021204800F0C1FA0020ADF83D
:1038B00004004FF48270ADF806000020ADF8080057
:1038C0000220ADF80A000120ADF80C004002ADF86E
:1038D0000E003820ADF810000020ADF812000720CF
:1038E000ADF8140001A90F4801F04CFE01210D486C
:1038F00001F0EDFEFF20FFF797FF07B000BD10B508
:103900000446084800884FF6C771084005490880FA
:1039100008460088204308800121024801F0D7FEB4
:1039200010BD0000003001400008014010B56FF0EC
:10393000040000F050F92E4800682E49B0FBF1F069
:103940002D4908700846007800EB4001C1EBC0101B
:103950004FF6FF7101EAC0002849088010BD0146FA
:10396000254A12784A434FF0E0235A6100229A61B7
:103970001A46126942F001021A6100BF4FF0E022BC
:10398000106900F001021AB100F48032002AF5D06B
:103990004FF0E022126922F001024FF0E0231A6199
:1039A00000229A6170470146144A12884A434FF038
:1039B000E0235A6100229A611A46126942F001021C
:1039C0001A6100BF4FF0E022106900F001021AB145
:1039D00000F48032002AF5D04FF0E022126922F084
:1039E00001024FF0E0231A6100229A617047000043
:1039F0000000002000127A006C0000206E00002001
:103A0000014600BF704700BF394A128802F04002E9
:103A1000002AF9D0C2B2364B1B1D1A80704710B570
:103A200086B00446012144F2040000F00FFC4FF47C
:103A30000070ADF8140003208DF8160018208DF8E2
:103A4000170005A92B4800F045F94FF48060ADF848
:103A5000140004208DF8170005A9264800F03AF953
:103A600025208DF8000003208DF801008DF802005C
:103A700001208DF80300684600F063F801940020EF
:103A8000ADF80800ADF80A00ADF80C00ADF8100074
:103A90000C20ADF80E0001A9154800F07EFC0122B3
:103AA00040F22551124800F010FD0121104800F0AD
:103AB00000FD06B010BD10B50D48008800F00800EC
:103AC00018B10B48001D0088C4B240F225510848C7
:103AD00000F0E0FD58B140F22551054800F004FE29
:103AE0000348001D0088C4B22046FDF70FFD10BD3D
:103AF0000038014000080140094880470948004754
:103B0000FEE7FEE7FEE7FEE7FEE7FEE7FEE7FEE78D
:103B1000FEE7FEE704480549054A064B70470000EA
:103B2000370300083101000828020020280800207F
:103B3000280400202804002031490143314A116043
:103B4000704770B5002100230F22C47804B32D4CB8
:103B5000246804F4E064C4F5E064210AC1F10403BC
:103B6000CA40447804FA03F18478144021430901DF
:103B7000254C0678A155047804F01F050124AC40BB
:103B800005786D11AD0005F1E025C5F8004109E0AB
:103B9000047804F01F050124AC401C4D0678761112
:103BA00045F8264070BD1A4A0A400243154B1B1FB8
:103BB0001A60704739B1134A121D12680243114B43
:103BC0001B1D1A6006E00F4A121D126882430D4B3E
:103BD0001B1D1A607047042808D14FF0E0210969C5
:103BE00041F004014FF0E022116107E04FF0E021C5
:103BF000096921F004014FF0E022116170470000D3
:103C00000000FA050CED00E000E400E080E100E0D7
:103C100080FFFF1F10B50446CC48844208D1012123
:103C2000042000F02DFB0021042000F029FB46E0D9
:103C3000C748844208D10121082000F021FB00215F
:103C4000082000F01DFB3AE0C248844208D101215F
:103C5000102000F015FB0021102000F011FB2EE0D9
:103C6000BD48844208D10121202000F009FB002139
:103C7000202000F005FB22E0B848844208D1012151
:103C8000402000F0FDFA0021402000F0F9FA16E093
:103C9000B348844208D10121802000F0F1FA0021CC
:103CA000802000F0EDFA0AE0AE48844207D10121FD
:103CB000801500F0E5FA0021A01500F0E1FA10BD32
:103CC00010B50121084600F0DBFA0021012000F0C8
:103CD000D7FA10BD2DE9F04102460025002600204C
:103CE00000230024002791F803C00CF00F0591F881
:103CF00003C00CF0100CBCF1000F03D091F802C00F
:103D00004CEA050591F800C0BCF1000F31D01468F1
:103D100000202BE04FF0010C0CFA00F3B1F800C0CA
:103D20000CEA03069E4220D183004FF00F0C0CFAE0
:103D300003F7BC4305FA03FC4CEA040491F803C002
:103D4000BCF1280F06D14FF0010C0CFA00FCC2F8B0
:103D500014C00AE091F803C0BCF1480F05D14FF040
:103D6000010C0CFA00FCC2F810C0401C0828D1D38A
:103D70001460B1F800C0BCF1FF0F34DD54680020BE
:103D80002EE000F1080C4FF0010808FA0CF3B1F82E
:103D900000C00CEA03069E4221D183004FF00F0CB5
:103DA0000CFA03F7BC4305FA03FC4CEA040491F84F
:103DB00003C0BCF1280F05D100F1080C08FA0CF87B
:103DC000C2F8148091F803C0BCF1480F07D100F18C
:103DD000080C4FF0010808FA0CF8C2F81080401CDB
:103DE0000828CED35460BDE8F0814FF6FF71018002
:103DF000022181700421C17070470246002093683F
:103E00000B400BB1012000E000207047014688689C
:103E100080B2704702460020D3680B400BB10120EE
:103E200000E0002070470146C86880B27047016119
:103E30007047416170470AB1016100E0416170471C
:103E4000C16070474FF480320A43826181618261B0
:103E500082698269704702460020434B18684FF61A
:103E60008073184040EA021008433F4B18607047C7
:103E70003E49C8617047F0B50A460023002400217E
:103E8000002500F00046B6F1004F02D1364EF16930
:103E900001E0354E7168C0F3034583B200F440166B
:103EA000B6F5401F08D121F070612F4E766826F0DC
:103EB00070662D4F7E6012E000F48016B6F5801F0C
:103EC00006D1032606FA05F4A14341F0706106E02D
:103ED000460D360103FA06F6B14341F0706122B196
:103EE000460D360103FA06F6314300F00046B6F1FE
:103EF000004F02D11C4EF16101E01B4E7160F0BD1C
:103F000030B500228B071C0F0F2303FA04F2164B67
:103F100008338C1053F824309343134C08348D101D
:103F200044F8253023468C1053F824308C07240F96
:103F300000FA04F423430C4C08348D1044F8253067
:103F400030BD0A49DC3108607047000000080140BC
:103F5000000C014000100140001401400018014015
:103F6000001C0140002001400000014000002042F0
:103F7000DF48006840F00100DD49086008464068FD
:103F8000DC490840DA49486008460068DA490840D8
:103F9000D74908600846006820F480200860084679
:103FA000406820F4FE0048604FF41F0088607047AE
:103FB000CF49096821F48031CD4A11601146096862
:103FC00021F480211160B0F5803F03D0B0F5802F3F
:103FD0000ED106E0C649096841F48031C44A116037
:103FE00007E0C349096841F4A021C14A116000E01B
:103FF00000BF00BF704710B501460022002300201B
:104000004A11012A02D1BA4C236806E0022A02D1E1
:10401000B74C236A01E0B64C636A01F01F02012429
:1040200094401C400CB1012000E0002010BD38B5C8
:10403000002000900024002500BF3120FFF7DBFFA7
:1040400005460098401C00900098B0F5A06F01D084
:10405000002DF2D03120FFF7CEFF08B1012400E09F
:104060000024204638BD01460020A14A106820F0F7
:10407000F80040EAC10010607047A049086070472E
:10408000024600209A4B586820F47C1042EA010353
:104090001843974B58607047984908667047014627
:1040A0000020934A506820F0030008435060704796
:1040B0008F48406800F00C007047014600208C4A91
:1040C000506820F0F000084350607047014600201F
:1040D000874A506820F4E06008435060704701460A
:1040E0000020834A506820F4605040EAC1005060CC
:1040F000704729B17E4A527A02437D4B5A7204E0DE
:104100007B4A527A82437A4B5A7270477B49D83144
:104110000860704701460020754A506820F440400E
:104120000843506070470021714A20321170704A74
:1041300082F82010012802D004280AD104E00121CD
:104140006B4A2032117005E00521694A2032117056
:1041500000E000BF00BF70476949086070476449CC
:10416000096A0143624A116270476549443908602F
:10417000704730B500210022002400235C4D6D689B
:1041800005F00C0121B1042905D0082923D105E04F
:104190005C4D056022E05B4D05601FE0544D6D688D
:1041A00005F47012524D6D6805F48034022505EB5C
:1041B00092421CB9544D554305600BE04C4D6D685F
:1041C00005F400351DB1504D5543056002E04D4DDD
:1041D0005543056002E04B4D056000BF00BF444DF4
:1041E0006D6805F0F0010909484D6B5C0568DD401C
:1041F00045603F4D6D6805F4E061090A434D6B5C15
:104200004568DD4085603A4D6D6805F46051C90A26
:104210003E4D6B5C4568DD40C560354D6D6805F40D
:104220004041890B3A4D6B5CC568B5FBF3F5056100
:1042300030BD29B12E4A526902432D4B5A6104E028
:104240002B4A526982432A4B5A61704729B1284A46
:1042500092690243264B9A6104E0254A926982439F
:10426000234B9A61704729B1214AD2690243204BFE
:10427000DA6104E01E4AD26982431D4BDA6170475D
:1042800029B11B4AD2680243194BDA6004E0184A8C
:10429000D2688243164BDA60704729B1144A12691A
:1042A0000243134B1A6104E0114A12698243104B16
:1042B0001A61704712494039086070470F49C86455
:1042C00070470B49C87170470948406A40F08070D8
:1042D00007494862704701460020054A92680A4033
:1042E0000AB1012000E00020704701498872704740
:1042F000001002400000FFF8FFFFF6FE00004242FF
:104300008004424200127A0000093D007000002043
:104310008000002010B50446FB48844209D10121E9
:104320008803FFF7ADFF00214FF48040FFF7A8FF9F
:1043300032E0F648844209D101214804FFF7ADFF7D
:1043400000214FF40030FFF7A8FF25E0F048844239
:1043500009D101218804FFF7A0FF00214FF480203C
:10436000FFF79BFF18E0EB48844209D10121C80404
:10437000FFF793FF00214FF40020FFF78EFF0BE0C3
:10438000E548844208D101210805FFF786FF002196
:104390004FF48010FFF781FF10BD2DE9F04786B084
:1043A00005460E460024A24600BFA1460027B0895C
:1043B00000B100BF2F462C8A4CF6FF700440F088F5
:1043C00004432C82AC894EF6F3100440B088318946
:1043D0000843718908430443AC81AC8A4FF6FF401F
:1043E0000440B0890443AC8201A8FFF7C2FEC6486E
:1043F000874202D1DDF810A001E0DDF80CA0A88909
:1044000000F4004040B10AEBCA0000EB0A1031682A
:104410004900B0FBF1F807E00AEBCA0000EB0A1014
:1044200031688900B0FBF1F86420B8FBF0F00401BA
:104430002009642101FB1089A88900F4004040B1E3
:10444000322000EBC900B0FBF1F000F0070004439C
:1044500008E0322000EB09106421B0FBF1F000F01D
:104460000F0004432C8106B0BDE8F0874FF41651CD
:10447000016000218180C18001810C2141810021E6
:104480008181704710B502460020108A4FF2FF0369
:1044900018400B884C8823438C882343CC882343C3
:1044A0001843108210BD0021018041808180C180AD
:1044B000704721B1828942F40052828104E08289EE
:1044C0004DF6FF731A4082817047F0B50346002411
:1044D00000260025002040F66A17B94200D100BF2F
:1044E0001846C1F3421401F01F06012707FA06F52A
:1044F000012C01D10C3004E0022C01D1103000E07D
:1045000014301AB107682F43076002E00768AF4311
:104510000760F0BD1AB1838A0B43838202E0838A6D
:104520008B4383827047028A4FF6F0731A400282EF
:10453000028A0A430282704782894FF2FF731A404F
:10454000828182890A438281704721B1828942F047
:104550000202828104E082894FF6FD731A40828153
:104560007047028A4FF6DF731A400282028A0A43BA
:104570000282704721B1028A42F48042028204E042
:10458000028A4BF6FF731A4002827047C1F3080299
:104590008280704701468888C0F30800704781898F
:1045A00041F0010181817047028BD2B20283028BFC
:1045B00042EA012202837047028B02F47F420283A7
:1045C000028B0A430283704721B1828A42F02002A3
:1045D000828204E0828A4FF6DF731A40828270473B
:1045E00021B1828A42F01002828204E0828A4FF670
:1045F000EF731A408282704721B1828A42F008022A
:10460000828204E0828A4FF6F7731A4082827047F2
:1046100021B1828942F40042828103E08289C2F39F
:104620000E028281704721B1828A42F40062828246
:1046300004E0828A4FF2FF731A4082827047828AB6
:104640004FF6FB731A408282828A0A438282704745
:1046500021B1828A42F00202828204E0828A4FF60D
:10466000FD731A408282704702460020B1F5007F38
:1046700000D100BF13880B400BB1012000E00020E7
:10468000704701F40072B2F5007F00D100BFCA4349
:104690000280704770B502460024002300250020E8
:1046A00040F66A16B14200D100BFC1F3421501F0D5
:1046B0001F03012606FA03F3012D02D19689334028
:1046C00006E0022D02D1168A334001E0968A33407B
:1046D0000C12012606FA04F41688344013B10CB10A
:1046E000012000E0002070BD10B50022002340F63C
:1046F0006A14A14200D100BF0A1201249440A3B25F
:10470000DC43048010BD000000380140004400403C
:1047100000480040004C00400050004010B50446E6
:10472000FE48844208D10121C014FFF7A9FD0021F1
:10473000E014FFF7A5FDC4E0B4F1804F08D10121DA
:104740000846FFF7AAFD00210120FFF7A6FDB8E00B
:10475000F348844208D101210220FFF79EFD002189
:104760000220FFF79AFDACE0EE48844208D1012117
:104770000420FFF792FD00210420FFF78EFDA0E04A
:10478000E948844208D101210820FFF786FD002175
:104790000820FFF782FD94E0E448844208D101211B
:1047A0001020FFF77AFD00211020FFF776FD88E04A
:1047B000DF48844208D101212020FFF76EFD00214F
:1047C0002020FFF76AFD7CE0DA48844208D101210D
:1047D0004014FFF755FD00216014FFF751FD70E014
:1047E000D548844209D10121C804FFF749FD0021C1
:1047F0004FF40020FFF744FD63E0D048844209D124
:1048000001210805FFF73CFD00214FF48010FFF760
:1048100037FD56E0CA48844209D101214805FFF717
:104820002FFD00214FF40010FFF72AFD49E0C54895
:10483000844208D101214020FFF72FFD00214020B4
:10484000FFF72BFD3DE0C048844208D101218020C4
:10485000FFF723FD00218020FFF71FFD31E0BB485B
:10486000844208D101218015FFF717FD0021A01512
:10487000FFF713FD25E0B648844209D10121080461
:10488000FFF7FEFC00214FF48030FFF7F9FC18E041
:10489000B048844209D101214804FFF7F1FC00210E
:1048A0004FF40030FFF7ECFC0BE0AB48844208D13A
:1048B00001218804FFF7E4FC00214FF48020FFF77A
:1048C000DFFC10BD00220288944B98420ED0994B19
:1048D00098420BD0B0F1804F08D0914B984205D050
:1048E000904B984202D0904B984204D14FF68F7370
:1048F0001A404B881A438D4B984207D08C4B9842F4
:1049000004D04FF6FF431A40CB881A4302808B88AD
:1049100083850B880385814B98420BD0854B984249
:1049200008D08B4B984205D08A4B984202D08A4BD4
:10493000984201D10B7A038601238382704770B5B8
:10494000002400220023058C4FF6FE7635400584B6
:10495000028C8388048B4FF68F752C40B51E2C403B
:104960000D882C43751E2A400D892A434D882A4301
:104970006A4DA8420BD06F4DA84208D0744DA84292
:1049800005D0744DA84202D0734DA84213D14FF602
:10499000F7752A404D892A434FF6FB752A408D88CA
:1049A0002A434FF6FF652B404FF6FF552B408D896C
:1049B0002B43CD892B4383800483CD888586028455
:1049C00070BD70B5002400220023058C4FF6EF76F1
:1049D00035400584028C8388048B48F6FF752C4093
:1049E0004FF6FF452C400D884FF6FF7606EA052569
:1049F0002C434FF6DF752A400D8906EA05152A4338
:104A00004D8806EA05152A43444DA84202D0494D77
:104A1000A8421DD14FF67F752A404D894FF6FF768B
:104A200006EA05152A434FF6BF752A408D8806EA27
:104A300005152A434FF6FF352B404FF2FF752B40EB
:104A40008D8906EA85052B43CD8906EA85052B432A
:104A500083800483CD880587028470BD70B50024EF
:104A600000220023058C4FF6FF6635400584028C3A
:104A70008388848B4FF68F752C404FF6FC752C4045
:104A80000D882C434FF6FF552A400D894FF6FF76CF
:104A900006EA05252A434D8806EA05252A431F4DC7
:104AA000A84202D0234DA8421DD14FF2FF752A40E3
:104AB0004D894FF6FF7606EA05252A434FF6FF3566
:104AC0002A408D8806EA05252A434EF6FF752B40BD
:104AD0004DF6FF752B408D8906EA05152B43CD89D0
:104AE00006EA05152B4383808483CD88858702845D
:104AF00070BD70B5002200230024058C4EF6FF76B1
:104B000035400584038C8488828B48F6FF752A40E3
:104B10004FF6FF452A400D8820E00000002C0140A0
:104B20000004004000080040000C0040001000405D
:104B30000014004000340140004C0140005001408E
:104B40000054014000180040001C004000200040BC
:104B50000040014000440140004801404FF6FF760C
:104B600006EA05252A434DF6FF752B400D8906EA16
:104B700005352B434D8806EA05352B43FA4DA842EF
:104B800002D0FA4DA84208D14BF6FF752C408D8912
:104B90004FF6FF7606EA85152C4384808283CD8804
:104BA000A0F84050038470BD828B4FF2FF331A404F
:104BB0008283828B4FF6FF7303EA01231A438283B9
:104BC0007047F0B50C461546002200210026078CE0
:104BD0004EF6FF7C07EA0C070784828B018C4FF6A8
:104BE000FF7707EA043640F6FF473A404FF6FF7773
:104BF00007EA05273A434FF6FF7707EA03373A43B8
:104C0000D94FB8420ED0D94FB8420BD0B0F1804F37
:104C100008D0D74FB84205D0D64FB84202D0D64FB1
:104C2000B84206D14DF6FF77394046F480573943F4
:104C300005E047F6FF57394044F4805739438283F3
:104C40000184F0BD828B4FF6F3731A408283828B0E
:104C50000A4382837047F0B50C46154600220021B6
:104C60000026078C4FF6FF6C07EA0C070784828B3F
:104C7000018C4FF6FF7707EA04264FF60C773A408F
:104C80004FF6FF7707EA03172F433A43B64FB84270
:104C90000ED0B64FB8420BD0B0F1804F08D0B44F11
:104CA000B84205D0B34FB84202D0B34FB84206D194
:104CB0004FF6FF57394046F48077394305E04FF20D
:104CC000FF57394044F48077394382830184F0BD33
:104CD000028B4FF2FF331A400283028B4FF6FF73B1
:104CE00003EA01231A4302837047F0B50C461546C8
:104CF000002200210026078C4FF6EF7C07EA0C0704
:104D00000784028B018C4FF6FF7707EA041640F602
:104D1000FF473A404FF6FF7707EA03373A434FF62B
:104D2000FF7707EA05273A438F4FB8420ED08F4FDF
:104D3000B8420BD0B0F1804F08D08D4FB84205D0AB
:104D40008C4FB84202D08C4FB84206D14FF6DF7775
:104D5000394046F01007394305E04FF65F77394098
:104D600044F01007394302830184F0BD028B4FF6F3
:104D7000F3731A400283028B0A4302837047F0B533
:104D80000C46154600220021068C4FF6FE773E4069
:104D90000684028B018C4FF60C7632407E1C06EAAC
:104DA00003162E433243704EB0420ED06F4EB042C7
:104DB0000BD0B0F1804F08D06D4EB04205D06D4E93
:104DC000B04202D06C4EB04206D14FF6FD76314073
:104DD00044F00106314305E04FF6F576314044F0EA
:104DE0000106314302830184F0BD70B505460C46CF
:104DF0005D4885420ED05D4885420BD0B5F1804FAD
:104E000008D05B48854205D05A48854202D05A48AE
:104E1000854200D100E000BF208850B92389A288D4
:104E200061882846FFF7ABFFE1882846FFF79EFF21
:104E300025E0208804280AD12389A2886188284691
:104E4000FFF753FFE1882846FFF742FF17E020886D
:104E500008280AD12389A28861882846FFF7FBFE2B
:104E6000E1882846FFF7EEFE09E02389A2886188E1
:104E70002846FFF7A6FEE1882846FFF795FE70BD9D
:104E80002DE9F04105460C4600260127608808B947
:104E9000022600E00026A088012801D1022700E0B8
:104EA00001272088A0B92389A28861882846FFF7B6
:104EB00066FFE1882846FFF759FF23893A463146C5
:104EC0002846FFF712FFE1882846FFF701FF13E0AD
:104ED0002389A28861882846FFF707FFE1882846D2
:104EE000FFF7F6FE23893A4631462846FFF747FF8B
:104EF000E1882846FFF73AFFBDE8F0810A884B8831
:104F00001A438B881A43CB881A430B891A434B895F
:104F10001A438B891A43A0F8442070474FF6FF715B
:104F2000818000210180C180418001727047002191
:104F3000018041808180C180018141818181C18165
:104F40007047002101804180012181800021C180C2
:104F5000018170470021018041808180C1800181F1
:104F60004181818170470000002C014000340140E4
:104F70000004004000080040000C004021B10288FD
:104F800042F00102028004E002884FF6FE731A40EC
:104F90000280704731B1B0F8442042F40042A0F8DA
:104FA000442005E0B0F84420C2F30E02A0F84420EB
:104FB00070471AB183890B43838102E083898B4355
:104FC000838170478182704741EA0203A0F848302C
:104FD00070471AB183890B43838102E083898B4335
:104FE0008381704701894FF6F87211400181704743
:104FF0000A46002101894FF68F7319401143018140
:10500000704730B504460D4629462046FFF7F0FFAD
:10501000208940F00700208130BD2DE9F041044691
:105020000D4616461F46602D06D13B4601223146ED
:105030002046FFF75AFE05E03B4601223146204656
:10504000FFF79DFE29462046FFF7D2FF208940F05A
:1050500007002081BDE8F08130B50C4600210189B0
:10506000C9B24FF6FF7505EA0325154325432943C9
:10507000018130BD2DE9F04105460E4617469846A0
:10508000002443463A4631462846FFF7E5FF2C897F
:105090004FF6F870044044F007044FF68F70044058
:1050A00044F070042C81BDE8F081F0B504460D4653
:1050B00016461F463B46324629462046FFF7CCFFA0
:1050C000208940F480402081F0BD018582827047B4
:1050D0000A46002101884FF68F7319401143018061
:1050E0007047F0B50C4615461E46002100220023ED
:1050F0000189028B038C4FF6F877394021434FF634
:10510000FC473A4040F201173A434FF6DD773B4007
:105110004FF6FF7707EA06172F433B4301810283CF
:105120000384F0BD0A460021018B4FF68F731940AE
:105130001143018370470A460021018B48F6FF7333
:1051400019404FF6FF7303EA0223194301837047A6
:105150000A460021818B4FF68F73194011438183DA
:1051600070470A460021818B48F6FF7319404FF6BD
:10517000FF7303EA022319438183704721B1028838
:1051800042F08002028004E002884FF67F731A40EA
:105190000280704721B1828842F00402828004E0DC
:1051A00082884FF6FB731A408280704721B1828853
:1051B00042F00802828004E082884FF6F7731A40BA
:1051C0008280704721B1828842F00102828004E02F
:1051D00082884FF6FE731A40828070470A4600218B
:1051E000018B4FF6F77319401143018370470A464C
:1051F0000021018B4FF2FF7319404FF6FF7303EA52
:1052000002231943018370470A460021818B4FF620
:10521000F77319401143818370470A460021818B3F
:105220004FF2FF7319404FF6FF7303EA022319434D
:10523000818370470A460021018B4FF6FB731940AA
:105240001143018370470A460021018B4FF6FF335B
:1052500019404FF6FF7303EA022319430183704795
:105260000A460021818B4FF6FB731940114381835D
:1052700070470A460021818B4FF6FF3319404FF6E5
:10528000FF7303EA02231943818370470A46002112
:10529000018B4FF67F7319401143018370470A4613
:1052A0000021018BC1F30E014FF6FF7303EA0223C5
:1052B0001943018370470A460021818B4FF67F73A3
:1052C00019401143818370470A460021818BC1F345
:1052D0000E014FF6FF7303EA0223194381837047DF
:1052E0000A460021018C4FF6FD73194011430184D9
:1052F00070470A460021018C4FF6F773194011439D
:10530000018470470A460021018C4FF6DF73194073
:105310004FF6FF7303EA02131943018470470A46EC
:105320000021018C4FF67F7319404FF6FF7303EA9B
:1053300002131943018470470A460021018C4FF67D
:10534000FF5319404FF6FF7303EA02231943018408
:1053500070470A460021018C4FF2FF7319404FF647
:10536000FF7303EA02231943018470470A460021B0
:10537000018C4DF6FF7319404FF6FF7303EA0233B9
:1053800019430184704730B5002301248C40A3B237
:10539000048C9C430484048C02FA01F5ADB22C43C6
:1053A000048430BD30B5002304248C40A3B2048CA7
:1053B0009C430484048C02FA01F5ADB22C430484AE
:1053C00030BD70B503460020002418461830012572
:1053D0008D40ACB21D8CA5431D8409B1082909D1AB
:1053E00000EB6100056825F0700505600568154350
:1053F00005600EE00D1FC5F34E052844056825F431
:10540000E045056005684FF6FF7606EA022635435B
:10541000056070BD21B1028842F00202028004E002
:1054200002884FF6FD731A400280704721B102884E
:1054300042F00402028004E002884FF6FB731A4037
:105440000280704721B1828842F08002828004E0AD
:1054500082884FF67F731A408280704702884FF629
:10546000F7731A40028002880A43028070478288DC
:105470004FF68F731A40828082880A438280704779
:1054800002894FF6F8731A40028102890A430281A9
:10549000704702894FF67F731A40028102890A43DE
:1054A000028170478184704781857047818670478B
:1054B0000187704781877047A0F8401070470288C5
:1054C0004FF6FF431A40028002880A430280704769
:1054D0000146888E70470146088F70470146888FC5
:1054E00070470146B1F8400070470146888C70470C
:1054F0000146088D704702460020138A0B400BB10D
:10550000012000E000207047CA430282704730B596
:105510000246002000230024158A05EA010395892C
:1055200005EA010413B10CB1012000E0002030BDF8
:10553000CA4302827047000010B50446BE48844248
:1055400008D101218014FEF79BFE0021A014FEF774
:1055500097FE16E0B948844208D101210014FEF7F5
:105560009CFE00212014FEF798FE0AE0B448844215
:1055700007D10121C013FEF790FE0021E013FEF7D2
:105580008CFE10BD10B50022028802F441520B8837
:105590004C8823438C882343CC8823430C892343A2
:1055A0004C8923438C892343CC8923431A430280AB
:1055B000838B4FF2FF74234083830B8A038210BDD9
:1055C0002DE9F04F85B005460C464FF00009022743
:1055D0004FF000084FF0010B0026B246A88B4FF2A7
:1055E00040010840A88302202884B5F81C90A068D8
:1055F000022801D100BF38E0A08810B94FF0010B9C
:1056000001E04FF0020B8D48854200D100E000BF61
:105610006846FEF7AEFDDDF800A0E088B0F5007F3B
:105620000AD14FEA1A2000EB80004000A168B0FBCD
:10563000F1F0401D86B20BE04FEA4B10BAFBF0F0E0
:1056400000EB80004000A168B0FBF1F0401D86B285
:105650000A20B6FBF0F606F00108A6EB0800C0F33E
:105660004F074FF6FF7000EA0828022F01DBFF2FDB
:1056700002DD02274FF00008E08840EA08003843C6
:105680002884A088A18908436188084321880843A9
:1056900040F4006040EA0909A5F81C9005B0BDE897
:1056A000F08F0021018041808180C1800181418192
:1056B0008181C181072101827047002101804180E1
:1056C0008180C1800221816000218181704721B1E8
:1056D000028842F04002028004E002884FF6BF7365
:1056E0001A400280704721B1828B42F4806282832B
:1056F00004E0828B4FF6FF331A408283704730B547
:10570000002400230C110125A540ABB21AB18588F5
:105710001D43858002E085889D43858030BD1AB198
:1057200083880B43838002E083888B4383807047A8
:10573000818170470146888970474FF6FF62914228
:1057400004D0028842F48072028004E002884FF69E
:10575000FF631A400280704721B1828842F0040240
:10576000828004E082884FF6FB731A408280704783
:1057700002884FF2FF731A40028002880A430280B7
:105780007047018841F480510180704721B102883F
:1057900042F40052028004E002884DF6FF731A4082
:1057A0000280704702460020012901D0108B00E0E2
:1057B000908A70470146088A7047B1F5804F04D13E
:1057C000028842F48042028004E002884BF6FF73B4
:1057D0001A40028070470246002013890B400BB12B
:1057E000012000E000207047CA4302817047F0B5F5
:1057F0000246002000240023002501F00F070126A7
:10580000BE40B4B20B1101269E40B3B2968806EAA0
:1058100003051689264016B10DB1012000E00020D5
:10582000F0BD10B5002201F00F040123A3409AB28D
:10583000D343038110BD0000003001400038004018
:10584000003C0040002044490860091D0860091D13
:105850000860091D086041483F49143108607047DD
:1058600000213D498279002A3AD00A46126803682D
:105870009A430B461A600A1D126803689A430B1D6F
:105880001A60027911440A6803681A430A60324AAE
:105890000832126803689A432F4B08331A601A1DA6
:1058A000126803689A432C4B0C331A604279102A11
:1058B0000ED11A1F126803681A43274B08331A6067
:1058C0001A1D126803681A43234B0C331A600DE04B
:1058D0002149427911440A6803681A430A6005E0C5
:1058E000027911440A6803689A430A6070470021EC
:1058F000016001710C2141710021817170471649CD
:10590000103109680143144A103211607047014692
:105910000020114A143212680A400AB1012000E046
:10592000002070470C491431086070470146002080
:105930000022094B1B6803EA0102074B14331B6862
:105940000B4013B10AB1012000E00020704702496A
:10595000143108607047000000040140FFFF0F0091
:1059600070474FF0000200B5134694469646203922
:1059700022BFA0E80C50A0E80C50B1F12001BFF408
:10598000F7AF090728BFA0E80C5048BF0CC05DF86E
:1059900004EB890028BF40F8042B08BF704748BFBC
:1059A00020F8022B11F0804F18BF00F8012B704730
:1059B000704770477047704710B500F009F80068ED
:1059C00010BD10B5044600F003F8046010BD0000DF
:1059D00000487047C401002000487047C4010020FF
:1059E0007546FFF7F9FFAE4605006946534620F0BD
:1059F0000700854618B020B5FEF78CF8BDE82040BA
:105A00004FF000064FF000074FF000084FF0000B7A
:105A100021F00701AC46ACE8C009ACE8C009ACE82D
:105A2000C009ACE8C0098D4670470446AFF300805A
:105A30002046FAF7C4FB490050EAC12018BF0420F1
:105A40004A0D18BF40F0010040F2FF72B2EB515F07
:105A500008BF40F00200012808BF052070472DE96B
:105A6000F0414F1E00EBC7010446D1E90001154685
:105A70001E4637F006020DD02A46334600F0C0FD20
:105A80007F1E04EBC703D3E9002300F0B1FB37F01E
:105A90000602F1D1022F25D0042F13D0062F18BFF4
:105AA000BDE8F0812A46334600F0AAFDD4E90A2376
:105AB00000F09EFB2A46334600F0A2FDD4E90823FD
:105AC00000F096FB2A46334600F09AFDD4E90623FF
:105AD00000F08EFB2A46334600F092FDD4E9042301
