:020000040800F2
:1000000000080020293600084102000843020008C9
:10001000470200084B0200084F02000800000000E1
:100020000000000000000000000000005302000873
:10003000550200080000000057020008590200089D
:1000400043360008433600084336000843360008AC
:10005000433600084336000843360008433600089C
:10006000433600084336000843360008433600088C
:10007000433600084336000843360008433600087C
:10008000433600084336000843360008433600086C
:10009000433600084336000843360008433600085C
:1000A000433600084336000843360008433600084C
:1000B000433600082D0D000843360008433600087B
:1000C000433600084336000843360008433600082C
:1000D00043360008E7350008433600084336000879
:1000E000433600084336000843360008433600080C
:1000F00043360008433600084336000843360008FC
:1001000043360008433600084336000843360008EB
:1001100043360008433600084336000843360008DB
:1001200043360008433600084336000843360008CB
:1001300000F002F800F03AF80AA090E8000C8244BF
:100140008344AAF10107DA4501D100F02FF8AFF29C
:10015000090EBAE80F0013F0010F18BFFB1A43F0A5
:1001600001031847246A0000446A0000103A24BFC3
:1001700078C878C1FAD8520724BF30C830C144BF0C
:1001800004680C607047000000230024002500264E
:10019000103A28BF78C1FBD8520728BF30C148BFEA
:1001A0000B6070471FB51FBD10B510BD04F09AFF5E
:1001B0001146FFF7F7FF00F009F804F0B8FF03B4A9
:1001C000FFF7F2FF03BC03F0B3F9000003F046F9B8
:1001D0004FF4A06003F048FA4FF4E13003F0B7F9B0
:1001E00000F02CF900F004FB00F048F900F092FA5E
:1001F000472140F6C31003F09BF841F61F416320EE
:1002000000F068FD12E00A4908680A4906F018FB88
:1002100005D307490868084906F012FA03D20120FD
:100220000649086002E0002004490860EBE700008E
:100230009401002000002042000020C2A081214241
:10024000704700BFFEE700BFFEE700BFFEE700BF4C
:10025000FEE7704770477047704700000CB50020FC
:10026000019000906C48006840F480306A49086052
:1002700000BF6948006800F4003000900198401CFD
:100280000190009818B90198B0F5A06FF1D16248BB
:10029000006800F4003010B10120009001E000205F
:1002A00000900098012843D15C48006840F010009D
:1002B0005A4908600846006820F0030008600846B4
:1002C000006840F0020008605348406852494860A6
:1002D0000846406848600846406840F480604860CE
:1002E0000846406820F47C1048600846406840F4A6
:1002F000E81048600846006840F08070086000BF61
:100300004548006800F000700028F9D04248406875
:1003100020F00300404948600846406840F0020071
:10032000486000BF3C48406800F00C000828F9D144
:100330000CBD10B5FFF792FF10BD10B53648006830
:1003400040F00100344908600846406834490840DC
:100350003149486008460068324908402E49086023
:100360000846006820F4802008600846406820F4B1
:10037000FE0048604FF41F008860FFF7DAFF4FF07F
:1003800000602949086010BD10B50021002000223E
:10039000214B5B6803F00C0121B1042906D0082928
:1003A00028D107E0214B224C236027E01F4B204C33
:1003B000236023E0184B5B6803F47010164B5B68F6
:1003C00003F48032022303EB904022B9194B4343DC
:1003D000174C23600DE0104B5B6803F4003323B12E
:1003E000144B4343124C236003E0104B4343104C27
:1003F000236003E00D4B0E4C236000BF00BF064B93
:100400005B68C3F303130C4CE15C094B1B68CB40E6
:10041000074C236010BD0000001002400020024085
:100420000000FFF8FFFFF6FE08ED00E000127A0082
:100430000000002000093D000400002008B5012153
:10044000082003F09BFC4FF4E240ADF800001020C0
:100450008DF8030003208DF802006946064803F07A
:10046000D1F94FF4A041044803F079FA4FF48071B8
:10047000014803F076FA08BD000C014010B5802257
:100480006B21D22000F034FB0A2003F024F807226D
:100490006821D22000F02CFB0A2003F01CF8012276
:1004A0006B21D22000F024FB00226C21D22000F02E
:1004B0001FFB03221A21D22000F01AFB0A2003F0AE
:1004C0000AF804221921D22000F012FB08221C2174
:1004D000D22000F00DFB0A2002F0FDFF10221B21AC
:1004E000D22000F005FB0A2002F0F5FF022237219E
:1004F000D22000F0FDFA0A2002F0EDFF01220A21CD
:10050000182000F0F5FA0A2002F0E5FF7521D2204C
:1005100000F009FB044600BF712CFDD110BD10B5E1
:10052000B04B0E223B21D22000F01BFBAD4840789F
:10053000AC49097840EA012000B2AB490880A948DB
:10054000C078A849897840EA012000B2A6494880CD
:10055000A4484079A349097940EA012000B2A249A0
:100560008880A048407A9F49097A40EA012000B279
:100570009D4908879B48C07A9A49897A40EA0120B8
:1005800001B2994841879748407B9649097B40EAE8
:10059000012001B29448818710BD10B53C21D220C2
:1005A00000F0C1FA8F4908703B21D22000F0BBFA5D
:1005B0008C49487008460078497840EA012000B22A
:1005C000894908803E21D22000F0ADFA8549887023
:1005D0003D21D22000F0A7FA8249C87008468078F1
:1005E000C97840EA012000B27F4948804021D220EA
:1005F00000F099FA7B4908713F21D22000F093FA6C
:100600007849487108460079497940EA012000B2EA
:100610007549888010BD10B54421D22000F083FABE
:10062000704908724321D22000F07DFA6D4948726A
:100630000846007A497A40EA012000B26A490887F0
:100640004621D22000F06FFA664988724521D220F7
:1006500000F069FA6349C8720846807AC97A40EAAC
:10066000012001B2604841874821D22000F05BFAA6
:100670005C4908734721D22000F055FA5949487364
:100680000846007B497B40EA012001B25648818739
:10069000B0F93A00FF2803D15348B0F84010418721
:1006A0005148B0F93C00FF2803D14F48B0F8421040
:1006B000818710BD10B502223721D22000F018FA30
:1006C00001220A21182000F013FA484B06220321C8
:1006D000182000F046FA454800784449497840EA35
:1006E000012000B24049A1F87000404880783F499D
:1006F000C97840EA012001B23B48A0F872103B489B
:1007000000793A49497940EA012001B23648A0F817
:10071000741010BD10B5C824002033494862002170
:1007200031488162C162C165016641662AE0FFF716
:10073000F6FE2D48C06D2C49B1F9381001442A4805
:10074000C165016EB0F93A00014427480166416E67
:10075000B0F93C00014424484166406A2249B1F99D
:1007600000100844204948620846806AB1F9021026
:1007700001441D488162C06A1B49B1F9041001445B
:100780001948C1622000A4F101018CB2CFD1C82464
:100790001548C06D90FBF4F001B21348A0F84A1060
:1007A000006E90FBF4F001B20F48A0F84C10406EC0
:1007B00090FBF4F001B20C48A0F84E10406A90FB98
:1007C000F4F000B2084948820846806A90FBF4F0D1
:1007D00001B205488182C06A90FBF4F001B2024880
:1007E000C18210BD8E000020A80000209C000020C7
:1007F00008B50121042003F0C1FA0320ADF8000080
:1008000010208DF8030003208DF802006946F84897
:1008100002F0F8FF0321F64803F0A1F808BD10B577
:10082000F348006820F00F00F149086008460068AE
:1008300040F0010008600120EE490860EE49C1F86F
:100840008401042002F023FEE948006820F00F0034
:10085000E74908600846006840F008000860012188
:10086000E34803F062F808B9012010BDE0480068D1
:1008700020F00F00DE4908600846006840F00100E3
:1008800008600121DA4803F06CF8012002F0FFFD56
:100890000020EAE710B5D648006820F00F00D449E0
:1008A00008600846006840F0010008600221D04856
:1008B00003F057F80121CE4803F053F8012002F06D
:1008C000E6FD0221CA4803F04AF8012002F0DFFDEC
:1008D0000121C74803F043F8042002F0D8FD10BD01
:1008E00010B500240221C24803F03BF8C04800685C
:1008F00020F00F00BE4908600846006840F0010083
:1009000008600121BA4803F02AF8012002F0BFFD77
:100910000221B74803F023F8012002F0B8FDB448E3
:10092000006820F00F00B24908600846006840F0F7
:100930000800086012E0601CC4B2FA2C0EDDAC485E
:10094000006820F00F00AA4908600846006840F0DF
:1009500001000860FFF79EFF012010BD0121A4489F
:1009600002F0E3FF0028E6D1A148006820F00F0064
:100970009F4908600846006840F0010008600020B8
:100980009C49091D086000BFE7E710B5022198489F
:1009900002F0E7FF9648006820F00F0094490860D5
:1009A0000846006840F0010008600121904802F00C
:1009B000D8FF022002F06BFD02218D4802F0CFFF2C
:1009C000022002F064FD0221894802F0CAFF0220E1
:1009D00002F05DFD10BD10B50221854802F0C1FF97
:1009E000022002F054FD8248006820F00F00804988
:1009F00008600846006840F00100086001217C485A
:100A000002F0ADFF022002F042FD0221784802F020
:100A1000A6FF022002F03BFD0221754802F0A1FF73
:100A200010BD70B504467248006820F00F00704990
:100A300008600846006840F00100086000206D4929
:100A4000091D0860002520E004F0800020B101218C
:100A5000674802F084FF03E00121654802F081FF4E
:100A60006006040E022002F012FD01206149091DFA
:100A70000860022002F00BFD00205F49C1F88401EC
:100A8000022002F004FD681CC5B2082DDCDB70BD3D
:100A900070B500245648006820F00F0054490860E3
:100AA0000846006840F0080008600121504802F044
:100AB00056FF002518E000204E49091D086002205D
:100AC00002F0E5FC01204C49C1F884016006040EE7
:100AD0000121474802F029FF08B1601CC4B201207F
:100AE00002F0D5FC681CC5B2082DE4DB204670BDC1
:100AF00070B506460C461546FFF791FE3046FFF7E7
:100B000090FFFFF7EDFE2046FFF78BFFFFF7E8FEB3
:100B10002846FFF786FFFFF7E3FEFFF7BBFE0A203C
:100B200002F0B5FC70BD70B504460D46FFF777FEC8
:100B30002046FFF776FFFFF7D3FE2846FFF771FF49
:100B4000FFF7CEFEFFF76BFE611CC8B2FFF769FF2F
:100B5000FFF7C6FEFFF79CFF0646FFF79BFE3046F9
:100B600070BD2DE9F04106460F4614461D46FFF7BD
:100B700056FE3046FFF755FFFFF7B2FE3846FFF747
:100B800050FFFFF7ADFEFFF74AFE711CC8B2FFF73A
:100B900048FFFFF7A5FE0FE0012C05D0FFF778FF17
:100BA0002870FFF7F2FE04E0FFF772FF2870FFF7EE
:100BB00012FF6D1C601EC4B2002CEDDCFFF76AFE54
:100BC0000020BDE8F08170B505460C46FFF727FE12
:100BD0002846FFF726FFFFF783FE2046FFF721FF99
:100BE000FFF77EFEFFF756FE0A2002F074FC70BD90
:100BF0000008014080012142000021422DE9F0411E
:100C000005460E4617469846FFF709FE002141EAC1
:100C10004501C8B2FFF705FFFFF762FE20B1FFF7FD
:100C200039FE0120BDE8F0813046FFF7FAFEFFF7FC
:100C300057FE00240CE018F80400FFF7F2FEFFF75F
:100C40004FFE18B1FFF726FE0120EBE7601CC4B28F
:100C5000BC42F0DBFFF71EFE0020E3E72DE9F04188
:100C600006460F4614461D46FFF7D9FD002141EA0E
:100C70004601C8B2FFF7D5FEFFF732FE20B1FFF7FD
:100C800009FE0120BDE8F0813846FFF7CAFEFFF7F4
:100C900027FEFFF7C4FD012101EB4601C8B2FFF7B3
:100CA000C0FEFFF71DFE0FE0012C05D1FFF7F0FE9F
:100CB0002870FFF790FE04E0FFF7EAFE2870FFF7C8
:100CC00064FE601EC4B26D1C002CEDD1FFF7E2FD86
:100CD0000020D7E77FB505460C460121022003F02E
:100CE0005AF8ADF80850ADF804400020ADF80A00FD
:100CF000ADF8060001A9264803F07CFB1D208DF805
:100D0000000001208DF803008DF8010003208DF80C
:100D10000200684602F0ADFC012211461C4803F0B7
:100D2000E0FE01211A4803F0C1FE7FBD10B501218C
:100D3000174804F084F9012825D101F017FD154862
:100D40000068401C1349086000F013F900F089F8AE
:100D500010480068132190FBF1F201FB120010B95A
:100D6000FFF7A8FC0FE00B480068032190FBF1F2AD
:100D700001FB120038B90848006808B9012000E0FA
:100D80000020054908600121014804F069F910BDFF
:100D90000004004014000020B08121423FB589B01A
:100DA00000250024202101A804F05EF9AA208DF876
:100DB00004008DF80500F1208DF806001A208DF84A
:100DC00007009DF825008DF808009DF824008DF897
:100DD00009009DF829008DF80A009DF828008DF87B
:100DE0000B009DF82D008DF80C009DF82C008DF85F
:100DF0000D009DF831008DF80E009DF830008DF843
:100E00000F009DF841008DF810009DF840008DF80E
:100E100011009DF845008DF812009DF844008DF8F2
:100E2000130000BF05E001A8005D2844C5B2601CA6
:100E3000C4B21F2CF7DB8DF8235000240DE001A86D
:100E4000015DFE4803F03AF900BF4021FB4803F082
:100E5000A3F90128F9D1601CC4B21F2CEFDB0DB03F
:100E600030BD30B589B000250024202101A804F050
:100E7000FBF8AA208DF804008DF8050002208DF8FB
:100E8000060012208DF80700ED48C0798DF80800A3
:100E9000EB4880798DF80900E948407A8DF80A001E
:100EA000E748007A8DF80B00E548C07A8DF80C0011
:100EB000E348807A8DF80D00E14890F83F008DF806
:100EC0000E00DF4890F83E008DF80F00DC4890F8E7
:100ED00041008DF81000DA4890F840008DF81100BC
:100EE000D74890F843008DF81200D54890F842009A
:100EF0008DF81300D24890F871008DF81400D04896
:100F000090F870008DF81500CD4890F873008DF8BA
:100F10001600CB4890F872008DF81700C84890F87A
:100F200075008DF81800C64890F874008DF8190007
:100F300000BF05E001A8005D284405B2601C04B2B2
:100F4000162CF7DBE8B28DF81A0000240DE001A89A
:100F5000015DBA4803F0B2F800BF4021B74803F082
:100F60001BF90128F9D1601C04B2172CEFDB09B082
:100F700030BD70B58AB000250024202101A804F0FE
:100F800073F8AA208DF804008DF8050001208DF873
:100F900006000C208DF80700AA494868AA4905F008
:100FA00083FB064605F018FB00B209909DF825006A
:100FB0008DF808009DF824008DF80900A149086803
:100FC000A14905F071FB064605F006FB00B2099049
:100FD0009DF825008DF80A009DF824008DF80B007F
:100FE00098498868984905F05FFB064605F0F4FAD1
:100FF00000B209909DF825008DF80C009DF82400A2
:101000008DF80D008F4840798DF80D008D480079DE
:101010008DF80E008B48C07A8DF80F008948807AD1
:101020008DF810008748407A8DF811000020099053
:101030009DF824008DF8130000BF05E001A8005DB5
:101040002844C5B2601CC4B2102CF7DB8DF81450D4
:1010500000240DE001A8015D784803F02FF800BFDF
:101060004021764803F098F80128F9D1601CC4B2F9
:10107000112CEFDB0AB070BD30B589B0002500241B
:10108000202101A803F0F0FFAA208DF804008DF8BC
:10109000050003208DF8060008208DF8070000BF2A
:1010A00005E001A8005D2844C5B2601CC4B21F2C35
:1010B000F7DB8DF8235000240DE001A8015D5F48A7
:1010C00002F0FCFF00BF40215C4803F065F80128F6
:1010D000F9D1601CC4B21F2CEFDB09B030BD30B5B4
:1010E00089B000250024202101A803F0BDFFAA201B
:1010F0008DF804008DF8050006208DF806001020FC
:101100008DF8070000BF05E001A8005D2844C5B2C6
:10111000601CC4B21F2CF7DB8DF8235000240DE0B7
:1011200001A8015D454802F0C9FF00BF40214348C6
:1011300003F032F80128F9D1601CC4B21F2CEFDB98
:1011400009B030BD30B589B000250024202101A8A8
:1011500003F08AFFAA208DF804008DF805000A200C
:101160008DF8060012208DF8070000BF05E001A8E9
:10117000005D2844C5B2601CC4B2162CF7DB8DF8A4
:10118000185000240DE001A8015D2C4802F096FFE4
:1011900000BF4021294802F0FFFF0128F9D1601C5F
:1011A000C4B2172CEFDB09B030BD30B589B00025D3
:1011B0000024202101A803F057FFAA208DF8040085
:1011C0008DF805000B208DF8060012208DF8070021
:1011D00000BF05E001A8005D2844C5B2601CC4B290
:1011E0001F2CF7DB8DF8235000240DE001A8015DD2
:1011F000124802F063FF00BF4021104802F0CCFF0C
:101200000128F9D1601CC4B21F2CEFDB09B030BD3E
:1012100030B589B000250024202101A803F024FF67
:10122000AA208DF804008DF805000C208DF806002A
:1012300012208DF8070000BF0EE0000000380140CA
:10124000A8000020940100200000C84201A8005D11
:101250002844C5B2601CC4B21F2CF7DB8DF82350A4
:1012600000240DE001A8015DE14802F027FF00BF66
:101270004021DF4802F090FF0128F9D1601CC4B280
:101280001F2CEFDB09B030BD30B589B0002500243C
:10129000202101A803F0E8FEAA208DF804008DF8B3
:1012A00005000D208DF8060012208DF8070000BF04
:1012B00005E001A8005D2844C5B2601CC4B21F2C23
:1012C000F7DB8DF8235000240DE001A8015DC8482C
:1012D00002F0F4FE00BF4021C54802F05DFF012886
:1012E000F9D1601CC4B21F2CEFDB09B030BD30B5A2
:1012F00089B000250024202101A803F0B5FEAA2012
:101300008DF804008DF805000E208DF806001220DF
:101310008DF8070000BF05E001A8005D2844C5B2B4
:10132000601CC4B21F2CF7DB8DF8235000240DE0A5
:1013300001A8015DAE4802F0C1FE00BF4021AC48EB
:1013400002F02AFF0128F9D1601CC4B21F2CEFDB88
:1013500009B030BD30B589B000250024202101A896
:1013600003F082FEAA208DF804008DF805000F20FE
:101370008DF8060012208DF8070000BF05E001A8D7
:10138000005D2844C5B2601CC4B21F2CF7DB8DF889
:10139000235000240DE001A8015D954802F08EFE67
:1013A00000BF4021924802F0F7FE0128F9D1601CED
:1013B000C4B21F2CEFDB09B030BDF0B589B00546D3
:1013C0000E4600270024202101A803F04DFEAA208C
:1013D0008DF804008DF80500EF208DF8060002203E
:1013E0008DF807008DF808508DF8096000BF05E002
:1013F00001A8005D3844C7B2601CC4B2042CF7DBFE
:101400008DF8087000240DE001A8015D784802F015
:1014100055FE00BF4021764802F0BEFE0128F9D1FA
:10142000601CC4B21F2CEFDB09B0F0BD2DE9F04108
:1014300004460D460026002704E0E05D3044C6B2B5
:10144000781CC7B2681EB842F7DC601910F8010CAE
:10145000B04201D0BDE8F0812078AA2802D160789E
:10146000AF2800D0F6E7A07801282BD120790128F9
:1014700005D1604981F83600FFF74CF922E0207968
:10148000022804D101215B4880F86E101AE020790F
:10149000032808D10120574981F836000121554819
:1014A00080F86E100EE02079042804D10121514803
:1014B00080F8A61006E02079212802DB2079262872
:1014C00000DD00BFA078022816D12079012812D1B2
:1014D000FFF738FEFFF769FEFFF79AFEFFF7D4FE2D
:1014E000FFF705FFFFF736FFA0783146FFF765FFEE
:1014F00001204149086000BFA078102803D1A078DE
:101500003146FFF75AFFA078112803D1A078314661
:10151000FFF753FF00BF9DE710B50446374800783A
:1015200038B9AA2C05D10120344908703448047018
:101530005DE032480078012807D1AF2C05D10220A8
:101540002E4908702E48447051E02C48007802283B
:1015500007D1F12C05DA0320284908702848847047
:1015600045E02648007803280CD1322C0ADA042002
:10157000224908702248C470224804700020224981
:10158000087034E01D480078042819D11D480078FF
:10159000002815DD1B480078401E1A4908701A48BB
:1015A000007819490978491C174A1170001D14491F
:1015B0000C5414480078D0B905201049087016E082
:1015C0000E48007805280FD100200C4908700E48FD
:1015D0000078001D0A490C540B480078401DC1B228
:1015E0000748FFF723FF02E000200449087010BD00
:1015F00000380140A8000020B88121421C000020D2
:10160000600100201A0000201B00002070B5FEF7CA
:1016100086FFFE48B0F90000FC49B1F91210401AEB
:10162000FA4948620846B0F90210B0F91400091AE4
:10163000F6488162B0F90410C162018FB0F84A0027
:10164000081A00B2F14908870846418FB0F84C00EB
:10165000081A01B2ED484187818FB0F84E00081A90
:1016600001B2EA4881870146B1F9380004F0D0FFA1
:101670000546E649B1F93E0004F0CAFF0646E44AD1
:10168000294601F07DFD044604F0A6FF01B2DF48C3
:10169000C1870146B1F93A0004F0BAFF0546DB49BB
:1016A000B1F9400004F0B4FF0646D94A294601F0DA
:1016B00067FD044604F090FF01B2D448A0F8401042
:1016C0000146B1F93C0004F0A3FF0546CF49B1F94A
:1016D000420004F09DFF0646CE4A294601F050FD27
:1016E000044604F079FF01B2C848A0F84210014650
:1016F000486A04F08DFF0546C449B1F9060004F0BC
:1017000087FF0646C24A294601F03AFD044604F026
:1017100063FF00B2BD49C880886A04F079FF0546BE
:10172000BA49B1F9080004F073FF0646B84A2946E1
:1017300001F026FD044604F04FFF01B2B3480181D9
:101740000146C86A04F064FF0546B049B1F90A00D1
:1017500004F05EFF0646AE4A294601F011FD04463C
:1017600004F03AFF01B2A94841810146B1F90600EF
:1017700004F04EFFA5498861B1F9080004F048FF64
:10178000A249C861B1F90A0004F042FF9F4908620A
:10179000B1F93E0004F03CFF04469F4904F084FF89
:1017A0009A490865B1F9400004F032FF04469A49AD
:1017B00004F07AFF0146954841650146B1F94200BF
:1017C00004F026FF0446944904F06EFF01468F485A
:1017D000816570BD0FB5C3B090480168006804F022
:1017E00063FF0F9004F068FDCDE922018C48016889
:1017F0008A48006804F058FF0F9004F05DFDCDE9C1
:101800002001884801688548006804F04DFF0F906A
:1018100004F052FDCDE91E01834801687F4800684D
:1018200004F042FF0F9004F047FDCDE91C017C4815
:101830000168006804F038FF0F9004F03DFDCDE929
:101840001A01784801687648006804F02DFF0F906F
:1018500004F032FDCDE91801734801687048006852
:1018600004F022FF0F9004F027FDCDE916016D482A
:101870000168006804F018FF0F9004F01DFDCDE929
:101880001401694801686748006804F00DFF0F9073
:1018900004F012FDCDE9120163480168006804F00C
:1018A00003FF0F9004F008FDCDE910014899469818
:1018B00004F0FAFE0E90499904F0F6FE00210F9014
:1018C00004F056FE01D147B000BD4999084604F026
:1018D000EBFE0D904899084604F0E6FE0B90469901
:1018E000084604F0E1FE0A900B9904F011FD0C90FB
:1018F0000D9904F00DFD0E9001F05EFC0F9004F0C8
:10190000DBFC41914090469804F0D6FCCDE90C01F7
:10191000419B409A04F0F6F9CDE90E0103F0B8FFBF
:101920004690489804F0C8FCCDE90C01419B409AD0
:1019300004F0E8F9CDE90E0103F0AAFF48904998B8
:1019400004F0BAFCCDE90C01419B409A04F0DAF9AD
:10195000CDE90E0103F09CFF49904C99084604F034
:10196000A3FE0D904B99084604F09EFE0B904A99F9
:10197000084604F099FE0A900B9904F0C9FC0C90FB
:101980000D9904F0C5FC0E9001F016FC0F9004F0C8
:1019900093FC419140904A9804F08EFCCDE90C01F3
:1019A000419B409A04F0AEF9CDE90E0103F070FFBF
:1019B0004A904B9804F080FCCDE90C01419B409A81
:1019C00004F0A0F9CDE90E0103F062FF4B904C98B2
:1019D00004F072FCCDE90C01419B409A04F092F9AD
:1019E000CDE90E0103F054FF4C90DDE91E23DDE943
:1019F000160103F07FFFCDE90A014FF080404C99BA
:101A000004F052FE079004F057FC0FE0A8000020FD
:101A1000CDCCCC3DCDCC4C3DE4A40B3A40000020D5
:101A200044000020480000204C000020CDE90801BF
:101A3000DDE90A2304F066F9CDE90E01DDE91C2396
:101A4000DDE9180104F04EFBCDE906014FF08040BE
:101A50004B9904F029FE039004F02EFCCDE904011B
:101A6000DDE9062304F04EF9CDE90A010020FE4924
:101A7000DDE9142304F036FBCDE90201DDE9102392
:101A800004F030FBCDE906014FF080404A9904F0A4
:101A90000BFE039004F010FCCDE90401DDE9062300
:101AA00004F030F9CDE90801DDE90A2303F022FF53
:101AB000CDE90C01DDE90E2303F01CFFCDE93E0169
:101AC000DDE92023DDE9120104F00CFBCDE90A0178
:101AD0004FF080404C9904F0E7FD079004F0ECFBD8
:101AE000CDE90801DDE90A2304F00CF9CDE90E0186
:101AF0000020DD49DDE91A2304F0F4FACDE9020102
:101B0000DDE9102304F0EEFACDE906014FF0804044
:101B10004B9904F0C9FD039004F0CEFBCDE904011C
:101B2000DDE9062304F0EEF8CDE90A01DDE91C2326
:101B3000DDE9180103F0DEFECDE906014FF080403B
:101B40004A9904F0B1FD039004F0B6FBCDE904011D
:101B5000DDE9062304F0D6F8CDE90801DDE90A2322
:101B600003F0C8FECDE90C01DDE90E2303F0C2FE4F
:101B7000CDE93C010020BC49DDE91A2304F0B2FAAA
:101B8000CDE90601DDE9142304F0ACFACDE90A0140
:101B90004FF080404C9904F087FD079004F08CFBD7
:101BA000CDE90801DDE90A2304F0ACF8CDE90E0126
:101BB000DDE92023DDE9120103F09CFECDE90601F9
:101BC0004FF080404B9904F06FFD039004F074FBDC
:101BD000CDE90401DDE9062304F094F8CDE90A011A
:101BE000DDE91E23DDE9160104F07CFACDE90601EA
:101BF0004FF080404A9904F057FD039004F05CFBDD
:101C0000CDE90401DDE9062304F07CF8CDE9080103
:101C1000DDE90A2303F06EFECDE90C01DDE90E23B8
:101C200003F068FECDE93A01DDE93C231046194690
:101C300004F068F8CDE90C01DDE93E2310461946B1
:101C400004F060F8CDE90A01DDE90C2303F052FE4F
:101C5000CDE90E0103F0F6FDCDE93801DDE93A01E9
:101C6000CDE93601DDE91E23DDE9160104F03AFA7B
:101C700000224FF08043CDE90E0104F043F8CDE996
:101C80003401DDE91223DDE9200103F033FE0022F7
:101C90004FF08043CDE90E0104F034F8CDE9320174
:101CA000DDE91A23DDE9220104F01CFACDE90C017B
:101CB000DDE9142304F016FACDE90E01DDE9102365
:101CC00003F018FECDE93001DDE91E23DDE9160140
:101CD00004F008FACDE90A0100204FF08041DDE967
:101CE000362304F00FF8CDE90801DDE90A2304F0FA
:101CF00009F8CDE90E0100205B49DDE9142304F069
:101D0000F1F9CDE90601DDE9102304F0EBF9CDE9A5
:101D10000A0100204FF08041DDE9382303F0F2FF93
:101D2000CDE90801DDE90A2303F0ECFFCDE90C0160
:101D3000DDE90E2303F0DEFDCDE92E01DDE91223FE
:101D4000DDE9200103F0D6FDCDE90A0100204FF0C6
:101D50008041DDE9362303F0D5FFCDE90801DDE957
:101D60000A2303F0CFFFCDE90E01DDE91C23DDE9F5
:101D7000180104F0B7F9CDE90A0100204FF08041C5
:101D8000DDE9382303F0BEFFCDE90801DDE90A23D0
:101D900003F0B8FFCDE90C01DDE90E2303F0AAFD45
:101DA000CDE92C0100203049DDE91A2304F09AF92D
:101DB000CDE90601DDE9142304F094F9CDE90A0127
:101DC00000204FF08041DDE9362303F09BFFCDE991
:101DD0000801DDE90A2303F095FFCDE90E01DDE9F5
:101DE0001623DDE91E0103F085FDCDE90A0100207F
:101DF0004FF08041DDE9382303F084FFCDE908018D
:101E0000DDE90A2303F07EFFCDE90C01DDE90E23B5
:101E100003F070FDCDE92A014C9804F04DFACDE9AC
:101E20000601DDE92C2303F06DFFCDE90A014B9893
:101E300004F042FACDE90601DDE92A2303F062FF4E
:101E4000CDE90801DDE90A2304F04CF9CDE90E01E2
:101E5000499804F031FACDE90601DDE9322303F0B7
:101E600051FFCDE90A0101E00000E03F489804F08D
:101E700023FACDE90601DDE9302303F043FFCDE984
:101E80000801DDE90A2304F02DF9CDE90C01DDE9B3
:101E90000E2303F02FFDCDE928014A9804F00CFA37
:101EA000CDE90601DDE92A2303F02CFFCDE90A0183
:101EB0004C9804F001FACDE90601DDE92E2303F088
:101EC00021FFCDE90801DDE90A2304F00BF9CDE992
:101ED0000E01469804F0F0F9CDE90601DDE9302362
:101EE00003F010FFCDE90A01499804F0E5F9CDE9C6
:101EF0000601DDE9342303F005FFCDE90801DDE942
:101F00000A2304F0EFF8CDE90C01DDE90E2303F01C
:101F1000F1FCCDE926014B9804F0CEF9CDE906019C
:101F2000DDE92E2303F0EEFECDE90A014A9804F024
:101F3000C3F9CDE90601DDE92C2303F0E3FECDE989
:101F40000801DDE90A2304F0CDF8CDE90E01489837
:101F500004F0B2F9CDE90601DDE9342303F0D2FE45
:101F6000CDE90A01469804F0A7F9CDE90601DDE9BB
:101F7000322303F0C7FECDE90801DDE90A2304F0AE
:101F8000B1F8CDE90C01DDE90E2303F0B3FCCDE996
:101F90002401FE48006804F08FF9CDE90801DDE96D
:101FA000280103F075FC029001F060F9039004F041
:101FB00083F9CDE90401DDE9282303F0A3FECDE98F
:101FC0000601DDE9082303F09DFECDE90C01F04890
:101FD000006804F071F9CDE90A01DDE90C2303F092
:101FE00089FCCDE90E0103F053FCE9490860E7489C
:101FF000006804F061F9CDE90801DDE9260103F08C
:1020000047FC029001F032F9039004F055F9CDE954
:102010000401DDE9262303F075FECDE90601DDE9C3
:10202000082303F06FFECDE90C01DA48006804F0E4
:1020300043F9CDE90A01DDE90C2303F05BFCCDE9AE
:102040000E0103F025FCD3490860D048006804F075
:1020500033F9CDE90801DDE9240103F019FC029010
:1020600001F004F9039004F027F9CDE90401DDE95A
:10207000242303F047FECDE90601DDE9082303F040
:1020800041FECDE90C01C448006804F015F9CDE922
:102090000A01DDE90C2303F02DFCCDE90E0103F06C
:1020A000F7FBBD490860BA48006804F005F9CDE9BE
:1020B0000C01DDE9280103F0EBFB019001F0D6F8FB
:1020C0000290B6480168029804F0EEFA039004F01A
:1020D000F3F8CDE90401DDE9282303F013FECDE98F
:1020E0000801439804F0E8F8CDE90601DDE908238A
:1020F00003F000FCCDE90A01DDE90C2303F0FAFB53
:10210000CDE90E0103F0C4FB4390A248006804F03F
:10211000D3F8CDE90C01DDE9260103F0B9FB01900C
:1021200001F0A4F802909D480168029804F0BCFAFE
:10213000039004F0C1F8CDE90401DDE9262303F0A2
:10214000E1FDCDE90801449804F0B6F8CDE90601B7
:10215000DDE9082303F0CEFBCDE90A01DDE90C231C
:1021600003F0C8FBCDE90E0103F092FB44908A48CE
:10217000006804F0A1F8CDE90C01DDE9240103F0C9
:1021800087FB019001F072F8029084480168029880
:1021900004F08AFA039004F08FF8CDE90401DDE938
:1021A000242303F0AFFDCDE90801459804F084F83D
:1021B000CDE90601DDE9082303F09CFBCDE90A0126
:1021C000DDE90C2303F096FBCDE90E0103F060FB83
:1021D00045906E48006804F06FF8CDE908014FF0B3
:1021E00080406F49DDE9282303F08CFDCDE906012D
:1021F000DDE9082303F086FDCDE90C0164480068A1
:1022000004F05AF8CDE90A01DDE90C2303F072FB72
:10221000CDE90E0103F03CFB5D4908605B480068B6
:1022200004F04AF8CDE908014FF080405C49DDE94F
:10223000262303F067FDCDE90601DDE9082303F05D
:1022400061FDCDE90C015348006804F035F8CDE993
:102250000A01DDE90C2303F04DFBCDE90E0103F08B
:1022600017FB4C4908604948006804F025F8CDE99F
:1022700008014FF080404A49DDE9242303F042FD84
:10228000CDE90601DDE9082303F03CFDCDE90C01B1
:102290004148006804F010F8CDE90A01DDE90C239B
:1022A00003F028FBCDE90E0103F0F2FA3A49086089
:1022B0003748006804F000F8CDE90C0137480068A1
:1022C00003F0FAFFCDE90401DDE9282303F01AFD4C
:1022D000CDE90801439803F0EFFFCDE90601DDE900
:1022E000082303F007FBCDE90A01DDE90C2303F025
:1022F00001FBCDE90E0103F0CBFA439025480068BD
:1023000003F0DAFFCDE90C012448006803F0D4FFA4
:10231000CDE90401DDE9262303F0F4FCCDE9080151
:10232000449803F0C9FFCDE90601DDE9082303F075
:10233000E1FACDE90A01DDE90C2303F0DBFACDE98E
:102340000E0103F0A5FA44901348006803F0B4FFAF
:10235000CDE90C011148006803F0AEFFCDE904019E
:10236000DDE9242303F0CEFCCDE90801459803F014
:10237000A3FFCDE90601DDE9082303F0BBFACDE9AF
:102380000A01DDE90C2303F0B5FA0BE03C00002064
:102390005000002054000020580000203800002089
:1023A000E17A743FCDE90E0103F072FA4590FE48E0
:1023B0004599006804F078F90D90FC48449900684C
:1023C00004F072F90B90FA48006880F00040099020
:1023D000439904F069F90A900B9904F06DFA0C9096
:1023E0000D9904F069FAF3490E9004F05DF90F902D
:1023F000F14801680F9803F08BFFEF490860EA4845
:102400004499006804F050F90D90E8484599006837
:1024100004F04AF90B90E8480168439804F044F945
:102420000A900B9903F074FF0C900D9904F044FA94
:10243000E0490E9004F038F90F90DD4801680F98DC
:1024400003F066FFDA490860D7480168439804F052
:102450002BF90D90D6484599006804F025F90B90AA
:10246000D5484499006804F01FF90A900B9904F0CC
:1024700023FA0C900D9903F04BFFCE490E9004F017
:1024800013F90F90C94801680F9803F041FFC7493D
:10249000086008460168439804F006F90D90C448A6
:1024A0004499006804F000F90B90C348459900680E
:1024B00004F0FAF80A900B9903F02AFF0C900D999A
:1024C00004F0FAF9BB490E9004F0EEF80F90B6480C
:1024D00001680F9803F01CFFB3490860DDE91A2377
:1024E000DDE9220103F006FACDE90801DDE9142354
:1024F00003F000FACDE90A01DDE9102303F0FAF94F
:10250000CDE90C0103F0C4F90E9000F055FE0F90D8
:1025100003F0D2FE41914090A748006803F0CCFE42
:10252000CDE90C01419B409A03F0ECFBCDE90E0193
:1025300003F0AEF9A04908609D48006803F0BCFEB6
:10254000CDE90C01419B409A03F0DCFBCDE90E0183
:1025500003F09EF9964908609448006803F0ACFEC9
:10256000CDE90C01419B409A03F0CCFBCDE90E0173
:1025700003F08EF98D4908608B48006803F09CFEDB
:10258000CDE90C01419B409A03F0BCFBCDE90E0163
:1025900003F07EF984490860084601684FF08040E6
:1025A00004F082F8039080480168039804F07CF8F6
:1025B00005907E4801684FF0404004F075F80390A4
:1025C0007A480168039804F06FF80490059904F0C4
:1025D00073F94FF07E51069003F09AFE079003F0D6
:1025E0006BFECDE90A01744801684FF0804004F0A9
:1025F0005BF804906C480168049804F055F8069064
:102600006B4801684FF0804004F04EF80490674832
:102610000168049804F048F80590069903F078FEE4
:10262000079003F049FECDE90801DDE90A2303F034
:1026300049F881F000414FF0C042604BCDE90C01F8
:1026400003F060FBCDE90E0103F022F95C498860DC
:10265000564801684FF0804004F026F80390534834
:102660000168039804F020F80590514801684FF084
:10267000404004F019F803904D480168039804F0B5
:1026800013F80490059904F017F94FF07E51069065
:1026900003F03EFE079003F00FFECDE90A01464825
:1026A00001684FF0804003F0FFFF0490404801684C
:1026B000049803F0F9FF06903C4801684FF0804011
:1026C00003F0F2FF049038480168049803F0ECFF2F
:1026D0000590069903F01CFE079003F0EDFDCDE98F
:1026E0000801DDE90A2302F0EDFF4FF0C042334B51
:1026F000CDE90C0103F006FBCDE90E0103F0C8F8AB
:102700002F4948602C4801684FF0804003F0CCFF0F
:10271000069026480168069803F0C6FF08902448F2
:1027200001684FF0404003F0BFFF06901E4801686B
:10273000069803F0B9FF0790089903F0E9FD0990A6
:1027400003F0BAFDCDE90A0102F074FD4FF0C0427A
:102750001A4BCDE90C0103F0D5FACDE90E0103F0D7
:1027600097F81749086000BFFFF7ADB82DE9F043AF
:1027700085B0FEF74BFF1349B1F9740003F048FF31
:1027800004461049B1F9720003F042FF05460D49B5
:10279000B1F9700003F03CFF06460A49B1F90A009E
:1027A00003F036FF07460FE04C00002048000020F1
:1027B000440000200AD7A33B4000002094A94C40CD
:1027C00094010020A8000020FE49B1F9080003F0A0
:1027D0001FFF8046FB49B1F9060003F019FF81464F
:1027E000F84BCDE90087CDE9026504949A6D596DE7
:1027F000186D4B46FEF7EEFF05B0BDE8F0830FB550
:10280000A3B0F1480168006803F04EFF2190EF4843
:102810000168ED48006803F047FF2090EC4801682C
:10282000E948006803F040FF1F90E848016800682D
:1028300003F03AFF1E90E7480168E448006803F09F
:1028400033FF1D90E2480168006803F02DFF1C90E3
:10285000E0480168DE48006803F026FF1B90DD4871
:102860000168006803F020FF1A90DB4801680068E7
:1028700003F01AFF1390D9480168006803F014FFB1
:102880001290D7480168006803F00EFF1190D548F8
:102890000168006803F008FF1090D1480168CF4834
:1028A000006803F001FF0F90CE480168CA48006835
:1028B00003F0FAFE0E90CB482599006803F0F4FE71
:1028C0000B90C7482499006803F0EEFE0990C348B6
:1028D000006880F000400790239903F0E5FE08901F
:1028E000099903F0E9FF0A900B9903F0E5FFBE494F
:1028F0000C9003F0D9FE0D90B74801680D9803F0D5
:1029000007FDB5490860B7482499006803F0CCFE7C
:102910000B90B3482599006803F0C6FE0990AE48B5
:102920000168239803F0C0FE0890099903F0F0FCB9
:102930000A900B9903F0C0FFAB490C9003F0B4FE72
:102940000D90A64801680D9803F0E2FCA3490860C9
:10295000A4480168239803F0A7FE0B909F4825998F
:10296000006803F0A1FE09909B482499006803F0D9
:102970009BFE0890099903F09FFF0A900B9903F0C2
:10298000C7FC99490C9003F08FFE0D9094480168A4
:102990000D9803F0BDFC9249086008460168239831
:1029A00003F082FE0B908D482499006803F07CFEB2
:1029B000099089482599006803F076FE08900999E6
:1029C00003F0A6FC0A900B9903F076FF86490C9061
:1029D00003F06AFE0D90834801680D9803F098FC9F
:1029E00080490860DDE9121003F092FC079011990C
:1029F00003F08EFC0890109903F08AFC099003F014
:102A00005BFCCDE90A0102F01DFFCDE90C0102F0EB
:102A10003FFF229070482299006803F0E7FC6E495E
:102A200008606E482299006803F0E0FC6B4908607A
:102A30006B482299006803F0D9FC6949086069482D
:102A40002299006803F0D2FC66490860289926980C
:102A500003F02AFE0C90299903F026FE00210D9028
:102A600003F086FD01D127B000BD2999084603F087
:102A70001BFE08902899084603F016FE069026993A
:102A8000084603F011FE0590069903F041FC0790FB
:102A9000089903F03DFC099003F00EFCCDE90A0112
:102AA00002F0D0FECDE90C0102F0F2FE2290229954
:102AB000269803F09BFC26902299289803F096FC18
:102AC00028902299299803F091FC29901F991D982C
:102AD00003F0F2FE4FF080410D9003F0E5FD1990F8
:102AE0001B99209803F014FC4FF080410D9003F0E7
:102AF000DBFD18901E99219803F0DEFE0C901C99C6
:102B000003F0DAFE0D901A9903F002FC1790189961
:102B1000299803F0C9FD0D901799289803F0C4FD7A
:102B20000C900D9903F0C8FE16901799269803F0A3
:102B3000BBFD0D901999299803F0B6FD0C900D99E5
:102B400003F0BAFE15901999289803F0ADFD0D9089
:102B50001899269803F0A8FD0C900D9903F0ACFE8F
:102B6000149022480168169803F09EFD0D902048AD
:102B700001680D9803F0CCFB1D4908601B480168F3
:102B8000159803F091FD0D901A4801680D9803F017
:102B9000BFFB1849086015480168149803F084FDCC
:102BA0000D90154801680D9803F0B2FB12490860BA
:102BB00012481699006803F077FD0C90239903F0F2
:102BC000A7FB1DE0A80000204000002044000020DA
:102BD000480000204C0000205C0000206000002025
:102BE00064000020680000200AD7A33B3C000020BE
:102BF0005000002054000020580000203800002021
:102C00000D90ED4801680D9803F082FB2390EB488E
:102C10001599006803F048FD0C90249903F078FBA7
:102C20000D90E74801680D9803F072FB2490E3488B
:102C30001499006803F038FD0C90259903F068FBA7
:102C40000D90E04801680D9803F062FB2590DE4886
:102C50002599006803F028FD0B90DC482499006852
:102C600003F022FD0990DA48006880F000400790E8
:102C7000239903F019FD0890099903F01DFE0A90AD
:102C80000B9903F019FED3490C9003F00DFD0D9044
:102C9000D14801680D9803F03BFBCF490860CA4852
:102CA0002499006803F000FD0B90C848259900683E
:102CB00003F0FAFC0990C8480168239803F0F4FC7B
:102CC0000890099903F024FB0A900B9903F0F4FD96
:102CD000C0490C9003F0E8FC0D90BD4801680D98C8
:102CE00003F016FBBA490860B7480168239803F05F
:102CF000DBFC0B90B6482599006803F0D5FC0990E1
:102D0000B5482499006803F0CFFC0890099903F0B6
:102D1000D3FD0A900B9903F0FBFAAE490C9003F037
:102D2000C3FC0D90A94801680D9803F0F1FAA7497A
:102D3000086008460168239803F0B6FC0B90A4488D
:102D40002499006803F0B0FC0990A3482599006815
:102D500003F0AAFC0890099903F0DAFA0A900B999B
:102D600003F0AAFD9B490C9003F09EFC0D90964841
:102D700001680D9803F0CCFA934908601E992198D8
:102D800003F0C6FA07901C9903F0C2FA08901A994A
:102D900003F0BEFA099003F08FFACDE90A0102F0C0
:102DA00051FDCDE90C0102F073FD22908A48229971
:102DB000006803F01BFB8849086085482299006879
:102DC00003F014FB8249086080482299006803F0F0
:102DD0000DFB7E4908607C482299006803F006FBE1
:102DE00079490860084601684FF0804003F05CFCB8
:102DF000019075480168019803F056FC03907348F0
:102E000001684FF0404003F04FFC01906F480168AB
:102E1000019803F049FC0290039903F04DFD4FF037
:102E20007E51049003F074FA059003F045FACDE961
:102E30000801694801684FF0804003F035FC0290BA
:102E400061480168029803F02FFC04906048016813
:102E50004FF0804003F028FC02905C480168029823
:102E600003F022FC0390049903F052FA059003F05A
:102E700023FACDE90601DDE9082302F023FC81F005
:102E800000414FF0C042554BCDE90A0102F03AFF34
:102E9000CDE90C0102F0FCFC514988604B48016807
:102EA0004FF0804003F000FC019048480168019811
:102EB00003F0FAFB0390464801684FF0404003F0EE
:102EC000F3FB019042480168019803F0EDFB02908A
:102ED000039903F0F1FC4FF07E51049003F018FACF
:102EE000059003F0E9F9CDE908013B4801684FF08E
:102EF000804003F0D9FB029035480168029803F046
:102F0000D3FB0490314801684FF0804003F0CCFBC4
:102F100002902D480168029803F0C6FB03900499C3
:102F200003F0F6F9059003F0C7F9CDE90601DDE9F4
:102F3000082302F0C7FB4FF0C042284BCDE90A013D
:102F400002F0E0FECDE90C0102F0A2FC2449486049
:102F5000214801684FF0804003F0A6FB04901B4815
:102F60000168049803F0A0FB0690194801684FF02F
:102F7000404003F099FB049013480168049803F063
:102F800093FB0590069903F0C3F9079003F094F9B9
:102F9000CDE9080102F04EF94FF0C0420F4BCDE9E8
:102FA0000A0102F0AFFECDE90C0102F071FC0C4900
:102FB000086000BF57E500005000002038000020E6
:102FC00054000020580000204C0000204800002041
:102FD000440000200AD7A33B4000002094A94C40A5
:102FE000940100202DE9FF5F88B092469946DDF8F4
:102FF0005CB0ABF1010004B208E0601E0AEBC00156
:1030000003C90AEBC40203C2601E04B2002CF4DC44
:10301000DDE90801CAE9000100252E46002418E078
:10302000169800EBC40003C8CDE902010AEBC40006
:1030300003C8CDE90001DDE9022302F063FE2A4660
:103040003346CDE9040102F055FC05460E46601CEE
:1030500004B25C45E4DB1998401E04B208E0601E2F
:1030600009EBC00103C909EBC40203C2601E04B22C
:10307000002CF4DC0027B846012418E0189800EB77
:10308000C40103C9CDE9020109EBC40003C8CDE9BD
:103090000001DDE9022302F035FE3A464346CDE960
:1030A000040102F027FC07468846601C04B2199808
:1030B0008442E3DB3A4643462846314603F012F8A1
:1030C000C9E90001D9E90001CDE90601DDE9060100
:1030D0000CB0BDE8F09F2DE9FF5F8EB014461D4691
:1030E000DDE91CABCDE90CABCDE90A4500BFDDE95C
:1030F0001E01CDE90801DDE90A23DDE9200102F026
:10310000F9FB8046894640464946DDE90C2302F03A
:10311000F1FB02460B46CDE902014046494602F06A
:1031200099FCCDE90401DDE90823DDE90E0102F097
:10313000D9FFCDE90001DDE9042302F0E3FDCDE98B
:103140000201DDE9082302F0D5FB06460F46002008
:103150001849DDE9042302F0C5FF42464B46CDE99C
:10316000020102F0CFFDCDE90601DDE90601CDE95E
:103170002001CDE91E673046394612B0BDE8F09F08
:103180002DE9F04704460D4616463146284603F021
:103190008BFA804631464FF07E5003F08DFB81461E
:1031A000214603F081FA0746414603F0B1F8BDE835
:1031B000F08700000000F03F2DE9F05F04464FF07B
:1031C0007F594FF07C51204603F06EFA8246254627
:1031D0002E465348A0EB660635462946504603F076
:1031E00063FA8346294603F05FFA8046494603F0B6
:1031F00058FB0746294603F057FA05462846BDE81E
:10320000F09F30B50346042400200EE033F910503F
:103210008D4202DA23F8101005E033F91050954280
:1032200001DD23F81020451CA8B2A042EEDB30BD22
:1032300010B502460423002003E022F81010441CBD
:10324000A0B29842F9DB10BD70B506460D46144693
:103250002946304603F0F4FA01D22E4605E0214615
:10326000304603F0EDF900D2264670BD70B5044635
:1032700000250021204603F0E3F901D284F0004448
:103280002849204603F0DCFA00D2264C2649204685
:1032900003F00AFA06464FF07E5103F002FB0546A2
:1032A0000021284603F0CCF900D20025284670BD45
:1032B00010B504460021204603F0C2F902D284F082
:1032C000004010BD2046FCE72DE9F04104462146B0
:1032D000204603F0E9F907464FF0804103F086F8F5
:1032E00006464FF07E5103F0DCFA05462846BDE85D
:1032F000F0812DE9F04104462146204603F0D4F93F
:103300008046214603F0D0F90746084903F06EF8DD
:103310000646214603F0C5FA05462846BDE8F08179
:10332000DF59375F9A99193F4260D53F0000C0408E
:1033300030B589B004460D460121082000F01EFD7D
:103340000121042000F027FD18208DF807004020FF
:10335000ADF8040003208DF8060001A93D4800F0F7
:1033600051FA8020ADF8040001A93A4800F04AFA69
:103370004FF48070ADF8040001A9364800F042FA1D
:103380004FF40070ADF8040001A9324800F03AFA99
:103390000020ADF81E00ADF81A0040F6C310ADF8DD
:1033A0001C004720ADF8180006A92B4801F022F8B0
:1033B0006020ADF808000120ADF80A000220ADF849
:1033C000100002A9244801F052F80821224801F017
:1033D0009DFC02A9204801F08CF808211E4801F04C
:1033E0009EFC02A91C4801F0D1F808211A4801F0FE
:1033F000A3FC02A9184801F014F90821164801F0AD
:10340000A4FC0121144801F051FB0121124801F0F4
:103410004DFC09B030BD10B5B0F57A7F01DD4FF439
:103420007A70B1F57A7F01DD4FF47A71B2F57A7F67
:1034300001DD4FF47A72B3F57A7F01DD4FF47A73D0
:10344000054C34342080241D2180241D2280241D1D
:10345000238010BD000C01400008004010B56FF043
:10346000040000F050F92E4800682E49B0FBF1F03E
:103470002D4908700846007800EB4001C1EBC010F0
:103480004FF6FF7101EAC0002849088010BD0146CF
:10349000254A12784A434FF0E0235A6100229A618C
:1034A0001A46126942F001021A6100BF4FF0E02291
:1034B000106900F001021AB100F48032002AF5D040
:1034C0004FF0E022126922F001024FF0E0231A616E
:1034D00000229A6170470146144A12884A434FF00D
:1034E000E0235A6100229A611A46126942F00102F1
:1034F0001A6100BF4FF0E022106900F001021AB11A
:1035000000F48032002AF5D04FF0E022126922F058
:1035100001024FF0E0231A6100229A617047000017
:103520000000002000127A006C0000206E000020D5
:10353000014600BF704700BF394A128802F04002BE
:10354000002AF9D0C2B2364B1B1D1A80704710B545
:1035500086B00446012144F2040000F00FFC4FF451
:103560000070ADF8140003208DF8160018208DF8B7
:10357000170005A92B4800F045F94FF48060ADF81D
:10358000140004208DF8170005A9264800F03AF928
:1035900025208DF8000003208DF801008DF8020031
:1035A00001208DF80300684600F063F801940020C4
:1035B000ADF80800ADF80A00ADF80C00ADF8100049
:1035C0000C20ADF80E0001A9154800F07EFC012288
:1035D00040F22551124800F010FD0121104800F082
:1035E00000FD06B010BD10B50D48008800F00800C1
:1035F00018B10B48001D0088C4B240F2255108489C
:1036000000F0E0FD58B140F22551054800F004FEFD
:103610000348001D0088C4B22046FDF77DFF10BDA1
:103620000038014000080140094880470948004728
:10363000FEE7FEE7FEE7FEE7FEE7FEE7FEE7FEE762
:10364000FEE7FEE704480549054A064B70470000BF
:103650003B030008310100080002002000080020A0
:10366000000400200004002031490143314A116068
:10367000704770B5002100230F22C47804B32D4C8D
:10368000246804F4E064C4F5E064210AC1F1040391
:10369000CA40447804FA03F18478144021430901B4
:1036A000254C0678A155047804F01F050124AC4090
:1036B00005786D11AD0005F1E025C5F8004109E080
:1036C000047804F01F050124AC401C4D06787611E7
:1036D00045F8264070BD1A4A0A400243154B1B1F8D
:1036E0001A60704739B1134A121D12680243114B18
:1036F0001B1D1A6006E00F4A121D126882430D4B13
:103700001B1D1A607047042808D14FF0E021096999
:1037100041F004014FF0E022116107E04FF0E02199
:10372000096921F004014FF0E022116170470000A7
:103730000000FA050CED00E000E400E080E100E0AC
:1037400080FFFF1F10B50446CC48844208D10121F8
:10375000042000F02DFB0021042000F029FB46E0AE
:10376000C748844208D10121082000F021FB002134
:10377000082000F01DFB3AE0C248844208D1012134
:10378000102000F015FB0021102000F011FB2EE0AE
:10379000BD48844208D10121202000F009FB00210E
:1037A000202000F005FB22E0B848844208D1012126
:1037B000402000F0FDFA0021402000F0F9FA16E068
:1037C000B348844208D10121802000F0F1FA0021A1
:1037D000802000F0EDFA0AE0AE48844207D10121D2
:1037E000801500F0E5FA0021A01500F0E1FA10BD07
:1037F00010B50121084600F0DBFA0021012000F09D
:10380000D7FA10BD2DE9F041024600250026002020
:1038100000230024002791F803C00CF00F0591F855
:1038200003C00CF0100CBCF1000F03D091F802C0E3
:103830004CEA050591F800C0BCF1000F31D01468C6
:1038400000202BE04FF0010C0CFA00F3B1F800C09F
:103850000CEA03069E4220D183004FF00F0C0CFAB5
:1038600003F7BC4305FA03FC4CEA040491F803C0D7
:10387000BCF1280F06D14FF0010C0CFA00FCC2F885
:1038800014C00AE091F803C0BCF1480F05D14FF015
:10389000010C0CFA00FCC2F810C0401C0828D1D35F
:1038A0001460B1F800C0BCF1FF0F34DD5468002093
:1038B0002EE000F1080C4FF0010808FA0CF3B1F803
:1038C00000C00CEA03069E4221D183004FF00F0C8A
:1038D0000CFA03F7BC4305FA03FC4CEA040491F824
:1038E00003C0BCF1280F05D100F1080C08FA0CF850
:1038F000C2F8148091F803C0BCF1480F07D100F161
:10390000080C4FF0010808FA0CF8C2F81080401CAF
:103910000828CED35460BDE8F0814FF6FF710180D6
:10392000022181700421C170704702460020936813
:103930000B400BB1012000E0002070470146886871
:1039400080B2704702460020D3680B400BB10120C3
:1039500000E0002070470146C86880B270470161EE
:103960007047416170470AB1016100E041617047F1
:10397000C16070474FF480320A4382618161826185
:1039800082698269704702460020434B18684FF6EF
:103990008073184040EA021008433F4B186070479C
:1039A0003E49C8617047F0B50A4600230024002153
:1039B000002500F00046B6F1004F02D1364EF16905
:1039C00001E0354E7168C0F3034583B200F4401640
:1039D000B6F5401F08D121F070612F4E766826F0B1
:1039E00070662D4F7E6012E000F48016B6F5801FE1
:1039F00006D1032606FA05F4A14341F0706106E002
:103A0000460D360103FA06F6B14341F0706122B16A
:103A1000460D360103FA06F6314300F00046B6F1D2
:103A2000004F02D11C4EF16101E01B4E7160F0BDF0
:103A300030B500228B071C0F0F2303FA04F2164B3C
:103A400008338C1053F824309343134C08348D10F2
:103A500044F8253023468C1053F824308C07240F6B
:103A600000FA04F423430C4C08348D1044F825303C
:103A700030BD0A49DC310860704700000008014091
:103A8000000C0140001001400014014000180140EA
:103A9000001C0140002001400000014000002042C5
:103AA000DF48006840F00100DD49086008464068D2
:103AB000DC490840DA49486008460068DA490840AD
:103AC000D74908600846006820F48020086008464E
:103AD000406820F4FE0048604FF41F008860704783
:103AE000CF49096821F48031CD4A11601146096837
:103AF00021F480211160B0F5803F03D0B0F5802F14
:103B00000ED106E0C649096841F48031C44A11600B
:103B100007E0C349096841F4A021C14A116000E0EF
:103B200000BF00BF704710B50146002200230020EF
:103B30004A11012A02D1BA4C236806E0022A02D1B6
:103B4000B74C236A01E0B64C636A01F01F020124FE
:103B500094401C400CB1012000E0002010BD38B59D
:103B6000002000900024002500BF3120FFF7DBFF7C
:103B700005460098401C00900098B0F5A06F01D059
:103B8000002DF2D03120FFF7CEFF08B1012400E074
:103B90000024204638BD01460020A14A106820F0CC
:103BA000F80040EAC10010607047A0490860704703
:103BB000024600209A4B586820F47C1042EA010328
:103BC0001843974B586070479849086670470146FC
:103BD0000020934A506820F003000843506070476B
:103BE0008F48406800F00C007047014600208C4A66
:103BF000506820F0F00008435060704701460020F4
:103C0000874A506820F4E0600843506070470146DE
:103C10000020834A506820F4605040EAC1005060A0
:103C2000704729B17E4A527A02437D4B5A7204E0B2
:103C30007B4A527A82437A4B5A7270477B49D83119
:103C40000860704701460020754A506820F44040E3
:103C50000843506070470021714A20321170704A49
:103C600082F82010012802D004280AD104E00121A2
:103C70006B4A2032117005E00521694A203211702B
:103C800000E000BF00BF70476949086070476449A1
:103C9000096A0143624A1162704765494439086004
:103CA000704730B500210022002400235C4D6D6870
:103CB00005F00C0121B1042905D0082923D105E024
:103CC0005C4D056022E05B4D05601FE0544D6D6862
:103CD00005F47012524D6D6805F48034022505EB31
:103CE00092421CB9544D554305600BE04C4D6D6834
:103CF00005F400351DB1504D5543056002E04D4DB2
:103D00005543056002E04B4D056000BF00BF444DC8
:103D10006D6805F0F0010909484D6B5C0568DD40F0
:103D200045603F4D6D6805F4E061090A434D6B5CE9
:103D30004568DD4085603A4D6D6805F46051C90AFB
:103D40003E4D6B5C4568DD40C560354D6D6805F4E2
:103D50004041890B3A4D6B5CC568B5FBF3F50561D5
:103D600030BD29B12E4A526902432D4B5A6104E0FD
:103D70002B4A526982432A4B5A61704729B1284A1B
:103D800092690243264B9A6104E0254A9269824374
:103D9000234B9A61704729B1214AD2690243204BD3
:103DA000DA6104E01E4AD26982431D4BDA61704732
:103DB00029B11B4AD2680243194BDA6004E0184A61
:103DC000D2688243164BDA60704729B1144A1269EF
:103DD0000243134B1A6104E0114A12698243104BEB
:103DE0001A61704712494039086070470F49C8642A
:103DF00070470B49C87170470948406A40F08070AD
:103E000007494862704701460020054A92680A4007
:103E10000AB1012000E00020704701498872704714
:103E2000001002400000FFF8FFFFF6FE00004242D3
:103E30008004424200127A0000093D007000002018
:103E40008000002010B50446FB48844209D10121BE
:103E50008803FFF7ADFF00214FF48040FFF7A8FF74
:103E600032E0F648844209D101214804FFF7ADFF52
:103E700000214FF40030FFF7A8FF25E0F04884420E
:103E800009D101218804FFF7A0FF00214FF4802011
:103E9000FFF79BFF18E0EB48844209D10121C804D9
:103EA000FFF793FF00214FF40020FFF78EFF0BE098
:103EB000E548844208D101210805FFF786FF00216B
:103EC0004FF48010FFF781FF10BD2DE9F04786B059
:103ED00005460E460024A24600BFA1460027B08931
:103EE00000B100BF2F462C8A4CF6FF700440F088CA
:103EF00004432C82AC894EF6F3100440B08831891B
:103F00000843718908430443AC81AC8A4FF6FF40F3
:103F10000440B0890443AC8201A8FFF7C2FEC64842
:103F2000874202D1DDF810A001E0DDF80CA0A889DD
:103F300000F4004040B10AEBCA0000EB0A103168FF
:103F40004900B0FBF1F807E00AEBCA0000EB0A10E9
:103F500031688900B0FBF1F86420B8FBF0F004018F
:103F60002009642101FB1089A88900F4004040B1B8
:103F7000322000EBC900B0FBF1F000F00700044371
:103F800008E0322000EB09106421B0FBF1F000F0F2
:103F90000F0004432C8106B0BDE8F0874FF41651A2
:103FA000016000218180C18001810C2141810021BB
:103FB0008181704710B502460020108A4FF2FF033E
:103FC00018400B884C8823438C882343CC88234398
:103FD0001843108210BD0021018041808180C18082
:103FE000704721B1828942F40052828104E08289C3
:103FF0004DF6FF731A4082817047F0B503460024E6
:1040000000260025002040F66A17B94200D100BF03
:104010001846C1F3421401F01F06012707FA06F5FE
:10402000012C01D10C3004E0022C01D1103000E051
:1040300014301AB107682F43076002E00768AF43E6
:104040000760F0BD1AB1838A0B43838202E0838A42
:104050008B4383827047028A4FF6F0731A400282C4
:10406000028A0A430282704782894FF2FF731A4024
:10407000828182890A438281704721B1828942F01C
:104080000202828104E082894FF6FD731A40828128
:104090007047028A4FF6DF731A400282028A0A438F
:1040A0000282704721B1028A42F48042028204E017
:1040B000028A4BF6FF731A4002827047C1F308026E
:1040C0008280704701468888C0F308007047818964
:1040D00041F0010181817047028BD2B20283028BD1
:1040E00042EA012202837047028B02F47F4202837C
:1040F000028B0A430283704721B1828A42F0200278
:10410000828204E0828A4FF6DF731A40828270470F
:1041100021B1828A42F01002828204E0828A4FF644
:10412000EF731A408282704721B1828A42F00802FE
:10413000828204E0828A4FF6F7731A4082827047C7
:1041400021B1828942F40042828103E08289C2F374
:104150000E028281704721B1828A42F4006282821B
:1041600004E0828A4FF2FF731A4082827047828A8B
:104170004FF6FB731A408282828A0A43828270471A
:1041800021B1828A42F00202828204E0828A4FF6E2
:10419000FD731A408282704702460020B1F5007F0D
:1041A00000D100BF13880B400BB1012000E00020BC
:1041B000704701F40072B2F5007F00D100BFCA431E
:1041C0000280704770B502460024002300250020BD
:1041D00040F66A16B14200D100BFC1F3421501F0AA
:1041E0001F03012606FA03F3012D02D196893340FD
:1041F00006E0022D02D1168A334001E0968A334050
:104200000C12012606FA04F41688344013B10CB1DE
:10421000012000E0002070BD10B50022002340F610
:104220006A14A14200D100BF0A1201249440A3B233
:10423000DC43048010BD0000003801400044004011
:1042400000480040004C00400050004010B50446BB
:10425000FE48844208D10121C014FFF7A9FD0021C6
:10426000E014FFF7A5FDC4E0B4F1804F08D10121AF
:104270000846FFF7AAFD00210120FFF7A6FDB8E0E0
:10428000F348844208D101210220FFF79EFD00215E
:104290000220FFF79AFDACE0EE48844208D10121EC
:1042A0000420FFF792FD00210420FFF78EFDA0E01F
:1042B000E948844208D101210820FFF786FD00214A
:1042C0000820FFF782FD94E0E448844208D10121F0
:1042D0001020FFF77AFD00211020FFF776FD88E01F
:1042E000DF48844208D101212020FFF76EFD002124
:1042F0002020FFF76AFD7CE0DA48844208D10121E2
:104300004014FFF755FD00216014FFF751FD70E0E8
:10431000D548844209D10121C804FFF749FD002195
:104320004FF40020FFF744FD63E0D048844209D1F8
:1043300001210805FFF73CFD00214FF48010FFF735
:1043400037FD56E0CA48844209D101214805FFF7EC
:104350002FFD00214FF40010FFF72AFD49E0C5486A
:10436000844208D101214020FFF72FFD0021402089
:10437000FFF72BFD3DE0C048844208D10121802099
:10438000FFF723FD00218020FFF71FFD31E0BB4830
:10439000844208D101218015FFF717FD0021A015E7
:1043A000FFF713FD25E0B648844209D10121080436
:1043B000FFF7FEFC00214FF48030FFF7F9FC18E016
:1043C000B048844209D101214804FFF7F1FC0021E3
:1043D0004FF40030FFF7ECFC0BE0AB48844208D10F
:1043E00001218804FFF7E4FC00214FF48020FFF74F
:1043F000DFFC10BD00220288944B98420ED0994BEE
:1044000098420BD0B0F1804F08D0914B984205D024
:10441000904B984202D0904B984204D14FF68F7344
:104420001A404B881A438D4B984207D08C4B9842C8
:1044300004D04FF6FF431A40CB881A4302808B8882
:1044400083850B880385814B98420BD0854B98421E
:1044500008D08B4B984205D08A4B984202D08A4BA9
:10446000984201D10B7A038601238382704770B58D
:10447000002400220023058C4FF6FE76354005848B
:10448000028C8388048B4FF68F752C40B51E2C4010
:104490000D882C43751E2A400D892A434D882A43D6
:1044A0006A4DA8420BD06F4DA84208D0744DA84267
:1044B00005D0744DA84202D0734DA84213D14FF6D7
:1044C000F7752A404D892A434FF6FB752A408D889F
:1044D0002A434FF6FF652B404FF6FF552B408D8941
:1044E0002B43CD892B4383800483CD88858602842A
:1044F00070BD70B5002400220023058C4FF6EF76C6
:1045000035400584028C8388048B48F6FF752C4067
:104510004FF6FF452C400D884FF6FF7606EA05253D
:104520002C434FF6DF752A400D8906EA05152A430C
:104530004D8806EA05152A43444DA84202D0494D4C
:10454000A8421DD14FF67F752A404D894FF6FF7660
:1045500006EA05152A434FF6BF752A408D8806EAFC
:1045600005152A434FF6FF352B404FF2FF752B40C0
:104570008D8906EA85052B43CD8906EA85052B43FF
:1045800083800483CD880587028470BD70B50024C4
:1045900000220023058C4FF6FF6635400584028C0F
:1045A0008388848B4FF68F752C404FF6FC752C401A
:1045B0000D882C434FF6FF552A400D894FF6FF76A4
:1045C00006EA05252A434D8806EA05252A431F4D9C
:1045D000A84202D0234DA8421DD14FF2FF752A40B8
:1045E0004D894FF6FF7606EA05252A434FF6FF353B
:1045F0002A408D8806EA05252A434EF6FF752B4092
:104600004DF6FF752B408D8906EA05152B43CD89A4
:1046100006EA05152B4383808483CD888587028431
:1046200070BD70B5002200230024058C4EF6FF7685
:1046300035400584038C8488828B48F6FF752A40B8
:104640004FF6FF452A400D8820E00000002C014075
:104650000004004000080040000C00400010004032
:104660000014004000340140004C01400050014063
:104670000054014000180040001C00400020004091
:104680000040014000440140004801404FF6FF76E1
:1046900006EA05252A434DF6FF752B400D8906EAEB
:1046A00005352B434D8806EA05352B43FA4DA842C4
:1046B00002D0FA4DA84208D14BF6FF752C408D89E7
:1046C0004FF6FF7606EA85152C4384808283CD88D9
:1046D000A0F84050038470BD828B4FF2FF331A4024
:1046E0008283828B4FF6FF7303EA01231A4382838E
:1046F0007047F0B50C461546002200210026078CB5
:104700004EF6FF7C07EA0C070784828B018C4FF67C
:10471000FF7707EA043640F6FF473A404FF6FF7747
:1047200007EA05273A434FF6FF7707EA03373A438C
:10473000D94FB8420ED0D94FB8420BD0B0F1804F0C
:1047400008D0D74FB84205D0D64FB84202D0D64F86
:10475000B84206D14DF6FF77394046F480573943C9
:1047600005E047F6FF57394044F4805739438283C8
:104770000184F0BD828B4FF6F3731A408283828BE3
:104780000A4382837047F0B50C461546002200218B
:104790000026078C4FF6FF6C07EA0C070784828B14
:1047A000018C4FF6FF7707EA04264FF60C773A4064
:1047B0004FF6FF7707EA03172F433A43B64FB84245
:1047C0000ED0B64FB8420BD0B0F1804F08D0B44FE6
:1047D000B84205D0B34FB84202D0B34FB84206D169
:1047E0004FF6FF57394046F48077394305E04FF2E2
:1047F000FF57394044F48077394382830184F0BD08
:10480000028B4FF2FF331A400283028B4FF6FF7385
:1048100003EA01231A4302837047F0B50C4615469C
:10482000002200210026078C4FF6EF7C07EA0C07D8
:104830000784028B018C4FF6FF7707EA041640F6D7
:10484000FF473A404FF6FF7707EA03373A434FF600
:10485000FF7707EA05273A438F4FB8420ED08F4FB4
:10486000B8420BD0B0F1804F08D08D4FB84205D080
:104870008C4FB84202D08C4FB84206D14FF6DF774A
:10488000394046F01007394305E04FF65F7739406D
:1048900044F01007394302830184F0BD028B4FF6C8
:1048A000F3731A400283028B0A4302837047F0B508
:1048B0000C46154600220021068C4FF6FE773E403E
:1048C0000684028B018C4FF60C7632407E1C06EA81
:1048D00003162E433243704EB0420ED06F4EB0429C
:1048E0000BD0B0F1804F08D06D4EB04205D06D4E68
:1048F000B04202D06C4EB04206D14FF6FD76314048
:1049000044F00106314305E04FF6F576314044F0BE
:104910000106314302830184F0BD70B505460C46A3
:104920005D4885420ED05D4885420BD0B5F1804F81
:1049300008D05B48854205D05A48854202D05A4883
:10494000854200D100E000BF208850B92389A288A9
:1049500061882846FFF7ABFFE1882846FFF79EFFF6
:1049600025E0208804280AD12389A2886188284666
:10497000FFF753FFE1882846FFF742FF17E0208842
:1049800008280AD12389A28861882846FFF7FBFE00
:10499000E1882846FFF7EEFE09E02389A2886188B6
:1049A0002846FFF7A6FEE1882846FFF795FE70BD72
:1049B0002DE9F04105460C4600260127608808B91C
:1049C000022600E00026A088012801D1022700E08D
:1049D00001272088A0B92389A28861882846FFF78B
:1049E00066FFE1882846FFF759FF23893A4631469A
:1049F0002846FFF712FFE1882846FFF701FF13E082
:104A00002389A28861882846FFF707FFE1882846A6
:104A1000FFF7F6FE23893A4631462846FFF747FF5F
:104A2000E1882846FFF73AFFBDE8F0810A884B8805
:104A30001A438B881A43CB881A430B891A434B8934
:104A40001A438B891A43A0F8442070474FF6FF7130
:104A5000818000210180C180418001727047002166
:104A6000018041808180C180018141818181C1813A
:104A70007047002101804180012181800021C18097
:104A8000018170470021018041808180C1800181C6
:104A90004181818170470000002C014000340140B9
:104AA0000004004000080040000C004021B10288D2
:104AB00042F00102028004E002884FF6FE731A40C1
:104AC0000280704731B1B0F8442042F40042A0F8AF
:104AD000442005E0B0F84420C2F30E02A0F84420C0
:104AE00070471AB183890B43838102E083898B432A
:104AF000838170478182704741EA0203A0F8483001
:104B000070471AB183890B43838102E083898B4309
:104B10008381704701894FF6F87211400181704717
:104B20000A46002101894FF68F7319401143018114
:104B3000704730B504460D4629462046FFF7F0FF82
:104B4000208940F00700208130BD2DE9F041044666
:104B50000D4616461F46602D06D13B4601223146C2
:104B60002046FFF75AFE05E03B460122314620462B
:104B7000FFF79DFE29462046FFF7D2FF208940F02F
:104B800007002081BDE8F08130B50C460021018985
:104B9000C9B24FF6FF7505EA03251543254329439E
:104BA000018130BD2DE9F04105460E461746984675
:104BB000002443463A4631462846FFF7E5FF2C8954
:104BC0004FF6F870044044F007044FF68F7004402D
:104BD00044F070042C81BDE8F081F0B504460D4628
:104BE00016461F463B46324629462046FFF7CCFF75
:104BF000208940F480402081F0BD01858282704789
:104C00000A46002101884FF68F7319401143018035
:104C10007047F0B50C4615461E46002100220023C1
:104C20000189028B038C4FF6F877394021434FF608
:104C3000FC473A4040F201173A434FF6DD773B40DC
:104C40004FF6FF7707EA06172F433B4301810283A4
:104C50000384F0BD0A460021018B4FF68F73194083
:104C60001143018370470A460021018B48F6FF7308
:104C700019404FF6FF7303EA02231943018370477B
:104C80000A460021818B4FF68F73194011438183AF
:104C900070470A460021818B48F6FF7319404FF692
:104CA000FF7303EA022319438183704721B102880D
:104CB00042F08002028004E002884FF67F731A40BF
:104CC0000280704721B1828842F00402828004E0B1
:104CD00082884FF6FB731A408280704721B1828828
:104CE00042F00802828004E082884FF6F7731A408F
:104CF0008280704721B1828842F00102828004E004
:104D000082884FF6FE731A40828070470A4600215F
:104D1000018B4FF6F77319401143018370470A4620
:104D20000021018B4FF2FF7319404FF6FF7303EA26
:104D300002231943018370470A460021818B4FF6F5
:104D4000F77319401143818370470A460021818B14
:104D50004FF2FF7319404FF6FF7303EA0223194322
:104D6000818370470A460021018B4FF6FB7319407F
:104D70001143018370470A460021018B4FF6FF3330
:104D800019404FF6FF7303EA02231943018370476A
:104D90000A460021818B4FF6FB7319401143818332
:104DA00070470A460021818B4FF6FF3319404FF6BA
:104DB000FF7303EA02231943818370470A460021E7
:104DC000018B4FF67F7319401143018370470A46E8
:104DD0000021018BC1F30E014FF6FF7303EA02239A
:104DE0001943018370470A460021818B4FF67F7378
:104DF00019401143818370470A460021818BC1F31A
:104E00000E014FF6FF7303EA0223194381837047B3
:104E10000A460021018C4FF6FD73194011430184AD
:104E200070470A460021018C4FF6F7731940114371
:104E3000018470470A460021018C4FF6DF73194048
:104E40004FF6FF7303EA02131943018470470A46C1
:104E50000021018C4FF67F7319404FF6FF7303EA70
:104E600002131943018470470A460021018C4FF652
:104E7000FF5319404FF6FF7303EA022319430184DD
:104E800070470A460021018C4FF2FF7319404FF61C
:104E9000FF7303EA02231943018470470A46002185
:104EA000018C4DF6FF7319404FF6FF7303EA02338E
:104EB00019430184704730B5002301248C40A3B20C
:104EC000048C9C430484048C02FA01F5ADB22C439B
:104ED000048430BD30B5002304248C40A3B2048C7C
:104EE0009C430484048C02FA01F5ADB22C43048483
:104EF00030BD70B503460020002418461830012547
:104F00008D40ACB21D8CA5431D8409B1082909D17F
:104F100000EB6100056825F0700505600568154324
:104F200005600EE00D1FC5F34E052844056825F405
:104F3000E045056005684FF6FF7606EA0226354330
:104F4000056070BD21B1028842F00202028004E0D7
:104F500002884FF6FD731A400280704721B1028823
:104F600042F00402028004E002884FF6FB731A400C
:104F70000280704721B1828842F08002828004E082
:104F800082884FF67F731A408280704702884FF6FE
:104F9000F7731A40028002880A43028070478288B1
:104FA0004FF68F731A40828082880A43828070474E
:104FB00002894FF6F8731A40028102890A4302817E
:104FC000704702894FF67F731A40028102890A43B3
:104FD0000281704781847047818570478186704760
:104FE0000187704781877047A0F84010704702889A
:104FF0004FF6FF431A40028002880A43028070473E
:105000000146888E70470146088F70470146888F99
:1050100070470146B1F8400070470146888C7047E0
:105020000146088D704702460020138A0B400BB1E1
:10503000012000E000207047CA430282704730B56B
:105040000246002000230024158A05EA0103958901
:1050500005EA010413B10CB1012000E0002030BDCD
:10506000CA430282704770474FF0000200B51346F2
:1050700094469646203922BFA0E80C50A0E80C5078
:10508000B1F12001BFF4F7AF090728BFA0E80C5029
:1050900048BF0CC05DF804EB890028BF40F8042B22
:1050A00008BF704748BF20F8022B11F0804F18BF8F
:1050B00000F8012B7047704770477047704710B574
:1050C00000F008F8006810BD10B5044600F002F8C2
:1050D000046010BD00487047A001002000487047E0
:1050E000A00100207546FFF7F9FFAE4605006946AE
:1050F000534620F00700854618B020B5FEF7A2FA07
:10510000BDE820404FF000064FF000074FF00008C8
:105110004FF0000B21F00701AC46ACE8C009ACE849
:10512000C009ACE8C009ACE8C0098D467047044628
:10513000AFF300802046FBF742F8490050EAC12057
:1051400018BF04204A0D18BF40F0010040F2FF7262
:10515000B2EB515F08BF40F00200012808BF0520F4
:1051600070472DE9F0414F1E00EBC7010446D1E91D
:10517000000115461E4637F006020DD02A4633467A
:1051800000F0C0FD7F1E04EBC703D3E9002300F04D
:10519000B1FB37F00602F1D1022F25D0042F13D036
:1051A000062F18BFBDE8F0812A46334600F0AAFD5D
:1051B000D4E90A2300F09EFB2A46334600F0A2FD04
:1051C000D4E9082300F096FB2A46334600F09AFD06
:1051D000D4E9062300F08EFB2A46334600F092FD08
:1051E000D4E9042300F086FB2A46334600F08AFD0A
:1051F000D4E9022300F07EFB2A46334600F082FD0C
:10520000D4E90023BDE8F04100F074BB012201F0B5
:10521000FABB00F06FBB002213461046114600F0A7
:1052200019BC0000024A0020110701F0ECBB00008D
:1052300001FDFFFF2DE9F04D8D4F21F0004A86B0B2
:1052400005460C46BA452ADBAAEB070028430AD0DC
:105250008848824501DC1AD1CDB106B02846BDE8A8
:10526000F04DFFF7D3BF844A844B284600F04AFD37
:1052700007460E46824A834B2846214600F042FDEF
:1052800006B03A463346BDE8F04D00F033BB01208E
:10529000FFF71AFF06B0BDE8F04DFFF7BCBF7A4834
:1052A000824542DABAF1795F0BDA2846FFF745FF0B
:1052B000042808BFFFF7B6FF284606B02146BDE820
:1052C000F08D2A460B46104600F01CFD8346024630
:1052D0006E480E460B4606217844FFF742FF5A46B9
:1052E000334600F00FFD804669488A465A463346E9
:1052F00004217844FFF735FF5A46334600F002FD9B
:1053000000223B4600F0F6FA02460B464046514664
:1053100000F0A0FB2A46234600F0F4FC06B02A4623
:105320002346BDE8F04D00F0E5BA284624F00041E0
:1053300000223D463B4600F0E3FD4FF0FF3201F016
:1053400062FB0646024653480F460B460621784448
:10535000FFF707FF32463B4600F0D4FCCDE90001E1
:105360004D4832463B4604217844FFF7FAFE324668
:105370003B4600F0C7FC00222B4600F0BBFA8346F8
:1053800002913046394600F05DFA804643480D46AA
:10539000504517DCDDE900015A46029B00F05AFB3C
:1053A00042462B4600F0AEFC42462B4600F0A2FAE5
:1053B000012201F028FB304A304B00F093FE304AC6
:1053C000304B4CE04FF0000A52460B46404600F08E
:1053D00091FACDE9031052462B461046194600F0CB
:1053E00091FC32463B4600F08BFDDDE9033200F0D4
:1053F00031FB06460F46DDE900015A46029B00F0EC
:1054000029FB8346009101223046394601F0FBFA20
:10541000194A1A4B00F074FD06460F460122404619
:10542000294601F0F0FA5A46009B00F06BFC324628
:105430003B4600F057FE06460F46012250462946DD
:1054400001F0E1FA0E4DDFF858802A46434600F09D
:1054500057FD32463B4600F053FD2A46434600F0D6
:105460004FFD002CD8BF81F0004106B0BDE8F08DA3
:105470000000F03F0000F07F075C143326A6913C4B
:10548000182D4454FB21F93F0000E03FBC170000F9
:10549000D2170000461700005C1700003333EF3FBF
:1054A000FB21E93F2DE9F84F04460D4621F000406D
:1054B00000917349814211DC7249884201DC06D1B6
:1054C0002CB120462946BDE8F84FFFF79FBE6E4835
:1054D000002DCCBF6D496E49BDE8F88F6D49814202
:1054E00011DD6D498142D8BF4FF0FF366DDD20469A
:1054F0002946FFF722FE042808BFFFF793FE204647
:105500002946BDE8F88F6549654F25F00045814281
:1055100033DD6449814219DD002632464FF0804375
:105520002046294600F0E6F980468A4601222046B8
:10553000294601F068FA00223B4600F0D3FD4246BE
:10554000534600F087FA04460D463EE0012600224D
:10555000BA463B462046294600F0CCF980460F4625
:10556000002253462046294600F0BCFD42463B46F9
:1055700000F070FA04460D4627E04B4981421BDDDE
:10558000DFF828A10226002253462046294600F0D3
:10559000B9FB00223B4600F0ADF980460F460022E1
:1055A00053462046294600F09DFD42463B4600F00A
:1055B00051FA04460D4608E0032622462B460020F9
:1055C0003B4900F047FA04460D4622462B4610465A
:1055D000194600F097FB8B46824602460B4600F0C8
:1055E00091FB07460246334888460B46062178441D
:1055F000FFF7B7FD52465B4600F084FB82462E481B
:105600008B463A46434605217844FFF7AAFD3A46C1
:10561000434600F077FB02460B46002E50465946A3
:105620000CDA00F067F922462B4600F06BFB01B064
:1056300022462B46BDE8F04F00F062BC00F05AF95C
:1056400022462B4600F05EFB1C4A7A4402EBC6035E
:10565000D3E9002300F046FD22462B4600F042FD30
:10566000174A7A4402EBC603D3E9002300F048FC52
:10567000009A002AB8BF81F00041BDE8F88F000011
:10568000000010440000F07F182D4454FB21F93F26
:10569000FB21F9BF0000DC3F0000203E0000F33F8B
:1056A0000000F03F0000E63F008003400000F83FAC
:1056B0000000F0BF5E1500001C150000BA140000C9
:1056C000821400002DE9F04D9446CCF1000423F043
:1056D00000464CEA0404524F46EAD4749A4688467F
:1056E00021F00042BC4206D8454240EA050442EAA5
:1056F000D474BC4204D9BDE8F04D6246FFF789BDC1
:10570000AAF14055A5F17F6555EA0C040BD002249F
:1057100004EAAA74434DDFF810E144EAD87452EA6F
:10572000000B04D00CE0BDE8F04DFFF7BBBE002C31
:1057300014BF012CBDE8F08D022C30D0032C32D0E8
:1057400056EA0C0B0AD0BE4220D1BA4209D126F04B
:10575000804622F080423346114617E000291ADBCA
:1057600025E0DFF8C8B0FB44002C04BFDBE90001F2
:10577000BDE8F08D012C02BFDBE9000181F00041A2
:10578000BDE8F08D022C0AD0032C0CD0BA4212D105
:10579000B8F1000F0BDA23482549BDE8F08D284603
:1057A0002449BDE8F08D28467146BDE8F08D1D48BE
:1057B0002149BDE8F08D921B12153C2AC4BF19483F
:1057C0001D490EDCBAF1000FBEBF12F13C0F0020E4
:1057D000014606DB624600F03DF921F00041FFF78B
:1057E00061FE002C08BFBDE8F08D012C04BF81F0E4
:1057F0000041BDE8F08D114A114B022C07D000F09A
:1058000071FC2A46BDE8F04D0A4B00F06BBC00F07D
:1058100069FC2A46BDE8F04D064B00F071BB000064
:105820000000F07F182D4454FB2109C0161400001D
:10583000FB21F9BFFB210940FB21F93F075C143331
:1058400026A6A13C2DE9F04106460F4600F064FB78
:1058500004000D4618BF0120284320F00040C0F18D
:105860007F6000F1E040C00F0ED0301C18BF012057
:10587000384320F00040C0F17F6000F1E040C00FED
:1058800004BF0120FFF720FC20462946BDE8F08137
:1058900021F00042A2F16052B2F5801F01F00043F6
:1058A00028BFD2F17F6C0BD95FEA001C43EAC20229
:1058B00042EB507018BF704728BF20F001007047BE
:1058C000B2F5801FBCBF184670474FEA410C1CF56B
:1058D000001F02D2084600F0AEBF70B500F0BCFA5F
:1058E00000000089FFF7F6BF4FF00040A0F58000F0
:1058F0007047000010B591EA030F48BF83F00043E2
:1059000000F1F883841A71EB030C05D2121943EBF2
:105910000C03001B61EB0C01DFF824E14FEA11548A
:10592000A4EB135C1EEA430F18BF9EEA445F73D0DA
:1059300023EA0E03DCF1200E21EA045143F4801324
:1059400032D322FA0CFE10EB0E0023FA0CFE41EBD0
:105950000E01CCF1200E03FA0EFE10EB0E0051F1F9
:105960000001B1F5801FCCF1200E32D201EB0451C1
:1059700012FA0EF2BDE8104058BF7047401C38BF05
:105980005FEA420218BF7047002814BF20F00100F0
:1059900041F100014FEA410313F5001F38BF704782
:1059A000A1F1C04100F0A6BA012A43EB0302ACF119
:1059B000200CDCF11F0E32BF4FF0000E23FA0CF367
:1059C00010EB030041EB0451B4EB115FD0D0A1EB1D
:1059D000045101F5801149085FEA300001EB0451E0
:1059E0000ED350F1000038BF12FA0EFE08D1BDE808
:1059F0001040C9E7401C38BF5FEA4202CAD1C3E782
:105A0000BDE810404FEA410313F5001F38BF70474F
:105A1000A1F1C04100F06EBA9EEA445F08D011EADD
:105A20005E0FBDE8104004BF01F000410020704748
:105A3000BDE8104070B500F00FFA00BF64FBBE3E39
:105A40000000E0FF02494FF0000000F0AABF00BFD5
:105A50000000F87F2DE9C04130B4DFF8A0C23CEA75
:105A6000111418BF3CEA131400F0EC8081EA03051E
:105A70001CEA111444EAD57418BF1CEA131500F08F
:105A8000C780A4EB05044FF0004545EAC12145EA73
:105A9000C32341EA505143EA525304F17F749942BF
:105AA00004F500344FEAC0204FEAC22208BF9042FA
:105AB00000F09C804FEA13650FF24016765D4FEAC6
:105AC000134506FB05F7C7F1807706FB07F74FEA9A
:105AD000D737A7FB03687642C8F58038A7FB06CE08
