:020000040800F2
:10000000880B0020D50000081D1F00081F1F0008D6
:1000100000000000000000000000000000000000E0
:10002000000000000000000000000000211F000888
:100030000000000000000000231F0008251F00082A
:10004000E7000008E7000008E7000008E7000008F4
:10005000E7000008E7000008E7000008E7000008E4
:10006000E7000008E7000008E7000008E7000008D4
:10007000E7000008E7000008E7000008311F00085B
:10008000E7000008E70000083B1F0008E700000841
:10009000E7000008E7000008E7000008E7000008A4
:1000A000E7000008E7000008E7000008E700000894
:1000B000E7000008E7000008E7000008E700000884
:1000C000034885460BF0A0F900480047FF190008D7
:1000D000880B00200448804704480047FEE7FEE7FD
:1000E000FEE7FEE7FEE7FEE7C1AA0008C100000840
:1000F000FEB56D4C002727700126102533466B2274
:10010000D0216A4801960295009403F06CF903200F
:10011000207001236B22D02164480196029500943F
:1001200003F061F9277001231922D0215F4801965D
:100130000295009403F057F90420207001231A223D
:10014000D0215A4801960295009403F04CF925708D
:1001500001231C22D021554801960295009403F0FA
:1001600042F91820207001231B22D0214F4801960C
:100170000295009403F037F901237522D0214B48F2
:1001800001960295009403F00AFA64200AF079F8C7
:100190002078682801D00120FEBD0020FEBD3EB5BC
:1001A00080200E21424C0191029001233B220094B9
:1001B000D0213E4803F0F3F9208841BA20461030A0
:1001C0000180618849BA4180A18849BA818021892A
:1001D00049BA0187618949BA4187A18949BA8187AA
:1001E0003EBD0EB510220E213148029201910090C1
:1001F00001233B22D0212D4803F0D1F90EBD7047D9
:10020000704770B52A4CC825002010346062A06287
:10021000E062E065206660661FE0FFF7C0FF3821FE
:10022000615EE06D4018E0653A21615E206E401825
:1002300020663C21615E606E401860660021615E50
:10024000606A401860620221615EA06A4018A06284
:100250000421615EE06A4018E06228466D1EADB27E
:100260000028DAD1C8263146E06D0AF0A3FC104D13
:10027000314650356881206E0AF09CFCA8813146D9
:10028000606E0AF097FCE8813146606A0AF092FCE1
:1002900060823146A06A0AF08DFCA0823146E06A95
:1002A0000AF088FCE08270BD00000020E405002018
:1002B0004C000020FEB5099E84461546701E1C4663
:1002C00002B20AE0D3005F1938468038803FEB184D
:1002D000806FFF6F81C3521E12B2002AF2DC6046AB
:1002E00003C5002000900746083D01900FE00899E3
:1002F000F80009180CC9291803C90AF013FE019B5C
:10030000009A0AF05DFD7F1C3FB201910090B74258
:10031000EDDB0B9809E0C1000A191346803B803AD7
:100320009B6FD26F61180B604A60401E00B20028BC
:10033000F1DC0026374601250FE00A99E80009188C
:100340000CC9211803C90AF0EDFD32463B460AF0FC
:1003500037FD6D1C06460F462DB20B988542ECDB2F
:1003600032463B46019900980AF0CEFD03C403B023
:10037000F0BDF0B51FB482B017461E460CAA3CCAA9
:1003800010980193009211993A4633460AF018FDED
:1003900006460F46019B009A0AF012FD02460B46E4
:1003A000304639460AF026FE06460F4622462B46C0
:1003B000039902980AF0A8FD32463B460AF0B2FDC6
:1003C00022462B460AF0FCFC07B0F0BD70B516467D
:1003D0000A460546314610460AF06AFC04467F206C
:1003E0003146C0050AF05CFC29460AF061FC214652
:1003F0000AF005FC70BD000070B5FF250021044621
:10040000AD05C9430AF0CFFC364A6110541A2146A3
:100410000AF04EFC21460AF04BFC29460AF044FC47
:1004200021460AF045FC70BD70B5042600235C002F
:10043000055F8D4201DA015302E0954200DD02536F
:100440005B1C9BB2B342F2DB70BD10B504230022EB
:100450005400521C92B201539A42F9D310BD70B5A8
:10046000144605460AF0B2FE03D3214628460AF098
:10047000A3FE70BD10B51C4CA04201D32102484020
:100480001A49884200DD084619490AF011FC7F210B
:10049000C9050AF009FCA04200D3002010BDFF21CD
:1004A000C905C84201D309024840704710B501464A
:1004B0000AF0FEFB0021C9430AF075FC7F21C90543
:1004C0000AF0F2FB10BD10B5044601460AF0F0FB3D
:1004D00021460AF0EDFB07490AF027FC21460AF005
:1004E000E3FB10BDDF59375F000080809A99193F08
:1004F0004260D53F0000C040FEB50020FF4A00909A
:10050000074606460621105E515EFD4C40184042EB
:10051000C10F0818401001B2218002200823105E8C
:10052000D35E1225C0184042C30F1818401003B202
:100530006380019304200A23105ED35EC0184042FA
:10054000C30F1818401000B2A0800C23D35E555F73
:100550005B195B42DD0FEB185B101BB223879E46D5
:100560000E231425D35E555F5B195B42DD0FEB183C
:100570005B101BB263879C4610231625D35E555F24
:100580005A195242D30F9A18521012B2A28712234C
:10059000E35E2546C91A61621421615E019B403504
:1005A000591AA162E0620A20285E7346181A0C21CB
:1005B000E065695E6346591A21660E21695E511A2B
:1005C00061660AF0A5FD01903E20205E0AF0A0FDC4
:1005D000CC4A0199FFF7FAFE0AF0A5FDE087206EEC
:1005E0000AF096FD01900020285E0AF091FDC54AB0
:1005F0000199FFF7EBFE0AF096FD2880606E0AF085
:1006000087FD01900220285E0AF082FDBE4A019912
:10061000FFF7DCFE0AF087FD00B2688001903E2003
:10062000205E0AF075FDB9490AF042FB2065002002
:10063000285E0AF06DFDB5490AF03AFB6065019845
:100640000AF066FDB1490AF033FBA065B048B14D30
:100650000178A28C48002A522A46238DC8321352B0
:10066000A38D1446C834235200204200AC5E009B88
:10067000401CE3180093A74BC0B2C8339B5EDF1940
:10068000A54B9A5E96196428EFD3491CA04AC8B2BC
:1006900010700190642100980AF08CFA05B2984C11
:1006A0006421E58038460AF085FA07B22781642183
:1006B00030460AF07FFA06B266810198642802D1BA
:1006C00093480021017028460AF022FDA0613846B7
:1006D0000AF01EFDE06130460AF01AFD2062FEBD00
:1006E000FEB50020864E0090054604461221305E7D
:1006F000715E3746401A706202201421305E715ECE
:100700004037401AB0620420305EF0623A200C217B
:10071000305E795E3822401AF0650A21795EB25E59
:10072000891A31663C210E22715EBA5E891A7166A1
:100730000AF0EEFC01903E20305E0AF0E9FC714ABE
:100740000199FFF743FE0AF0EEFCF087306E0AF0E5
:10075000DFFC01900020385E0AF0DAFC694A01995A
:10076000FFF734FE0AF0DFFC3880706E0AF0D0FC30
:1007700001900220385E0AF0CBFC634A0199FFF732
:1007800025FE0AF0D0FC00B2788001903E20305E59
:100790000AF0BEFC5D490AF08BFA30650020385E35
:1007A0000AF0B6FC59490AF083FA706501980AF01C
:1007B000AFFC56490AF07CFAB0655548564F42786E
:1007C000B18C5000C83739523946338DC8310B527D
:1007D0000B46B68DC8331E5200204F4E4100C8361E
:1007E000775E009E401CBE1900964C4EC0B2765EED
:1007F000595E75190C196428EFD34549521CD0B2C3
:1008000048700190642100980AF0D4F907B23C4E78
:100810006421F78028460AF0CDF905B235816421BC
:1008200020460AF0C7F904B274810198642802D105
:1008300037480021417038460AF06AFCB06128460A
:100840000AF066FCF06120460AF062FC3062FEBDF0
:10085000FFB52F4C91B0E1680D4628460AF028FA02
:100860000390216928460F460AF022FA0590616933
:1008700028460E460AF01CFA3946069008460AF049
:1008800017FA0290A16938460D460AF011FA31466E
:10089000079008460AF00CFA0B90294630460AF0F9
:1008A00007FA2946049008460AF002FA0A90A16A5B
:1008B0000C9108460AF0FCF90990E16A0D462846B9
:1008C0000AF0F6F90890216B019108460AF0F0F958
:1008D0000E90616B009108460AF0EAF90D901399A9
:1008E00000980AF0E5F90746129901980AF0E0F934
:1008F000064601212846C907484011E0C0050020EE
:100900005C000020CDCCCC3DCDCC4C3DE4A40B3ADA
:100910000400002004010020940200202404002090
:1009200011990AF0C5F931460AF0BAF939460AF0C8
:10093000B7F9FE4F39460AF0BBF90C990AF05FF996
:10094000A0620646129900980AF0B2F90F90139926
:1009500001980AF0ADF90C90314611980AF0A8F907
:100960000C990AF04CF90F990AF09AF939460AF0F5
:100970009FF929460AF043F9E0620546009911986B
:100980000AF096F90F90284613990AF091F90C9005
:10099000304612990AF08CF90C990AF081F90F99F6
:1009A0000AF02DF939460AF083F901990AF027F97E
:1009B0000146206311980AF07BF9019028461299AC
:1009C0000AF076F90546304613990AF071F929467E
:1009D0000AF015F901990AF063F939460AF068F945
:1009E00000990AF00CF96063089909980AF007F970
:1009F0000E990AF004F90D990AF001F90AF0ACFB1E
:100A00000BF0DAF80AF0BCFB05460146A06A0AF0D2
:100A10008CF9A0622946E06A0AF087F9E06229466B
:100A2000206B0AF082F920632946606B0AF07DF999
:100A300060631A9914980AF03BF91B990AF038F987
:100A40004000000E7ED01B9908460AF031F91A9931
:100A5000054608460AF02CF91499064608460AF09D
:100A600027F931460AF0CBF829460AF0C8F80AF00F
:100A700073FB0BF0A1F80AF083FB054601461498BE
:100A80000AF053F9149029461A980AF04EF91A9070
:100A900029461B980AF049F91B90069907980AF015
:100AA000FFF801210AF07FF90746049905980AF03A
:100AB000A6F801210AF077F90646029903980AF090
:100AC000EFF80B990AF0ECF80A990AF098F8054645
:100AD00031461B980AF0ECF8009029461A980AF063
:100AE000E7F800990AF0DCF80190294614980AF01A
:100AF000DFF8054639461B980AF0DAF829460AF06D
:100B0000CFF8054639461A980AF0D2F8074631461A
:100B100014980AF0CDF839460AF0C2F80090A1689E
:100B2000049101980AF0C4F8E1690AF068F8E061FC
:100B30000746284604990AF0BBF8216A0AF05FF8D4
:100B4000064600E061E12062049900980AF0B0F8DE
:100B5000616A0AF054F8606204900199606801903B
:100B60000AF0A6F811990AF04AF839460AF047F84F
:100B70001190294601980AF09BF812990AF03FF863
:100B800031460AF03CF81290009901980AF090F86A
:100B900013990AF034F804990AF031F80546014631
:100BA000A06900900AF084F804906069129901909D
:100BB0000AF07EF80646206901210746C907484029
:100BC00011990AF075F831460AF06AF804990AF0AA
:100BD00067F856490AF06CF8E1680AF010F8E0602E
:100BE0000646129900980AF063F805902946019884
:100BF0000AF05EF80490314611980AF059F8049909
:100C000009F0FDFF05990AF04BF848490AF050F841
:100C1000394609F0F4FF20610746009911980AF05F
:100C200047F80590294638460AF042F804903046C5
:100C300012990AF03DF804990AF032F8059909F082
:100C4000DEFF3A490AF034F8019909F0D8FF01466D
:100C5000606111980AF02CF80190384612990AF058
:100C600027F80746294630460AF022F8394609F0A7
:100C7000C6FF01990AF014F82C490AF019F80099F6
:100C800009F0BDFFA0610299039809F0B8FF0B9924
:100C900009F0B5FF0A9909F0B2FF0AF05DFA0AF00F
:100CA0008BFF0AF06DFA05460146E0680AF03DF850
:100CB000E0600290294620690AF037F8206101902F
:100CC000294660690AF031F8606100902946A06900
:100CD0000AF02BF807460121A0610AF064F83946B2
:100CE00009F0E6FF054603218907009809F0E0FFB7
:100CF000009909F0DDFF294609F0D2FF7F21C905DF
:100D000009F07DFF0AF028FA05460E4601210298F7
:100D10000AF049F8394609F0CBFF0746012101984E
:100D20000AF041F8009909F0C3FF01E00AD7233B1C
:100D3000394609F064FF0AF00FFA2A4633460AF0F2
:100D40007FFE03225207FE4B0AF0ECF80AF018FA75
:100D5000FC4D0121A860606906460AF024F831467E
:100D6000019009F0A5FF064603212069890700903C
:100D700009F09EFF009909F09BFF314609F090FFB2
:100D80007F21C90509F03BFF0AF0E6F906460F4648
:100D90000121E0680AF007F8009909F089FF009046
:100DA0000198A16909F084FF009909F028FF0AF071
:100DB000D3F932463B460AF043FEE34F0322520783
:100DC0003B460AF0AFF80AF0DBF968600121E06801
:100DD00009F0E9FF616909F06BFF06460321890705
:100DE000206909F065FFA16909F062FF314609F049
:100DF00006FF0AF0B1F90AF0DBFB032252073B467B
:100E00000AF090F80AF0BCF9286015B0F0BD1CB5E6
:100E1000CE48026AC169019200918369503007C8C7
:100E2000FFF716FD1CBDFFB5C94CABB0E1680D4620
:100E3000284609F03DFF0AF08FF90F910E902169C5
:100E400028460E4609F034FF0AF086F90D910C9001
:100E5000616928460F4609F02BFF0AF07DF90B91D6
:100E60000A90A16928460C4609F022FF0AF074F99D
:100E7000119110903146084609F01AFF0AF06CF9FA
:100E8000059104903946304609F012FF0AF064F9E2
:100E9000054613912146304609F00AFF0AF05CF935
:100EA000099108903946084609F002FF0AF054F902
:100EB000019100902146384609F0FAFE0AF04CF9FB
:100EC000079106902146084609F0F2FE0AF044F91F
:100ED0000290039134992E9809F0EAFE359909F0B1
:100EE000E7FE4000000E7CD03599084609F0E0FE90
:100EF00034990646084609F0DBFE2E99044608465A
:100F000009F0D6FE214609F07AFE314609F077FE57
:100F1000FFF772FA0AF020F904460E462E980AF0FE
:100F20001BF92246334609F0FDFF0AF029F92E90FD
:100F300034980AF011F92246334609F0F3FF0AF01B
:100F40001FF9349035980AF007F92246334609F024
:100F5000E9FF0AF015F938993590084609F0A8FE1E
:100F600037990646084609F0A3FE36990446084616
:100F700009F09EFE214609F042FE314609F03FFE8F
:100F8000FFF73AFA0AF0E8F804460E4636980AF0F7
:100F9000E3F82246334609F0C5FF0AF0F1F836902F
:100FA00037980AF0D9F82246334609F0BBFF0AF019
:100FB000E7F8379038980AF0CFF82246334609F020
:100FC000B1FF0AF0DDF808AC38900FCC09F0F8FE5C
:100FD00004460E46239122900121389809F0E3FE41
:100FE00000E0FDE30AF0B8F8219120902246334654
:100FF0001591149009F096FF259126902846119B93
:10100000109A139909F080FF04460E461F911E9016
:101010000121379809F0C7FE0AF09EF81D911C9037
:10102000224633461B911A9009F07CFF24911290BE
:1010300000204849019B009A09F066FF039B029A31
:1010400009F062FF19910446289118900121369801
:1010500009F0A9FE0AF080F817910646224627916A
:101060001690289B09F05EFF249B129A09F0A8FEB7
:10107000259B269A09F0A4FE129104460D9B0C9A1A
:101080000799069809F040FF159B149A09F04AFF4A
:101090002591249000202F49059B049A09F034FFE4
:1010A00015911490039B029A09F02EFF1B9B1A9A2C
:1010B00009F038FF1B911A902846119B109A13993A
:1010C00009F07EFE02460B463046279909F02AFFBA
:1010D0001B9B1A9A09F074FE259B249A09F070FE56
:1010E00005460E46019B009A1599149809F00CFFCD
:1010F00015911490219B209A09F014FF1B911A90CE
:101100000D9B0C9A0799069809F05AFE0B46024669
:10111000069107901D991C9809F004FF08AF1D91D6
:101120001C900FCF09F0F0FE0B4602460B910A907F
:101130001799169809F0F6FE1D9B1C9A0CE000000A
:1011400094A94CC0B405002094A94C405C00002038
:10115000040000200000E03F09F032FE1B9B1A9AB9
:1011600009F02EFE2A46334609910890104619468A
:1011700009F0D8FE129B05460E4622461946104637
:1011800009F0D0FE2A46334609F01AFE0AF014FD93
:10119000139112900122089F099C0B990A9809F05B
:1011A000A1FF1A90099101220699079809F09AFF68
:1011B0001D911C90059B049A0F990E9809F0A4FEAE
:1011C000019B009A09F0A0FE039B029A09F0F8FD2A
:1011D000219120900A9E0B9B0122214638460A93BA
:1011E00009F080FF0546324608910A9B09F09AFEF5
:1011F0000B910A9019990D91189E0122139912983A
:1012000009F070FF044632460C910D9B09F08AFEEE
:101210000B9B0A9A09F0D4FD16900D912846069B67
:10122000079A089909F07EFE06460F4620461F9B46
:101230001E9A0C9909F076FE32463B4609F0C0FD35
:10124000139118902846159B149A089909F06AFE84
:101250000E4605462046239B229A0C9909F062FE11
:101260002A46334609F0ACFD04461591389809F03A
:1012700073FF22902391139B189A09F053FE0546A1
:101280000F46379809F068FF0B9122460A90159B8C
:1012900009F048FE2A463B4609F036FE10901191AF
:1012A000359809F059FF079106901D9B1C9A09F08B
:1012B00039FE05460F46349809F04EFF1E911F90E7
:1012C000219B209A09F02EFE2A463B4609F01CFE7F
:1012D000119B109A09F074FD07461491369809F095
:1012E0003BFF109022461191159B09F01BFE0891BF
:1012F00005460D9B169A2399229809F013FE2A465B
:10130000089B09F001FE299128902E9809F024FFEE
:1013100023912290219B209A09F004FE0446089113
:10132000099B1A9A0799069809F0FCFD2246089B2A
:1013300009F0EAFD299B289A09F042FD064615911D
:101340000D9B169A0B990A9809F0ECFD069104463C
:10135000139B189A1199109809F0E4FD2246069BF8
:1013600009F0D2FD06900791099B1A9A1E991F98C1
:1013700009F0D8FD089104461D9B1C9A23992298D8
:1013800009F0D0FD2246089B09F0BEFD079B069A96
:1013900009F016FD0446FF480D46806809F0DCFEA2
:1013A000079106903846149909F0EAFEFFF762F8B3
:1013B00009F0D2FE3A46149B09F0B4FD079B069A49
:1013C00009F0B0FD0690F3480791C06909F0C4FE2A
:1013D000079B069A09F0F4FC09F0D2FEED49C861BA
:1013E0000846806809F0B8FE0690079130461599C6
:1013F00009F0C6FEFFF73EF809F0AEFE3246159B37
:1014000009F090FD079B069A09F08CFD0690E148D3
:101410000791006A09F0A0FE079B069A09F0D0FC2C
:1014200009F0AEFEDB4908620846806809F094FEC8
:10143000079106902046294609F0A2FEFFF71AF808
:1014400009F08AFE22462B4609F06CFD079B069A9E
:1014500009F068FD0690CF480791406A09F07CFECC
:10146000079B069A09F0ACFC09F08AFEC94948625C
:101470000846C06909F070FE099108903846149931
:1014800009F07EFEFEF7F6FFC249496809F010FC3C
:1014900009F062FE3A46149B09F044FD069007915C
:1014A0002B9809F059FE079B069A09F089FC099BC5
:1014B000089A09F085FC09F063FE2B90B548006A94
:1014C00009F04AFE099108903046159909F058FE36
:1014D000FEF7D0FF0246AF484168104609F0E8FB2E
:1014E00009F03AFE3246159B09F01CFD0690079163
:1014F0002C9809F031FE079B069A09F061FC099BC4
:10150000089A09F05DFC09F03BFE2C90A148406A66
:1015100009F022FE099108902946204609F030FE84
:10152000FEF7A8FF02469B48416810460C9109F05F
:10153000BFFB09F011FE22462B4609F0F3FC069092
:1015400007912D9809F008FE079B069A09F038FCD0
:10155000099B089A09F034FC09F012FE2D908D4881
:10156000806809F0F9FD0790069101220991089021
:101570009207894B3846149909F0D4FC099B089AC4
:1015800009F0D0FC0A9083480B91C06909F0E4FD92
:101590000B9B0A9A09F014FC09F0F2FD7D49012227
:1015A000C861079B069909900A930B9192077A4BA1
:1015B0003046159909F0B6FC0B9B0A9A09F0B2FC6B
:1015C0000A9074480B91006A09F0C6FD0B9B0A9AB9
:1015D00009F0F6FB09F0D4FD6E490122086208907B
:1015E000079906980691079092076B4B204629466B
:1015F00009F098FC079B069A09F094FC0690654850
:101600000791406A09F0A8FD079B069A09F0D8FBEC
:1016100009F0B6FD5F4948620D90099809F09CFDFC
:101620000A900B910C9809F097FD079106903A46A5
:10163000149B09F077FC074609912B9809F08CFD63
:101640003A46099B09F0BCFB0B9B0A9A09F0B8FBD0
:1016500009F096FD2B90089809F07EFD0B910A90F9
:101660003246159B0799069809F05CFC06460891DE
:101670002C9809F071FD3246089B09F0A1FB0B9BE9
:101680000A9A09F09DFB09F07BFD2C900D9809F05A
:1016900063FD0746089122462B460799069809F0F4
:1016A00041FC04460D462D9809F056FD22462B4676
:1016B00009F086FB3A46089B09F082FB09F060FDC1
:1016C000344C05460146A069069009F0F1FA074638
:1016D00060692C99089009F0EBFA0646206901210F
:1016E000C9070A9048402B9909F0E2FA314609F0FF
:1016F000D7FA394609F0D4FA284909F0D9FAE1684D
:1017000009F07DFAE06006462C99069809F0D0FAB7
:1017100009902946089809F0CBFA079031462B9892
:1017200009F0C6FA079909F06AFA099909F0B8FAB6
:101730001A4909F0BDFA0A9909F061FA2061079087
:1017400006992B9809F0B4FA0A902946079809F0EF
:10175000AFFA099030462C9909F0AAFA099909F0D4
:101760009FFA0A9909F04BFA0C4909F0A1FA089975
:1017700009F045FA014660612B9809F099FA089042
:101780002C99079809F094FA07902946304609F0F9
:101790008FFA05E004000020E17A643F0AD7233B7A
:1017A000079909F02CFA089909F07AFA714909F0B9
:1017B0007FFA069909F023FAA061059B049A0F9914
:1017C0000E9809F0FDFA019B009A09F0F9FA039BC3
:1017D000029A09F0F5FA09F0D3FCFEF70DFE00E0DD
:1017E000C5E009F0B9FC05460E46E06809F0B4FC16
:1017F0002A46334609F096FB09F0C2FCE0600290ED
:10180000206909F0A9FC2A46334609F08BFB09F050
:10181000B7FC20610190606909F09EFC2A463346BE
:1018200009F080FB09F0ACFC60610090A06909F050
:1018300093FC2A46334609F075FB09F0A1FC0746E4
:101840000121A06109F0AFFA394609F031FA0546E5
:1018500003218907009809F02BFA009909F028FA6A
:10186000294609F01DFA7F21C90509F0C8F909F0D8
:1018700073FC0E4605460121029809F094FA394698
:1018800009F016FA07460121019809F08CFA00992F
:1018900009F00EFA394609F0B2F909F05DFC2A4662
:1018A00033460AF0CDF803225207334B09F03AFBD6
:1018B00009F066FC314D0121A8606069064609F017
:1018C00072FA3146019009F0F3F9064603212069C6
:1018D0008907009009F0ECF9009909F0E9F931461F
:1018E00009F0DEF97F21C90509F089F909F034FC16
:1018F0000F4606460121E06809F055FA009909F003
:10190000D7F900900198A16909F0D2F9009909F07E
:1019100076F909F021FC32463B460AF091F8184E60
:1019200003225207334609F0FDFA09F029FC6860EA
:101930000121E06809F037FA616909F0B9F9074651
:1019400003218907206909F0B3F9A16909F0B0F909
:10195000394609F054F909F0FFFB09F029FE03228A
:101960005207334609F0DEFA09F00AFC28602FB06E
:10197000F0BD00000AD7233B94A94CC0B405002059
:1019800094A94C40FEE730B599B001200090019039
:1019900000040A900001022500240B9009950C9484
:1019A000684607F09EFE002800D0FEE7072014904E
:1019B000169401211595179414A808F0B2F8002880
:1019C00000D0FEE721200D90102011900F940DA85B
:1019D00008F01AFA002800D0FEE708F075F97D211A
:1019E000C90009F0D1F809F00AF8042009F04BF811
:1019F00000221146501E08F0E9FF19B030BD08F072
:101A00001BFCFFF7C0FF00F049F800F08DF900F073
:101A100059F900F0F7F800F089F800F023FA7D2575
:101A2000ED00284608F02DFC0126164C760306E052
:101A30003146204608F083FD284608F022FCFEF7D8
:101A400057FB0028F4D101252D03FF26F536294642
:101A5000204608F074FD304608F013FC64230A2287
:101A600009A10C4806F0B8FEFF230A220A490948DA
:101A700006F016FF64230A220749064806F0ACFE6A
:101A8000E5E70000000400487472616E736D6974CC
:101A90003A0A000014070020D8050020F0B52148BC
:101AA00087B04269012189050A43426142690A40BF
:101AB0000592426949110A43426142690A4005920E
:101AC000426949000A4342614069012208401221EB
:101AD0008F060590384608F02CFD072636030122B4
:101AE0003146114808F025FD052000900020012412
:101AF000019069460294384608F018FC122003252C
:101B000000900194694603950294384608F00EFC53
:101B100001946946044800960395029408F006FC77
:101B200007B0F0BD001002400004004810B52D4879
:101B30002B4901602C4941600021816001614161B4
:101B400081610122C161C260016200F022FA0028B5
:101B500003D0422125A0FFF715FF0021214802F004
:101B6000E5F9002803D0492120A0FFF70BFF002151
:101B70001C4802F000FA002803D050211BA0FFF7F8
:101B800001FF10BD00B50068154987B0884215D126
:101B9000C0200090122001210190032002910491A5
:101BA00003906946154808F0C1FB1548C269012138
:101BB00049050A43C261C0690840059007B000BDED
:101BC00010B500680649884209D10D48C169012253
:101BD00052059143C161C021084808F043FC10BD83
:101BE00000540040E40500205D3E30202E2E2F538F
:101BF00072632F6932632E63000000000004004806
:101C00000010024010B5294827490160FF21053125
:101C1000416000210722816012020161C26001223D
:101C2000416152028261016210224162C26181629D
:101C300007220163C262416302F025FA002803D043
:101C400047211BA0FFF79EFE10BD00B50068164996
:101C500087B0884215D11A48826981140A4382618B
:101C6000806908400590E02000900220019000214A
:101C7000032003900291049109206946C00608F0F0
:101C800055FB07B000BD10B500680749884209D16F
:101C90000B4881698214914381610920E021C006CB
:101CA00008F0E0FB10BD00000030014030060020CD
:101CB0002E2E2F5372632F7370692E630000000065
:101CC0000010024010B501215C4886B08907016010
:101CD00000242F218460416059490461C160802142
:101CE000816103F0D4FD002803D0412155A0FFF706
:101CF00049FE0120000300906946504805F0FCFBB6
:101D0000002803D047214FA0FFF73CFE049404A90C
:101D10004A48059406F034FA002803D04E2149A021
:101D2000FFF730FE06B010BD1CB5444849494030AD
:101D3000016043490024C839846041604049C16062
:101D40008021816103F0A3FD002803D05E213DA026
:101D5000FFF718FE3948009469464030019406F0B8
:101D60000FFA002803D0652136A0FFF70BFE1CBD3B
:101D700008B5006801229207374990420DD1C86921
:101D800001221043C861C86901211040009000225F
:101D90000F2008F01BFE0F200FE02E4A90420ED1BC
:101DA000CA6920200243CA61C9690022014000912A
:101DB0000121122008F00AFE122008F008FE08BDDA
:101DC00010B50068012292072349904205D1C869E5
:101DD00040084000C8610F2007E01E4A904206D12B
:101DE000C86920229043C861122008F0F7FD10BD99
:101DF00070B50546006801218907184E884214D144
:101E0000174C2068401C2060FEF7C9F9FEF768FCFB
:101E1000FEF7FDFF1421206808F0CCFE002904D154
:101E200001210903304608F08AFB0A4928688842E4
:101E300003D14114304608F082FB70BD94060020A7
:101E4000871300002E2E2F5372632F74696D2E633B
:101E50000000000000140040001002400004004890
:101E60003C00002010B5274825490160E1214902C6
:101E7000416000218160C16001618161C1610C220A
:101E800001624261416206F0BCFB002803D044219C
:101E90001DA0FFF777FD10BD00B50068184987B099
:101EA000884218D11C488269012189030A43826152
:101EB00080690840059003204002009002200190B4
:101EC000002002900320039001200490092069461D
:101ED000C00608F02BFA07B000BD10B5006808492D
:101EE00088420BD10C4881690122920391438161A0
:101EF000032109204902C00608F0B4FA10BD000011
:101F000000380140140700202E2E2F5372632F75C6
:101F1000736172742E630000001002407047FEE788
:101F20007047704710B508F0A4F908F0B7FD10BD70
:101F300010B5044804F089FD10BD10B5024804F046
:101F400084FD10BD94060020D406002008B50F487B
:101F50008169012211438161816911400091C26947
:101F600001040A43C261C069002208400090114682
:101F7000501F08F02BFD00221146901E08F026FD90
:101F800000221146501E08F021FD08BD001002403D
:101F9000704770B5040006D02546403568780026A5
:101FA000002802D005E0012070BD2E702046FFF70A
:101FB000E9FD242068702068016849084900016033
:101FC0000F216068090688432168086120688268DB
:101FD0000121C9038A438260E0680128A06808D013
:101FE00021229202104322689060E068022802D009
:101FF00005E00843F7E701202268C002506020682E
:102000004268F74B1A4342602068C2688A43C26044
:10201000616920690843A169090208432168C86011
:10202000216AE0690843216808602068016801228C
:10203000114301606664202068702663AE70002042
:1020400070BD704770B5040012D02420254640357D
:102050006870206801684908490001602046FFF760
:10206000AFFD0020606468702063A870287070BDA8
:10207000012070BD01688A69D243920701D4002211
:102080008A6200688169C943C90703D08169012256
:10209000114381617047F8B50446006817468069AE
:1020A0000E46C043C0062CD42546403520688069C2
:1020B000C04380060FD5701CF8D0002E04D008F065
:1020C000DDF8C01BB042F1D9202068700020A87054
:1020D00028700320F8BD21681020C86120682026E0
:1020E000C6612046FFF7C6FF20684168BD4A11401F
:1020F0004160042060646E700020A8702870012088
:10210000F8BD0020F8BD70B516460D4604461AE02D
:10211000324629462046FFF7BEFF002801D00120A5
:1021200070BD002D04D008F0A9F8801BA8420AD980
:10213000616C202001436164403460700020A07015
:102140002070032070BD20688069C0438006DFD402
:10215000002070BDF8B51C4617460E46054611E036
:10216000601C0FD0002C05D008F088F80699401AA2
:10217000A04207D92020403568700020A870287040
:102180000320F8BD286881693046884304D00020C8
:10219000B842E5D00020F8BD0120F9E770B5164639
:1021A0000C4605461CE0324621462846FFF773FFE1
:1021B000002801D0012070BD601C11D0002C04D07B
:1021C00008F05CF8801BA0420AD9696C202001430A
:1021D0006964403568700020A8702870032070BDC5
:1021E00028688069C0438007DDD4002070BDFFB53A
:1021F000054604464035687881B020287ED128788D
:1022000001287BD00120287008F038F80746012209
:1022100000901923D1032046FFF79CFF00283FD1EF
:10222000212068701020A870002666640398606200
:10223000049860856663618D01204003FF2903D9FE
:10224000FF222285009034E0618D2185009036E0E8
:102250002046029901F017FE36E0FFF79FFF0028A5
:1022600003D0606C042847D01AE0606A411C6162A8
:10227000216800788862608D401E6085208D401E38
:102280000004000C20851FD1608D00281CD0009711
:102290000022802120460A9BFFF75CFF002802D025
:1022A000032005B0F0BD608DFF2805D9FF222285EF
:1022B000009601231B06CBE7608D20850096208DBC
:1022C0000123C2B25B06C3E7608D0A9900283A4633
:1022D0002046C2D1FFF717FF0028C2D12068202274
:1022E000C261206841683F4B194041606A70AE701E
:1022F0002E700020D5E701E00120D2E70220D0E7D0
:10230000F8B5054617460E46044640352BE03A46DA
:1023100031462046FFF7BFFE002801D00120F8BD5E
:1023200020688069C04380060DD420682022C261E5
:10233000206841682B4B19404160002060646A703E
:10234000A8702870EAE7002E04D007F097FFC01BA2
:10235000B04208D9616C202001436164687000209C
:1023600028700320F8BD20688069C0434007CED4A0
:102370000020F8BDFFB5054604464035687881B0B9
:1023800020287DD1287801287FD00120287007F0EF
:1023900075FF0746012200901923D1032046FFF75D
:1023A000D9FE002843D1222068701020A870002692
:1023B000666403986062049860856663618D092095
:1023C0008002FF2903D9FF222285009037E0618D2A
:1023D0002185009039E02046029901F054FD39E052
:1023E0000080000200E800FEFFF78AFF002803D00B
:1023F000606C042847D01AE02068416A606A421C79
:1024000062620170208D401E80B22085618D491E60
:10241000618500281ED1608D00281BD00097002206
:10242000802120460A9BFFF795FE002801D003205B
:1024300037E7608DFF2805D9FF222285009601230A
:102440001B06C8E7608D20850096208D0123C2B24F
:102450005B06C0E7608D0A9900283A462046C3D142
:10246000FFF751FE0028C3D120682022C2612068F6
:102470004168FE4B194041606A70AE702E7000E0FA
:1024800003E000200DE701200BE7022009E7FFB57C
:10249000054604464035687881B01646202870D13C
:1024A000029800284FD0002E4DD02878012868D0FF
:1024B0000120287007F0E2FE0746212068702020E6
:1024C000A87000216164029860626685616320687B
:1024D00041680126F603B1434160009700220821BC
:1024E0002046049BFFF736FE002804D02068416890
:1024F0003143416043E021680820C861E068022858
:102500000BD10097002208212046049BFFF722FEF2
:102510000028EBD121680820C86101210097002222
:1025200009042046049BFFF715FE0028DED115E0C4
:10253000FFF734FE002808D020684168314341602D
:10254000606C04281BD10120ABE6606A411C61620B
:10255000216800788862608D401E6085608D0499D6
:1025600000283A462046E3D1FFF7CDFD00280BD0E6
:102570002068416831434160606C042802D0032028
:102580008FE617E00020606421682020C861009772
:10259000012231462046049BFFF7DCFD0028A5D12F
:1025A0002068416831434160202068700020A87095
:1025B000287076E6022074E6FFB5054604464035ED
:1025C000687881B0164620287ED10298002868D00D
:1025D000002E66D0287801287DD00120287007F0D1
:1025E0004DFE0746222068702020A87000206064FD
:1025F0000299616266856063206841680126F6037E
:10260000B14341600097002208212046049BFFF758
:10261000A1FD002804D020684168314341603EE0BC
:1026200021680820C8614103009701222046049BCD
:10263000FFF790FD0028EED120E0FFF761FE0028B3
:10264000206813D041683143416020688169C943E3
:10265000490707D4416A606A421C62620170608D5A
:10266000401E6085606C202819D01AE0416A606ABB
:10267000421C62620170608D401E6085608D04990D
:1026800000283A462046D8D1FFF73DFD00280AD061
:102690002068416831434160606C042801D0032008
:1026A000FFE50120FDE521682020C8610097012297
:1026B00031462046049BFFF74DFD0028ABD1206832
:1026C00041683143416000E005E02020687000204F
:1026D000A8702870E5E50220E3E570477047704771
:1026E000F0B503460022CE0740332824B025002E43
:1026F00005D05E7842222746B74300D0F2228E07EB
:1027000005D544265B7832439C4300D02A434B07CF
:1027100001D5B8231A4311238B4301D190231A43C7
:1027200012238B4301D160210A4300680168914361
:1027300001600020F0BD70B504464D48E0620026FF
:1027400026632020254640356870AE7066634807D2
:1027500011D52068416A606A421C62620170208D56
:10276000002808D0401E2085608D401E6085606C6A
:1027700004210843606407212046FFF7B1FF216868
:102780001020C8612E702046FFF7A9FF70BD70476A
:10279000704710B5406A01684A680123DB031A4399
:1027A0004A60826B00215163C26B51630146403124
:1027B0004A78602A02D0FFF7EAFF10BD20224A7053
:1027C000FFF7E6FF10BD70B500260446403405460D
:1027D000A6706178282029290ED061782A290AD18B
:1027E00060702220286302212846FFF779FF2670B7
:1027F0002846FFF773FF70BD607021202863012118
:102800002846FFF76DFF26702846FFF766FF70BD6C
:102810007047F8B5054604464035287816460F46F9
:10282000012811D0012028701149F80632D5F00690
:1028300030D5628D1020002A08D02168C861606CF4
:1028400004210843606467E00220F8BDE36A0122C6
:102850005206934202D0E36A934202D16A78282A50
:102860000DD0E26A8A4207D0697803E000E800FEF2
:102870000000FFFF292907D02168C8614CE03946D4
:102880002046FFF758FF47E02168C8612046FFF760
:10289000F1FB3EE0780717D5700715D5608D00284D
:1028A0000BD02068426A606A431C63620270208D0C
:1028B000401E2085608D401E6085608D00282BD1D4
:1028C000E06A884225D127E0380706D5300704D5CD
:1028D0003946204601F0E6FA1EE0B8071CD5B007DD
:1028E0001AD5608D00280CD0606A411C6162216895
:1028F00000788862608D401E6085208D401E208596
:102900000AE0E06A01210906884202D0E06A002854
:1029100002D12046FFF757FFB80605D5B00603D50C
:102920003946204600F062F800202870F8BDF8B55E
:102930000026054640350446AE70F948E0626685DB
:10294000606C0843606468782027282823D0687862
:10295000292820D068782A281DD007212046FFF793
:10296000BFFE6878602800D06F70266366632068B9
:102970000168EC4A4904016817D501239B03994378
:102980000160A06B42632E70A06B07F0D5FE00289B
:102990001DD0A06B19E003212046FFF7A1FE2820DF
:1029A00068702663E0486063E1E7090410D50168B8
:1029B0000123DB0399430160E06B42632E70E06BFF
:1029C00007F0BAFE002802D0E06B416B8847F8BDE3
:1029D0006878602804D02E702046FFF7D8FEF8BD36
:1029E0006F702E702046FFF7D3FEF8BDF8B5044691
:1029F000006820260F46C66121680820C8610721AB
:102A00002046FFF76DFE20684168B2021143416025
:102A100020684168C54A114041602046FFF72AFB03
:102A200020680168254649044035002902DB016819
:102A3000090406D5697821292FD0E16B0968496816
:102A40006185628D0421002A02D0626C0A436264AF
:102A50007A070FD5426A606A431C63620270208D58
:102A6000002807D0401E2085608D401E6085606C68
:102A70000843606400202063A8706063616C0029D3
:102A80000DD0616C2046FFF752FF6878282803D1EB
:102A900039462046FFF74FFEF8BDA16BCEE7E26A4C
:102AA0009F498A4206D0E1626E7028702046FFF787
:102AB00016FEF8BD69786E7022292870204602D073
:102AC000FFF70BFEF8BDFFF709FEF8BD10B5044691
:102AD00040342378012B15D001232370CB0618D561
:102AE000D30616D5617821290ED0C16B09684968D3
:102AF000102200290AD00168CA61416C04221143E6
:102B0000416414E0022010BD816BEFE70068C261F0
:102B10000DE00B0705D5130703D500680821C16137
:102B200005E08B0603D5920601D5FFF75FFF002075
:102B3000207010BD7047704770477047F8B5054664
:102B400000682027C76128684268784B1A404260B5
:102B500000262E6372486E63E862C80606D52968AF
:102B60001020C861686C0421084368642846FFF798
:102B700081FA03212846FFF7B3FD686C002814D1C1
:102B80002C464034607860280FD06078212811D01E
:102B90006078222808D16770A078A6704028267037
:102BA000284614D0FFF7C6FFF8BD696C2846FFF72A
:102BB000BEFEF8BD6770A078A67040282670284633
:102BC00002D0FFF7B9FFF8BDFFF7B7FFF8BDFFF779
:102BD000B2FFF8BDF8B5054604464035287801280F
:102BE00016D001202870C8060026002812DAD00668
:102BF00010D521681020C861606C0421084360640E
:102C00001221204600F047F82046FFF733FA3FE054
:102C10000220F8BD080634D5500632D52068016878
:102C2000402291430160608D002825D020684068D3
:102C30008105608D890DFF2803D9FF20208593042D
:102C400003E0608D012320855B060096208DC2B2D3
:102C5000204601F018F9608D218D401A6085687852
:102C600022282068016804D00122920311430160E8
:102C70000EE00122D203F9E740212046FFF757FE7C
:102C800006E0880604D5900602D52046FFF756FFD9
:102C90002E700020F8BD70B5254D1224436B002224
:102CA00020268C43AB4202D0224DAB420DD14B07C4
:102CB00000D5B82211238B4301D190210A43002C67
:102CC00011D1324340210A430DE04B0700D5B82211
:102CD000CB0701D0F2231A43890701D5F4210A4317
:102CE000002C00D1324300680168114301600020CC
:102CF00070BD70B50026054640350446AE70697853
:102D000020202129687017D012202063022120463C
:102D10006663FFF7E5FC2E702046FFF70BFF70BDE2
:102D20000000FFFF932700081328000800E800FEBA
:102D3000D52B0008CD2A0008112020630121204650
:102D40006663FFF7CDFC2E702046FFF7F5FEE6E741
:102D5000F8B5074604464037387815460E46012830
:102D600010D001203870F0060ED5E8060CD5216889
:102D70001020C861606C0421084360642046FFF79E
:102D800079F95BE00220F8BD700708D5680706D521
:102D90002068416A606A421C6262017009E0B00703
:102DA0000ED5A8070CD5606A411C616221680078C5
:102DB0008862208D401E2085608D401E60853DE02C
:102DC000FE4A30062FD568062DD5208D002825D146
:102DD000608D002822D0206840688105608D890DB3
:102DE000FF2806D9FF220020228501231B06009020
:102DF00010E0608D2085E06A904205D000200090B0
:102E0000E36A208DC2B205E000200090208D0123EE
:102E1000C2B25B06204601F036F80FE02068406839
:102E2000800123D506E0700608D5680606D5608DBA
:102E300000280ED040212046FFF779FDB00605D5C9
:102E4000A80603D531462046FFF778FE00203870EB
:102E5000F8BD206841688901F0D4E16A914205D14A
:102E600041680122920311434160E7E72046FFF7E2
:102E700040FFE3E7F8B5054604464035687820286A
:102E800030D120688069C04300042BD52878012800
:102E900028D001202870212068701020A8700026FA
:102EA000666462626385C548E062C5486063608DA0
:102EB000FF2804D9FF20012320851B0603E0608D35
:102EC000012320855B06012040030090208DC2B2C3
:102ED000204600F0D8FF2E7001212046FFF7DBFED0
:102EE0000020F8BD0220F8BDF8B50546044640357F
:102EF0006878202830D120688069C04300042BD531
:102F00002878012828D001202870222068701020FD
:102F1000A8700026666462626385A848E062A848DB
:102F20006063608DFF2804D9FF20012320851B06E4
:102F300003E0608D012320855B060920800200905C
:102F4000208DC2B2204600F09EFF2E700221204646
:102F5000FFF7A1FE0020F8BD0220F8BDF8B503463A
:102F600040335C78202C1ED11C78012C1BD001240E
:102F70001C7021245C7020249C700025456404682A
:102F800066680127FF03BE43666041624285418D4A
:102F900001858A49C1628B4941631D700521FFF794
:102FA0007AFE0020F8BD0220F8BDF8B50346403394
:102FB0005C78202C1ED11C78012C1BD001241C70A5
:102FC00022245C7020249C70002545640468666897
:102FD0000127FF03BE43666041624285418D018542
:102FE0007649C162774941631D700621FFF753FEA0
:102FF0000020F8BD0220F8BD10B5406A01684A689B
:103000000123DB031A434A601021FFF790FC10BD37
:1030100010B5446A2068016801229203914301605F
:10302000608D002808D0218D606A41186162608D32
:10303000FF2806D9FF2005E012212046FFF72BFECE
:1030400010BD608D2085226883B22832A06B07F006
:1030500028FBF1E7FFB5054604464035687881B0A6
:103060009446202862D120688069C04300045DD561
:10307000287801285AD0012028702120687010205B
:10308000A87000276764626263854C48E0624E481E
:103090006063608DFF2804D9FF2001262085360655
:1030A00006E0608D2085012676060004000C2AD0FB
:1030B000A16B46488862A16B45480863A06B6146D6
:1030C000C762A06B47632268238D2832A06B07F08C
:1030D000E8FA012040030090208D3346C2B220461A
:1030E000029900F0D0FE608D218D401A60852F700E
:1030F00011212046FFF7CFFD2068016801229203CD
:10310000114301600FE02E486063012040030090EE
:10311000002233462046029900F0B5FE2F700121AF
:103120002046FFF7B8FD002005B0F0BD0220FBE708
:1031300010B5446A206801680122D20391430160FE
:10314000608D002808D0218D606A42186262608D0F
:10315000FF2806D9FF2005E012212046FFF79BFD3E
:1031600010BD608D2085216883B22431E06B07F0AB
:1031700098FAF1E7FFB5054604464035687881B016
:1031800020286DD120688069C043000468D5287864
:10319000012865D001202870222068701020A870B6
:1031A00000276764626263850448E06206486063E2
:1031B000608DFF2811D9FF2020850BE00000FFFF64
:1031C000512D000813280008D52B000811300008E5
:1031D000F92F00080126360606E0608D20850126BD
:1031E00076060004000C29D0E16BFE488862E16B92
:1031F000FD480863E06BC762E06B47632168238D7D
:103200002431E06B07F04DFA092080020090208DF8
:103210003346C2B22046029900F035FE608D218D02
:10322000401A60852F7011212046FFF734FD206879
:1032300001680122D203114301600FE0EB48606393
:10324000092080020090002233462046029900F0B7
:103250001AFE2F7001212046FFF71DFD002063E7B5
:10326000022061E7704770B505460446403568782E
:1032700020283BD1002937D0002A35D028780128D2
:1032800034D001202870212068702020A8700026EA
:10329000666461626285608D2085D548E062D548AC
:1032A0006063A26BD4489062A26BCF481063A06B9E
:1032B000C662A06B46632268238D2832A06B07F09C
:1032C000F0F9206841680122D203914341602E70D9
:1032D00004212046FFF7DFFC2068016801229203E9
:1032E0001143016000201AE5012018E5022016E5CF
:1032F0007047F8B5054604464035687820283BD12C
:10330000002937D0002A35D02878012834D0012070
:103310002870222068702020A870002666646162F0
:103320006285608D2085B248E062B2486063E26BDE
:10333000B2489062E26BAC481063E06B0A46C6622A
:10334000E06B46632768238D39462431E06B07F034
:10335000A8F9206841680127FF03B94341602E7036
:1033600004212046FFF797FC20680168394301607B
:103370000020F8BD0120F8BD0220F8BDF8B50446D4
:103380000120164640031D46DAB2C3020090079F93
:10339000204600F078FD3A4620460699FEF7FEFEEC
:1033A000002803D0606C04281BD018E02846F5B232
:1033B000012809D02168300A88623A4620460699D9
:1033C000FEF7ECFE0028EDD1206885620097002210
:1033D00080212046069BFEF7BDFE002800D003207A
:1033E000F8BD0120F8BDFFB50546044640356878B4
:1033F00083B0202876D10C98002874D00D9800282E
:1034000071D0287801286DD00120287006F036FF91
:103410000746012200901923D1032046FEF79AFEA9
:10342000002853D1212068704020A87000266664CF
:103430000C9860620D98608566630E980090019705
:1034400004A90EC92046FFF799FF002804D0606C3C
:103450002E7004286AD039E0608DFF2805D9FF223C
:10346000228501231B06009606E0608D20850096CC
:10347000208D0123C2B25B062046049900F003FDB3
:103480003A4620460E99FEF789FE002803D0606C6C
:1034900004284BD01AE0606A411C61622168007800
:1034A0008862608D401E6085208D401E0004000CE7
:1034B000208524D1608D002821D000970022802112
:1034C00020460E9BFEF746FE002802D0032007B0E0
:1034D000F0BD608DFF2807D9FF22228501231B063E
:1034E000009608E024E021E0608D20850096208D84
:1034F0000123C2B25B062046049900F0C4FC608D33
:103500000028BDD13A4620460E99FEF7FCFD002862
:10351000BDD120682021C16120684268384B1A4023
:1035200042606970AE702E700020D0E70120CEE7B7
:103530000220CCE7F8B504460120164640031D469C
:10354000DAB20090079F0023204600F09CFC3A4628
:1035500020460699FEF722FE002803D0606C04285E
:103560001BD018E02846F5B2012809D02168300A9E
:1035700088623A4620460699FEF710FE0028EDD1F3
:10358000206885620097002240212046069BFEF7B6
:10359000E1FD002800D00320F8BD0120F8BDFFB5F3
:1035A000054604464035687883B020287ED10C98C3
:1035B00000287CD00D98002879D02878012875D073
:1035C0000120287006F05AFE0646012200901923B9
:1035D000D1032046FEF7BEFD002829D122206870C5
:1035E00040200FE031310008F92F0008512D00086C
:1035F0000000FFFFCD2A000865320008F132000804
:1036000000E800FEA870002767640C9860620D98BF
:10361000608567630E980090019604A90EC9204644
:10362000FFF788FF002804D0606C2F70042860D05A
:103630005DE0618D09208002FF2905D9FF222285E6
:1036400001231B06009006E0618D21850090208DEE
:103650000123C2B25B062046049900F014FC0096D8
:103660000022042120460E9BFEF774FD00283ED167
:103670002068416A606A421C62620170208D401EAF
:1036800080B22085618D491E6185002822D1608D20
:1036900000281FD000960022802120460E9BFEF7B6
:1036A00059FD002823D1608DFF2801E030E020E0A3
:1036B00005D9FF22228501231B06009706E0608DB5
:1036C00020850097208D0123C2B25B062046049915
:1036D00000F0D9FB608D0028C1D1324620460E99FA
:1036E000FEF711FD002806D0606C042801D00320ED
:1036F000EDE60120EBE620682022C26120684168E7
:10370000FB4B194041606A70AF702F700020DEE6FD
:103710000220DCE6FFB5054683B0044640356878F4
:103720000D9E20284AD10C98002822D0002E20D0AF
:1037300020688069C043000440D5287801283DD026
:103740000120287006F09AFD212169704021A9709E
:10375000002767640C9961626685E649E162E64983
:103760006163618DFF2906D9FF2101262185360677
:1037700005E00120ABE6618D012621857606192141
:103780000091019004A90EC92046FFF7F7FD00281B
:1037900005D0606C2F700428EBD0032097E60097CB
:1037A000208D3346C2B22046049900F06CFB2F7086
:1037B00001212046FFF76FFA002088E6022086E606
:1037C000FFB5054683B00446403568780D9E202835
:1037D0004CD10C98002822D0002E20D0206880697F
:1037E000C043000442D5287801283FD0012028702A
:1037F00006F044FD222169704021A970002767640A
:103800000C9961626685BB49E162BB496163618D68
:10381000FF2906D9FF2101262185360605E0012072
:1038200055E6618D012621857606192100910190CA
:1038300004A90EC92046FFF77DFE002805D0606C64
:103840002F700428EBD0032041E60920800200906D
:10385000208D3346C2B22046049900F014FB2F702D
:1038600002212046FFF717FA002030E602202EE65C
:10387000FFB5054683B00446403568780D9E202884
:1038800065D10C98002822D0002E20D020688069B5
:10389000C04300045BD52878012858D00120287047
:1038A00006F0ECFC212169704021A97000276764B3
:1038B0000C99616266858F49E16290496163618D0F
:1038C000FF2906D9FF2101262185360605E00120C2
:1038D000FDE5618D01262185760619210091019073
:1038E00004A90EC92046FFF749FD002805D0606CE9
:1038F0002F700428EBD00320E9E5A16B8048886293
:10390000A16B80480863A06BC762A06B4763226805
:10391000238DA06B28320C9906F0C3FE0097208DF2
:103920003346C2B22046049900F0ADFA608D218D75
:10393000401A60852F7011212046FFF7ACF92068EE
:10394000016801229203114301600020BFE50220BB
:10395000BDE5FFB5054683B00446403568780D9E49
:10396000202867D10C98002822D0002E20D0206873
:103970008069C04300045DD5287801285AD0012011
:10398000287006F07BFC222169704021A970002775
:1039900067640C99616266855649E16257496163C3
:1039A000618DFF2906D9FF2101262185360605E014
:1039B00001208CE5618D0126218576061921009173
:1039C000019004A90EC92046FFF7B4FD002805D0D8
:1039D000606C2F700428EBD0032078E5E16B4A4837
:1039E0008862E16B47480863E06BC762E06B47633E
:1039F0002168238DE06B24310C9A06F052FE0920D9
:103A000080020090208D3346C2B22046049900F017
:103A10003AFA608D218D401A60852F702068016808
:103A20000122D2031143016011212046FFF733F92F
:103A300000204CE502204AE5FFB50446002083B093
:103A40002546403501906A781F46202A7ED122689B
:103A50009269D243120479D52A78012A76D00122BC
:103A60002A7024226A7060648805800D0290E068E4
:103A7000012802980BD00521C902401801218902B2
:103A800088432168486006F0F9FB06460FE01F49AD
:103A9000F3E7781C0BD0002F04D006F0EFFB801B5F
:103AA000B84204D9202068700020287054E02068B3
:103AB0008169C943890606D58069C043C00602D51D
:103AC0006878A028E5D1206880693B46C043C006DD
:103AD00000961DD5002220212046FEF73BFB002842
:103AE0003AD121682020C861687000202870EEE477
:103AF00000E800FE0000FFFF512D0008D52B000854
:103B000011300008F92F00083131000800200002B0
:103B1000002220212046FEF71DFB00281CD1216831
:103B20001020C86121682020C8610198411C0191C2
:103B30000599884215D120684168012292031143FA
:103B4000416000223B462021204600E00EE0009626
:103B5000FEF700FB002801D00320B8E421682020F4
:103B6000C86101990598814281D39BE70220AEE4A8
:103B7000F8B5044601204003254640356E78069F7F
:103B8000202E2AD12E78012E27D001262E70212614
:103B90006E701026AE700026666462626385E7620E
:103BA000DF4A6263628DFF2A03D9FF222285C302A6
:103BB00002E0628D2285E36A226B112A00D1002087
:103BC0000090208DC2B2204600F05DF92E700121D8
:103BD0002046FFF760F80020F8BD0220F8BDF8B5D8
:103BE000044609208002254640356E78069F202E27
:103BF0002BD12E78012E28D001262E7022266E7011
:103C00001026AE700026666462626385E762C44A6D
:103C10006263628DFF2A04D9FF22012322851B06DD
:103C200002E0628D2285E36A226B122A00D1002015
:103C30000090208DC2B2204600F025F92E7002219E
:103C40002046FFF728F80020F8BD0220F8BDFFB598
:103C500005460F464035697881B01646044628204F
:103C6000884338D1002F36D0002E34D0052120468D
:103C7000FEF736FD2878012805D0012028706878E5
:103C80002A2803D006E0022005B0F0BD022120461C
:103C9000FEF726FD292068702020A87000216164AD
:103CA000206842680123DB039A43426067626685AD
:103CB000608D20850498E0629A486063206882697C
:103CC000D20301D50822C261297005212046FEF7E2
:103CD000E2FF0020D8E70120D6E7FFB505460F46F2
:103CE0004035697881B0164604462820884337D18C
:103CF000002F35D0002E33D006212046FEF7F0FCF1
:103D00002878012805D0012028706878292802D059
:103D100005E00220B8E701212046FEF7E1FC2A2059
:103D200068702020A8700021616420684268012327
:103D3000DB039A43426067626685608D2085049844
:103D4000E0627848606320688269D20301D4082267
:103D5000C261297006212046FEF79DFF002093E7EF
:103D6000012091E710B5014640314A78202A01D060
:103D7000022010BD28224A706A4941630421FEF7DF
:103D80008AFF002010BD10B5024640325178282924
:103D900001D0022010BD517893788907890F0B4319
:103DA0000363202151700021917041630421FEF7CB
:103DB00097FC002010BDF8B5044605464034A078B5
:103DC0000E46102801D00120F8BD207801281CD013
:103DD0000120207002212846FEF782FC012128469E
:103DE000FEF77EFC6020607001208003C30200901B
:103DF00001223146284600F046F8002020701221AA
:103E00002846FEF748FF0020F8BD0220F8BD0268F2
:103E100091691268436B002B00D01847704770B54A
:103E200003689A691968D40507D50C0605D5446C52
:103E300001252C4344642C02DC61530508D50B0694
:103E400006D5436C082423434364E3010468E3611B
:103E5000920508D5090606D5416C0222114341643A
:103E600011020268D161416C0B22114202D0416CF7
:103E7000FEF75DFD70BD403040787047403080787F
:103E80007047406C704770B50068049D44688905B0
:103E9000890D1204244E1143194334402943214310
:103EA000416070BDF8B50546044640356878282164
:103EB0008143206804D00821C16100202870F8BD2A
:103EC0008169C903CF0F8169FE230E0C81681E40F2
:103ED0008A05C168920D19408C46E168022912D109
:103EE0000621D3090E400B409E420BD1A16C491C08
:103EF000A164A16C0229E2D10021A1640823C3615D
:103F0000297007E0664604212046FEF7E9FB002001
:103F10002870324639462046FEF77AFCF8BD00008C
:103F2000512D000813280008009800FC70B50246C7
:103F300040325378202B1CD11378012B19D0012447
:103F400014702423537003681D68A5431D60036823
:103F50001D682603B5431D6003681D680D431D6081
:103F6000006801682143016020205070002010701B
:103F700070BD022070BD70B5024640325378202BD0
:103F80001BD11378012B18D00125157024235370F1
:103F900003681C68AC431C6003681C680F2636026B
:103FA000B443090221431960006801682943016094
:103FB000202050700020107070BD022070BD30B500
:103FC000014640314A78202A18D10A78012A15D0B2
:103FD00001230B7024224A70026814689C43146009
:103FE000026814689D042C431460006802681A4338
:103FF0000260202048700020087030BD022030BDD3
:1040000030B5014640314A78202A18D10A78012A71
:1040100015D001230B7024224A70026814689C4357
:104020001460026814689D04AC4314600068026860
:104030001A430260202048700020087030BD022022
:1040400030BD08B50D498A6901231A438A6189691F
:10405000194000910A490A6802430A6008BD08B580
:1040600006498A6901231A438A61896919400091C6
:1040700003490A6882430A6008BD0000001002403C
:10408000000001407047F8B5040007D0002625461F
:104090004035A662687F002802D005E00120F8BD07
:1040A0002E772046FDF7D1FD02226A77206801684D
:1040B0004023994301600723E0681B02984201D91D
:1040C000002101E0012109030F273F02B84202D07D
:1040D000984200D0A662276B002F05D1984201D9E3
:1040E000226301E001202063A268606863691043D5
:1040F00022691A4310430123A2695B021A4010434C
:10410000E2691043226A1043A26A104322681060D9
:10411000626B606AA36910431B0C0427E2683B4092
:104120001A4310430843216848602068C1697A0235
:104130009143C1612666012068770020F8BD704771
:1041400070B5040010D002202546403568772068FD
:1041500001684022914301602046FDF794FD002054
:1041600020666877287770BD012070BDF8B51D46C0
:1041700016460F4604463DE0032149028F4205D111
:10418000002E03D1007B694608700878681C31D086
:10419000002D05D006F072F80699401AA84229D3DE
:1041A00020684168E022914341606068C11FFD3989
:1041B0000CD10121A068C903884202D0491188426C
:1041C00004D1206801684022914301600121A06A66
:1041D0004903884207D1206802688A430260206848
:1041E00002680A4302600120403460770020207793
:1041F0000320F8BD206881683940B142BCD100205D
:10420000F8BDF8B51D4617460E46044633E0681C57
:1042100031D0002D05D006F031F80699401AA84299
:1042200029D320684168E022914341606068C11F42
:10423000FD390CD10121A068C903884202D049117F
:10424000884204D120680168402291430160012125
:10425000A06A4903884207D1206802688A43026045
:10426000206802680A430260012040346077002021
:1042700020770320F8BD206881683046884304D049
:104280000020B842C3D10020F8BD0120F9E7F8B5FD
:104290000F460B4615460092032104460022C90230
:1042A000FFF764FF2026002812D13B460022802120
:1042B00020460095FFF7A5FF002809D103213B46C2
:1042C0000022490220460095FFF750FF002803D046
:1042D000206E304320660320F8BDFFB5044683B04E
:1042E0000020274640370090387F1E460D460128A3
:1042F00009D00120387705F0C1FF0190787F0128AF
:1043000004D0022050E0022007B0F0BD002D2FD0D5
:10431000059800282CD00320787700202066A5631C
:104320000599A1870599E1872064B880F880206508
:10433000E0640121A068C903884205D120680168B2
:10434000012292031143016020680168490603D4E9
:1043500001684022114301600720E16800028142A8
:1043600060682CD9002805D0E08F012802D022E017
:10437000012019E021682888C86005E0206881686C
:10438000890706D52988C160E08F401EE087AD1CF3
:1043900011E0002E07D0701C0DD005F06FFF0199C1
:1043A000401AB04207D30320009001207877002004
:1043B00038770098A8E7E08F0028DFD131E00028A7
:1043C00002D0E08F012829D1E08F012803D921688C
:1043D0002888C8600CE02168287808730FE02068FE
:1043E0008168890710D5E18F012906D92988C16024
:1043F000E08F801EE087AD1C10E029780173E08F0C
:10440000401EE0876D1C09E0002ECCD0701C05D04A
:1044100005F034FF0199401AB042C4D2E08F002861
:10442000DDD131462046019AFFF731FF002801D047
:1044300020202066A068002803D12068C168806819
:104440000190206E002893D1AFE7F7B5044640688D
:10445000FF26053682B01546B0420CD10121A06876
:10446000C903884202D04911884204D120680168FA
:104470004022914301600095002280212046039B49
:10448000FFF7BFFE2027002813D16068B04216D185
:10449000A068B902884202D0491188420FD1032195
:1044A0000095002249022046039BFFF75FFE00288B
:1044B00005D0206E38432066032005B0F0BD0020F3
:1044C000FBE7FFB5044683B001200190002025469C
:1044D00040350090287F17460E4601280FD0012056
:1044E000287705F0CBFE0290687F616801280CD028
:1044F000CA1FFD3A07D1A168002904D101E00220BA
:1045000002E7042801D0022075E0002E26D0002FFB
:1045100024D00698002821D0687F042801D00520E7
:1045200068770020206627640699E9800699A980AB
:10453000A6630699E1870699A187E06420650723B1
:10454000E1681B02994202D8E888012808D920684E
:104550004268012109038A43426007E001204AE0E2
:1045600020684168012212031143416020680168FC
:10457000490603D40168402211430160E168606884
:10458000994246D9002802D0E08F01283AD121680B
:104590003088C860E08F401EE087B61C32E001988A
:1045A00000280ED0E08F00280BD020688168890792
:1045B00007D53188C160E08F401EE0870020B61C1F
:1045C0000190E88800280BD020688168C90707D0CF
:1045D000C0683880E888401EE8800120BF1C019038
:1045E0000C98401C0ED005F049FE0299411A0C9817
:1045F000814207D3032000900120687700202877AC
:10460000009881E6E08F0028C9D1E8880028C6D14B
:1046100065E0002802D0E08F01285AD1E08F012800
:1046200007D921683088C860E08F801EE087B61CFB
:104630004FE0216830780873E08F401EE087761CD9
:1046400047E00198002818D0E08F002815D0206896
:104650008168890711D5E18F012906D93188C160A8
:10466000E08F801EE087B61C05E031780173E08F93
:10467000401EE087761C00200190E88800281ED0AC
:1046800020688168C9071AD0E98801290FD9C06854
:104690003880E888801EE880E888BF1C01280CD894
:1046A00020684168012212031143416005E0007B4C
:1046B0003870E888401EE8807F1C012001900C982B
:1046C000401C06D005F0DAFD0299411A0C9881428F
:1046D00090D2E08F0028B4D1E8880028B1D12046DC
:1046E000029A0C99FFF7D3FD002801D02020206604
:1046F000206E002800D031E77EE7FFB5044683B086
:1047000000200E460090FF212546606805314035A7
:104710001F46884202D1A06800280CD0287F0128BB
:1047200013D00120287705F0A9FD0190687F0128AA
:104730000DD002205AE004206877009332461146DB
:104740002046059BFFF7BDFEDEE50220DCE5002EDE
:104750001BD00598002818D0042068770020206618
:1047600026640599A9800599E980A063A087E08760
:10477000E064206507210122E068090212038842F3
:104780002068436803D9934302E001202EE01343DD
:1047900043600122A068D203904205D120680268DC
:1047A00001239B039A43026020680268520603D4E7
:1047B000026840231A430260E06888421DD935E050
:1047C00020688168C90706D0007B3070E888401EE9
:1047D000E880761C11E0002F07D0781C0DD005F082
:1047E0004DFD0199401AB84207D3032000900120E3
:1047F000687700202877009886E5E8880028DFD1D0
:1048000017E020688168C90706D0C0683080E88852
:10481000401EE880B61C09E0002FE6D0781C05D0C9
:1048200005F02CFD0199401AB842DED2E888002834
:10483000E7D139462046019AFFF707FE002801D04C
:1048400020202066206E00289FD1D0E77047704757
:1048500038B5044605F012FD024620684168A023E1
:104860009943416064212046FFF711FD002803D0E1
:10487000206E202108432066A068002803D120680C
:10488000C1688068009001215D200155206E0028DC
:10489000204602D0FFF7DBFF38BDFFF7D7FF38BD5A
:1048A000816B4A1C8263026809781173C18F491EAB
:1048B000C187C18F002900D1CAE77047816B0268A8
:1048C0000988D160816B891C8163C18F491EC187B2
:1048D000C18F002900D1BBE77047F0B503464033D4
:1048E00007271D7F00243F02C668012D0AD001253D
:1048F0001D77002908D0002A06D05D7F012D05D044
:1049000002242CE00220F0BD012428E003255D777D
:104910000025056681638287C28705649D80DD80EE
:10492000C564BE4201D9FE4900E0FE49016501228D
:104930008168D203914205D101680A680125AD035F
:104940002A430A6001684A68A0252A434A60006831
:104950000168490603D40168402211430160002028
:1049600018772046F0BD704710B5044600684168CE
:1049700060229143416005F081FC0246642120469B
:10498000FFF763FD002803D0206E20210843206636
:1049900001215D200155206E0028204602D0FFF73E
:1049A00056FF10BDFFF7DFFF10BD01680B7B016CE8
:1049B0004A1C02640B7001464031CA88521ECA80EC
:1049C000C988002900D1CFE770470168C968026C27
:1049D0001180016C891C016401464031CA88521E55
:1049E000CA80C988002900D1BEE77047704770B5FA
:1049F000044605F043FC0246206841682025A9438F
:104A0000416064212046FFF742FC002802D0206E5E
:104A100028432066226E204601214030002A04D01F
:104A200041772046FFF713FF70BD427F4177042A8C
:104A3000204602D0FFF7DAFF70BDFFF794FF70BD8C
:104A4000C38F0268816B022B07D30988D160816B09
:104A5000891C8163C18F891E05E04B1C8363097823
:104A60001173C18F491EC187C18F002909D1016807
:104A70004A6880239A434A604621095A002900D196
:104A8000B5E7704730B401464031CC880368026C0A
:104A9000012C11D9DB681380026C921C0264CA8855
:104AA000921ECA80CA88012A0DD102685368012467
:104AB00024032343536006E01C7B531C03641470DF
:104AC000CA88521ECA80C988002909D101684A686B
:104AD00060239A434A60C18F002901D130BC86E728
:104AE00030BC7047816B02680988D160816B891C7A
:104AF0008163C18F491EC187C18F002909D1016817
:104B00004A6880239A434A604621095A002900D105
:104B10006DE770470168C968026C1180016C891CDF
:104B2000016401464031CA88521ECA80C9880029E2
:104B300008D101684A6840239A434A60C18F00291E
:104B400000D154E77047F0B504468C464034217FCD
:104B50000025C668964601290CD001212177677F80
:104B60004168012F0CD0CA1FFD3A07D18168002986
:104B700004D101E00220F0BD042F01D0022540E065
:104B8000614600291BD07146002918D0002B16D091
:104B9000617F042901D0052161770021016661460A
:104BA00081638387C38771460164A380E380072103
:104BB00009028E4205D95C4AC2645C4A04E00125C0
:104BC0001FE05B4AC2645B4A0265012212038E4207
:104BD00002D8E188022903D301684B68934302E0BD
:104BE00001684B6813434B6001684A68E0231A432D
:104BF0004A6000680168490603D4016840221143F5
:104C00000160002020772846F0BDF0B4134602462C
:104C1000856800244032C668002D03D14568EF1F27
:104C2000FD3F0AD0157F012D0CD001251577577F48
:104C30000025012F09D002243EE004245477F0BC63
:104C40000A4680E70220F0BC7047002916D0002BEE
:104C500014D004275777056601649380D380856359
:104C60008587C58707210902BB0205658E42016859
:104C70004E6805D99E434E602F4904E001241BE095
:104C80001E434E602D49C16401238168DB039942B4
:104C900005D101680B680126B603B3430B600168B8
:104CA0004B68602633434B6000680168490603D4B3
:104CB000016840231943016015772046C3E710B50A
:104CC000406A01684A68920892004A60016E1022A8
:104CD0001143016601225D210A54FFF7B8FD10BDA2
:104CE00038B50546446A05F0C9FA024628680068E6
:104CF000800636D4206841682025A9434160206899
:104D0000416802239943416064212046FFF7BFFABE
:104D1000002802D0206E284320660021A0680FE002
:104D2000BD480008A1480008154B0008E54A0008E6
:104D3000854A0008414A0008CB490008AB490008F1
:104D4000002803D12068C26880680090E1870121B3
:104D50005D200155206E002803D02046FFF777FD27
:104D600038BD2046FFF772FD38BD704710B5406A68
:104D7000FFF7FBFF10BDF8B5054604464035287F18
:104D80000027012807D001202877687F0026012806
:104D900003D0022758E00220F8BD002957D0002A8E
:104DA00055D0032068772666A163A287E287266430
:104DB0002665E664AE80EE800122D203A068511021
:104DC000904203D1206802680A430260626DFB488A
:104DD000D062626DFA489062626DFA481063606D4D
:104DE0004663206842688A4342600722E0681202F4
:104DF000904210D8606D01224069920290420AD11F
:104E0000E08FC0072068426823D00A434260E08FE9
:104E10004008401CE087E38F2268A16B0C32606D74
:104E200005F03FFC20680168490603D40168402270
:104E300011430160206841682022114341602068CD
:104E400041680222114341602E773846F8BD0127A0
:104E5000FAE78A434260E08F4008DBE770B5054619
:104E6000446A05F00BFA02462868006880061DD4E3
:104E7000206841682025A94341602068416889086D
:104E80008900416064212046FFF7DFFA002800D046
:104E90002566002120464030C18001214177206EE7
:104EA000002803D02046FFF7D2FC70BD2046FFF754
:104EB0005AFD70BD704710B5406AFFF7FBFF10BD8B
:104EC00070B50546446A05F0D9F9024628680068BD
:104ED000800620D4206841682025A94341606421D0
:104EE0002046FFF7D4F9002802D0206E2843206620
:104EF000206841688908890041600021E1872046D7
:104F00004030C18001214177206E002803D0204627
:104F1000FFF79DFC70BD2046FFF768FD70BD704730
:104F200010B5406AFFF7FBFF10BDF8B50546044613
:104F30004035287F0026944601280CD00120287790
:104F4000687F676801280CD0FA1FFD3A07D1A26874
:104F5000002A04D101E00220F8BD042801D0022675
:104F60008FE0002926D06046002823D0002B21D0D6
:104F7000687F042801D00520687700272766A16391
:104F8000A387E38760462064AB80EB80E7642765F6
:104F900020684168032252039143416007210123A5
:104FA000E06809021B0388422068416804D99943DC
:104FB00041602BE0012664E019434160606D416966
:104FC0000120800281420BD1A08F7F49C007206859
:104FD00042685AD00A434260E08F4008401CE08794
:104FE000A06D41690120800281420FD12068416893
:104FF00099434160E8887549C0072068426849D0F4
:105000000A434260E8884008401CE880687F042822
:1050100045D0A16D6E48C8626E48A16D8862A16DD1
:1050200068480863A06D4763EB882168226C0C31E7
:10503000A06D05F036FB20684168012211434160F4
:10504000606DC762606D8762606D0763606D476306
:10505000E38F2268A16B0C32606D05F022FB2068A3
:105060000168490603D401684022114301602068A9
:1050700041682022114341602068416802221143A7
:105080004160002028773046F8BD8A434260E08FB7
:105090004008A4E78A434260E8884008B5E7A16D6C
:1050A0004D48C8624D48B8E7F8B5044680682546C3
:1050B00000264035002803D16368DF1FFD3F0AD07A
:1050C0002B7F012B0FD001232B776B7F0027012B28
:1050D0000BD002266EE00420687713460A4620466D
:1050E000FFF723FFF8BD0220F8BD002923D0002AD6
:1050F00021D004236B7727662164AA80EA80E764C5
:105100002765A787E7875903884204D1206801688B
:105110001A039143016021684A682C4882434A601F
:105120000722E16812024310914206D920684168C3
:10513000994341601AE001263CE021684A681A431D
:105140004A60A16D01224969920291420ED1216803
:105150004A689A434A60E988C90721684A683FD08B
:1051600002434A60E8884008401CE880A16D1A4864
:10517000C862A16D19488862A16D12480863A06DCC
:105180004763EB882168226C0C31A06D05F089FA29
:1051900020680168490603D4016840221143016078
:1051A0002068416820221143416020684168012243
:1051B000114341602F773046F8BD00006D4D000867
:1051C000E14C0008BF4C0008004000000020000037
:1051D000214F0008C14E0008B74E00085D4E000880
:1051E00082434A60E8884008BFE738B50446006853
:1051F00001684025A9430160FA48F949006805F0B3
:10520000C3FC64214843009020684168E022914338
:1052100041600098411E009103D2206E2843206611
:1052200003E0206840684006F3D405F027F80090BA
:105230006423002280212046FEF7E3FF002800D0EF
:10524000256605F01BF80321009064230022490223
:105250002046FEF78BFF002800D02566072040344B
:10526000607738BD38B50446DE48DD49006805F092
:105270008BFC64214843009020684168E022914300
:10528000416040250098411E009103D2206E2843C2
:10529000206603E0206840680006F3D404F0EEFFC7
:1052A000024664212046FEF7F2FF002800D0256662
:1052B00020680168A943016004F0E0FF0321009029
:1052C0006423002249022046FEF750FF002800D048
:1052D000256607204034607738BDFEB504460020BF
:1052E0000290C048BE49006805F04EFC6421484366
:1052F000019000902168486840260006A519002802
:105300000EDAB94820650098421E009203D2206E42
:105310003043206602E0687F0728F4D101980090AE
:10532000486840060ED5B148E0640098421E0092DD
:1053300003D2206E3043206602E0687F0728F4D154
:105340000198009048682022904348602068416896
:1053500000278907002902DB4068C00755D0606D2F
:10536000002826D04763606D05F0D0F9002800D0F2
:1053700026662068416802229143416004F07EFF66
:10538000024664212046FEF782FF002800D02666F0
:1053900020680168B143016004F070FF03210090B0
:1053A0006423002249022046FEF7E0FE002800D0D8
:1053B0002666A06D002828D04763A06D05F0A6F9E9
:1053C000002800D0266620680168B143016004F01F
:1053D00055FF00906423002280212046FEF711FF34
:1053E000002800D0266604F049FF032100906423C2
:1053F000002249022046FEF7B9FE002800D02666AA
:1054000020684168490849004160EF80E787206EC5
:1054100040280AD027662068C168816800918068AA
:105420000090012068770298FEBD01200290F2E70B
:105430007047F8B5446A206801684026B1430160AE
:10544000A06D002545632068416849084900416016
:1054500004F014FF00906423002280212046FEF710
:10546000D0FE002800D0266604F008FF032100903B
:105470006423002249022046FEF778FE002800D06F
:105480002666606D002802D0406B002813D12046AC
:1054900040300146C580E587206E402800D0256653
:1054A0002068C26882680092806800900120487776
:1054B0002046FFF7BDFF7FE6F8B5446A0025606D22
:1054C00045632068416802229143416004F0D6FEA2
:1054D000024664212046FEF7DAFE4026002800D06E
:1054E000266620680168B143016004F0C7FE03210D
:1054F00000906423002249022046FEF737FE002870
:1055000000D02666A06D002802D0406B002813D181
:10551000204640300146C580E587206E402800D0F7
:1055200025662068C2688268009280680090012029
:1055300048772046FFF77CFF3EE6FEB50446002094
:105540000290284801262649006805F01DFB6421C9
:105550004843019000902168486825460006403580
:1055600000280FDA204820650098421E009204D2DD
:10557000206E40221043206602E0687F0728F3D1A6
:1055800001980090486840060FD51848E0640098DC
:10559000421E009204D2206E40221043206602E098
:1055A000687F0728F3D10198009048682022904333
:1055B0004860606D0027002807D021684968890786
:1055C00002D50B49416300E04763A06D002814D069
:1055D00021684968C9070FD0064941630DE0000002
:1055E000C05D00004400002065520008EB51000837
:1055F000B95400083354000847632068416889079C
:105600001DD54068C0071AD0606D002809D005F08C
:1056100093F8002804D0606D47634020206600E0C6
:105620000026A06D00280AD005F086F8002805D0D5
:10563000A06D476340202066012600E00026206818
:10564000406880070CD5606D002809D005F074F81B
:10565000002804D0606D47634020206600E00026EB
:1056600020684068C0070AD0A06D002807D005F068
:1056700063F8002816D0A06D476340202066002EF6
:1056800010D0EF80E787206E40280DD02766206875
:10569000C168816800918068009001206877204689
:1056A000FFF7C6FE0298FEBD01200290EFE701461B
:1056B00040310A7F012A09D001220A770068426836
:1056C00092089200426000200877704702207047DD
:1056D000014640310A7F012A09D001220A77006879
:1056E000426803231A434260002008777047022073
:1056F000704710B50446406D002801D005F006F84B
:10570000A06D002801D005F001F8206841688908E3
:1057100089004160012040346077002010BD10B541
:10572000406A002146221152C187FFF790F810BD50
:10573000F8B504460068426881684B0605D4CB077B
:1057400003D0530601D5E16C04E08B0705D51306A1
:1057500003D5216D204688472EE5FF23613319428A
:10576000FAD09306F8D523464D064033002D09DACA
:105770005D7F032D3CD0256E042635432566C56824
:10578000856800958E060125002E08DA266E2E43C8
:1057900026668668009606684027BE430660C805F0
:1057A00006D5206E08210843206620688068009096
:1057B000206E0028D0D020684168E026B1434160C7
:1057C0005D77900718D0206841688908890041609A
:1057D000A06D0E4D002803D04563A06D04F0ACFF12
:1057E000606D0028B8D04563606D04F0A5FFE3E468
:1057F000C16880680090DFE42046FFF728F8DBE40A
:105800004030407F7047006E704700001F5700080F
:10581000F0B50268FE4B0124A407FE4D984203D068
:10582000A04201D0A84203D17026B2434E68324351
:10583000F94EFA4F98420DD0A0420BD0A84209D0A1
:10584000F74CA04206D0B04204D0B84202D0F54C8A
:10585000A04204D103242402A243CC682243802422
:10586000A2434C69224302608A68C2620A6882626B
:10587000984206D0B04204D0B84202D0E94A9042E1
:1058800001D10969016301214161F0BD704770B523
:10589000040005D025462035687F002802D006E0A8
:1058A000012070BD002028772046FCF761FA022015
:1058B0006877211D2068FFF7ABFF01206877002083
:1058C00070BD704710B5022104462034617701682D
:1058D0000A6AD54B1A4207D10A6A9B101A4203D1B1
:1058E0000A68520852000A60FCF76AFA00206077E2
:1058F000207710BD0222014620314A7700680268F5
:1059000001231A4302604B770020704702220146B0
:1059100020314A770068026AC34B1A4207D1026AF3
:105920009B101A4203D10268520852000260012003
:105930004877002070470168CA6801231A43CA608B
:105940000068016819430160002070470168CA6857
:1059500052085200CA600068016AB34A114207D176
:10596000016A9210114203D101684908490001609F
:1059700000207047704710B5406A01223D210A544B
:10598000FFF7F8FF10BD704710B5406A01223D21B6
:105990000A54FCF72DFA10BD70B504462030437F41
:1059A000022B03D0437F012B02D009E0022070BDFF
:1059B000002903D1002A01D0012070BD02234377C2
:1059C000236A9A489862236A99481863256813469F
:1059D0002A462C32206A04F064FE2068C168FF2247
:1059E00001321143C1602068016801221143016046
:1059F000002070BD0168CA68FF2301339A43CA6062
:105A000001680A6A884B1A4207D10A6A9B101A4237
:105A100003D10A68520852000A6001212030417700
:105A200000207047704770B5040005D0254620352A
:105A3000687F002802D006E0012070BD0020287792
:105A40002046FFF7EFFF02206877211D2068FFF74F
:105A5000DFFE01206877002070BD704710B502217D
:105A600004462034617701680A6A6F4B1A4207D1F5
:105A70000A6A9B101A4203D10A68520852000A604F
:105A8000FFF7EBFF00206077207710BD10B50123F2
:105A9000046A8B409C430462036A8A401343036296
:105AA00010BD10B5044600680122FFF7EFFF58480B
:105AB0002168814208D05848814205D05748814228
:105AC00002D05848814204D1486C0122D2031043CD
:105AD000486420680168012211430160002010BD64
