:020000040800F2
:10000000C0060020B51700083D0200083F020008A6
:1000100043020008470200084B02000800000000ED
:100020000000000000000000000000004F02000877
:1000300051020008000000005302000855020008A9
:10004000CF170008CF170008CF170008CF170008F8
:10005000CF170008CF170008CF170008CF170008E8
:10006000CF170008CF170008CF170008CF170008D8
:10007000CF170008CF170008CF170008CF170008C8
:10008000CF170008CF170008CF170008CF170008B8
:10009000CF170008CF170008CF170008CF170008A8
:1000A000CF170008CF170008CF170008CF17000898
:1000B000CF170008C9040008CF170008CF170008A1
:1000C000CF170008CF170008CF170008CF17000878
:1000D000CF17000877170008CF170008CF170008C0
:1000E000CF170008CF170008CF170008CF17000858
:1000F000CF170008CF170008CF170008CF17000848
:10010000CF170008CF170008CF170008CF17000837
:10011000CF170008CF170008CF170008CF17000827
:10012000CF170008CF170008CF170008CF17000817
:1001300000F002F800F03AF80AA090E8000C8244BF
:100140008344AAF10107DA4501D100F02FF8AFF29C
:10015000090EBAE80F0013F0010F18BFFB1A43F0A5
:10016000010318472444000044440000103A24BF0F
:1001700078C878C1FAD8520724BF30C830C144BF0C
:1001800004680C607047000000230024002500264E
:10019000103A28BF78C1FBD8520728BF30C148BFEA
:1001A0000B6070471FB51FBD10B510BD03F0D4FB29
:1001B0001146FFF7F7FF00F009F803F0F2FB03B474
:1001C000FFF7F2FF03BC01F07BFA000001F00EFA2A
:1001D0004FF4A06001F00EFB4FF4E13001F07FFA24
:1001E00000F02AF900F0D2FB00F080F94FF47A70A9
:1001F00001F039FA00F045FF01F052F90C4801F026
:10020000DDF940F2CF2140F2E73000F031F90DE0A6
:10021000084801F08BF9642001F025FA06480068CF
:1002200008B9012000E0002003490860F0E7000061
:10023000000000201C000020B0812142704700BF58
:10024000FEE700BFFEE700BFFEE700BFFEE7704726
:1002500070477047704700000CB500200190009077
:100260006C48006840F480306A49086000BF694803
:10027000006800F4003000900198401C0190009844
:1002800018B90198B0F5A06FF1D16248006800F488
:10029000003010B10120009001E000200090009893
:1002A000012843D15C48006840F010005A490860BA
:1002B0000846006820F0030008600846006840F027
:1002C0000200086053484068524948600846406848
:1002D00048600846406840F48060486008464068CE
:1002E00020F47C1048600846406840F4E8104860FC
:1002F0000846006840F08070086000BF454800680C
:1003000000F000700028F9D04248406820F0030057
:10031000404948600846406840F00200486000BF1D
:100320003C48406800F00C000828F9D10CBD10B51D
:10033000FFF792FF10BD10B53648006840F001008D
:1003400034490860084640683449084031494860EB
:1003500008460068324908402E490860084600688F
:1003600020F4802008600846406820F4FE004860C1
:100370004FF41F008860FFF7DAFF4FF00060294953
:10038000086010BD10B5002100200022214B5B68E1
:1003900003F00C0121B1042906D0082928D107E077
:1003A000214B224C236027E01F4B204C236023E08D
:1003B000184B5B6803F47010164B5B6803F48032D3
:1003C000022303EB904022B9194B4343174C23609F
:1003D0000DE0104B5B6803F4003323B1144B43432F
:1003E000124C236003E0104B4343104C236003E0A6
:1003F0000D4B0E4C236000BF00BF064B5B68C3F380
:1004000003130C4CE15C094B1B68CB40074C236089
:1004100010BD000000100240002002400000FFF864
:10042000FFFFF6FE08ED00E000127A000800002051
:1004300000093D000C00002008B50121082001F052
:1004400063FD4FF47040ADF8000010208DF80300FC
:1004500003208DF802006946044801F099FA4FF430
:100460007041024801F041FB08BD0000000C014052
:100470007FB505460C460121022001F052FDADF882
:100480000850ADF804400020ADF80A00ADF80600B1
:1004900001A9154802F074F81D208DF80000012014
:1004A0008DF803008DF8010003208DF802006846E6
:1004B00001F0A5F9012211460B4802F0D8FB0121F9
:1004C000094802F0B9FB7FBD10B50121064802F0D2
:1004D0007CFE012802D10A2000F0B1FA0121024875
:1004E00002F084FE10BD00000004004000B587B09B
:1004F00001210C2001F008FD0121080301F004FD99
:100500001020ADF818008DF81B0003208DF81A009C
:1005100006A9D24801F03CFA1021D04801F0E5FAD2
:100520000220ADF8180006A9CC4801F031FA0120EC
:10053000ADF8180028208DF81B0006A9C74801F067
:1005400027FA0321C54801F0D2FA00F0C4F90021CE
:10055000C34802F01AFF0020ADF804004FF4827087
:10056000ADF806000020ADF80800ADF80A00ADF8BF
:100570000C004FF40070ADF80E001020ADF8100024
:100580000020ADF812000720ADF8140001A9B4480E
:1005900002F056FE0121B24802F0F7FE0020B149F8
:1005A00008600120B049C1F8840107B000BD2DE901
:1005B000F04107460D4616460020AA490C3908604E
:1005C000384600F061F98046002405E0FF2000F085
:1005D0005BF92855601CC4B2B442F7DB0120A14985
:1005E0000C3908604046BDE8F0812DE9F04107462E
:1005F0000C46154600209B490C390860384600F02F
:1006000043F98046002605E014F8010B00F03CF9A0
:10061000701CC6B2AE42F7DB012092490C3908606B
:100620004046BDE8F0811FB590A103C9CDE90201A4
:10063000102000F094F9052202A93020FFF7D5FF21
:10064000052269461020FFF7B2FF002406E002A849
:10065000005DA52800D003E0601CC4B2052CF6DBC9
:1006600000BF052C02D0012004B010BD0020FBE724
:1006700070B505460C4600207A490C3908602846BA
:1006800000F002F90646204600F0FEF80120764907
:10069000C1F88401304670BD70B504460020714930
:1006A0000C390860204600F0EFF8FF2000F0ECF86D
:1006B000054601206C49C1F88401284670BD70B51B
:1006C0000546102000F04BF9002066490860202202
:1006D0002946A020FFF789FF01206349C1F8900156
:1006E0000A2000F0C0FF00BF5E4890380068002874
:1006F000FAD10720FFF7D0FF044621462720FFF755
:10070000B7FF04F0100068B15A48006808B901202A
:1007100000E0002057490860FF21E120FFF7A8FF13
:10072000102070BD04F0200008B12020F9E7FF2060
:10073000F7E770B50446102000F011F90720FFF725
:10074000ABFF054629462720FFF792FF05F0400042
:1007500050B1202221466120FFF729FFFF21E2202E
:10076000FFF786FF002070BD0120FCE710B50020D8
:100770003C490860052240492A20FFF736FF012145
:100780002120FFF775FF01212220FFF771FF2821AB
:100790002520FFF76DFF20213120FFF769FF0F2192
:1007A0002620FFF765FF0F212020FFF761FF0120C2
:1007B0002D49C1F8900110BD10B5002029490860ED
:1007C00005222E493020FFF710FF05222A492A2052
:1007D000FFF70BFF01212120FFF74AFF0121222013
:1007E000FFF746FF1A212420FFF742FF282125208A
:1007F000FFF73EFF20213120FFF73AFF0F2126208F
:10080000FFF736FF0E212020FFF732FF01201649A7
:10081000C1F8900110BDAA20194908704870022043
:100820008870184800880012C8701648007808714F
:100830001448408800124871124880788871114825
:1008400080880012C8710F48007908720D48C0886E
:10085000001248720B488079887270470008014086
:10086000003001409001214200002142A5A5A5A52C
:10087000A5000000B88121426B3D0008663D0008DC
:100880003C0000201C00002070B50546002405E057
:10089000601CC4B2C82C01DD002070BD02213948A3
:1008A00002F0F7FD0028F3D02946364802F09EFDFD
:1008B000002405E0601CC4B2C82C01DD0020ECE778
:1008C0000121304802F0E5FD0028F3D02D4802F068
:1008D0008FFDC0B2E1E700B587B00121042001F02F
:1008E00013FB0121080301F00FFBE020ADF8180015
:1008F00018208DF81B0003208DF81A0006A9224845
:1009000001F046F8E021204801F0EFF80020ADF8B2
:1009100004004FF48270ADF806000020ADF8080026
:100920000220ADF80A000120ADF80C004002ADF83D
:100930000E003820ADF810000020ADF8120007209E
:10094000ADF8140001A90F4802F07AFC01210D480E
:1009500002F01BFDFF20FFF797FF07B000BD10B5A9
:100960000446084800884FF6C771084005490880CA
:1009700008460088204308800121024802F005FD56
:1009800010BD0000003001400008014000B587B0F4
:1009900001214FF4017001F0B7FA4FF4004001F06B
:1009A00017FA0F20ADF8040000208DF8070001A908
:1009B000474800F0EDFF474802F0A2FD00200290FA
:1009C0008DF80C008DF80D004FF46020049000208D
:1009D000059001208DF8180002A93E4802F0B7FDED
:1009E00001213C4802F0DFFD3A4802F0FEFD00BF65
:1009F000384802F0FFFD0028FAD1364802F004FE24
:100A000000BF344802F005FE0028FAD107B000BD4F
:100A100010B504460723012221462E4802F02FFE7E
:100A200001212C4802F0FFFD00BF0221294802F0FD
:100A30006BFF0028F9D0274802F088FE10BD2DE991
:100A4000FF41054600200090019002900390002491
:100A500019E00020FFF7DCFF009908440090012016
:100A6000FFF7D6FF0199084401900220FFF7D0FF5D
:100A70000299084402900320FFF7CAFF0399084433
:100A80000390601CC4B2AC42E3DB0020044619E0D2
:100A90005DF82400B0FBF5F7384603F00FF8064682
:100AA0000D49304603F01EF806460C49304602F068
:100AB00083FF074602F0E2FF094921F81400601C99
:100AC000C0B20446042CE3DB04B0BDE8F0810000B2
:100AD000000801400024014023DB793E00007A44F5
:100AE0001C00002008B50121082001F00DFAC020EB
:100AF000ADF8000010208DF8030003208DF80200EF
:100B00006946F84800F044FFC021F64800F0EDFFC8
:100B100008BD10B5F348006820F07040F149086046
:100B20000846006840F0805008600120EE490860E7
:100B3000EE49C1F89801042000F071FDE948006811
:100B400020F07040E74908600846006840F0004027
:100B500008608021E34800F0AEFF08B9012010BD15
:100B6000E048006820F07040DE49086008460068F0
:100B700040F0805008608021DA4800F0B8FF012082
:100B800000F04DFD0020EAE710B5D648006820F0DF
:100B90007040D44908600846006840F08050086002
:100BA0004021D04800F0A3FF8021CE4800F09FFFF5
:100BB000012000F034FD4021CA4800F096FF0120DA
:100BC00000F02DFD8021C74800F08FFF042000F0C9
:100BD00026FD10BD10B500244021C24800F087FF5B
:100BE000C048006820F07040BE49086008460068B0
:100BF00040F0805008608021BA4800F076FF012064
:100C000000F00DFD4021B74800F06FFF012000F01B
:100C100006FDB448006820F07040B24908600846FC
:100C2000006840F00040086012E0601CC4B2FA2C7A
:100C30000EDDAC48006820F07040AA490860084604
:100C4000006840F080500860FFF79EFF012010BD53
:100C50008021A44800F02FFF0028E6D1A1480068B9
:100C600020F070409F4908600846006840F08050BE
:100C7000086000209C49091F086000BFE7E710B525
:100C80004021984800F033FF9648006820F07040FB
:100C9000944908600846006840F080500860802150
:100CA000904800F024FF022000F0B9FC40218D485C
:100CB00000F01BFF022000F0B2FC4021894800F048
:100CC00016FF022000F0ABFC10BD10B54021854896
:100CD00000F00DFF022000F0A2FC8248006820F026
:100CE0007040804908600846006840F08050086005
:100CF00080217C4800F0F9FE022000F090FC4021A9
:100D0000784800F0F2FE022000F089FC402175488E
:100D100000F0EDFE10BD70B504467248006820F08A
:100D20007040704908600846006840F080500860D4
:100D300000206D49091F0860002520E004F08000B4
:100D400020B18021674800F0D0FE03E08021654893
:100D500000F0CDFE6006040E022000F060FC0120D1
:100D60006149091F0860022000F059FC00205F491A
:100D7000C1F89801022000F052FC681CC5B2082D91
:100D8000DCDB70BD70B500245648006820F0704070
:100D9000544908600846006840F00040086080211F
:100DA000504800F0A2FE002518E000204E49091F1F
:100DB0000860022000F033FC01204C49C1F8980182
:100DC0006006040E8021474800F075FE08B1601CE3
:100DD000C4B2012000F023FC681CC5B2082DE4DB7E
:100DE000204670BD70B506460C461546FFF791FECD
:100DF0003046FFF790FFFFF7EDFE2046FFF78BFF31
:100E0000FFF7E8FE2846FFF786FFFFF7E3FEFFF750
:100E1000BBFE0A2000F003FC70BD70B504460D4611
:100E2000FFF777FE2046FFF776FFFFF7D3FE284651
:100E3000FFF771FFFFF7CEFEFFF76BFE611CC8B234
:100E4000FFF769FFFFF7C6FEFFF79CFF0646FFF7B7
:100E50009BFE304670BD2DE9F04106460F46144614
:100E60001D46FFF756FE3046FFF755FFFFF7B2FE6F
:100E70003846FFF750FFFFF7ADFEFFF74AFE711C43
:100E8000C8B2FFF748FFFFF7A5FE0FE0012C05D021
:100E9000FFF778FF2870FFF7F2FE04E0FFF772FF1C
:100EA0002870FFF712FF6D1C601EC4B2002CEDDC31
:100EB000FFF76AFE0020BDE8F08170B505460C46DC
:100EC000FFF727FE2846FFF726FFFFF783FE2046A1
:100ED000FFF721FFFFF77EFEFFF756FE0A2000F026
:100EE000C2FB70BD000C01409C8121420080214268
:100EF0002DE9F04105460E4617469846FFF709FED4
:100F0000002141EA4501C8B2FFF705FFFFF762FE85
:100F100020B1FFF739FE0120BDE8F0813046FFF730
:100F2000FAFEFFF757FE00240CE018F80400FFF764
:100F3000F2FEFFF74FFE18B1FFF726FE0120EBE7A8
:100F4000601CC4B2BC42F0DBFFF71EFE0020E3E7EA
:100F50002DE9F04106460F4614461D46FFF7D9FD20
:100F6000002141EA4601C8B2FFF7D5FEFFF732FE85
:100F700020B1FFF709FE0120BDE8F0813846FFF7F8
:100F8000CAFEFFF727FEFFF7C4FD012101EB460172
:100F9000C8B2FFF7C0FEFFF71DFE0FE0012C05D120
:100FA000FFF7F0FE2870FFF790FE04E0FFF7EAFE7F
:100FB0002870FFF764FE601EC4B26D1C002CEDD1DA
:100FC000FFF7E2FD0020D7E710B504462246402196
:100FD0007820FFF707FF10BD10B504462246002118
:100FE0007820FFF7FFFE10BD70B504460D4605F1F1
:100FF000B001C8B2FFF7F0FF102141EA1410FFF76B
:10100000EBFF04F00F0141F00100FFF7E5FF70BDB9
:1010100070B50646002415E004F1B001C8B2FFF730
:10102000DBFF0120FFF7D8FF1020FFF7D5FF0025D9
:1010300004E03046FFF7C8FF681CC5B2802DF8DB1E
:10104000601CC4B2082CE7DB70BD70B5002415E04D
:1010500004F1B001C8B2FFF7BFFF0120FFF7BCFFEA
:101060001020FFF7B9FF002504E00020FFF7ACFFD8
:10107000681CC5B2802DF8DB601CC4B2082CE7DB0D
:1010800070BD10B5FFF72EFDAE20FFF7A5FF2020A5
:10109000FFF7A2FF1020FFF79FFFB020FFF79CFF94
:1010A000C820FFF799FF0020FFF796FF1020FFF7F9
:1010B00093FF4020FFF790FF8120FFF78DFFFF2077
:1010C000FFF78AFFA120FFF787FFA620FFF784FF25
:1010D000A820FFF781FF3F20FFF77EFFA420FFF746
:1010E0007BFFD320FFF778FF0020FFF775FFD520A7
:1010F000FFF772FFF020FFF76FFFD920FFF76CFFBB
:101100002220FFF769FFDA20FFF766FF1220FFF7C2
:1011100063FFDB20FFF760FF2020FFF75DFF8D20DE
:10112000FFF75AFF1420FFF757FFAF20FFF754FFD8
:101130000020FFF76DFF00210846FFF755FF10BDA7
:101140002DE9F0470446884615464FF00009002671
:10115000002720E0E85D203800F0FF097E2C04DD48
:10116000002408F1010000F0FF0841462046FFF787
:101170003BFF002609E009EB4901F84A02EB410177
:10118000885DFFF721FF701CC6B2062EF3DBA01DA1
:10119000C4B2781CC7B2E85D0028DBD1BDE8F08797
:1011A0002DE9F04706460F4615460024002D05DBC5
:1011B000EBA239463046FFF7C3FF05E06D42E9A2D6
:1011C00039463046FFF7BCFF642095FBF0F00A215A
:1011D00090FBF1F201FB120010301FFA80F80A2098
:1011E00095FBF0F090FBF1F201FB120010301FFABA
:1011F00080F90A2095FBF0F100FB115010301FFA26
:1012000080FA7E2E02DD0026781CC7B2B11DC8B25E
:101210003946FFF7E9FE002409E008EB4801CF4A10
:1012200002EB4101085DFFF7CFFE601CC4B2062C43
:10123000F3DB06F10C01C8B23946FFF7D5FE0024F6
:1012400009E009EB4901C54A02EB4101085DFFF7DE
:10125000BBFE601CC4B2062CF3DB06F11201C8B25F
:101260003946FFF7C1FE002409E00AEB4A01BB4AF8
:1012700002EB4101085DFFF7A7FE601CC4B2062C1B
:10128000F3DBBDE8F0872DE9F04706460F4615462B
:101290000024002D05DBB2A239463046FFF750FF8F
:1012A00005E06D42AFA239463046FFF749FF6420A2
:1012B00095FBF0F00A2190FBF1F201FB12001030D7
:1012C0001FFA80F80A2095FBF0F090FBF1F201FB89
:1012D000120010301FFA80F90A2095FBF0F100FB94
:1012E000115010301FFA80FA7E2E02DD0026781C85
:1012F000C7B2B11DC8B23946FFF776FE00240BE035
:1013000008EB4801954A02EB4101095DC943C8B2A7
:10131000FFF75AFE601CC4B2062CF1DB06F10C018B
:10132000C8B23946FFF760FE00240BE009EB490123
:101330008A4A02EB4101095DC943C8B2FFF744FE86
:10134000601CC4B2062CF1DB06F11201C8B23946AA
:10135000FFF74AFE00240BE00AEB4A017F4A02EB4A
:101360004101095DC943C8B2FFF72EFE601CC4B23B
:10137000062CF1DBBDE8F0872DE9F04706460F4665
:10138000904600250024A14631E018F809002038D5
:10139000C5B2782E02DD0026781CC7B23946304629
:1013A000FFF722FE002407E004EB05116E4A505CB3
:1013B000FFF70AFE601CC4B2082CF5DB781CC1B232
:1013C0003046FFF711FE002408E004EB0511083158
:1013D000654A505CFFF7F8FD601CC4B2082CF4DBD2
:1013E00006F10800C6B209F1010000F0FF0918F883
:1013F00009000028C9D1BDE8F0872DE9F041054674
:10140000884616461C4641462846FFF7EDFD2F4606
:1014100005E02078FFF7D8FD641C781CC7B2B742FE
:10142000F7DBBDE8F0812DE9F05F0746884691467D
:101430001C46DDF828A04FF0000BE11704EB5171BA
:10144000C910A4EBC10131B92046E11704EB517179
:10145000C1F3C70506E02046E11704EB5171C9103E
:10146000491CCDB2454617E029463846FFF7BCFD7A
:101470003E460DE006EBC60101EB06110AEB8103C7
:1014800059460BF1010B585CFFF79EFD701CC6B26C
:101490004E45EFDB681CC5B2A542E5DBBDE8F09F19
:1014A00010B532A200210846FFF74AFE31A2012101
:1014B0000020FFF745FE31A202210020FFF740FE89
:1014C00030A203210020FFF73BFE30A204210020C0
:1014D000FFF736FE30A205210020FFF731FE31A2D2
:1014E00006210020FFF72CFE31A207210020FFF784
:1014F00027FE10BD2DE9F04104460D4617461E4655
:10150000224602212420FFF74BFE2A4603212420F5
:10151000FFF746FE3A4604212420FFF741FE3246FB
:1015200005212420FFF73CFEBDE8F08110B50446FC
:10153000228800212420FFF733FE62880121242025
:10154000FFF72EFEA28802212420FFF729FEE28861
:1015500003212420FFF724FE10BD0000703D000889
:10156000200000002D000000983F000850697463BF
:10157000683A0000526F6C6C203A00005961772085
:10158000203A000054687220203A000050206F6614
:10159000666573743A00000052206F666665737466
:1015A0003A00000059206F66666573743A000000C7
:1015B00054206F66666573743A00000010B50446E7
:1015C000228804214020FFF7EBFD6288052140209E
:1015D000FFF7E6FDA28806214020FFF7E1FDE28843
:1015E00007214020FFF7DCFD10BD000010B56FF0B3
:1015F000040000F04EF92E4800682E49B0FBF1F0CF
:101600002D4908700846007800EB4001C1EBC0107E
:101610004FF6FF7101EAC0002849088010BD01465D
:10162000254A12784A434FF0E0235A6100229A611A
:101630001A46126942F001021A6100BF4FF0E0221F
:10164000106900F001021AB100F48032002AF5D0CE
:101650004FF0E022126922F001024FF0E0231A61FC
:1016600000229A6170470146144A12884A434FF09B
:10167000E0235A6100229A611A46126942F001027F
:101680001A6100BF4FF0E022106900F001021AB1A8
:1016900000F48032002AF5D04FF0E022126922F0E7
:1016A00001024FF0E0231A6100229A6170470000A6
:1016B0000800002000127A002400002026000020EC
:1016C000014600BF704700BF384A128802F040024E
:1016D000002AF9D0C2B2354B1B1D1A80704710B5D5
:1016E00086B00446012144F2040000F00DFC4FF4E2
:1016F0000070ADF8140003208DF8160018208DF846
:10170000170005A92A4800F043F94FF48060ADF8AE
:10171000140004208DF8170005A9254800F038F9B9
:1017200025208DF8000003208DF801008DF80200BF
:1017300001208DF80300684600F061F80194002054
:10174000ADF80800ADF80A00ADF80C00ADF81000D7
:101750000C20ADF80E0001A9144800F07CFC012219
:1017600040F22551114800F00EFD01210F4800F014
:10177000FEFC06B010BD10B50C48008800F0080053
:1017800018B10A48001D0088C4B240F2255107482C
:1017900000F0DEFD40B140F22551044800F002FEA9
:1017A0000248001D0088C4B210BD0000003801408E
:1017B000000801400948804709480047FEE7FEE766
:1017C000FEE7FEE7FEE7FEE7FEE7FEE7FEE7FEE7F1
:1017D00004480549054A064B7047000037030008D6
:1017E00031010008C0000020C0060020C002002017
:1017F000C002002031490143314A1160704770B581
:10180000002100230F22C47804B32D4C246804F473
:10181000E064C4F5E064210AC1F10403CA404478DD
:1018200004FA03F18478144021430901254C067819
:10183000A155047804F01F050124AC4005786D1112
:10184000AD0005F1E025C5F8004109E0047804F099
:101850001F050124AC401C4D0678761145F8264042
:1018600070BD1A4A0A400243154B1B1F1A6070478D
:1018700039B1134A121D12680243114B1B1D1A6025
:1018800006E00F4A121D126882430D4B1B1D1A60A1
:101890007047042808D14FF0E021096941F00401A4
:1018A0004FF0E022116107E04FF0E021096921F0DB
:1018B00004014FF0E0221161704700000000FA05BA
:1018C0000CED00E000E400E080E100E080FFFF1F9D
:1018D00010B50446CC48844208D10121042000F010
:1018E0002DFB0021042000F029FB46E0C74884427C
:1018F00008D10121082000F021FB0021082000F080
:101900001DFB3AE0C248844208D10121102000F0BA
:1019100015FB0021102000F011FB2EE0BD48844291
:1019200008D10121202000F009FB0021202000F037
:1019300005FB22E0B848844208D10121402000F094
:10194000FDFA0021402000F0F9FA16E0B348844285
:1019500008D10121802000F0F1FA0021802000F060
:10196000EDFA0AE0AE48844207D10121801500F06B
:10197000E5FA0021A01500F0E1FA10BD10B5012133
:10198000084600F0DBFA0021012000F0D7FA10BD74
:101990002DE9F04102460025002600200023002406
:1019A000002791F803C00CF00F0591F803C00CF06C
:1019B000100CBCF1000F03D091F802C04CEA0505F1
:1019C00091F800C0BCF1000F31D0146800202BE06A
:1019D0004FF0010C0CFA00F3B1F800C00CEA03065A
:1019E0009E4220D183004FF00F0C0CFA03F7BC434A
:1019F00005FA03FC4CEA040491F803C0BCF1280F7B
:101A000006D14FF0010C0CFA00FCC2F814C00AE039
:101A100091F803C0BCF1480F05D14FF0010C0CFA4E
:101A200000FCC2F810C0401C0828D1D31460B1F8E3
:101A300000C0BCF1FF0F34DD546800202EE000F13F
:101A4000080C4FF0010808FA0CF3B1F800C00CEADA
:101A500003069E4221D183004FF00F0C0CFA03F7CE
:101A6000BC4305FA03FC4CEA040491F803C0BCF142
:101A7000280F05D100F1080C08FA0CF8C2F8148000
:101A800091F803C0BCF1480F07D100F1080C4FF0EA
:101A9000010808FA0CF8C2F81080401C0828CED3C0
:101AA0005460BDE8F0814FF6FF7101800221817022
:101AB0000421C17070470246002093680B400BB1AF
:101AC000012000E0002070470146886880B270471E
:101AD00002460020D3680B400BB1012000E000203B
:101AE00070470146C86880B2704701617047416124
:101AF00070470AB1016100E041617047C160704701
:101B00004FF480320A438261816182618269826915
:101B1000704702460020434B18684FF68073184008
:101B200040EA021008433F4B186070473E49C861C5
:101B30007047F0B50A46002300240021002500F07C
:101B40000046B6F1004F02D1364EF16901E0354E44
:101B50007168C0F3034583B200F44016B6F5401F28
:101B600008D121F070612F4E766826F070662D4FF7
:101B70007E6012E000F48016B6F5801F06D10326C1
:101B800006FA05F4A14341F0706106E0460D360106
:101B900003FA06F6B14341F0706122B1460D3601F9
:101BA00003FA06F6314300F00046B6F1004F02D1C9
:101BB0001C4EF16101E01B4E7160F0BD30B500229A
:101BC0008B071C0F0F2303FA04F2164B08338C10FB
:101BD00053F824309343134C08348D1044F82530C7
:101BE00023468C1053F824308C07240F00FA04F499
:101BF00023430C4C08348D1044F8253030BD0A497D
:101C0000DC3108607047000000080140000C014012
:101C1000001001400014014000180140001C014068
:101C2000002001400000014000002042DF48006821
:101C300040F00100DD49086008464068DC49084082
:101C4000DA49486008460068DA490840D749086020
:101C50000846006820F4802008600846406820F4A8
:101C6000FE0048604FF41F0088607047CF49096844
:101C700021F48031CD4A11601146096821F4802198
:101C80001160B0F5803F03D0B0F5802F0ED106E093
:101C9000C649096841F48031C44A116007E0C3496C
:101CA000096841F4A021C14A116000E000BF00BFF3
:101CB000704710B501460022002300204A11012A76
:101CC00002D1BA4C236806E0022A02D1B74C236A3B
:101CD00001E0B64C636A01F01F02012494401C40ED
:101CE0000CB1012000E0002010BD38B500200090AC
:101CF0000024002500BF3120FFF7DBFF05460098D8
:101D0000401C00900098B0F5A06F01D0002DF2D0DB
:101D10003120FFF7CEFF08B1012400E00024204667
:101D200038BD01460020A14A106820F0F80040EAC2
:101D3000C10010607047A04908607047024600204B
:101D40009A4B586820F47C1042EA01031843974BE1
:101D50005860704798490866704701460020934ACA
:101D6000506820F003000843506070478F48406877
:101D700000F00C007047014600208C4A506820F0AB
:101D8000F00008435060704701460020874A5068C1
:101D900020F4E06008435060704701460020834A09
:101DA000506820F4605040EAC1005060704729B18B
:101DB0007E4A527A02437D4B5A7204E07B4A527A41
:101DC00082437A4B5A7270477B49D831086070471A
:101DD00001460020754A506820F440400843506096
:101DE00070470021714A20321170704A82F8201029
:101DF000012802D004280AD104E001216B4A2032D4
:101E0000117005E00521694A2032117000E000BF21
:101E100000BF70476949086070476449096A014317
:101E2000624A11627047654944390860704730B5AD
:101E300000210022002400235C4D6D6805F00C0198
:101E400021B1042905D0082923D105E05C4D0560A6
:101E500022E05B4D05601FE0544D6D6805F4701283
:101E6000524D6D6805F48034022505EB92421CB991
:101E7000544D554305600BE04C4D6D6805F400353D
:101E80001DB1504D5543056002E04D4D5543056071
:101E900002E04B4D056000BF00BF444D6D6805F08A
:101EA000F0010909484D6B5C0568DD4045603F4D18
:101EB0006D6805F4E061090A434D6B5C4568DD40DF
:101EC00085603A4D6D6805F46051C90A3E4D6B5C02
:101ED0004568DD40C560354D6D6805F44041890BAE
:101EE0003A4D6B5CC568B5FBF3F5056130BD29B1B2
:101EF0002E4A526902432D4B5A6104E02B4A526923
:101F000082432A4B5A61704729B1284A9269024399
:101F1000264B9A6104E0254A92698243234B9A61D9
:101F2000704729B1214AD2690243204BDA6104E0AB
:101F30001E4AD26982431D4BDA61704729B11B4AA0
:101F4000D2680243194BDA6004E0184AD26882432F
:101F5000164BDA60704729B1144A12690243134BD9
:101F60001A6104E0114A12698243104B1A617047EA
:101F700012494039086070470F49C86470470B49DF
:101F8000C87170470948406A40F08070074948624C
:101F9000704701460020054A92680A400AB10120B4
:101FA00000E000207047014988727047001002402D
:101FB0000000FFF8FFFFF6FE0000424280044242AC
:101FC00000127A0000093D0028000020380000209F
:101FD00010B50446FB48844209D101218803FFF76C
:101FE000ADFF00214FF48040FFF7A8FF32E0F64834
:101FF000844209D101214804FFF7ADFF00214FF4CD
:102000000030FFF7A8FF25E0F048844209D1012104
:102010008804FFF7A0FF00214FF48020FFF79BFF0B
:1020200018E0EB48844209D10121C804FFF793FF6F
:1020300000214FF40020FFF78EFF0BE0E5488442BB
:1020400008D101210805FFF786FF00214FF4801019
:10205000FFF781FF10BD2DE9F04786B005460E461B
:102060000024A24600BFA1460027B08900B100BFEE
:102070002F462C8A4CF6FF700440F08804432C82D3
:10208000AC894EF6F3100440B08831890843718959
:1020900008430443AC81AC8A4FF6FF400440B0894A
:1020A0000443AC8201A8FFF7C2FEC648874202D1B2
:1020B000DDF810A001E0DDF80CA0A88900F40040D4
:1020C00040B10AEBCA0000EB0A1031684900B0FBCE
:1020D000F1F807E00AEBCA0000EB0A10316889004A
:1020E000B0FBF1F86420B8FBF0F004012009642192
:1020F00001FB1089A88900F4004040B1322000EBB8
:10210000C900B0FBF1F000F00700044308E0322002
:1021100000EB09106421B0FBF1F000F00F00044364
:102120002C8106B0BDE8F0874FF416510160002104
:102130008180C18001810C21418100218181704712
:1021400010B502460020108A4FF2FF0318400B889A
:102150004C8823438C882343CC8823431843108224
:1021600010BD0021018041808180C180704721B174
:10217000828942F40052828104E082894DF6FF7325
:102180001A4082817047F0B50346002400260025DE
:10219000002040F66A17B94200D100BF1846C1F3CB
:1021A000421401F01F06012707FA06F5012C01D1A0
:1021B0000C3004E0022C01D1103000E014301AB1D0
:1021C00007682F43076002E00768AF430760F0BD70
:1021D0001AB1838A0B43838202E0838A8B43838212
:1021E0007047028A4FF6F0731A400282028A0A434D
:1021F0000282704782894FF2FF731A40828182897E
:102200000A438281704721B1828942F002028281B1
:1022100004E082894FF6FD731A4082817047028A7A
:102220004FF6DF731A400282028A0A430282704725
:1022300021B1028A42F48042028204E0028A4BF613
:10224000FF731A4002827047C1F308028280704710
:1022500001468888C0F308007047818941F0010178
:1022600081817047028BD2B20283028B42EA012243
:1022700002837047028B02F47F420283028B0A437F
:102280000283704721B1828A42F02002828204E0F8
:10229000828A4FF6DF731A408282704721B1828AA8
:1022A00042F01002828204E0828A4FF6EF731A40F5
:1022B0008282704721B1828A42F00802828204E061
:1022C000828A4FF6F7731A408282704721B1828961
:1022D00042F40042828103E08289C2F30E028281CD
:1022E000704721B1828A42F40062828204E0828ACD
:1022F0004FF2FF731A4082827047828A4FF6FB7357
:102300001A408282828A0A438282704721B1828A7D
:1023100042F00202828204E0828A4FF6FD731A4084
:102320008282704702460020B1F5007F00D100BFD5
:1023300013880B400BB1012000E00020704701F42E
:102340000072B2F5007F00D100BFCA43028070471F
:1023500070B50246002400230025002040F66A16CE
:10236000B14200D100BFC1F3421501F01F030126A5
:1023700006FA03F3012D02D19689334006E0022DBF
:1023800002D1168A334001E0968A33400C120126AE
:1023900006FA04F41688344013B10CB1012000E0B1
:1023A000002070BD10B50022002340F66A14A1423F
:1023B00000D100BF0A1201249440A3B2DC43048080
:1023C00010BD0000003801400044004000480040BB
:1023D000004C00400050004010B50446FE488442C6
:1023E00008D10121C014FFF7A9FD0021E014FFF777
:1023F000A5FDC4E0B4F1804F08D101210846FFF7E4
:10240000AAFD00210120FFF7A6FDB8E0F3488442B1
:1024100008D101210220FFF79EFD00210220FFF7D5
:102420009AFDACE0EE48844208D101210420FFF778
:1024300092FD00210420FFF78EFDA0E0E9488442D0
:1024400008D101210820FFF786FD00210820FFF7B1
:1024500082FD94E0E448844208D101211020FFF776
:102460007AFD00211020FFF776FD88E0DF488442E6
:1024700008D101212020FFF76EFD00212020FFF769
:102480006AFD7CE0DA48844208D101214014FFF75C
:1024900055FD00216014FFF751FD70E0D5488442DE
:1024A00009D10121C804FFF749FD00214FF40020A4
:1024B000FFF744FD63E0D048844209D101210805BB
:1024C000FFF73CFD00214FF48010FFF737FD56E089
:1024D000CA48844209D101214805FFF72FFD002198
:1024E0004FF40010FFF72AFD49E0C548844208D1A7
:1024F00001214020FFF72FFD00214020FFF72BFD99
:102500003DE0C048844208D101218020FFF723FD2F
:1025100000218020FFF71FFD31E0BB48844208D135
:1025200001218015FFF717FD0021A015FFF713FD0E
:1025300025E0B648844209D101210804FFF7FEFCDA
:1025400000214FF48030FFF7F9FC18E0B0488442D6
:1025500009D101214804FFF7F1FC00214FF40030BC
:10256000FFF7ECFC0BE0AB48844208D10121880462
:10257000FFF7E4FC00214FF48020FFF7DFFC10BDE3
:1025800000220288944B98420ED0994B98420BD06F
:10259000B0F1804F08D0914B984205D0904B9842B3
:1025A00002D0904B984204D14FF68F731A404B885B
:1025B0001A438D4B984207D08C4B984204D04FF66B
:1025C000FF431A40CB881A4302808B8883850B888F
:1025D0000385814B98420BD0854B984208D08B4B9A
:1025E000984205D08A4B984202D08A4B984201D13A
:1025F0000B7A038601238382704770B50024002282
:102600000023058C4FF6FE7635400584028C8388C6
:10261000048B4FF68F752C40B51E2C400D882C4333
:10262000751E2A400D892A434D882A436A4DA842C7
:102630000BD06F4DA84208D0744DA84205D0744D00
:10264000A84202D0734DA84213D14FF6F7752A4025
:102650004D892A434FF6FB752A408D882A434FF651
:10266000FF652B404FF6FF552B408D892B43CD89BD
:102670002B4383800483CD888586028470BD70B52A
:10268000002400220023058C4FF6EF7635400584A8
:10269000028C8388048B48F6FF752C404FF6FF456B
:1026A0002C400D884FF6FF7606EA05252C434FF6A1
:1026B000DF752A400D8906EA05152A434D8806EA8A
:1026C00005152A43444DA84202D0494DA8421DD1C8
:1026D0004FF67F752A404D894FF6FF7606EA0515BD
:1026E0002A434FF6BF752A408D8806EA05152A430E
:1026F0004FF6FF352B404FF2FF752B408D8906EAD0
:1027000085052B43CD8906EA85052B438380048309
:10271000CD880587028470BD70B500240022002397
:10272000058C4FF6FF6635400584028C8388848BC8
:102730004FF68F752C404FF6FC752C400D882C43BE
:102740004FF6FF552A400D894FF6FF7606EA05251C
:102750002A434D8806EA05252A431F4DA84202D088
:10276000234DA8421DD14FF2FF752A404D894FF6E7
:10277000FF7606EA05252A434FF6FF352A408D8865
:1027800006EA05252A434EF6FF752B404DF6FF75E8
:102790002B408D8906EA05152B43CD8906EA0515E0
:1027A0002B4383808483CD888587028470BD70B578
:1027B000002200230024058C4EF6FF763540058468
:1027C000038C8488828B48F6FF752A404FF6FF45BC
:1027D0002A400D8820E00000002C01400004004049
:1027E00000080040000C00400010004000140040B1
:1027F00000340140004C01400050014000540140B1
:1028000000180040001C0040002000400040014033
:1028100000440140004801404FF6FF7606EA0525D6
:102820002A434DF6FF752B400D8906EA05352B43EB
:102830004D8806EA05352B43FA4DA84202D0FA4DE1
:10284000A84208D14BF6FF752C408D894FF6FF76D4
:1028500006EA85152C4384808283CD88A0F84050F9
:10286000038470BD828B4FF2FF331A408283828BC8
:102870004FF6FF7303EA01231A4382837047F0B5D2
:102880000C461546002200210026078C4EF6FF7CE0
:1028900007EA0C070784828B018C4FF6FF7707EA63
:1028A000043640F6FF473A404FF6FF7707EA052720
:1028B0003A434FF6FF7707EA03373A43D94FB84216
:1028C0000ED0D94FB8420BD0B0F1804F08D0D74FBF
:1028D000B84205D0D64FB84202D0D64FB84206D142
:1028E0004DF6FF77394046F48057394305E047F607
:1028F000FF57394044F48057394382830184F0BD47
:10290000828B4FF6F3731A408283828B0A43828351
:102910007047F0B50C461546002200210026078CB2
:102920004FF6FF6C07EA0C070784828B018C4FF689
:10293000FF7707EA04264FF60C773A404FF6FF7709
:1029400007EA03172F433A43B64FB8420ED0B64FAB
:10295000B8420BD0B0F1804F08D0B44FB84205D088
:10296000B34FB84202D0B34FB84206D14FF6FF572B
:10297000394046F48077394305E04FF2FF5739403C
:1029800044F48077394382830184F0BD028B4FF297
:10299000FF331A400283028B4FF6FF7303EA0123D1
:1029A0001A4302837047F0B50C46154600220021F9
:1029B0000026078C4FF6EF7C07EA0C070784028B92
:1029C000018C4FF6FF7707EA041640F6FF473A40BE
:1029D0004FF6FF7707EA03373A434FF6FF7707EAE8
:1029E00005273A438F4FB8420ED08F4FB8420BD0D5
:1029F000B0F1804F08D08D4FB84205D08C4FB8420F
:102A000002D08C4FB84206D14FF6DF77394046F0FE
:102A10001007394305E04FF65F77394044F010075F
:102A2000394302830184F0BD028B4FF6F3731A40E1
:102A30000283028B0A4302837047F0B50C461546A9
:102A400000220021068C4FF6FE773E400684028B62
:102A5000018C4FF60C7632407E1C06EA03162E439C
:102A60003243704EB0420ED06F4EB0420BD0B0F138
:102A7000804F08D06D4EB04205D06D4EB04202D0AE
:102A80006C4EB04206D14FF6FD76314044F001065F
:102A9000314305E04FF6F576314044F0010631430D
:102AA00002830184F0BD70B505460C465D48854241
:102AB0000ED05D4885420BD0B5F1804F08D05B4801
:102AC000854205D05A48854202D05A48854200D1F5
:102AD00000E000BF208850B92389A2886188284679
:102AE000FFF7ABFFE1882846FFF79EFF25E020882F
:102AF00004280AD12389A28861882846FFF753FF5A
:102B0000E1882846FFF742FF17E0208808280AD10D
:102B10002389A28861882846FFF7FBFEE1882846C2
:102B2000FFF7EEFE09E02389A28861882846FFF7B7
:102B3000A6FEE1882846FFF795FE70BD2DE9F0411D
:102B400005460C4600260127608808B9022600E0E9
:102B50000026A088012801D1022700E00127208853
:102B6000A0B92389A28861882846FFF766FFE1881B
:102B70002846FFF759FF23893A4631462846FFF792
:102B800012FFE1882846FFF701FF13E02389A2889E
:102B900061882846FFF707FFE1882846FFF7F6FE21
:102BA00023893A4631462846FFF747FFE188284601
:102BB000FFF73AFFBDE8F0810A884B881A438B88FB
:102BC0001A43CB881A430B891A434B891A438B89C2
:102BD0001A43A0F8442070474FF6FF71818000210E
:102BE0000180C180418001727047002101804180D5
:102BF0008180C180018141818181C1817047002133
:102C000001804180012181800021C18001817047C4
:102C10000021018041808180C180018141818181C9
:102C200070470000002C01400034014000040040C7
:102C300000080040000C004021B1028842F001026F
:102C4000028004E002884FF6FE731A40028070474B
:102C500031B1B0F8442042F40042A0F8442005E02D
:102C6000B0F84420C2F30E02A0F8442070471AB115
:102C700083890B43838102E083898B43838170477F
:102C80008182704741EA0203A0F8483070471AB1C8
:102C900083890B43838102E083898B43838170475F
:102CA00001894FF6F8721140018170470A460021F0
:102CB00001894FF68F73194011430181704730B578
:102CC00004460D4629462046FFF7F0FF208940F0D4
:102CD0000700208130BD2DE9F04104460D4616461F
:102CE0001F46602D06D13B46012231462046FFF7A4
:102CF0005AFE05E03B46012231462046FFF79DFE85
:102D000029462046FFF7D2FF208940F007002081A6
:102D1000BDE8F08130B50C4600210189C9B24FF6FB
:102D2000FF7505EA0325154325432943018130BD7D
:102D30002DE9F04105460E461746984600244346C5
:102D40003A4631462846FFF7E5FF2C894FF6F870E2
:102D5000044044F007044FF68F70044044F07004C0
:102D60002C81BDE8F081F0B504460D4616461F469D
:102D70003B46324629462046FFF7CCFF208940F4E7
:102D800080402081F0BD0185828270470A46002183
:102D900001884FF68F731940114301807047F0B5D9
:102DA0000C4615461E460021002200230189028B95
:102DB000038C4FF6F877394021434FF6FC473A40F1
:102DC00040F201173A434FF6DD773B404FF6FF776D
:102DD00007EA06172F433B43018102830384F0BDBA
:102DE0000A460021018B4FF68F731940114301836E
:102DF00070470A460021018B48F6FF7319404FF6D1
:102E0000FF7303EA02231943018370470A46002136
:102E1000818B4FF68F7319401143818370470A46A7
:102E20000021818B48F6FF7319404FF6FF7303EAC8
:102E3000022319438183704721B1028842F0800246
:102E4000028004E002884FF67F731A4002807047C8
:102E500021B1828842F00402828004E082884FF629
:102E6000FB731A408280704721B1828842F00802C9
:102E7000828004E082884FF6F7731A4082807047A0
:102E800021B1828842F00102828004E082884FF6FC
:102E9000FE731A40828070470A460021018B4FF66C
:102EA000F77319401143018370470A460021018BD3
:102EB0004FF2FF7319404FF6FF7303EA02231943E1
:102EC000018370470A460021818B4FF6F773194042
:102ED0001143818370470A460021818B4FF2FF73B3
:102EE00019404FF6FF7303EA0223194381837047A9
:102EF0000A460021018B4FF6FB73194011430183F1
:102F000070470A460021018B4FF6FF3319404FF6F8
:102F1000FF7303EA02231943018370470A46002125
:102F2000818B4FF6FB7319401143818370470A462A
:102F30000021818B4FF6FF3319404FF6FF7303EAF0
:102F400002231943818370470A460021018B4FF603
:102F50007F7319401143018370470A460021018B9A
:102F6000C1F30E014FF6FF7303EA022319430183F5
:102F700070470A460021818B4FF67F731940114339
:102F8000818370470A460021818BC1F30E014FF601
:102F9000FF7303EA02231943818370470A46002125
:102FA000018C4FF6FD7319401143018470470A46A6
:102FB0000021018C4FF6F7731940114301847047CB
:102FC0000A460021018C4FF6DF7319404FF6FF735C
:102FD00003EA02131943018470470A460021018C59
:102FE0004FF67F7319404FF6FF7303EA021319433C
:102FF000018470470A460021018C4FF6FF531940A7
:103000004FF6FF7303EA02231943018470470A460F
:103010000021018C4FF2FF7319404FF6FF7303EA52
:1030200002231943018470470A460021018C4DF6A2
:10303000FF7319404FF6FF7303EA0233194301840B
:10304000704730B5002301248C40A3B2048C9C430C
:103050000484048C02FA01F5ADB22C43048430BD23
:1030600030B5002304248C40A3B2048C9C43048418
:10307000048C02FA01F5ADB22C43048430BD70B566
:103080000346002000241846183001258D40ACB2BC
:103090001D8CA5431D8409B1082909D100EB6100ED
:1030A000056825F0700505600568154305600EE0AC
:1030B0000D1FC5F34E052844056825F4E04505605D
:1030C00005684FF6FF7606EA02263543056070BDB7
:1030D00021B1028842F00202028004E002884FF629
:1030E000FD731A400280704721B1028842F0040249
:1030F000028004E002884FF6FB731A40028070479A
:1031000021B1828842F08002828004E082884FF6FA
:103110007F731A408280704702884FF6F7731A4017
:10312000028002880A430280704782884FF68F73BC
:103130001A40828082880A438280704702894FF653
:10314000F8731A40028102890A430281704702899A
:103150004FF67F731A40028102890A430281704749
:1031600081847047818570478186704701877047E9
:1031700081877047A0F84010704702884FF6FF43E0
:103180001A40028002880A43028070470146888EF6
:1031900070470146088F70470146888F7047014687
:1031A000B1F8400070470146888C70470146088D91
:1031B000704702460020138A0B400BB1012000E04B
:1031C00000207047CA430282704730B50246002093
:1031D00000230024158A05EA0103958905EA010404
:1031E00013B10CB1012000E0002030BDCA430282BF
:1031F0007047000010B50446BE48844208D1012142
:103200008014FEF79BFE0021A014FEF797FE16E047
:10321000B948844208D101210014FEF79CFE002128
:103220002014FEF798FE0AE0B448844207D1012139
:10323000C013FEF790FE0021E013FEF78CFE10BDD8
:1032400010B50022028802F441520B884C882343B7
:103250008C882343CC8823430C8923434C89234304
:103260008C892343CC8923431A430280838B4FF2FA
:10327000FF74234083830B8A038210BD2DE9F04F36
:1032800085B005460C464FF0000902274FF00008B4
:103290004FF0010B0026B246A88B4FF240010840C8
:1032A000A88302202884B5F81C90A068022801D1C8
:1032B00000BF38E0A08810B94FF0010B01E04FF0DB
:1032C000020B8D48854200D100E000BF6846FEF742
:1032D000AEFDDDF800A0E088B0F5007F0AD14FEA2E
:1032E0001A2000EB80004000A168B0FBF1F0401D07
:1032F00086B20BE04FEA4B10BAFBF0F000EB800017
:103300004000A168B0FBF1F0401D86B20A20B6FB78
:10331000F0F606F00108A6EB0800C0F34F074FF6E1
:10332000FF7000EA0828022F01DBFF2F02DD0227D1
:103330004FF00008E08840EA080038432884A0885D
:10334000A1890843618808432188084340F400604C
:1033500040EA0909A5F81C9005B0BDE8F08F0021EE
:10336000018041808180C180018141818181C18151
:103370000721018270470021018041808180C18046
:103380000221816000218181704721B1028842F0D1
:103390004002028004E002884FF6BF731A400280A8
:1033A000704721B1828B42F48062828304E0828B79
:1033B0004FF6FF331A408283704730B50024002354
:1033C0000C110125A540ABB21AB185881D4385803B
:1033D00002E085889D43858030BD1AB183880B4308
:1033E000838002E083888B438380704781817047AC
:1033F0000146888970474FF6FF62914204D00288E7
:1034000042F48072028004E002884FF6FF631A40A3
:103410000280704721B1828842F00402828004E079
:1034200082884FF6FB731A408280704702884FF201
:10343000FF731A40028002880A43028070470188A5
:1034400041F480510180704721B1028842F400525A
:10345000028004E002884DF6FF731A400280704734
:1034600002460020012901D0108B00E0908A7047AD
:103470000146088A7047B1F5804F04D1028842F4B2
:103480008042028004E002884BF6FF731A400280FB
:1034900070470246002013890B400BB1012000E069
:1034A00000207047CA4302817047F0B502460020F1
:1034B00000240023002501F00F070126BE40B4B20E
:1034C0000B1101269E40B3B2968806EA03051689C1
:1034D000264016B10DB1012000E00020F0BD10B56E
:1034E000002201F00F040123A3409AB2D3430381C9
:1034F00010BD00000030014000380040003C00409A
:1035000010B50446FA48844208D101214015FEF75F
:1035100015FD00216015FEF711FD17E0F548844206
:1035200008D101210015FEF709FD00212015FEF745
:1035300005FD0BE0F048844208D10121C803FEF7E5
:10354000FDFC00214FF40040FEF7F8FC10BD30B543
:103550000246002000235068E84C20400D790C689A
:1035600044EA0524204350609068E54C2040D1E9AE
:1035700002542C434D7944EA450420439060D06ABC
:1035800020F470000C7C641EE4B2234340EA035034
:10359000D06230BD00210160017141718160C16064
:1035A00001210174704721B1826842F001028260FA
:1035B00003E0826822F001028260704721B18268D4
:1035C00042F48072826003E0826822F4807282603A
:1035D000704710B50023CBB21AB144681C43446055
:1035E00002E044689C43446010BD816841F00801DA
:1035F00081607047014600208A6802F008020AB123
:10360000012000E000207047816841F004018160E2
:103610007047014600208A6802F004020AB10120C6
:1036200000E00020704721B1826842F4A00282606D
:1036300003E0826822F4A002826070470146002005
:103640008A6802F480020AB1012000E0002070477D
:1036500010B50A4600210023416821F46041531E41
:1036600041EA4331416010BD21B1426842F4006239
:10367000426003E0426822F4006242607047F0B5A5
:1036800004460D4600200021092D11DDE068A5F15A
:103690000A0606EB4607072606FA07F18843A5F156
:1036A0000A0606EB460603FA06F10843E0600CE062
:1036B000206905EB4507072606FA07F1884305EB65
:1036C000450603FA06F108432061072A0FDA606B0A
:1036D000561E06EB86071F2606FA07F18843561E7C
:1036E00006EB860605FA06F10843606322E00D2A20
:1036F0000FDA206BD61F06EB86071F2606FA07F1A6
:103700008843D61F06EB860605FA06F108432063B8
:1037100010E0E06AA2F10D0606EB86071F2606FA06
:1037200007F18843A2F10D0606EB860605FA06F1BD
:103730000843E062F0BD21B1826842F480128260E9
:1037400003E0826822F48012826070470146C86CF0
:1037500080B2704766484C300068704721B14268BB
:1037600042F48062426003E0426822F48062426078
:10377000704721B1426842F48052426003E04268DF
:1037800022F48052426070470A460021816821F489
:10379000E04111438160704721B1826842F40042E8
:1037A000826003E0826822F400428260704721B1A7
:1037B000826842F40212826003E0826822F40212FC
:1037C00082607047014600208A6802F400120AB144
:1037D000012000E000207047F0B5044615460020A7
:1037E00000220026092911DDE068A1F10A0707EB94
:1037F000470C072707FA0CF29043A1F10A0707EBE1
:10380000470703FA07F21043E0600CE0206901EB80
:10381000410C072707FA0CF2904301EB410703FA2A
:1038200007F210432061A06BC0F30156EF1C06F1B4
:10383000010CA7EB0C0707EB870C1F2707FA0CF20C
:103840009043EF1C06F1010CA7EB0C0707EB870771
:1038500001FA07F21043A063F0BD10B50A4600213B
:103860000023816B21F44011531E41EA035181630F
:1038700010BD08B5002300930090009B0B440093FB
:10388000009B1A6008BD08B5024600200090009217
:1038900001F12800009B184400900098006880B255
:1038A00008BD0A4600214168164B1940114341608A
:1038B00070474162826270470A460021416821F0E8
:1038C0001F0111434160704740B10949083109683F
:1038D00041F40001064A0832116007E0044908314A
:1038E000096821F40001024A0832116070470000A3
:1038F0000024014000280140003C0140FFFEF0FF91
:10390000FDF7F1FFFFFD3FFF0246002013680B406B
:103910000BB1012000E000207047CA4302607047ED
:1039200070B502460020002300240B125568CEB269
:1039300005EA060415681D4015B10CB1012000E030
:10394000002070BD00220A12D34303607047704705
:103950007047704770477047754600F029F8AE46CB
:1039600005006946534620F00700854618B020B58B
:10397000FDF72EFFBDE820404FF000064FF0000796
:103980004FF000084FF0000B21F00701AC46ACE807
:10399000C009ACE8C009ACE8C009ACE8C0098D4674
:1039A00070470446AFF300802046FCF708FC000097
:1039B000004870475C00002090EA010F48BF81F08A
:1039C000004100F16281421A3CBF801A89184FEA17
:1039D000D0524FF07F4C1CEA410FA2EBD15318BFDD
:1039E0009CEA026F00F03B804FF0004C4CEA002054
:1039F0004CEA012121FA03FC10EB0C0C1ED202F15F
:103A0000FF325FEA1C2040EBC25038BF70471CF009
:103A10007F0F4FEA400C18BFBCF17F4F38BF704793
:103A2000C3F12003994008BF20F00100BCF17F4F93
:103A300038BF7047A0F1C04000F01BB94FEA3C000E
:103A4000000A40EBC25028BF1CF0FF0F4FEA400CA9
:103A5000E6D018BFBCF17F4F38BF7047EAE79CEA59
:103A6000026F05D010EA5C0F08BF00F000407047FD
:103A700010B500F0B8F800BF64FBBE3EC10DD1F137
:103A80009E0206DB4FEA002343F0004323FA02F0D4
:103A90007047004207D54FEA4001B1F1FE4F02D214
:103AA0004FF00000704710B500F09DF84992248057
:103AB000002070476FEA200070470000B0FA80F3E2
:103AC00010FA03F2C3F19D030AD0D90501EB1220CD
:103AD000530638BF704700F1010008BF20F0010015
:103AE000704700004FF47F0C1CEAD0121EBF1CEA86
:103AF000D11392EA0C0F93EA0C0F00F0478090EA82
:103B0000010F48BF42F480724FF0004C4CEA002095
:103B10004CEA012102EB0302A0FB0113A2F5000213
:103B2000002918BF43F001035B0028BF4FEA3303AD
:103B300042EB22425FEA132C4CEBC2502EBFBCEB8F
:103B4000436FB2F57C0F70474FEA036CBCF1004F36
:103B500008BF20F00100B2F57C0F38BF70470BD5CD
:103B600082F0FF0212F5803FC8BF704700F1C040ED
:103B7000D8BF00F00040704700F5000C5FEA4C0C25
:103B800048BF7047B0F1C04000F073B890EA010F31
:103B90000CEAD11348BF42F48072624538BF6345D6
:103BA00004D280EA010000F00040704710B500F038
:103BB0001AF800BF8900013E00F007B800F009B80C
:103BC0005FEA410C5FEA1C6C08D080EA010000F05B
:103BD00050B85FEA400C5FEA1C6CF6D14FF0004031
:103BE000A0F5800070470EF1020E2EF0030E5EF875
:103BF000044B244204D44FEA4102B2F17F4F11D862
:103C00004FEA4003B3F17F4F0CD80ED14FEAD07C7E
:103C1000B2F17F4F0CEB4C0C0CF1020C08BF4CEBDB
:103C2000D17C04E04FF0080C01E04FEAD17C0CEBB2
:103C30004C0324FA03F404F00704B4F1040C06D294
:103C40000EEB840CBDE810404CF0010C6047DFE83F
:103C50000CF0070802024FF00040A0F5800010BDF4
:103C60000846420018BFD2F1807288BF00F00040C1
:103C700010BDFF2141EAD050C005704790EA010F06
:103C800048BF81F000413FF59EAE421A04D882F051
:103C90000042A0EB020011444FEAD0524FF07F4C9B
:103CA0001CEA410FA2EBD15318BF9CEA026F4AD025
:103CB0004FF0004C4CEA00204CEA012121FA03FCB1
:103CC000B0EB0C0C0FD412F0FE0F36D05FEA4C00B4
:103CD0001DD5001240EBC25038BF70471CF03F0F9B
:103CE00018BF70470BE0A2F101025FEA1C2040EB15
:103CF000C25038BF70471CF07F0F18BF7047C3F128
:103D00002003994014BF401E20F001007047800836
:103D10004FEA122308BF7047B0FA80FCA2EB0C02F6
:103D2000CCF1280C60FA0CF093EA122F04BF00EBE0
:103D3000C25070474FEAC3707047130A5FEADC1045
:103D400008BF7047F6E79CEA026F04D010EA5C0FE8
:103D500008BF0020704710B5FFF745FF40DFF63E73
:103D600081F000407047AABBCC0001AABBCC000187
:103D70000000000000000000002F0000000007000D
:103D8000070000147F147F1400242A7F2A12006287
:103D90006408132300364955225000000503000033
:103DA00000001C224100000041221C000014083EBB
:103DB00008140008083E0808000000A06000000881
:103DC00008080808000060600000002010080402D5
:103DD000003E5149453E0000427F40000042615193
:103DE0004946002141454B31001814127F1000272D
:103DF00045454539003C4A494930000171090503F0
:103E000000364949493600064949291E0000363620
:103E10000000000056360000000814224100001483
:103E20001414141400004122140800020151090660
:103E300000324959513E007C1211127C007F4949E1
:103E40004936003E41414122007F4141221C007F12
:103E500049494941007F09090901003E4149497A20
:103E6000007F0808087F0000417F4100002040419A
:103E70003F01007F08142241007F40404040007F06
:103E8000020C027F007F0408107F003E4141413E4A
:103E9000007F09090906003E4151215E007F091992
:103EA00029460046494949310001017F0101003F8F
:103EB0004040403F001F2040201F003F4038403F0F
:103EC0000063140814630007087008070061514973
:103ED000454300007F41410000552A552A55000006
:103EE00041417F0000040201020400404040404084
:103EF000000001020400002054545478007F48441C
:103F0000443800384444442000384444487F003852
:103F10005454541800087E0901020018A4A4A47C7B
:103F2000007F080404780000447D40000040808445
:103F30007D00007F102844000000417F4000007C8D
:103F400004180478007C0804047800384444443899
:103F500000FC242424180018242418FC007C0804E5
:103F6000040800485454542000043F444020003CBE
:103F70004040207C001C2040201C003C4030403C45
:103F8000004428102844001CA0A0A07C00446454D5
:103F90004C44141414141414000000000000000019
:103FA0000000000000000000000000F80000000019
:103FB000000000333000000000100C06100C06005A
:103FC000000000000000000040C07840C0784000C1
:103FD000043F04043F040400007088FC0830000023
:103FE000001820FF211E0000F008F000E01800007B
:103FF00000211C031E211E0000F008887000000034
:104000001E2123241927211010160E000000000085
:104010000000000000000000000000E018040200A2
:10402000000000071820400000020418E000000013
:104030000040201807000000404080F08040400011
:104040000202010F01020200000000F00000000067
:104050000101011F0101010000000000000000003B
:1040600080B07000000000000000000000000000B0
:104070000001010101010101000000000000000039
:1040800000303000000000000000000080601804D4
:10409000006018060100000000E010080810E000B1
:1040A000000F102020100F00001010F8000000007A
:1040B0000020203F202000000070080808887000C1
:1040C0000030282422213000003008888848300041
:1040D0000018202020110E000000C02010F8000061
:1040E00000070424243F240000F8088888080800FA
:1040F0000019212020110E0000E01088881800000F
:10410000000F112020110E0000380808C8380800E0
:104110000000003F00000000007088080888700060
:10412000001C222121221C0000E010080810E000E1
:104130000000312222110F00000000C0C00000006A
:10414000000000303000000000000080000000008F
:104150000000806000000000000080402010080087
:104160000001020408102000404040404040400050
:10417000040404040404040000081020408000002B
:104180000020100804020100007048080808F00030
:104190000000003036010000C030C828E810E00000
:1041A0000718272423140B000000C038E00000008B
:1041B000203C23020227382008F8888888700000F5
:1041C000203F202020110E00C030080808083800C9
:1041D000071820202010080008F808080810E00040
:1041E000203F202020100F0008F88888E8081000E1
:1041F000203F20202320180008F88888E8081000B5
:10420000203F200003000000C030080808380000EC
:1042100007182020221E020008F808000008F808ED
:10422000203F210101213F20000808F80808000074
:104230000020203F2020000000000808F8080800A7
:10424000C08080807F00000008F888C0281808001F
:10425000203F20012638200008F808000000000058
:10426000203F20202020300008F8F800F8F808004F
:10427000203F003F003F200008F830C00008F80849
:10428000203F200007183F00E01008080810E00059
:104290000F10202020100F0008F808080808F00070
:1042A000203F210101010000E01008080810E00093
:1042B0000F18242438504F0008F888888888700028
:1042C000203F2000030C30200070880808083800C8
:1042D0000038202121221C00180808F808081800BE
:1042E0000000203F2000000008F808000008F8083F
:1042F000001F202020201F000878880000C83808F0
:10430000000007380E010000F80800F80008F80067
:10431000033C0700073C0300081868808068180801
:1043200020302C03032C30200838C800C83808007F
:104330000000203F2000000010080808C8380800CE
:104340002038262120201800000000FE0202020072
:104350000000007F40404000000C30C00000000022
:10436000000000010638C00000020202FE0000004A
:10437000004040407F0000000000040202020400F0
:10438000000000000000000000000000000000002D
:104390008080808080808080000202040000000015
:1043A000000000000000000000008080808000000D
:1043B0000019242222223F2008F8008080000000FB
:1043C000003F112020110E000000008080800000BE
:1043D000000E112020201100000000808088F800CD
:1043E000000E112020103F200000808080800000FF
:1043F000001F222222221300008080F08888881863
:104400000020203F2020000000008080808080006D
:10441000006B94949493600008F800808080000002
:10442000203F210000203F200080989800000000DD
:104430000020203F2020000000000080989800000D
:1044400000C08080807F000008F80000808080002D
:10445000203F24022D302000000808F80000000052
:104460000020203F2020000080808080808080000D
:10447000203F20003F20003F80800080808000009F
:10448000203F210000203F2000008080808000002D
:10449000001F202020201F0080800080800000005E
:1044A00080FFA12020110E0000000080808080008D
:1044B000000E112020A0FF8080808000808080007E
:1044C00020203F21200001000000808080808000AB
:1044D0000033242424241900008080E08080000020
:1044E0000000001F2020000080800000008080006D
:1044F000001F202020103F208080800000808080CE
:1045000000010E300806010080800080008080805D
:104510000F300C030C300F00008080008080800082
:104520000020312E0E3120008080800000808080AD
:1045300080818E701806010000808080808080005D
:104540000021302C2221300000000000807C02027B
:1045500000000000003F404000000000FF0000009D
:1045600000000000FF0000000002027C800000004C
:104570000040403F00000000000601010202040468
:104580000000000000000000A84500080000002016
:104590003C0000006C010008E44500083C000020DD
:1045A0008406000088010008640064006400640060
:1045B00000A24A0400000000000000000102030401
:1045C00006070809000000000000000000000000CD
:1045D00000000000010203040102030406070809A9
:0445E00002040608C3
:0400000508000131BD
:00000001FF
