:020000040800F2
:10000000C0370020990100082F260008D51E0008DF
:100010002D260008F10400086F33000800000000DE
:1000200000000000000000000000000001010008C6
:10003000F30400080000000045010008E530000856
:10004000B3010008B3010008B3010008B3010008C0
:10005000B3010008B3010008B3010008F50400086B
:10006000B3010008B3010008B3010008B3010008A0
:10007000B3010008B3010008B3010008B301000890
:10008000B3010008B3010008B3010008B301000880
:10009000B3010008B3010008B3010008B301000870
:1000A000B3010008B3010008B3010008B301000860
:1000B000B3010008B3010008B3010008B301000850
:1000C000B3010008B3010008B3010008B301000840
:1000D000B3010008B3010008B3010008B301000830
:1000E000B3010008B3010008B3010008DFF80CD029
:1000F00000F08EF90048004721340008C037002086
:10010000224B19680868B0E8F00F80F30988BFF344
:100110006F8F4FF0000080F311884EF00D0E704786
:100120000000000006480068006880F3088862B696
:1001300061B6BFF34F8FBFF36F8F00DF00BF00BF0B
:1001400008ED00E0EFF30980BFF36F8F0F4B1A68E3
:1001500020E9F00F106008B54FF0500080F31188CF
:10016000BFF34F8FBFF36F8F04F03CF84FF00000E8
:1001700080F31188BDE8084019680868B0E8F00FFE
:1001800080F30988BFF36F8F704700BF880000209D
:10019000EFF3058070470000064880470648004797
:1001A000FEE7FEE7FEE7FEE7FEE7FEE7FEE7FEE727
:1001B000FEE7FEE771310008ED000008202A04DBAD
:1001C000203A21FA02F00021704721FA02F3D040D0
:1001D000C2F12002914008431946704740EA0103EA
:1001E0009B0703D009E008C9121F08C0042AFAD2ED
:1001F00003E011F8013B00F8013B521EF9D27047B1
:10020000F0B480EA0102D40F4200B2EB410F02D2F7
:100210000246084611464A0042D0C30DDDB2C1F382
:10022000C752AD1A202D35DAC1F3160141F4000290
:1002300004B15242C5F1200602FA06F12A411044E7
:10024000B3EBD05F23D0C4B1012DA0EBC35009DCC8
:10025000F0BC4FF0004202EAC352DBB200F50000EE
:1002600000F0A8B8400000F1807000EBC350A0F18E
:10027000807040EAD170490009E0490841EAC07144
:10028000A0EBC35000F50000400800EBC350F0BCE9
:1002900000F087B86142012202EB4101001BF6E742
:1002A000F0BC704781F00041AAE780F00040A7E76A
:1002B00080EA010210B502F00043400022D04A005B
:1002C0001FD0010E01EB1261C0F35600C2F35602BB
:1002D00040F4000042F40002A0FB022000047F3939
:1002E000140400D0401C50EA124001D44000491EC2
:1002F000C2B20C0604EBD010401C4008802A02D089
:1003000003E0002010BD20F00100002900DA0020E9
:10031000184310BD420005D0C0F3C752524291426B
:1003200001DC0020704700EBC1507047C10F80EA2C
:10033000E0700844CA079623002100F03BB89623DA
:100340000022114600F036B800F0004220F00040D4
:10035000C10DC0F3160040F400007F2901DA00202F
:100360007047962903DCC1F19601C84001E0963937
:100370008840002AF4D04042704720F00040C10D70
:10038000C0F3160040F400007F2901DA0020704716
:10039000962903DCC1F19601C84070479639884020
:1003A00070470029A8BF7047401C490008BF20F0D3
:1003B0000100704710B4B0FA80FC00FA0CF050EA6B
:1003C000010404BF10BC704749B1CCF1200421FAEC
:1003D00004F411FA0CF118BF012121430843A3EBE7
:1003E0000C01CB1D4FEA00614FEA102042BF0020F4
:1003F00010BC704700EBC35010440029A4BF10BCD0
:100400007047401C490008BF20F0010010BC704735
:10041000064C074D06E0E06840F0010394E8070051
:1004200098471034AC42F6D3FFF764FE2855000815
:100430004855000870B5044600688168C943C9077B
:100440001CD1816821F00101816000F06FFD05463B
:100450000FE000BF00F06AFD401B022809D9A06A26
:1004600040F01000A062E06A40F00100E06201206C
:1004700070BD20688068C043C007EBD0002070BD0D
:10048000F8B500260446009600688168C943C9078C
:1004900028D0816841F00101816013481349006848
:1004A000B0FBF1F000E0401E00900028FBD100F00E
:1004B0003DFD054611E000BF00F038FD401B02285D
:1004C0000BD9A06A40F01000A062E06A40F0010081
:1004D000E06284F824600120F8BD20688068C04391
:1004E000C007E9D10020F8BD6000002040420F00A5
:1004F000FEE77047022000F021BC00000649002002
:10050000C8610648016941F004010161016941F0D7
:100510004001016170470000B00A00200020024045
:10052000064A0021D16106490A6942F002020A61C5
:100530004861086940F0400008617047B00A002037
:1005400000200240044B0022DA61044A136943F0A0
:100550000103136101807047B00A002000200240AF
:1005600014480022C168CB06134904D5CA6942F079
:100570000202CA611022C3685B0705D5CB6943F04C
:100580000103CB6142F00402C369DB0707D0CB69EA
:1005900043F00403CB61C16921F00101C161A2F5FF
:1005A0008071013901D0C2607047C16921F0010139
:1005B000C161704700200240B00A002070B50546B6
:1005C00000F0B4FC0646114C09E0681C07D025B1C8
:1005D00000F0ACFC801BA84201D9032070BDE0688C
:1005E000C007F2D1E068800601D52020E060E06815
:1005F000C00605D4E069C00702D1E068400703D512
:10060000FFF7AEFF012070BD002070BD002002404A
:100610000EB569460090012001900720029007481E
:1006200000F05CF8054800F021FA0A21034800F0C8
:1006300085F9024800F0D0F880B20EBD34050020E4
:100640002DE9FF47054600200090019002900446E6
:10065000039019E00020FFF7DBFF009908440090A9
:100660000120FFF7D5FF0199084401900220FFF710
:10067000CFFF0299084402900320FFF7C9FF0399B6
:10068000641C0844E4B20390AC42E3D3DFF840803A
:10069000DFF84090104F00246E4600BF56F824004B
:1006A000B0FBF5F0FFF74BFE4146FFF701FE0146B8
:1006B0004846FFF7F7FDFFF760FE27F81400641CBB
:1006C000E4B2042CEAD304B00020BDE8F0870000B7
:1006D00023DB793E0000FA440A000020F8B500242C
:1006E000009490F824202546012A12D0012280F897
:1006F00024204A681F23072A0DD20668776B521EF2
:1007000002EB820293409F430B6893401F43776341
:1007100019E00220F8BD06680D2A0AD2376BD21FF5
:1007200002EB820293409F430B6893401F43376361
:1007300009E0F76A0D3A02EB820293409F430B688F
:1007400093401F43F7620A68072306680A2A0AD300
:10075000F7680A3A02EB420293409F438B6893404A
:100760001F43F76008E0376902EB420293409F4362
:100770008B6893401F4337610A68102A01D0112A01
:1007800020D1124B02689A4217D193681B0219D4E8
:10079000936843F4000393600968102912D10C494F
:1007A0000C4A0968B1FBF2F101EB8101490000E05C
:1007B000491E00910029FBD104E0816A41F020012B
:1007C0008162012480F824502046F8BD00240140B5
:1007D0006000002040420F000068C06C70470000BD
:1007E0002DE9F0414FF0000704003D467ED0A06A9D
:1007F000002628B9E66284F82460204600F07EF8DE
:100800002046FFF717FEA16AC90600D420B1A06AEE
:1008100040F01000A06269E0A16A21F4885141F023
:100820000201A1626268E169E3680A4347EA4301A1
:100830000A43A1684FF48077B94209D0012907D053
:100840005FF00001D4F814C0BCF1010F02D00AE03F
:100850003946F7E7F3B1A36A43F02003A362E36AE2
:1008600043F00103E3622368D3F804C02CF4694C1D
:100870004CEA010CC3F804C021688B68DFF870C033
:1008800003EA0C0313438B60A168B9420BD0012922
:1008900009D00CE0DFF85CC0A3690CEB43330B43D9
:1008A00043F40061DFE7218A0D05A5F58015216875
:1008B000CB6A23F470032B43CB62216889680E4B0B
:1008C0001940914208D1E662A16A21F0020141F08B
:1008D0000101A162BDE8F081A06A20F0020040F0B1
:1008E0001000A062E06A40F00100E0620120F1E740
:1008F000FDF7E1FF00E0FFFFFE0E1FFF00B50068FF
:100900000B4985B0884210D10A48816941F40071D1
:1009100081618069694600F4007004900F200090A6
:1009200003200190044800F015FA05B000BD000056
:100930000024014000100240000801402DE9F84366
:1009400000260D460446009600F0F0FA8046206826
:100950008168C90508D5A06A40F02000A06284F82B
:1009600024600120BDE8F8834168C90503D4C06A4A
:1009700010F4700F26D0022000F072FD384909688B
:10098000B1FBF0F72068036936490B424FEA610179
:100990004FEAA1121BD1C3684FEA611C13EA0C0F86
:1009A00015D103690B4221D1C06810421ED1142019
:1009B0001FE0681C06D045B300F0B8FAA0EB0800B1
:1009C000A84222D8206800688007F2D52AE003698F
:1009D0000B4202D1C168114206D0026922490A4283
:1009E00006D1C068084203D1542002E0292000E06B
:1009F000FC204743009813E0681C0ED02DB100F096
:100A000095FAA0EB0800A84207D9A06A40F00400BC
:100A1000A06284F824600320A4E70098401C0090A2
:100A2000B842E9D321686FF012000860A06A40F470
:100A30000070A06220688068C0F3424007280CD193
:100A4000E06850B9A06A20F48070A062A06AC00477
:100A500003D4A06A40F00100A062002082E70000F9
:100A600060000020244992244992240070B5044675
:100A700090F8240001280DD0012084F8240020469D
:100A8000FFF7FEFC02004FF0000005D084F82400C0
:100A9000104670BD022070BDA16A40F20123994347
:100AA00041F48071A1621F4D23681F49AB4218D1E8
:100AB0000E6816F4702F14D0A66A46F48016A6624B
:100AC0000E68760505D5A66A26F4005646F48056CB
:100AD000A662A66AF6040AD5E66A26F00606E6626B
:100AE00006E0A66A26F48016A6625E68E9E7E06280
:100AF00084F824006FF00200186020688368C3F354
:100B00004243072B05D1A84208D1096811F4702F80
:100B100004D0816841F480118160B9E7816841F4B3
:100B2000A001F9E7002801400424014070B5044603
:100B300000F0FCF90546601C02D00448007804442B
:100B400000F0F4F9401BA042FAD370BD540000201D
:100B50002DE9F047054626480F460126017E01296A
:100B60000FD00121814601762868DFF888804CF299
:100B70005034022808D0A2462046FFF71FFDA8B136
:100B800031E00220BDE8F0872046FFF717FD08BBE3
:100B90000120FFF7B3FC2046FFF710FDD8F8101036
:100BA000064621F00401C8F810101CE04FF0FF3099
:100BB0003860AC6811E02046FFF7B2FC5046FFF702
:100BC000FDFCD8F81010060021F00201C8F8101042
:100BD00001D03C6007E004F58064D5E9020100EB38
:100BE0008120A042E7D8002189F818103046C9E7D3
:100BF000B00A0020002002400348016941F0800152
:100C00000161002070470000002002402DE9F05FE4
:100C100007461C4888460024017E15461E460129C9
:100C200009D00121814601764CF2503A5046FFF737
:100C3000C5FC18B122E00220BDE8F09F012F02D0D0
:100C4000022F00D00427D346DFF83CA0220128461B
:100C50003146FFF7B3FA81B208EB4400FFF772FCAC
:100C60005846FFF7ABFCDAF8102022F00102CAF870
:100C7000102018B9641CE4B2BC42E7D3002289F802
:100C80001820D9E7B00A00200020024006490020C1
:100C90000A69120607D5054A4A60054A4A60096989
:100CA000090600D501207047002002402301674556
:100CB000AB89EFCD1C4910B500200870072001F06A
:100CC00035FD04460146272001F06CFDE00606D5FF
:100CD0000F2001F0E5FCFF21E12001F063FDA006FB
:100CE0000AD50F2001F0DCFCFF21E12001F05AFDC4
:100CF0000E48006802F08EFD600613D54FF40041E7
:100D00000B4800F00AF920220A49612001F0EAFCB0
:100D1000FF21E22001F046FD07480068BDE81040D1
:100D200002F078BD10BD0000140000203400002047
:100D300000080140010100203C000020044910B5DA
:100D40000A68024202D00860FFF7B4FF10BD00003D
:100D5000140401402DE9F84FDFF890A100220AF1B8
:100D6000040B144601274FF00F090BF1040E00BFCE
:100D70000B6807FA04F52B40AB4274D1DFF870C161
:100D80004E68A6EB0C0866452BD00DDC032E34D044
:100D900005DC36B3012E19D0022E2FD11BE0112E07
:100DA00016D0122E2AD119E0B8F5881F19D006DC0A
:100DB000B8F5803F15D0B8F5801F1FD111E0B8F508
:100DC000001F0ED0B8F5041F18D10AE0CA6815E05C
:100DD000CA68121D12E0CA6808320FE0CA680C32F5
:100DE0000CE08A682AB1012A4FF0080203D045615D
:100DF00004E0042202E0056100E00022FF2B01D89C
:100E0000064601E000F104064FEA840501D9A5F188
:100E10002005D6F800C009FA05F82CEA080C02FAF9
:100E200005F54CEA050CC6F800C04D68ED0057D535
:100E3000304DAE6946F00106AE61AD6924F003069F
:100E400005F0010500952C4D06EB050CDCF808506B
:100E5000A6074FEA167809FA08F6B543274EB042BE
:100E600002D1002610E03BE0254EB04201D1012620
:100E70000AE0244EB04201D1022605E0224EB042E3
:100E800001D1032600E0042606FA08F62E43CCF82A
:100E900008604D68DAF80060ED03554601D51E4341
:100EA00000E09E432E604D68DBF80060AD035D46B8
:100EB00001D51E4300E09E432E604D68DEF80060C1
:100EC000ED02754601D51E4300E09E432E604D683D
:100ED000AD020E4D2E6801D51E4300E09E432E60EC
:100EE000641C102CFFF444AFBDE8F88F00040140EF
:100EF00000001110001002400000014000080140F5
:100F0000000C014000100140001401400C0401409D
:100F10008068084000D001207047C2684A40C26023
:100F200070470AB1016170470904FBE70148806816
:100F3000704700005400002070B504001BD094F8E6
:100F40003D00002520B984F83C50204600F032F9DD
:100F5000242084F83D002068016821F0010101602F
:100F600000F008FC404A6168914201D83F4900E026
:100F70003F49884201D2012070BD3E492368B0FB41
:100F8000F1F159606368934206D94FF4967359435F
:100F90004FF47A73B1FBF3F12368491C196261685D
:100FA000914210D84900401EB0FBF1F2521CC2F32E
:100FB0000B02042A01D2042022E0B0FBF1F0401C15
:100FC000C0F30B001CE0A368CBB301EBC10202EB42
:100FD0000116421EB2FBF6F2521C42F48042120588
:100FE00036D06BB301EBC10202EB0111401EB0FB26
:100FF000F1F0401CC0F30B0040F4804040F400408E
:101000002168C861D4E90701084321680860D4E970
:101010000310084321688860D4E90501084321686A
:10102000C8602068016841F001010160256420204A
:1010300084F83D00256384F83E50002070BD00E038
:1010400008E001EB4106421EB2FBF6F2521CC6E775
:101050000120D5E701EB4101401EB0FBF1F0401C3F
:10106000C0F30B00CAE70000A086010080841E00C8
:1010700000093D0040420F002DE9FF4F83B09A4622
:10108000DDE9118793460446DDF84090FFF74EFFF7
:10109000064694F83D0020287DD1192301224349BA
:1010A0002046009600F0A3FF00287CD194F83C0075
:1010B000012878D0012084F83C0020680168C90725
:1010C00003D1016841F0010101602068016821F449
:1010D00000610160212084F83D00402084F83E003A
:1010E00000252564C4F82490A4F82A803048E062E2
:1010F000608D2085CDE9007653465A4620460499F6
:1011000000F0FEFE80B3206C84F83C50042848D0E8
:1011100008E032463946204600F0DEFF30B1206C50
:10112000042839D0032007B0BDE8F08F606A411C65
:101130006162216800780861208D401E80B22085A0
:10114000618D491E618521684A69D24352070BD4DB
:1011500068B1606A421C626200780861208D401E9E
:101160002085608D401E6085208D0028D1D13246BB
:101170003946204600F014FF0028D0D154F83D0B2A
:10118000016841F400710160202004F81E09E57730
:1011900065770020C7E706E02068016841F4007128
:1011A00001600120BFE70220BDE70000020010003F
:1011B0000000FFFF00B500680C4985B0884212D1DD
:1011C000C020009012200190032003906946084837
:1011D000FFF7C0FD0748C16941F40011C161C06952
:1011E00000F40010049005B000BD00000054004061
:1011F000000C01400010024002488168027811444E
:101200008160704754000020074810B5016841F024
:1012100010010160032000F09DF80F2000F006F897
:1012200000F024F8002010BD0020024070B50D4DE4
:1012300004464FF47A712878B1FBF0F00A49096846
:10124000B1FBF0F000F0D4FD48B9102C07D2002219
:101250002146501E00F05EF800206C6070BD012039
:1012600070BD00005400002060000020214808B537
:10127000816941F001018161816901F00101009101
:10128000C16941F08051C161C06900F08050009097
:10129000032000F05FF8002211466FF00B0000F011
:1012A00039F8002211466FF00A0000F033F80022EE
:1012B00011466FF0090000F02DF800221146501F72
:1012C00000F028F800221146101F00F023F8002239
:1012D0000F21901E00F01EF800220F21501E00F07A
:1012E00019F80548416821F0E06141F00071416062
:1012F00008BD0000001002400000014000F01F0285
:10130000012191404009800000F1E020C0F8001167
:1013100070470000F0B40E4B1B680C46C3F3022369
:10132000C3F10705042D00D90425191D072901D291
:10133000002300E0DB1E012606FA05F1491E2140CC
:1013400099409E40761E16403143F0BC01F0B4BA7D
:101350000CED00E0064900F0070208684FF6FF03B5
:10136000184040EA0220034A10430860704700001A
:101370000CED00E00000FA052DE9F04186B0040014
:101380004FF0000504D094F82904002620B108E0AD
:10139000012006B0BDE8F08184F82864204600F002
:1013A0004BF8032084F82904206801F0D0FF04F1F1
:1013B0001001142288466846FEF710FF94E80F00DB
:1013C00001F0B2FF0021206801F0CFFF5FF00107BC
:1013D00004EB451080F8297000F8285F8581C670FD
:1013E000066146616D1C86610F2DF1D35FF0000030
:1013F00004EB401181F8296281F82802888681F87F
:101400002B62C1F83862C1F83C62401CC1F84062EE
:101410000F28EDD3142241466846FEF7DFFE94E81C
:101420000F0001F085FF84F8246084F82974206897
:1014300001F07CFF0020ACE708B50068064988424F
:1014400008D10648C16941F40001C161C06900F4D6
:101450000000009008BD0000005C00400010024049
:1014600010B529A401461DCC86B08DE81D002AA028
:101470002A4C006804900020012923D002293AD088
:1014800010291DD161682268D20119D5C1F38342A8
:10149000C9031DF8020009D5616804AAC1F34041DF
:1014A000515C1F4AB2FBF1F1484301E01D4948433A
:1014B0006168490204D440005FF00301B0FBF1F021
:1014C00006B010BD226AC2F30121012903D192079F
:1014D00001D5C803F4E7022905D1626A920702D553
:1014E00049F64040ECE70329EAD121688903E7D5B2
:1014F0004FF22440E4E700F04DF96168C1F3813117
:10150000491C4900DAE70000020304050607080940
:101510000A0B0C0D0E0F101001020000001002400B
:1015200000127A0000093D002DE9F84305460078D5
:10153000354CC00754D0E0690026C00008D4E069EB
:1015400040F08050E061E069012600F0805000909A
:101550002E480168C90512D40168804641F48071A3
:101560000160FFF7E3FC074605E000BFFFF7DEFC84
:10157000C01B642823D8D8F80000C005F6D5206A1F
:1015800010F4407021D0A98801F4407181421CD030
:10159000206A1F49012220F440700A6000220A607C
:1015A0002062C00711D0FFF7C1FC074641F288381E
:1015B00008E000BFFFF7BAFCC11B414502D9032078
:1015C000BDE8F883206A8007F4D5206A696820F4B2
:1015D0004070084320621EB1E06920F08050E06155
:1015E0002878800705D56068A96820F44040084342
:1015F00060602878C00605D56068E96820F480003E
:10160000084360600020DBE70010024000700040EB
:10161000400442422DE9F047DFF83C8105460E4682
:10162000D8F8000000F00700B0420CD2D8F8001043
:1016300021F007013143C8F80010D8F8000000F08D
:101640000700B04263D12878444C800705D5606814
:10165000A96820F0F000084360602878C00745D0F2
:101660006868012816D02168022816D08907002949
:101670004DDA616821F0030101436160FFF756FC18
:101680006968074641F2883001290FD00229814656
:1016900019D027E021688903E9E78901E7E700BF5E
:1016A000FFF744FCC11B494501D918E08146606839
:1016B000C0F381000128F3D118E000BFFFF736FC2A
:1016C000C11B49450BD86068C0F381000228F5D1E1
:1016D0000CE000BFFFF72AFCC11B494502D90320DB
:1016E000BDE8F087606810F00C0FF3D1D8F8001057
:1016F000404601F00701B1420BD9016821F0070112
:1017000031430160006800F00700B04201D00120C1
:10171000E6E72878400705D56068E96820F4E060CE
:10172000084360602878000706D56068296920F4BE
:10173000605040EAC100606000F03CF86168084A0F
:10174000C1F30311515CC840064908600F20FFF740
:101750006DFD0020C4E700000020024000100240A0
:10176000BC54000860000020014800687047000079
:10177000600000200448054900684968044AC1F334
:101780000221515CC84070476000002000100240F8
:10179000CC5400080448054900684968044AC1F36C
:1017A000C221515CC8407047600000200010024018
:1017B000CC54000812A185B00FC98DE80F0014A009
:1017C000144A006804905168134801F00C03042B7C
:1017D00010D0082B0ED1C1F38343C9031DF80300B9
:1017E0000AD5516804AAC1F34041515C0A4A5043EA
:1017F000B0FBF1F005B0704708494843FAE7000034
:1018000002030405060708090A0B0C0D0E0F101041
:10181000010200000010024000127A0000093D00A1
:101820002DE9F84F04460078B94DC00748D06868E4
:10183000C0F38100012807D06868C0F38100022846
:1018400009D16868C00306D52868800338D5606868
:1018500000286FD034E06068B0F5803F0BD010B145
:10186000B0F5A02F11D0286820F4803028602868B7
:1018700020F4802002E0286840F48030286060680E
:1018800088B1FFF753FB064609E0286840F4802042
:101890002860F0E7FFF74AFB801B642875D82868AA
:1018A0008003F7D50CE0FFF741FB064605E000BFDB
:1018B000FFF73CFB801B6428F0D828688003F7D42E
:1018C0002078944E80074FF001094FF000083BD577
:1018D000686810F00C0F07D06868C0F38100022818
:1018E00009D16868C00306D42868800714D5206928
:1018F00001281FD110E02069B0B1C6F80090FFF7B1
:1019000015FB074605E000BFFFF710FBC01B0228D0
:10191000C4D828688007F7D52868616920F0F800E6
:1019200040EAC10028600FE0C6F80080FFF7FEFA29
:10193000074606E0E9E000BFFFF7F8FAC01B0228FF
:1019400023D828688007F7D4207800072CD5724860
:10195000A169D9B1C0F80090FFF7E8FA074604E0A2
:10196000FFF7E4FAC01B02280FD8686A8007F7D592
:101970006A484FF4FA510068B0FBF1F0009000BFE4
:101980000098411E0091FAD20EE080E0C0F800807D
:10199000FFF7CCFA074604E0FFF7C8FAC01B02289D
:1019A00075D8686A8007F7D42078400760D5E86961
:1019B0000027C00008D4E86940F08050E861E86979
:1019C000012700F08050009055480168C90513D4E4
:1019D0000168834641F480710160FFF7A7FA8246EF
:1019E00006E000BFFFF7A2FAA0EB0A0064284ED879
:1019F000DBF80000C005F5D5E06801280AD008B181
:101A0000052813D0286A20F001002862286A20F0F7
:101A1000040002E0286A40F001002862E06841F218
:101A2000883B98B1FFF782FA82460BE0286A40F0C3
:101A300004002862EEE700BFFFF778FAA0EB0A0186
:101A400059455AD8286A8007F6D50CE0FFF76EFA98
:101A5000824605E0FFF76AFAA0EB0A0159454CD827
:101A6000286A8007F6D41FB1E86920F08050E86149
:101A7000E06988B36968C1F38101022945D0022871
:101A8000C6F8608004D0FFF751FA044638E034E02D
:101A9000FFF74CFA074604E0FFF748FAC01B02289C
:101AA0002BD828688001F7D4206AB0F5803F05D193
:101AB0006868A16820F4003008436860D4E9080130
:101AC0000843696821F4741108436860C6F860909F
:101AD000FFF72CFA044606E015E000BFFFF726FAF0
:101AE000001B022809D828688001F7D50BE000BF49
:101AF000FFF71CFA001B022802D90320BDE8F88F6B
:101B000028688001F4D40020F8E70120F6E70000FF
:101B10000010024000004242800442426000002067
:101B20000070004070B5040005D00025A56294F84F
:101B3000510010B104E0012070BD204600F034F8DF
:101B4000022084F851002068016821F04001016002
:101B5000D4E901010843D4E9031211430843616940
:101B60000843218B01F400710843E1690843216AAD
:101B70000843A16A084321680860A069042101EABA
:101B80001040616A0843216848602168E06A086182
:101B90002068C16921F40061C1616565012084F894
:101BA0005100002070BD000010B50068114986B0DA
:101BB00088421CD11048816941F48051816180695B
:101BC0000E4C00F480500490A02000900220019060
:101BD0000320039069462046FFF7BCF8002140200F
:101BE000CDE90001029169462046FFF7B3F806B03F
:101BF00010BD00000030014000100240000801400C
:101C00002DE9F84F044690F8500000260A9F9A46A6
:101C100093460D464FF0010801280ED0012084F8AC
:101C20005000FFF783F9814694F85100616801285C
:101C30000CD0B1F5827F07D102E00220BDE8F88F19
:101C4000A16809B9042801D00226BDE055B1BBF155
:101C5000000F07D0BAF1000F04D094F8510001280A
:101C600002D004E00126AFE0052084F851000020F6
:101C70006065C4F838B0A4F83EA0A4F83CA0256381
:101C8000A4F836A0A4F834A0206460642068016839
:101C9000490603D4016841F040010160E068B0F5F5
:101CA000006F606804D0E8B3E08E01283BD06AE0A2
:101CB00010B1E08E01282ED1216835F8020BC860E2
:101CC000E08E401EE08626E0B8F1000F0DD0E08ED9
:101CD00058B120688168890707D535F8021BC160B3
:101CE000E08E401EE0864FF00008E08F58B120687B
:101CF0008168C90707D0C0682BF8020BE08F401E2F
:101D0000E0874FF00108781C05D0FFF70FF9A0EB32
:101D10000900B84246D2E08E0028D5D1E08F0028D5
:101D2000D2D136E0FFE7216815F8010B0873E08E89
:101D3000401EE08627E000BFB8F1000F0DD0E08E16
:101D400058B120688168890707D515F8011B017310
:101D5000E08E401EE0864FF00008E08F58B120680A
:101D60008168C90707D0C0680BF8010BE08F401EDF
:101D7000E0874FF00108781C05D0FFF7D7F8A0EBFB
:101D80000900B8420ED2E08E0028D5D1E08F00289D
:101D9000D2D13B46012202212046CDF8009000F02E
:101DA0007FFF08B103260FE04A463946204600F07F
:101DB00067FF18B101262020606505E0A06818B90A
:101DC0002068C16880680090012084F851000020DC
:101DD00084F85000304631E74FF0E02104280869CC
:101DE00003D020F004000861704740F00400FAE7D7
:101DF00010B5401EB0F1807F01D3012010BD4FF01F
:101E0000E02460610F21601700F056FD0020A06102
:101E100007202061002010BD70B5040004D094F8A4
:101E20003900002510B106E0012070BD84F838505B
:101E3000204600F023F8242084F839002068C16887
:101E400021F40051C160204601F0B6F92068016913
:101E500021F4904101612068416921F02A0141612A
:101E60002068C16841F40051C160E563202084F816
:101E7000390084F83A00002070BD000010B50068F9
:101E8000114986B088421DD11048816941F48041D2
:101E9000816180690E4C00F4804004904FF4007022
:101EA0000090022001900320039069462046FEF72F
:101EB00051FF00212015CDE900010291694620461D
:101EC000FEF748FF06B010BD003801400010024088
:101ED00000080140FEE701684A69D24352050CD46C
:101EE0006FF480624A6104210164002140F8301FD0
:101EF00020224273017301207047002070470000C8
:101F00002DE9F843044600680D46DDE908970168AD
:101F10009846164641F4807101604B4600224FF00E
:101F200001112046009700F062F8E8B9216805F039
:101F3000FE0008613B464A461849204600F088F8F2
:101F400028B1206C04280FD10120BDE8F883206857
:101F50004169806900903A464946204600F0BCF845
:101F600020B1206C042813D00320EEE7F5B2B8F1BD
:101F7000010F09D02168300A08613A4649462046D7
:101F800000F0AAF80028ECD1206805610020DCE709
:101F90002068016841F400710160D5E7020001008A
:101FA00070B516460D4604461AE02046FFF793FF2B
:101FB00008B1012070BD681C12D025B1FEF7B6FF34
:101FC000801BA8420CD954F8400F40F0200044F880
:101FD000100900202060202161732073032070BD50
:101FE00020684069C0434007DFD4002070BD2DE960
:101FF000F0471E4690460D460446C1F30747DDF8FC
:10200000209012E0701C10D02EB1FEF78FFFA0EBD5
:102010000900B04209D9002044F8300F2021617333
:10202000A07320730320BDE8F0872068012F0AD039
:10203000806925EA00000004000C06D0002141451B
:10204000E0D00020EFE74069F3E70121F7E7000067
:102050002DE9F0479A4691460D46044600264FF07A
:102060002008C1F307472AE020684069C0434005C3
:1020700012D42068016841F40071016021686FF496
:102080008060486104202064266384F83D8084F8E1
:102090003C600120BDE8F087B9F1FF3F0FD0B9F1F6
:1020A000000F05D0FEF742FFA0EB0A01494506D913
:1020B00044F8306F84F80D8026730320EAE7206827
:1020C000012F07D0D0F8180025EA00000004000C0A
:1020D000E0D0C9E74069F7E770B516460D460446FB
:1020E0001AE02046FFF7F7FE08B1012070BD681C1A
:1020F00012D025B1FEF71AFF801BA8420CD954F864
:10210000400F40F0200044F81009002020602021FA
:1021100061732073032070BD20684069C0430006CE
:10212000DFD4002070BD00002DE9F0470127584C96
:10213000584D4FF480784FF40079012803D0E078AF
:10214000012801D018E0E77010212846FEF7E0FED4
:10215000012818D020212846FEF7DAFE012812D0E7
:1021600041462846FEF7D4FE01280CD049462846B1
:10217000FEF7CEFE012806D010212846FEF7C8FE45
:10218000002871D080E0322001F050FA0026E6707D
:1021900010212846FEF7BCFE012805D1207804282E
:1021A00002D32670A7706FE010212846FEF7B0FE1C
:1021B00001280DD020212846FEF7AAFE012810D0C4
:1021C000474641462846FEF7A3FE012811D013E0FA
:1021D0002078401CC0B22070A770042854D3267009
:1021E00052E0FF2020702C48A670006801F012FB1E
:1021F0004AE02078042808D039462E462846FEF7C3
:1022000087FE264D012808D00AE06078401CC0B245
:102210006070032838D3667036E0A078012807D0B4
:102220004F4649463046FEF773FE012805D006E0CA
:10223000217835F81100401C12E0A07830B1394601
:102240003046FEF765FE012803D01DE00420207013
:102250001AE0A078012817D1217835F81100401E26
:1022600025F8110010E0FFE720212846FEF750FE78
:1022700050B941462846FEF74BFE28B94946284644
:10228000FEF746FE00B9E770BDE8F04701F022B95D
:1022900005000020000C0140380000204C00002008
:1022A0003EB51248002410498460C4604461016056
:1022B000012505614FF460214460C161FEF790FA89
:1022C00018B14D210AA001F053F807200094CDE980
:1022D000015069460548FEF701FA002803D057214E
:1022E00003A001F045F83EBD002401403405002064
:1022F0002E2E2F5372632F6164632E630000000043
:1023000030B5B3B0002501212CA82C9501F06FFA4F
:102310003F4C012120622DA82D9501F068FA6062E2
:1023200001212EA82E9501F062FAA06214223949EB
:102330006846FDF753FF0021684601F0D1FA3549A0
:1023400060601422143105A8FDF748FF002105A89C
:1023500001F0C6FA2F49A060142228310AA8FDF71F
:102360003DFF00210AA801F0BBFA2A49E0601422CF
:102370003C310FA8FDF732FF00210FA801F0B0FAA1
:10238000244920611422503114A8FDF727FF0021B1
:1023900014A801F0A5FA1F4960611422643119A83C
:1023A000FDF71CFF002119A801F09AFA1949A06154
:1023B000142278311EA8FDF711FF00211EA801F09C
:1023C0008FFA144DE0618035D5E90301CDE9230191
:1023D0002FA82590002123A801F034F9E062D5E967
:1023E0000601CDE9260130A82890002126A801F099
:1023F00029F92063D5E90901CDE9290131A82B90FC
:10240000002129A801F01EF9606333B030BD00003F
:10241000140000200C540008F0B52E4885B08169E6
:1024200041F020018161816901F0200104918169FD
:1024300041F004018161816901F004010491816925
:1024400041F0080181618069234F00F0080048F2E3
:1024500010040490012221463846FEF762FD1F4E0B
:10246000012211463046FEF75CFD0022082130466D
:10247000FEF757FD00940124032569463846019470
:10248000CDE90245FEF766FC0920CDE90004694666
:102490003046CDE90245FEF75DFC02251048009567
:1024A000CDE9010469463046FEF754FC4FF44C7008
:1024B00000900020CDE9010569463046FEF74AFC50
:1024C000002205210720FEF725FF0720FEF716FF53
:1024D00005B0F0BD0010024000080140000C0140B2
:1024E000000021100E4810B50C4901600D494160F3
:1024F00000214FF480428160C0E903124161816193
:10250000C1610162FEF718FD002805D0BDE810404A
:102510004C2105A000F02CBF10BD0000005400406D
:1025200064050020A08601002E2E2F5372632F69B0
:1025300032632E6300000000114810B50F4901609E
:102540004FF48271416000218160C1604FF40072DC
:102550000161C0E905121022C0E9072141628162D0
:102560000A21C162FFF7DEFA002805D0BDE810405D
:102570004F2104A000F0FCBE10BD0000003001405F
:10258000B80500202E2E2F5372632F7370692E63AF
:10259000000000000D4810B50B4901604FF4E13117
:1025A0004160002181600C22C160C0E90412816198
:1025B000C161FFF731FC002805D0BDE810404C2177
:1025C00003A000F0D5BE10BD003801401006002069
:1025D0002E2E2F5372632F75736172742E63000059
:1025E0000D4810B50B49016008214160022181604E
:1025F0000321C16000218161C1610162FEF7BCFE5F
:10260000002805D0BDE81040492104A000F0B0BE6C
:1026100010BD0000005C0040500600202E2E2F53FD
:1026200072632F7573622E6300000000FEE770472F
:102630001FB50FA10522D1E90001CDE9020102A9D0
:10264000302000F08BF805226946102000F04AF88F
:10265000002069460A5CA52A03D1401CC0B20528A7
:10266000F8D3052802D0012004B010BD0020FBE7FC
:10267000A5A5A5A5A500000010B5FFF75DFF0022E8
:1026800010210548FEF74DFC0122BDE8104011461F
:102690000248FEF746BC000000080140000C014063
:1026A00010B50F4C0E284FF000024FF010012046DD
:1026B0000DD0FEF736FC0F215FF0200000F072F81D
:1026C00020460122BDE810401021FEF72ABCFEF78B
:1026D00028FC0E21202000F065F87E212720EDE760
:1026E000000801402DE9F041DFF83C8015460F4617
:1026F0000446002201214046FEF713FC204600F06C
:10270000ABFA0646002405E0FF2000F0A5FA385594
:10271000641CE4B2AC42F7D3012211464046FEF7F6
:1027200000FC3046BDE8F081000C014070B50A4D58
:102730000446002201212846FEF7F3FB204600F064
:102740008BFAFF2000F088FA044601221146284641
:10275000FEF7E7FB204670BD000C01402DE9F0417B
:10276000DFF83C8016460D46044600220121404613
:10277000FEF7D7FB204600F06FFA0746002405E07D
:1027800015F8010B00F068FA641CE4B2B442F7D308
:10279000012211464046FEF7C4FB3846BDE8F081F1
:1027A000000C014070B50B4D0E460446002201217D
:1027B0002846FEF7B6FB204600F04EFA04463046A7
:1027C00000F04AFA012211462846FEF7AAFB2046ED
:1027D00070BD0000000C014010B51E4C00221021FD
:1027E0002046FEF79EFB03212320FFF7DBFF052297
:1027F00019493020FFF7B2FF052217492A20FFF7B9
:10280000ADFF1A212420FFF7CDFF01212220FFF781
:10281000C9FF01212120FFF7C5FF20213120FFF74B
:10282000C1FF0D490522491D2A20FFF797FF2821E6
:102830002520FFF7B7FF0F212620FFF7B3FF0F205A
:10284000FFF72EFF20460122BDE810401021FEF7C1
:1028500068BB0000000801400054000870B5044641
:102860000078AF2824D16088124D40BA288000EB50
:1028700040104000FDF763FD6FF00B01FDF74AFDCE
:102880006860A088642140BA6861E08840BA288204
:10289000208940BA6882608940BA00B2288190FBE2
:1028A000F1F0FDF743FDE860207B2876607B6876D9
:1028B00070BD0000C40000200907090E002806DAD8
:1028C00000F00F0000F1E02080F8141D704700F1C7
:1028D000E02080F80014704770B506465FF00004F1
:1028E00004F1B000C0B200F093F9012000F090F9BB
:1028F000102000F08DF90025304600F09BF96D1C8A
:10290000EDB2802DF8D3641CE4B2082CE8D370BD7E
:1029100010B5AE2000F07CF9202000F079F91020ED
:1029200000F076F9B02000F073F9C82000F070F9DB
:10293000002000F06DF9102000F06AF9402000F04E
:1029400067F9812000F064F9FF2000F061F9A1200F
:1029500000F05EF9A62000F05BF9A82000F058F91D
:102960003F2000F055F9A42000F052F9D32000F0E8
:102970004FF9002000F04CF9D52000F049F9F02083
:1029800000F046F9D92000F043F9222000F040F988
:10299000DA2000F03DF9122000F03AF9DB2000F0D7
:1029A00037F9202000F034F98D2000F031F914209F
:1029B00000F02EF9AF2000F02BF90020FFF78CFF7C
:1029C0000021BDE81040084600F00EB92DE9F0479F
:1029D00090468A4605460026DFF848901CE02038DD
:1029E000C7B27E2D04D90AF10100002500F0FF0ACC
:1029F0005146284600F0F8F807EB4700002409EBA1
:102A00004007385D00F016F9641CE4B2062CF8D3D8
:102A1000AD1D761CEDB2F6B218F806000028DED126
:102A2000BDE8F087E84B00082DE9F047150088461F
:102A300004464FF0000601D431A201E0554231A214
:102A4000FFF7C4FF642095FBF0F10A2091FBF0F240
:102A500000FB121110318FB295FBF0F191FBF0F2F7
:102A600000FB121110311FFA81F995FBF0F100FB08
:102A7000115010301FFA80FA7E2C04D908F10100A1
:102A8000002400F0FF08A01DC0B2414600F0ACF8E1
:102A90001D4D07EB470005EB4007B85D00F0CAF895
:102AA000761CF6B2062EF8D304F10C00C0B24146F3
:102AB00000F09AF809EB4900002605EB4007B85DE5
:102AC00000F0B8F8761CF6B2062EF8D304F1120026
:102AD000C0B20EA24146FFF779FF1834E0B241467A
:102AE00000F082F80AEB4A00002405EB4005285D5F
:102AF00000F0A0F8641CE4B2062CF8D3BDE8F0871F
:102B0000200000002D000000E84B00082E0000000F
:102B10002DE9F0471500884604464FF0000601D421
:102B20002EA201E055422EA2FFF750FF642095FB34
:102B3000F0F10A2091FBF0F200FB121110318FB27C
:102B400095FBF0F191FBF0F200FB121110311FFA2E
:102B500081F995FBF0F100FB115010301FFA80FA5B
:102B60007E2C04D908F10100002400F0FF08A01D0C
:102B7000C0B2414600F038F81A4D07EB470005EBAC
:102B80004007B85D00F056F8761CF6B2062EF8D372
:102B900004F10C00C0B2414600F026F809EB4900F0
:102BA000002605EB4007B85D00F044F8761CF6B24D
:102BB000062EF8D31234E0B2414600F015F80AEBC5
:102BC0004A00002405EB4005285D00F033F8641C42
:102BD000E4B2062CF8D3BDE8F08700002000000026
:102BE0002D000000E84B000810B50446B031C8B213
:102BF00000F00EF8102040EA141000F009F804F07C
:102C00000F00BDE8104040F0010000F001B80000E6
:102C100001B584B00121102204A88DE807000B46FD
:102C2000002278210248FEF727FA05B000BD000017
:102C30006405002001B584B00121102204A88DE8AC
:102C400007000B46402278210248FEF715FA05B02E
:102C500000BD00006405002038B5074C0123621C4C
:102C60002070FF200090511E0448FEF7C9FF08B1F4
:102C7000FF2038BD607838BD02000020B805002074
:102C800038B50B46009204460022802100F008F877
:102C9000002804D0606D40F020006065032038BD3E
:102CA0002DE9F0411D4617460E460446DDF8188012
:102CB00035E0681C33D02DB1FEF738F9A0EB0800E1
:102CC000A8422CD32068416821F0E001416060688F
:102CD000B0F5827F0BD1A068B0F5004F02D0B0F5FF
:102CE000806F04D12068016821F040010160A06A72
:102CF000B0F5005F0AD1206801684DF6FF721140FF
:102D000001602068016841F400510160012084F8ED
:102D10005100002084F850000320BDE8F0812068B5
:102D2000806836EA000004D00020B842C1D10020FB
:102D3000F3E70120F9E7000010B5002306E000BF2B
:102D400050F8024B21F813405B1C9BB29342F7D31F
:102D500010BD00002DE9F74F82B01546029C8A464F
:102D6000A4F10064B4F5803F58D2FDF78FFFA70AA5
:102D7000C4F34806C6F50074A54200D82C46DFF817
:102D8000A4904FF4007B00BF4FF0006000EB872061
:102D900080465A462349FFF7CFFF00204FF6FF71C8
:102DA00006E0331839F813208A4203D1401C80B260
:102DB000A042F6D3A0422BD21A480021103801605D
:102DC0000121C0E902816946FDF7C2FE002825D134
:102DD000494606E03AF810208319401C21F81320D8
:102DE00080B2A042F6D340465A460E4900F01CF885
:102DF000A54211D002980AEB440A20440290281BF5
:102E0000002685B25C467F1CA542BDD82C46BBE798
:102E1000224651460298E9E7FDF7EEFE05B0BDE80F
:102E2000F08F0000340100202DE9F04116460F46D6
:102E3000054600240AE000BF37F814200023294685
:102E40000120FDF7E3FE641CA4B2AD1CB442F3D331
:102E5000BDE8F081012000F0E9FBFBE7104E0F4CCC
:102E6000A6F138050A20FDF7EBFB002034F810101E
:102E700036F81020114424F81010401CC0B2042869
:102E8000F4D30649E86A00F055FC0449286B00F0C9
:102E900051FC0A2000F0CAFBE4E700000A00002011
:102EA0004C000020064C0120FFF73EF90449606BFE
:102EB000383100F03FFC642000F0B8FBF3E700007D
:102EC00014000020084C094D1021206A00F0CAFCB3
:102ED00030B9206A00F09EFC08212846FEF71DF854
:102EE000012000F0A3FBEFE714000020000C0140DC
:102EF0000EB5FFF7C1FB254D07E00022082128464B
:102F0000FEF70FF8642000F091FBFFF791FB00281B
:102F1000F3D1FFF761FC012208211D48FEF701F8FB
:102F20001C4C0A222078401C20706846216B00F05F
:102F3000B7FB0098202813D100F09CFA0E20FFF771
:102F4000AFFB002210212846FDF7EBFF202212499B
:102F5000A020FFF703FC012210212846FDF7E1FF26
:102F6000207814280ED30720FFF7E0FB0146272026
:102F7000FFF718FCFF21E120FFF714FCFF21E220FE
:102F8000FFF710FC052000F051FBCAE700080140E4
:102F9000000C014014000020E00000200EB54FF4AA
:102FA0007A7000F043FB334D334C344E0A226846AE
:102FB000E96A00F075FBDDE90010202901D100F07D
:102FC00019FB1021286A00F04DFC50B12CA2002101
:102FD0004820FFF7FBFC1021A86A00F043FC10B169
:102FE0003AE02AA2F3E72C48FFF738FC6068FDF7C7
:102FF000ABF9024602215A20FFF716FDE068FDF703
:10300000A3F9024606216020FFF782FDB4F91020E3
:1030100000212420FFF708FDB4F91220012124200B
:10302000FFF702FD60690A2190FBF1F202212420E2
:10303000FFF76EFD207E012815D0022815D017A2BB
:1030400005216820FFF7C2FC607E01280FD014A282
:1030500004216E20FFF7BAFC307800F099F9642063
:1030600000F0E4FAA2E70FA2EAE70FA2E8E70FA256
:10307000EEE7000014000020C4000020050000203E
:103080002076616E6973686564000000636F6E6E20
:1030900065637465640000000101002020202000A9
:1030A0004E6F20004E6F7200416C740059657300C2
:1030B0000B4C042209492046FFF73EFE074D383DE0
:1030C0000A21686A00F0CEFB20B904220349204699
:1030D000FFF740FE642000F0A9FAF1E74C00002061
:1030E00000FC000810B5FEF787F8BDE8104000F0BE
:1030F000EDBB30B593B001210804CDE900100024E8
:10310000029402250491CDE907504FF4E010099094
:103110006846FEF785FB00B1FEE70F20CDE90A0502
:103120004FF48060CDE90C4002210AA80E94FEF70E
:1031300071FA00B1FEE712200F904FF40040CDE984
:1031400011040FA8FEF7F0F900B1FEE7FEF70CFB43
:103150004FF47A71B0FBF1F0FEF74AFE0420FEF75F
:103160003BFE00220F21501EFEF7D4F813B030BDF5
:103170000D48016841F00101016041680B4A1140AE
:10318000416001680A4A11400160016821F4802110
:103190000160416821F4FE0141604FF41F0181602C
:1031A0000449C00308607047001002400000FFF8A7
:1031B000FFFFF6FE08ED00E02DE9F041044600684F
:1031C0000169E26821F44051114301612169A0685D
:1031D0000843616908432168CA6841F20C639A4355
:1031E0000243CA6020684169A26921F44071114319
:1031F00041614C4920686425322688423CD1FEF763
:10320000C9FA00EBC00101EB001061688900B0FB56
:10321000F1F7FEF7BFFA00EBC00101EB00106168A7
:10322000B0468900B0FBF1F0B0FBF5F06FF018018B
:10323000484307EB800106EB0110B0FBF5F000F00E
:10324000F006FEF7A7FA00EBC00101EB0010616881
:103250008900B0FBF1F0B0FBF5F006EB0016FEF7CD
:1032600099FA00EBC00101EB001061688900B0FB26
:10327000F1F7FEF78FFA3BE0FEF77CFA00EBC001B6
:1032800001EB001061688900B0FBF1F7FEF772FAFC
:1032900000EBC00101EB00106168B0468900B0FB93
:1032A000F1F0B0FBF5F06FF01801484307EB800137
:1032B00006EB0110B0FBF5F000F0F006FEF75AFA4D
:1032C00000EBC00101EB001061688900B0FBF1F078
:1032D000B0FBF5F006EB0016FEF74CFA00EBC00170
:1032E00001EB001061688900B0FBF1F7FEF742FACC
:1032F00000EBC00101EB001061688900B0FBF1F048
:10330000B0FBF5F06FF01801484307EB800108EBC4
:103310000110B0FBF5F0216800F00F003044886028
:10332000BDE8F08100380140002070470020704760
:1033300000B50121A0F840100021A0F84010A0F82D
:103340004410A0F8501000F009F8002000BD30F83B
:10335000401F21F43D4101800020704730F8401F9C
:1033600041F43F4101800020704700207047FEE794
:10337000FEE702E008C8121F08C1002AFAD1704710
:103380007047002001E001C1121F002AFBD17047E5
:1033900010B50446042808D204F10400C1B211A2F9
:1033A0004FF02400FFF712FB17E016D10DA24FF0EB
:1033B00007014FF04800FFF709FB0B48007810B1F8
:1033C000022802D006E009A200E00BA207214E204D
:1033D000FFF7FCFA0B48048010BD07210AA2482021
:1033E000F6E700003E000000060000204E6F72204D
:1033F0006D6F64650000000043616C206D6F646553
:10340000000000000000002020202020202020209C
:1034100020000000EFF30580002800D00120704755
:10342000FDF7F2FEFFF765FEFEF7F6FFFEF738FF49
:10343000FFF758F8FFF780F8FFF7D2F8FFF7AAF880
:103440004FF47A742046FDF771FBFFF761FA2046CE
:10345000FDF76CFBFFF75CFA00F054F8FEF750FF45
:1034600000F0EBF8FEE701460020842900D0C81CDC
:1034700070470000124810B58178491CCBB28370A8
:1034800010480121017010490978FF2902D10F4924
:10349000097841700E490A88140A8470C2704A88FB
:1034A000140A047142718A88140A8471C271C9882D
:1034B0000A0A027241728372A521C17210BD000016
:1034C00002000020E000002005000020060000208F
:1034D0000A00002010B5002009496FF0630364243E
:1034E00031F910209A4202DA21F8103003E0642A00
:1034F00001DD21F81040401CC0B20428F0D310BDFB
:103500004C00002010B5002120A20846FFF75EFA0B
:1035100020A201210020FFF759FA20A20221002059
:10352000FFF754FA1FA201214820FFF74FFA20A20B
:1035300002214820FFF74AFA20A203210020FFF7CA
:1035400045FA23A204210020FFF740FA13A2052127
:103550000020FFF73BFA0DA206210020FFF736FA04
:103560000CA207210020FFF731FA1BA204214820FA
:10357000FFF72CFA1AA205214820FFF727FA0621A7
:10358000BDE8104018A24820FFF720BA50697463C4
:10359000683A0000526F6C6C203A00005961772045
:1035A000203A000054583A202020202076000000C5
:1035B00052583A2020202020760000002D2D2D2D5D
:1035C0002D2D2D2D2D2D2D2D2D2D2D2D2D000000B2
:1035D00054485220203A000061726D65643A3A0006
:1035E0006D6F64653A000000414C543A2020202061
:1035F0006D00000010B50446B0F90020042124201D
:10360000FFF786FAB4F9022005212420FFF780FA9B
:10361000B4F9042006212420FFF77AFAB4F9062031
:103620000721BDE810402420FFF772BA10B500B999
:10363000012000F003FD002010BD10B500F096FD44
:10364000002010BD3EB5044600200090019002907D
:1036500020680090606801900C2000F085FBA16854
:103660000028086019D0046000220421206800F0BE
:1036700037FEA16809684860A168096870B16846AA
:1036800000F086F80100A06800688160A06800680A
:1036900003D100BF00F06AFC00203EBD0846F9E7F8
:1036A0002DE9FF410D000646029522D04FF000089B
:1036B0004446CDF80C80501C20D002B11446FFF7D0
:1036C000A9FE20270028686869461CD003AA091DA6
:1036D00001F080F8012814D0CDF800800398E0B103
:1036E00013494FF080500860BFF34F8FBFF36F8FC7
:1036F00013E0802000902A46019910E04FF0FF343B
:10370000DDE70097EAE700232246091D00F00CFEE2
:10371000012808D04CB1402000909DE8070086E8C1
:103720000700BDE8FF810097F7E70020F4E70000FD
:1037300004ED00E013B582B004000FD0002000902B
:10374000FFF768FE002860684FF0000314D06A4657
:1037500003A900F093FF012814D102E0802004B0F7
:1037600010BD009880B109494FF080500860BFF348
:103770004F8FBFF36F8F07E0002203A900F0CEFE4A
:10378000012801D0FF20EAE70020E8E704ED00E08F
:103790002DE9F04105464068C01C20F003071420C5
:1037A00000F0E2FA04001FD0002628682661C4E970
:1037B0000207286800F0D8FA606088B1286878436A
:1037C00000F0D2FA206040B1002002E061680E549F
:1037D000401C29688142F9D806E0606800F0C6FB09
:1037E000204600F0C3FB00242046BDE8F08110B560
:1037F000012901D0002010BD03220021012000F08A
:103800006FFD040004D000231A46194600F086FE1E
:10381000204610BD38B5002405460094FFF7FAFD98
:1038200090B16946284600F087FF012801D0FF20AB
:1038300038BD009888B10A494FF080500860BFF346
:103840004F8FBFF36F8F08E000231A4619462846B2
:1038500000F064FE012800D0FF24204638BD00009F
:1038600004ED00E038B505004FF0000000900FD0E7
:103870000024481C0ED001B10C46FFF7CBFDB8B1B7
:103880006A460021284600F0A5FF012818D104E06F
:10389000802038BD4FF0FF34EFE7009890B10A491F
:1038A0004FF080500860BFF34F8FBFF36F8F09E078
:1038B000002322461946284600F036FD012801D093
:1038C000FF2038BD002038BD04ED00E010B501F048
:1038D00031F8012803D0BDE8104000F0EBBC10BD6A
:1038E0003EB504460D46B0F90800FFF7BCFD02A93D
:1038F000CDE90001208A2B4682B2D4E9001000F005
:10390000EDFF012801D000203EBD02983EBD000021
:103910002DE9F041184C0F460546E6682068001D69
:1039200000F0ACFA38B9206890F82C1001208840DB
:10393000216981432161681C07D137B12168BDE845
:10394000F0410E48091D00F0D1BA20683544B54257
:103950004560216805D2A06BBDE8F041091D00F06B
:10396000ADBA606B091D00F0A9FAA06A854200D2C9
:10397000A562BDE8F081000088000020AC33002083
:103980002DE9F041054600F0BDFA2E4CA068401C20
:10399000A06020682C4F10B1606940B32DE0256015
:1039A000A068012829D1002606EB860007EB8000DD
:1039B00000F076FA761C072EF6D323488C3000F000
:1039C0006FFA2148A03000F06BFA1F48B43000F0C5
:1039D00067FA1D48C83000F063FA1B48DC3000F07D
:1039E0005FFA19488C3060631430A06305E02068EA
:1039F000E96AC06A884200D82560606A401C60623B
:103A0000E96A0120226988401043206101EB8100AE
:103A100007EB8000291D00F069FA00F093FA606955
:103A200000280CD02068E96AC06A884207D207499A
:103A30004FF080500860BFF34F8FBFF36F8FBDE82A
:103A4000F081000088000020D032002004ED00E06A
:103A500070B5114E114C17E000F0BCFB3068B8B1E6
:103A600001F060F800F04EFAF068C568281D00F01B
:103A700005FAA068401EA0606068401E606000F00B
:103A800061FA284600F055F860680028E4D170BD5E
:103A900001F048F8F8E70000983300208800002083
:103AA00030B4026C0B46002A0BD0C1681144C160CF
:103AB0004468A14201D30168C16030BC1846FCF7DC
:103AC0008DBB30BC70472DE9F041856B174604462D
:103AD0000026026C82B1C7B1E068FCF77FFBE168A9
:103AE000206C091AE1602268914202D26168081ACA
:103AF000E060022F16D017E02068A8B9606800F0D7
:103B00008BFF0646002060600EE0A068FCF766FBB5
:103B1000216CA0680844A0606168884204D32068D2
:103B2000A06001E005B16D1E6D1CA5633046BDE8C7
:103B3000F08110B50446006B00F018FA2046BDE88D
:103B4000104000F013BA000010484FF42051420713
:103B500006D0C01D0D4920F00700411AC1F52051C3
:103B60000B4A00230144C2E900030839103A21F04E
:103B7000070111604B600B600B1AC0E900139360E2
:103B80004FF000405360D06070470000D00A002022
:103B900074000020074C4FF08056074DFFF758FF88
:103BA00020680128FAD92E60BFF34F8FBFF36F8FC3
:103BB000F4E70000D032002004ED00E02DE9F047EA
:103BC0009A46DDE9098481466FF00303206B03EB1D
:103BD00082021044089D20F00706700707D050208D
:103BE00080F31188BFF34F8FBFF36F8FFEE7231869
:103BF0000A5C83F834200A5C12B1401C1028F6D30A
:103C0000002784F84370072D00D30625E562C4E938
:103C10001157201D00F04FF904F1180000F04BF986
:103C20002461C5F107006462A061E76484F8507004
:103C300052464946304600F00FF92060B8F1000FB7
:103C400001D0C8F80040BDE8F087000030B5114948
:103C500000E011460A688242FBD34B685C1884423C
:103C600003D1406818444860084643681C189442D1
:103C700009D1084C103C2468A24209D052681A4469
:103C800042600A6812680260814200D0086030BD5C
:103C90000460F9E77400002010B5044600F032F922
:103CA000A06B28B15FF0000400F04CF9204610BD75
:103CB0000124F9E70648416B096829B1416BC968DD
:103CC000C9684968816270474FF0FF31FAE7000028
:103CD0008800002008484068401C4FF0500080F3E6
:103CE000118804D0BFF34F8FBFF36F8FFEE7BFF390
:103CF0004F8FBFF36F8FFEE77C0000202DE9F0416E
:103D0000044600F0FFF894F9455004F1240609E058
:103D1000606A48B1304600F0CBFE08B100F0B4F95B
:103D20006D1E6DB2002DF3DC4FF0FF3684F8456058
:103D300000F008F900F0E6F894F9445004F1100797
:103D400009E0206948B1384600F0B2FE08B100F041
:103D50009BF96D1E6DB2002DF3DC84F84460BDE864
:103D6000F04100F0EFB800002DE9F04105460027D2
:103D700000F030FA314E306808B9FFF7E5FEF06820
:103D800005424BD1C5B3083568070ED005F00700D2
:103D9000C0F108000544680707D0502080F311885F
:103DA000BFF34F8FBFF36F8FFEE72DB3706885426F
:103DB00034D82248103001460C6801E020460C46F9
:103DC0006168A94202D221680029F7D131688C428A
:103DD00024D007682168016060680837411B1029FA
:103DE0000FD96019420708D0502080F31188BFF323
:103DF0004F8FBFF36F8FFEE710E041606560FFF704
:103E000025FF61687068401A7060B268904200D205
:103E1000B060F06801430020C4E9000100F082FEB8
:103E2000780707D0502080F31188BFF34F8FBFF37E
:103E30006F8FFEE73846BDE8F08100006400002087
:103E40000449086818B10868826C521C82640868CA
:103E5000704700008800002010B5031F4FF08074E9
:103E60001C601B1F21F001011960191F024B0B6020
:103E7000143940380A6010BDD53C0008D0E9013241
:103E800001699A60D0E901235A604A68824201D1EF
:103E900082684A60002202610868401E086070471C
:103EA00000F108014FF0FF32C0E90112C160016169
:103EB00000210160704700210161704730B50B6837
:103EC0005A1C02D000F1080202E0026904E0224616
:103ED000546825689D42FAD953684B6099608A609E
:103EE000516008610168491C016030BD42684A6048
:103EF00093688B6093685960916008610168491C00
:103F000001607047502080F31188BFF34F8FBFF3DB
:103F10006F8F0A494868401C486001280CD1084846
:103F2000006810F0FF0F07D0502080F31188BFF316
:103F30004F8FBFF36F8FFEE7704700007C000020BB
:103F400004ED00E00849486828B1401E486001D1EE
:103F500080F311887047502080F31188BFF34F8F92
:103F6000BFF36F8FFEE700007C00002070B50028D3
:103F700027D0144DA0F108046168E868014207D118
:103F8000502080F31188BFF34F8FBFF36F8FFEE790
:103F900022683AB1502080F31188BFF34F8FBFF3EE
:103FA0006F8FFEE78143616000F014F96068696813
:103FB000084468602046FFF749FEBDE8704000F005
:103FC000B1BD70BD6400002006484FF47A710068EE
:103FD000B0FBF1F14FF0E020491E41610721016182
:103FE000704700006000002010B5FCF7D1F81149BF
:103FF00010280ED300F1E02090F8F0030A789042E8
:1040000007D2502080F31188BFF34F8FBFF36F8F1B
:10401000FEE709480068896800F4E060884207D933
:10402000502080F31188BFF34F8FBFF36F8FFEE7EF
:1040300010BD00007C0000200CED00E010B5020077
:1040400014D00F48006B38B1502080F31188BFF3B3
:104050004F8FBFF36F8FFEE700F0BCF800211046D2
:10406000FFF756FC00F05EFD002807D105494FF030
:1040700080500860BFF34F8FBFF36F8F10BD0000FB
:104080008800002004ED00E001490120C86170476C
:104090008800002010B50C4650B109490968183154
:1040A000FFF70CFF2046BDE810400121FFF730BCB0
:1040B000502080F31188BFF34F8FBFF36F8FFEE75F
:1040C0008800002070B5040039D01D4DE06A2968D1
:1040D000C96A884233D2A069002804DB2868C06A14
:1040E000C0F10700A061E16A164E01EB8101606931
:1040F00006EB810188421FD1201DFFF7BFFE012181
:1041000050B9E06A00EB800256F8222022B92A69F1
:1041100001FA00F082432A612868C06AE0622A69D5
:1041200081401143296100EB800006EB8000211DD6
:10413000BDE87040FFF7DABE2868C06AE06270BD73
:1041400088000020D032002028B107490A6A0260A6
:10415000C96841607047502080F31188BFF34F8FCA
:10416000BFF36F8FFEE70000880000201CB51548E4
:104170000024CDE900402346802213A1144800F01A
:10418000ADFB012809D0401C1AD1502080F31188C2
:10419000BFF34F8FBFF36F8FFEE7502080F311887E
:1041A000BFF34F8FBFF36F8F06484FF0FF312C38AE
:1041B000816201214161C460BDE81C4000F040B84B
:1041C0001CBD0000B400002049444C450000000024
:1041D000953B00080248016B491C016370470000D1
:1041E000880000201448016B11B10121C1617047A2
:1041F0000021C1610169B1FA81F1C1F11F0101EB37
:1042000081020E4951F822306BB101EB820101F1BC
:1042100008034A6852684A609A4201D152684A606B
:10422000D16801607047502080F31188BFF34F8F31
:10423000BFF36F8FFEE7000088000020D03200201F
:104240001CB5194908780190FF20087008788DF88E
:1042500000009DF80000154A00F050001070072083
:10426000906005E09DF800305B008DF80030401E46
:104270009DF800301B06F5D4000200F4E060906069
:10428000019808700A48016841F4700101600168F2
:1042900041F070410160FFF797FE00205060FBF78E
:1042A00041FF00201CBD000000E400E07C00002075
:1042B00020ED00E010B5502080F31188BFF34F8F40
:1042C000BFF36F8F00F044FB18B104494FF08050EA
:1042D0000860002080F3118810BD000004ED00E0AC
:1042E00070B50E46050013D0D6B105FB06F0483078
:1042F000FFF73AFD040009D004F1480120468EB1D1
:104300000160C0E90F56012100F0C4F8204670BDDD
:10431000502080F31188BFF34F8FBFF36F8FFEE7FC
:104320000020E4E70060ECE72DE9FF4F002683B0B2
:104330009B468A46040003D0BAF1000F08D011E072
:10434000502080F31188BFF34F8FBFF36F8FFEE7CC
:10435000206C38B1502080F31188BFF34F8FBFF32A
:104360006F8FFEE700F0E6FADFF824814FF00009D6
:104370004FF0805748B9059838B1502080F3118824
:10438000BFF34F8FBFF36F8FFEE7FFF7BBFDA56B4A
:1043900045B351462046E668FFF782FBBBF1000FAC
:1043A00013D0E660606A50B104F1240000F080FB95
:1043B00028B1C8F80070BFF34F8FBFF36F8FFFF7BE
:1043C000C1FD012007B0BDE8F08F6D1EA563206818
:1043D00010B9FFF735FD606020690028EFD004F1C7
:1043E0001000E3E7059808B11EB106E0FFF7AAFD4B
:1043F00027E06846FFF7A8FE0126FFF7A3FDFFF7B9
:10440000E9FEFFF77FFD94F94400401C01D184F8D8
:10441000449094F94500401C01D184F84590FFF781
:1044200091FD05A9684600F023FA002820460AD02D
:10443000FFF764FC00F076FB2046FFF72DFC002818
:10444000A3D00020BEE7FFF727FCD8B1206830B921
:10445000FFF758FD6068FFF735FEFFF773FD04F1C5
:1044600024000599FFF716FE2046FFF747FC00F0F1
:1044700059FB002889D1C8F80070BFF34F8FBFF3F4
:104480006F8F82E72046FFF739FC00F04BFB7CE79B
:1044900004ED00E070B50D46040025D0FFF732FDB5
:1044A000D4E90F20216802FB001161600021A163A3
:1044B0002168A1600A46D4E90F01401E00FB0121DA
:1044C000E16021464FF0FF3001F8440F487004F1DD
:1044D00010008DB1FFF7E4FC04F12400FFF7E0FCCD
:1044E000FFF730FD012070BD502080F31188BFF32D
:1044F0004F8FBFF36F8FFEE721690029F0D000F0E6
:10450000D7FA0028ECD004494FF080500860BFF380
:104510004F8FBFF36F8FE3E704ED00E02DE9FF4716
:1045200082B01D468A464FF00008040003D0BAF15D
:10453000000F08D011E0502080F31188BFF34F8F97
:10454000BFF36F8FFEE7206C38B1502080F31188E5
:10455000BFF34F8FBFF36F8FFEE7022D0AD1E06BE1
:10456000012807D0502080F31188BFF34F8FBFF38D
:104570006F8FFEE700F0DEF93F4F4FF000094FF07C
:10458000805648B9049838B1502080F31188BFF3A1
:104590004F8FBFF36F8FFEE7FFF7B4FCA06BE16BAB
:1045A000884207D3022D05D00498D0B1B8F1000F8E
:1045B0001AD01EE02A4651462046FFF784FA616A67
:1045C00019B104F1240000F073FA20B13E60BFF38A
:1045D0004F8FBFF36F8FFFF7B5FC012006B0BDE82A
:1045E000F087FFF7AFFC22E06846FFF7ADFD4FF024
:1045F0000108FFF7A7FCFFF7EDFDFFF783FC94F937
:104600004400401C01D184F8449094F94500401CBA
:1046100001D184F84590FFF795FC04A9684600F0A5
:1046200027F930B12046FFF769FB00F07BFA002044
:10463000D4E7FFF767FCA06BE16B884213D1FFF76B
:1046400081FC04F110000499FFF724FD2046FFF7D8
:1046500055FB00F067FA00289ED13E60BFF34F8FF4
:10466000BFF36F8F98E7FFF76DFC2046FFF746FB1F
:1046700000F058FA90E7000004ED00E02DE9F04763
:104680001F4690468946040003D0B9F1000F08D0B8
:1046900011E0502080F31188BFF34F8FBFF36F8F6D
:1046A000FEE7206C38B1502080F31188BFF34F8FA4
:1046B000BFF36F8FFEE7022F0AD1E06B012807D00E
:1046C000502080F31188BFF34F8FBFF36F8FFEE749
:1046D000FFF78AFC5020EFF3118680F31188BFF3B7
:1046E0004F8FBFF36F8FA06BE16B884206D3022F11
:1046F00004D0002086F31188BDE8F08794F9455076
:104700003A4649462046FFF7DEF9681C04D06D1C86
:1047100084F845500120EDE7606A0028FAD004F1E2
:10472000240000F0C5F90028F4D0B8F1000FF1D052
:104730000121C8F80010EDE770B50E46040009D05D
:10474000206C78B1502080F31188BFF34F8FBFF3F6
:104750006F8FFEE7502080F31188BFF34F8FBFF3B8
:104760006F8FFEE7206848B9606838B1502080F349
:104770001188BFF34F8FBFF36F8FFEE7FFF734FC55
:104780005020EFF3118580F31188BFF34F8FBFF3F3
:104790006F8FA16BE06B884218D994F94500491CD2
:1047A000A163411C04D0401C84F8450001200EE0A8
:1047B000606A0028FAD004F1240000F079F900289A
:1047C000F4D0002EF2D001203060EFE7002085F316
:1047D000118870BD2DE9F04790468946040003D04A
:1047E000B9F1000F08D011E0502080F31188BFF319
:1047F0004F8FBFF36F8FFEE7206C38B1502080F3EE
:104800001188BFF34F8FBFF36F8FFEE7FFF7ECFB0D
:104810005020EFF3118680F31188BFF34F8FBFF361
:104820006F8FA76BF7B194F9445049462046FFF7C4
:1048300037F97F1EA763681C04D06D1C84F84450B0
:10484000012010E020690028FAD004F1100000F0E7
:104850002FF90028F4D0B8F1000FF1D00121C8F8E9
:104860000010EDE7002086F31188BDE8F087000016
:1048700070B50D46040019D005B3FFF743FB164A87
:10488000D1682868431C0FD02368126A934202D073
:1048900062688A421AD96268891A814216D2401A1D
:1048A00028602046FFF750FC002410E0502080F3E1
:1048B0001188BFF34F8FBFF36F8FFEE7502080F357
:1048C0001188BFF34F8FBFF36F8FFEE70124FFF70F
:1048D00039FB204670BD0000880000202DE9FF5FF5
:1048E0008346DDE90E87994616468A469000FFF713
:1048F0003BFA05001AD05420FFF736FA040012D014
:1049000025630021CDE90241CDE900874B463246BF
:1049100051465846FFF752F92046FFF731F801207B
:1049200004B0BDE8F09F2846FFF720FB4FF0FF30B2
:10493000F6E700000548416919B1006B18B1002085
:104940007047012070470220704700008800002057
:104950002DE9F0412E4C0027206B40B1A069401C8E
:10496000A061E06900B101273846BDE8F081E66842
:10497000761CE66013D1606B006838B1502080F37C
:104980001188BFF34F8FBFF36F8FFEE7606BA16B92
:104990006163A063206A401C2062FFF78BF9A06A64
:1049A000DFF87080864209D3606B006880B1606B6D
:1049B000C068C568686886420DD2A0622068C06A77
:1049C00000EB800158F821000128CAD90127C8E767
:1049D0004FF0FF30F1E7281DFFF750FAA86A18B131
:1049E00005F11800FFF74AFAE86A012122698140BF
:1049F0001143216100EB800108EB8100291DFFF7C5
:104A000075FAE86A2168C96A8842CDD30127CBE7E5
:104A100088000020D032002070B504004FF0000163
:104A200040D0214D2868844207D0502080F311885F
:104A3000BFF34F8FBFF36F8FFEE7A06C38B1401EFE
:104A4000A064636CE26A9A422CD040B12AE0502004
:104A500080F31188BFF34F8FBFF36F8FFEE7201DE8
:104A6000FFF70CFA114A012150B9E06A00EB80030C
:104A700052F8233023B92B6901FA00F083432B61EC
:104A8000606CE062C0F10700A061E06A2B698140C0
:104A90001943296100EB800002EB8000211DFFF724
:104AA00025FA0121084670BD88000020D032002080
:104AB0002DE9F041C068C468ACB104F118000746A4
:104AC000FFF7DCF9154D286B0126A0B139461448D3
:104AD000FFF70CFAE06A2968C96A88421CD90120EC
:104AE000EE61BDE8F081502080F31188BFF34F8F55
:104AF000BFF36F8FFEE7201DFFF7C0F9E16A2A6957
:104B000006FA01F01043286101EB81000449B43931
:104B100001EB8000211DDBE70020E2E78800002098
:104B2000843300202DE9F0472C4D00242746286BC4
:104B300038B1FFF7E7F9286B401E2863286B40B1B6
:104B400046E0502080F31188BFF34F8FBFF36F8F83
:104B5000FEE7A968224E0120D1B3A6F1B409804630
:104B60003068E8B1F068C46804F11800FFF786F90E
:104B7000201DFFF783F9E06A2A6908FA00F1114362
:104B8000296100EB800109EB8100211DFFF7AEF9DF
:104B9000E06A2968C96A8842E2D3C5F81C80DFE769
:104BA0000CB1FFF787F8AC6944B14646FFF7D0FE79
:104BB00000B1EE61641EF9D10020A861E86938B146
:104BC0000849012738070860BFF34F8FBFF36F8F85
:104BD000FFF7B8F93846BDE8F087000088000020EC
:104BE0008433002004ED00E000000000000000001D
:104BF000002F000000000700070000147F147F143E
:104C000000242A7F2A1200626408132300364955C3
:104C1000225000000503000000001C22410000009B
:104C200041221C000014083E08140008083E080831
:104C3000000000A06000000808080808000060608C
:104C40000000002010080402003E5149453E0000CB
:104C5000427F4000004261514946002141454B31AD
:104C6000001814127F10002745454539003C4A4979
:104C700049300001710905030036494949360006EB
:104C80004949291E00003636000000005636000053
:104C900000081422410000141414141400004122CE
:104CA000140800020151090600324959513E007CA6
:104CB0001211127C007F49494936003E4141412290
:104CC000007F4141221C007F49494941007F090979
:104CD0000901003E4149497A007F0808087F000029
:104CE000417F4100002040413F01007F08142241E4
:104CF000007F40404040007F020C027F007F04089C
:104D0000107F003E4141413E007F09090906003EF7
:104D10004151215E007F0919294600464949493120
:104D20000001017F0101003F4040403F001F204043
:104D3000201F003F4038403F006314081463000701
:104D40000870080700615149454300007F41410058
:104D500000552A552A55000041417F0000040201F8
:104D600002040040404040400000010204000020D6
:104D700054545478007F4844443800384444442014
:104D800000384444487F00385454541800087E09C1
:104D900001020018A4A4A47C007F08040478000089
:104DA000447D4000004080847D00007F1028440046
:104DB0000000417F4000007C04180478007C080457
:104DC000047800384444443800FC24242418001893
:104DD000242418FC007C080404080048545454207F
:104DE00000043F444020003C4040207C001C204008
:104DF000201C003C4030403C004428102844001C4B
:104E0000A0A0A07C004464544C4414141414141442
:104E10000000000000000000000000000000000092
:104E2000000000F800000000000000333000000027
:104E300000100C06100C060000000000000000002E
:104E400040C07840C0784000043F04043F040400A0
:104E5000007088FC08300000001820FF211E0000B0
:104E6000F008F000E018000000211C031E211E00C5
:104E700000F00888700000001E212324192721104B
:104E800010160E00000000000000000000000000EE
:104E9000000000E018040200000000071820400095
:104EA00000020418E0000000004020180700000085
:104EB000404080F0804040000202010F01020200E9
:104EC000000000F0000000000101011F01010100CD
:104ED000000000000000000080B070000000000032
:104EE00000000000000000000001010101010101BB
:104EF0000000000000000000003030000000000052
:104F00000000000080601804006018060100000026
:104F100000E010080810E000000F102020100F0023
:104F2000001010F8000000000020203F20200000AA
:104F30000070080808887000003028242221300002
:104F400000300888884830000018202020110E000A
:104F50000000C02010F8000000070424243F2400B3
:104F600000F80888880808000019212020110E0088
:104F700000E0108888180000000F112020110E009A
:104F800000380808C83808000000003F0000000092
:104F90000070880808887000001C222121221C0053
:104FA00000E010080810E0000000312222110F007C
:104FB000000000C0C0000000000000303000000011
:104FC0000000008000000000000080600000000081
:104FD000000080402010080000010204081020009A
:104FE00040404040404040000404040404040400E5
:104FF000000810204080000000201008040201007A
:10500000007048080808F000000000303601000079
:10501000C030C828E810E0000718272423140B002C
:105020000000C038E0000000203C230202273820A6
:1050300008F8888888700000203F202020110E008A
:10504000C030080808083800071820202010080081
:1050500008F808080810E000203F202020100F006A
:1050600008F88888E8081000203F20202320180036
:1050700008F88888E8081000203F2000030000009E
:10508000C03008080838000007182020221E02003F
:1050900008F808000008F808203F210101213F20FE
:1050A000000808F8080800000020203F2020000029
:1050B00000000808F8080800C08080807F00000019
:1050C00008F888C028180800203F20012638200052
:1050D00008F8080000000000203F202020203000B9
:1050E00008F8F800F8F80800203F003F003F2000D3
:1050F00008F830C00008F808203F200007183F00DB
:10510000E01008080810E0000F10202020100F0009
:1051100008F808080808F000203F210101010000FC
:10512000E01008080810E0000F18242438504F0041
:1051300008F8888888887000203F2000030C302001
:1051400000708808080838000038202121221C003F
:10515000180808F8080818000000203F2000000088
:1051600008F808000008F808001F202020201F0071
:105170000878880000C83808000007380E010000D1
:10518000F80800F80008F800033C0700073C03009B
:10519000081868808068180820302C03032C302001
:1051A0000838C800C83808000000203F2000000070
:1051B00010080808C83808002038262120201800C8
:1051C000000000FE020202000000007F404040009C
:1051D000000C30C000000000000000010638C000D4
:1051E00000020202FE000000004040407F0000007C
:1051F00000000402020204000000000000000000A1
:10520000000000000000000080808080808080809E
:105210000002020400000000000000000000000086
:1052200000008080808000000019242222223F207C
:1052300008F8008080000000003F112020110E00BF
:105240000000008080800000000E1120202011004E
:10525000000000808088F800000E112020103F2000
:105260000000808080800000001F22222222130084
:10527000008080F0888888180020203F20200000CF
:105280000000808080808000006B94949493600084
:1052900008F8008080800000203F210000203F208F
:1052A00000809898000000000020203F202000008F
:1052B000000000809898000000C08080807F00007F
:1052C00008F8000080808000203F24022D3020005C
:1052D000000808F8000000000020203F2020000007
:1052E0008080808080808000203F20003F20003F21
:1052F0008080008080800000203F210000203F202F
:105300000000808080800000001F202020201F00DF
:10531000808000808000000080FFA12020110E000E
:105320000000008080808000000E112020A0FF80FF
:10533000808080008080800020203F2120000100AC
:105340000000808080808000003324242424190001
:10535000008080E0808000000000001F202000000E
:105360008080000000808000001F202020103F204F
:10537000808080000080808000010E3008060100DF
:1053800080800080008080800F300C030C300F0084
:1053900000808000808080000020312E0E312000AF
:1053A000808080000080808080818E7018060100DF
:1053B00000808080808080000021302C22213000FD
:1053C00000000000807C020200000000003F40401E
:1053D00000000000FF00000000000000FF000000CF
:1053E0000002027C800000000040403F00000000FE
:1053F0000006010102020404000000000000000099
:10540000AABBCC0001AABBCC0001000010550008CB
:10541000552E000800000000000000008000000081
:10542000D45400085D2E00080200000000000000B7
:1054300080000000F8540008F12E00080000000071
:105440000000000080000000EC540008C52E000899
:10545000FEFF00000000000080000000E054000893
:105460009D2F0008FEFF00000000000080000000EB
:105470001C550008A52E00080000000000000000D8
:105480008000000004550008B1300008FEFF000055
:105490000000000080000000040000000200000086
:1054A00000000000040000000200000000000000F6
:1054B00004000000020000000000000000000000E6
:1054C00000000000010203040607080900000000B4
:1054D000010203046D795461736B5F414443000022
:1054E0006D795461736B5F4F4C4544006D79546125
:1054F000736B5F4C454400006D795461736B5F4E74
:1055000072660000506172616D5F5461736B0000E0
:1055100064656661756C745461736B006D79546178
:10552000736B5F4B65790000485500080000002050
:10553000C4000000723300080C560008C4000020AC
:10554000FC36000082330008FF00000000FF00006E
:10555000000000000000000000000000000000004B
:10556000000000000000000000000000000000003B
:10557000000000000000000000000000000000002B
:10558000000000000000000000000000000000001B
:10559000000000000000000000000000010000000A
:1055A000100000000000000000A24A0400000000FB
:1055B00000000000000000000000000000000000EB
:1055C0000000000000000000AAAAAAAA0000000033
:1055D00000000000000000000000000000000000CB
:1055E00000000000000000000000000000000000BB
:1055F00000000000000000000000000000000000AB
:0C5600000000000000000000000000009E
:04000005080000ED02
:00000001FF
