:020000040800F2
:10000000283C002099010008ED3C0008CD2E000896
:10001000813C0008510A00084D5000080000000013
:1000200000000000000000000000000001010008C6
:10003000D11000080000000045010008FD4900083B
:10004000B3010008B3010008B3010008B3010008C0
:10005000B3010008B3010008B3010008B3010008B0
:10006000B3010008B3010008B3010008B3010008A0
:10007000B3010008B3010008B3010008B301000890
:10008000B3010008B3010008B3010008B301000880
:10009000B3010008B3010008B3010008B301000870
:1000A000B3010008B3010008B3010008B301000860
:1000B000BD4A0008B3010008C94A0008B30100089E
:1000C000B3010008B3010008B3010008B301000840
:1000D000B301000801500008B3010008B301000893
:1000E000B3010008B3010008B3010008DFF80CD029
:1000F00000F09CFC00480047B5570008283C002051
:10010000224B19680868B0E8F00F80F30988BFF344
:100110006F8F4FF0000080F311884EF00D0E704786
:100120000000000006480068006880F3088862B696
:1001300061B6BFF34F8FBFF36F8F00DF00BF00BF0B
:1001400008ED00E0EFF30980BFF36F8F0F4B1A68E3
:1001500020E9F00F106008B54FF0500080F31188CF
:10016000BFF34F8FBFF36F8F06F074FE4FF00000A8
:1001700080F31188BDE8084019680868B0E8F00FFE
:1001800080F30988BFF36F8F704700BFD400002051
:10019000EFF3058070470000064880470648004797
:1001A000FEE7FEE7FEE7FEE7FEE7FEE7FEE7FEE727
:1001B000FEE7FEE7754A0008ED000008202A04DB90
:1001C000203A21FA02F00021704721FA02F3D040D0
:1001D000C2F12002914008431946704740EA0103EA
:1001E0009B0703D009E008C9121F08C0042AFAD2ED
:1001F00003E011F8013B00F8013B521EF9D27047B1
:10020000D2B201E000F8012B491EFBD27047002258
:10021000F6E710B513460A4604461946FFF7F0FF05
:10022000204610BDF0B480EA0102D40F4200B2EBC8
:10023000410F02D20246084611464A0042D0C30D81
:10024000DDB2C1F3C752AD1A202D35DAC1F3160164
:1002500041F4000204B15242C5F1200602FA06F14F
:100260002A411044B3EBD05F23D0C4B1012DA0EBE1
:10027000C35009DCF0BC4FF0004202EAC352DBB2CB
:1002800000F5000000F0F6BA400000F1807000EBCD
:10029000C350A0F1807040EAD170490009E04908DC
:1002A00041EAC071A0EBC35000F50000400800EB2C
:1002B000C350F0BC00F0D5BA6142012202EB41010B
:1002C000001BF6E7F0BC704781F00041AAE780F020
:1002D0000040A7E780EA010210B502F000434000A9
:1002E00022D04A001FD0010E01EB1261C0F356006C
:1002F000C2F3560240F4000042F40002A0FB0220C8
:1003000000047F39140400D0401C50EA124001D48C
:100310004000491EC2B20C0604EBD010401C40083D
:10032000802A02D003E0002010BD20F00100002947
:1003300000DA0020184310BD30B480EA010202F058
:10034000004530F0004221F0004013D090B1C30DC1
:10035000D40DC2F31601C0F31600E41A41F40001F3
:1003600040F400027D34914201D3641C00E0490056
:10037000002C02DA30BC002070474FF4000000234C
:10038000914201D3891A034340084FEA4101F7D152
:1003900051B1914202D14FF0004105E002D24FF03D
:1003A000010101E06FF0010103EBC450284430BCAF
:1003B00000F057BA420005D0C0F3C75252429142F2
:1003C00001DC0020704700EBC15070472DE9FE4F63
:1003D000804681EA0300C00F0C46009021F00041E6
:1003E00023F00045B8EB0200A94105D24046214662
:1003F00090461C460B46024623F00040104347D06F
:10040000270DC7F30A00C3F30A510290401A019066
:1004100040286BDAC3F3130040F4801B0098924627
:1004200020B10023D2EB030A63EB0B0B0198594672
:10043000C0F14002504600F0F3F906460D46504622
:100440005946019A00F0FBF910EB080061410024C5
:1004500087EA115284EAE7731A4340D0009A62B3E4
:10046000019A012A4FEA075215DC001B61EB0201D9
:100470004FF0004202EA0752CDE90042001C41F56C
:10048000801132462B4600F032FA03B0BDE8F08FFF
:1004900040462146F9E7001B61EB0201001C41F5D3
:1004A000801300185B412018A2F5001747EB0301E9
:1004B00040EAD570B6196D4111E06D084FEA360675
:1004C00045EAC0754FEA0752001B61EB0201001CB0
:1004D00041F5801149084FEA300000195141324678
:1004E0002B4603B0BDE8F04F00F0F2B900980122AE
:1004F00040000023D0EB020263EBE073009821463A
:100500004FEAE074B8EB000061EB0401E9E783F027
:1005100000435BE781F0004158E72DE9FE4F81EA97
:10052000030404F0004421F0004100944FF0000B5C
:1005300023F0004350EA01045ED052EA03045BD08A
:10054000C3F30A54C1F30A552C44A4F2F3340194C2
:10055000A0FB0254C1F3130141F48011C3F3130350
:1005600043F4801301FB024400FB034E840A970A04
:1005700044EA815447EA8357A4FB076802958D0A31
:1005800005FB07854FEA932C04FB0C542705029DBD
:100590004FEA065847EA1637B5EB08056EEB070C2D
:1005A000870E920E47EA811742EA8312A7FB0201E7
:1005B000B6EB0B0164EB00042B0D43EA0C335E1821
:1005C00044EB1C50DA465146E7FB0201C5F3130425
:1005D0004FEA0B3343EA14534FEA0432019C43EAD7
:1005E0000603A4F10C040294009CCDE900B400F0D1
:1005F0007EF903B0BDE8F08F00200146F9E72DE950
:10060000F04D81EA030404F0004B21F0004514464C
:100610004FF0000A23F0004150EA050220D054EACE
:1006200001021DD0C5F30A570246C5F31303C1F3F7
:100630001300C1F30A5640F4801543F48013A7EB6E
:100640000608101BD64608F2FD3873EB050002D3EE
:1006500008F1010801E092185B41B8F1000F03DADC
:1006600000200146BDE8F08D00204FF480110646C1
:1006700084460EE0171B73EB050705D3121B63EBD3
:10068000050306434CEA010C49084FEA3000921872
:100690005B4150EA0107EDD152EA030012D082EA31
:1006A000040083EA0501084305D0101BAB4106D2C4
:1006B0000122002306E000224FF0004302E06FF029
:1006C000010253101AEB06004CEB085110EB0A0024
:1006D00041EB0B01BDE8F04D00F0FAB870B521F028
:1006E000004303430CD0C1F30A550024D5EB0405A5
:1006F00064EB0403D617AD1AB34102DB00200146B8
:1007000070BD201841EB025170BDC10F80EAE0704E
:100710000844CA079623002100F0ACB896230022B3
:10072000114600F0A7B80EB540F233410291002106
:10073000CDE900110A460B4600F0D9F803B000BD20
:1007400000F0004220F00040C10DC0F3160040F45C
:1007500000007F2901DA00207047962903DCC1F1EF
:100760009601C84001E096398840002AF4D0404202
:10077000704720F00040C10DC0F3160040F40000A7
:100780007F2901DA00207047962903DCC1F1960128
:10079000C840704796398840704700F0004230F0FA
:1007A00000400AD0C10D01F56071C0F3160042EAA5
:1007B0000151C208400711437047002001467047AD
:1007C00001F0004330B421F0004150EA010206D0AC
:1007D0000A0DA2F56072C1F31301002A02DC30BCDD
:1007E00000207047440F44EAC104C100E01830BC47
:1007F00000EBC25000F035B8002801DBC0F100402A
:10080000002901DBC1F1004181427047002801DB72
:10081000C0F10040002901DBC1F10041884270476E
:10082000202A04DB203A00FA02F1002070479140B0
:10083000C2F1200320FA03F3194390407047202AA5
:1008400006DBCB17203A41FA02F043EAE07306E0F8
:1008500041FA02F3D040C2F1200291400843194608
:1008600070470029A8BF7047401C490008BF20F00E
:100870000100704710B4B0FA80FC00FA0CF050EAA6
:10088000010404BF10BC704749B1CCF1200421FA27
:1008900004F411FA0CF118BF012121430843A3EB22
:1008A0000C01CB1D4FEA00614FEA102042BF00202F
:1008B00010BC704700EBC35010440029A4BF10BC0B
:1008C0007047401C490008BF20F0010010BC704771
:1008D00010B5141E73F1000408DA401C41F1000148
:1008E00092185B411A4301D120F0010010BD2DE99F
:1008F000F04D92469B4611B1B1FA81F202E0B0FA96
:1009000080F220329046FFF78BFF04460F4640EA04
:100910000A0041EA0B0153465A46084313D01146D8
:1009200053EA010019D0C8F140025046FFF746FCD7
:1009300005460E46504659464246FFF771FF0843AA
:1009400005D0012004E020463946BDE8F08D0020A6
:10095000054346EAE0762C4337430A986305E40AE8
:10096000A0EB08000022FD0A44EA47540A3002D5F1
:1009700000200146E9E7010510196941DDE9084554
:1009800000196941BDE8F04DA2E72DE9F04D0023C3
:100990001A461B1A8A4103DB00200146BDE8F08D90
:1009A000C1F30A52C1F3130141F480154FF0000B5B
:1009B000D10702D100186D41521E0027044640F2B3
:1009C000FF11384601EB620A3E468046024600208F
:1009D0004FF48011FFF7F2FBC2197141BB1846EBCF
:1009E0000100B4EB030C75EB000C04D3E41A65EBC7
:1009F000000517460E46241908F101006D41804696
:100A00003428E3DDF91946EB0600091BA84103D29F
:100A10004FF0FF32134601E0002213461BEB0700A4
:100A200046EB0A51BDE8F04DFFF752BF064C074DAB
:100A300006E0E06840F0010394E8070098471034AE
:100A4000AC42F6D3FFF756FB6C7B00088C7B0008AA
:100A5000FEE700002DE9F74FB34D0E4682B0B5F921
:100A60000200B5F90810AE4FDFF8B892AF4C401A4B
:100A7000FFF74BFEBA463946FFF75EFC3146FFF7FB
:100A800026FC064631462069FFF7CCFB20616169F0
:100A9000FFF7BCFE606908D380F000402169FFF7D2
:100AA000B5FE03D2606980F000402061C846304640
:100AB000D9F80410FFF708FCE168FFF70BFC0746C4
:100AC0002169A068FFF706FC834631466068FFF79E
:100AD00001FC5946FFF7A6FB3946FFF7A3FB60620E
:100AE000C8F80460B5F90000B5F90A10401AFFF71C
:100AF0000CFE5146FFF720FC0299FFF7E8FB804609
:100B0000E16FFFF78FFBE067D4F88010FFF77EFE00
:100B1000D4F8800009D380F00040E16FFFF776FE43
:100B200004D2D4F8800080F00040E0674E46404692
:100B3000D9F80010FFF7C8FBA16FFFF7CBFB074602
:100B4000E16F606FFFF7C6FB81464046216FFFF7FC
:100B5000C1FB4946FFF766FB3946FFF763FB814659
:100B6000C4F890007248C6F80080B0F94200C82866
:100B700002DA10F1C80F1ADCFFF7C7FDD4F8E41051
:100B8000DC34FFF7A7FB0746B5F90600B5F90C10F2
:100B9000401AFFF7BAFD2168FFF79CFB5146FFF7AB
:100BA000CBFB3946FFF73EFB2062DC3C0FE0B5F99A
:100BB0000600B5F90C10401AFFF7A7FDD4F8DC10B9
:100BC000FFF788FB5146FFF7B7FBC4F8FC0000278E
:100BD0002770B5F90400534D0C35B0F57A7F78DDF8
:100BE00054490978012903D011B1022931D06CE0B0
:100BF000A0F57A70B060FFF788FDD4F8FC608046FD
:100C00003146FFF70FFB82464946FFF75DFB646AFA
:100C10002146FFF759FBFFF7ACFD288040463146DF
:100C2000FFF752FB06464946FFF7FCFA2146FFF75D
:100C30004BFBFFF79EFD688050464946FFF7F2FAEE
:100C40002146FFF7EFFAFFF794FDA88030464946AA
:100C500033E0B068FFF759FDD4F86811FFF7E2FA06
:100C6000D4F8208181464146FFF7DCFAD4F8B4601D
:100C700082463146FFF728FBA46C2146FFF724FB90
:100C8000FFF777FD288048464146FFF71DFB804669
:100C90003146FFF7C7FA2146FFF716FBFFF769FD5C
:100CA000688050463146FFF7BDFA2146FFF7BAFA91
:100CB000FFF75FFDA88040463146FFF705FB214660
:100CC000FFF7B0FAFFF755FDE880288850B10AE039
:100CD000FFE7EF80AF806F802F802761E767676352
:100CE000C4F8A0702F80688800B96F80A88800B908
:100CF000AF80E88800B9EF800F48007828B1E88815
:100D00000090AB886A88298803E000231A461946B8
:100D100000970A4802F0B5FF05B0BDE8F08F00006B
:100D20000000A0415400002006070020440B0020D2
:100D3000580100204900002048000020F00D00204C
:100D40002DE9F0410026044630464A1E04E0235CAB
:100D5000401C3344DEB2C0B29042F8DB601810F899
:100D6000010CB0427DD12078AA287AD16078AF28D2
:100D700077D1A07801280BD122798949012A0BD09B
:100D8000022A0ED0032A0FD0042A6AD181F8A600C5
:100D9000A07802280BD019E081F8360000F024FA80
:100DA000F6E781F86E00F3E781F83600F9E720797D
:100DB000012856D105F042FCA078314603F04EFDE3
:100DC00005F0F6FCA078314603F048FDA078754F99
:100DD000DFF8D481754D10286ED1314603F03EFD09
:100DE000A08840BAFFF79FFC3A464346FFF795FBC1
:100DF000FFF7E6FC45F8940FE08840BAFFF793FC54
:100E00003A464346FFF789FBFFF7DAFC6860208922
:100E100040BAFFF788FC3A464346FFF77EFBFFF7F0
:100E2000CFFCA860608940BAFFF77DFC3A46434694
:100E3000FFF773FBFFF7C4FC45F86C0CA08940BAC0
:100E4000FFF771FC3A464346FFF767FBFFF7B8FC34
:100E500045F8680CE08940BAFFF765FC3A4643461E
:100E600000E09AE0FFF759FBFFF7AAFC45F8640C95
:100E7000208A40BAFFF757FC3A464346FFF74DFB3E
:100E8000FFF79EFCE866608A40BAFFF74CFC3A46E2
:100E90004346FFF742FBFFF793FC2867A08A40BA5E
:100EA000FFF741FC3A464346FFF737FBFFF788FC64
:100EB0006867943D03F0BCFBA07811286DD13146E2
:100EC00003F0CCFCA08840BAFFF72DFC3A4646461A
:100ED0004346FFF722FBFFF773FC2867E08840BA20
:100EE000FFF721FC3A463346FFF717FBFFF768FC94
:100EF0006867208940BAFFF716FC3A463346FFF789
:100F00000CFBFFF75DFCA867608940BAFFF70BFC9C
:100F10003A463346FFF701FBFFF752FC6860A089B1
:100F200040BAFFF700FC3A463346FFF7F6FAFFF700
:100F300047FCA860E08940BAFFF7F5FB3A46334624
:100F4000FFF7EBFAFFF73CFCE860208A40BAFFF7B6
:100F5000EAFB3A463346FFF7E0FAFFF731FCC5F803
:100F6000DC00608A40BAFFF7DEFB3A463346FFF703
:100F7000D4FAFFF725FCC5F8E000A08A40BAFFF7D5
:100F8000D2FB3A463346FFF7C8FAFFF719FCC5F81B
:100F9000E400BDE8F04103F0D7BBBDE8F0810000FC
:100FA00058010020FCA9F1D24D62503F440B0020B3
:100FB000234930B44A78234B002472B1012A13D05C
:100FC000022A17D0032A1BD00B461E4D9B78042AF9
:100FD0001D441DD0052A29D02FE0AA282DD1012299
:100FE0004A70187030BC7047AF2826D102224A7070
:100FF0005870F7E7F12820D203224A709870F1E781
:1010000032281AD204224A70D87008708C70E9E72E
:101010000A7892B1521E12F0FF020A70287103F191
:1010200001038B70DED105204870DBE74C7028711E
:101030000548006830BC04F0E7BC4C70D2E7000003
:1010400044000020D406002090000020F0B51F4985
:101050001D484FF4E16CB1F900500678B1F9024037
:10106000B1F90430B1F9062000214FF4966E7EB933
:1010700065450DDB64450BDB734509DC624507DB29
:10108000C7887F1CBFB2C780052F02D9C6B101E057
:10109000C1809EB1724511DC64450FDB40F21452F1
:1010A00093420BDC754509DC0289521C92B2028125
:1010B000052A04D316F0FF0F01D001700181F0BDA5
:1010C00001260670C180E5E74800002006070020E1
:1010D0007047000006490020C8610648016941F0D8
:1010E00004010161016941F04001016170470000A4
:1010F000B00E002000200240064A0021D1610649BE
:101100000A6942F002020A614861086940F0400041
:1011100008617047B00E002000200240044B0022FE
:10112000DA61044A136943F00103136101807047D7
:10113000B00E00200020024014480022C168CB06F7
:10114000134904D5CA6942F00202CA611022C36879
:101150005B0705D5CB6943F00103CB6142F0040284
:10116000C369DB0707D0CB6943F00403CB61C169D6
:1011700021F00101C161A2F58071013901D0C26085
:101180007047C16921F00101C16170470020024030
:10119000B00E002070B5054600F07CFA0646114CF2
:1011A00009E0681C07D025B100F074FA801BA84242
:1011B00001D9032070BDE068C007F2D1E068800665
:1011C00001D52020E060E068C00605D4E069C007D2
:1011D00002D1E068400703D5FFF7AEFF012070BDE4
:1011E000002070BD0020024070B5264CC8250020AC
:1011F0006062A062E062E0652066606620E000BF99
:1012000002F086FFB4F93810E06D0844E065B4F9E7
:101210003A10206E08442066B4F93C10606E084411
:101220006066B4F90010606A08446062B4F90210A4
:10123000A06A0844A062B4F90410E06A0844E062BD
:101240006D1EADB2DCD2E16DC82091FBF0F1A4F8C7
:101250004A10216E91FBF0F1A4F84C10616E91FBE5
:10126000F0F1A4F84E10616A91FBF0F16182A16A7D
:1012700091FBF0F124F8141FA16991FBF0F060805C
:1012800070BD0000580100201CB50548D0E90712C8
:10129000CDE900128369503007C801F0EBFF1CBD97
:1012A0005801002010B590F821100024022903D025
:1012B0000421816301243DE001680A6822F00E02E6
:1012C0000A6001680A6822F001020A601A4A01688D
:1012D000914201D1012121E0174A1432914201D1FA
:1012E00010211BE0144A2832914201D1891515E0E2
:1012F000114A3C32914201D189140FE00E4A50321A
:10130000914202D14FF4803108E00B4A643291429D
:1013100002D14FF4801101E04FF08071064A083A83
:101320005160012180F82110002180F82010416BCC
:1013300001B18847204610BD0800024070B5044640
:1013400000F0A8F90546601C02D004480078044467
:1013500000F0A0F9401BA042FAD370BDA00000200D
:101360002DE9F047054626480F460126017E012952
:101370000FD00121814601762868DFF888804CF281
:101380005034022808D0A2462046FFF703FFA8B138
:1013900031E00220BDE8F0872046FFF7FBFE08BBE6
:1013A0000120FFF797FE2046FFF7F4FED8F8101053
:1013B000064621F00401C8F810101CE04FF0FF3081
:1013C0003860AC6811E02046FFF796FE5046FFF704
:1013D000E1FED8F81010060021F00201C8F8101044
:1013E00001D03C6007E004F58064D5E9020100EB20
:1013F0008120A042E7D8002189F818103046C9E7BB
:10140000B00E0020002002400348016941F0800135
:101410000161002070470000002002402DE9F05FCC
:1014200007461C4888460024017E15461E460129B1
:1014300009D00121814601764CF2503A5046FFF71F
:10144000A9FE18B122E00220BDE8F09F012F02D0D2
:10145000022F00D00427D346DFF83CA02201284603
:101460003146FEF7ABFE81B208EB4400FFF756FEB3
:101470005846FFF78FFEDAF8102022F00102CAF872
:10148000102018B9641CE4B2BC42E7D3002289F8EA
:101490001820D9E7B00E00200020024006490020A5
:1014A0000A69120607D5054A4A60054A4A60096971
:1014B000090600D50120704700200240230167453E
:1014C000AB89EFCD2DE9F84FDFF890A100220AF1AA
:1014D000040B144601274FF00F090BF1040E00BF57
:1014E0000B6807FA04F52B40AB4274D1DFF870C1EA
:1014F0004E68A6EB0C0866452BD00DDC032E34D0CD
:1015000005DC36B3012E19D0022E2FD11BE0112E8F
:1015100016D0122E2AD119E0B8F5881F19D006DC92
:10152000B8F5803F15D0B8F5801F1FD111E0B8F590
:10153000001F0ED0B8F5041F18D10AE0CA6815E0E4
:10154000CA68121D12E0CA6808320FE0CA680C327D
:101550000CE08A682AB1012A4FF0080203D04561E5
:1015600004E0042202E0056100E00022FF2B01D824
:10157000064601E000F104064FEA840501D9A5F111
:101580002005D6F800C009FA05F82CEA080C02FA82
:1015900005F54CEA050CC6F800C04D68ED0057D5BE
:1015A000304DAE6946F00106AE61AD6924F0030628
:1015B00005F0010500952C4D06EB050CDCF80850F4
:1015C000A6074FEA167809FA08F6B543274EB04247
:1015D00002D1002610E03BE0254EB04201D10126A9
:1015E0000AE0244EB04201D1022605E0224EB0426C
:1015F00001D1032600E0042606FA08F62E43CCF8B3
:1016000008604D68DAF80060ED03554601D51E43C9
:1016100000E09E432E604D68DBF80060AD035D4640
:1016200001D51E4300E09E432E604D68DEF8006049
:10163000ED02754601D51E4300E09E432E604D68C5
:10164000AD020E4D2E6801D51E4300E09E432E6074
:10165000641C102CFFF444AFBDE8F88F0004014077
:10166000000011100010024000000140000801407D
:10167000000C014000100140001401400C04014026
:10168000C2684A40C26070470AB1016170470904EC
:10169000FBE700000148806870470000A0000020C0
:1016A00070B504001BD094F83D00002520B984F8E3
:1016B0003C50204600F042FA242084F83D00206887
:1016C000016821F00101016000F0D8FB404A616827
:1016D000914201D83F4900E03F49884201D20120B0
:1016E00070BD3E492368B0FBF1F1596063689342D5
:1016F00006D94FF4967359434FF47A73B1FBF3F163
:101700002368491C19626168914210D84900401E43
:10171000B0FBF1F2521CC2F30B02042A01D20420E6
:1017200022E0B0FBF1F0401CC0F30B001CE0A3680A
:10173000CBB301EBC10202EB0116421EB2FBF6F283
:10174000521C42F48042120536D06BB301EBC10249
:1017500002EB0111401EB0FBF1F0401CC0F30B0086
:1017600040F4804040F400402168C861D4E907019A
:10177000084321680860D4E90310084321688860A1
:10178000D4E9050108432168C8602068016841F078
:10179000010101602564202084F83D00256384F860
:1017A0003E50002070BD00E008E001EB4106421E03
:1017B000B2FBF6F2521CC6E70120D5E701EB41016E
:1017C000401EB0FBF1F0401CC0F30B00CAE7000064
:1017D000A086010080841E0000093D0040420F00E9
:1017E0002DE9FF4F83B09A46DDE911879346044601
:1017F000DDF84090FFF74EFF054694F83D002028A5
:1018000072D1192301227B492046009501F063FC27
:101810000028F5D194F83C00012865D0012084F817
:101820003C0020680168C90703D1016841F001014B
:1018300001602068016821F400610160222084F8C1
:101840003D00402084F83E0000262664C4F8249021
:10185000A4F82A806848E062608D2085CDE9007593
:1018600053465A462046049901F045FB28B1206CA6
:1018700084F83C60042851D075E0208DDFF87C812D
:1018800068B1012814D00228206801681ED041F4F4
:101890008061016020684169806900909BE0206858
:1018A000416981690091016841F40071016092E031
:1018B0002068016821F48061016072B62068416986
:1018C00081690091016841F400710AE041F400610E
:1018D000016072B62068416981690091016821F454
:1018E0008061016062B676E081E0032850D801286B
:1018F0000BD002283B464FF000024146204600959F
:1019000012D001F0E8FB70BB13E02A4639462046AE
:1019100001F056FC30B1206C202824D0012007B003
:10192000BDE8F08F20684BE001F0D5FBD8B972B666
:101930001BE02068016821F48061016072B62068B4
:101940000169606A421C62620170208D401E208520
:10195000608D401E60853B46002241462046009532
:1019600001F0B9FB08B10320D9E72068016841F410
:101970000071016020680169606A421C6262017046
:10198000208D401E2085608D401E608562B6C9E7AF
:101990002A463946204601F013FC0028BBD12068B6
:1019A0000169606A421C62620170208D401E2085C0
:1019B000608D401E608520684169C94349070AD48B
:1019C0000169606A421C62620170208D401E2085A0
:1019D000608D401E6085208D002886D1202084F8EF
:1019E0003D0084F83E6084F83C60002097E70220C8
:1019F00095E70000020010000000FFFF0400010056
:101A00002DE9FF4F83B09A46DDE9118793460446DE
:101A1000DDF84090FFF73EFE064694F83D00202892
:101A20007DD11923012243492046009601F053FB42
:101A300000287CD194F83C00012878D0012084F85B
:101A40003C0020680168C90703D1016841F0010129
:101A500001602068016821F400610160212084F8A0
:101A60003D00402084F83E0000252564C4F8249001
:101A7000A4F82A803048E062608D2085CDE90076A8
:101A800053465A462046049901F0AEFA80B3206CC2
:101A900084F83C50042848D008E0324639462046B5
:101AA00001F0BFFB30B1206C042839D0032007B00F
:101AB000BDE8F08F606A411C6162216800780861AE
:101AC000208D401E80B22085618D491E6185216870
:101AD0004A69D24352070BD468B1606A421C626201
:101AE00000780861208D401E2085608D401E608535
:101AF000208D0028D1D132463946204601F0C4FA63
:101B00000028D0D154F83D0B016841F40071016008
:101B1000202004F81E09E57765770020C7E706E076
:101B20002068016841F4007101600120BFE70220D4
:101B3000BDE70000020010000000FFFF70B5006864
:101B4000134986B0884220D1C0200225CDE9000586
:101B50000320104E039069463046FFF7B3FC0E4C4D
:101B6000E06940F40010E061E069694600F40010AB
:101B7000049001953046FFF7A5FCE06940F40010A1
:101B8000E061E06900F40010049006B070BD000050
:101B900000540040000C01400010024002488168DF
:101BA0000278114481607047A0000020074810B5FA
:101BB000016841F010010160032000F09DF80F2042
:101BC00000F006F800F024F8002010BD00200240CC
:101BD00070B50D4D04464FF47A712878B1FBF0F0E2
:101BE0000A490968B1FBF0F000F086FC48B9102CF6
:101BF00007D200222146501E00F05EF800206C60E3
:101C000070BD012070BD0000A0000020AC000020CD
:101C1000214808B5816941F001018161816901F0C4
:101C200001010091C16941F08051C161C06900F0BA
:101C300080500090032000F05FF8002211466FF002
:101C40000B0000F039F8002211466FF00A0000F096
:101C500033F8002211466FF0090000F02DF8002241
:101C60001146501F00F028F800221146101F00F006
:101C700023F800220F21901E00F01EF800220F21F1
:101C8000501E00F019F80548416821F0E06141F06C
:101C90000071416008BD00000010024000000140DA
:101CA00000F01F02012191404009800000F1E02076
:101CB000C0F8001170470000F0B40E4B1B680C46D2
:101CC000C3F30223C3F10705042D00D90425191D10
:101CD000072901D2002300E0DB1E012606FA05F1E8
:101CE000491E214099409E40761E16403143F0BC6B
:101CF00002F0DEB80CED00E0064900F007020868CB
:101D00004FF6FF03184040EA0220034A10430860E0
:101D1000704700000CED00E00000FA052DE9F047E7
:101D2000DFF83C8105460E46D8F8000000F00700B9
:101D3000B0420CD2D8F8001021F007013143C8F8A6
:101D40000010D8F8000000F00700B04263D12878F6
:101D5000444C800705D56068A96820F0F00008436E
:101D600060602878C00745D06868012816D02168CF
:101D7000022816D0890700294DDA616821F0030195
:101D800001436160FFF786FC6968074641F28830CD
:101D900001290FD00229814619D027E02168890343
:101DA000E9E78901E7E700BFFFF774FCC11B49457C
:101DB00001D918E081466068C0F381000128F3D1A1
:101DC00018E000BFFFF766FCC11B49450BD86068EF
:101DD000C0F381000228F5D10CE000BFFFF75AFCE8
:101DE000C11B494502D90320BDE8F087606810F0A7
:101DF0000C0FF3D1D8F80010404601F00701B142B2
:101E00000BD9016821F0070131430160006800F03F
:101E10000700B04201D00120E6E72878400705D549
:101E20006068E96820F4E060084360602878000793
:101E300006D56068296920F4605040EAC1006060FE
:101E400000F03CF86168084AC1F30311515CC840D6
:101E5000064908600F20FFF7BBFE0020C4E7000022
:101E60000020024000100240107A0008AC00002060
:101E70000148006870470000AC0000200448054994
:101E800000684968044AC1F30221515CC8407047A8
:101E9000AC00002000100240207A000804480549E8
:101EA00000684968044AC1F3C221515CC8407047C8
:101EB000AC00002000100240207A000812A185B07A
:101EC0000FC98DE80F0014A0144A006804905168EF
:101ED000134801F00C03042B10D0082B0ED1C1F3D2
:101EE0008343C9031DF803000AD5516804AAC1F34E
:101EF0004041515C0A4A5043B0FBF1F005B07047D5
:101F000008494843FAE700000203040506070809E8
:101F10000A0B0C0D0E0F1010010200000010024001
:101F200000127A0000093D002DE9F84F04460078C0
:101F3000B94DC00748D06868C0F38100012807D0B8
:101F40006868C0F38100022809D16868C00306D51B
:101F50002868800338D5606800286FD034E0606856
:101F6000B0F5803F0BD010B1B0F5A02F11D028688C
:101F700020F480302860286820F4802002E028685F
:101F800040F480302860606888B1FFF783FB064624
:101F900009E0286840F480202860F0E7FFF77AFB2A
:101FA000801B642875D828688003F7D50CE0FFF7FC
:101FB00071FB064605E000BFFFF76CFB801B642841
:101FC000F0D828688003F7D42078944E80074FF02B
:101FD00001094FF000083BD5686810F00C0F07D0DE
:101FE0006868C0F38100022809D16868C00306D47C
:101FF0002868800714D5206901281FD110E02069C6
:10200000B0B1C6F80090FFF745FB074605E000BFFA
:10201000FFF740FBC01B0228C4D828688007F7D50B
:102020002868616920F0F80040EAC10028600FE0EC
:10203000C6F80080FFF72EFB074606E0E9E000BF88
:10204000FFF728FBC01B022823D828688007F7D495
:10205000207800072CD57248A169D9B1C0F800904A
:10206000FFF718FB074604E0FFF714FBC01B02282C
:102070000FD8686A8007F7D56A484FF4FA510068AC
:10208000B0FBF1F0009000BF0098411E0091FAD221
:102090000EE080E0C0F80080FFF7FCFA074604E09D
:1020A000FFF7F8FAC01B022875D8686A8007F7D4D2
:1020B0002078400760D5E8690027C00008D4E869A7
:1020C00040F08050E861E869012700F080500090FE
:1020D00055480168C90513D40168834641F48071ED
:1020E0000160FFF7D7FA824606E000BFFFF7D2FA99
:1020F000A0EB0A0064284ED8DBF80000C005F5D537
:10210000E06801280AD008B1052813D0286A20F019
:1021100001002862286A20F0040002E0286A40F0EA
:1021200001002862E06841F2883B98B1FFF7B2FAFB
:1021300082460BE0286A40F004002862EEE700BF08
:10214000FFF7A8FAA0EB0A0159455AD8286A800778
:10215000F6D50CE0FFF79EFA824605E0FFF79AFA03
:10216000A0EB0A0159454CD8286A8007F6D41FB164
:10217000E86920F08050E861E06988B36968C1F3DC
:102180008101022945D00228C6F8608004D0FFF7FB
:1021900081FA044638E034E0FFF77CFA074604E0B1
:1021A000FFF778FAC01B02282BD828688001F7D4E3
:1021B000206AB0F5803F05D16868A16820F400303E
:1021C00008436860D4E908010843696821F4741180
:1021D00008436860C6F86090FFF75CFA044606E0C2
:1021E00015E000BFFFF756FA001B022809D828683F
:1021F0008001F7D50BE000BFFFF74CFA001B022867
:1022000002D90320BDE8F88F28688001F4D40020AB
:10221000F8E70120F6E7000000100240000042420B
:1022200080044242AC0000200070004070B5040001
:1022300005D00025A56294F8510010B104E00120FA
:1022400070BD204600F034F8022084F85100206868
:10225000016821F040010160D4E901010843D4E99B
:1022600003121143084361690843218B01F4007193
:102270000843E1690843216A0843A16A08432168C9
:102280000860A069042101EA1040616A08432168DE
:1022900048602168E06A08612068C16921F4006132
:1022A000C1616565012084F85100002070BD000007
:1022B00010B50068114986B088421CD11048816968
:1022C00041F48051816180690E4C00F4805004908B
:1022D000A020009002200190032003906946204630
:1022E000FFF7F0F800214020CDE900010291694696
:1022F0002046FFF7E7F806B010BD000000300140AF
:1023000000100240000801402DE9F84F044690F803
:10231000500000260A9F9A4693460D464FF001084A
:1023200001280ED0012084F85000FFF7B3F9814650
:1023300094F85100616801280CD0B1F5827F07D173
:1023400002E00220BDE8F88FA16809B9042801D095
:102350000226BDE055B1BBF1000F07D0BAF1000F66
:1023600004D094F85100012802D004E00126AFE027
:10237000052084F8510000206065C4F838B0A4F846
:102380003EA0A4F83CA02563A4F836A0A4F834A08D
:102390002064606420680168490603D4016841F044
:1023A00040010160E068B0F5006F606804D0E8B3F8
:1023B000E08E01283BD06AE010B1E08E01282ED1DA
:1023C000216835F8020BC860E08E401EE08626E0EA
:1023D000B8F1000F0DD0E08E58B1206881688907F0
:1023E00007D535F8021BC160E08E401EE0864FF035
:1023F0000008E08F58B120688168C90707D0C0681D
:102400002BF8020BE08F401EE0874FF00108781C8C
:1024100005D0FFF73FF9A0EB0900B84246D2E08EA5
:102420000028D5D1E08F0028D2D136E0FFE721681F
:1024300015F8010B0873E08E401EE08627E000BF10
:10244000B8F1000F0DD0E08E58B12068816889077F
:1024500007D515F8011B0173E08E401EE0864FF092
:102460000008E08F58B120688168C90707D0C068AC
:102470000BF8010BE08F401EE0874FF00108781C3D
:1024800005D0FFF707F9A0EB0900B8420ED2E08EA5
:102490000028D5D1E08F0028D2D13B46012202216D
:1024A0002046CDF8009001F0E9FF08B103260FE0C7
:1024B0004A463946204601F0D1FF18B101262020B6
:1024C000606505E0A06818B92068C1688068009060
:1024D000012084F85100002084F85000304631E794
:1024E0004FF0E0210428086903D020F004000861BF
:1024F000704740F00400FAE710B5401EB0F1807F4D
:1025000001D3012010BD4FF0E02460610F2160175E
:1025100001F0CEFC0020A06107202061002010BD4A
:102520007047704730B590F83C20012A20D0012236
:1025300080F83C20022380F83D3003685C6824F07A
:1025400070045C6003685C680D682C435C60036821
:102550009C6824F080049C6003689C6849680C4374
:102560009C6080F83D20002180F83C10084630BD7A
:10257000022030BD10B5040003D094F83D0010B126
:1025800007E0012010BD002084F83C00204600F048
:102590000DF8022084F83D00211D206802F09AFA0F
:1025A000012084F83D00002010BD000008B501683E
:1025B0001448B1F1804F14D0134A914220D1C1691F
:1025C00041F00401C161C069002200F004000090E4
:1025D00007211E20FFF770FB1E20BDE80840FFF713
:1025E0005FBBC16941F00101C161C069002200F017
:1025F0000100009008211C20FFF75EFB1C20ECE787
:1026000008BD0000001002400008004070B50446FC
:1026100090F83C00012817D0012584F83C50022096
:1026200084F83D002068826822F0770222F47F421D
:1026300082600868502837D00DDC202859D005DC8E
:1026400088B3102841D151E0022070BD302853D00A
:1026500040283AD13FE060282ED070280BD0B0F54A
:10266000805F03D0B0F5005F2FD110E02068816853
:1026700021F0070115E0CB68D1E90121206802F0C3
:102680006AFA2168886840F0770088601DE0CB68AE
:10269000D1E90121206802F05EFA2068816841F4E6
:1026A0008041816011E01EE0CA684968206802F03C
:1026B00007FB5021206806E0CA684968206802F0DC
:1026C00010FB6021206802F050FA84F83D50002091
:1026D00084F83C0070BDCA684968206802F0F0FACE
:1026E00040212068EFE700212068ECE710212068F6
:1026F000E9E720212068E6E730212068E3E770471A
:1027000070B50446006801694FF00005C9438907A8
:1027100015D4C168C943890711D4E91E016101209C
:102720002077206880698007204602D0FFF7E7FF06
:1027300004E000F0B7F8204600F04CF92577206857
:102740000169C943490717D4C168C943490713D46C
:102750006FF004010161022020772068806910F485
:10276000407F204602D0FFF7CAFF04E000F09AF84D
:10277000204600F02FF9257720680169C943090731
:1027800016D4C168C943090712D46FF0080101616A
:10279000042020772068C0698007204602D0FFF718
:1027A000AEFF04E000F07EF8204600F013F9257734
:1027B00020680169C943C90617D4C168C943C9065D
:1027C00013D46FF010010161082020772068C069E0
:1027D00010F4407F204602D0FFF791FF04E000F0A4
:1027E00061F8204600F0F6F8257720680169C943B2
:1027F000C90708D1C168C943C90704D1891E01614D
:10280000204600F001F920680169C943090609D48E
:10281000C168C943090605D46FF0800101612046F3
:10282000FFF77EFE20680169C943490609D4C168E3
:10283000C943490605D46FF040010161204600F00C
:1028400067F920680169C94389060BD4C168C94387
:10285000890607D46FF0200101612046BDE8704071
:10286000FFF75FBE70BD00001FB500680A498842CF
:1028700011D133200090022001900390694607484F
:10288000FEF720FE0648416821F4406141F0E06116
:1028900041F4006141601FBD00040040000C014094
:1028A00000000140704770B5044690F83C000D46AA
:1028B00001280DD0012684F83C60022084F83D00F8
:1028C00042B1042A18D0082A2AD00C2A4DD139E066
:1028D000022070BD206802F051F92068816941F042
:1028E000080181612068816921F00401816120680B
:1028F00081692A69114311E0206802F067F92068B4
:10290000816941F4006181612068816921F48061FD
:102910008161206881692A6941EA0221816124E09C
:10292000206802F07FF92068C16941F00801C161A7
:102930002068C16921F00401C1612068C1692A6968
:10294000114311E0206802F099F92068C16941F44F
:102950000061C1612068C16921F48061C1612068A2
:10296000C1692A6941EA0221C16184F83D60002001
:1029700084F83C0070BD10B5040003D094F83D000D
:1029800010B107E0012010BD002084F83C00204673
:1029900000F00CF8022084F83D00211D206802F0B0
:1029A00099F8012084F83D00002010BD08B50068AA
:1029B0000649884208D10648C16941F00201C16157
:1029C000C06900F00200009008BD00000004004053
:1029D000001002407047000010B504460068012254
:1029E00002F0AEF807492068884203D1416C41F4F7
:1029F000004141642068016841F00101016000204C
:102A000010BD0000002C01402DE9F0410546006892
:102A100039493A4CDFF8E880884243D16068401C6D
:102A20006060C0070BD101F073FB01F06BFAFEF799
:102A30002BFC34488268D0E90010FEF70BF8606880
:102A4000072190FBF1F201FB120131B10D2190FB46
:102A5000F1F201FB120028B106E003F0AFFC03F035
:102A600019FD01E003F092FD6068142190FBF1F282
:102A700001FB1200244E4FF4805728B9307818B16A
:102A800039464046FEF7FCFD60684FF4FA7190FB52
:102A9000F1F201FB12003178084303D13946404678
:102AA000FEF7EEFD2868B0F1804F23D1072001F03A
:102AB000A9F920700146272001F0E0F920784006AE
:102AC00018D520221149612001F078F9FF21E22078
:102AD00001F0D4F90D4801F089FC01F0D5FAFEF7B8
:102AE000B5FA03F025FF4046BDE8F0414FF4005130
:102AF000FEF7C6BDBDE8F08100080040940000204C
:102B0000000C0140B00600204800002028010020F1
:102B10007047704770B5026804461068D168536901
:102B200010F00F0F50D003F0010501F490763543FB
:102B30005DD0C20705D0CA0503D5E26B42F00102A1
:102B4000E263420705D5DA0703D0E26B42F00202E6
:102B5000E263820705D5DA0703D0E26B42F0040294
:102B6000E263020705D5DA0703D0E26B42F0080200
:102B7000E263E26B002A33D0800604D5880602D5D2
:102B8000204602F0D6F820684069E16BC0F380105F
:102B9000090700D428B3204602F0BDF82068416937
:102BA00049061AD5416921F040014161606BA0B12D
:102BB0001B494163606BFEF775FB002810D0606B0A
:102BC000416BBDE870400847830610D58B060ED5D3
:102BD0002046BDE8704002F0ACB82046FFF799FFF0
:102BE00070BD2046FFF795FF0020E06370BD03062F
:102BF00006D50B0604D52046BDE8704002F09CB90E
:102C00004006F3D54806F1D5D168204621F04001B1
:102C1000D160202184F8391000F057F970BD000010
:102C2000074D000870B5040004D094F83900002561
:102C300010B106E0012070BD84F83850204600F045
:102C400023F8242084F839002068C16821F4005159
:102C5000C160204602F0B8F82068016921F4904173
:102C600001612068416921F02A0141612068C16841
:102C700041F40051C160E563202084F8390084F8F4
:102C80003A00002070BD000010B50068184986B0F9
:102C900088422BD11748816941F480418161806964
:102CA000154C00F4804004904FF400700090022016
:102CB00001900320039069462046FEF703FC0021A3
:102CC0002015CDE90001029169462046FEF7FAFB86
:102CD000002206212520FEF7EFFF2520FEF7E0FF6A
:102CE000064801220178064800F068F806B010BDD9
:102CF0000038014000100240000801409C00002004
:102D0000700E00202DE9F843044690F83A009946E9
:102D100016460D4620284FD195B18EB194F8380053
:102D2000012849D0012084F838000027E7632220D9
:102D300084F83A00FEF7AEFCA6858046E68531E0D1
:102D40000120BDE8F883E08D401EE085A068434681
:102D5000B0F5805F4FF000024FF020012046CDF823
:102D6000009004D002F019F998B10320E9E702F0CD
:102D700014F90028F9D1206900282068406803D0A0
:102D8000C1B225F8011B0DE0C0F3080125F8021BB4
:102D900008E0206900282068406801D000F07F002A
:102DA00005F8010BE08D0028CDD1202084F83A00F1
:102DB00084F838700020C4E70220C2E790F83A3067
:102DC000202B22D1F9B1F2B190F83830012B1CD070
:102DD00081628285C2850021C163222280F83A2067
:102DE00080F838100168CA6842F48072CA600168CD
:102DF0004A6942F001024A610068C16841F020015D
:102E0000C160002070470120704702207047704762
:102E10002DE9F843044690F839001F4616460D4642
:102E2000202850D1A5B19EB194F8380001284AD08D
:102E3000012084F838004FF00008C4F83C802120BD
:102E400084F83900FEF726FCA6848146E68426E055
:102E50000120BDE8F883E08C401EE084A0684B466A
:102E6000B0F5805F4FF000024FF0800120460097E0
:102E700003D002F092F8E8B90DE002F08EF8C8B97C
:102E800028882168C0F308004860206908B16D1CDB
:102E900005E0AD1C03E0216815F8010B4860E08CEB
:102EA0000028D8D14B46002240212046009702F04E
:102EB00074F808B10320CCE7202084F8390084F8A6
:102EC00038800020C5E70220C3E77047FEE70168AD
:102ED0004A69D24352050CD46FF480624A610421DE
:102EE0000164002140F8301F202242730173012049
:102EF0007047002070472DE9F84F04460068894666
:102F00000B9D01689846174641F480610160206876
:102F1000016841F48071016000954FF0011A0022B0
:102F2000514620460A9B00F0D6F8F0BB216809F014
:102F3000FE0008610AF1010B2B46594620460A9A09
:102F400000F0FAF818B1206C042812D03AE020689A
:102F50004169806900902A4620460A9900F061F98B
:102F600050B1206C04282DD12068016841F4007113
:102F700001600120BDE8F88FFEB2B8F1010F09D061
:102F80002168380A08612A4620460A9900F049F962
:102F90000028E6D1206806612A4620460A9900F0FA
:102FA00040F90028DDD1206800E00BE0016841F421
:102FB0008071016000950022514620460A9B00F076
:102FC0008AF808B10320D5E7216809F0FF0040F036
:102FD000010008612B46594620460A9A00F0ACF8D9
:102FE0000028B0D1C6E700002DE9F8430446006888
:102FF0000D46DDE9089701689846164641F4807150
:1030000001604B4600224FF001112046009700F06E
:1030100062F8E8B9216805F0FE0008613B464A46BF
:103020001849204600F088F828B1206C04280FD1F8
:103030000120BDE8F88320684169806900903A4624
:103040004946204600F0EDF820B1206C042813D04A
:103050000320EEE7F5B2B8F1010F09D02168300A7C
:1030600008613A464946204600F0DBF80028ECD1DA
:10307000206805610020DCE72068016841F40071E8
:103080000160D5E70200010070B516460D46044602
:103090001AE02046FFF71BFF08B1012070BD681C35
:1030A00012D025B1FEF7F6FA801BA8420CD954F8CD
:1030B000400F40F0200044F810090020206020213B
:1030C00061732073032070BD20684069C0434007CE
:1030D000DFD4002070BD2DE9F0471E4690460D4616
:1030E0000446C1F30747DDF8209012E0701C10D0B1
:1030F0002EB1FEF7CFFAA0EB0900B04209D90020AB
:1031000044F8300F20216173A07320730320BDE8C1
:10311000F0872068012F0AD0806925EA00000004AA
:10312000000C06D000214145E0D00020EFE74069C7
:10313000F3E70121F7E700002DE9F0479A469146B1
:103140000D46044600264FF02008C1F307472AE049
:1031500020684069C043400512D42068016841F4EA
:103160000071016021686FF4806048610420206470
:10317000266384F83D8084F83C600120BDE8F08738
:10318000B9F1FF3F0FD0B9F1000F05D0FEF782FA79
:10319000A0EB0A01494506D944F8306F84F80D8048
:1031A00026730320EAE72068012F07D0D0F8180023
:1031B00025EA00000004000CE0D0C9E74069F7E709
:1031C0002DE9F041002590460E460446202721E0D7
:1031D0004069C043C0060CD421686FF010004861FC
:1031E0002564256384F83D7084F83C500120BDE8D7
:1031F000F0812EB1FEF74EFAA0EB0800B04209D9DB
:1032000054F8400F40F0200044F80409677025701E
:103210000320ECE720684169C9434906D8D400205F
:10322000E5E770B516460D4604461AE02046FFF75E
:103230004EFE08B1012070BD681C12D025B1FEF70A
:1032400029FA801BA8420CD954F8400F40F0200006
:1032500044F81009002020602021617320730320AE
:1032600070BD20684069C0430006DFD4002070BDF7
:10327000FEF70AB82DE9FF4FDFF8948593B0444676
:10328000D8F80C100E463046FDF724F80690216958
:1032900030460D46FDF71EF80790616930460F462F
:1032A000FDF718F8294604900846FDF713F8059035
:1032B000A16928460E46FDF70DF8394601900846EB
:1032C000FDF708F8039031463846FDF703F831461C
:1032D00000900846FCF7FEFF0290A16A0B91084699
:1032E000FCF7F8FF1090E16A0E463046FCF7F2FF5B
:1032F0000D90216B09910846FCF7ECFF616B81464C
:103300008A465046FCF7E6FF0F9050461599FCF7A9
:10331000E1FF074614990998FCF7DCFF054686F0A3
:1033200000401399FCF7D6FF2946FCF7CDFF39463C
:10333000FCF7CAFFDFF8DCB45F465946FCF7CAFF6A
:103340000B99FCF76FFFA062054650461499FCF7F5
:10335000C1FF119015990998FCF7BCFF0E90294602
:103360001398FCF7B7FF0E99FCF75CFF1199FCF777
:10337000ABFF3946FCF7AEFF3146FCF753FF06467C
:10338000E06251461398FCF7A5FF0E903046159960
:10339000FCF7A0FF0B9028461499FCF79BFF0B99B4
:1033A000FCF792FF0E99FCF73DFF3946FCF792FFC0
:1033B0000999FCF737FF014620631398FCF78AFF51
:1033C000099030461499FCF785FF06462846159962
:1033D000FCF780FF3146FCF725FF0999FCF774FFE5
:1033E0003946FCF777FF5146FCF71CFF60630D99E7
:1033F0001098FCF717FF4946FCF714FF0F99FCF7EC
:1034000011FFFDF7CAF903F0F5FAFDF7D9F9054602
:103410000146A06AFCF790FFA0622946E06AFCF72B
:103420008BFFE0622946206BFCF786FF206329466C
:10343000606BFCF781FF606320991698FCF74AFFE8
:103440002199FCF747FF10F0FF4F7DD021990846E6
:10345000FCF740FF209905460846FCF73BFF16990C
:1034600004460846FCF736FF2146FCF7DBFE2946FA
:10347000FCF7D8FEFDF791F903F0BCFAFDF7A0F9CF
:10348000044601461698FCF757FF824621462098CD
:10349000FCF752FF209021462198FCF74DFF814612
:1034A00004990198FCF710FF0121FCF783FF064601
:1034B00000990798FCF7B6FE0121FCF77BFF054653
:1034C000DDE90510FCF700FF0399FCF7FDFE02990A
:1034D000FCF7A8FE044629464846FCF7FBFE0746D3
:1034E00021462098FCF7F6FE3946FCF7EDFE07462C
:1034F00021465046FCF7EEFE044631464846FCF7AE
:10350000E9FE2146FCF7E0FE814631462098FCF7B3
:10351000E1FE044629465046FCF7DCFE2146FCF756
:10352000D3FED8F80810824644460D463846FCF7CC
:10353000D1FEE169FCF776FE8046E0612946484607
:10354000FCF7C8FE216A00E05FE1FCF76BFE06466F
:10355000206229465046FCF7BDFE616AFCF762FE18
:1035600005466062606839460746FCF7B3FE13996A
:10357000FCF758FE4146FCF755FE80464946384662
:10358000FCF7A8FE1499FCF74DFE3146FCF74AFE05
:10359000064651463846FCF79DFE1599FCF742FE5B
:1035A0002946FCF73FFE07460146A0690490FCF758
:1035B00091FE8246606931460190FCF78BFE05461C
:1035C00020694146814680F00040FCF783FE294691
:1035D000FCF77AFE5146FCF777FE5946FCF77AFE77
:1035E000E168FCF71FFE0546E06031460498FCF7F1
:1035F00071FE079039460198FCF76CFE8246294619
:103600004046FCF767FE5146FCF70CFE0799FCF7B5
:103610005BFE5946FCF75EFE4946FCF703FE20615F
:10362000814640460499FCF755FE089039464846C5
:10363000FCF750FE824631462846FCF74BFE5146C9
:10364000FCF742FE0899FCF7EDFD5946FCF742FEF7
:103650000199FCF7E7FD014660614046FCF73AFE40
:10366000804631464846FCF735FE06463946284630
:10367000FCF730FE3146FCF7D5FD4146FCF724FE51
:103680005946FCF727FE0499FCF7CCFDA061DDE963
:103690000510FCF7C7FD0399FCF7C4FD0299FCF780
:1036A000C1FDFDF77AF803F0A5F9FDF789F80546A5
:1036B0000146E068FCF740FE8146E060294620694B
:1036C000FCF73AFE8246206129466069FCF734FE29
:1036D000804660612946A069FCF72EFE064601215E
:1036E000A061FCF767FE3146FCF7F4FD05464FF09C
:1036F00040414046FCF7EEFD4146FCF7EBFD294614
:10370000FCF7E2FD4FF07E5B5946FCF78BFDFDF7C1
:1037100044F807460D4601214846FCF74BFE31466A
:10372000FCF7D8FD064601215046FCF743FE414612
:10373000FCF7D0FD3146FCF775FDFDF72EF83A4653
:103740002B4601F05FFF4FF0C0494A46324BFCF771
:10375000E4FEFDF735F8314E0121B06060690546A1
:10376000FCF728FE82462946FCF7B4FD0546206991
:103770004FF040418046FCF7ADFD4146FCF7AAFD05
:103780002946FCF7A1FD5946FCF74CFDFDF705F86D
:1037900007460D460121E068FCF70CFE4146FCF7A8
:1037A00099FD80465046A169FCF794FD4146FCF71F
:1037B00039FDFCF7F2FF3A462B4601F023FF184F84
:1037C0004A463B46FCF7A9FEFCF7FAFF7060012170
:1037D000E068FCF7EFFD6169FCF77CFD05464FF002
:1037E00040412069FCF776FDA169FCF773FD29468D
:1037F000FCF718FDFCF7D1FF01F0BCFC4A463B4644
:10380000FCF78BFEFCF7DCFF306017B0BDE8F08FF3
:103810000C0000206F12833A94A94CC0B00600201F
:1038200094A94C4070B516460A46054631461046E6
:10383000FCF750FD044631464FF07E50FCF744FD46
:103840002946FCF747FD2146BDE87040FCF7EABC7D
:1038500030B5A7B0002523A8239502F061F8354CB8
:103860000121206224A8249502F0BAF860620121A7
:1038700025A8259502F0B4F8A0622F480022012166
:103880000068269026A802F03DF92B49E061142239
:10389000091D6846FCF7A2FC0021684602F01AF9EF
:1038A000254920601422183105A8FCF797FC002157
:1038B00005A802F00FF92049606014222C310AA8F3
:1038C000FCF78CFC00210AA802F004F91A49A06058
:1038D000142240310FA8FCF781FC00210FA802F050
:1038E000F9F81549E0601422543114A8FCF776FC6D
:1038F000002114A802F0EEF80F492061142268316B
:1039000019A8FCF76BFC002119A802F0E3F80A499A
:10391000606114227C311EA8FCF760FC00211EA807
:1039200002F0D8F8A0610521E06902F0FDF827B0A7
:1039300030BD000068000020807900082DE9F041CA
:10394000234886B0816941F020018161816901F0DD
:1039500020010491816941F004018161816901F0D4
:1039600004010491816941F0080181618069194F66
:1039700000F008000490012212213846FDF784FE71
:10398000DFF854804FF4E046012231464046FDF70F
:103990007BFE01240020CDE9004002200290694610
:1039A0003846FDF78FFD1220CDE900040325694656
:1039B0003846CDE90245FDF785FDCDE9006469464D
:1039C0004046CDE90245FDF77DFD06B0BDE8F0813A
:1039D0000010024000080140000C01400E4810B5E4
:1039E0000C4901600D49416000214FF48042816023
:1039F000C0E9031241618161C1610162FDF750FEBE
:103A0000002805D0BDE810404C2105A001F01FBBE7
:103A100010BD000000540040040D0020A0860100ED
:103A20002E2E2F5372632F6932632E630000000025
:103A3000114810B50F4901604FF4827141600021B7
:103A40008160C1604FF400720161C0E9051210226B
:103A5000C0E90721416281620A21C162FEF7E6FBEB
:103A6000002805D0BDE810404F2104A001F0EFBAB6
:103A700010BD000000300140580D00202E2E2F53A5
:103A800072632F7370692E630000000010B5174831
:103A900086B04FF08041016047210024C0E9011445
:103AA0006321C0E903148461FEF764FD18B150215D
:103AB0000FA001F0CCFA4FF48050009069460B48FB
:103AC000FEF7A4FD18B1562109A001F0C0FA049434
:103AD00004A906480594FEF725FD002803D05D21C2
:103AE00003A001F0B4FA06B010BD0000B00D002034
:103AF0002E2E2F5372632F74696D2E630000000009
:103B000010B529488AB02749016047210024C0E93F
:103B1000011440F2AF41C0E903148461FEF72BFFAA
:103B200018B16F2121A001F092FA079407A91E484D
:103B30000894FEF7F7FC18B176211CA001F087FA73
:103B40006020CDE9000402940022694616480494DE
:103B5000FEF7A9FE18B17F2114A001F078FA042223
:103B600069461148FEF79FFE18B184210FA001F0AD
:103B70006EFA082269460C48FEF795FE18B18921B5
:103B80000AA001F064FA0C2269460748FEF78BFE92
:103B900018B18E2105A001F05AFA0348FEF764FE21
:103BA0000AB010BD00040040F00D00202E2E2F534F
:103BB00072632F74696D2E630000000010B5184801
:103BC00086B01649016047210024C0E9011440F283
:103BD000E731C0E903148461FEF7CCFC18B1A221DF
:103BE00010A001F034FA4FF48050009069460C4860
:103BF000FEF70CFD18B1A8210AA001F028FA0494E0
:103C000004A907480594FEF78DFC002803D0AF21D6
:103C100004A001F01CFA06B010BD0000000800402E
:103C2000300E00202E2E2F5372632F74696D2E6379
:103C3000000000000D4810B50B4901604FF4E13160
:103C40004160002181600C22C160C0E904128161E1
:103C5000C161FEF7E7FF002805D0BDE810404C2108
:103C600003A001F0F4B910BD00380140700E00202F
:103C70002E2E2F5372632F75736172742E630000A2
:103C8000FEE7F0B587B007466020CDE900010020CF
:103C900015460C9E0290024604901C466946384622
:103CA000FEF701FE00213846FEF796FE0422694623
:103CB00038460195FEF7F7FD04213846FEF78CFEE5
:103CC0000822694638460194FEF7EDFD0821384682
:103CD000FEF782FE0C22694638460196FEF7E3FDA8
:103CE0000C213846FEF778FE07B0F0BD70470000A3
:103CF0001FB50FA10522D1E90001CDE9020102A9FA
:103D0000302000F097F805226946102000F056F8A0
:103D1000002069460A5CA52A03D1401CC0B20528D0
:103D2000F8D3052802D0012004B010BD0020FBE725
:103D3000A5A5A5A5A500000010B5FFF779FE064CC6
:103D4000002210212046FDF79FFC20460122BDE8FD
:103D500010400221FDF798BC0008014010B5154C39
:103D6000002210212046FDF78FFC052212492A204F
:103D700000F060F80121212000F080F801212220CC
:103D800000F07CF82821252000F078F8202131204F
:103D900000F074F80F21262000F070F80F21202089
:103DA00000F06CF820460122BDE810401021FDF71C
:103DB0006BBC000000080140797900082DE9F04152
:103DC000DFF83C8015460F4604460022022140469B
:103DD000FDF75AFC204600F02DFB0646002405E0C6
:103DE000FF2000F027FB3855641CE4B2AC42F7D347
:103DF000012202214046FDF747FC3046BDE8F08134
:103E00000008014070B50A4D0446002202212846F0
:103E1000FDF73AFC204600F00DFBFF2000F00AFB06
:103E20000446012202212846FDF72EFC204670BDE3
:103E3000000801402DE9F041DFF83C8016460D46B0
:103E40000446002202214046FDF71EFC204600F0F9
:103E5000F1FA0746002405E015F8010B00F0EAFA34
:103E6000641CE4B2B442F7D3012202214046FDF7BC
:103E70000BFC3846BDE8F0810008014070B50B4DE1
:103E80000E460446002202212846FDF7FDFB20468F
:103E900000F0D0FA0446304600F0CCFA01220221AC
:103EA0002846FDF7F1FB204670BD000000080140E8
:103EB0000907090E002806DA00F00F0000F1E020E3
:103EC00080F8141D704700F1E02080F8001470475E
:103ED00010B500F001FA00F073F90849064848618E
:103EE0008863C1F88000C1F8A400054940F2DC50A5
:103EF00008814881888110BD0000C842440B002021
:103F0000060700202DE9F047594C00273E4634F9BA
:103F1000100B3D46B4F90210401A606134F90E0CE2
:103F2000B4F90410401AA06134F90C0CE061B4F942
:103F30002A00B4F93C10401AE064B4F93A10B4F91C
:103F40002820891A2165B4F92C10B4F93E20891A69
:103F50006165FCF7DAFB8146B4F92E00FCF7D5FB6E
:103F6000DFF8108149464246FFF75CFCFCF7E8FBAE
:103F7000E085206DFCF7C9FB8146B4F93000FCF701
:103F8000C4FB42464946FFF74DFCFCF7D9FB2086AF
:103F9000606DFCF7BAFB8046B4F93200FCF7B5FB64
:103FA000354A4146FFF73EFCFCF7CAFB00B260868B
:103FB0008046B4F92E00FCF7A8FBDFF8C090494614
:103FC000FCF788F92064B4F93000FCF79EFB494601
:103FD000FCF780F960644046FCF797FB4946FCF724
:103FE00079F92849A064264A4878A38A02F1C80CC6
:103FF00022F81030238B2CF81030B4F81C8002F516
:10400000C873E14623F81080B846103C32F918C056
:10401000674439F918C0664433F918C008F101083B
:1040200008F0FF086544B8F1640FEFD36423401C27
:10403000C2B297FBF3F096FBF3F695FBF3F34A70ED
:1040400000B2E08036B226811DB26581642A01D1BA
:1040500000224A70FCF759FBA0613046FCF755FB83
:10406000E0612846FCF751FB2062BDE8F0870000C4
:1040700058010020CDCCCC3DCDCC4C3DE4A40B3A36
:10408000580400200C0000201D4810B58178491C00
:1040900011F0FF021B498270A1F11604CB88E38066
:1040A0004B88A3F6B833C3F1000363800B88A3F6F3
:1040B000B833C3F1000323808988A1F2DC5109B22F
:1040C00012D000228270B0F90420521A02F59672C2
:1040D000B2F5167F01D9818005E0052291FBF2F24D
:1040E000A3881A44A2808180B4F90400FCF70DFB78
:1040F000054A064901F046FBFCF722FBA08010BDF3
:10410000480000201C07002000007A440000FA4408
:104110003EB5104C80200E210094CDE90110012302
:104120003B22D0210C48FDF75BFB208841BA04F10B
:1041300010000180618849BA4180A18849BA818014
:10414000218949BA0187618949BA4187A18949BA58
:1041500081873EBD48010020040D002010B5164C9B
:1041600001221648B4F94A10123400F0D3F913486A
:10417000B4F93A100122801C00F0CCF90F48B4F9D0
:104180003C100122001D00F0C5F90C48B4F90010E4
:104190000122801D00F0BEF90848B4F90210012286
:1041A000083000F0B7F9B4F9041004480122BDE862
:1041B00010400A3000F0AEB95801002000FC0008A1
:1041C0003EB501226946414800F0A4F93F4801226A
:1041D00001A9801C00F09EF93C48012202A9001DA3
:1041E00000F098F9BDF80000FCF798FA384D294620
:1041F000FCF7A2F8374C44F8280FBDF80400FCF790
:104200008DFA2946FCF798F86060BDF80800FCF7C5
:1042100085FA2946FCF790F8A0602C4801226946EF
:10422000801D00F077F92948012201A9083000F02B
:1042300071F92648012202A90A3000F06BF9BDF895
:104240000000FCF76BFA2946FCF776F8E066BDF84B
:104250000400FCF763FA2946FCF76EF82067BDF806
:104260000800FCF75BFA2946FCF766F86067174818
:10427000012269460C3000F04DF91448012201A9D1
:104280000E3000F047F91148012202A9103000F069
:1042900041F9BDF80000FCF741FA2946FCF74CF85B
:1042A000C4F8D800BDF80400FCF738FA2946FCF73A
:1042B00043F8C4F8DC00BDF80800FCF72FFA2946E3
:1042C000FCF73AF8C4F8E0003EBD000034FC0008FA
:1042D00000007A44440B00203EB501226946404864
:1042E00000F018F93E48012201A9801C00F012F9E3
:1042F0003B48012202A9001D00F00CF9BDF80000A6
:10430000FCF70CFA374D2946FCF716F8364C60607E
:10431000BDF80400FCF702FA2946FCF70DF8A0608E
:10432000BDF80800FCF7FAF92946FCF705F8E0604B
:104330002B4801226946083000F0ECF82848012299
:1043400001A90A3000F0E6F82548012202A90C3044
:1043500000F0E0F8BDF80000FCF7E0F92946FBF7B3
:10436000EBFF2067BDF80400FCF7D8F92946FBF7FE
:10437000E3FF6067BDF80800FCF7D0F92946FBF7BA
:10438000DBFFA0671648012269460E3000F0C2F834
:104390001348012201A9103000F0BCF81048012296
:1043A00002A9123000F0B6F8BDF80000FCF7B6F92B
:1043B0002946FBF7C1FFC4F8DC00BDF80400FCF798
:1043C000ADF92946FBF7B8FFC4F8E000BDF80800D6
:1043D000FCF7A4F92946FBF7AFFFC4F8E4003EBDA3
:1043E00020FC000800007A44440B00200378427847
:1043F0008178AA2B1AD1AA2A18D1012916D002290C
:1044000014D10179C27801EB022209498A808279AC
:10441000437902EB0322CA80827A437A02EB0322B9
:104420000A80027AC07902EB0020488070470000C1
:104430001C07002038B5074C0123621C2070FF20A8
:104440000090511E0448FDF75FFF08B1FF2038BD02
:10445000607838BD00000020580D002038B50B46AC
:10446000009204460022802100F008F8002804D0C1
:10447000606D40F020006065032038BD2DE9F041FB
:104480001D4617460E460446DDF8188035E0681CC8
:1044900033D02DB1FDF7FEF8A0EB0800A8422CD3D5
:1044A0002068416821F0E00141606068B0F5827FDA
:1044B0000BD1A068B0F5004F02D0B0F5806F04D1E9
:1044C0002068016821F040010160A06AB0F5005F3A
:1044D0000AD1206801684DF6FF7211400160206822
:1044E000016841F400510160012084F8510000206E
:1044F00084F850000320BDE8F0812068806836EA27
:10450000000004D00020B842C1D10020F3E7012010
:10451000F9E7000010B5002306E000BF50F8024B99
:1045200021F813405B1C9BB29342F7D310BD0000EF
:104530002DE9F74F82B01546029C8A46A4F100642B
:10454000B4F5803F58D2FCF7A9FFA70AC4F3480688
:10455000C6F50074A54200D82C46DFF8A4904FF4AD
:10456000007B00BF4FF0006000EB872080465A467A
:104570002349FFF7CFFF00204FF6FF7106E0331805
:1045800039F813208A4203D1401C80B2A042F6D3EE
:10459000A0422BD21A480021103801600121C0E945
:1045A00002816946FCF7DCFE002825D1494606E079
:1045B0003AF810208319401C21F8132080B2A04241
:1045C000F6D340465A460E4900F01CF8A54211D0D9
:1045D00002980AEB440A20440290281B002685B268
:1045E0005C467F1CA542BDD82C46BBE722465146FF
:1045F0000298E9E7FCF708FF05B0BDE8F08F00007E
:10460000440700202DE9F04116460F4605460024D8
:104610000AE000BF37F81420002329460120FCF7E8
:10462000FDFE641CA4B2AD1CB442F3D3BDE8F0811E
:104630003EB5424C424D54F8280F2946FBF74AFE3E
:10464000FCF797F8ADF8000029466068FBF742FEDA
:10465000FCF78FF8ADF804002946A068FBF73AFE96
:10466000FCF787F8ADF80800012269463548FFF7E6
:104670005FFF3448012201A9801CFFF759FF314830
:10468000012202A9001DFFF753FF2946E06EFBF748
:1046900021FEFCF76EF8ADF800002946206FFBF70D
:1046A00019FEFCF766F8ADF804002946606FFBF7C9
:1046B00011FEFCF75EF8ADF80800224801226946B9
:1046C000801DFFF735FF1F48012201A90830FFF7C1
:1046D0002FFF1C48012202A90A30FFF729FF2946B3
:1046E000D4F8D800FBF7F6FDFCF743F8ADF800006E
:1046F0002946D4F8DC00FBF7EDFDFCF73AF8ADF8FD
:1047000004002946D4F8E000FBF7E4FDFCF731F89B
:10471000ADF808000B48012269460C30FFF708FF8E
:104720000848012201A90E30FFF702FF05480122C7
:1047300002A91030FFF7FCFE3EBD0000440B002034
:1047400000007A4434FC00083EB5414C414D2946F6
:104750006068FBF7BFFDFCF70CF8ADF800002946D8
:10476000A068FBF7B7FDFCF704F8ADF80400294694
:10477000E068FBF7AFFDFBF7FCFFADF80800012296
:1047800069463548FFF7D4FE3348012201A9801C51
:10479000FFF7CEFE3048012202A9001DFFF7C8FE38
:1047A0002946206FFBF796FDFBF7E3FFADF800000D
:1047B0002946606FFBF78EFDFBF7DBFFADF80400C9
:1047C0002946A06FFBF786FDFBF7D3FFADF8080085
:1047D0002148012269460830FFF7AAFE1E4801223F
:1047E00001A90A30FFF7A4FE1B48012202A90C30E0
:1047F000FFF79EFE2946D4F8DC00FBF76BFDFBF7C4
:10480000B8FFADF800002946D4F8E000FBF762FDE0
:10481000FBF7AFFFADF804002946D4F8E400FBF73E
:1048200059FDFBF7A6FFADF808000B4801226946C9
:104830000E30FFF77DFE0848012201A91030FFF776
:1048400077FE0548012202A91230FFF771FE3EBD36
:10485000440B002000007A4420FC0008F0B589B029
:104860000E46074600252C4620216846FBF7CFFC64
:10487000AA208DF800008DF80100EF208DF80200CD
:1048800002208DF803008DF804708DF805606846ED
:10489000015D641C2944E4B2CDB2062CF8D3094C66
:1048A0008DF80650FF21206801F066F828B9FF2333
:1048B000072269460448FEF7ABFA206801F034F895
:1048C00009B0F0BD88000020700E0020FFF700FB4B
:1048D000054C00BFD4E90010A268FCF7BBF8052026
:1048E00001F012F8F6E70000B0060020642001F0A5
:1048F0000BF8FBE7642001F007F8FBE7FFF72EFC5D
:10490000074D4FF4805400BFFFF702FCFFF7FAFA9F
:1049100021462846FCF7B4FE012000F0F5FFF3E73E
:10492000000C0140134E4FF400550720FFF76AFAC0
:10493000044601462720FFF7A1FA600615D520227C
:104940000D496120FFF73AFAFF21E220FFF796FABE
:104950000948FFF74BFDFFF797FBFCF777FB01F0EA
:10496000E7FF29463046FCF78BFE052000F0CCFF20
:10497000DBE70000000C014028010020084D094C35
:104980000A21A86A01F068F828B92078401DC1B250
:104990000548FCF7D5F9642000F0B6FFF0E7000009
:1049A0006800002046000020D4060020124D00249C
:1049B000641CA4B21021286A00F0DEFF40B9012C6B
:1049C0000DD0022C0ED0032C0FD0042C10D00024BC
:1049D000286A00F0A9FF0A2000F096FFE8E701F03E
:1049E00059FDF5E701F0EAFCF2E701F0A1FFEFE77E
:1049F00001F0CCFDECE700006800002010B5FDF7E9
:104A0000CDF8BDE8104001F05BB830B58FB00121A2
:104A10000804CDE900100024029402250491CDE998
:104A200007504FF4E01009906846FDF77DFA00B199
:104A3000FEE70F20CDE90A054FF48060CDE90C4078
:104A400002210AA80E94FDF769F900B1FEE7FDF70F
:104A50000FFA4FF47A71B0FBF1F0FDF74DFD042031
:104A6000FDF73EFD00220F21501EFDF725F90FB086
:104A700030BD00000D48016841F00101016041684E
:104A80000B4A1140416001680A4A11400160016807
:104A900021F480210160416821F4FE0141604FF45E
:104AA0001F0181600449C003086070470010024084
:104AB0000000FFF8FFFFF6FE08ED00E00148FDF7FB
:104AC0001FBE0000B00D00200148FDF719BE000018
:104AD000300E0020F0B50268164B174C174D4FF002
:104AE0008047984205D0B84203D0A04201D0A842E6
:104AF00003D122F070064A683243984205D0B8428A
:104B000003D0A04201D0A84203D122F44074CA6865
:104B1000224322F080044A69224302608A68C2620A
:104B20000A688262984201D10969016301214161E9
:104B3000F0BD0000002C01400004004000080040CF
:104B400010B50123046A8B409C430462036A8A40C7
:104B50001343036210BD10B5846842EA032224F4B3
:104B60007F440A432243826010BD826822F07002B3
:104B70000A4342F0070181607047000030B5026AC5
:104B800022F001020262026A4368846924F073051C
:104B90000C682C4322F002058A682A430A4DA84279
:104BA0000BD122F00805CA6823F440732A434D69EB
:104BB00022F004021D438B692B43436084614968E2
:104BC0004163026230BD0000002C014030B5026A32
:104BD00022F010020262026A436884690D6824F4BC
:104BE000E64444EA05248D6822F0200242EA0512D8
:104BF0000B4DA8420ED1CD6822F0800242EA051288
:104C00004D6923F4406343EA85038D6922F0400235
:104C100043EA85034360846149688163026230BD71
:104C2000002C014030B5026A22F480720262036AED
:104C30004268C46923F4007324F073050C682C43A4
:104C40008D6843EA05230C4DA8420ED1CD6823F4AC
:104C5000006343EA05234D6922F4405242EA0512FB
:104C60008D6923F4806342EA05124260C461496899
:104C7000C163036230BD0000002C014030B5026A00
:104C800022F480520262046A4268C3690D6823F408
:104C9000E64343EA05238D6824F4005444EA0534CE
:104CA000064DA84204D14D6922F4804242EA8512A1
:104CB0004260C36149680164046230BD002C014058
:104CC00010B5036A046A24F001040462846924F0C4
:104CD000F00444EA021423F00A020A4384610262E7
:104CE00010BD10B5036A23F0100303628369046AE0
:104CF00023F4704343EA023224F0A00343EA011193
:104D00008261016210BD10B5406A0021C185C18475
:104D1000FDF7FFFE10BD0168CA6822F49072CA60F8
:104D200001684A6922F001024A61202180F83A10A4
:104D3000704710B590F83A10222901D0022010BD1A
:104D40008168B1F5805F11D00169002901681FD029
:104D5000496801F07F03816A4A1C82620B70C18D31
:104D6000491E0904090CC18518D02BE00269816A2B
:104D7000002A0268526805D0D2B20A80816A491CB2
:104D80008162ECE7C2F308020A80816A891CF7E7B6
:104D90004A68816A4B1C83620A70E0E70168CA684E
:104DA00022F02002CA600168CA6822F48072CA60D8
:104DB00001684A6922F001024A61202180F83A1014
:104DC000FEF725F8002010BD2DE9F04104460068EB
:104DD0000169E26821F44051114301612169A06831
:104DE0000843616908432168CA6841F20C639A4329
:104DF0000243CA6020684169A26921F440711143ED
:104E000041614C4920686425322688423CD1FDF737
:104E100045F800EBC00101EB001061688900B0FBB0
:104E2000F1F7FDF73BF800EBC00101EB0010616802
:104E3000B0468900B0FBF1F0B0FBF5F06FF018015F
:104E4000484307EB800106EB0110B0FBF5F000F0E2
:104E5000F006FDF723F800EBC00101EB00106168DC
:104E60008900B0FBF1F0B0FBF5F006EB0016FDF7A2
:104E700015F800EBC00101EB001061688900B0FB80
:104E8000F1F7FDF70BF83BE0FCF7F8FF00EBC00192
:104E900001EB001061688900B0FBF1F7FCF7EEFF51
:104EA00000EBC00101EB00106168B0468900B0FB67
:104EB000F1F0B0FBF5F06FF01801484307EB80010B
:104EC00006EB0110B0FBF5F000F0F006FCF7D6FFA2
:104ED00000EBC00101EB001061688900B0FBF1F04C
:104EE000B0FBF5F006EB0016FCF7C8FF00EBC001C5
:104EF00001EB001061688900B0FBF1F7FCF7BEFF21
:104F000000EBC00101EB001061688900B0FBF1F01B
:104F1000B0FBF5F06FF01801484307EB800108EB98
:104F20000110B0FBF5F0216800F00F0030448860FC
:104F3000BDE8F0810038014090F83910212901D0F6
:104F4000022070478168B1F5805F016A0BD04A1C6E
:104F50000262026809785160C18C491E0904090C7B
:104F6000C1840ED017E009880268C1F308015160BE
:104F700001690029016A02D0491C0162ECE7891C21
:104F8000FBE70168CA6822F08002CA600068C16855
:104F900041F04001C160002070472DE9F041984682
:104FA00017460E460446069D1DE0681C1BD02DB119
:104FB000FCF770FBA0EB0800A84214D92068C16878
:104FC00021F4D071C1602068416921F00101416183
:104FD000202084F8390084F83A00002084F8380052
:104FE0000320BDE8F0812068006836EA000004D0A4
:104FF0000020B842D9D00020F3E70120F9E70000F3
:1050000010B50F4C20680068C043800612D44FF4DE
:105010007A7301220B492046FDF774FE0A480068A6
:105020000849C0B20870FBF7C3FF2068C16841F0AF
:105030002001C160BDE810400148FDF76BBD0000D4
:10504000700E0020F80C002004380140FEE7FEE757
:10505000490050EAC12018BF04204A0D18BF40F093
:10506000010040F2FF72B2EB515F08BF40F0020056
:10507000012808BF052070472DE9F0414F1E00EBC5
:10508000C7010446D1E9000115461E4637F0060265
:105090000DD02A463346FBF740FA7F1E04EBC703C8
:1050A000D3E90023FBF792F937F00602F1D1022F82
:1050B00025D0042F13D0062F18BFBDE8F0812A4653
:1050C0003346FBF72AFAD4E90A23FBF77FF92A468D
:1050D0003346FBF722FAD4E90823FBF777F92A468F
:1050E0003346FBF71AFAD4E90623FBF76FF92A4691
:1050F0003346FBF712FAD4E90423FBF767F92A4693
:105100003346FBF70AFAD4E90223FBF75FF92A4694
:105110003346FBF702FAD4E90023BDE8F041FBF780
:1051200055B90122FBF7DABAFBF750B90022134652
:1051300010461146FBF763BA024A00201107FBF73D
:10514000CDBA000001FDFFFF02E008C8121F08C130
:10515000002AFAD170477047002001E001C1121FF8
:10516000002AFBD170470000014908607047000029
:10517000240100202DE9F04D8D4F21F0004A86B02A
:1051800005460C46BA452ADBAAEB070028430AD09D
:105190008848824501DC1AD1CDB106B02846BDE869
:1051A000F04DFFF7BEBF844A844B2846FBF7B5F9A4
:1051B00007460E46824A834B28462146FBF7ADF947
:1051C00006B03A463346BDE8F04DFBF7FFB8012084
:1051D000FFF7CAFF06B0BDE8F04DFFF7A7BF7A485A
:1051E000824542DABAF1795F0BDA2846FFF730FFE1
:1051F000042808BFFFF7A0FF284606B02146BDE8F7
:10520000F08D2A460B461046FBF787F98346024687
:105210006E480E460B4606217844FFF72DFF5A468E
:105220003346FBF77AF9804669488A465A46334640
:1052300004217844FFF720FF5A463346FBF76DF907
:1052400000223B46FBF7C2F802460B464046514659
:10525000FBF7D5F92A462346FBF75FF906B02A4645
:105260002346BDE8F04DFBF7B1B8284624F00041D5
:1052700000223D463B46FBF74DF94FF0FF32FBF76E
:105280002DFA0646024653480F460B46062178443F
:10529000FFF7F2FE32463B46FBF73FF9CDE900014E
:1052A0004D4832463B4604217844FFF7E5FE32463E
:1052B0003B46FBF732F900222B46FBF787F8834683
:1052C00002913046394601F095FB804643480D4631
:1052D000504517DCDDE900015A46029BFBF78FF9C8
:1052E00042462B46FBF719F942462B46FBF76EF870
:1052F0000122FBF7F3F9304A304BFBF708F9304A4B
:10530000304B4CE04FF0000A52460B464046FBF74C
:105310005DF8CDE9031052462B4610461946FBF7BF
:10532000FCF832463B46FBF7F5F8DDE90332FBF7C4
:1053300066F906460F46DDE900015A46029BFBF777
:105340005EF983460091012230463946FBF7C6F9E3
:10535000194A1A4BFBF7DEF806460F460122404673
:105360002946FBF7BBF95A46009BFBF7D6F83246B5
:105370003B46FBF7CCF806460F460122504629462D
:10538000FBF7ACF90E4DDFF858802A464346FBF791
:10539000C1F832463B46FBF7BDF82A464346FBF7C9
:1053A000B9F8002CD8BF81F0004106B0BDE8F08DFF
:1053B0000000F03F0000F07F075C143326A6913C0C
:1053C000182D4454FB21F93F0000E03F0C28000059
:1053D0002228000096270000AC2700003333EF3F5F
:1053E000FB21E93F2DE9F84F04460D4621F000402E
:1053F00000917349814211DC7249884201DC06D177
:105400002CB120462946BDE8F84FFFF78ABE6E480A
:10541000002DCCBF6D496E49BDE8F88F6D498142C2
:1054200011DD6D498142D8BF4FF0FF366DDD20465A
:105430002946FFF70DFE042808BFFFF77DFE204632
:105440002946BDE8F88F6549654F25F00045814242
:1054500033DD6449814219DD002632464FF0804336
:1054600020462946FAF7B2FF80468A4601222046A6
:105470002946FBF733F900223B46FBF748F8424642
:105480005346FBF7BCF804460D463EE001260022D9
:10549000BA463B4620462946FAF798FF80460F4613
:1054A0000022534620462946FBF731F842463B4648
:1054B000FBF7A5F804460D4627E04B4981421BDD6A
:1054C000DFF828A102260022534620462946FBF792
:1054D00024F800223B46FAF779FF80460F46002267
:1054E000534620462946FBF712F842463B46FBF757
:1054F00086F804460D4608E0032622462B46002087
:105500003B49FBF77CF804460D4622462B461046E5
:105510001946FBF702F88B46824602460B46FAF71D
:10552000FCFF07460246334888460B46062178446E
:10553000FFF7A2FD52465B46FAF7EFFF82462E4880
:105540008B463A46434605217844FFF795FD3A4697
:105550004346FAF7E2FF02460B46002E50465946F4
:105560000CDAFAF733FF22462B46FAF7D6FF01B0E2
:1055700022462B46BDE8F04FFAF7CCBFFAF726FFDC
:1055800022462B46FAF7C9FF1C4A7A4402EBC603AF
:10559000D3E90023FAF7BBFF22462B46FAF7B7FF01
:1055A000174A7A4402EBC603D3E90023FAF7B2FFA5
:1055B000009A002AB8BF81F00041BDE8F88F0000D2
:1055C000000010440000F07F182D4454FB21F93FE7
:1055D000FB21F9BF0000DC3F0000203E0000F33F4C
:1055E0000000F03F0000E63F008003400000F83F6D
:1055F0000000F0BFAE2500006C2500000A25000069
:10560000D22400002DE9F04D9446CCF1000423F0A3
:1056100000464CEA0404524F46EAD4749A4688463F
:1056200021F00042BC4206D8454240EA050442EA65
:10563000D474BC4204D9BDE8F04D6246FFF774BD96
:10564000AAF14055A5F17F6555EA0C040BD0022460
:1056500004EAAA74434DDFF810E144EAD87452EA30
:10566000000B04D00CE0BDE8F04DFFF7BBBE002CF2
:1056700014BF012CBDE8F08D022C30D0032C32D0A9
:1056800056EA0C0B0AD0BE4220D1BA4209D126F00C
:10569000804622F080423346114617E000291ADB8B
:1056A00025E0DFF8C8B0FB44002C04BFDBE90001B3
:1056B000BDE8F08D012C02BFDBE9000181F0004163
:1056C000BDE8F08D022C0AD0032C0CD0BA4212D1C6
:1056D000B8F1000F0BDA23482549BDE8F08D2846C4
:1056E0002449BDE8F08D28467146BDE8F08D1D487F
:1056F0002149BDE8F08D921B12153C2AC4BF194800
:105700001D490EDCBAF1000FBEBF12F13C0F0020A4
:10571000014606DB6246FAF772FF21F00041FFF70F
:1057200061FE002C08BFBDE8F08D012C04BF81F0A4
:105730000041BDE8F08D114A114B022C07D0FAF759
:10574000E6FE2A46BDE8F04D0A4BFAF7E0BEFAF74E
:10575000DEFE2A46BDE8F04D064BFAF7DBBE000040
:105760000000F07F182D4454FB2109C0662400007E
:10577000FB21F9BFFB210940FB21F93F075C1433F2
:1057800026A6A13C70B515460E460446FBF73EF82A
:1057900001D2344605E029462046FBF72DF800D219
:1057A0002C46204670BDEFF30580002800D0012074
:1057B00070470000FCF7FAF9FFF727F9FEF7BEF88B
:1057C000FEF736F9FEF736FAFEF79AF9FEF7F6F924
:1057D000FEF704F9FEF75AF96420FBF7AFFD4FF42A
:1057E0008045154C4FF47A7606E029462046FBF7B3
:1057F00047FF3046FBF7A2FD00F02AF80028F4D15D
:10580000FEF79AFA4FF4FA7606E029462046FBF7AF
:1058100037FF3046FBF792FDFEF76AFA0028F4D115
:10582000FEF79CFA012205490548FDF7C7FAFEF785
:105830000FF800F070F8FEE7000C0140F80C0020B3
:10584000700E002001460020842900D0C81C70473B
:10585000FEB52B4C002701262770CDE90046102508
:1058600033466B22D02127480295FCF7C9F8032064
:105870002070CDE9004601236B22D02121480295FA
:10588000FCF7BEF82770CDE9004601231922D0218C
:105890001C480295FCF7B4F804202070CDE90046BE
:1058A00001231A22D02117480295FCF7A9F8257088
:1058B000CDE9004601231C22D02112480295FCF7B5
:1058C0009FF818202070CDE9004601231B22D0212B
:1058D0000C480295FCF794F8CDE9004601237522A7
:1058E000D02108480295FBF77BFF6420FBF726FDDB
:1058F0002078682801D00120FEBD0020FEBD0000F8
:105900000A000020040D002010B500B9012001F0AC
:10591000ADF9002010BD10B501F05CFA002010BDFB
:10592000012001F015BB000038B5002405460094A5
:10593000FFF739FF90B16946284601F041FD012883
:1059400001D0FF2038BD009888B10A494FF080503F
:105950000860BFF34F8FBFF36F8F08E000231A4634
:105960001946284601F024FC012800D0FF242046D7
:1059700038BD000004ED00E038B505004FF0000030
:1059800000900FD00024481C0ED001B10C46FFF748
:105990000AFFB8B16A460021284601F05FFD0128E0
:1059A00018D104E0802038BD4FF0FF34EFE70098B5
:1059B00090B10A494FF080500860BFF34F8FBFF39A
:1059C0006F8F09E0002322461946284601F0F6FAB7
:1059D000012801D0FF2038BD002038BD04ED00E0D3
:1059E00010B5012901D0002010BD032200210120A3
:1059F00001F0C0FA040004D000231A46194601F051
:105A0000D7FB204610BD000038B5002405460094A1
:105A1000FFF7C9FE90B16946284601F0D1FC012884
:105A200001D0FF2038BD009888B10A494FF080505E
:105A30000860BFF34F8FBFF36F8F08E000231A4653
:105A40001946284601F0B4FB012800D0FF24204667
:105A500038BD000004ED00E038B505004FF000004F
:105A600000900FD00024481C0ED001B10C46FFF767
:105A70009AFEB8B16A460021284601F0EFFC0128E1
:105A800018D104E0802038BD4FF0FF34EFE70098D4
:105A900090B10A494FF080500860BFF34F8FBFF3B9
:105AA0006F8F09E0002322461946284601F086FA46
:105AB000012801D0FF2038BD002038BD04ED00E0F2
:105AC00010B501F07BFD012803D0BDE8104001F0C6
:105AD00029BA10BD3EB504460D46B0F90800FFF7DF
