:020000040800F2
:10000000403D002099010008294700089138000868
:10001000BD4600080D0B0008495B00080000000009
:1000200000000000000000000000000001010008C6
:10003000DD1300080000000045010008E954000835
:10004000B3010008B3010008B3010008B3010008C0
:10005000B3010008B3010008DF130008B301000872
:10006000B3010008B3010008B3010008B3010008A0
:10007000B3010008B3010008B3010008B301000890
:10008000B3010008B3010008B3010008B301000880
:10009000B3010008B3010008B3010008B301000870
:1000A000B3010008B3010008B3010008B301000860
:1000B000B9550008B3010008C5550008B301000890
:1000C000B3010008B3010008B3010008B301000840
:1000D000B3010008FD5A0008B3010008B30100088D
:1000E000B3010008B3010008B3010008DFF80CD029
:1000F00000F09CFC00480047B1620008403D002031
:10010000224B19680868B0E8F00F80F30988BFF344
:100110006F8F4FF0000080F311884EF00D0E704786
:100120000000000006480068006880F3088862B696
:1001300061B6BFF34F8FBFF36F8F00DF00BF00BF0B
:1001400008ED00E0EFF30980BFF36F8F0F4B1A68E3
:1001500020E9F00F106008B54FF0500080F31188CF
:10016000BFF34F8FBFF36F8F07F000FC4FF000001D
:1001700080F31188BDE8084019680868B0E8F00FFE
:1001800080F30988BFF36F8F704700BFD400002051
:10019000EFF3058070470000064880470648004797
:1001A000FEE7FEE7FEE7FEE7FEE7FEE7FEE7FEE727
:1001B000FEE7FEE771550008ED000008202A04DB89
:1001C000203A21FA02F00021704721FA02F3D040D0
:1001D000C2F12002914008431946704740EA0103EA
:1001E0009B0703D009E008C9121F08C0042AFAD2ED
:1001F00003E011F8013B00F8013B521EF9D27047B1
:10020000D2B201E000F8012B491EFBD27047002258
:10021000F6E710B513460A4604461946FFF7F0FF05
:10022000204610BDF0B480EA0102D40F4200B2EBC8
:10023000410F02D20246084611464A0042D0C30D81
:10024000DDB2C1F3C752AD1A202D35DAC1F3160164
:1002500041F4000204B15242C5F1200602FA06F14F
:100260002A411044B3EBD05F23D0C4B1012DA0EBE1
:10027000C35009DCF0BC4FF0004202EAC352DBB2CB
:1002800000F5000000F0F6BA400000F1807000EBCD
:10029000C350A0F1807040EAD170490009E04908DC
:1002A00041EAC071A0EBC35000F50000400800EB2C
:1002B000C350F0BC00F0D5BA6142012202EB41010B
:1002C000001BF6E7F0BC704781F00041AAE780F020
:1002D0000040A7E780EA010210B502F000434000A9
:1002E00022D04A001FD0010E01EB1261C0F356006C
:1002F000C2F3560240F4000042F40002A0FB0220C8
:1003000000047F39140400D0401C50EA124001D48C
:100310004000491EC2B20C0604EBD010401C40083D
:10032000802A02D003E0002010BD20F00100002947
:1003300000DA0020184310BD30B480EA010202F058
:10034000004530F0004221F0004013D090B1C30DC1
:10035000D40DC2F31601C0F31600E41A41F40001F3
:1003600040F400027D34914201D3641C00E0490056
:10037000002C02DA30BC002070474FF4000000234C
:10038000914201D3891A034340084FEA4101F7D152
:1003900051B1914202D14FF0004105E002D24FF03D
:1003A000010101E06FF0010103EBC450284430BCAF
:1003B00000F057BA420005D0C0F3C75252429142F2
:1003C00001DC0020704700EBC15070472DE9FE4F63
:1003D000804681EA0300C00F0C46009021F00041E6
:1003E00023F00045B8EB0200A94105D24046214662
:1003F00090461C460B46024623F00040104347D06F
:10040000270DC7F30A00C3F30A510290401A019066
:1004100040286BDAC3F3130040F4801B0098924627
:1004200020B10023D2EB030A63EB0B0B0198594672
:10043000C0F14002504600F0F3F906460D46504622
:100440005946019A00F0FBF910EB080061410024C5
:1004500087EA115284EAE7731A4340D0009A62B3E4
:10046000019A012A4FEA075215DC001B61EB0201D9
:100470004FF0004202EA0752CDE90042001C41F56C
:10048000801132462B4600F032FA03B0BDE8F08FFF
:1004900040462146F9E7001B61EB0201001C41F5D3
:1004A000801300185B412018A2F5001747EB0301E9
:1004B00040EAD570B6196D4111E06D084FEA360675
:1004C00045EAC0754FEA0752001B61EB0201001CB0
:1004D00041F5801149084FEA300000195141324678
:1004E0002B4603B0BDE8F04F00F0F2B900980122AE
:1004F00040000023D0EB020263EBE073009821463A
:100500004FEAE074B8EB000061EB0401E9E783F027
:1005100000435BE781F0004158E72DE9FE4F81EA97
:10052000030404F0004421F0004100944FF0000B5C
:1005300023F0004350EA01045ED052EA03045BD08A
:10054000C3F30A54C1F30A552C44A4F2F3340194C2
:10055000A0FB0254C1F3130141F48011C3F3130350
:1005600043F4801301FB024400FB034E840A970A04
:1005700044EA815447EA8357A4FB076802958D0A31
:1005800005FB07854FEA932C04FB0C542705029DBD
:100590004FEA065847EA1637B5EB08056EEB070C2D
:1005A000870E920E47EA811742EA8312A7FB0201E7
:1005B000B6EB0B0164EB00042B0D43EA0C335E1821
:1005C00044EB1C50DA465146E7FB0201C5F3130425
:1005D0004FEA0B3343EA14534FEA0432019C43EAD7
:1005E0000603A4F10C040294009CCDE900B400F0D1
:1005F0007EF903B0BDE8F08F00200146F9E72DE950
:10060000F04D81EA030404F0004B21F0004514464C
:100610004FF0000A23F0004150EA050220D054EACE
:1006200001021DD0C5F30A570246C5F31303C1F3F7
:100630001300C1F30A5640F4801543F48013A7EB6E
:100640000608101BD64608F2FD3873EB050002D3EE
:1006500008F1010801E092185B41B8F1000F03DADC
:1006600000200146BDE8F08D00204FF480110646C1
:1006700084460EE0171B73EB050705D3121B63EBD3
:10068000050306434CEA010C49084FEA3000921872
:100690005B4150EA0107EDD152EA030012D082EA31
:1006A000040083EA0501084305D0101BAB4106D2C4
:1006B0000122002306E000224FF0004302E06FF029
:1006C000010253101AEB06004CEB085110EB0A0024
:1006D00041EB0B01BDE8F04D00F0FAB870B521F028
:1006E000004303430CD0C1F30A550024D5EB0405A5
:1006F00064EB0403D617AD1AB34102DB00200146B8
:1007000070BD201841EB025170BDC10F80EAE0704E
:100710000844CA079623002100F0ACB896230022B3
:10072000114600F0A7B80EB540F233410291002106
:10073000CDE900110A460B4600F0D9F803B000BD20
:1007400000F0004220F00040C10DC0F3160040F45C
:1007500000007F2901DA00207047962903DCC1F1EF
:100760009601C84001E096398840002AF4D0404202
:10077000704720F00040C10DC0F3160040F40000A7
:100780007F2901DA00207047962903DCC1F1960128
:10079000C840704796398840704700F0004230F0FA
:1007A00000400AD0C10D01F56071C0F3160042EAA5
:1007B0000151C208400711437047002001467047AD
:1007C00001F0004330B421F0004150EA010206D0AC
:1007D0000A0DA2F56072C1F31301002A02DC30BCDD
:1007E00000207047440F44EAC104C100E01830BC47
:1007F00000EBC25000F035B8002801DBC0F100402A
:10080000002901DBC1F1004181427047002801DB72
:10081000C0F10040002901DBC1F10041884270476E
:10082000202A04DB203A00FA02F1002070479140B0
:10083000C2F1200320FA03F3194390407047202AA5
:1008400006DBCB17203A41FA02F043EAE07306E0F8
:1008500041FA02F3D040C2F1200291400843194608
:1008600070470029A8BF7047401C490008BF20F00E
:100870000100704710B4B0FA80FC00FA0CF050EAA6
:10088000010404BF10BC704749B1CCF1200421FA27
:1008900004F411FA0CF118BF012121430843A3EB22
:1008A0000C01CB1D4FEA00614FEA102042BF00202F
:1008B00010BC704700EBC35010440029A4BF10BC0B
:1008C0007047401C490008BF20F0010010BC704771
:1008D00010B5141E73F1000408DA401C41F1000148
:1008E00092185B411A4301D120F0010010BD2DE99F
:1008F000F04D92469B4611B1B1FA81F202E0B0FA96
:1009000080F220329046FFF78BFF04460F4640EA04
:100910000A0041EA0B0153465A46084313D01146D8
:1009200053EA010019D0C8F140025046FFF746FCD7
:1009300005460E46504659464246FFF771FF0843AA
:1009400005D0012004E020463946BDE8F08D0020A6
:10095000054346EAE0762C4337430A986305E40AE8
:10096000A0EB08000022FD0A44EA47540A3002D5F1
:1009700000200146E9E7010510196941DDE9084554
:1009800000196941BDE8F04DA2E72DE9F04D0023C3
:100990001A461B1A8A4103DB00200146BDE8F08D90
:1009A000C1F30A52C1F3130141F480154FF0000B5B
:1009B000D10702D100186D41521E0027044640F2B3
:1009C000FF11384601EB620A3E468046024600208F
:1009D0004FF48011FFF7F2FBC2197141BB1846EBCF
:1009E0000100B4EB030C75EB000C04D3E41A65EBC7
:1009F000000517460E46241908F101006D41804696
:100A00003428E3DDF91946EB0600091BA84103D29F
:100A10004FF0FF32134601E0002213461BEB0700A4
:100A200046EB0A51BDE8F04DFFF752BF064C074DAB
:100A300006E0E06840F0010394E8070098471034AE
:100A4000AC42F6D3FFF756FB84860008A486000864
:100A500070B5044600688168C943C9071CD1816824
:100A600021F00101816001F02BFA05460FE000BF83
:100A700001F026FA401B022809D9A06A40F01000B4
:100A8000A062E06A40F00100E062012070BD2068D1
:100A90008068C043C007EBD0002070BDF8B50026C9
:100AA0000446009600688168C943C90728D0816858
:100AB00041F001018160134813490068B0FBF1F077
:100AC00000E0401E00900028FBD101F0F9F9054636
:100AD00011E000BF01F0F4F9401B02280BD9A06A15
:100AE00040F01000A062E06A40F00100E06284F88B
:100AF00024600120F8BD20688068C043C007E9D1A8
:100B00000020F8BDAC00002040420F00FEE70000CE
:100B10002DE9F74FDFF808B4064682B0BBF90000B4
:100B20005D46A0F2DC50FFF7F0FDFE49FFF704FC44
:100B3000FD4C0146C4F8A0003046FFF773FB0646A3
:100B4000C4F8A4003146D4F8BC00FFF76BFBC4F82E
:100B5000BC0082463046D4F8AC10FFF7B5FBC4F8B1
:100B6000A800D4F8C06086F00040FFF716FE80466B
:100B700089463046FFF711FE06460F465046FFF7FE
:100B80000CFE3B463246CDE9008905F079FBFFF7C4
:100B9000BCFDC4F8BC00D4F8A4100646C4F8AC10E0
:100BA000D4F8B000FFF796FB8046C4F8C400314685
:100BB000D4F8B400FFF78EFBC4F8C8000746D4F899
:100BC000A810D4F8B800FFF785FB0646C4F8CC009F
:100BD00039464046FFF726FB3146FFF723FBC4F8B2
:100BE000D000B5F90200A0F2DC50FFF78EFDCD4930
:100BF000FFF7A2FB60600399FFF766FB0646A06063
:100C00003146206AFFF70EFB20628246304621699A
:100C1000FFF75AFBE060666A86F00040FFF7BDFD13
:100C2000804689463046FFF7B8FD06460F465046D7
:100C3000FFF7B3FD32463B46CDE9008905F020FBC6
:100C4000FFF763FD2062A168064621616069FFF736
:100C500041FB8046A0623146A069FFF73BFBE062A2
:100C60000746E168E069FFF735FB06462063394631
:100C70004046FFF7D7FA3146FFF7D4FA6063B5F97B
:100C80000600A0F2DC50FFF740FDA649FFF754FB39
:100C9000C4F83C010146C4F84001D4F84C01FFF708
:100CA00019FBC4F86C01DFF884A2D4F8D050C4F862
:100CB000D4509F49DAF85000FFF70CFB2946FFF7A4
:100CC000B1FA0546C4F8D8002946D4F8F000FFF779
:100CD000A9FAC4F8F00081462846D4F8E010FFF7DE
:100CE000F3FAC4F8DC00D4F8F45085F00040FFF7C4
:100CF00054FD06460F462846FFF74FFD80460D4639
:100D00004846FFF74AFD42462B46CDE9006705F00D
:100D1000B7FAFFF7FAFCC4F8F000D4F8D81005468B
:100D2000C4F8E010D4F8E400FFF7D4FA0746C4F89A
:100D3000F8002946D4F8E800FFF7CCFAC4F8FC0024
:100D40000646D4F8DC10D4F8EC00FFF7C3FA0546E9
:100D5000C4F8000131463846FFF764FA2946FFF728
:100D600061FAC4F80401656BA5637149DAF85400AF
:100D7000FFF7B0FA2946FFF755FA0546E063294622
:100D8000606DFFF74FFA606581462846616CFFF79A
:100D90009BFA2064A56D85F00040FFF7FEFC074636
:100DA00088462846FFF7F9FC05460E464846FFF7F9
:100DB000F4FCCDE900782A46334605F061FAFFF7E6
:100DC000A4FC6065E16B05466164A06CFFF782FAE4
:100DD0000746E0652946E06CFFF77CFA2066064688
:100DE000216C206DFFF776FA05466066314638467D
:100DF000FFF718FA2946FFF715FAA066D4F86C51E8
:100E0000C4F870514A49DAF85800FFF763FA2946E6
:100E1000FFF708FA0546C4F874012946D4F88C0196
:100E2000FFF700FAC4F88C0181462846D4F87C11FB
:100E3000FFF74AFAC4F87801D4F8905185F00040E1
:100E4000FFF7ABFC074688462846FFF7A6FC054699
:100E50000E464846FFF7A1FCCDE9007833462A4606
:100E600005F00EFAFFF751FCC4F88C01D4F87411A8
:100E70000546C4F87C11D4F88001FFF72BFA074629
:100E8000C4F894012946D4F88401FFF723FAC4F882
:100E900098010646D4F87811D4F88801FFF71AFAB9
:100EA0000546C4F89C0131463846FFF7BBF9294690
:100EB000FFF7B8F9C4F8A0010646BBF9042040F2D8
:100EC0001A4000271B4D82427EDD1B480178281FF7
:100ED000012903D011B1022946D081E0A2F57A722E
:100EE00002601046FFF711FC8146A0463146FFF72D
:100EF00099F9D8F8044182462146FFF7E5F9D8F878
:100F000068108846FFF7E0F9FFF733FC2880484671
:100F10003146FFF7D9F906462146FFF783F90DE080
:100F20002A07002000004041680B00207C010020BF
:100F3000A34C65425C000020520000204146FFF7B0
:100F4000C3F9FFF716FC688050462146FFF76AF99F
:100F50004146FFF767F9FFF70CFCA88030462146B1
:100F6000FFF7B2F9414636E00068FFF7CEFBD4F850
:100F70000812FFF757F981463146FFF753F9D4F8C5
:100F8000048182464146FFF79FF9A46E2146FFF790
:100F90009BF9FFF7EEFB288048463146FFF794F9AE
:100FA00006464146FFF73EF92146FFF78DF9FFF768
:100FB000E0FB688050464146FFF734F92146FFF7D1
:100FC00031F9FFF7D6FB00E00DE0A880304641463E
:100FD000FFF77AF92146FFF725F9FFF7CAFBE8800A
:100FE000288850B10AE0EF80AF806F802F802762A1
:100FF000C4F8BC706765C4F8F0702F80688800B9C9
:101000006F80A88800B9AF80E88800B9EF800948F0
:10101000007828B1E8880090AB886A88298803E0C6
:1010200000231A4619460097034803F048FB05B011
:10103000BDE8F08F50000020040F00202DE9F041A2
:101040000026044630464A1E04E0235C401C33441C
:10105000DEB2C0B29042F8DB601810F8010CB0426A
:101060007DD12078AA287AD16078AF2877D1A0786E
:1010700001280BD122798B49012A0BD0022A0ED0EC
:10108000032A0FD0042A6AD181F8A600A07802288A
:101090000BD019E081F8360000F02EFAF6E781F85F
:1010A0006E00F3E781F83600F9E72079012856D180
:1010B00006F04AF8A078314604F040F906F000F94D
:1010C000A078314604F03AF9A078774FDFF8DC8158
:1010D000774D10286FD1314604F030F9A08840BA1E
:1010E000FFF721FB3A464346FFF717FAFFF768FB85
:1010F000C5F8E400E08840BAFFF715FB3A464346DE
:10110000FFF70BFAFFF75CFBC5F8E800208940BA4F
:10111000FFF709FB3A464346FFF7FFF9FFF750FB9D
:10112000C5F8EC00608940BAFFF7FDFA3A4643463D
:10113000FFF7F3F9FFF744FBA864A08940BAFFF773
:10114000F2FA3A464346FFF7E8F9FFF739FBE8645D
:10115000E08940BAFFF7E7FA3A46434600E09EE0EE
:10116000FFF7DBF9FFF72CFB2865208A40BAFFF771
:10117000DAFA3A464346FFF7D0F9FFF721FBC5F804
:101180008001608A40BAFFF7CEFA3A464346FFF73D
:10119000C4F9FFF715FBC5F88401A08A40BAFFF730
:1011A000C2FA3A464346FFF7B8F9FFF709FBC5F81C
:1011B000880103F0A7FFA078112870D1314604F010
:1011C000BDF8A08840BAFFF7AEFA3A464646434615
:1011D000FFF7A3F9FFF7F4FAC5F8B000E08840BACA
:1011E000FFF7A1FA3A463346FFF797F9FFF7E8FA17
:1011F000C5F8B400208940BAFFF795FA3A4633465D
:10120000FFF78BF9FFF7DCFAC5F8B800608940BA40
:10121000FFF789FA3A463346FFF77FF9FFF7D0FA2E
:101220006861A08940BAFFF77EFA3A463346FFF775
:1012300074F9FFF7C5FAA861E08940BAFFF773FABD
:101240003A463346FFF769F9FFF7BAFAE861208AB0
:1012500040BAFFF768FA3A463346FFF75EF9FFF700
:10126000AFFAC5F84C01608A40BAFFF75CFA3A461B
:101270003346FFF752F9FFF7A3FAC5F85001A08AE9
:1012800040BAFFF750FA3A463346FFF746F9FFF700
:1012900097FAC5F85401BDE8F04103F0C1BFBDE8BD
:1012A000F08100007C010020FCA9F1D24D62503F8A
:1012B000680B0020234930B44A78234B002472B1D4
:1012C000012A13D0022A17D0032A1BD00B461E4D29
:1012D0009B78042A1D441DD0052A29D02FE0AA2876
:1012E0002DD101224A70187030BC7047AF2826D12A
:1012F00002224A705870F7E7F12820D203224A7080
:101300009870F1E732281AD204224A70D870087017
:101310008C70E9E70A7892B1521E12F0FF020A704F
:10132000287103F101038B70DED105204870DBE7E3
:101330004C7028710548006830BC05F0EBB84C7063
:10134000D2E700004C000020F80600208C000020AE
:10135000F0B521491F484FF4E16EB1F902600778FA
:10136000B1F90050B1F90440B1F9063000214FF451
:101370009662A7B9964212DC954210DC94420EDCCC
:1013800073450CDBB0F804C00CF1010C1FFA8CFCA7
:10139000A0F804C0BCF1030F02D9B7B101E081800D
:1013A0008FB193420FDC96420DDC94420BDC754505
:1013B00009DBC288521C92B2C280032A04D317F000
:1013C000FF0F01D00170C180F0BD0127077081803F
:1013D000E7E70000500000202A07002070470120A6
:1013E00000F07ABC06490020C8610648016941F056
:1013F00004010161016941F0400101617047000091
:10140000C80F002000200240064A0021D161064991
:101410000A6942F002020A614861086940F040002E
:1014200008617047C80F002000200240044B0022D2
:10143000DA61044A136943F00103136101807047C4
:10144000C80F00200020024014480022C168CB06CB
:10145000134904D5CA6942F00202CA611022C36866
:101460005B0705D5CB6943F00103CB6142F0040271
:10147000C369DB0707D0CB6943F00403CB61C169C3
:1014800021F00101C161A2F58071013901D0C26072
:101490007047C16921F00101C1617047002002401D
:1014A000C80F002070B5054600F00AFD0646114C35
:1014B00009E0681C07D025B100F002FD801BA8429E
:1014C00001D9032070BDE068C007F2D1E068800652
:1014D00001D52020E060E068C00605D4E069C007BF
:1014E00002D1E068400703D5FFF7AEFF012070BDD1
:1014F000002070BD0020024070B5264CC825002099
:101500006062A062E062E0652066606620E000BF85
:1015100003F068FBB4F93810E06D0844E065B4F9F5
:101520003A10206E08442066B4F93C10606E0844FE
:101530006066B4F90010606A08446062B4F9021091
:10154000A06A0844A062B4F90410E06A0844E062AA
:101550006D1EADB2DCD2E16DC82091FBF0F1A4F8B4
:101560004A10216E91FBF0F1A4F84C10616E91FBD2
:10157000F0F1A4F84E10616A91FBF0F16182A16A6A
:1015800091FBF0F124F8141FA16991FBF0F0608049
:1015900070BD00007C0100200EB56946009001205E
:1015A000019007200290074800F01CF8054800F061
:1015B000E1F90A21034800F045F9024800F090F8EB
:1015C00080B20EBDE80D00201CB50548D0E9071219
:1015D000CDE900128369503007C802F02DFB1CBD15
:1015E0007C010020F8B50024009490F824202546C2
:1015F000012A12D0012280F824204A681F23072ADA
:101600000DD20668776B521E02EB820293409F4315
:101610000B6893401F43776319E00220F8BD06680A
:101620000D2A0AD2376BD21F02EB820293409F43EE
:101630000B6893401F43376309E0F76A0D3A02EBEA
:10164000820293409F430B6893401F43F7620A68EE
:10165000072306680A2A0AD3F7680A3A02EB42020D
:1016600093409F438B6893401F43F76008E03769BE
:1016700002EB420293409F438B6893401F433761C4
:101680000A68102A01D0112A20D1124B02689A420E
:1016900017D193681B0219D4936843F40003936035
:1016A0000968102912D10C490C4A0968B1FBF2F102
:1016B00001EB8101490000E0491E00910029FBD1A6
:1016C00004E0816A41F020018162012480F8245005
:1016D0002046F8BD00240140AC00002040420F002D
:1016E0000068C06C704700002DE9F0414FF0000722
:1016F00004003D467ED0A06A002628B9E66284F840
:101700002460204600F07EF82046FFF7A1F9A16A88
:10171000C90600D420B1A06A40F01000A06269E0C0
:10172000A16A21F4885141F00201A1626268E16975
:10173000E3680A4347EA43010A43A1684FF480770C
:10174000B94209D0012907D05FF00001D4F814C0D4
:10175000BCF1010F02D00AE03946F7E7F3B1A36A02
:1017600043F02003A362E36A43F00103E3622368CA
:10177000D3F804C02CF4694C4CEA010CC3F804C043
:1017800021688B68DFF870C003EA0C0313438B6099
:10179000A168B9420BD0012909D00CE0DFF85CC088
:1017A000A3690CEB43330B4343F40061DFE7218A69
:1017B0000D05A5F580152168CB6A23F470032B4332
:1017C000CB62216889680E4B1940914208D1E662CC
:1017D000A16A21F0020141F00101A162BDE8F0819E
:1017E000A06A20F0020040F01000A062E06A40F021
:1017F0000100E0620120F1E7FDF7E1FF00E0FFFFFB
:10180000FE0E1FFF00B500680B4985B0884210D15D
:101810000A48816941F4007181618069694600F478
:10182000007004900820009003200190044800F00C
:101830005FFA05B000BD0000002401400010024026
:10184000000801402DE9F84300260D4604460096A5
:1018500000F036FB804620688168C90508D5A06A7B
:1018600040F02000A06284F824600120BDE8F883E5
:101870004168C90503D4C06A10F4700F26D0022055
:1018800000F054FE38490968B1FBF0F7206803699D
:1018900036490B424FEA61014FEAA1121BD1C368DE
:1018A0004FEA611C13EA0C0F15D103690B4221D1D9
:1018B000C06810421ED114201FE0681C06D045B33A
:1018C00000F0FEFAA0EB0800A84222D820680068C9
:1018D0008007F2D52AE003690B4202D1C1681142A8
:1018E00006D0026922490A4206D1C068084203D1E3
:1018F000542002E0292000E0FC204743009813E038
:10190000681C0ED02DB100F0DBFAA0EB0800A84255
:1019100007D9A06A40F00400A06284F82460032084
:10192000A4E70098401C0090B842E9D321686FF00A
:1019300012000860A06A40F40070A062206880680D
:10194000C0F3424007280CD1E06850B9A06A20F4E7
:101950008070A062A06AC00403D4A06A40F00100B5
:10196000A062002082E70000AC00002024499224FD
:101970004992240070B5044690F8240001280DD047
:10198000012084F824002046FFF788F802004FF079
:10199000000005D084F82400104670BD022070BD00
:1019A000A16A40F20123994341F48071A1621F4D65
:1019B00023681F49AB4218D10E6816F4702F14D05B
:1019C000A66A46F48016A6620E68760505D5A66A54
:1019D00026F4005646F48056A662A66AF6040AD596
:1019E000E66A26F00606E66206E0A66A26F4801697
:1019F000A6625E68E9E7E06284F824006FF0020006
:101A0000186020688368C3F34243072B05D1A842BE
:101A100008D1096811F4702F04D0816841F4801155
:101A20008160B9E7816841F4A001F9E7002801402D
:101A30000424014010B590F821100024022903D09D
:101A40000421816301243DE001680A6822F00E024E
:101A50000A6001680A6822F001020A601A4A0168F5
:101A6000914201D1012121E0174A1432914201D162
:101A700010211BE0144A2832914201D1891515E04A
:101A8000114A3C32914201D189140FE00E4A503282
:101A9000914202D14FF4803108E00B4A6432914206
:101AA00002D14FF4801101E04FF08071064A083AEC
:101AB0005160012180F82110002180F82010416B35
:101AC00001B18847204610BD0800024070B50446A9
:101AD00000F0F6F90546601C02D004480078044482
:101AE00000F0EEF9401BA042FAD370BDA000002028
:101AF0002DE9F047054626480F460126017E0129BB
:101B00000FD00121814601762868DFF888804CF2E9
:101B10005034022808D0A2462046FFF7C3FCA8B1E3
:101B200031E00220BDE8F0872046FFF7BBFC08BB90
:101B30000120FFF757FC2046FFF7B4FCD8F810103F
:101B4000064621F00401C8F810101CE04FF0FF30E9
:101B50003860AC6811E02046FFF756FC5046FFF7AE
:101B6000A1FCD8F81010060021F00201C8F81010EE
:101B700001D03C6007E004F58064D5E9020100EB88
:101B80008120A042E7D8002189F818103046C9E723
:101B9000C80F0020002002400348016941F0800185
:101BA0000161002070470000002002402DE9F05F35
:101BB00007461C4888460024017E15461E4601291A
:101BC00009D00121814601764CF2503A5046FFF788
:101BD00069FC18B122E00220BDE8F09F012F02D07D
:101BE000022F00D00427D346DFF83CA0220128466C
:101BF0003146FEF7E3FA81B208EB4400FFF716FC2A
:101C00005846FFF74FFCDAF8102022F00102CAF81C
:101C1000102018B9641CE4B2BC42E7D3002289F852
:101C20001820D9E7C80F00200020024006490020F4
:101C30000A69120607D5054A4A60054A4A600969D9
:101C4000090600D5012070470020024023016745A6
:101C5000AB89EFCD10B5072002F00AFE1B49044600
:101C600000204860A00609D502F096FD202127201B
:101C700002F074FEFF21E12002F070FE600616D52E
:101C80004021272002F06AFE20221149612002F043
:101C9000CBFDFF21E22002F061FE0D4803F016F9B2
:101CA00002F074FF4FF400510A4800F0FFF8E0061C
:101CB0000BD502F071FD1021272002F04FFEFF210D
:101CC000BDE81040E12002F049BE10BD0000002038
:101CD00049010020000C0140044910B50A68024285
:101CE00002D00860FFF7B6FF10BD000014040140E9
:101CF0002DE9F84FDFF890A100220AF1040B1446F9
:101D000001274FF00F090BF1040E00BF0B6807FA13
:101D100004F52B40AB4274D1DFF870C14E68A6EBDE
:101D20000C0866452BD00DDC032E34D005DC36B311
:101D3000012E19D0022E2FD11BE0112E16D0122EFB
:101D40002AD119E0B8F5881F19D006DCB8F5803F14
:101D500015D0B8F5801F1FD111E0B8F5001F0ED0C7
:101D6000B8F5041F18D10AE0CA6815E0CA68121D48
:101D700012E0CA6808320FE0CA680C320CE08A68C8
:101D80002AB1012A4FF0080203D0456104E0042281
:101D900002E0056100E00022FF2B01D8064601E0C9
:101DA00000F104064FEA840501D9A5F12005D6F813
:101DB00000C009FA05F82CEA080C02FA05F54CEA0D
:101DC000050CC6F800C04D68ED0057D5304DAE6922
:101DD00046F00106AE61AD6924F0030605F0010589
:101DE00000952C4D06EB050CDCF80850A6074FEAD1
:101DF000167809FA08F6B543274EB04202D10026FC
:101E000010E03BE0254EB04201D101260AE0244E0D
:101E1000B04201D1022605E0224EB04201D1032694
:101E200000E0042606FA08F62E43CCF808604D6858
:101E3000DAF80060ED03554601D51E4300E09E43ED
:101E40002E604D68DBF80060AD035D4601D51E4392
:101E500000E09E432E604D68DEF80060ED0275469E
:101E600001D51E4300E09E432E604D68AD020E4D2D
:101E70002E6801D51E4300E09E432E60641C102C8A
:101E8000FFF444AFBDE8F88F0004014000001110DA
:101E9000001002400000014000080140000C014019
:101EA00000100140001401400C040140C2684A4087
:101EB000C26070470AB1016170470904FBE7000086
:101EC0000148806870470000A000002070B5040041
:101ED0001BD094F83D00002520B984F83C502046E2
:101EE00000F042FA242084F83D002068016821F0C7
:101EF0000101016000F0A4FC404A6168914201D8F0
:101F00003F4900E03F49884201D2012070BD3E496F
:101F10002368B0FBF1F159606368934206D94FF42E
:101F2000967359434FF47A73B1FBF3F12368491C5C
:101F300019626168914210D84900401EB0FBF1F26D
:101F4000521CC2F30B02042A01D2042022E0B0FB8F
:101F5000F1F0401CC0F30B001CE0A368CBB301EB15
:101F6000C10202EB0116421EB2FBF6F2521C42F411
:101F70008042120536D06BB301EBC10202EB0111B6
:101F8000401EB0FBF1F0401CC0F30B0040F4804059
:101F900040F400402168C861D4E907010843216882
:101FA0000860D4E90310084321688860D4E905017A
:101FB00008432168C8602068016841F001010160A0
:101FC0002564202084F83D00256384F83E500020DD
:101FD00070BD00E008E001EB4106421EB2FBF6F2E4
:101FE000521CC6E70120D5E701EB4101401EB0FBC2
:101FF000F1F0401CC0F30B00CAE70000A08601000E
:1020000080841E0000093D0040420F002DE9FF4F73
:1020100083B09A46DDE9118793460446DDF8409087
:10202000FFF74EFF054694F83D00202872D1192392
:1020300001227B492046009501F02FFD0028F5D1B3
:1020400094F83C00012865D0012084F83C00206809
:102050000168C90703D1016841F0010101602068EE
:10206000016821F400610160222084F83D004020D5
:1020700084F83E0000262664C4F82490A4F82A8040
:102080006848E062608D2085CDE9007553465A4668
:102090002046049901F011FC28B1206C84F83C60C2
:1020A000042851D075E0208DDFF87C8168B10128CB
:1020B00014D00228206801681ED041F480610160BC
:1020C00020684169806900909BE0206841698169CE
:1020D0000091016841F40071016092E0206801689C
:1020E00021F48061016072B62068416981690091C4
:1020F000016841F400710AE041F40061016072B6C8
:102100002068416981690091016821F48061016062
:1021100062B676E081E0032850D801280BD002286F
:102120003B464FF0000241462046009512D001F098
:10213000B4FC70BB13E02A463946204601F022FD6C
:1021400030B1206C202824D0012007B0BDE8F08FEA
:1021500020684BE001F0A1FCD8B972B61BE0206802
:10216000016821F48061016072B620680169606ACB
:10217000421C62620170208D401E2085608D401ED1
:1021800060853B46002241462046009501F085FCD3
:1021900008B10320D9E72068016841F400710160AB
:1021A00020680169606A421C62620170208D401ED5
:1021B0002085608D401E608562B6C9E72A46394693
:1021C000204601F0DFFC0028BBD120680169606A6D
:1021D000421C62620170208D401E2085608D401E71
:1021E000608520684169C94349070AD40169606A6A
:1021F000421C62620170208D401E2085608D401E51
:102200006085208D002886D1202084F83D0084F848
:102210003E6084F83C60002097E7022095E70000CC
:10222000020010000000FFFF040001002DE9FF4F35
:1022300083B09A46DDE9118793460446DDF8409065
:10224000FFF73EFE064694F83D0020287DD1192375
:10225000012243492046009601F01FFC00287CD152
:1022600094F83C00012878D0012084F83C002068D4
:102270000168C90703D1016841F0010101602068CC
:10228000016821F400610160212084F83D004020B4
:1022900084F83E0000252564C4F82490A4F82A8020
:1022A0003048E062608D2085CDE9007653465A467D
:1022B0002046049901F07AFB80B3206C84F83C50EE
:1022C000042848D008E032463946204601F08BFC0D
:1022D00030B1206C042839D0032007B0BDE8F08F5E
:1022E000606A411C6162216800780861208D401E8F
:1022F00080B22085618D491E618521684A69D2437B
:1023000052070BD468B1606A421C626200780861AF
:10231000208D401E2085608D401E6085208D002808
:10232000D1D132463946204601F090FB0028D0D169
:1023300054F83D0B016841F400710160202004F85D
:102340001E09E57765770020C7E706E02068016889
:1023500041F4007101600120BFE70220BDE70000E9
:10236000020010000000FFFF00B500680C4985B0B6
:10237000884212D1C02000901220019003200390C7
:1023800069460848FFF7B4FC0748C16941F40011E9
:10239000C161C06900F40010049005B000BD0000E8
:1023A00000540040000C01400010024002488168C7
:1023B0000278114481607047A0000020074810B5E2
:1023C000016841F010010160032000F09DF80F202A
:1023D00000F006F800F024F8002010BD00200240B4
:1023E00070B50D4D04464FF47A712878B1FBF0F0CA
:1023F0000A490968B1FBF0F000F060FD48B9102C03
:1024000007D200222146501E00F05EF800206C60CA
:1024100070BD012070BD0000A0000020AC000020B5
:10242000214808B5816941F001018161816901F0AC
:1024300001010091C16941F08051C161C06900F0A2
:1024400080500090032000F05FF8002211466FF0EA
:102450000B0000F039F8002211466FF00A0000F07E
:1024600033F8002211466FF0090000F02DF8002229
:102470001146501F00F028F800221146101F00F0EE
:1024800023F800220F21901E00F01EF800220F21D9
:10249000501E00F019F80548416821F0E06141F054
:1024A0000071416008BD00000010024000000140C2
:1024B00000F01F02012191404009800000F1E0205E
:1024C000C0F8001170470000F0B40E4B1B680C46BA
:1024D000C3F30223C3F10705042D00D90425191DF8
:1024E000072901D2002300E0DB1E012606FA05F1D0
:1024F000491E214099409E40761E16403143F0BC53
:1025000002F072BA0CED00E0064900F0070208681C
:102510004FF6FF03184040EA0220034A10430860C8
:10252000704700000CED00E00000FA0510B529A48A
:1025300001461DCC86B08DE81D002AA02A4C0068FB
:1025400004900020012923D002293AD010291DD15E
:1025500061682268D20119D5C1F38342C9031DF80D
:10256000020009D5616804AAC1F34041515C1F4AC9
:10257000B2FBF1F1484301E01D494843616849025B
:1025800004D440005FF00301B0FBF1F006B010BDD1
:10259000226AC2F30121012903D1920701D5C803A0
:1025A000F4E7022905D1626A920702D549F6404054
:1025B000ECE70329EAD121688903E7D54FF22440EB
:1025C000E4E700F04DF96168C1F38131491C49002D
:1025D000DAE7000002030405060708090A0B0C0DE0
:1025E0000E0F1010010200000010024000127A00CD
:1025F00000093D002DE9F84305460078354CC00739
:1026000054D0E0690026C00008D4E06940F0805052
:10261000E061E069012600F0805000902E480168DA
:10262000C90512D40168804641F480710160FFF74A
:1026300047FC074605E000BFFFF742FCC01B6428CB
:1026400023D8D8F80000C005F6D5206A10F44070F1
:1026500021D0A98801F4407181421CD0206A1F4911
:10266000012220F440700A6000220A602062C00744
:1026700011D0FFF725FC074641F2883808E000BF7B
:10268000FFF71EFCC11B414502D90320BDE8F883BA
:10269000206A8007F4D5206A696820F440700843F6
:1026A00020621EB1E06920F08050E0612878800748
:1026B00005D56068A96820F4404008436060287828
:1026C000C00605D56068E96820F4800008436060B2
:1026D0000020DBE70010024000700040400442424E
:1026E0002DE9F047DFF83C8105460E46D8F800009A
:1026F00000F00700B0420CD2D8F8001021F007011A
:102700003143C8F80010D8F8000000F00700B042CC
:1027100063D12878444C800705D56068A96820F00B
:10272000F000084360602878C00745D06868012839
:1027300016D02168022816D0890700294DDA616871
:1027400021F0030101436160FFF7BAFB69680746A6
:1027500041F2883001290FD00229814619D027E0A3
:1027600021688903E9E78901E7E700BFFFF7A8FBD4
:10277000C11B494501D918E081466068C0F381005A
:102780000128F3D118E000BFFFF79AFBC11B4945B0
:102790000BD86068C0F381000228F5D10CE000BFBF
:1027A000FFF78EFBC11B494502D90320BDE8F08726
:1027B000606810F00C0FF3D1D8F80010404601F01B
:1027C0000701B1420BD9016821F0070131430160D3
:1027D000006800F00700B04201D00120E6E7287849
:1027E000400705D56068E96820F4E0600843606050
:1027F0002878000706D56068296920F4605040EA0F
:10280000C100606000F03CF86168084AC1F3031140
:10281000515CC840064908600F20FFF7E1FD002029
:10282000C4E7000000200240001002402885000894
:10283000AC0000200148006870470000AC00002098
:102840000448054900684968044AC1F30221515C03
:10285000C8407047AC0000200010024038850008D6
:102860000448054900684968044AC1F3C221515C23
:10287000C8407047AC0000200010024038850008B6
:1028800012A185B00FC98DE80F0014A0144A00688A
:1028900004905168134801F00C03042B10D0082B4E
:1028A0000ED1C1F38343C9031DF803000AD5516853
:1028B00004AAC1F34041515C0A4A5043B0FBF1F015
:1028C00005B0704708494843FAE7000002030405D1
:1028D000060708090A0B0C0D0E0F1010010200006C
:1028E0000010024000127A0000093D002DE9F84F67
:1028F00004460078B94DC00748D06868C0F381002D
:10290000012807D06868C0F38100022809D16868EF
:10291000C00306D52868800338D5606800286FD0CA
:1029200034E06068B0F5803F0BD010B1B0F5A02F57
:1029300011D0286820F480302860286820F4802096
:1029400002E0286840F480302860606888B1FFF7B2
:10295000B7FA064609E0286840F480202860F0E7CE
:10296000FFF7AEFA801B642875D828688003F7D576
:102970000CE0FFF7A5FA064605E000BFFFF7A0FA56
:10298000801B6428F0D828688003F7D42078944E00
:1029900080074FF001094FF000083BD5686810F040
:1029A0000C0F07D06868C0F38100022809D168685D
:1029B000C00306D42868800714D5206901281FD1D8
:1029C00010E02069B0B1C6F80090FFF779FA074629
:1029D00005E000BFFFF774FAC01B0228C4D82868BE
:1029E0008007F7D52868616920F0F80040EAC10047
:1029F00028600FE0C6F80080FFF762FA074606E09D
:102A0000E9E000BFFFF75CFAC01B022823D8286862
:102A10008007F7D4207800072CD57248A169D9B176
:102A2000C0F80090FFF74CFA074604E0FFF748FAB9
:102A3000C01B02280FD8686A8007F7D56A484FF490
:102A4000FA510068B0FBF1F0009000BF0098411E01
:102A50000091FAD20EE080E0C0F80080FFF730FA73
:102A6000074604E0FFF72CFAC01B022875D8686AF5
:102A70008007F7D42078400760D5E8690027C000B8
:102A800008D4E86940F08050E861E869012700F067
:102A90008050009055480168C90513D401688346E9
:102AA00041F480710160FFF70BFA824606E000BF37
:102AB000FFF706FAA0EB0A0064284ED8DBF8000006
:102AC000C005F5D5E06801280AD008B1052813D063
:102AD000286A20F001002862286A20F0040002E041
:102AE000286A40F001002862E06841F2883B98B112
:102AF000FFF7E6F982460BE0286A40F004002862FE
:102B0000EEE700BFFFF7DCF9A0EB0A0159455AD800
:102B1000286A8007F6D50CE0FFF7D2F9824605E077
:102B2000FFF7CEF9A0EB0A0159454CD8286A800777
:102B3000F6D41FB1E86920F08050E861E06988B3FD
:102B40006968C1F38101022945D00228C6F8608076
:102B500004D0FFF7B5F9044638E034E0FFF7B0F9E8
:102B6000074604E0FFF7ACF9C01B02282BD8286801
:102B70008001F7D4206AB0F5803F05D16868A1686C
:102B800020F4003008436860D4E90801084369680C
:102B900021F4741108436860C6F86090FFF790F95B
:102BA000044606E015E000BFFFF78AF9001B022883
:102BB00009D828688001F7D50BE000BFFFF780F93E
:102BC000001B022802D90320BDE8F88F2868800185
:102BD000F4D40020F8E70120F6E7000000100240DE
:102BE0000000424280044242AC00002000700040DD
:102BF00070B5040005D00025A56294F8510010B10D
:102C000004E0012070BD204600F034F8022084F872
:102C100051002068016821F040010160D4E9010100
:102C20000843D4E903121143084361690843218B27
:102C300001F400710843E1690843216A0843A16A6D
:102C4000084321680860A069042101EA1040616A14
:102C50000843216848602168E06A08612068C1690A
:102C600021F40061C1616565012084F851000020F4
:102C700070BD000010B50068114986B088421CD1B3
:102C80001048816941F48051816180690E4C00F4E3
:102C900080500490A0200090022001900320039017
:102CA00069462046FFF724F800214020CDE90001C5
:102CB000029169462046FFF71BF806B010BD0000E0
:102CC0000030014000100240000801402DE9F84F9B
:102CD000044690F8500000260A9F9A4693460D46F7
:102CE0004FF0010801280ED0012084F85000FFF7B2
:102CF000E7F8814694F85100616801280CD0B1F5DD
:102D0000827F07D102E00220BDE8F88FA16809B9EF
:102D1000042801D00226BDE055B1BBF1000F07D059
:102D2000BAF1000F04D094F85100012802D004E059
:102D30000126AFE0052084F8510000206065C4F84A
:102D400038B0A4F83EA0A4F83CA02563A4F836A0AF
:102D5000A4F834A02064606420680168490603D4A4
:102D6000016841F040010160E068B0F5006F606803
:102D700004D0E8B3E08E01283BD06AE010B1E08EC9
:102D800001282ED1216835F8020BC860E08E401E64
:102D9000E08626E0B8F1000F0DD0E08E58B1206833
:102DA0008168890707D535F8021BC160E08E401E97
:102DB000E0864FF00008E08F58B120688168C907AD
:102DC00007D0C0682BF8020BE08F401EE0874FF061
:102DD0000108781C05D0FFF773F8A0EB0900B84292
:102DE00046D2E08E0028D5D1E08F0028D2D136E03F
:102DF000FFE7216815F8010B0873E08E401EE0869E
:102E000027E000BFB8F1000F0DD0E08E58B1206868
:102E10008168890707D515F8011B0173E08E401EF4
:102E2000E0864FF00008E08F58B120688168C9073C
:102E300007D0C0680BF8010BE08F401EE0874FF011
:102E40000108781C05D0FFF73BF8A0EB0900B84259
:102E50000ED2E08E0028D5D1E08F0028D2D13B469B
:102E6000012202212046CDF8009002F071F808B14D
:102E700003260FE04A463946204602F059F818B1B9
:102E800001262020606505E0A06818B92068C168A7
:102E900080680090012084F85100002084F85000E0
:102EA000304631E74FF0E0210428086903D020F0D4
:102EB00004000861704740F00400FAE710B5401EB6
:102EC000B0F1807F01D3012010BD4FF0E02460619C
:102ED0000F21601701F088FD0020A061072020610C
:102EE000002010BD7047704730B590F83C20012A93
:102EF00020D0012280F83C20022380F83D30036876
:102F00005C6824F070045C6003685C680D682C43A6
:102F10005C6003689C6824F080049C6003689C6883
:102F200049680C439C6080F83D20002180F83C10EB
:102F3000084630BD022030BD10B5040003D094F81F
:102F40003D0010B107E0012010BD002084F83C00D6
:102F5000204600F00DF8022084F83D00211D206875
:102F600002F036FB012084F83D00002010BD000077
:102F700008B501681448B1F1804F14D0134A91424A
:102F800020D1C16941F00401C161C069002200F093
:102F90000400009007211E20FFF796FA1E20BDE8CE
:102FA0000840FFF785BAC16941F00101C161C069FC
:102FB000002200F00100009008211C20FFF784FA95
:102FC0001C20ECE708BD0000001002400008004093
:102FD00070B5044690F83C00012817D0012584F80C
:102FE0003C50022084F83D002068826822F077027D
:102FF00022F47F4282600868502837D00DDC2028F8
:1030000059D005DC88B3102841D151E0022070BDB1
:10301000302853D040283AD13FE060282ED0702885
:103020000BD0B0F5805F03D0B0F5005F2FD110E07A
:103030002068816821F0070115E0CB68D1E9012102
:10304000206802F006FB2168886840F077008860FD
:103050001DE0CB68D1E90121206802F0FAFA20686E
:10306000816841F48041816011E01EE0CA684968CE
:10307000206802F0A3FB5021206806E0CA68496876
:10308000206802F0ACFB6021206802F0ECFA84F8C2
:103090003D50002084F83C0070BDCA684968206833
:1030A00002F08CFB40212068EFE700212068ECE76C
:1030B00010212068E9E720212068E6E73021206818
:1030C000E3E7704770B50446006801694FF00005FA
:1030D000C943890715D4C168C943890711D4E91EBA
:1030E000016101202077206880698007204602D096
:1030F000FFF7E7FF04E000F0B7F8204600F04CF9D6
:10310000257720680169C943490717D4C168C943B5
:10311000490713D46FF00401016102202077206871
:10312000806910F4407F204602D0FFF7CAFF04E018
:1031300000F09AF8204600F02FF925772068016901
:10314000C943090716D4C168C943090712D46FF0EF
:1031500008010161042020772068C06980072046AB
:1031600002D0FFF7AEFF04E000F07EF8204600F04A
:1031700013F9257720680169C943C90617D4C168C6
:10318000C943C90613D46FF01001016108202077EC
:103190002068C06910F4407F204602D0FFF791FFFD
:1031A00004E000F061F8204600F0F6F8257720688A
:1031B0000169C943C90708D1C168C943C90704D116
:1031C000891E0161204600F001F920680169C943A8
:1031D000090609D4C168C943090605D46FF0800106
:1031E00001612046FFF77EFE20680169C943490658
:1031F00009D4C168C943490605D46FF04001016193
:10320000204600F067F920680169C94389060BD49C
:10321000C168C943890607D46FF0200101612046C7
:10322000BDE87040FFF75FBE70BD00001FB50068CD
:103230000A49884211D13320009002200190039066
:1032400069460748FEF754FD0648416821F440618D
:1032500041F0E06141F4006141601FBD00040040A5
:10326000000C014000000140704770B5044690F822
:103270003C000D4601280DD0012684F83C60022058
:1032800084F83D0042B1042A18D0082A2AD00C2A1A
:103290004DD139E0022070BD206802F0EDF92068C0
:1032A000816941F0080181612068816921F0040190
:1032B0008161206881692A69114311E0206802F068
:1032C00003FA2068816941F40061816120688169A5
:1032D00021F480618161206881692A6941EA0221C3
:1032E000816124E0206802F01BFA2068C16941F086
:1032F0000801C1612068C16921F00401C161206831
:10330000C1692A69114311E0206802F035FA20688A
:10331000C16941F40061C1612068C16921F4806123
:10332000C1612068C1692A6941EA0221C16184F84A
:103330003D60002084F83C0070BD10B5040003D04F
:1033400094F83D0010B107E0012010BD002084F882
:103350003C00204600F00CF8022084F83D00211DBE
:10336000206802F035F9012084F83D00002010BDEE
:1033700008B500680649884208D10648C16941F08D
:103380000201C161C06900F00200009008BD0000A8
:1033900000040040001002407047000010B50446D1
:1033A0000068012202F04AF907492068884203D1E7
:1033B000416C41F4004141642068016841F0010121
:1033C0000160002010BD0000002C01402DE9F041FB
:1033D0000546006839493A4C884245D16068401C2E
:1033E0006060C0070BD101F0FDFB01F00DFBFEF7A3
:1033F000EBF834488268D0E90010FDF789FB60687B
:10340000072190FBF1F201FB120131B10D2190FB7C
:10341000F1F201FB120028B106E003F055FD03F0C4
:10342000BFFD01E003F038FE6068142190FBF1F26B
:1034300001FB1200244EDFF894804FF4805728B926
:10344000307818B139464046FEF730FD60684FF4D9
:10345000FA7190FBF1F201FB12003178084303D1BD
:1034600039464046FEF722FD2868B0F1804F22D150
:10347000174800250168491C0160A268521CA2601F
:103480000A290CDB0560072001F0F2F920700146E3
:10349000272001F063FAFF21E22001F05FFAA06823
:1034A000642808DB0320A560FEF776F86080BDE89D
:1034B000F04101F06DBABDE8F08100000008004065
:1034C00090000020D406002050000020000C014095
:1034D000040000207047704770B502680446106809
:1034E000D168536910F00F0F50D003F0010501F4BB
:1034F000907635435DD0C20705D0CA0503D5E26B8F
:1035000042F00102E263420705D5DA0703D0E26B1D
:1035100042F00202E263820705D5DA0703D0E26BCC
:1035200042F00402E263020705D5DA0703D0E26B3A
:1035300042F00802E263E26B002A33D0800604D531
:10354000880602D5204602F072F920684069E16BD6
:10355000C0F38010090700D428B3204602F059F9BF
:103560002068416949061AD5416921F0400141614D
:10357000606BA0B11B494163606BFEF75BFA0028EA
:1035800010D0606B416BBDE870400847830610D5D2
:103590008B060ED52046BDE8704002F048B92046A3
:1035A000FFF799FF70BD2046FFF795FF0020E0630D
:1035B00070BD030606D50B0604D52046BDE8704055
:1035C00002F038BA4006F3D54806F1D5D168204656
:1035D00021F04001D160202184F8391000F057F922
:1035E00070BD00000358000870B5040004D094F8C2
:1035F0003900002510B106E0012070BD84F8385074
:10360000204600F023F8242084F839002068C1689F
:1036100021F40051C160204602F054F9206801698C
:1036200021F4904101612068416921F02A01416142
:103630002068C16841F40051C160E563202084F82E
:10364000390084F83A00002070BD000010B5006811
:10365000184986B088422BD11748816941F48041CE
:1036600081618069154C00F4804004904FF4007033
:103670000090022001900320039069462046FEF747
:1036800037FB00212015CDE9000102916946204653
:10369000FEF72EFB002206212520FEF715FF252030
:1036A000FEF706FF064801220178064800F068F898
:1036B00006B010BD00380140001002400008014073
:1036C0009C000020840F00202DE9F843044690F868
:1036D0003A00994616460D4620284FD195B18EB135
:1036E00094F83800012849D0012084F838000027D8
:1036F000E763222084F83A00FEF7E2FBA6858046C5
:10370000E68531E00120BDE8F883E08D401EE085CC
:10371000A0684346B0F5805F4FF000024FF02001F3
:103720002046CDF8009004D002F0B5F998B10320FE
:10373000E9E702F0B0F90028F9D1206900282068F3
:10374000406803D0C1B225F8011B0DE0C0F30801A9
:1037500025F8021B08E0206900282068406801D095
:1037600000F07F0005F8010BE08D0028CDD120206E
:1037700084F83A0084F838700020C4E70220C2E7D9
:1037800090F83A30202B22D1F9B1F2B190F83830CC
:10379000012B1CD081628285C2850021C163222257
:1037A00080F83A2080F838100168CA6842F48072C4
:1037B000CA6001684A6942F001024A610068C16852
:1037C00041F02001C16000207047012070470220B5
:1037D000704770472DE9F843044690F839001F46BA
:1037E00016460D46202850D1A5B19EB194F8380058
:1037F00001284AD0012084F838004FF00008C4F8AE
:103800003C80212084F83900FEF75AFBA6848146CB
:10381000E68426E00120BDE8F883E08C401EE084C9
:10382000A0684B46B0F5805F4FF000024FF080017A
:103830002046009703D002F02EF9E8B90DE002F01F
:103840002AF9C8B928882168C0F3080048602069AF
:1038500008B16D1C05E0AD1C03E0216815F8010BF3
:103860004860E08C0028D8D14B46002240212046F9
:10387000009702F010F908B10320CCE7202084F86B
:10388000390084F838800020C5E70220C3E770477C
:10389000FEE701684A69D24352050CD46FF4806296
:1038A0004A6104210164002140F8301F2022427344
:1038B000017301207047002070472DE9F84F04463E
:1038C000006889460B9D01689846174641F480615F
:1038D00001602068016841F48071016000954FF03B
:1038E000011A0022514620460A9B00F0D6F8F0BB90
:1038F000216809F0FE0008610AF1010B2B465946C8
:1039000020460A9A00F0FAF818B1206C042812D068
:103910003AE020684169806900902A4620460A9969
:1039200000F061F950B1206C04282DD120680168A5
:1039300041F4007101600120BDE8F88FFEB2B8F1DA
:10394000010F09D02168380A08612A4620460A99E1
:1039500000F049F90028E6D1206806612A46204691
:103960000A9900F040F90028DDD1206800E00BE062
:10397000016841F4807101600095002251462046A3
:103980000A9B00F08AF808B10320D5E7216809F006
:10399000FF0040F0010008612B46594620460A9A74
:1039A00000F0ACF80028B0D1C6E700002DE9F843DC
:1039B000044600680D46DDE90897016898461646FA
:1039C00041F4807101604B4600224FF00111204606
:1039D000009700F062F8E8B9216805F0FE00086180
:1039E0003B464A461849204600F088F828B1206C2A
:1039F00004280FD10120BDE8F8832068416980695F
:103A000000903A464946204600F0EDF820B1206C7F
:103A1000042813D00320EEE7F5B2B8F1010F09D066
:103A20002168300A08613A464946204600F0DBF832
:103A30000028ECD1206805610020DCE720680168DF
:103A400041F400710160D5E70200010070B516462F
:103A50000D4604461AE02046FFF71BFF08B101207F
:103A600070BD681C12D025B1FEF72AFA801BA8424F
:103A70000CD954F8400F40F0200044F81009002001
:103A80002060202161732073032070BD206840698D
:103A9000C0434007DFD4002070BD2DE9F0471E462B
:103AA00090460D460446C1F30747DDF8209012E02A
:103AB000701C10D02EB1FEF703FAA0EB0900B04243
:103AC00009D9002044F8300F20216173A0732073BE
:103AD0000320BDE8F0872068012F0AD0806925EA1D
:103AE00000000004000C06D000214145E0D0002079
:103AF000EFE74069F3E70121F7E700002DE9F04720
:103B00009A4691460D46044600264FF02008C1F320
:103B100007472AE020684069C043400512D4206866
:103B2000016841F40071016021686FF480604861B0
:103B300004202064266384F83D8084F83C600120E2
:103B4000BDE8F087B9F1FF3F0FD0B9F1000F05D004
:103B5000FEF7B6F9A0EB0A01494506D944F8306FE3
:103B600084F80D8026730320EAE72068012F07D030
:103B7000D0F8180025EA00000004000CE0D0C9E7E6
:103B80004069F7E72DE9F041002590460E460446CE
:103B9000202721E04069C043C0060CD421686FF0A3
:103BA000100048612564256384F83D7084F83C501A
:103BB0000120BDE8F0812EB1FEF782F9A0EB0800EC
:103BC000B04209D954F8400F40F0200044F80409ED
:103BD000677025700320ECE720684169C9434906F6
:103BE000D8D40020E5E770B516460D4604461AE025
:103BF0002046FFF74EFE08B1012070BD681C12D0B0
:103C000025B1FEF75DF9801BA8420CD954F8400F8E
:103C100040F0200044F8100900202060202161734A
:103C20002073032070BD20684069C0430006DFD4C4
:103C3000002070BDFDF7C8BC2DE9FF4FDFF894856B
:103C400093B04446D8F80C100E463046FCF742FBC1
:103C50000690216930460D46FCF73CFB07906169F0
:103C600030460F46FCF736FB294604900846FCF721
:103C700031FB0590A16928460E46FCF72BFB39461F
:103C800001900846FCF726FB039031463846FCF7C6
:103C900021FB314600900846FCF71CFB0290A16A0C
:103CA0000B910846FCF716FB1090E16A0E46304671
:103CB000FCF710FB0D90216B09910846FCF70AFBFD
:103CC000616B81468A465046FCF704FB0F905046D4
:103CD0001599FCF7FFFA074614990998FCF7FAFAC8
:103CE000054686F000401399FCF7F4FA2946FCF7E4
:103CF000EBFA3946FCF7E8FADFF8DCB45F465946E0
:103D0000FCF7E8FA0B99FCF78DFAA06205465046DD
:103D10001499FCF7DFFA119015990998FCF7DAFA73
:103D20000E9029461398FCF7D5FA0E99FCF77AFA0B
:103D30001199FCF7C9FA3946FCF7CCFA3146FCF781
:103D400071FA0646E06251461398FCF7C3FA0E90EA
:103D500030461599FCF7BEFA0B9028461499FCF7EB
:103D6000B9FA0B99FCF7B0FA0E99FCF75BFA3946F1
:103D7000FCF7B0FA0999FCF755FA0146206313984D
:103D8000FCF7A8FA099030461499FCF7A3FA064606
:103D900028461599FCF79EFA3146FCF743FA099933
:103DA000FCF792FA3946FCF795FA5146FCF73AFAD5
:103DB00060630D991098FCF735FA4946FCF732FA22
:103DC0000F99FCF72FFAFCF7E8FC03F09FFBFCF7D8
:103DD000F7FC05460146A06AFCF7AEFAA062294648
:103DE000E06AFCF7A9FAE0622946206BFCF7A4FA26
:103DF00020632946606BFCF79FFA60632099169850
:103E0000FCF768FA2199FCF765FA10F0FF4F7DD0B6
:103E100021990846FCF75EFA209905460846FCF70A
:103E200059FA169904460846FCF754FA2146FCF75D
:103E3000F9F92946FCF7F6F9FCF7AFFC03F066FB4D
:103E4000FCF7BEFC044601461698FCF775FA82465C
:103E500021462098FCF770FA209021462198FCF723
:103E60006BFA814604990198FCF72EFA0121FCF7C0
:103E7000A1FA064600990798FCF7D4F90121FCF74E
:103E800099FA0546DDE90510FCF71EFA0399FCF7DF
:103E90001BFA0299FCF7C6F9044629464846FCF786
:103EA00019FA074621462098FCF714FA3946FCF720
:103EB0000BFA074621465046FCF70CFA04463146F9
:103EC0004846FCF707FA2146FCF7FEF981463146E1
:103ED0002098FCF7FFF9044629465046FCF7FAF90A
:103EE0002146FCF7F1F9D8F80810824644460D4601
:103EF0003846FCF7EFF9E169FCF794F98046E06198
:103F000029464846FCF7E6F9216A00E05FE1FCF744
:103F100089F90646206229465046FCF7DBF9616ABA
:103F2000FCF780F905466062606839460746FCF791
:103F3000D1F91399FCF776F94146FCF773F98046FD
:103F400049463846FCF7C6F91499FCF76BF9314637
:103F5000FCF768F9064651463846FCF7BBF9159957
:103F6000FCF760F92946FCF75DF907460146A069B0
:103F70000490FCF7AFF98246606931460190FCF786
:103F8000A9F9054620694146814680F00040FCF7CA
:103F9000A1F92946FCF798F95146FCF795F95946DD
:103FA000FCF798F9E168FCF73DF90546E060314619
:103FB0000498FCF78FF9079039460198FCF78AF9C5
:103FC000824629464046FCF785F95146FCF72AF916
:103FD0000799FCF779F95946FCF77CF94946FCF753
:103FE00021F92061814640460499FCF773F9089055
:103FF00039464846FCF76EF9824631462846FCF7BA
:1040000069F95146FCF760F90899FCF70BF9594634
:10401000FCF760F90199FCF705F90146606140463B
:10402000FCF758F9804631464846FCF753F90646F6
:1040300039462846FCF74EF93146FCF7F3F841467D
:10404000FCF742F95946FCF745F90499FCF7EAF800
:10405000A061DDE90510FCF7E5F80399FCF7E2F84B
:104060000299FCF7DFF8FCF798FB03F04FFAFCF736
:10407000A7FB05460146E068FCF75EF98146E06073
:1040800029462069FCF758F9824620612946606973
:10409000FCF752F9804660612946A069FCF74CF9AB
:1040A00006460121A061FCF785F93146FCF712F9BB
:1040B00005464FF040414046FCF70CF94146FCF7FD
:1040C00009F92946FCF700F94FF07E5B5946FCF7E9
:1040D000A9F8FCF762FB07460D4601214846FCF7AC
:1040E00069F93146FCF7F6F8064601215046FCF71F
:1040F00061F94146FCF7EEF83146FCF793F8FCF71E
:104100004CFB3A462B4601F0FBFF4FF0C0494A46B4
:10411000324BFCF702FAFCF753FB314E0121B06041
:1041200060690546FCF746F982462946FCF7D2F855
:10413000054620694FF040418046FCF7CBF84146E8
:10414000FCF7C8F82946FCF7BFF85946FCF76AF8AF
:10415000FCF723FB07460D460121E068FCF72AF92E
:104160004146FCF7B7F880465046A169FCF7B2F823
:104170004146FCF757F8FCF710FB3A462B4601F096
:10418000BFFF184F4A463B46FCF7C7F9FCF718FB40
:1041900070600121E068FCF70DF96169FCF79AF89D
:1041A00005464FF040412069FCF794F8A169FCF7FF
:1041B00091F82946FCF736F8FCF7EFFA01F058FDC4
:1041C0004A463B46FCF7A9F9FCF7FAFA306017B00B
:1041D000BDE8F08F140000206F12833A94A94CC000
:1041E000D406002094A94C4070B516460A460546F0
:1041F00031461046FCF76EF8044631464FF07E50CB
:10420000FCF762F82946FCF765F82146BDE87040E6
:10421000FCF708B83EB5134811490124016000219C
:104220008160C16041614FF460220461C2614160FC
:10423000FDF75AFA18B14D210BA001F086FC0320BE
:10424000CDE900040720029069460648FDF7CAF947
:10425000002803D0572104A001F077FC3EBD0000E8
:1042600000240140E80D00202E2E2F5372632F6191
:1042700064632E630000000030B5A7B0002523A8BA
:10428000239502F0D3F8354C0121206224A824950F
:1042900002F02CF96062012125A8259502F026F98B
:1042A000A0622F48002201210068269026A802F073
:1042B000AFF92B49E0611422091D6846FBF78EFF18
:1042C0000021684602F08CF925492060142218313B
:1042D00005A8FBF783FF002105A802F081F920491A
:1042E000606014222C310AA8FBF778FF00210AA88D
:1042F00002F076F91A49A060142240310FA8FBF7AA
:104300006DFF00210FA802F06BF91549E06014223F
:10431000543114A8FBF762FF002114A802F060F9E1
:104320000F4920611422683119A8FBF757FF0021BB
:1043300019A802F055F90A49606114227C311EA8BF
:10434000FBF74CFF00211EA802F04AF9A0610521ED
:10435000E06902F06FF927B030BD00006400002072
:10436000988400082DE9F041274886B0816941F022
:1043700020018161816901F020010491816941F08E
:1043800004018161816901F004010491816941F0B6
:104390000801816180691D4F00F00800049001222E
:1043A00012213846FDF786FDDFF864804FF4E046C1
:1043B000012231464046FDF77DFD0124154869463E
:1043C000CDE9004038460294FDF792FC1220CDE979
:1043D0000004032569463846CDE90245FDF788FC0F
:1043E000CDE9006469464046CDE90245FDF780FC11
:1043F000002207210620FEF767F80620FEF758F88E
:1044000006B0BDE8F0810000001002400008014045
:10441000000C0140000021100E4810B50C4901604D
:104420000D49416000214FF480428160C0E90312D0
:1044300041618161C1610162FDF748FD002805D03D
:10444000BDE810404C2105A001F07FBB10BD00006D
:1044500000540040180E0020A08601002E2E2F537D
:1044600072632F6932632E6300000000114810B59B
:104470000F4901604FF48271416000218160C16089
:104480004FF400720161C0E905121022C0E9072152
:10449000416281620A21C162FEF7AAFB002805D0B1
:1044A000BDE810404F2104A001F04FBB10BD00003B
:1044B000003001406C0E00202E2E2F5372632F739C
:1044C00070692E630000000010B5174886B04FF0E9
:1044D0008041016047210024C0E901146321C0E943
:1044E00003148461FEF728FD18B151210FA001F0DB
:1044F0002CFB4FF48050009069460B48FEF768FD96
:1045000018B1572109A001F020FB049404A9064822
:104510000594FEF7E9FC002803D05E2103A001F01A
:1045200014FB06B010BD0000C40E00202E2E2F5329
:1045300072632F74696D2E630000000010B5294866
:104540008AB02749016047210024C0E9011440F2E4
:10455000AF41C0E903148461FEF7EFFE18B170218A
:1045600021A001F0F2FA079407A91E480894FEF76B
:10457000BBFC18B177211CA001F0E7FA6020CDE95F
:10458000000402940022694616480494FEF76DFE6A
:1045900018B1802114A001F0D8FA0422694611480C
:1045A000FEF763FE18B185210FA001F0CEFA0822B4
:1045B00069460C48FEF759FE18B18A210AA001F09D
:1045C000C4FA0C2269460748FEF74FFE18B18F2146
:1045D00005A001F0BAFA0348FEF728FE0AB010BDA4
:1045E00000040040040F00202E2E2F5372632F74FE
:1045F000696D2E630000000010B5184886B016499A
:10460000016047210024C0E9011440F2E731C0E90C
:1046100003148461FEF790FC18B1A32110A001F0EF
:1046200094FA4FF48050009069460C48FEF7D0FC95
:1046300018B1A9210AA001F088FA049404A9074836
:104640000594FEF751FC002803D0B02104A001F02E
:104650007CFA06B010BD000000080040440F0020A6
:104660002E2E2F5372632F74696D2E63000000008D
:104670000D4810B50B4901604FF4E1314160002154
:1046800081600C22C160C0E904128161C161FEF742
:10469000ABFF002805D0BDE810404C2103A001F07D
:1046A00054BA10BD00380140840F00202E2E2F5325
:1046B00072632F75736172742E630000FEE7F0B5AC
:1046C00087B007466020CDE90001002015460C9E0A
:1046D0000290024604901C4669463846FEF7C5FD26
:1046E00000213846FEF75AFE0422694638460195F5
:1046F000FEF7BBFD04213846FEF750FE082269464E
:1047000038460194FEF7B1FD08213846FEF746FE13
:104710000C22694638460196FEF7A7FD0C21384663
:10472000FEF73CFE07B0F0BD704700001FB50FA1BB
:104730000522D1E90001CDE9020102A9302000F0F3
:10474000E9F805226946102000F06EF8002069465D
:104750000A5CA52A03D1401CC0B20528F8D305285D
:1047600002D0012004B010BD0020FBE7A5A5A5A53F
:10477000A500000010B5FFF779FE064C00221021BD
:104780002046FDF797FB20460122BDE8104002219C
:10479000FDF790BB0008014010B5214C002210210C
:1047A0002046FDF787FB0321232000F0D7F80522E0
:1047B0001C49302000F0AEF81A490522491D2A2074
:1047C00000F0A8F81A21242000F0C8F801212220C6
:1047D00000F0C4F80121212000F0C0F82021312090
:1047E00000F0BCF80F490522491D2A2000F092F87C
:1047F0002821252000F0B2F80F21262000F0AEF885
:104800000F21202000F0AAF87E21272000F0A6F832
:1048100020460122BDE810401021FDF74BBB0000EF
:10482000000801408C8400082DE9F041DFF83C804D
:1048300015460F460446002202214046FDF73AFB8A
:10484000204600F061FB0646002405E0FF2000F052
:104850005BFB3855641CE4B2AC42F7D30122022161
:104860004046FDF727FB3046BDE8F08100080140D7
:1048700070B50A4D0446002202212846FDF71AFBB6
:10488000204600F041FBFF2000F03EFB04460122E1
:1048900002212846FDF70EFB204670BD00080140AE
:1048A00010B51A4C002210212046FDF703FB05220B
:1048B0001749302000F02EF815490522491D2A20FD
:1048C00000F028F80121212000F048F801212220E1
:1048D00000F044F81A21242000F040F82821252077
:1048E00000F03CF82021312000F038F80F2126207C
:1048F00000F034F80E21202000F030F8204601228C
:10490000BDE810401021FDF7D5BA000000080140B5
:104910008C8400082DE9F041DFF83C8016460D46F6
:104920000446002202214046FDF7C4FA204600F06A
:10493000EBFA0746002405E015F8010B00F0E4FA55
:10494000641CE4B2B442F7D3012202214046FDF7D1
:10495000B1FA3846BDE8F0810008014070B50B4D52
:104960000E460446002202212846FDF7A3FA2046FF
:1049700000F0CAFA0446304600F0C6FA01220221CD
:104980002846FDF797FA204670BD00000008014058
:1049900010B588B0044620216846FBF738FCAF20EC
:1049A0008DF8000000208DF80100200A8DF802002B
:1049B0008DF8034033200B4C8DF8040000221021A9
:1049C0002046FDF777FAFFF76BFF20226946A0200B
:1049D000FFF7A0FF012210212046FDF76BFA08B077
:1049E00010BD0000000801400907090E002806DA82
:1049F00000F00F0000F1E02080F8141D704700F176
:104A0000E02080F8001470472DE9F047594C00274A
:104A10003E4634F9100B3D46B4F90210401A60616D
:104A200034F90E0CB4F90410401AA06134F90C0CDE
:104A3000E061B4F92A00B4F93C10401AE064B4F91A
:104A40003A10B4F92820891A2165B4F92C10B4F968
:104A50003E20891A6165FBF758FE8146B4F92E00A5
:104A6000FBF753FEDFF8108149464246FFF7BCFBD7
:104A7000FBF766FEE085206DFBF747FE8146B4F943
:104A80003000FBF742FE42464946FFF7ADFBFBF71D
:104A900057FE2086606DFBF738FE8046B4F9320081
:104AA000FBF733FE354A4146FFF79EFBFBF748FE16
:104AB00000B260868046B4F92E00FBF726FEDFF8D0
:104AC000C0904946FBF706FC2064B4F93000FBF7C0
:104AD0001CFE4946FBF7FEFB60644046FBF715FEF3
:104AE0004946FBF7F7FB2849A064264A4878A38A81
:104AF00002F1C80C22F81030238B2CF81030B4F8D7
:104B00001C8002F5C873E14623F81080B846103CBB
:104B100032F918C0674439F918C0664433F918C02F
:104B200008F1010808F0FF086544B8F1640FEFD3FD
:104B30006423401CC2B297FBF3F096FBF3F695FB9F
:104B4000F3F34A7000B2E08036B226811DB265816F
:104B5000642A01D100224A70FBF7D7FDA0613046DC
:104B6000FBF7D3FDE0612846FBF7CFFD2062BDE8EF
:104B7000F08700007C010020CDCCCC3DCDCC4C3D5D
:104B8000E4A40B3A7C04002014000020114910B565
:104B90004878401C48701048A0F11604C188E18094
:104BA000418861800188218080883221A0F2DC5018
:104BB00000B290FBF1F0A188084400B2A080FBF79E
:104BC000A4FD064A064901F05BFBFBF7B9FDA08096
:104BD00010BD0000500000204007002000007A4473
:104BE0000000FA443EB5104C80200E210094CDE91F
:104BF000011001233B22D0210C48FDF707FA208841
:104C000041BA04F110000180618849BA4180A1884D
:104C100049BA8180218949BA0187618949BA4187A6
:104C2000A18949BA81873EBD6C010020180E002081
:104C300010B5164C01221648B4F94A10123400F08F
:104C4000D3F91348B4F93A100122801C00F0CCF9D2
:104C50000F48B4F93C100122001D00F0C5F90C48C2
:104C6000B4F900100122801D00F0BEF90848B4F923
:104C700002100122083000F0B7F9B4F9041004481A
:104C80000122BDE810400A3000F0AEB97C010020DE
:104C900000FC00083EB501226946424800F0A4F934
:104CA0004048012201A9801C00F09EF93D480122E4
:104CB00002A9001D00F098F9BDF80000FBF72EFDD9
:104CC000394D2946FBF738FB384CA064BDF8040089
:104CD000FBF724FD2946FBF72FFBE064BDF8080035
:104CE000FBF71CFD2946FBF727FB20652D48012219
:104CF0006946801D00F078F92A48012201A9083090
:104D000000F072F92748012202A90A3000F06CF97C
:104D1000BDF80000FBF702FD2946FBF70DFBC4F8C8
:104D2000E400BDF80400FBF7F9FC2946FBF704FB9F
:104D3000C4F8E800BDF80800FBF7F0FC2946FBF7D3
:104D4000FBFAC4F8EC001748012269460C3000F069
:104D50004BF91448012201A90E3000F045F9114821
:104D6000012202A9103000F03FF9BDF80000FBF766
:104D7000D5FC2946FBF7E0FAC4F88001BDF8040031
:104D8000FBF7CCFC2946FBF7D7FAC4F88401BDF841
:104D90000800FBF7C3FC2946FBF7CEFAC4F88801EC
:104DA0003EBD000034FC000800007A44680B00207F
:104DB0003EB501226946424800F016F940480122FA
:104DC00001A9801C00F010F93D48012202A9001D34
:104DD00000F00AF9BDF80000FBF7A0FC394D2946A8
:104DE000FBF7AAFA384C6061BDF80400FBF796FCAB
:104DF0002946FBF7A1FAA061BDF80800FBF78EFC7D
:104E00002946FBF799FAE0612D48012269460830EE
:104E100000F0EAF82A48012201A90A3000F0E4F87B
:104E20002748012202A90C3000F0DEF8BDF800008E
:104E3000FBF774FC2946FBF77FFAC4F8B000BDF815
:104E40000400FBF76BFC2946FBF776FAC4F8B400C4
:104E5000BDF80800FBF762FC2946FBF76DFAC4F8C1
:104E6000B8001748012269460E3000F0BDF814481A
:104E7000012201A9103000F0B7F81148012202A95F
:104E8000123000F0B1F8BDF80000FBF747FC2946EE
:104E9000FBF752FAC4F84C01BDF80400FBF73EFCE6
:104EA0002946FBF749FAC4F85001BDF80800FBF7A2
:104EB00035FC2946FBF740FAC4F854013EBD00001A
:104EC00020FC000800007A44680B0020C17AA52964
:104ED00017D10178C90714D0C178827801EB02227A
:104EE00008498A804279037902EB0322CA80427A18
:104EF000037A02EB03220A80C279807902EB002058
:104F0000488070474007002038B5074C0123621CD9
:104F10002070FF200090511E0448FDF7D7FE08B115
:104F2000FF2038BD607838BD000000206C0E0020E6
:104F300038B50B46009204460022802100F008F8A4
:104F4000002804D0606D40F020006065032038BD6B
:104F50002DE9F0411D4617460E460446DDF818803F
:104F600035E0681C33D02DB1FCF7AAFFA0EB080098
:104F7000A8422CD32068416821F0E00141606068BC
:104F8000B0F5827F0BD1A068B0F5004F02D0B0F52C
:104F9000806F04D12068016821F040010160A06A9F
:104FA000B0F5005F0AD1206801684DF6FF7211402C
:104FB00001602068016841F400510160012084F81B
:104FC0005100002084F850000320BDE8F0812068E3
:104FD000806836EA000004D00020B842C1D1002029
:104FE000F3E70120F9E7000010B5002306E000BF59
:104FF00050F8024B21F813405B1C9BB29342F7D34D
:1050000010BD00002DE9F74F82B01546029C8A467C
:10501000A4F10064B4F5803F58D2FCF707FEA70A5C
:10502000C4F34806C6F50074A54200D82C46DFF844
:10503000A4904FF4007B00BF4FF0006000EB87208E
:1050400080465A462349FFF7CFFF00204FF6FF71F5
:1050500006E0331839F813208A4203D1401C80B28D
:10506000A042F6D3A0422BD21A480021103801608A
:105070000121C0E902816946FCF73AFD002825D1EB
:10508000494606E03AF810208319401C21F8132005
:1050900080B2A042F6D340465A460E4900F01CF8B2
:1050A000A54211D002980AEB440A20440290281B22
:1050B000002685B25C467F1CA542BDD82C46BBE7C6
:1050C000224651460298E9E7FCF766FD05B0BDE8C7
:1050D000F08F0000680700202DE9F04116460F46CA
:1050E000054600240AE000BF37F8142000232946B3
:1050F0000120FCF75BFD641CA4B2AD1CB442F3D3E9
:10510000BDE8F0813EB5434C434D2946A06CFBF70A
:10511000E1F8FBF72EFBADF800002946E06CFBF749
:10512000D9F8FBF726FBADF804002946206DFBF704
:10513000D1F8FBF71EFBADF808000122694637489D
:10514000FFF760FF3548012201A9801CFFF75AFFD5
:105150003248012202A9001DFFF754FF2946D4F866
:10516000E400FBF7B7F8FBF704FBADF800002946B5
:10517000D4F8E800FBF7AEF8FBF7FBFAADF8040053
:105180002946D4F8EC00FBF7A5F8FBF7F2FAADF8E6
:105190000800224801226946801DFFF733FF1F489F
:1051A000012201A90830FFF72DFF1C48012202A9A6
:1051B0000A30FFF727FF2946D4F88001FBF78AF869
:1051C000FBF7D7FAADF800002946D4F88401FBF7C5
:1051D00081F8FBF7CEFAADF804002946D4F888012F
:1051E000FBF778F8FBF7C5FAADF808000B48012289
:1051F00069460C30FFF706FF0848012201A90E306E
:10520000FFF700FF0548012202A91030FFF7FAFE60
:105210003EBD0000680B002000007A4434FC00080A
:105220003EB5434C434D29466069FBF753F8FBF705
:10523000A0FAADF800002946A069FBF74BF8FBF790
:1052400098FAADF804002946E069FBF743F8FBF74C
:1052500090FAADF80800012269463748FFF7D2FE00
:105260003548012201A9801CFFF7CCFE32480122FB
:1052700002A9001DFFF7C6FE2946D4F8B000FBF7CF
:1052800029F8FBF776FAADF800002946D4F8B40007
:10529000FBF720F8FBF76DFAADF804002946D4F8C7
:1052A000B800FBF717F8FBF764FAADF808002248DE
:1052B000012269460830FFF7A5FE1F48012201A917
:1052C0000A30FFF79FFE1C48012202A90C30FFF7AD
:1052D00099FE2946D4F84C01FAF7FCFFFBF749FA8E
:1052E000ADF800002946D4F85001FAF7F3FFFBF7B8
:1052F00040FAADF804002946D4F85401FAF7EAFF61
:10530000FBF737FAADF808000B48012269460E306A
:10531000FFF778FE0848012201A91030FFF772FE5E
:105320000548012202A91230FFF76CFE3EBD0000C5
:10533000680B002000007A4420FC0008F0B589B01A
:105340000E46074600252C4620216846FAF75FFFE7
:10535000AA208DF800008DF80100EF208DF80200E2
:1053600002208DF803008DF804708DF80560684602
:10537000015D641C2944E4B2CDB2062CF8D3094C7B
:105380008DF80650FF21206801F07CF828B9FF2332
:10539000072269460448FEF71DFA206801F04AF822
:1053A00009B0F0BD84000020840F0020FFF700FD4D
:1053B000FFF770FC054C00BFD4E90010A268FBF7B2
:1053C000A7FB052001F026F8F6E70000D406002030
:1053D000642001F01FF8FBE7642001F01BF8FBE7F5
:1053E000FFF726FC074D4FF4805400BFFFF7FAFB90
:1053F000FFF70AFB21462846FCF758FD012001F083
:1054000009F8F3E7000C01400025154F154C4FF447
:105410007A76A84620686D1C401CADB22060FBF770
:1054200097FFB54207D900250320FCF7B5F880B2F5
:105430003880FFF7ADFA2068B0420CDB0720C4F8D3
:105440000080FFF715FA01462720FFF787FAFF21B2
:10545000E220FFF783FA012000F0DCFFDAE700002A
:105460009200002004000020084D094C0A21A86A7F
:1054700001F078F828B92078401DC1B20548FBF743
:10548000DDFD642000F0C6FFF0E7000064000020AE
:105490004E000020F8060020124D0024641CA4B227
:1054A0001021286A00F0EEFF40B9012C0DD0022C2B
:1054B0000ED0032C0FD0042C10D00024286A00F04A
:1054C000B9FF0A2000F0A6FFE8E701F069FDF5E763
:1054D00001F0FAFCF2E701F0B7FFEFE701F0DCFDC5
:1054E000ECE700006400002010B5FCF75FFFBDE8AA
:1054F000104001F06BB830B593B001210804CDE93C
:1055000000100025029502240491CDE907404FF4D4
:10551000A01009906846FDF7E9F900B1FEE70AA975
:105520000F2081E831004FF48060CDE90D050221A4
:105530000AA8FDF7D5F800B1FEE74FF480401190BE
:105540000F940FA8FDF756F800B1FEE7FDF772F9CA
:105550004FF47A71B0FBF1F0FDF7B0FC0420FDF7D9
:10556000A1FC00220F21501EFCF7AEFF13B030BD8E
:105570000D48016841F00101016041680B4A11408A
:10558000416001680A4A11400160016821F48021EC
:105590000160416821F4FE0141604FF41F01816008
:1055A0000449C00308607047001002400000FFF883
:1055B000FFFFF6FE08ED00E00148FDF783BD0000A7
:1055C000C40E00200148FDF77DBD0000440F0020FF
:1055D000F0B50268164B174C174D4FF080479842B4
:1055E00005D0B84203D0A04201D0A84203D122F096
:1055F00070064A683243984205D0B84203D0A042B0
:1056000001D0A84203D122F44074CA68224322F098
:1056100080044A69224302608A68C2620A68826220
:10562000984201D10969016301214161F0BD000087
:10563000002C0140000400400008004010B5012388
:10564000046A8B409C430462036A8A4013430362EA
:1056500010BD10B5846842EA032224F47F440A4353
:105660002243826010BD826822F070020A4342F039
:10567000070181607047000030B5026A22F0010224
:105680000262026A4368846924F073050C682C4343
:1056900022F002058A682A430A4DA8420BD122F063
:1056A0000805CA6823F440732A434D6922F00402B6
:1056B0001D438B692B4343608461496841630262E7
:1056C00030BD0000002C014030B5026A22F010020B
:1056D0000262026A436884690D6824F4E64444EA7D
:1056E00005248D6822F0200242EA05120B4DA842E3
:1056F0000ED1CD6822F0800242EA05124D6923F4F2
:10570000406343EA85038D6922F0400243EA850342
:105710004360846149688163026230BD002C0140AE
:1057200030B5026A22F480720262036A4268C46978
:1057300023F4007324F073050C682C438D6843EA4E
:1057400005230C4DA8420ED1CD6823F4006343EA33
:1057500005234D6922F4405242EA05128D6923F473
:10576000806342EA05124260C4614968C163036212
:1057700030BD0000002C014030B5026A22F4805296
:105780000262046A4268C3690D6823F4E64343EA8F
:1057900005238D6824F4005444EA0534064DA842DC
:1057A00004D14D6922F4804242EA85124260C3610D
:1057B00049680164046230BD002C014010B5036AE1
:1057C000046A24F001040462846924F0F00444EAC9
:1057D000021423F00A020A438461026210BD10B56C
:1057E000036A23F0100303628369046A23F470439D
:1057F00043EA023224F0A00343EA0111826101620C
:1058000010BD10B5406A0021C185C184FDF763FE5B
:1058100010BD0168CA6822F49072CA6001684A69C2
:1058200022F001024A61202180F83A10704710B539
:1058300090F83A10222901D0022010BD8168B1F5FC
:10584000805F11D00169002901681FD0496801F00B
:105850007F03816A4A1C82620B70C18D491E090454
:10586000090CC18518D02BE00269816A002A026800
:10587000526805D0D2B20A80816A491C8162ECE785
:10588000C2F308020A80816A891CF7E74A68816AC4
:105890004B1C83620A70E0E70168CA6822F02002AC
:1058A000CA600168CA6822F48072CA6001684A69E5
:1058B00022F001024A61202180F83A10FDF789FFA9
:1058C000002010BD2DE9F041044600680169E2683E
:1058D00021F44051114301612169A06808436169C5
:1058E00008432168CA6841F20C639A430243CA60C4
:1058F00020684169A26921F44071114341614C491A
:1059000020686425322688423CD1FCF7A9FF00EBD1
:10591000C00101EB001061688900B0FBF1F7FCF7F2
:105920009FFF00EBC00101EB00106168B0468900E9
:10593000B0FBF1F0B0FBF5F06FF01801484307EB56
:10594000800106EB0110B0FBF5F000F0F006FCF76B
:1059500087FF00EBC00101EB001061688900B0FB1C
:10596000F1F0B0FBF5F006EB0016FCF779FF00EB69
:10597000C00101EB001061688900B0FBF1F7FCF792
:105980006FFF3BE0FCF75CFF00EBC00101EB001098
:1059900061688900B0FBF1F7FCF752FF00EBC00132
:1059A00001EB00106168B0468900B0FBF1F0B0FB7C
:1059B000F5F06FF01801484307EB800106EB01108A
:1059C000B0FBF5F000F0F006FCF73AFF00EBC00189
:1059D00001EB001061688900B0FBF1F0B0FBF5F05D
:1059E00006EB0016FCF72CFF00EBC00101EB0010EA
:1059F00061688900B0FBF1F7FCF722FF00EBC00102
:105A000001EB001061688900B0FBF1F0B0FBF5F02C
:105A10006FF01801484307EB800108EB0110B0FB61
:105A2000F5F0216800F00F0030448860BDE8F08197
:105A30000038014090F83910212901D00220704728
:105A40008168B1F5805F016A0BD04A1C026202686E
:105A500009785160C18C491E0904090CC1840ED01B
:105A600017E009880268C1F3080151600169002943
:105A7000016A02D0491C0162ECE7891CFBE701685E
:105A8000CA6822F08002CA600068C16841F0400123
:105A9000C160002070472DE9F041984617460E4638
:105AA0000446069D1DE0681C1BD02DB1FCF708FACA
:105AB000A0EB0800A84214D92068C16821F4D07175
:105AC000C1602068416921F001014161202084F812
:105AD000390084F83A00002084F838000320BDE83B
