:020000040800F2
:1000000030140020D15A0008E9020008EB02000871
:10001000EF020008F3020008F702000800000000E9
:10002000000000000000000000000000FB020008CB
:10003000FD02000800000000FF02000801030008A4
:10004000EB5A0008EB5A0008EB5A0008EB5A00087C
:10005000EB5A0008EB5A0008494D0008EB5A00081B
:10006000EB5A0008EB5A0008EB5A0008EB5A00085C
:10007000EB5A0008EB5A0008EB5A0008EB5A00084C
:10008000EB5A0008EB5A0008EB5A0008EB5A00083C
:10009000EB5A0008EB5A0008EB5A0008EB5A00082C
:1000A000EB5A0008EB5A0008EB5A0008EB5A00081C
:1000B0009D0A0008EB5A00083F0B0008EB5A0008A5
:1000C000EB5A0008EB5A0008EB5A0008EB5A0008FC
:1000D000EB5A00088D5A0008EB5A0008EB5A00084A
:1000E000EB5A0008EB5A0008EB5A0008EB5A0008DC
:1000F000EB5A0008EB5A0008EB5A0008EB5A0008CC
:10010000EB5A0008EB5A0008EB5A0008EB5A0008BB
:10011000EB5A0008EB5A0008EB5A0008EB5A0008AB
:10012000EB5A0008EB5A0008EB5A0008EB5A00089B
:1001300000F002F800F03AF80AA090E8000C8244BF
:100140008344AAF10107DA4501D100F02FF8AFF29C
:10015000090EBAE80F0013F0010F18BFFB1A43F0A5
:10016000010318475499000074990000103A24BF05
:1001700078C878C1FAD8520724BF30C830C144BF0C
:1001800004680C607047000000230024002500264E
:10019000103A28BF78C1FBD8520728BF30C148BFEA
:1001A0000B6070471FB51FBD10B510BD07F0E2FE14
:1001B0001146FFF7F7FF00F02CF807F000FF03B43B
:1001C000FFF7F2FF03BC05F005FC000010B54FF48B
:1001D0007A703F49888040F2DC5048800880C880AF
:1001E00008814881888105F0E4F905F00CFA05F0F2
:1001F000ABFA3849384801614164C0F8AC10C0F826
:10020000E010C0F84811C0F87C1101203349087093
:1002100010BD00BF05F074FB4FF4A06005F078FC42
:1002200004F088FA4FF4E13005F0E3FB00F05AF9EE
:1002300004F080FA04F03CFB06E000202849086046
:100240004FF47A7005F099FB04F004FC0028F4D117
:1002500001202349086004F093FC04F06BFA00F0DD
:100260005DF909E01E48001F006808B9012000E0A0
:1002700000201B49091F086004F002FE0028F1D18C
:10028000472140F2CF7000F0E2FB472140F2E73017
:1002900000F0B4FB04F04EFA04F069FB04F04AFAF3
:1002A000022140F2E73004F060FA00231A461946B2
:1002B000184604F0D4FAFFF789FF0121094806F037
:1002C00049FE0121880706F045FE00BFFEE7000059
:1002D000800900200000C842FC060020CD0000205C
:1002E000B881214200080040704700BFFEE700BF10
:1002F000FEE700BFFEE700BFFEE7704770477047AC
:10030000704700000CB50020019000906C48006818
:1003100040F480306A49086000BF6948006800F412
:10032000003000900198401C0190009818B9019885
:10033000B0F5A06FF1D16248006800F4003010B150
:100340000120009001E0002000900098012843D196
:100350005C48006840F010005A4908600846006890
:1003600020F0030008600846006840F002000860C2
:10037000534840685249486008464068486008460B
:10038000406840F4806048600846406820F47C1073
:1003900048600846406840F4E81048600846006835
:1003A00040F08070086000BF4548006800F00070B1
:1003B0000028F9D04248406820F0030040494860D6
:1003C0000846406840F00200486000BF3C48406872
:1003D00000F00C000828F9D10CBD10B5FFF792FF12
:1003E00010BD10B53648006840F00100344908607F
:1003F000084640683449084031494860084600686A
:10040000324908402E4908600846006820F48020E0
:1004100008600846406820F4FE0048604FF41F0062
:100420008860FFF7DAFF4FF000602949086010BDCF
:1004300010B5002100200022214B5B6803F00C0165
:1004400021B1042906D0082928D107E0214B224CEC
:10045000236027E01F4B204C236023E0184B5B6890
:1004600003F47010164B5B6803F48032022303EB35
:10047000904022B9194B4343174C23600DE0104BB9
:100480005B6803F4003323B1144B4343124C2360E5
:1004900003E0104B4343104C236003E00D4B0E4C24
:1004A000236000BF00BF064B5B68C3F303130C4C13
:1004B000E15C094B1B68CB40074C236010BD00007A
:1004C00000100240002002400000FFF8FFFFF6FE8F
:1004D00008ED00E000127A002400002000093D0031
:1004E0002800002008B50121082005F09BFE4FF4EC
:1004F0007040ADF8000010208DF8030003208DF847
:1005000002006946044805F0D1FB4FF470410248EF
:1005100005F079FC08BD0000000C014008B5012180
:10052000082005F07FFEC020ADF8000010208DF8F7
:10053000030003208DF802006946F94805F0B6FB78
:10054000C021F74805F05FFC08BD10B5F44800680D
:1005500020F07040F24908600846006840F0805082
:1005600008608021EE4805F04EFC4021EC4805F083
:100570004AFC042005F0DDF9E948006820F07040ED
:10058000E74908600846006840F0004008608021A4
:10059000E34805F01EFC08B9012010BDE0480068E2
:1005A00020F07040DE4908600846006840F0805046
:1005B00008608021DA4805F028FC012005F0B9F92F
:1005C0000020EAE710B5D648006820F07040D44912
:1005D00008600846006840F0805008604021D0481C
:1005E00005F013FC8021CE4805F00FFC012005F03A
:1005F000A0F94021CA4805F006FC012005F099F950
:100600008021C74805F0FFFB042005F092F910BDDA
:1006100010B500244021C24805F0F7FBC04800682F
:1006200020F07040BE4908600846006840F08050E5
:1006300008608021BA4805F0E6FB012005F079F951
:100640004021B74805F0DFFB012005F072F9B448FE
:10065000006820F07040B24908600846006840F029
:100660000040086012E0601CC4B2FA2C0EDDAC48F9
:10067000006820F07040AA4908600846006840F011
:1006800080500860FFF79EFF012010BD8021A44824
:1006900005F09FFB0028E6D1A148006820F07040DB
:1006A0009F4908600846006840F08050086040217B
:1006B0009B4805F0AAFB0020E7E710B540219848C9
:1006C00005F0A3FB9648006820F07040944908604C
:1006D0000846006840F0805008608021904805F08E
:1006E00094FB022005F025F940218D4805F08BFB95
:1006F000022005F01EF94021894805F086FB022002
:1007000005F017F910BD10B54021854805F07DFBB7
:10071000022005F00EF98248006820F07040804900
:1007200008600846006840F08050086080217C48DE
:1007300005F069FB022005F0FCF84021784805F03F
:1007400062FB022005F0F5F84021754805F05DFBDD
:1007500010BD70B504467248006820F070407049C2
:1007600008600846006840F08050086040216C48EE
:1007700005F04BFB002520E004F0800020B1802133
:10078000674805F040FB03E08021654805F03DFB2C
:100790006006040E022005F0CCF84021604805F008
:1007A00032FB022005F0C5F840215D4805F02DFB25
:1007B000022005F0BEF8681CC5B2082DDCDB70BD58
:1007C00070B500245648006820F070405449086015
:1007D0000846006840F0004008608021504805F05D
:1007E00012FB002518E040214D4805F00EFB0220C9
:1007F00005F09FF840214A4805F005FB6006040E0D
:100800008021474805F0E5FA08B1601CC4B2012018
:1008100005F08FF8681CC5B2082DE4DB204670BDDA
:1008200070B506460C461546FFF78FFE3046FFF7BB
:1008300090FFFFF7EDFE2046FFF78BFFFFF7E8FE86
:100840002846FFF786FFFFF7E3FEFFF7BBFE0A200F
:1008500005F06FF870BD70B504460D46FFF775FEE4
:100860002046FFF776FFFFF7D3FE2846FFF771FF1C
:10087000FFF7CEFEFFF769FE611CC8B2FFF769FF04
:10088000FFF7C6FEFFF79CFF0646FFF79BFE3046CC
:1008900070BD2DE9F04106460F4614461D46FFF790
:1008A00054FE3046FFF755FFFFF7B2FE3846FFF71C
:1008B00050FFFFF7ADFEFFF748FE711CC8B2FFF70F
:1008C00048FFFFF7A5FE0FE0012C05D0FFF778FFEA
:1008D0002870FFF7F2FE04E0FFF772FF2870FFF7C1
:1008E00012FF6D1C601EC4B2002CEDDCFFF76AFE27
:1008F0000020BDE8F08170B505460C46FFF725FEE7
:100900002846FFF726FFFFF783FE2046FFF721FF6B
:10091000FFF77EFEFFF756FE0A2005F02EF870BDA9
:10092000000C01402DE9F04105460E461746984659
:10093000FFF70BFE002141EA4501C8B2FFF709FFAE
:10094000FFF766FE20B1FFF73DFE0120BDE8F08114
:100950003046FFF7FEFEFFF75BFE00240CE018F8C0
:100960000400FFF7F6FEFFF753FE18B1FFF72AFE6B
:100970000120EBE7601CC4B2BC42F0DBFFF722FEB3
:100980000020E3E72DE9F04106460F4614461D46D8
:10099000FFF7DBFD002141EA4601C8B2FFF7D9FEAF
:1009A000FFF736FE20B1FFF70DFE0120BDE8F08114
:1009B0003846FFF7CEFEFFF72BFEFFF7C6FD0121FD
:1009C00001EB4601C8B2FFF7C4FEFFF721FE0FE0BE
:1009D000012C05D1FFF7F4FE2870FFF794FE04E028
:1009E000FFF7EEFE2870FFF768FE601EC4B26D1CB4
:1009F000002CEDD1FFF7E6FD0020D7E77FB50546D7
:100A00000C460121084605F01AFCADF80850ADF877
:100A100004400020ADF80A00ADF8060001A94FF02F
:100A2000804005F03BFF1C208DF8000001208DF870
:100A300003008DF8010002208DF80200684605F0E1
:100A40006CF801221146900706F09FFA7FBD7FB532
:100A500005460C460121042005F0F1FBADF80850D5
:100A6000ADF804400020ADF80A00ADF8060001A979
:100A70006E4805F013FF1E208DF8000001208DF850
:100A800003008DF801008DF80200684605F045F876
:100A900001221146654806F078FA7FBD70B5002442
:100AA00000250121880706F01EFD012842D160487B
:100AB0000068401C5E49086003F06CFD03F09EFD79
:100AC00003F0FEFD5A4800680A2813DD002058494B
:100AD00008600121574805F089F90546072003F011
:100AE000F2FF04462146272003F0D9FFFF21E22030
:100AF00003F0D5FF50480068401C4F490860084685
:100B00000068322803DA00204C49086012E04A48A5
:100B10000068322809DB48480068FA2805DA4748A7
:100B20000068401D4549086004E000204249086013
:100B3000424908600121880706F0E6FC70BD10B547
:100B400000240121394806F0CEFC012868D13C4838
:100B50000068401C3A49086004F0CEF901F0BAF987
:100B600001F09CFE374B9A681968586803F07FF8CB
:100B70003548007880B132480068052190FBF1F2D9
:100B800001FB120040B93148006808B9012000E0BB
:100B900000202E4908602CE029480068072190FBBE
:100BA000F1F201FB120020B900F05BF900F0B9F896
:100BB0001FE0234800680D2190FBF1F201FB1200B9
:100BC00020B900F0D3F900F059FA12E01E4800787D
:100BD00078B91B480068642190FBF1F201FB120018
:100BE00038B91A48006808B9012000E00020174908
:100BF0000860134800684FF4FA7190FBF1F201FBB2
:100C0000120068B900201249086003F0F5FF2022A5
:100C10001049A02003F000FF01200F49C1F8900106
:100C20000121024806F070FC10BD000000080040E1
:100C3000D800002000080140480000204C0000209F
:100C40004400002028020020CC000020B081214276
:100C50009001214200000020000021423FB589B0F0
:100C600000250024202101A807F045F9AA208DF8CD
:100C700004008DF80500F1208DF806001A208DF88B
:100C800007009DF825008DF808009DF824008DF8D8
:100C900009009DF829008DF80A009DF828008DF8BC
:100CA0000B009DF82D008DF80C009DF82C008DF8A0
:100CB0000D009DF831008DF80E009DF830008DF884
:100CC0000F009DF841008DF810009DF840008DF850
:100CD00011009DF845008DF812009DF844008DF834
:100CE000130000BF05E001A8005D2844C5B2601CE8
:100CF000C4B21F2CF7DB8DF8235000240DE001A8AF
:100D0000015DFE4805F02EFC00BF4021FB4805F0C8
:100D100097FC0128F9D1601CC4B21F2CEFDB0DB089
:100D200030BD70B58AB000250024202101A807F04D
:100D3000E2F8AA208DF804008DF8050002208DF855
:100D4000060012208DF80700ED48C0798DF80800E4
:100D5000EB4880798DF80900E948407A8DF80A005F
:100D6000E748007A8DF80B00E548C07A8DF80C0052
:100D7000E348807A8DF80D00E149086DE14908F0FB
:100D800029FC064608F08AFB00B209909DF8250070
:100D90008DF80E009DF824008DF80F00D849486D9D
:100DA000D84908F017FC064608F078FB00B2099015
:100DB0009DF825008DF810009DF824008DF8110095
:100DC000CF49886DCF4908F005FC064608F066FB60
:100DD00000B209909DF825008DF812009DF82400BE
:100DE0008DF81300C64890F871008DF81400C448BF
:100DF00090F870008DF81500C14890F873008DF8D8
:100E00001600BF4890F872008DF81700BC4890F8A3
:100E100075008DF81800BA4890F874008DF8190024
:100E200000BF05E001A8005D284405B2601C04B2C3
:100E3000162CF7DBE8B28DF81A0000240DE001A8AB
:100E4000015DAE4805F08EFB00BF4021AB4805F0C8
:100E5000F7FB0128F9D1601C04B2172CEFDB0AB0B4
:100E600070BD70B58AB0002500BF202101A807F031
:100E700042F8AA208DF804008DF8050001208DF8B5
:100E800006000C208DF807009F4948689F4908F02C
:100E9000A1FB064608F002FB00B209909DF8250070
:100EA0008DF808009DF824008DF80900964908681F
:100EB000964908F08FFB064608F0F0FA00B2099058
:100EC0009DF825008DF80A009DF824008DF80B0090
:100ED0008D4988688D4908F07DFB064608F0DEFAEA
:100EE00000B209909DF825008DF80C009DF82400B3
:100EF0008DF80D00864800884FF4FA61484300B22F
:100F000009909DF825008DF810009DF824008DF8BB
:100F10001100012009909DF824008DF812007D48F1
:100F2000007809909DF824008DF81300002405E056
:100F300001A8005D2844C5B2601CC4B2102CF7DBC8
:100F40008DF8145000240DE001A8015D6B4805F0F8
:100F500009FB00BF4021694805F072FB0128F9D167
:100F6000601CC4B2112CEFDB0AB070BD30B589B083
:100F700000250024002008902021684606F0BBFFD1
:100F8000AA208DF800008DF8010003208DF80200E2
:100F900014208DF80300604840798DF804005E4805
:100FA00000798DF805005C48C0798DF806005A4834
:100FB00080798DF80700584840788DF80800564829
:100FC00000788DF809005448C0788DF80A0052481E
:100FD00080788DF80B004FF47A7008909DF821000E
:100FE0008DF80C009DF820008DF80D009DF8210073
:100FF0008DF80E009DF820008DF80F009DF821005F
:101000008DF810009DF820008DF811009DF821004A
:101010008DF812009DF820008DF813009DF8210036
:101020008DF814009DF820008DF815009DF8210022
:101030008DF816009DF820008DF8170000BF05E020
:101040001DF804002844C5B2601CC4B2182CF7DB9C
:101050008DF8185000240DE01DF80410274805F005
:1010600081FA00BF4021254805F0EAFA0128F9D1AC
:10107000601CC4B2192CEFDB09B030BD30B589B0AB
:1010800000250024002008902021684606F033FF48
:10109000AA208DF800008DF8010006208DF80200CE
:1010A00010208DF803001D4840788DF804001B487F
:1010B00000788DF805001948C0788DF806001748AB
:1010C00080788DF80700154840798DF8080013489E
:1010D00000798DF809001148C0798DF80A000F4891
:1010E00080798DF80B009DF821008DF80C009DF89B
:1010F00020008DF80D009DF8210011E0003801401E
:101100003C010020A34C6542280200200000C84298
:1011100040000020CC00002080090020B00000200A
:101120008DF80E009DF820008DF80F009DF821002D
:101130008DF810009DF820008DF811009DF8210019
:101140008DF812009DF820008DF8130000BF05E017
:101150001DF804002844C5B2601CC4B2142CF7DB8F
:101160008DF8145000240DE01DF80410F84805F027
:10117000F9F900BF4021F64805F062FA0128F9D1DB
:10118000601CC4B2152CEFDB09B030BD70B58AB05D
:1011900000250024202101A806F0ADFEAA208DF82C
:1011A00004008DF8050011208DF8060012208DF83E
:1011B0000700E849D1F8B800E74908F00BFA0646FD
:1011C00008F06CF900B209909DF825008DF8080030
:1011D0009DF824008DF80900DE49D1F8BC00DE49F5
:1011E00008F0F8F9064608F059F900B209909DF8A0
:1011F00025008DF80A009DF824008DF80B00D549D4
:10120000D1F8C000D44908F0E5F9064608F046F9DF
:1012100000B209909DF825008DF80C009DF824007F
:101220008DF80D00CB48C169CB4808F0D3F90646CC
:1012300008F034F900B209909DF825008DF80E00F1
:101240009DF824008DF80F00C248016AC24808F0DA
:10125000C1F9064608F022F900B209909DF8250070
:101260008DF810009DF824008DF81100B948416AEE
:10127000B94808F0AFF9064608F010F900B2099035
:101280009DF825008DF812009DF824008DF81300BC
:10129000B048D0F85411B04808F09CF9064608F060
:1012A000FDF800B209909DF825008DF814009DF816
:1012B00024008DF81500A748D0F85811A64808F06A
:1012C00089F9064608F0EAF800B209909DF8250071
:1012D0008DF816009DF824008DF817009D48D0F871
:1012E0005C119D4808F076F9064608F0D7F800B280
:1012F00009909DF825008DF818009DF824008DF8C0
:10130000190000BF05E001A8005D2844C5B2601CBB
:10131000C4B2162CF7DB8DF81A5000240DE001A89A
:10132000015D8B4805F01EF900BF4021884805F09B
:1013300087F90128F9D1601CC4B2172CEFDB0AB081
:1013400070BD70B58AB000250024202101A806F0E8
:10135000D2FDAA208DF804008DF8050010208DF82C
:10136000060012208DF807007A48D0F8EC107A4871
:1013700008F030F9064608F091F800B209909DF89F
:1013800025008DF808009DF824008DF809007148AB
:10139000D0F8F010704808F01DF9064608F07EF805
:1013A00000B209909DF825008DF80A009DF82400F0
:1013B0008DF80B006748D0F8F410674808F00AF978
:1013C000064608F06BF800B209909DF825008DF8EC
:1013D0000C009DF824008DF80D005E48016D5E48FC
:1013E00008F0F8F8064608F059F800B209909DF8A0
:1013F00025008DF80E009DF824008DF80F0055484B
:10140000D0F8F010544808F0E5F8064608F046F821
:1014100000B209909DF825008DF810009DF8240079
:101420008DF811004B48816D4B4808F0D3F8064603
:1014300008F034F800B209909DF825008DF81200EC
:101440009DF824008DF813004248D0F888114248D6
:1014500008F0C0F8064608F021F800B209909DF89F
:1014600025008DF814009DF824008DF8150000204B
:1014700009909DF825008DF816009DF824008DF840
:1014800017003448D0F89011334808F0A3F8064606
:1014900008F004F800B209909DF825008DF81800B6
:1014A0009DF824008DF8190000BF05E001A8005D3B
:1014B0002844C5B2601CC4B2162CF7DB8DF81A5054
:1014C00000240DE001A8015D214805F04BF800BFA4
:1014D00040211F4805F0B4F80128F9D1601CC4B2BE
:1014E000172CEFDB0AB070BD30B589B000250024A1
:1014F000202101A806F0FFFCAA208DF804008DF839
:1015000005000C208DF8060012208DF8070000BFA2
:1015100005E001A8005D2844C5B2601CC4B21F2CC0
:10152000F7DB8DF8235000240DE001A8015D084889
:1015300005F018F800BF4021054805F081F80128A2
:10154000F9D1601CC4B21F2CEFDB09B030BD000024
:1015500000380140FC06002000007A4430B589B014
:1015600000250024202101A806F0C5FCAA208DF842
:1015700004008DF805000D208DF8060012208DF86E
:10158000070000BF05E001A8005D2844C5B2601C4B
:10159000C4B21F2CF7DB8DF8235000240DE001A806
:1015A000015DFE4804F0DEFF00BF4021FB4805F06E
:1015B00047F80128F9D1601CC4B21F2CEFDB09B039
:1015C00030BD30B589B000250024202101A806F0E7
:1015D00092FCAA208DF804008DF805000E208DF8ED
:1015E000060012208DF8070000BF05E001A8005D8D
:1015F0002844C5B2601CC4B21F2CF7DB8DF8235001
:1016000000240DE001A8015DE44804F0ABFF00BF39
:101610004021E24805F014F80128F9D1601CC4B259
:101620001F2CEFDB09B030BD30B589B00025002498
:10163000202101A806F05FFCAA208DF804008DF897
:1016400005000F208DF8060012208DF8070000BF5E
:1016500005E001A8005D2844C5B2601CC4B21F2C7F
:10166000F7DB8DF8235000240DE001A8015DCB4885
:1016700004F078FF00BF4021C84804F0E1FF0128D2
:10168000F9D1601CC4B21F2CEFDB09B030BDF0B53E
:1016900089B005460E4600270024202101A806F047
:1016A0002AFCAA208DF804008DF80500EF208DF8A3
:1016B000060002208DF807008DF808508DF80960AB
:1016C00000BF05E001A8005D3844C7B2601CC4B289
:1016D000062CF7DB8DF80A7000240DE001A8015DEF
:1016E000AE4804F03FFF00BF4021AC4804F0A8FF23
:1016F0000128F9D1601CC4B2072CEFDB09B0F0BDA2
:101700002DE9F05F04460D460026B14607E014F8C7
:1017100009003044C6B209F1010000F0FF09681E5B
:101720004845F4DC601910F8010CB04201D0BDE866
:10173000F09F2078AA2802D16078AF2800D0F6E781
:10174000A07801282BD12079012805D1944981F86E
:10175000360003F08CFC22E02079022804D101211C
:101760008F4880F86E101AE02079032808D10120F4
:101770008B4981F836000121894880F86E100EE00F
:101780002079042804D10121854880F8A61006E0BC
:101790002079212802DB2079262800DD00BFA078EF
:1017A00002280FD1207901280BD1FFF7CAFDA078BC
:1017B0003146FFF76CFFFFF7E9FCA0783146FFF7F1
:1017C00066FF00BFA07810287DD1A0783146FFF7D2
:1017D0005EFF2179090209B2627941EA020007F04D
:1017E000DBF982466F4A704B07F0EEF9074606F0C8
:1017F00099FF01466D48C0F8EC10A179090209B2C1
:10180000E27941EA020007F0C7F98246654A664B71
:1018100007F0DAF9074606F085FF01466348C0F88D
:10182000F010217A090209B2627A41EA020007F057
:10183000B3F982465B4A5C4B07F0C6F9074606F0EF
:1018400071FF01465948C0F8F410A17A090209B2A3
:10185000E27A41EA020007F09FF98246514A524B70
:1018600007F0B2F9074606F05DFF01464F480165F3
:10187000217B090209B2627B41EA020007F08CF980
:101880008246484A484B07F09FF9074606F04AFF50
:10189000014646484165A17B090209B2E27B41EA63
:1018A000020007F079F982463E4A3F4B07F08CF977
:1018B000074606F037FF01463C488165217C090256
:1018C00009B2627C00E039E041EA020007F064F905
:1018D0008246344A344B07F077F9074606F022FF78
:1018E00001463248C0F88811A17C090209B2E27CA5
:1018F00041EA020007F050F907462A4A2A4B07F04E
:1019000063F9824606F00EFF01462848C0F88C11A4
:10191000217D090209B2627D41EA020007F03CF92B
:101920000746204A204B07F04FF9824606F0FAFEA0
:1019300001461E48C0F8901103F06EFDA0781128F2
:101940007ED1A0783146FFF7A2FE2179090209B2C3
:10195000627941EA020007F01FF90746114A124B6B
:1019600007F032F9824606F0DDFE1049C1F8B800F2
:10197000A179090209B2E27941EA020007F00CF903
:101980008246084A084B07F01FF9074606F0CAFED0
:101990000649C1F8BC00217A090209E0003801407B
:1019A0003C010020FCA9F1D24D62503FFC06002012
:1019B00009B2627A41EA020007F0EEF88246A04AD4
:1019C000A04B07F001F9074606F0ACFE9E49C1F8AE
:1019D000C000A17A090209B2E27A41EA020007F0E6
:1019E000DBF80746964A974B07F0EEF8824606F07A
:1019F00099FE9549C861217B090209B2627B41EADF
:101A0000020007F0C9F807468D4A8E4B07F0DCF854
:101A1000824606F087FE8C490862A17B090209B262
:101A2000E27B41EA020007F0B7F80746844A854B9B
:101A300007F0CAF8824606F075FE8349486200E066
:101A40003AE0217C090209B2627C41EA020007F017
:101A5000A3F807467A4A7B4B07F0B6F8824606F0B1
:101A600061FE7949C1F85401A17C090209B2E27C06
:101A700041EA020007F090F80746714A714B07F0FF
:101A8000A3F8824606F04EFE6F49C1F85801217D49
:101A9000090209B2627D41EA020007F07DF80746BB
:101AA000674A684B07F090F8824606F03BFE6649AD
:101AB000C1F85C0103F018FCA07812283CD1A07892
:101AC0003146FFF7E4FD2179090209B2627941EA62
:101AD000020007F061F80746594A5A4B07F074F8BC
:101AE000824606F01FFE5849C1F8F001A1790902AB
:101AF00009B2E27941EA020007F04EF80746504A7F
:101B0000504B07F061F8824606F00CFE4E49C1F8D2
:101B1000F401217A090209B2627A41EA020007F06F
:101B20003BF80746464A474B07F04EF8824606F018
:101B3000F9FD4549C1F8F801A078132803D1A07830
:101B40003146FFF7A4FDA078142803D1A0783146D0
:101B5000FFF79DFDA078152803D1A0783146FFF747
:101B600096FD00BFE3E510B504463848007838B963
:101B7000AA2C05D1012035490870354804705DE074
:101B800032480078012807D1AF2C05D102202F4917
:101B900008702F48447051E02C480078022807D183
:101BA000F12C05DA0320294908702948847045E0A2
:101BB0002648007803280CD1322C0ADA0420234965
:101BC00008702348C470234804700020224908701C
:101BD00034E01E480078042819D11E4800780028F7
:101BE00015DD1C480078401E1A4908701A48007814
:101BF00019490978491C184A1170001D14490C54E0
:101C000014480078D0B905201049087016E00F4834
:101C1000007805280FD100200C4908700E48007884
:101C2000001D0B490C540C480078401DC1B20848F7
:101C3000FFF766FD02E000200449087010BD0000B7
:101C4000FCA9F1D24D62503FFC0600205400002058
:101C5000F401002052000020530000202DE9F0473D
:101C6000002500260027FE49B1F90010FC4AB2F910
:101C700006201144484200EBD071491009B2F94ADC
:101C80001180F749B1F90220B1F908101144484216
:101C900000EBD071491009B2F24A5180F049B1F914
:101CA0000420B1F90A101144484200EBD0714910E8
:101CB00009B2EC4A9180EA49B1F90C10E84AB2F94C
:101CC00012201144484200EBD071491009B2E54A94
:101CD0001187E349B1F90E20B1F9141011444842BB
:101CE00000EBD07149100AB2DE494A87DC49B1F9EC
:101CF0001020B1F916101144484200EBD071491080
:101D00000AB2D8498A870846B0F90000B1F9121022
:101D1000401AD44948620846B0F90210B0F91400DC
:101D2000091AD0488162B0F90410C162B0F93810C4
:101D3000B0F94A00091ACB48C165B0F93A10B0F9B8
:101D40004C00091AC7480166B0F93C10B0F94E00C2
:101D5000091AC44841660146C86D07F0DBFB81469D
:101D6000C049B1F93E0007F0D5FB8246BE4A49465C
:101D700001F070FE804607F091FB01B2B948C187BF
:101D80000146086E07F0C6FB8146B649B1F940002E
:101D900007F0C0FB8246B44A494601F05BFE80462C
:101DA00007F07CFB01B2AF48A0F840100146486E36
:101DB00007F0B0FB8146AB49B1F9420007F0AAFB3E
:101DC0008246AA4A494601F045FE804607F066FB76
:101DD00001B2A448A0F842100146B1F93E0007F054
:101DE00099FB8046A24907F0F5FB9E490865B1F9C9
:101DF000400007F08FFB80469D4907F0EBFB014652
:101E0000984841650146B1F9420007F083FB8046DE
:101E1000974907F0DFFB014692488165808C01B24B
:101E20009448954A127820F812108E48008D00B21E
:101E30009249914A127821F812008A48808D00B2A6
:101E40008F498D4A127821F8120000240DE089484C
:101E500030F914000544894830F9140006448848D4
:101E600030F914000744601CC4B2642CEFDB8248D4
:101E70000078401C80490870642095FBF0F000B2A7
:101E80007849C880642096FBF0F001B27548018162
:101E9000642097FBF0F001B27248418176480078E7
:101EA000642802D10020744908706E49B1F9060017
:101EB00007F030FB6B498861B1F9080007F02AFB95
:101EC0006849C861B1F90A0007F024FB6549086256
:101ED000BDE8F0872DE9F04700250026002761487E
:101EE000B0F900005F49B1F91210401A5D4948622B
:101EF0000846B0F90210B0F91400091A5948816275
:101F0000B0F90410C162B0F93810B0F94A00091AEA
:101F10005448C165B0F93A10B0F94C00091A51485B
:101F20000166B0F93C10B0F94E00091A4D484166FF
:101F30000146C86D07F0EEFA81464A49B1F93E0004
:101F400007F0E8FA8246484A494601F083FD804698
:101F500007F0A4FA01B24348C1870146086E07F0B2
:101F6000D9FA81463F49B1F9400007F0D3FA8246D9
:101F70003D4A494601F06EFD804607F08FFA01B2F6
:101F80003848A0F840100146486E07F0C3FA814671
:101F90003449B1F9420007F0BDFA8246334A494656
:101FA00001F058FD804607F079FA01B22D48A0F8FB
:101FB00042100146B1F93E0007F0ACFA80462C49C8
:101FC00007F008FB27490865B1F9400007F0A2FABD
:101FD0008046274907F0FEFA01462248416501463E
:101FE000B1F9420007F096FA8046214907F0F2FA6B
:101FF00001461C488165808C00B22249224A127831
:1020000021F812001748008D00B220491E4A1278AC
:1020100021F812001348808D00B21D491A4A127827
:1020200021F8120000240DE0164830F91400054490
:10203000164830F914000644154830F914000744D6
:10204000601CC4B2642CEFDB0F480078401C0E49C2
:102050000870642095FBF0F000B20249C88019E0D6
:10206000340200203C010020CDCCCC3DCDCC4C3DF9
:1020700045798B3A4C020020AC000020140300206C
:10208000DC030020A4040020AD0000206C0500202B
:1020900034060020642096FBF0F001B2FE48018176
:1020A000642097FBF0F001B2FB484181FB480078C7
:1020B000642802D10020F9490870F749B1F90600F7
:1020C00007F028FAF4498861B1F9080007F022FA0C
:1020D000F149C861B1F90A0007F01CFAEE4908623B
:1020E000BDE8F0870FB5A3B0ED480168006807F0C0
:1020F00071FA2190EB480168E948006807F06AFA34
:102100002090E9480168E648006807F063FA1F90EC
:10211000E4480168006807F05DFA1E90E348016832
:10212000E048006807F056FA1D90DF480168006833
:1021300007F050FA1C90DD480168DB48006807F0A2
:1021400049FA1B90D9480168006807F043FA1A90D1
:10215000D7480168006807F03DFA1390D548016838
:10216000006807F037FA1290D3480168006807F05A
:1021700031FA1190D1480168006807F02BFA1090ED
:10218000CD480168CB48006807F024FA0F90CB488F
:102190000168C748006807F01DFA0E90C7482599E6
:1021A000006807F017FA0B90C3482499006807F0FD
:1021B00011FA0990BF48006880F000400790239909
:1021C00007F008FA0890099907F00CFB0A900B99A0
:1021D00007F008FBBA490C9007F0FCF90D90B448E1
:1021E00001680D9806F0F6FFB1490860B3482499DC
:1021F000006807F0EFF90B90AF482599006807F0E9
:10220000E9F90990AA480168239807F0E3F90890D2
:10221000099906F0DFFF0A900B9907F0E3FAA84945
:102220000C9007F0D7F90D90A24801680D9806F0C0
:10223000D1FFA0490860A1480168239807F0CAF9B6
:102240000B909C482599006807F0C4F909909848BC
:102250002499006807F0BEF90890099907F0C2FABE
:102260000A900B9906F0B6FF95490C9007F0B2F969
:102270000D90914801680D9806F0ACFF8E490860FA
:1022800008460168239807F0A5F90B90894824991E
:10229000006807F09FF9099085482599006807F0C4
:1022A00099F90890099906F095FF0A900B9907F0A3
:1022B00099FA83490C9007F08DF90D907F480168D9
:1022C0000D9806F087FF7D490860DDE9121006F0E1
:1022D00081FF0790119906F07DFF0890109906F094
:1022E00079FF099006F04AFFCDE90A0106F0F4F9FA
:1022F000CDE90C0106F016FA22906D48229900688B
:1023000006F0D6FF6A4908606A482299006806F01C
:10231000CFFF6849086068482299006806F0C8FF46
:102320006549086065482299006806F0C1FF634965
:1023300008602899269807F04DF90C90299907F024
:1023400049F900210D9007F075F801D127B000BDC3
:102350002999084607F03EF908902899084607F0A1
:1023600039F906902699084607F034F90590069940
:1023700006F030FF0790089906F02CFF099006F050
:10238000FDFECDE90A0106F0A7F9CDE90C0106F042
:10239000C9F922902299269806F08AFF2690229960
:1023A000289806F085FF28902299299806F080FF4A
:1023B00029901F991D9807F015FA4FF080410D9054
:1023C00007F008F919901B99209806F003FF4FF0C9
:1023D00080410D9007F0FEF818901E99219807F0A3
:1023E00001FA0C901C9907F0FDF90D901A9906F06E
:1023F000F1FE17901899299807F0ECF80D901799AD
:10240000289807F0E7F80C900D9907F0EBF9169073
:102410001799269807F0DEF80D901999299807F07A
:10242000D9F80C900D9907F0DDF9159019992898B5
:1024300007F0D0F80D901899269807F0CBF80C907B
:102440000D9907F0CFF914901E480168169807F00F
:10245000C1F80D901C4801680D9806F0BBFE1A49A2
:10246000086018480168159807F0B4F80D901748EF
:1024700001680D9806F0AEFE144908601148016825
:10248000149807F0A7F80D90114801680D9806F010
:10249000A1FE0F4908601DE03C010020AD000020B6
:1024A000780000207C0000208000002084000020B4
:1024B00094000020980000209C000020A000002034
:1024C0006F12833A74000020880000208C000020E6
:1024D00090000020F9481699006807F07BF80C90EE
:1024E000239906F077FE0D90F54801680D9806F0E7
:1024F00071FE2390F1481599006807F06BF80C9075
:10250000249906F067FE0D90EE4801680D9806F0DC
:1025100061FE2490E9481499006807F05BF80C907C
:10252000259906F057FE0D90E74801680D9806F0D2
:1025300051FE2590E5482599006807F04BF80B906F
:10254000E3482499006807F045F80990E1480068DD
:1025500080F000400790239907F03CF80890099913
:1025600007F040F90A900B9907F03CF9DA490C9012
:1025700007F030F80D90D94801680D9806F02AFE52
:10258000D6490860D1482499006807F023F80B90D9
:10259000CF482599006807F01DF80990CF480168D9
:1025A000239807F017F80890099906F013FE0A908F
:1025B0000B9907F017F9C8490C9007F00BF80D902C
:1025C000C44801680D9806F005FEC2490860BF487E
:1025D0000168239806F0FEFF0B90BE48259900681D
:1025E00006F0F8FF0990BD482499006806F0F2FF54
:1025F0000890099907F0F6F80A900B9906F0EAFDA1
:10260000B5490C9006F0E6FF0D90B14801680D98B1
:1026100006F0E0FDAE49086008460168239806F020
:10262000D9FF0B90AB482499006806F0D3FF0990BE
:10263000AA482599006806F0CDFF0890099906F090
:10264000C9FD0A900B9907F0CDF8A3490C9006F04C
:10265000C1FF0D909D4801680D9806F0BBFD9B4998
:1026600008601E99219806F0B5FD07901C9906F0A8
:10267000B1FD08901A9906F0ADFD099006F07EFDB7
:10268000CDE90A0106F028F8CDE90C0106F04AF878
:10269000229092482299006806F00AFE8F4908604D
:1026A0008C482299006806F003FE8A490860884831
:1026B0002299006806F0FCFD85490860834822994C
:1026C000006806F0F5FD81490860084601684FF092
:1026D000804006F07FFF01907C480168019806F079
:1026E00079FF03907A4801684FF0404006F072FF8E
:1026F000019077480168019806F06CFF02900399F9
:1027000007F070F84FF07E51049006F063FD0590DD
:1027100006F034FDCDE90801704801684FF08040B3
:1027200006F058FF029069480168029806F052FFCF
:102730000490684801684FF0804006F04BFF02901B
:1027400063480168029806F045FF0390049906F07B
:1027500041FD059006F012FDCDE90601DDE90823F3
:1027600005F0FAFE81F000414FF0C0425C4BCDE92C
:102770000A0106F029FACDE90C0105F0D3FF594909
:102780008860534801684FF0804006F023FF0190B5
:102790004F480168019806F01DFF03904D480168FD
:1027A0004FF0404006F016FF01904A48016801983A
:1027B00006F010FF0290039907F014F84FF07E51D5
:1027C000049006F007FD059006F0D8FCCDE908015D
:1027D000424801684FF0804006F0FCFE02903D4800
:1027E0000168029806F0F6FE0490394801684FF03F
:1027F000804006F0EFFE029034480168029806F02F
:10280000E9FE0390049906F0E5FC059006F0B6FC9D
:10281000CDE90601DDE9082305F09EFE4FF0C04238
:102820002F4BCDE90A0106F0CFF9CDE90C0105F0F7
:1028300079FF2C494860294801684FF0804006F034
:10284000C9FE049022480168049806F0C3FE069071
:10285000204801684FF0404006F0BCFE04901B4841
:102860000168049806F0B6FE0590069906F0B2FCE1
:10287000079006F083FCCDE9080105F025FC4FF038
:10288000C042174BCDE90A0106F09EF9CDE90C01D3
:1028900005F048FF1349086000BF57E51CB5124812
:1028A000006A1149C969104CCDE90010A369A26DF5
:1028B000616D206DFFF716FC1CBD0000700000204C
:1028C000880000208C000020900000208400002060
:1028D000800000207C0000206F12833A78000020E6
:1028E00094A94C40280200203C0100200FB5C3B041
:1028F000FE480168006806F06DFE0F9006F03EFC91
:10290000CDE92201FA480168F848006806F062FE45
:102910000F9006F033FCCDE92001F6480168F3483A
:10292000006806F057FE0F9006F028FCCDE91E0166
:10293000F1480168ED48006806F04CFE0F9006F083
:102940001DFCCDE91C01EA480168006806F042FE62
:102950000F9006F013FCCDE91A01E6480168E4483F
:10296000006806F037FE0F9006F008FCCDE918016C
:10297000E1480168DE48006806F02CFE0F9006F082
:10298000FDFBCDE91601DB480168006806F022FE78
:102990000F9006F0F3FBCDE91401D7480168D54844
:1029A000006806F017FE0F9006F0E8FBCDE9120173
:1029B000D1480168006806F00DFE0F9006F0DEFBBE
:1029C000CDE910014899469806F004FE0E90499909
:1029D00006F000FE00210F9006F02CFD01D147B05B
:1029E00000BD4999084606F0F5FD0D904899084646
:1029F00006F0F0FD0B904699084606F0EBFD0A90B4
:102A00000B9906F0E7FB0C900D9906F0E3FB0E9096
:102A100001F03CF80F9006F0B1FB419140904698D0
:102A200006F0ACFBCDE90C01419B409A06F0CCF8D6
:102A3000CDE90E0105F076FE4690489806F09EFB23
:102A4000CDE90C01419B409A06F0BEF8CDE90E019C
:102A500005F068FE4890499806F090FBCDE90C011E
:102A6000419B409A06F0B0F8CDE90E0105F05AFE00
:102A700049904C99084606F0ADFD0D904B990846DB
:102A800006F0A8FD0B904A99084606F0A3FD0A90AF
:102A90000B9906F09FFB0C900D9906F09BFB0E9096
:102AA00000F0F4FF0F9006F069FB419140904A98C6
:102AB00006F064FBCDE90C01419B409A06F084F8D6
:102AC000CDE90E0105F02EFE4A904B9806F056FB1C
:102AD000CDE90C01419B409A06F076F8CDE90E0154
:102AE00005F020FE4B904C9806F048FBCDE90C0118
:102AF000419B409A06F068F8CDE90E0105F012FE00
:102B00004C90DDE91E23DDE9160105F03DFECDE91F
:102B10000A014FF080404C9906F05CFD079006F0EA
:102B20002DFBCDE90801DDE90A2306F04DF8CDE9DA
:102B30000E01DDE91C23DDE9180106F035FACDE9C7
:102B400006014FF080404B9906F044FD039006F0DB
:102B500015FBCDE90401DDE9062306F035F8CDE9E2
:102B60000A0100206549DDE9142306F01DFACDE9CC
:102B70000201DDE9102306F017FACDE906014FF056
:102B800080404A9906F026FD039006F0F7FACDE959
:102B90000401DDE9062306F017F8CDE90801DDE9B7
:102BA0000A2305F0F1FDCDE90C01DDE90E2305F066
:102BB000EBFDCDE93E01DDE92023DDE9120106F060
:102BC000F3F9CDE90A014FF080404C9906F002FD7F
:102BD000079006F0D3FACDE90801DDE90A2305F0F4
:102BE000F3FFCDE90E0100204449DDE91A2306F088
:102BF000DBF9CDE90201DDE9102306F0D5F9CDE9D5
:102C000006014FF080404B9906F0E4FC039006F07B
:102C1000B5FACDE90401DDE9062305F0D5FFCDE9DC
:102C20000A01DDE91C23DDE9180105F0ADFDCDE960
:102C300006014FF080404A9906F0CCFC039006F064
:102C40009DFACDE90401DDE9062305F0BDFFCDE9DC
:102C50000801DDE90A2305F097FDCDE90C01DDE966
:102C60000E2305F091FDCDE93C0100202349DDE96B
:102C70001A2306F099F9CDE90601DDE9142306F0DF
:102C800093F9CDE90A014FF080404C9906F0A2FC7F
:102C9000079006F073FACDE90801DDE90A2305F093
:102CA00093FFCDE90E01DDE92023DDE9120105F0F6
:102CB0006BFDCDE906014FF080404B9906F08AFC90
:102CC000039006F05BFACDE90401DDE9062305F087
:102CD0007BFFCDE90A01DDE91E23DDE9160106F0DF
:102CE00063F9CDE906014FF0804009E0780000204B
:102CF0007C00002080000020840000200000E03FD5
:102D00004A9906F067FC039006F038FACDE9040111
:102D1000DDE9062305F058FFCDE90801DDE90A23C6
:102D200005F032FDCDE90C01DDE90E2305F02CFDA7
:102D3000CDE93A01DDE93C231046194605F044FF90
:102D4000CDE90C01DDE93E231046194605F03CFFB4
:102D5000CDE90A01DDE90C2305F016FDCDE90E01F0
:102D600005F0BAFCCDE93801DDE93A01CDE93601DB
:102D7000DDE91E23DDE9160106F016F900224FF009
:102D80008043CDE90E0105F01FFFCDE93401DDE9F7
:102D90001223DDE9200105F0F7FC00224FF080430B
:102DA000CDE90E0105F010FFCDE93201DDE91A236E
:102DB000DDE9220106F0F8F8CDE90C01DDE9142384
:102DC00006F0F2F8CDE90E01DDE9102305F0DCFC98
:102DD000CDE93001DDE91E23DDE9160106F0E4F856
:102DE000CDE90A0100204FF08041DDE9362305F0EE
:102DF000EBFECDE90801DDE90A2305F0E5FECDE9AA
:102E00000E010020FE49DDE9142306F0CDF8CDE9DE
:102E10000601DDE9102306F0C7F8CDE90A0100201C
:102E20004FF08041DDE9382305F0CEFECDE9080101
:102E3000DDE90A2305F0C8FECDE90C01DDE90E232A
:102E400005F0A2FCCDE92E01DDE91223DDE9200128
:102E500005F09AFCCDE90A0100204FF08041DDE940
:102E6000362305F0B1FECDE90801DDE90A2305F0BE
:102E7000ABFECDE90E01DDE91C23DDE9180106F00A
:102E800093F8CDE90A0100204FF08041DDE93823B5
:102E900005F09AFECDE90801DDE90A2305F094FE6C
:102EA000CDE90C01DDE90E2305F06EFCCDE92C0126
:102EB0000020D349DDE91A2306F076F8CDE90601B2
:102EC000DDE9142306F070F8CDE90A0100204FF087
:102ED0008041DDE9362305F077FECDE90801DDE923
:102EE0000A2305F071FECDE90E01DDE91623DDE9C7
:102EF0001E0105F049FCCDE90A0100204FF0804198
:102F0000DDE9382305F060FECDE90801DDE90A239B
:102F100005F05AFECDE90C01DDE90E2305F034FC85
:102F2000CDE92A014C9806F029F9CDE90601DDE941
:102F30002C2305F049FECDE90A014B9806F01EF955
:102F4000CDE90601DDE92A2305F03EFECDE90801C1
:102F5000DDE90A2306F028F8CDE90E01499806F0CC
:102F60000DF9CDE90601DDE9322305F02DFECDE9AD
:102F70000A01489806F002F9CDE90601DDE930239F
:102F800005F022FECDE90801DDE90A2306F00CF880
:102F9000CDE90C01DDE90E2305F0F6FBCDE92801B2
:102FA0004A9806F0EBF8CDE90601DDE92A2305F0A1
:102FB0000BFECDE90A014C9806F0E0F8CDE90601D8
:102FC000DDE92E2305F000FECDE90801DDE90A2345
:102FD00005F0EAFFCDE90E01469806F0CFF8CDE9FD
:102FE0000601DDE9302305F0EFFDCDE90A0149983E
:102FF00006F0C4F8CDE90601DDE9342305F0E4FD6F
:10300000CDE90801DDE90A2305F0CEFFCDE90C0189
:10301000DDE90E2305F0B8FBCDE926014B9806F05B
:10302000ADF8CDE90601DDE92E2305F0CDFDCDE9B2
:103030000A014A9806F0A2F8CDE90601DDE92C2341
:1030400005F0C2FDCDE90801DDE90A2305F0ACFF7A
:10305000CDE90E01489806F091F8CDE90601DDE9C9
:10306000342305F0B1FDCDE90A01469806F086F853
:10307000CDE90601DDE9322305F0A6FDCDE9080121
:10308000DDE90A2305F090FFCDE90C01DDE90E230F
:1030900005F07AFBCDE924015A48006806F06EF885
:1030A000CDE90801DDE9280105F03CFB029000F0C4
:1030B00048FD039006F062F8CDE90401DDE928231C
:1030C00005F082FDCDE90601DDE9082305F07CFD70
:1030D000CDE90C014C48006806F050F8CDE90A0132
:1030E000DDE90C2305F050FBCDE90E0105F01AFBDC
:1030F000454908604348006806F040F8CDE90801FA
:10310000DDE9260105F00EFB029000F01AFD0390A8
:1031100006F034F8CDE90401DDE9262305F054FD7D
:10312000CDE90601DDE9082305F04EFDCDE90C01EE
:103130003648006806F022F8CDE90A01DDE90C23E3
:1031400005F022FBCDE90E0105F0ECFA2F490860ED
:103150002C48006806F012F8CDE90801DDE92401E9
:1031600005F0E0FA029000F0ECFC039006F006F89F
:10317000CDE90401DDE9242305F026FDCDE90601B2
:10318000DDE9082305F020FDCDE90C0120480068A9
:1031900005F0F4FFCDE90A01DDE90C2305F0F4FAAE
:1031A000CDE90E0105F0BEFA19490860164800681D
:1031B00005F0E4FFCDE90C01DDE9280105F0B2FAE4
:1031C000019000F0BEFC029012480168029806F0DF
:1031D00001FA039005F0D2FFCDE90401DDE92823CF
:1031E00005F0F2FCCDE90801439805F0C7FFCDE9F1
:1031F0000601DDE9082305F0C7FACDE90A010BE075
:103200000000E03F74000020880000208C000020B7
:103210009000002070000020DDE90C2305F0B4FAD6
:10322000CDE90E0105F07EFA4390FE48006805F0F6
:10323000A5FFCDE90C01DDE9260105F073FA019047
:1032400000F07FFC0290F8480168029806F0C2F98D
:10325000039005F093FFCDE90401DDE9262305F095
:10326000B3FCCDE90801449805F088FFCDE90601DB
:10327000DDE9082305F088FACDE90A01DDE90C2330
:1032800005F082FACDE90E0105F04CFA4490E748CA
:10329000006805F073FFCDE90C01DDE9240105F0BC
:1032A00041FA019000F04DFC0290DF48016802985D
:1032B00006F090F9039005F061FFCDE90401DDE926
:1032C000242305F081FCCDE90801459805F056FF5F
:1032D000CDE90601DDE9082305F056FACDE90A013A
:1032E000DDE90C2305F050FACDE90E0105F01AFADC
:1032F0004590CF48006805F041FFCDE908014FF047
:103300006040CC49DDE9282305F05EFCCDE90601EB
:10331000DDE9082305F058FCCDE90C01C64800683A
:1033200005F02CFFCDE90A01DDE90C2305F02CFAAC
:10333000CDE90E0105F0F6F9BF490860BC48006808
:1033400005F01CFFCDE908014FF06040B949DDE907
:10335000262305F039FCCDE90601DDE9082305F057
:1033600033FCCDE90C01AF48006805F007FFCDE95B
:103370000A01DDE90C2305F007FACDE90E0105F09D
:10338000D1F9A8490860AA48006805F0F7FECDE920
:1033900008014FF06040A749DDE9242305F014FC43
:1033A000CDE90601DDE9082305F00EFCCDE90C01AD
:1033B0009E48006805F0E2FECDE90A01DDE90C2334
:1033C00005F0E2F9CDE90E0105F0ACF99749086086
:1033D0009948006805F0D2FECDE90C0192480068DA
:1033E00005F0CCFECDE90401DDE9282305F0ECFB76
:1033F000CDE90801439805F0C1FECDE90601DDE9FC
:10340000082305F0C1F9CDE90A01DDE90C2305F037
:10341000BBF9CDE90E0105F085F9439081480068BC
:1034200005F0ACFECDE90C017F48006805F0A6FE72
:10343000CDE90401DDE9262305F0C6FBCDE908014D
:10344000449805F09BFECDE90601DDE9082305F06F
:103450009BF9CDE90A01DDE90C2305F095F9CDE9E9
:103460000E0105F05FF944907048006805F086FE93
:10347000CDE90C016C48006805F080FECDE904013F
:10348000DDE9242305F0A0FBCDE90801459805F00E
:1034900075FECDE90601DDE9082305F075F9CDE9F2
:1034A0000A01DDE90C2305F06FF9CDE90E0105F005
:1034B00039F9459061484599006806F08BF80D9000
:1034C0005F484499006806F085F80B905D480068F5
:1034D00080F000400990439906F07CF80A900B991F
:1034E00006F080F90C900D9906F07CF956490E9083
:1034F00006F070F80F90554801680F9805F06AFEC5
:10350000524908604D484499006806F063F80D90F0
:103510004B484599006806F05DF80B904B480168F0
:10352000439806F057F80A900B9905F053FE0C905B
:103530000D9906F057F944490E9006F04BF80F909C
:10354000404801680F9805F045FE3E4908603B4839
:103550000168439806F03EF80D903A484599006896
:1035600006F038F80B9039484499006806F032F8B4
:103570000A900B9906F036F90C900D9905F02AFE89
:1035800031490E9006F026F80F902D4801680F98EB
:1035900005F020FE2A49086008460168439806F0B5
:1035A00019F80D9027484499006806F013F80B901D
:1035B00026484599006806F00DF80A900B9905F029
:1035C00009FE0C900D9906F00DF91F490E9006F0BA
:1035D00001F80F90194801680F9805F0FBFD174995
:1035E0000860DDE91A23DDE9220105F0CDF8CDE917
:1035F0000801DDE9142305F0C7F8CDE90A01DDE98A
:10360000102305F0C1F8CDE90C0105F08BF80E9000
:1036100000F03CFA0F9005F0B1FD419140900B484D
:10362000006815E08C000020700000209000002051
:10363000740000204D62503F88000020840000206C
:10364000800000207C0000206F12833A7800002068
:1036500005F094FDCDE90C01419B409A05F0B4FAC8
:10366000CDE90E0105F05EF88D4908608D480068CF
:1036700005F084FDCDE90C01419B409A05F0A4FAC8
:10368000CDE90E0105F04EF88649086086480068CD
:1036900005F074FDCDE90C01419B409A05F094FAC8
:1036A000CDE90E0105F03EF87F4908607F480068CB
:1036B00005F064FDCDE90C01419B409A05F084FAC8
:1036C000CDE90E0105F02EF878490860084601683A
:1036D0004FF0804005F07EFF039074480168039826
:1036E00005F078FF0590704801684FF0404005F004
:1036F00071FF03906C480168039805F06BFF04901C
:10370000059906F06FF84FF07E51069005F062FDC6
:10371000079005F033FDCDE90A01614801684FF0DB
:10372000804005F057FF049060480168049805F058
:1037300051FF06905B4801684FF0804005F04AFF5A
:10374000049059480168049805F044FF05900699D3
:1037500005F040FD079005F011FDCDE90801DDE918
:103760000A2304F0F9FE81F000414FF0C042504BB3
:10377000CDE90C0105F028FACDE90E0104F0D2FFE5
:103780004C498860484801684FF0804005F022FFAE
:10379000039045480168039805F01CFF05904148D7
:1037A00001684FF0404005F015FF03903D48016867
:1037B000039805F00FFF0490059906F013F84FF0F9
:1037C0007E51069005F006FD079005F0D7FCCDE987
:1037D0000A01334801684FF0804005F0FBFE049079
:1037E00030480168049805F0F5FE06902E480168FF
:1037F0004FF0804005F0EEFE04902C4801680498DC
:1038000005F0E8FE0590069905F0E4FC079005F048
:10381000B5FCCDE90801DDE90A2304F09DFE4FF077
:10382000C042234BCDE90C0105F0CEF9CDE90E01E4
:1038300004F078FF1F494860194801684FF0804044
:1038400005F0C8FE069018480168069805F0C2FE0B
:103850000890144801684FF0404005F0BBFE069008
:1038600012480168069805F0B5FE0790089905F022
:10387000B1FC099005F082FCCDE90A0104F024FCBA
:103880004FF0C0420A4BCDE90C0105F09DF9CDE99E
:103890000E0104F047FF0749086000BFFFF79FB81B
:1038A000780000207C0000208000002084000020A0
:1038B00094A94C40280200202DE9FF5F88B0924671
:1038C0009946DDF85CB0ABF1010004B208E0601E7F
:1038D0000AEBC00103C90AEBC40203C2601E04B2B2
:1038E000002CF4DCDDE90801CAE9000100252E46C0
:1038F000002418E0169800EBC40003C8CDE90201CB
:103900000AEBC40003C8CDE90001DDE9022305F09C
:103910005BF92A463346CDE9040104F035FF05463C
:103920000E46601C04B25C45E4DB1998401E04B2EC
:1039300008E0601E09EBC00103C909EBC40203C221
:10394000601E04B2002CF4DC0027B846012418E005
:10395000189800EBC40103C9CDE9020109EBC400CA
:1039600003C8CDE90001DDE9022305F02DF93A464F
:103970004346CDE9040104F007FF07468846601C72
:1039800004B219988442E3DB3A464346284631465E
:1039900005F00AFBC9E90001D9E90001CDE90601FA
:1039A000DDE906010CB0BDE8F09F2DE9FF5F8EB0A8
:1039B00014461D46DDE91CABCDE90CABCDE90A454B
:1039C00000BFDDE91E01CDE90801DDE90A23DDE9DB
:1039D000200104F0D9FE8046894640464946DDE98B
:1039E0000C2304F0D1FE02460B46CDE9020140460D
:1039F000494604F079FFCDE90401DDE90823DDE95A
:103A00000E0105F0D1FACDE90001DDE9042305F04E
:103A1000DBF8CDE90201DDE9082304F0B5FE064636
:103A20000F4600201849DDE9042305F0BDFA42469F
:103A30004B46CDE9020105F0C7F8CDE90601DDE905
:103A40000601CDE92001CDE91E673046394612B0A6
:103A5000BDE8F09F2DE9F04704460D461646314675
:103A6000284605F0B7FD804631464FF07E5005F000
:103A7000B9FE8146214605F0ADFD0746414605F0F9
:103A8000A9FBBDE8F08700000000F03F2DE9F05FE2
:103A900004464FF07F594FF07C51204605F09AFDC7
:103AA000824625462E465448A0EB660635462946F2
:103AB000504605F08FFD8346294605F08BFD804674
:103AC000494605F084FE0746294605F083FD054674
:103AD0002846BDE8F09F30B50346042400200EE0E0
:103AE00033F910508D4202DA23F8101005E033F953
:103AF0001050954201DD23F81020451CA8B2A042C9
:103B0000EEDB30BD10B502460423002003E022F8AE
:103B10001010441CA0B29842F9DB10BD70B50646E7
:103B20000D4614462946304605F020FE01D22E46A9
:103B300005E02146304605F019FD00D22646304604
:103B400070BD70B5044600250021204605F00EFD2D
:103B500001D284F000442949204605F007FE00D236
:103B6000264C2749204605F035FD06464FF07E518C
:103B700005F02DFE05460021284605F0F7FC00D291
:103B80000025284670BD10B504460021204605F0EA
:103B9000EDFC02D284F0004010BD2046FCE72DE988
:103BA000F04104462146204605F014FD07464FF03B
:103BB000804105F07DFB06464FF07E5105F007FE83
:103BC00005462846BDE8F0812DE9F041044621462E
:103BD000204605F0FFFC8046214605F0FBFC074629
:103BE000084905F065FB0646214605F0F0FD05464F
:103BF0002846BDE8F0810000DF59375F9A99193FE8
:103C00004260D53F0000C040FD49FE48C16100212F
:103C100001624162FA490165002141658165F84907
:103C2000C0F8B8100021C0F8BC10C0F8C010F449AA
:103C3000C0F8EC100021C0F8F010C0F8F410F04902
:103C4000C0F854110021C0F85811C0F85C11EC49BB
:103C5000C0F888110021C0F88C11C0F89011EA4911
:103C600001614164C0F8AC10C0F8E010704707B5BE
:103C700086B0E648B0F90000A0F2DC50049005F0F0
:103C800049FCE349059005F013FBDE49C1F8A000AB
:103C90000846D0F8A00001460590069805F09AFA6B
:103CA000D849C1F8A4000846D0F8A40005900846F9
:103CB000D0F8A8000490059905F08CFAD149C1F814
:103CC000A8000846D0F8B40005900846D0F8A40033
:103CD0000490059905F086FDCA49C1F8B000084670
:103CE000D0F8AC0080F0004005900846D0F8AC0059
:103CF00004900846D0F8A8000390DDE90412FFF70D
:103D00000DFFC049C1F8A8000846D0F8A410C0F8BB
:103D1000B410D0F8A4000590BA48D0F8B8000490C8
:103D2000059905F057FCB749C1F8C4000846D0F81A
:103D3000A80005900846D0F8BC000490059905F04D
:103D400049FCB049C1F8C8000846D0F8B000059059
:103D50000846D0F8C0000490059905F03BFCA9493D
:103D6000C1F8CC000846D0F8C80004900846D0F846
:103D7000C4000390049905F02DFA0590A148D0F8ED
:103D8000CC0001460490059805F024FA9D49C1F83D
:103D9000D0009E48B0F90200A0F2DC50049005F07B
:103DA000B9FB9B49059005F083FA9649486008469F
:103DB00040680590079905F015FD9249886008460E
:103DC000806805900846C0680490059905F002FADD
:103DD0008C49C86008468069059008468068049050
:103DE000059905F0FFFC874948610846006980F0A5
:103DF000004005900846006904900846C06803909A
:103E0000DDE90412FFF78AFE7E49C8600846816832
:103E10008161806805907B48C0690490059905F030
:103E2000D9FB784988620846C06805900846006A50
:103E30000490059905F0CEFB7249C86208464069B6
:103E400005900846406A0490059905F0C3FB6D494A
:103E500008630846C06A04900846806A0390049983
:103E600005F0B8F905906748006B01460490059885
:103E700005F0B0F9634948636448B0F90600A0F260
:103E8000DC50049005F046FB6149059005F010FAFE
:103E90005C49C1F83C010846D0F83C11C0F840111B
:103EA000D0F8400105905748D0F854010490059986
:103EB00005F090FB5349C1F86C010846D0F8D010CA
:103EC000C0F8D4105348006D5349049005F082FBAC
:103ED00005904C48D0F8D40001460490059805F0B0
:103EE00079F901464748C0F8D810D0F8D8000590B5
:103EF0004448D0F8DC000490059905F06BF90146C0
:103F00004048C0F8DC10D0F8E80005903D48D0F8F3
:103F1000D8000490059905F065FC01463948C0F8C1
:103F2000E410D0F8E00080F0004005903548D0F86B
:103F3000E00004903348D0F8DC000390DDE904127F
:103F4000FFF7ECFD01462F48C0F8DC10D0F8D81080
:103F5000C0F8E810D0F8D80005902A48D0F8EC0056
:103F60000490059905F036FB01462648C0F8F81084
:103F7000D0F8DC0005902348D0F8F00004900599B3
:103F800005F028FB01461F48C0F8FC10D0F8E400FB
:103F900005901C48D0F8F4000490059905F01AFB30
:103FA00001461848C0F80011D0F8FC0004901548EC
:103FB000D0F8F8000390049905F00CF90590114829
:103FC000D0F8000101460490059805F003F9014678
:103FD0000C48C0F80411416B81630E48406D0E49D6
:103FE000049005F0F7FA05900648806B01460490AE
:103FF000059805F0EFF801460248C163C06B0DE07B
:1040000000002041FC0600200000C842800900207A
:10401000000040413C010020A34C65420590FE4851
:10402000006C0490059905F0D5F80146FA48016442
:10403000C06C0590F848C06B0490059905F0D2FB60
:104040000146F5488164406C80F000400590F248DC
:10405000406C0490F048006C0390DDE90412FFF717
:104060005DFD0146EC480164C16BC164C06B059005
:10407000E948006D0490059905F0ACFA0146E64860
:10408000C165006C0590E448406D0490059905F009
:10409000A1FA0146E0480166806C0590DE48806D1B
:1040A0000490059905F096FA0146DB484166006EDA
:1040B0000490D948C06D0390049905F08BF80590E1
:1040C000D548406E01460490059805F083F80146F6
:1040D000D1488166D0F86C11C0F87011CF48806D5E
:1040E000CF49049005F076FA0590CB48D0F87001DE
:1040F00001460490059805F06DF80146C648C0F8E1
:104100007411D0F874010590C348D0F87801049078
:10411000059905F05FF80146BF48C0F87811D0F85E
:1041200084010590BC48D0F874010490059905F00D
:1041300059FB0146B848C0F88011D0F87C0180F0E6
:1041400000400590B448D0F87C010490B248D0F803
:1041500078010390DDE90412FFF7E0FC0146AE4868
:10416000C0F87811D0F87411C0F88411D0F8740137
:104170000590A948D0F888010490059905F02AFA1D
:104180000146A548C0F89411D0F878010590A248DE
:10419000D0F88C010490059905F01CFA01469E4860
:1041A000C0F89811D0F8800105909B48D0F8900194
:1041B0000490059905F00EFA01469748C0F89C1145
:1041C000D0F8980104909448D0F894010390049991
:1041D00005F000F805909048D0F89C010146049045
:1041E000059804F0F7FF01468B48C0F8A0118D48F0
:1041F000B0F9040040F21A4188427DDD8A48007817
:10420000012803D088480078002876D18548B0F985
:104210000400A0F57A70854908600846006805F03A
:1042200079F902907C48D0F8A001014601900298EB
:1042300004F0D0FF03907848D0F8040101460290C2
:10424000039805F0CFFA04907348806E01460390FE
:10425000049805F0C7FA059005F020F900B27449FA
:1042600008807248006805F055F902906A48D0F855
:10427000A00101460190029805F0B4FA0390664847
:10428000D0F8040101460290039804F0A3FF0490C3
:104290006148806E01460390049805F0A3FA0590EA
:1042A00005F0FCF800B2624948806048006805F0FB
:1042B00031F902905848D0F8A001014601900298C7
:1042C00004F088FF03905448D0F80401014602909E
:1042D000039804F07FFF04904F48806E01460390DE
:1042E000049804F077FF059005F0D8F800B2504923
:1042F00088804E48006801E0ECE022E005F00AF911
:1043000002904548D0F8A00101460190029805F0BE
:1043100069FA03904048D0F80401014602900398DE
:1043200005F060FA04903C48806E014603900498C2
:1043300004F050FF059005F0B1F800B23C49C88088
:10434000D6E0394800780228FAD13848006805F0EC
:10435000E1F801903048D0F8080201460090019839
:1043600004F038FF02902C48D0F8A00101460190DB
:10437000029804F02FFF03902748D0F8040101466B
:104380000290039805F02EFA04902348806E0146AF
:104390000390049805F026FA059005F07FF800B226
:1043A000234908802148006805F0B4F801901A48B4
:1043B000D0F8080201460090019804F00BFF02902B
:1043C0001548D0F8A00101460190029805F00AFABC
:1043D00003901148D0F8040101460290039804F0BC
:1043E000F9FE04900C48806E01460390049805F095
:1043F000F9F9059005F052F800B20D4948800B48D4
:10440000006805F087F801900348D0F808020146DB
:10441000009001980EE00000FC0600203C01002006
:10442000A34C654280090020CD000020C000002080
:10443000B000002004F0CEFE02905248D0F8A00157
:1044400001460190029804F0C5FE03904D48D0F853
:10445000040101460290039804F0BCFE0490494810
:10446000806E01460390049804F0B4FE059005F0B8
:1044700015F800B2444988804448006805F04AF8BD
:1044800001904048D0F8080201460090019804F0DD
:10449000A1FE02903B48D0F8A0010146019002988D
:1044A00005F0A0F903903748D0F8040101460290C6
:1044B000039805F097F904903248806E0146039006
:1044C000049804F087FE059004F0E8FF00B22E493E
:1044D000C8800DE000202C49C88088804880088072
:1044E00000212848C160C0F8A8100164C0F8DC10A1
:1044F0002548B0F90000002802DC0020224908808D
:104500002148B0F90200002802DC00201E49488042
:104510001D48B0F90400002802DC00201A498880F8
:104520001948B0F90600002802DC00201649C880AE
:1045300017480078F0B11448B0F906004FF6FF7143
:1045400001EA800005901048B0F9040001EA8000FB
:1045500004900D48B0F9020001EA800003900A4877
:10456000B0F9000001EA8000029003A90EC900F032
:1045700076F905E000231A461946184600F06FF94F
:1045800009B000BDFC060020B0000020C0000020E3
:10459000CC00002070B55E480078401C5C49087073
:1045A0005C48C0885C49C8805A484088488059485F
:1045B0000088088057488088A0F2DC5004B2322C72
:1045C00002DA14F1320F08DC642094FBF0F0524957
:1045D0008988084400B2504988804F49B1F90400E5
:1045E00004F098FF06464D4A4D49FFF797FA0546F5
:1045F00004F054FF00B24849888070BD49480078F3
:10460000E8B14548B0F90000B0F5E16F17DB42486A
:10461000B0F90200B0F5966F11DC3F48B0F9040024
:10462000B0F5966F0BDC3C48B0F90600B0F5966F1C
:1046300005DC3D480088401C3B49088002E0002022
:104640003949088038480088032807DD3548007854
:1046500020B1002033490870334908803148007880
:10466000E8B92D48B0F90600B0F5E16F17DB2A482C
:10467000B0F90200B0F5966F11DC2748B0F90400DC
:10468000B0F5966F0BDC2448B0F90000B0F5966FDA
:1046900005DC26480088401C2449088002E00020F0
:1046A0002249088021480088032808DB1D4800783B
:1046B00028B901201B49087000201C490880704758
:1046C0001548B0F90E0040F2A461884203DD0220D3
:1046D000174908701BE01048B0F90E0040F2145161
:1046E00088420ADD0C48B0F90E0040F2A46188420D
:1046F00003DA01200E49087009E00748B0F90E00FE
:1047000040F21451884202DA0020094908707047CB
:10471000CE000020960900208009002000007A4485
:104720000000FA44CC000020D4000020D600002075
:10473000CD00002008B50121082001F073FD012102
:10474000084601F06FFD0121554801F080FB28204B
:104750008DF803001020ADF8000003208DF8020052
:104760006946504801F0A2FA08BD30B589B0054647
:104770000C460121082001F055FD0121022001F025
:104780005EFD0121084601F04DFD0121464801F082
:104790005EFB18208DF8070003208DF8060002202C
:1047A000ADF8040001A93F4801F080FA1020ADF8EF
:1047B000040001A93B4801F079FA2020ADF804007B
:1047C00001A9384801F072FA0121354801F03FFB98
:1047D0000120ADF8040001A9324801F067FA002079
:1047E000ADF81E00ADF81A00ADF81C50ADF8184039
:1047F00006A92E4802F052F86020ADF8080001200A
:10480000ADF80A000020ADF8100002A9274802F018
:1048100082F80821254802F0CDFC02A9234802F0C5
:10482000BCF80821214802F0CEFC02A91F4802F082
:1048300001F908211D4802F0D3FC02A91B4802F02F
:1048400044F90821194802F0D4FC0121174802F06C
:1048500081FB0121154802F07DFC09B030BD10B587
:10486000B0F57A7F01DD4FF47A70B1F57A7F01DD22
:104870004FF47A71B2F57A7F01DD4FF47A72B3F5B5
:104880007A7F01DD4FF47A73084C3C342080241D7C
:104890002180064C34342280241D238010BD00006A
:1048A00000023000000C014000081A000004004023
:1048B00000B587B001210C2001F0B4FC01210803F0
:1048C00001F0B0FC0121084601F0ACFC1020ADF86D
:1048D00018008DF81B0003208DF81A0006A9FE4869
:1048E00001F0E4F91021FC4801F08DFA0220ADF846
:1048F000180006A9F84801F0D9F90221F64801F09C
:1049000084FA00F062FA0021F44802F0CCFE0020A4
:10491000ADF804004FF48270ADF806000020ADF849
:104920000800ADF80A00ADF80C004FF40070ADF8C7
:104930000E001820ADF810000020ADF8120007207E
:10494000ADF8140001A9E54802F008FE0121E34892
:1049500002F0A9FE0020E24908600120E149C1F807
:1049600084014FF47A7001F008F807B000BD1FB55C
:104970000121052001F056FC0021084601F0ACFAA7
:104980000120ADF80C0048208DF80F0003208DF8B1
:104990000E0003A9D04801F089F901200190002000
:1049A0008DF808000C208DF8090001208DF80A0010
:1049B00001A803F01FFA06208DF8000000208DF8F2
:1049C000010001208DF802008DF80300684601F017
:1049D000A4F80121C04801F016FA1FBD2DE9F041ED
:1049E00007460D4616460020BD490C39086038467A
:1049F00000F0C4F98046002405E0FF2000F0BEF975
:104A00002855601CC4B2B442F7DB0120B4490C390C
:104A100008604046BDE8F0812DE9F04107460C46AC
:104A200015460020AE490C390860384600F0A6F95A
:104A30008046002605E014F8010B00F09FF9701C79
:104A4000C6B2AE42F7DB0120A5490C3908604046EA
:104A5000BDE8F0811FB5A4A103C9CDE90201102072
:104A600000F0F7F9052202A93020FFF7D5FF052253
:104A700069461020FFF7B2FF002406E01DF804008D
:104A8000A52800D003E0601CC4B2052CF6DB00BFF3
:104A9000052C02D0012004B010BD0020FBE770B54A
:104AA00005460C4600208E490C390860284600F067
:104AB00065F90646204600F061F901208949C1F8F0
:104AC0008401304670BD70B50446002084490C391D
:104AD0000860204600F052F9FF2000F04FF905462B
:104AE00001208049C1F88401284670BD70B5054693
:104AF000102000F0AEF900207949086020222946F4
:104B0000A020FFF789FF01207649C1F890010A2013
:104B100000F033FF00BF7248903800680028FAD1D7
:104B20000720FFF7D0FF044621462720FFF7B7FFF5
:104B300004F0100028B1FF21E120FFF7B0FF1020A2
:104B400070BD04F0200008B12020F9E7FF20F7E74E
:104B500070B50546102000F07CF90720FFF7B3FF81
:104B6000044621462720FFF79AFF04F0400028B1B1
:104B7000FF21E220FFF793FF002070BD0120FCE73A
:104B800010B500205649086003212320FFF787FF56
:104B9000052257493020FFF73FFF052255492A20BB
:104BA000FFF73AFF1A212420FFF779FF0121222085
:104BB000FFF775FF01212120FFF771FF2021312030
:104BC000FFF76DFF05224B492A20FFF725FF28211B
:104BD0002520FFF764FF0F212620FFF760FF0F213C
:104BE0002020FFF75CFF7E212720FFF758FF0120E0
:104BF0003C49C1F8900110BD10B50020384908604B
:104C000005223B493020FFF707FF052239492A20BA
:104C1000FFF702FF01212120FFF741FF01212220A0
:104C2000FFF73DFF1A212420FFF739FF2821252017
:104C3000FFF735FF20213120FFF731FF0F2126201C
:104C4000FFF72DFF0E212020FFF729FF0120254926
:104C5000C1F8900110BDC17AA52900D07047017834
:104C600001F00101D9B1C178827801EB022109B2CA
:104C7000214A91804179027901EB022109B21E4A51
:104C8000D180417A027A01EB022109B21A4A1180DD
:104C9000C179827901EB022109B2174A518000BF24
:104CA000DCE770B505460720FFF70DFF044604F06A
:104CB000200048B1FFF764FF20212720FFF7EFFE17
:104CC000FF21E120FFF7EBFE04F0400070B320224B
:104CD0002946612012E00000000801400030014038
:104CE0009001214200002142A5A5A5A5A500000034
:104CF000BE990008C399000896090020FFF76EFED0
:104D0000FF21E220FFF7CBFE40212720FFF7C7FE5F
:104D10002846FFF7A0FF1548006808B9012000E009
:104D200000201249086000201149086004F01000BA
:104D300048B1FFF725FF10212720FFF7B0FEFF2124
:104D4000E120FFF7ACFE70BD10B500240121094839
:104D500001F04CF80446012003F0B2F828B10648EF
:104D6000FFF79FFF012003F0BCF810BDB481214282
:104D7000D800002000080140F400002070B505466E
:104D8000002405E0601CC4B2C82C01DD002070BD09
:104D90000221394802F00BFD0028F3D0294636489D
:104DA00002F0B2FC002405E0601CC4B2C82C01DD96
:104DB0000020ECE70121304802F0F9FC0028F3D094
:104DC0002D4802F0A3FCC0B2E1E700B587B0012195
:104DD000042001F027FA0121080301F023FAE02062
:104DE000ADF8180018208DF81B0003208DF81A006C
:104DF00006A9224800F05AFFE021204801F003F8FC
:104E00000020ADF804004FF48270ADF806000020D9
:104E1000ADF808000220ADF80A000120ADF80C0042
:104E20004002ADF80E003820ADF810000020ADF8BB
:104E300012000720ADF8140001A90F4802F08EFB04
:104E400001210D4802F02FFCFF20FFF797FF07B06C
:104E500000BD10B50446084800884FF6C7710840E9
:104E6000054908800846008820430880012102483F
:104E700002F019FC10BD00000030014000080140A4
:104E800010B580226B21D020FBF7CAFC0A2000F06D
:104E900074FD01226B21D020FBF7C2FC0A2000F038
:104EA0006CFD00221921D020FBF7BAFC0A2000F08B
:104EB00064FD02221A21D020FBF7B2FC0A2000F088
:104EC0005CFD08221C21D020FBF7AAFC0A2000F080
:104ED00054FD18221B21D020FBF7A2FC0A2000F071
:104EE0004CFD7521D020FBF7B6FC0446682C01D19F
:104EF000002010BD0120FCE710B5934B0E223B2192
:104F0000D020FBF7C6FC904840788F49097840EAEA
:104F1000012000B28D4908808B48C0788A49897881
:104F200040EA012000B28949488087484079864993
:104F3000097940EA012000B2844988808248407A99
:104F40008149097A40EA012000B2804908877E48F9
:104F5000C07A7D49897A40EA012001B27B484187C5
:104F60007948407B7849097B40EA012001B27748C3
:104F7000818710BD10B53C21D020FBF76CFC724935
:104F800008703B21D020FBF766FC6F49487008464B
:104F90000078497840EA012000B26C4908803E213F
:104FA000D020FBF758FC684988703D21D020FBF7E2
:104FB00052FC6549C87008468078C97840EA0120EB
:104FC00000B2624948804021D020FBF744FC5E4992
:104FD00008713F21D020FBF73EFC5B494871084631
:104FE0000079497940EA012000B25849888010BD13
:104FF00010B54421D020FBF72EFC53490872432101
:10500000D020FBF728FC504948720846007A497ABC
:1050100040EA012000B24D4908874621D020FBF725
:105020001AFC494988724521D020FBF714FC4649F7
:10503000C8720846807AC97A40EA012001B2434822
:1050400041874821D020FBF706FC3F4908734721E0
:10505000D020FBF700FC3C4948730846007B497BA5
:1050600040EA012001B23948818710BD704710B570
:10507000C824002035494862002134488162C16259
:10508000C165016641662CE0FFF774FFFFF7B0FFD2
:105090002E48C06D2D49B1F9381001442B48C16527
:1050A000016EB0F93A00014428480166416EB0F93A
:1050B0003C00014425484166406A2449B1F900108A
:1050C0000844224948620846806AB1F90210014446
:1050D0001E488162C06A1D49B1F9041001441B4891
:1050E000C162201EA4F101018CB2CDD1C8241748A1
:1050F000C06D90FBF4F001B21448A0F84A10006EA5
:1051000090FBF4F001B21148A0F84C10406E90FBF7
:10511000F4F001B20D48A0F84E10406A90FBF4F094
:1051200000B20A4948820846806A90FBF4F001B256
:1051300006488182C06A90FBF4F001B20348C18244
:1051400000F0A8F810BD0000BC0900203C010020C0
:105150000146088870472DE9F04105460E4617467E
:10516000002407E036F81410284602F0BEFCAD1CFF
:10517000601C84B2BC42F5DBBDE8F08130B503466B
:105180000C461546002207E01846FFF7E1FF24F819
:1051900012009B1C501C82B2AA42F5DB30BD2DE9E7
:1051A000F05F80468A461746B8F1006F02D3374851
:1051B000804501D3BDE8F09F02F04FFBA8F1006BE2
:1051C0004FEA9B25CBF34809C9F50074A74200DCE0
:1051D0003C464DE04FF0006101EB85208A142C49DC
:1051E000FFF7CCFF00260BE009EB0600284931F859
:1051F00010004FF6FF71884200D003E0701C86B2A9
:10520000A642F1DB00BFA6421BDA4FF0006101EBC2
:10521000852002F067FB002608E03AF8160006EB4E
:1052200009011B4A22F81100701C86B2A642F4DB69
:105230004FF0006101EB85208A141549FFF78BFFC1
:1052400004E0224651464046FFF785FFA74200D1C1
:105250000FE06D1C4FF000090AEB440AA044381B14
:1052600087B2B7F5007F02DD4FF4007400E03C46E2
:10527000B0E700BF02F0FDFA00BF9BE713B504469C
:10528000012201A92046FFF78AFF1CBD000001088A
:10529000CA09002010B50122FD49FE48FFF77FFF33
:1052A0000122FB49891CFB48801CFFF778FF012283
:1052B000F749091DF748001DFFF771FF0122F44966
:1052C0003839F448801DFFF76AFF0122F04936396A
:1052D000F0480830FFF763FF0122ED493439ED480B
:1052E0000A30FFF75CFF10BD3EB5EB49C869EB49DA
:1052F00004F070F9044604F0EDF880B20290E6493B
:10530000086AE64904F066F9044604F0E3F880B25E
:105310000190E149486AE14904F05CF9044604F06F
:10532000D9F880B20090012202A9DA482030FFF7B4
:1053300036FF012201A9D7482230FFF730FF0122B2
:105340006946D4482430FFF72AFFD349D1F8B80082
:10535000D24904F03FF9044604F0BCF880B2029050
:10536000CD49D1F8BC00CD4904F034F9044604F02D
:10537000B1F880B20190C849D1F8C000C74904F023
:1053800029F9044604F0A6F880B20090012202A98F
:10539000C0482830FFF703FF012201A9BD482A3089
:1053A000FFF7FDFE01226946BA482C30FFF7F7FEF1
:1053B000B949D1F85401B94904F00CF9044604F094
:1053C00089F880B20290B449D1F85801B34904F089
:1053D00001F9044604F07EF880B20190AE49D1F89C
:1053E0005C01AE4904F0F6F8044604F073F880B2AC
:1053F0000090012202A9A7482E30FFF7D0FE01221B
:1054000001A9A4483030FFF7CAFE01226946A1482D
:105410003230FFF7C4FE3EBD3EB59F49086D9F493F
:1054200004F0D8F8044604F055F880B202909A4986
:10543000486D9A4904F0CEF8044604F04BF880B267
:1054400001909549886D954904F0C4F8044604F02C
:1054500041F880B20090012202A98E483430FFF753
:105460009EFE012201A98B483630FFF798FE0122EB
:10547000694688483830FFF792FE8749D1F8EC003A
:10548000864904F0A7F8044604F024F880B202909C
:105490008149D1F8F000814904F09CF8044604F0F9
:1054A00019F880B201907C49D1F8F4007B4904F0EE
:1054B00091F8044604F00EF880B20090012202A98F
:1054C00074483A30FFF76BFE012201A971483C3065
:1054D000FFF765FE012269466E483E30FFF75FFE2A
:1054E0006D49D1F888016D4904F074F8044603F061
:1054F000F1FF80B202906849D1F88C01674904F04D
:1055000069F8044603F0E6FF80B201906249D1F8E1
:105510009001624904F05EF8044603F0DBFF80B2BC
:105520000090012202A95B484030FFF738FE0122BB
:1055300001A958484230FFF732FE0122694655481A
:105540004430FFF72CFE3EBD3EB55349D1F8F00183
:10555000524904F03FF8044603F0BCFF80B20290C9
:105560004D49D1F8F4014D4904F034F8044603F0F4
:10557000B1FF80B201904849D1F8F801474904F0E1
:1055800029F8044603F0A6FF80B20090012202A988
:1055900040486030FFF703FE012201A93D48623018
:1055A000FFF7FDFD012269463A486430FFF7F7FD39
:1055B0003EBD10B5012236493648FFF7DFFD012216
:1055C0003349891C3348801CFFF7D8FD012230493C
:1055D000091D3048001DFFF7D1FD01222C49383943
:1055E0002C48801DFFF7CAFD012229493639294878
:1055F0000830FFF7C3FD01222549343925480A3018
:10560000FFF7BCFD10BD3EB5012202A921482030A4
:10561000FFF7B4FD012201A91E482230FFF7AEFDBD
:10562000012269461B482430FFF7A8FDBDF8080099
:1056300003F088FF0446194903F03AFE1649C86191
:10564000BDF8040003F07EFF0446144903F030FE69
:1056500011490862BDF8000003F074FF04460F49C9
:1056600003F026FE0C494862012202A909482830AD
:10567000FFF784FD012201A906482A30FFF77EFDCD
:105680000122694603482C30FFF778FD08E000004E
:105690008601002000FC0008FC06002000007A447F
:1056A000BDF8080003F04EFF0446924903F000FEE7
:1056B0009149C1F8B800BDF8040003F043FF044667
:1056C0008C4903F0F5FD8C49C1F8BC00BDF8000021
:1056D00003F038FF0446874903F0EAFD8649C1F824
:1056E000C000012202A98548FFF748FD012201A957
:1056F0008248801CFFF742FD012269467F48001D59
:10570000FFF73CFDBDF8080003F01CFF0446794993
:1057100003F0CEFD7849C1F85401BDF8040003F050
:1057200011FF0446734903F0C3FD7349C1F85801E2
:10573000BDF8000003F006FF04466E4903F0B8FD13
:105740006D49C1F85C013EBD3EB5012202A96B481E
:10575000801DFFF713FD012201A968480830FFF7FB
:105760000DFD0122694665480A30FFF707FDBDF8C7
:10577000080003F0E7FE04465E4903F099FD014688
:105780005D480165BDF8040003F0DCFE044659499C
:1057900003F08EFD014658484165BDF8000003F056
:1057A000D1FE0446534903F083FD0146524881650A
:1057B000012202A951480C30FFF7E0FC012201A9A7
:1057C0004E480E30FFF7DAFC012269464B48103094
:1057D000FFF7D4FCBDF8080003F0B4FE04464549C9
:1057E00003F066FD01464448C0F8EC10BDF8040023
:1057F00003F0A8FE04463F4903F05AFD01463E4827
:10580000C0F8F010BDF8000003F09CFE04463949D2
:1058100003F04EFD01463848C0F8F410012202A9F9
:1058200036481230FFF7AAFC012201A93348143090
:10583000FFF7A4FC0122694630481630FFF79EFCB2
:10584000BDF8080003F07EFE04462A4903F030FD4F
:1058500001462948C0F88811BDF8040003F072FE23
:105860000446244903F024FD01462348C0F88C1166
:10587000BDF8000003F066FE04461E4903F018FD63
:1058800001461D48C0F890113EBD3EB5012202A957
:105890001A483230FFF772FC012201A91748343050
:1058A000FFF76CFC0122694614483630FFF766FCAE
:1058B000BDF8080003F046FE04460E4903F0F8FC6C
:1058C0000D49C1F8F001BDF8040003F03BFE0446A9
:1058D000084903F0EDFC0849C1F8F401BDF80000E7
:1058E00003F030FE0446034903F0E2FC0249C1F82C
:1058F000F8013EBD00007A44FC0600202EFC0008A2
:1059000010B56FF0040000F052F92E4800682E49DF
:10591000B0FBF1F02D4908700846007800EB40011B
:10592000C1EBC0104FF6FF7101EAC00028490880A2
:1059300010BD0146254A12784A434FF0E0235A61D0
:1059400000229A611A46126942F001021A6100BFF0
:105950004FF0E022106900F001021AB100F4803229
:10596000002AF5D04FF0E022126922F001024FF038
:10597000E0231A6100229A6170470146144A128896
:105980004A434FF0E0235A6100229A611A46126995
:1059900042F001021A6100BF4FF0E022106900F0EE
:1059A00001021AB100F48032002AF5D04FF0E02253
:1059B000126922F001024FF0E0231A6100229A617D
:1059C000704700002400002000127A00DC00002054
:1059D000DE000020014600BF704700BF3A4A12882F
:1059E00002F04002002AF9D0C2B2374B1B1D1A80C8
:1059F000704710B586B00446012144F2040000F05F
:105A000011FC4FF40070ADF8140003208DF816005F
:105A100018208DF8170005A92C4800F047F94FF41D
:105A20008060ADF8140004208DF8170005A9274800
:105A300000F03CF925208DF8000000208DF80100D1
:105A400002208DF8020001208DF80300684600F066
:105A500064F801940020ADF80800ADF80A00ADF834
:105A60000C00ADF810000C20ADF80E0001A916488E
:105A700000F07FFC012240F22551134800F011FD97
:105A80000121114800F001FD06B010BD10B50E480F
:105A9000008800F0080018B10B48001D0088C4B24F
:105AA00040F22551084800F0E1FD58B140F225517F
:105AB000054800F005FE0448001D0088C4B22046D9
:105AC000FCF751F810BD000000380140000801400B
:105AD0000948804709480047FEE7FEE7FEE7FEE782
