:020000040800F2
:100000004813002001010008154500086D3700085D
:10001000A9440008510A0008C15700080000000068
:10002000000000000000000000000000F54E000885
:100030001D13000800000000F54700088D5100085E
:100040001B0100081B0100081B0100081B01000820
:100050001B0100081B0100081F1300081B010008FA
:100060001B0100081B0100081B0100081B01000800
:100070001B0100081B0100081B0100081B010008F0
:100080001B0100081B0100081B0100081B010008E0
:100090001B0100081B0100081B0100081B010008D0
:1000A0001B0100081B0100081B0100081B010008C0
:1000B0005D5200081B010008695200081B0100087E
:1000C0001B0100081B0100081B0100081B010008A0
:1000D0001B010008A15700081B0100081B010008B4
:1000E0001B0100081B0100081B010008DFF80CD0F1
:1000F00000F03EFC004800471D5F00084813002048
:100100000648804706480047FEE7FEE7FEE7FEE7B1
:10011000FEE7FEE7FEE7FEE7FEE7FEE71552000812
:10012000ED000008202A04DB203A21FA02F0002129
:10013000704721FA02F3D040C2F1200291400843F7
:1001400019467047D2B201E000F8012B491EFBD2DC
:1001500070470022F6E710B513460A4604461946D2
:10016000FFF7F0FF204610BDF0B480EA0102D40F83
:100170004200B2EB410F02D20246084611464A0045
:1001800042D0C30DDDB2C1F3C752AD1A202D35DA0E
:10019000C1F3160141F4000204B15242C5F1200638
:1001A00002FA06F12A411044B3EBD05F23D0C4B168
:1001B000012DA0EBC35009DCF0BC4FF0004202EA75
:1001C000C352DBB200F5000000F0F6BA400000F1C7
:1001D000807000EBC350A0F1807040EAD1704900FC
:1001E00009E0490841EAC071A0EBC35000F50000E6
:1001F000400800EBC350F0BC00F0D5BA61420122C8
:1002000002EB4101001BF6E7F0BC704781F00041B2
:10021000AAE780F00040A7E780EA010210B502F0EB
:100220000043400022D04A001FD0010E01EB1261B2
:10023000C0F35600C2F3560240F4000042F400023C
:10024000A0FB022000047F39140400D0401C50EAB7
:10025000124001D44000491EC2B20C0604EBD0107B
:10026000401C4008802A02D003E0002010BD20F08E
:100270000100002900DA0020184310BD30B480EAE4
:10028000010202F0004530F0004221F0004013D09E
:1002900090B1C30DD40DC2F31601C0F31600E41AD9
:1002A00041F4000140F400027D34914201D3641C0A
:1002B00000E04900002C02DA30BC002070474FF407
:1002C00000000023914201D3891A034340084FEAFA
:1002D0004101F7D151B1914202D14FF0004105E007
:1002E00002D24FF0010101E06FF0010103EBC450B5
:1002F000284430BC00F057BA420005D0C0F3C752C2
:100300005242914201DC0020704700EBC15070471F
:100310002DE9FE4F804681EA0300C00F0C46009095
:1003200021F0004123F00045B8EB0200A94105D2BD
:100330004046214690461C460B46024623F00040AC
:10034000104347D0270DC7F30A00C3F30A510290A8
:10035000401A019040286BDAC3F3130040F4801B6D
:100360000098924620B10023D2EB030A63EB0B0BFB
:1003700001985946C0F14002504600F0F3F9064694
:100380000D4650465946019A00F0FBF910EB080063
:100390006141002487EA115284EAE7731A4340D08E
:1003A000009A62B3019A012A4FEA075215DC001B3A
:1003B00061EB02014FF0004202EA0752CDE9004230
:1003C000001C41F5801132462B4600F032FA03B092
:1003D000BDE8F08F40462146F9E7001B61EB0201C2
:1003E000001C41F5801300185B412018A2F500178E
:1003F00047EB030140EAD570B6196D4111E06D0875
:100400004FEA360645EAC0754FEA0752001B61EB1A
:100410000201001C41F5801149084FEA3000001923
:10042000514132462B4603B0BDE8F04F00F0F2B91F
:100430000098012240000023D0EB020263EBE0733E
:10044000009821464FEAE074B8EB000061EB04012C
:10045000E9E783F000435BE781F0004158E72DE9CD
:10046000FE4F81EA030404F0004421F000410094AF
:100470004FF0000B23F0004350EA01045ED052EA33
:1004800003045BD0C3F30A54C1F30A552C44A4F20D
:10049000F3340194A0FB0254C1F3130141F4801121
:1004A000C3F3130343F4801301FB024400FB034E28
:1004B000840A970A44EA815447EA8357A4FB0768F1
:1004C00002958D0A05FB07854FEA932C04FB0C541B
:1004D0002705029D4FEA065847EA1637B5EB08058F
:1004E0006EEB070C870E920E47EA811742EA8312E1
:1004F000A7FB0201B6EB0B0164EB00042B0D43EAF2
:100500000C335E1844EB1C50DA465146E7FB0201FF
:10051000C5F313044FEA0B3343EA14534FEA043292
:10052000019C43EA0603A4F10C040294009CCDE96B
:1005300000B400F07EF903B0BDE8F08F0020014662
:10054000F9E72DE9F04D81EA030404F0004B21F0B6
:10055000004514464FF0000A23F0004150EA05021E
:1005600020D054EA01021DD0C5F30A570246C5F354
:100570001303C1F31300C1F30A5640F4801543F48A
:100580008013A7EB0608101BD64608F2FD3873EB64
:10059000050002D308F1010801E092185B41B8F1AF
:1005A000000F03DA00200146BDE8F08D00204FF473
:1005B0008011064684460EE0171B73EB050705D332
:1005C000121B63EB050306434CEA010C49084FEA92
:1005D000300092185B4150EA0107EDD152EA030066
:1005E00012D082EA040083EA0501084305D0101BFB
:1005F000AB4106D20122002306E000224FF0004367
:1006000002E06FF0010253101AEB06004CEB0851A8
:1006100010EB0A0041EB0B01BDE8F04D00F0FAB819
:1006200070B521F0004303430CD0C1F30A550024F8
:10063000D5EB040564EB0403D617AD1AB34102DB16
:100640000020014670BD201841EB025170BDC10F62
:1006500080EAE0700844CA079623002100F0ACB895
:1006600096230022114600F0A7B80EB540F23341A0
:1006700002910021CDE900110A460B4600F0D9F89D
:1006800003B000BD00F0004220F00040C10DC0F3F7
:10069000160040F400007F2901DA002070479629F7
:1006A00003DCC1F19601C84001E096398840002A78
:1006B000F4D04042704720F00040C10DC0F3160056
:1006C00040F400007F2901DA00207047962903DCFE
:1006D000C1F19601C840704796398840704700F0D4
:1006E000004230F000400AD0C10D01F56071C0F346
:1006F000160042EA0151C20840071143704700202A
:100700000146704701F0004330B421F0004150EA47
:10071000010206D00A0DA2F56072C1F31301002A8E
:1007200002DC30BC00207047440F44EAC104C10021
:10073000E01830BC00EBC25000F035B8002801DBF7
:10074000C0F10040002901DBC1F100418142704746
:10075000002801DBC0F10040002901DBC1F10041AC
:1007600088427047202A04DB203A00FA02F1002078
:1007700070479140C2F1200320FA03F319439040DF
:100780007047202A06DBCB17203A41FA02F043EAF1
:10079000E07306E041FA02F3D040C2F1200291403A
:1007A0000843194670470029A8BF7047401C4900FC
:1007B00008BF20F00100704710B4B0FA80FC00FAC6
:1007C0000CF050EA010404BF10BC704749B1CCF1F1
:1007D000200421FA04F411FA0CF118BF012121437D
:1007E0000843A3EB0C01CB1D4FEA00614FEA102038
:1007F00042BF002010BC704700EBC35010440029DA
:10080000A4BF10BC7047401C490008BF20F0010085
:1008100010BC704710B5141E73F1000408DA401CB8
:1008200041F1000192185B411A4301D120F001000F
:1008300010BD2DE9F04D92469B4611B1B1FA81F2FF
:1008400002E0B0FA80F220329046FFF78BFF0446B8
:100850000F4640EA0A0041EA0B0153465A46084354
:1008600013D0114653EA010019D0C8F14002504696
:10087000FFF758FC05460E46504659464246FFF7DC
:1008800071FF084305D0012004E020463946BDE849
:10089000F08D0020054346EAE0762C4337430A9862
:1008A0006305E40AA0EB08000022FD0A44EA47546D
:1008B0000A3002D500200146E9E701051019694117
:1008C000DDE9084500196941BDE8F04DA2E72DE9D1
:1008D000F04D00231A461B1A8A4103DB0020014613
:1008E000BDE8F08DC1F30A52C1F3130141F4801544
:1008F0004FF0000BD10702D100186D41521E0027A6
:10090000044640F2FF11384601EB620A3E4680463B
:10091000024600204FF48011FFF704FCC219714118
:10092000BB1846EB0100B4EB030C75EB000C04D3D1
:10093000E41A65EB000517460E46241908F101007C
:100940006D4180463428E3DDF91946EB0600091BAA
:10095000A84103D24FF0FF32134601E000221346B4
:100960001BEB070046EB0A51BDE8F04DFFF752BF05
:10097000064C074D06E0E06840F0010394E80700EC
:1009800098471034AC42F6D3FFF7B4FB80680008F8
:10099000A068000870B5044600688168C943C907AB
:1009A0001CD1816821F00101816001F027FA054620
:1009B0000FE000BF01F022FA401B022809D9A06A0B
:1009C00040F01000A062E06A40F00100E062012007
:1009D00070BD20688068C043C007EBD0002070BDA8
:1009E000F8B500260446009600688168C943C90727
:1009F00028D0816841F001018160134813490068E3
:100A0000B0FBF1F000E0401E00900028FBD101F0A7
:100A1000F5F9054611E000BF01F0F0F9401B02288E
:100A20000BD9A06A40F01000A062E06A40F001001B
:100A3000E06284F824600120F8BD20688068C0432B
:100A4000C007E9D10020F8BD8400002040420F001B
:100A5000FEE700002DE9F74FDFF808B4064682B044
:100A6000BBF900005D46A0F2DC50FFF7F0FDFE4947
:100A7000FFF704FCFD4C0146C4F8A0003046FFF728
:100A800073FB0646C4F8A4003146D4F8BC00FFF757
:100A90006BFBC4F8BC0082463046D4F8AC10FFF7BC
:100AA000B5FBC4F8A800D4F8C06086F00040FFF79A
:100AB00016FE804689463046FFF711FE06460F4671
:100AC0005046FFF70CFE3B463246CDE9008905F063
:100AD00013FAFFF7BCFDC4F8BC00D4F8A410064616
:100AE000C4F8AC10D4F8B000FFF796FB8046C4F809
:100AF000C4003146D4F8B400FFF78EFBC4F8C80038
:100B00000746D4F8A810D4F8B800FFF785FB0646CE
:100B1000C4F8CC0039464046FFF726FB3146FFF7C4
:100B200023FBC4F8D000B5F90200A0F2DC50FFF7B7
:100B30008EFDCD49FFF7A2FB60600399FFF766FBCE
:100B40000646A0603146206AFFF70EFB206282460F
:100B500030462169FFF75AFBE060666A86F0004084
:100B6000FFF7BDFD804689463046FFF7B8FD0646D3
:100B70000F465046FFF7B3FD32463B46CDE90089AC
:100B800005F0BAF9FFF763FD2062A168064621610E
:100B90006069FFF741FB8046A0623146A069FFF71C
:100BA0003BFBE0620746E168E069FFF735FB06467C
:100BB000206339464046FFF7D7FA3146FFF7D4FAAB
:100BC0006063B5F90600A0F2DC50FFF740FDA649CE
:100BD000FFF754FBC4F83C010146C4F84001D4F8C7
:100BE0004C01FFF719FBC4F86C01DFF884A2D4F8BC
:100BF000D050C4F8D4509F49DAF85000FFF70CFBEE
:100C00002946FFF7B1FA0546C4F8D8002946D4F8BA
:100C1000F000FFF7A9FAC4F8F00081462846D4F89E
:100C2000E010FFF7F3FAC4F8DC00D4F8F45085F0D4
:100C30000040FFF754FD06460F462846FFF74FFDDC
:100C400080460D464846FFF74AFD42462B46CDE911
:100C5000006705F051F9FFF7FAFCC4F8F000D4F88A
:100C6000D8100546C4F8E010D4F8E400FFF7D4FA31
:100C70000746C4F8F8002946D4F8E800FFF7CCFA94
:100C8000C4F8FC000646D4F8DC10D4F8EC00FFF7FA
:100C9000C3FA0546C4F8000131463846FFF764FA46
:100CA0002946FFF761FAC4F80401656BA563714931
:100CB000DAF85400FFF7B0FA2946FFF755FA05466F
:100CC000E0632946606DFFF74FFA6065814628466C
:100CD000616CFFF79BFA2064A56D85F00040FFF77B
:100CE000FEFC074688462846FFF7F9FC05460E46F7
:100CF0004846FFF7F4FCCDE900782A46334605F074
:100D0000FBF8FFF7A4FC6065E16B05466164A06C2D
:100D1000FFF782FA0746E0652946E06CFFF77CFAA8
:100D200020660646216C206DFFF776FA0546606660
:100D300031463846FFF718FA2946FFF715FAA0663C
:100D4000D4F86C51C4F870514A49DAF85800FFF7EA
:100D500063FA2946FFF708FA0546C4F874012946E4
:100D6000D4F88C01FFF700FAC4F88C0181462846BC
:100D7000D4F87C11FFF74AFAC4F87801D4F89051FE
:100D800085F00040FFF7ABFC074688462846FFF792
:100D9000A6FC05460E464846FFF7A1FCCDE90078C3
:100DA00033462A4605F0A8F8FFF751FCC4F88C0139
:100DB000D4F874110546C4F87C11D4F88001FFF70B
:100DC0002BFA0746C4F894012946D4F88401FFF7AA
:100DD00023FAC4F898010646D4F87811D4F88801AB
:100DE000FFF71AFA0546C4F89C0131463846FFF76A
:100DF000BBF92946FFF7B8F9C4F8A0010646BBF9CC
:100E0000042040F21A4000271B4D82427EDD1B4821
:100E10000178281F012903D011B1022946D081E0B1
:100E2000A2F57A7202601046FFF711FC8146A046D7
:100E30003146FFF799F9D8F8044182462146FFF779
:100E4000E5F9D8F868108846FFF7E0F9FFF733FCBA
:100E5000288048463146FFF7D9F906462146FFF774
:100E600083F90DE08E06002000004041CC0A0020EE
:100E7000E0000020A34C65425C00002052000020EE
:100E80004146FFF7C3F9FFF716FC6880504621463C
:100E9000FFF76AF94146FFF767F9FFF70CFCA880F6
:100EA00030462146FFF7B2F9414636E00068FFF7C9
:100EB000CEFBD4F80812FFF757F981463146FFF709
:100EC00053F9D4F8048182464146FFF79FF9A46E96
:100ED0002146FFF79BF9FFF7EEFB28804846314695
:100EE000FFF794F906464146FFF73EF92146FFF722
:100EF0008DF9FFF7E0FB688050464146FFF734F973
:100F00002146FFF731F9FFF7D6FB00E00DE0A8809E
:100F100030464146FFF77AF92146FFF725F9FFF7FA
:100F2000CAFBE880288850B10AE0EF80AF806F806C
:100F30002F802762C4F8BC706765C4F8F0702F80FA
:100F4000688800B96F80A88800B9AF80E88800B9C8
:100F5000EF800948007828B1E8880090AB886A885B
:100F6000298803E000231A4619460097034803F036
:100F70009CFA05B0BDE8F08F50000020680E0020FC
:100F80002DE9F0410026044630464A1E04E0235C69
:100F9000401C3344DEB2C0B29042F8DB601810F857
:100FA000010CB0427DD12078AA287AD16078AF2890
:100FB00077D1A07801280BD122798B49012A0BD057
:100FC000022A0ED0032A0FD0042A6AD181F8A60083
:100FD000A07802280BD019E081F8360000F02CFA36
:100FE000F6E781F86E00F3E781F83600F9E720793B
:100FF000012856D105F0B2F9A078314604F098F8EE
:1010000005F068FAA078314604F092F8A078774F9E
:10101000DFF8DC81774D10286FD1314604F088F875
:10102000A08840BAFFF721FB3A464346FFF717FA7C
:10103000FFF768FBC5F8E400E08840BAFFF715FB4E
:101040003A464346FFF70BFAFFF75CFBC5F8E800AA
:10105000208940BAFFF709FB3A464346FFF7FFF9FC
:10106000FFF750FBC5F8EC00608940BAFFF7FDFAC6
:101070003A464346FFF7F3F9FFF744FBA864A0891B
:1010800040BAFFF7F2FA3A464346FFF7E8F9FFF7AE
:1010900039FBE864E08940BAFFF7E7FA3A4643468D
:1010A00000E09EE0FFF7DBF9FFF72CFB2865208AC4
:1010B00040BAFFF7DAFA3A464346FFF7D0F9FFF7AE
:1010C00021FBC5F88001608A40BAFFF7CEFA3A46A4
:1010D0004346FFF7C4F9FFF715FBC5F88401A08A62
:1010E00040BAFFF7C2FA3A464346FFF7B8F9FFF7AE
:1010F00009FBC5F8880103F0FFFEA078112870D124
:10110000314604F015F8A08840BAFFF7AEFA3A4627
:1011100046464346FFF7A3F9FFF7F4FAC5F8B000D7
:10112000E08840BAFFF7A1FA3A463346FFF797F94D
:10113000FFF7E8FAC5F8B400208940BAFFF795FA3E
:101140003A463346FFF78BF9FFF7DCFAC5F8B800EB
:10115000608940BAFFF789FA3A463346FFF77FF9CC
:10116000FFF7D0FA6861A08940BAFFF77EFA3A46E5
:101170003346FFF774F9FFF7C5FAA861E08940BA72
:10118000FFF773FA3A463346FFF769F9FFF7BAFA01
:10119000E861208A40BAFFF768FA3A463346FFF71B
:1011A0005EF9FFF7AFFAC5F84C01608A40BAFFF765
:1011B0005CFA3A463346FFF752F9FFF7A3FAC5F84F
:1011C0005001A08A40BAFFF750FA3A463346FFF77B
:1011D00046F9FFF797FAC5F85401BDE8F04103F06E
:1011E00019BFBDE8F0810000E0000020FCA9F1D2A9
:1011F0004D62503FCC0A0020234930B48A78234BFB
:10120000002472B1012A13D0022A17D0032A1BD05E
:101210000B461E4D5B78042A1D441DD0052A29D09B
:1012200030E0AA282ED101228A70187030BC704795
:10123000AF2827D102228A705870F7E7F12821D20F
:1012400003228A709870F1E732281BD204228A7038
:10125000D87008704C70E9E70A789AB1521E12F003
:10126000FF020A70287103F101034B70DED10520E3
:101270008870DBE78C7028715B1D30BCD9B20348E5
:10128000FFF77EBE8C70D1E74C0000205C0600208A
:10129000F0B521491F484FF4E16EB1F902600778BB
:1012A000B1F90050B1F90440B1F9063000214FF412
:1012B0009662A7B9964212DC954210DC94420EDC8D
:1012C00073450CDBB0F804C00CF1010C1FFA8CFC68
:1012D000A0F804C0BCF1030F02D9B7B101E08180CE
:1012E0008FB193420FDC96420DDC94420BDC7545C6
:1012F00009DBC288521C92B2C280032A04D317F0C1
:10130000FF0F01D00170C180F0BD012707708180FF
:10131000E7E70000500000208E0600207047012003
:1013200000F078BC06490020C8610648016941F018
:1013300004010161016941F0400101617047000051
:10134000280F002000200240064A0021D1610649F2
:101350000A6942F002020A614861086940F04000EF
:1013600008617047280F002000200240044B002233
:10137000DA61044A136943F0010313610180704785
:10138000280F00200020024014480022C168CB062C
:10139000134904D5CA6942F00202CA611022C36827
:1013A0005B0705D5CB6943F00103CB6142F0040232
:1013B000C369DB0707D0CB6943F00403CB61C16984
:1013C00021F00101C161A2F58071013901D0C26033
:1013D0007047C16921F00101C161704700200240DE
:1013E000280F002070B5054600F008FD0646114C98
:1013F00009E0681C07D025B100F000FD801BA84261
:1014000001D9032070BDE068C007F2D1E068800612
:1014100001D52020E060E068C00605D4E069C0077F
:1014200002D1E068400703D5FFF7AEFF012070BD91
:10143000002070BD0020024070B5264CC825002059
:101440006062A062E062E0652066606620E000BF46
:1014500003F0C0FAB4F93810E06D0844E065B4F95F
:101460003A10206E08442066B4F93C10606E0844BF
:101470006066B4F90010606A08446062B4F9021052
:10148000A06A0844A062B4F90410E06A0844E0626B
:101490006D1EADB2DCD2E16DC82091FBF0F1A4F875
:1014A0004A10216E91FBF0F1A4F84C10616E91FB93
:1014B000F0F1A4F84E10616A91FBF0F16182A16A2B
:1014C00091FBF0F124F8141FA16991FBF0F060800A
:1014D00070BD0000E00000200EB5694600900120BC
:1014E000019007200290074800F01CF8054800F022
:1014F000E1F90A21034800F045F9024800F090F8AC
:1015000080B20EBD4C0D00201CB50548D0E9071275
:10151000CDE900128369503007C802F0F9FA1CBD0A
:10152000E0000020F8B50024009490F8242025461F
:10153000012A12D0012280F824204A681F23072A9A
:101540000DD20668776B521E02EB820293409F43D6
:101550000B6893401F43776319E00220F8BD0668CB
:101560000D2A0AD2376BD21F02EB820293409F43AF
:101570000B6893401F43376309E0F76A0D3A02EBAB
:10158000820293409F430B6893401F43F7620A68AF
:10159000072306680A2A0AD3F7680A3A02EB4202CE
:1015A00093409F438B6893401F43F76008E037697F
:1015B00002EB420293409F438B6893401F43376185
:1015C0000A68102A01D0112A20D1124B02689A42CF
:1015D00017D193681B0219D4936843F400039360F6
:1015E0000968102912D10C490C4A0968B1FBF2F1C3
:1015F00001EB8101490000E0491E00910029FBD167
:1016000004E0816A41F020018162012480F82450C5
:101610002046F8BD002401408400002040420F0015
:101620000068C06C704700002DE9F0414FF00007E2
:1016300004003D467ED0A06A002628B9E66284F800
:101640002460204600F07EF82046FFF7A3F9A16A47
:10165000C90600D420B1A06A40F01000A06269E081
:10166000A16A21F4885141F00201A1626268E16936
:10167000E3680A4347EA43010A43A1684FF48077CD
:10168000B94209D0012907D05FF00001D4F814C095
:10169000BCF1010F02D00AE03946F7E7F3B1A36AC3
:1016A00043F02003A362E36A43F00103E36223688B
:1016B000D3F804C02CF4694C4CEA010CC3F804C004
:1016C00021688B68DFF870C003EA0C0313438B605A
:1016D000A168B9420BD0012909D00CE0DFF85CC049
:1016E000A3690CEB43330B4343F40061DFE7218A2A
:1016F0000D05A5F580152168CB6A23F470032B43F3
:10170000CB62216889680E4B1940914208D1E6628C
:10171000A16A21F0020141F00101A162BDE8F0815E
:10172000A06A20F0020040F01000A062E06A40F0E1
:101730000100E0620120F1E7FDF7E1FF00E0FFFFBB
:10174000FE0E1FFF00B500680B4985B0884210D11E
:101750000A48816941F4007181618069694600F439
:10176000007004900820009003200190044800F0CD
:101770005DFA05B000BD00000024014000100240E9
:10178000000801402DE9F84300260D460446009666
:1017900000F034FB804620688168C90508D5A06A3E
:1017A00040F02000A06284F824600120BDE8F883A6
:1017B0004168C90503D4C06A10F4700F26D0022016
:1017C00000F052FE38490968B1FBF0F72068036960
:1017D00036490B424FEA61014FEAA1121BD1C3689F
:1017E0004FEA611C13EA0C0F15D103690B4221D19A
:1017F000C06810421ED114201FE0681C06D045B3FB
:1018000000F0FCFAA0EB0800A84222D8206800688B
:101810008007F2D52AE003690B4202D1C168114268
:1018200006D0026922490A4206D1C068084203D1A3
:10183000542002E0292000E0FC204743009813E0F8
:10184000681C0ED02DB100F0D9FAA0EB0800A84218
:1018500007D9A06A40F00400A06284F82460032045
:10186000A4E70098401C0090B842E9D321686FF0CB
:1018700012000860A06A40F40070A06220688068CE
:10188000C0F3424007280CD1E06850B9A06A20F4A8
:101890008070A062A06AC00403D4A06A40F0010076
:1018A000A062002082E700008400002024499224E6
:1018B0004992240070B5044690F8240001280DD008
:1018C000012084F824002046FFF78AF802004FF038
:1018D000000005D084F82400104670BD022070BDC1
:1018E000A16A40F20123994341F48071A1621F4D26
:1018F00023681F49AB4218D10E6816F4702F14D01C
:10190000A66A46F48016A6620E68760505D5A66A14
:1019100026F4005646F48056A662A66AF6040AD556
:10192000E66A26F00606E66206E0A66A26F4801657
:10193000A6625E68E9E7E06284F824006FF00200C6
:10194000186020688368C3F34243072B05D1A8427F
:1019500008D1096811F4702F04D0816841F4801116
:101960008160B9E7816841F4A001F9E700280140EE
:101970000424014010B590F821100024022903D05E
:101980000421816301243DE001680A6822F00E020F
:101990000A6001680A6822F001020A601A4A0168B6
:1019A000914201D1012121E0174A1432914201D123
:1019B00010211BE0144A2832914201D1891515E00B
:1019C000114A3C32914201D189140FE00E4A503243
:1019D000914202D14FF4803108E00B4A64329142C7
:1019E00002D14FF4801101E04FF08071064A083AAD
:1019F0005160012180F82110002180F82010416BF6
:101A000001B18847204610BD0800024070B5044669
:101A100000F0F4F90546601C02D004480078044444
:101A200000F0ECF9401BA042FAD370BD7800002012
:101A30002DE9F047054626480F460126017E01297B
:101A40000FD00121814601762868DFF888804CF2AA
:101A50005034022808D0A2462046FFF7C3FCA8B1A4
:101A600031E00220BDE8F0872046FFF7BBFC08BB51
:101A70000120FFF757FC2046FFF7B4FCD8F8101000
:101A8000064621F00401C8F810101CE04FF0FF30AA
:101A90003860AC6811E02046FFF756FC5046FFF76F
:101AA000A1FCD8F81010060021F00201C8F81010AF
:101AB00001D03C6007E004F58064D5E9020100EB49
:101AC0008120A042E7D8002189F818103046C9E7E4
:101AD000280F0020002002400348016941F08001E6
:101AE0000161002070470000002002402DE9F05FF6
:101AF00007461C4888460024017E15461E460129DB
:101B000009D00121814601764CF2503A5046FFF748
:101B100069FC18B122E00220BDE8F09F012F02D03D
:101B2000022F00D00427D346DFF83CA0220128462C
:101B30003146FEF7F7FA81B208EB4400FFF716FCD6
:101B40005846FFF74FFCDAF8102022F00102CAF8DD
:101B5000102018B9641CE4B2BC42E7D3002289F813
:101B60001820D9E7280F0020002002400649002055
:101B70000A69120607D5054A4A60054A4A6009699A
:101B8000090600D501207047002002402301674567
:101B9000AB89EFCD10B5072002F060FD044680064A
:101BA00009D502F0EFFC2021272002F0CDFDFF2116
:101BB000E12002F0C9FD600618D54021272002F07F
:101BC000C3FD20221149612002F024FDFF21E22003
:101BD00002F0BAFD0D4803F071F802F0CFFEFFF7F6
:101BE00057FB4FF400510A4800F0FEF8E0060BD511
:101BF00002F0C8FC1021272002F0A6FDFF21BDE85D
:101C00001040E12002F0A0BD10BD0000AD0000209A
:101C1000000C0140044910B50A68024202D0086075
:101C2000FFF7B8FF10BD0000140401402DE9F84F84
:101C3000DFF890A100220AF1040B144601274FF0AF
:101C40000F090BF1040E00BF0B6807FA04F52B40D7
:101C5000AB4274D1DFF870C14E68A6EB0C08664544
:101C60002BD00DDC032E34D005DC36B3012E19D079
:101C7000022E2FD11BE0112E16D0122E2AD119E0E0
:101C8000B8F5881F19D006DCB8F5803F15D0B8F537
:101C9000801F1FD111E0B8F5001F0ED0B8F5041F4A
:101CA00018D10AE0CA6815E0CA68121D12E0CA68B5
:101CB00008320FE0CA680C320CE08A682AB1012AA7
:101CC0004FF0080203D0456104E0042202E0056100
:101CD00000E00022FF2B01D8064601E000F10406D7
:101CE0004FEA840501D9A5F12005D6F800C009FA0C
:101CF00005F82CEA080C02FA05F54CEA050CC6F8C2
:101D000000C04D68ED0057D5304DAE6946F0010674
:101D1000AE61AD6924F0030605F0010500952C4D78
:101D200006EB050CDCF80850A6074FEA167809FA0E
:101D300008F6B543274EB04202D1002610E03BE042
:101D4000254EB04201D101260AE0244EB04201D115
:101D5000022605E0224EB04201D1032600E004260F
:101D600006FA08F62E43CCF808604D68DAF80060F1
:101D7000ED03554601D51E4300E09E432E604D689D
:101D8000DBF80060AD035D4601D51E4300E09E43D5
:101D90002E604D68DEF80060ED02754601D51E43E9
:101DA00000E09E432E604D68AD020E4D2E6801D5B9
:101DB0001E4300E09E432E60641C102CFFF444AFD1
:101DC000BDE8F88F0004014000001110001002402F
:101DD0000000014000080140000C014000100140DB
:101DE000001401400C040140C2684A40C2607047C0
:101DF0000AB1016170470904FBE7000001488068EF
:101E0000704700007800002070B504001BD094F8E3
:101E10003D00002520B984F83C50204600F042FAED
:101E2000242084F83D002068016821F00101016050
:101E300000F0A4FC404A6168914201D83F4900E0AB
:101E40003F49884201D2012070BD3E492368B0FB62
:101E5000F1F159606368934206D94FF49673594380
:101E60004FF47A73B1FBF3F12368491C196261687E
:101E7000914210D84900401EB0FBF1F2521CC2F34F
:101E80000B02042A01D2042022E0B0FBF1F0401C36
:101E9000C0F30B001CE0A368CBB301EBC10202EB63
:101EA0000116421EB2FBF6F2521C42F480421205A9
:101EB00036D06BB301EBC10202EB0111401EB0FB47
:101EC000F1F0401CC0F30B0040F4804040F40040AF
:101ED0002168C861D4E90701084321680860D4E992
:101EE0000310084321688860D4E90501084321688C
:101EF000C8602068016841F001010160256420206C
:101F000084F83D00256384F83E50002070BD00E059
:101F100008E001EB4106421EB2FBF6F2521CC6E796
:101F20000120D5E701EB4101401EB0FBF1F0401C60
:101F3000C0F30B00CAE70000A086010080841E00E9
:101F400000093D0040420F002DE9FF4F83B09A4643
:101F5000DDE9118793460446DDF84090FFF74EFF18
:101F6000054694F83D00202872D1192301227B49AF
:101F70002046009501F0FFFC0028F5D194F83C00C4
:101F8000012865D0012084F83C0020680168C90759
:101F900003D1016841F0010101602068016821F46A
:101FA00000610160222084F83D00402084F83E005A
:101FB00000262664C4F82490A4F82A806848E062C9
:101FC000608D2085CDE9007553465A462046049918
:101FD00001F0E1FB28B1206C84F83C60042851D06A
:101FE00075E0208DDFF87C8168B1012814D00228CB
:101FF000206801681ED041F4806101602068416959
:10200000806900909BE020684169816900910168C6
:1020100041F40071016092E02068016821F4806160
:10202000016072B62068416981690091016841F4DC
:1020300000710AE041F40061016072B620684169F4
:1020400081690091016821F48061016062B676E0E7
:1020500081E0032850D801280BD002283B464FF0DE
:10206000000241462046009512D001F084FC70BB6E
:1020700013E02A463946204601F0F2FC30B1206CCC
:10208000202824D0012007B0BDE8F08F20684BE065
:1020900001F071FCD8B972B61BE02068016821F428
:1020A0008061016072B620680169606A421C6262E8
:1020B0000170208D401E2085608D401E60853B464E
:1020C000002241462046009501F055FC08B103204E
:1020D000D9E72068016841F4007101602068016956
:1020E000606A421C62620170208D401E2085608DF6
:1020F000401E608562B6C9E72A463946204601F08F
:10210000AFFC0028BBD120680169606A421C626292
:102110000170208D401E2085608D401E60852068E6
:102120004169C94349070AD40169606A421C626275
:102130000170208D401E2085608D401E6085208DA1
:10214000002886D1202084F83D0084F83E6084F881
:102150003C60002097E7022095E700000200100095
:102160000000FFFF040001002DE9FF4F83B09A46F5
:10217000DDE9118793460446DDF84090FFF73EFE07
:10218000064694F83D0020287DD1192301224349B9
:102190002046009601F0EFFB00287CD194F83C002B
:1021A000012878D0012084F83C0020680168C90724
:1021B00003D1016841F0010101602068016821F448
:1021C00000610160212084F83D00402084F83E0039
:1021D00000252564C4F82490A4F82A803048E062E1
:1021E000608D2085CDE9007653465A4620460499F5
:1021F00001F04AFB80B3206C84F83C50042848D09E
:1022000008E032463946204601F05BFC30B1206CD4
:10221000042839D0032007B0BDE8F08F606A411C64
:102220006162216800780861208D401E80B220859F
:10223000618D491E618521684A69D24352070BD4DA
:1022400068B1606A421C626200780861208D401E9D
:102250002085608D401E6085208D0028D1D13246BA
:102260003946204601F060FB0028D0D154F83D0BE0
:10227000016841F400710160202004F81E09E5772F
:1022800065770020C7E706E02068016841F4007127
:1022900001600120BFE70220BDE70000020010003E
:1022A0000000FFFF00B500680C4985B0884212D1DC
:1022B000C020009012200190032003906946084836
:1022C000FFF7B4FC0748C16941F40011C161C0695E
:1022D00000F40010049005B000BD00000054004060
:1022E000000C01400010024002488168027811444D
:1022F0008160704778000020074810B5016841F000
:1023000010010160032000F09DF8002000F006F8A5
:1023100000F024F8002010BD0020024070B50D4DE3
:1023200004464FF47A712878B1FBF0F00A49096845
:10233000B1FBF0F000F061FD48B9102C07D200228B
:102340002146501E00F05EF800206C6070BD012038
:1023500070BD00007800002084000020214808B5EE
:10236000816941F001018161816901F00101009100
:10237000C16941F08051C161C06900F08050009096
:10238000052000F05FF8002211466FF00B0000F00E
:1023900039F8002211466FF00A0000F033F80022ED
:1023A00011466FF0090000F02DF800221146501F71
:1023B00000F028F800221146101F00F023F8002238
:1023C0001146901E00F01EF800221146501E00F02B
:1023D00019F80548416821F0E06141F00071416061
:1023E00008BD0000001002400000014000F01F0284
:1023F000012191404009800000F1E020C0F8001167
:1024000070470000F0B40E4B1B680C46C3F3022368
:10241000C3F10705042D00D90425191D072901D290
:10242000002300E0DB1E012606FA05F1491E2140CB
:1024300099409E40761E16403143F0BC02F0CAB966
:102440000CED00E0064900F0070208684FF6FF03B4
:10245000184040EA0220034A104308607047000019
:102460000CED00E00000FA0510B529A401461DCCD2
:1024700086B08DE81D002AA02A4C00680490002038
:10248000012923D002293AD010291DD16168226880
:10249000D20119D5C1F38342C9031DF8020009D541
:1024A000616804AAC1F34041515C1F4AB2FBF1F1DB
:1024B000484301E01D4948436168490204D4400093
:1024C0005FF00301B0FBF1F006B010BD226AC2F369
:1024D0000121012903D1920701D5C803F4E702299C
:1024E00005D1626A920702D549F64040ECE703291C
:1024F000EAD121688903E7D54FF22440E4E700F0F0
:102500004DF96168C1F38131491C4900DAE70000E7
:1025100002030405060708090A0B0C0D0E0F101024
:10252000010200000010024000127A0000093D0084
:102530002DE9F84305460078354CC00754D0E069D2
:102540000026C00008D4E06940F08050E061E069F6
:10255000012600F0805000902E480168C90512D471
:102560000168804641F480710160FFF747FC07462F
:1025700005E000BFFFF742FCC01B642823D8D8F851
:102580000000C005F6D5206A10F4407021D0A9885B
:1025900001F4407181421CD0206A1F49012220F4BD
:1025A00040700A6000220A602062C00711D0FFF765
:1025B00025FC074641F2883808E000BFFFF71EFC03
:1025C000C11B414502D90320BDE8F883206A80077A
:1025D000F4D5206A696820F44070084320621EB177
:1025E000E06920F08050E0612878800705D56068B8
:1025F000A96820F44040084360602878C00605D5EB
:102600006068E96820F48000084360600020DBE730
:102610000010024000700040400442422DE9F047A3
:10262000DFF83C8105460E46D8F8000000F00700B0
:10263000B0420CD2D8F8001021F007013143C8F89D
:102640000010D8F8000000F00700B04263D12878ED
:10265000444C800705D56068A96820F0F000084365
:1026600060602878C00745D06868012816D02168C6
:10267000022816D0890700294DDA616821F003018C
:1026800001436160FFF7BAFB6968074641F2883091
:1026900001290FD00229814619D027E0216889033A
:1026A000E9E78901E7E700BFFFF7A8FBC11B494540
:1026B00001D918E081466068C0F381000128F3D198
:1026C00018E000BFFFF79AFBC11B49450BD86068B3
:1026D000C0F381000228F5D10CE000BFFFF78EFBAC
:1026E000C11B494502D90320BDE8F087606810F09E
:1026F0000C0FF3D1D8F80010404601F00701B142A9
:102700000BD9016821F0070131430160006800F036
:102710000700B04201D00120E6E72878400705D540
:102720006068E96820F4E06008436060287800078A
:1027300006D56068296920F4605040EAC1006060F5
:1027400000F03CF86168084AC1F30311515CC840CD
:10275000064908600020FFF7E1FD0020C4E7000003
:10276000002002400010024076670008840000202C
:1027700001480068704700008400002004480549B3
:1027800000684968044AC1F30221515CC84070479F
:1027900084000020001002408667000804480549B4
:1027A00000684968044AC1F3C221515CC8407047BF
:1027B00084000020001002408667000812A185B046
:1027C0000FC98DE80F0014A0144A006804905168E6
:1027D000134801F00C03042B10D0082B0ED1C1F3C9
:1027E0008343C9031DF803000AD5516804AAC1F345
:1027F0004041515C0A4A5043B0FBF1F005B07047CC
:1028000008494843FAE700000203040506070809DF
:102810000A0B0C0D0E0F10100102000000100240F8
:1028200000127A0000093D002DE9F84F04460078B7
:10283000B94DC00748D06868C0F38100012807D0AF
:102840006868C0F38100022809D16868C00306D512
:102850002868800338D5606800286FD034E060684D
:10286000B0F5803F0BD010B1B0F5A02F11D0286883
:1028700020F480302860286820F4802002E0286856
:1028800040F480302860606888B1FFF7B7FA0646E8
:1028900009E0286840F480202860F0E7FFF7AEFAEE
:1028A000801B642875D828688003F7D50CE0FFF7F3
:1028B000A5FA064605E000BFFFF7A0FA801B6428D2
:1028C000F0D828688003F7D42078944E80074FF022
:1028D00001094FF000083BD5686810F00C0F07D0D5
:1028E0006868C0F38100022809D16868C00306D473
:1028F0002868800714D5206901281FD110E02069BD
:10290000B0B1C6F80090FFF779FA074605E000BFBE
:10291000FFF774FAC01B0228C4D828688007F7D5CF
:102920002868616920F0F80040EAC10028600FE0E3
:10293000C6F80080FFF762FA074606E0E9E000BF4C
:10294000FFF75CFAC01B022823D828688007F7D459
:10295000207800072CD57248A169D9B1C0F8009041
:10296000FFF74CFA074604E0FFF748FAC01B0228BD
:102970000FD8686A8007F7D56A484FF4FA510068A3
:10298000B0FBF1F0009000BF0098411E0091FAD218
:102990000EE080E0C0F80080FFF730FA074604E060
:1029A000FFF72CFAC01B022875D8686A8007F7D495
:1029B0002078400760D5E8690027C00008D4E8699E
:1029C00040F08050E861E869012700F080500090F5
:1029D00055480168C90513D40168834641F48071E4
:1029E0000160FFF70BFA824606E000BFFFF706FA28
:1029F000A0EB0A0064284ED8DBF80000C005F5D52E
:102A0000E06801280AD008B1052813D0286A20F010
:102A100001002862286A20F0040002E0286A40F0E1
:102A200001002862E06841F2883B98B1FFF7E6F9BF
:102A300082460BE0286A40F004002862EEE700BFFF
:102A4000FFF7DCF9A0EB0A0159455AD8286A80073C
:102A5000F6D50CE0FFF7D2F9824605E0FFF7CEF994
:102A6000A0EB0A0159454CD8286A8007F6D41FB15B
:102A7000E86920F08050E861E06988B36968C1F3D3
:102A80008101022945D00228C6F8608004D0FFF7F2
:102A9000B5F9044638E034E0FFF7B0F9074604E042
:102AA000FFF7ACF9C01B02282BD828688001F7D4A7
:102AB000206AB0F5803F05D16868A16820F4003035
:102AC00008436860D4E908010843696821F4741177
:102AD00008436860C6F86090FFF790F9044606E086
:102AE00015E000BFFFF78AF9001B022809D8286803
:102AF0008001F7D50BE000BFFFF780F9001B02282B
:102B000002D90320BDE8F88F28688001F4D40020A2
:102B1000F8E70120F6E70000001002400000424202
:102B200080044242840000200070004070B5040020
:102B300005D00025A56294F8510010B104E00120F1
:102B400070BD204600F034F8022084F8510020685F
:102B5000016821F040010160D4E901010843D4E992
:102B600003121143084361690843218B01F400718A
:102B70000843E1690843216A0843A16A08432168C0
:102B80000860A069042101EA1040616A08432168D5
:102B900048602168E06A08612068C16921F4006129
:102BA000C1616565012084F85100002070BD0000FE
:102BB00010B50068114986B088421CD1104881695F
:102BC00041F48051816180690E4C00F48050049082
:102BD000A020009002200190032003906946204627
:102BE000FFF724F800214020CDE900010291694659
:102BF0002046FFF71BF806B010BD00000030014072
:102C000000100240000801402DE9F84F044690F8FA
:102C1000500000260A9F9A4693460D464FF0010841
:102C200001280ED0012084F85000FFF7E7F8814614
:102C300094F85100616801280CD0B1F5827F07D16A
:102C400002E00220BDE8F88FA16809B9042801D08C
:102C50000226BDE055B1BBF1000F07D0BAF1000F5D
:102C600004D094F85100012802D004E00126AFE01E
:102C7000052084F8510000206065C4F838B0A4F83D
:102C80003EA0A4F83CA02563A4F836A0A4F834A084
:102C90002064606420680168490603D4016841F03B
:102CA00040010160E068B0F5006F606804D0E8B3EF
:102CB000E08E01283BD06AE010B1E08E01282ED1D1
:102CC000216835F8020BC860E08E401EE08626E0E1
:102CD000B8F1000F0DD0E08E58B1206881688907E7
:102CE00007D535F8021BC160E08E401EE0864FF02C
:102CF0000008E08F58B120688168C90707D0C06814
:102D00002BF8020BE08F401EE0874FF00108781C83
:102D100005D0FFF773F8A0EB0900B84246D2E08E69
:102D20000028D5D1E08F0028D2D136E0FFE7216816
:102D300015F8010B0873E08E401EE08627E000BF07
:102D4000B8F1000F0DD0E08E58B120688168890776
:102D500007D515F8011B0173E08E401EE0864FF089
:102D60000008E08F58B120688168C90707D0C068A3
:102D70000BF8010BE08F401EE0874FF00108781C34
:102D800005D0FFF73BF8A0EB0900B8420ED2E08E69
:102D90000028D5D1E08F0028D2D13B460122022164
:102DA0002046CDF8009001F0CBFF08B103260FE0DC
:102DB0004A463946204601F0B3FF18B101262020CB
:102DC000606505E0A06818B92068C1688068009057
:102DD000012084F85100002084F85000304631E78B
:102DE0004FF0E0210428086903D020F004000861B6
:102DF000704740F00400FAE7704710B5401EB0F18C
:102E0000807F01D3012010BD4FF0E02460610F21CD
:102E1000601701F0DFFC0020A06107202061002086
:102E200010BD10B5FFF7E8FF10BD7047704730B513
:102E300090F83C20012A20D0012280F83C20022377
:102E400080F83D3003685C6824F070045C600368BF
:102E50005C680D682C435C6003689C6824F0800407
:102E60009C6003689C6849680C439C6080F83D2026
:102E7000002180F83C10084630BD022030BD10B55E
:102E8000040003D094F83D0010B107E0012010BD0C
:102E9000002084F83C00204600F00CF8022084F862
:102EA0003D00211D206802F0E5F9012084F83D0075
:102EB000002010BD08B501681448B1F1804F14D04E
:102EC000134A914220D1C16941F00401C161C06936
:102ED000002200F00400009002211E20FFF792FA69
:102EE0001E20BDE80840FFF781BAC16941F0010129
:102EF000C161C069022200F00100009011461C204F
:102F0000FFF780FA1C20ECE708BD0000001002402B
:102F1000000800400168CA6842F00102CA60006807
:102F2000016841F0010101600020704770B504465E
:102F300090F83C00012817D0012584F83C5002206D
:102F400084F83D002068826822F0770222F47F42F4
:102F500082600868502837D00DDC202859D005DC65
:102F600088B3102841D151E0022070BD302853D0E1
:102F700040283AD13FE060282ED070280BD0B0F521
:102F8000805F03D0B0F5005F2FD110E0206881682A
:102F900021F0070115E0CB68D1E90121206802F09A
:102FA000AAF92168886840F0770088601DE0CB6846
:102FB000D1E90121206802F09EF92068816841F47E
:102FC0008041816011E01EE0CA684968206802F013
:102FD00047FA5021206806E0CA684968206802F074
:102FE00050FA6021206802F090F984F83D500020EA
:102FF00084F83C0070BDCA684968206802F030FA65
:1030000040212068EFE700212068ECE710212068CC
:10301000E9E720212068E6E730212068E3E77047F0
:1030200070B50446006801694FF00005C94389077F
:1030300015D4C168C943890711D4E91E0161012073
:103040002077206880698007204602D0FFF7E7FFDD
:1030500004E000F0B7F8204600F04CF9257720682E
:103060000169C943490717D4C168C943490713D443
:103070006FF004010161022020772068806910F45C
:10308000407F204602D0FFF7CAFF04E000F09AF824
:10309000204600F02FF9257720680169C943090708
:1030A00016D4C168C943090712D46FF00801016141
:1030B000042020772068C0698007204602D0FFF7EF
:1030C000AEFF04E000F07EF8204600F013F925770B
:1030D00020680169C943C90617D4C168C943C90634
:1030E00013D46FF010010161082020772068C069B7
:1030F00010F4407F204602D0FFF791FF04E000F07B
:1031000061F8204600F0F6F8257720680169C94388
:10311000C90708D1C168C943C90704D1891E016123
:10312000204600F001F920680169C943090609D465
:10313000C168C943090605D46FF0800101612046CA
:10314000FFF773FE20680169C943490609D4C168C5
:10315000C943490605D46FF040010161204600F0E3
:1031600073F920680169C94389060BD4C168C94352
:10317000890607D46FF0200101612046BDE8704048
:10318000FFF754BE70BD00001FB500680A498842B1
:1031900011D1332000900220019003906946074826
:1031A000FEF744FD0648416821F4406141F0E061CA
:1031B00041F4006141601FBD00040040000C01406B
:1031C00000000140704770B5044690F83C000D4681
:1031D00001280DD0012684F83C60022084F83D00CF
:1031E00042B1042A18D0082A2AD00C2A4DD139E03D
:1031F000022070BD206802F091F82068816941F0DA
:10320000080181612068816921F0040181612068E1
:1032100081692A69114311E0206802F0A7F820684B
:10322000816941F4006181612068816921F48061D4
:103230008161206881692A6941EA0221816124E073
:10324000206802F0BFF82068C16941F00801C1613F
:103250002068C16921F00401C1612068C1692A693F
:10326000114311E0206802F0D9F82068C16941F4E7
:103270000061C1612068C16921F48061C161206879
:10328000C1692A6941EA0221C16184F83D600020D8
:1032900084F83C0070BD10B5040003D094F83D00E4
:1032A00010B107E0012010BD002084F83C0020464A
:1032B00000F00CF8022084F83D00211D206801F088
:1032C000D9FF012084F83D00002010BD08B500683A
:1032D0000649884208D10648C16941F00201C1612E
:1032E000C06900F00200009008BD0000000400402A
:1032F000001002407047000010B50446006801222B
:1033000001F0EEFF07492068884203D1416C41F487
:10331000004141642068016841F001010160002022
:1033200010BD0000002C01402DE9F0410546006869
:103330003E493F4C88424ED16068401C6060C007E7
:103340000BD101F047FB01F057FAFEF7DDF83948E1
:103350008268D0E90010FDF77DFB6068072190FBD3
:10336000F1F201FB120161B10D2190FBF1F201FBC1
:10337000120159B1112190FBF1F201FB120040B191
:1033800009E002F0ABFE02F015FF04E002F08EFF50
:1033900001E003F063F96068142190FBF1F201FB96
:1033A0001200254EDFF894804FF4805728B930780A
:1033B00018B139464046FEF717FD60684FF4FA71C0
:1033C00090FBF1F201FB12003178084303D139463A
:1033D0004046FEF709FD2868B0F1804F23D1184818
:1033E00000250168491C0160A268521CA2600A29DC
:1033F0000CDB0560072001F031F920700146272021
:1034000001F0A2F9FF21E22001F09EF9A068052851
:1034100009DB0320A560FEF75FF80A490880BDE8D4
:10342000F04101F0ABB9BDE8F081000000080040B8
:10343000680000203806002050000020000C0140E9
:103440000C000020640000207047704770B50268CF
:1034500004461068D168536910F00F0F50D003F084
:10346000010501F4907635435DD0C20705D0CA0549
:1034700003D5E26B42F00102E263420705D5DA07A9
:1034800003D0E26B42F00202E263820705D5DA075D
:1034900003D0E26B42F00402E263020705D5DA07CB
:1034A00003D0E26B42F00802E263E26B002A33D001
:1034B000800604D5880602D5204602F00AF8206866
:1034C0004069E16BC0F38010090700D428B320469F
:1034D00001F0F1FF2068416949061AD5416921F0E0
:1034E00040014161606BA0B11B494163606BFEF715
:1034F00041FA002810D0606B416BBDE8704008476E
:10350000830610D58B060ED52046BDE8704001F02D
:10351000E0BF2046FFF799FF70BD2046FFF795FFFB
:103520000020E06370BD030606D50B0604D52046D7
:10353000BDE8704002F0D0B84006F3D54806F1D59A
:10354000D168204621F04001D160202184F8391053
:1035500000F00BF970BD0000A754000870B504001E
:1035600004D094F83900002510B106E0012070BDA8
:1035700084F83850204600F023F8242084F83900DD
:103580002068C16821F40051C160204601F0ECFFC1
:103590002068016921F4904101612068416921F0AE
:1035A0002A0141612068C16841F40051C160E563AE
:1035B000202084F8390084F83A00002070BD000013
:1035C00010B50068184986B088422BD11748816928
:1035D00041F4804181618069154C00F48040049081
:1035E0004FF4007000900220019003200390694680
:1035F0002046FEF71BFB00212015CDE900010291BA
:1036000069462046FEF712FB022201212520FEF723
:10361000F9FE2520FEF7EAFE064801220178064859
:1036200000F00CF806B010BD003801400010024058
:103630000008014074000020E80E002090F83A30A5
:10364000202B22D1F9B1F2B190F83830012B1CD0E7
:1036500081628285C2850021C163222280F83A20DE
:1036600080F838100168CA6842F48072CA60016844
:103670004A6942F001024A610068C16841F02001D4
:10368000C160002070470120704702207047000091
:10369000054810B50078FDF7AFFDBDE810404FF4C8
:1036A00000510248FEF7A0BB400D0020000C014075
:1036B0002DE9F843044690F839001F4616460D469A
:1036C000202850D1A5B19EB194F8380001284AD0E5
:1036D000012084F838004FF00008C4F83C80212015
:1036E00084F83900FEF78AFBA6848146E68426E04A
:1036F0000120BDE8F883E08C401EE084A0684B46C2
:10370000B0F5805F4FF000024FF080012046009737
:1037100003D002F012F8E8B90DE002F00EF8C8B9D3
:1037200028882168C0F308004860206908B16D1C32
:1037300005E0AD1C03E0216815F8010B4860E08C42
:103740000028D8D14B46002240212046009701F0A6
:10375000F4FF08B10320CCE7202084F8390084F876
:1037600038800020C5E70220C3E77047FEE7016804
:103770004A69D24352050CD46FF480624A61042135
:103780000164002140F8301F2022427301730120A0
:103790007047002070472DE9F84F044600688946BD
:1037A0000B9D01689846174641F4806101602068CE
:1037B000016841F48071016000954FF0011A002208
:1037C000514620460A9B00F0D6F8F0BB216809F06C
:1037D000FE0008610AF1010B2B46594620460A9A61
:1037E00000F0FAF818B1206C042812D03AE02068F2
:1037F0004169806900902A4620460A9900F061F9E3
:1038000050B1206C04282DD12068016841F400716A
:1038100001600120BDE8F88FFEB2B8F1010F09D0B8
:103820002168380A08612A4620460A9900F049F9B9
:103830000028E6D1206806612A4620460A9900F051
:1038400040F90028DDD1206800E00BE0016841F478
:103850008071016000950022514620460A9B00F0CD
:103860008AF808B10320D5E7216809F0FF0040F08D
:10387000010008612B46594620460A9A00F0ACF830
:103880000028B0D1C6E700002DE9F84304460068DF
:103890000D46DDE9089701689846164641F48071A7
:1038A00001604B4600224FF001112046009700F0C6
:1038B00062F8E8B9216805F0FE0008613B464A4617
:1038C0001849204600F088F828B1206C04280FD150
:1038D0000120BDE8F88320684169806900903A467C
:1038E0004946204600F0EDF820B1206C042813D0A2
:1038F0000320EEE7F5B2B8F1010F09D02168300AD4
:1039000008613A464946204600F0DBF80028ECD131
:10391000206805610020DCE72068016841F400713F
:103920000160D5E70200010070B516460D46044659
:103930001AE02046FFF71BFF08B1012070BD681C8C
:1039400012D025B1FEF75AFA801BA8420CD954F8C0
:10395000400F40F0200044F8100900202060202192
:1039600061732073032070BD20684069C043400725
:10397000DFD4002070BD2DE9F0471E4690460D466D
:103980000446C1F30747DDF8209012E0701C10D008
:103990002EB1FEF733FAA0EB0900B04209D900209E
:1039A00044F8300F20216173A07320730320BDE819
:1039B000F0872068012F0AD0806925EA0000000402
:1039C000000C06D000214145E0D00020EFE740691F
:1039D000F3E70121F7E700002DE9F0479A46914609
:1039E0000D46044600264FF02008C1F307472AE0A1
:1039F00020684069C043400512D42068016841F442
:103A00000071016021686FF48060486104202064C7
:103A1000266384F83D8084F83C600120BDE8F0878F
:103A2000B9F1FF3F0FD0B9F1000F05D0FEF7E6F96D
:103A3000A0EB0A01494506D944F8306F84F80D809F
:103A400026730320EAE72068012F07D0D0F818007A
:103A500025EA00000004000CE0D0C9E74069F7E760
:103A60002DE9F041002590460E460446202721E02E
:103A70004069C043C0060CD421686FF01000486153
:103A80002564256384F83D7084F83C500120BDE82E
:103A9000F0812EB1FEF7B2F9A0EB0800B04209D9CF
:103AA00054F8400F40F0200044F804096770257076
:103AB0000320ECE720684169C9434906D8D40020B7
:103AC000E5E770B516460D4604461AE02046FFF7B6
:103AD0004EFE08B1012070BD681C12D025B1FEF762
:103AE0008DF9801BA8420CD954F8400F40F02000FB
:103AF00044F8100900202060202161732073032006
:103B000070BD20684069C0430006DFD4002070BD4E
:103B10002DE9FF4FDFF8948593B04446D8F80C1098
:103B20000E463046FCF778FB0690216930460D467C
:103B3000FCF772FB0790616930460F46FCF76CFB9F
:103B4000294604900846FCF767FB0590A1692846C2
:103B50000E46FCF761FB394601900846FCF75CFB1A
:103B6000039031463846FCF757FB31460090084633
:103B7000FCF752FB0290A16A0B910846FCF74CFB44
:103B80001090E16A0E463046FCF746FB0D90216B23
:103B900009910846FCF740FB616B81468A46504616
:103BA000FCF73AFB0F9050461599FCF735FB07469A
:103BB00014990998FCF730FB054686F000401399EC
:103BC000FCF72AFB2946FCF721FB3946FCF71EFBD4
:103BD000DFF8DCB45F465946FCF71EFB0B99FCF797
:103BE000C3FAA062054650461499FCF715FB1190E4
:103BF00015990998FCF710FB0E9029461398FCF7CD
:103C00000BFB0E99FCF7B0FA1199FCF7FFFA394655
:103C1000FCF702FB3146FCF7A7FA0646E062514684
:103C20001398FCF7F9FA0E9030461599FCF7F4FA60
:103C30000B9028461499FCF7EFFA0B99FCF7E6FA7B
:103C40000E99FCF791FA3946FCF7E6FA0999FCF768
:103C50008BFA014620631398FCF7DEFA0990304690
:103C60001499FCF7D9FA064628461599FCF7D4FAB8
:103C70003146FCF779FA0999FCF7C8FA3946FCF79E
:103C8000CBFA5146FCF770FA60630D991098FCF777
:103C90006BFA4946FCF768FA0F99FCF765FAFCF7EE
:103CA0001EFD02F03DFDFCF72DFD05460146A06A14
:103CB000FCF7E4FAA0622946E06AFCF7DFFAE0626A
:103CC0002946206BFCF7DAFA20632946606BFCF783
:103CD000D5FA606320991698FCF79EFA2199FCF7B3
:103CE0009BFA10F0FF4F7DD021990846FCF794FA1B
:103CF000209905460846FCF78FFA169904460846AF
:103D0000FCF78AFA2146FCF72FFA2946FCF72CFA31
:103D1000FCF7E5FC02F004FDFCF7F4FC0446014668
:103D20001698FCF7ABFA824621462098FCF7A6FAD3
:103D3000209021462198FCF7A1FA81460499019828
:103D4000FCF764FA0121FCF7D7FA064600990798B8
:103D5000FCF70AFA0121FCF7CFFA0546DDE9051068
:103D6000FCF754FA0399FCF751FA0299FCF7FCF9B5
:103D7000044629464846FCF74FFA07462146209854
:103D8000FCF74AFA3946FCF741FA07462146504605
:103D9000FCF742FA044631464846FCF73DFA214614
:103DA000FCF734FA814631462098FCF735FA044690
:103DB00029465046FCF730FA2146FCF727FAD8F896
:103DC0000810824644460D463846FCF725FAE1695C
:103DD000FCF7CAF98046E06129464846FCF71CFA20
:103DE000216A00E05FE1FCF7BFF906462062294640
:103DF0005046FCF711FA616AFCF7B6F905466062B5
:103E0000606839460746FCF707FA1399FCF7ACF9E6
:103E10004146FCF7A9F9804649463846FCF7FCF9CB
:103E20001499FCF7A1F93146FCF79EF90646514674
:103E30003846FCF7F1F91599FCF796F92946FCF795
:103E400093F907460146A0690490FCF7E5F982461C
:103E5000606931460190FCF7DFF90546206941466B
:103E6000814680F00040FCF7D7F92946FCF7CEF9EF
:103E70005146FCF7CBF95946FCF7CEF9E168FCF75F
:103E800073F90546E06031460498FCF7C5F90790E0
:103E900039460198FCF7C0F9824629464046FCF7AE
:103EA000BBF95146FCF760F90799FCF7AFF95946A1
:103EB000FCF7B2F94946FCF757F9206181464046C4
:103EC0000499FCF7A9F9089039464846FCF7A4F98B
:103ED000824631462846FCF79FF95146FCF796F991
:103EE0000899FCF741F95946FCF796F90199FCF756
:103EF0003BF9014660614046FCF78EF98046314649
:103F00004846FCF789F9064639462846FCF784F905
:103F10003146FCF729F94146FCF778F95946FCF798
:103F20007BF90499FCF720F9A061DDE90510FCF7A5
:103F30001BF90399FCF718F90299FCF715F9FCF73E
:103F4000CEFB02F0EDFBFCF7DDFB05460146E06829
:103F5000FCF794F98146E06029462069FCF78EF968
:103F60008246206129466069FCF788F980466061D5
:103F70002946A069FCF782F906460121A061FCF7F9
:103F8000BBF93146FCF748F905464FF04041404641
:103F9000FCF742F94146FCF73FF92946FCF736F9B0
:103FA0004FF07E5B5946FCF7DFF8FCF798FB0746BD
:103FB0000D4601214846FCF79FF93146FCF72CF9E4
:103FC000064601215046FCF797F94146FCF724F9D3
:103FD0003146FCF7C9F8FCF782FB3A462B4601F064
:103FE000CBFE4FF0C0494A46324BFCF738FAFCF79B
:103FF00089FB314E0121B06060690546FCF77CF910
:1040000082462946FCF708F9054620694FF04041F1
:104010008046FCF701F94146FCF7FEF82946FCF71B
:10402000F5F85946FCF7A0F8FCF759FB07460D4692
:104030000121E068FCF760F94146FCF7EDF88046A5
:104040005046A169FCF7E8F84146FCF78DF8FCF70B
:1040500046FB3A462B4601F08FFE184F4A463B4638
:10406000FCF7FDF9FCF74EFB70600121E068FCF7FE
:1040700043F96169FCF7D0F805464FF040412069EB
:10408000FCF7CAF8A169FCF7C7F82946FCF76CF8F9
:10409000FCF725FB01F028FC4A463B46FCF7DFF91C
:1040A000FCF730FB306017B0BDE8F08F1400002043
:1040B0006F12833A94A94CC03806002094A94C4052
:1040C00070B516460A46054631461046FCF7A4F878
:1040D000044631464FF07E50FCF798F82946FCF72D
:1040E0009BF82146BDE87040FCF73EB83EB513484A
:1040F00011490124016000218160C16041614FF4D8
:1041000060220461C2614160FDF78EFA18B143215B
:104110000BA001F056FB0320CDE90004042002901F
:1041200069460648FDF7FEF9002803D04D2104A09A
:1041300001F047FB3EBD0000002401404C0D002073
:104140002E2E2F5372632F6164632E6300000000D4
:104150002DE9F041274886B0816941F02001816155
:10416000816901F020010491816941F004018161BC
:10417000816901F004010491816941F008018161C4
:1041800080691D4F00F0080004900122122138467A
:10419000FDF72EFEDFF864804FF4E0460122314641
:1041A0004046FDF725FE012415486946CDE900404B
:1041B00038460294FDF73AFD1220CDE900040325AC
:1041C00069463846CDE90245FDF730FDCDE900648A
:1041D00069464046CDE90245FDF728FD012202214E
:1041E0000620FEF70FF90620FEF700F906B0BDE83D
:1041F000F08100000010024000080140000C014066
:10420000000021100E4810B50C4901600D494160B5
:1042100000214FF480428160C0E903124161816155
:10422000C1610162FDF7F0FD002805D0BDE8104036
:10423000422105A001F0C5BA10BD000000540040A5
:104240007C0D0020A08601002E2E2F5372632F6953
:1042500032632E6300000000114810B50F49016061
:104260004FF48271416000218160C1604FF400729F
:104270000161C0E905121022C0E907214162816293
:104280000A21C162FEF752FC002805D0BDE81040AB
:10429000452104A001F095BA10BD00000030014096
:1042A000D00D00202E2E2F5372632F7370692E6352
:1042B0000000000010B5174886B04FF08041016043
:1042C00047210024C0E901146321C0E9031484617B
:1042D000FEF7D5FD18B147210FA001F072FA4FF497
:1042E0008050009069460B48FEF720FE18B14D2122
:1042F00009A001F066FA049404A906480594FEF7A3
:1043000096FD002803D0542103A001F05AFA06B00C
:1043100010BD0000280E00202E2E2F5372632F7424
:10432000696D2E630000000010B529488AB0274946
:10433000016047210024C0E9011440F2AF41C0E907
:1043400003148461FEF7A7FF18B1662121A001F0D4
:1043500038FA079407A91E480894FEF768FD18B1BB
:104360006D211CA001F02DFA6020CDE9000402941B
:104370000022694616480494FEF725FF18B17621FD
:1043800014A001F01EFA042269461148FEF71BFF33
:1043900018B17B210FA001F014FA082269460C48DD
:1043A000FEF711FF18B180210AA001F00AFA0C22D1
:1043B00069460748FEF707FF18B1852105A001F0FF
:1043C00000FA0348FEF7E0FE0AB010BD000400400A
:1043D000680E00202E2E2F5372632F74696D2E638A
:1043E0000000000010B5184886B01649016047214A
:1043F0000024C0E9011440F2E731C0E903148461EC
:10440000FEF73DFD18B1992110A001F0DAF94FF443
:104410008050009069460C48FEF788FD18B19F2136
:104420000AA001F0CEF9049404A907480594FEF708
:10443000FEFC002803D0A62104A001F0C2F906B0BA
:1044400010BD000000080040A80E00202E2E2F53A3
:1044500072632F74696D2E63000000000D4810B563
:104460000B4901604FF4E1314160002181600C2271
:10447000C160C0E904128161C161FFF76FF80028D3
:1044800005D0BDE81040422103A001F09AB910BD4B
:1044900000380140E80E00202E2E2F5372632F7536
:1044A000736172742E630000FEE7F0B587B00746B3
:1044B0006020CDE90001002015460C9E02900246C6
:1044C00004901C4669463846FEF77DFE00213846BA
:1044D000FEF712FF0422694638460195FEF773FE87
:1044E00004213846FEF708FF082269463846019441
:1044F000FEF769FE08213846FEF7FEFE0C226946EB
:1045000038460196FEF75FFE0C213846FEF7F4FEB2
:1045100007B0F0BD704700001FB50FA10522D1E91B
:104520000001CDE9020102A9302000F0E9F80522DE
:104530006946102000F06EF8002069460A5CA52A42
:1045400003D1401CC0B20528F8D3052802D00120B1
:1045500004B010BD0020FBE7A5A5A5A5A50000009F
:1045600010B5FFF779FE064C002210212046FDF71A
:104570003FFC20460122BDE810400221FDF738BC77
:104580000008014010B5214C002210212046FDF703
:104590002FFC0321232000F0D7F805221C493020EE
:1045A00000F0AEF81A490522491D2A2000F0A8F8AB
:1045B0001A21242000F0C8F80121222000F0C4F8BC
:1045C0000121212000F0C0F82021312000F0BCF8AA
:1045D0000F490522491D2A2000F092F828212520A4
:1045E00000F0B2F80F21262000F0AEF80F212020B5
:1045F00000F0AAF87E21272000F0A6F8204601222C
:10460000BDE810401021FDF7F3BB00000008014099
:104610006C6700082DE9F041DFF83C8015460F4635
:104620000446002202214046FDF7E2FB204600F04E
:1046300063FB0646002405E0FF2000F05DFB3855D3
:10464000641CE4B2AC42F7D3012202214046FDF7DC
:10465000CFFB3046BDE8F0810008014070B50A4D3F
:104660000446002202212846FDF7C2FB204600F046
:1046700043FBFF2000F040FB0446012202212846B4
:10468000FDF7B6FB204670BD0008014010B51A4C7E
:10469000002210212046FDF7ABFB052217493020F0
:1046A00000F02EF815490522491D2A2000F028F8AF
:1046B0000121212000F048F80121222000F044F8D7
:1046C0001A21242000F040F82821252000F03CF891
:1046D0002021312000F038F80F21262000F034F896
:1046E0000E21202000F030F820460122BDE81040C5
:1046F0001021FDF77DBB0000000801406C67000839
:104700002DE9F041DFF83C8016460D4604460022B4
:1047100002214046FDF76CFB204600F0EDFA07460B
:10472000002405E015F8010B00F0E6FA641CE4B281
:10473000B442F7D3012202214046FDF759FB384627
:10474000BDE8F0810008014070B50B4D0E460446EF
:10475000002202212846FDF74BFB204600F0CCFA50
:104760000446304600F0C8FA012202212846FDF72F
:104770003FFB204670BD00000008014010B588B026
:10478000044620216846FBF7E4FCAF208DF80000CA
:1047900000208DF80100200A8DF802008DF80340FA
:1047A00033200B4C8DF80400002210212046FDF729
:1047B0001FFBFFF76BFF20226946A020FFF7A0FF39
:1047C000012210212046FDF713FB08B010BD0000A8
:1047D000000801400907090E002806DA00F00F0062
:1047E00000F1E02080F8141D704700F1E02080F80F
:1047F00000147047704700002DE9F047594C00271E
:104800003E4634F9100B3D46B4F90210401A60617F
:1048100034F90E0CB4F90410401AA06134F90C0CF0
:10482000E061B4F92A00B4F93C10401AE064B4F92C
:104830003A10B4F92820891A2165B4F92C10B4F97A
:104840003E20891A6165FBF702FF8146B4F92E000C
:10485000FBF7FDFEDFF8108149464246FFF730FCCA
:10486000FBF710FFE085206DFBF7F1FE8146B4F900
:104870003000FBF7ECFE42464946FFF721FCFBF710
:1048800001FF2086606DFBF7E2FE8046B4F932003E
:10489000FBF7DDFE354A4146FFF712FCFBF7F2FE5F
:1048A00000B260868046B4F92E00FBF7D0FEDFF838
:1048B000C0904946FBF7B0FC2064B4F93000FBF728
:1048C000C6FE4946FBF7A8FC60644046FBF7BFFE06
:1048D0004946FBF7A1FC2849A064264A4878A38AE8
:1048E00002F1C80C22F81030238B2CF81030B4F8E9
:1048F0001C8002F5C873E14623F81080B846103CCE
:1049000032F918C0674439F918C0664433F918C041
:1049100008F1010808F0FF086544B8F1640FEFD30F
:104920006423401CC2B297FBF3F096FBF3F695FBB1
:10493000F3F34A7000B2E08036B226811DB2658181
:10494000642A01D100224A70FBF781FEA061304643
:10495000FBF77DFEE0612846FBF779FE2062BDE8AB
:10496000F0870000E0000020CDCCCC3DCDCC4C3D0C
:10497000E4A40B3AE003002014000020114910B514
:104980004878401C48701048A0F11604C188E180A6
:10499000418861800188218080883221A0F2DC502A
:1049A00000B290FBF1F0A188084400B2A080FBF7B0
:1049B0004EFE064A064901F09FFAFBF763FEA0800F
:1049C00010BD000050000020A406002000007A4422
:1049D0000000FA443EB5104C80200E210094CDE931
:1049E000011001233B22D0210C48FDF7ADFA2088AD
:1049F00041BA04F110000180618849BA4180A18860
:104A000049BA8180218949BA0187618949BA4187B8
:104A1000A18949BA81873EBDD00000207C0D0020CD
:104A200010B5164C01221648B4F94A10123400F0A1
:104A3000D3F91348B4F93A100122801C00F0CCF9E4
:104A40000F48B4F93C100122001D00F0C5F90C48D4
:104A5000B4F900100122801D00F0BEF90848B4F935
:104A600002100122083000F0B7F9B4F9041004482C
:104A70000122BDE810400A3000F0AEB9E00000208D
:104A800000FC00083EB501226946424800F0A4F946
:104A90004048012201A9801C00F09EF93D480122F6
:104AA00002A9001D00F098F9BDF80000FBF7D8FD41
:104AB000394D2946FBF7E2FB384CA064BDF80400F1
:104AC000FBF7CEFD2946FBF7D9FBE064BDF80800F3
:104AD000FBF7C6FD2946FBF7D1FB20652D480122D7
:104AE0006946801D00F078F92A48012201A90830A2
:104AF00000F072F92748012202A90A3000F06CF98F
:104B0000BDF80000FBF7ACFD2946FBF7B7FBC4F886
:104B1000E400BDF80400FBF7A3FD2946FBF7AEFB5C
:104B2000C4F8E800BDF80800FBF79AFD2946FBF73A
:104B3000A5FBC4F8EC001748012269460C3000F0D0
:104B40004BF91448012201A90E3000F045F9114833
:104B5000012202A9103000F03FF9BDF80000FBF778
:104B60007FFD2946FBF78AFBC4F88001BDF80400ED
:104B7000FBF776FD2946FBF781FBC4F88401BDF8FD
:104B80000800FBF76DFD2946FBF778FBC4F88801A8
:104B90003EBD000034FC000800007A44CC0A00202E
:104BA0003EB501226946424800F016F9404801220C
:104BB00001A9801C00F010F93D48012202A9001D46
:104BC00000F00AF9BDF80000FBF74AFD394D29460F
:104BD000FBF754FB384C6061BDF80400FBF740FD67
:104BE0002946FBF74BFBA061BDF80800FBF738FD39
:104BF0002946FBF743FBE0612D4801226946083056
:104C000000F0EAF82A48012201A90A3000F0E4F88D
:104C10002748012202A90C3000F0DEF8BDF80000A0
:104C2000FBF71EFD2946FBF729FBC4F8B000BDF8D1
:104C30000400FBF715FD2946FBF720FBC4F8B40080
:104C4000BDF80800FBF70CFD2946FBF717FBC4F87D
:104C5000B8001748012269460E3000F0BDF814482C
:104C6000012201A9103000F0B7F81148012202A971
:104C7000123000F0B1F8BDF80000FBF7F1FC294656
:104C8000FBF7FCFAC4F84C01BDF80400FBF7E8FCA4
:104C90002946FBF7F3FAC4F85001BDF80800FBF70A
:104CA000DFFC2946FBF7EAFAC4F854013EBD0000D8
:104CB00020FC000800007A44CC0A0020C17AA52913
:104CC00017D10178C90714D0C178827801EB02228C
:104CD00008498A804279037902EB0322CA80427A2A
:104CE000037A02EB03220A80C279807902EB00206A
:104CF00048807047A406002038B5074C0123621C89
:104D00002070FF200090511E0448FDF77DFF08B180
:104D1000FF2038BD607838BD00000020D00D002095
:104D200038B50B46009204460022802100F008F8B6
:104D3000002804D0606D40F020006065032038BD7D
:104D40002DE9F0411D4617460E460446DDF8188051
:104D500035E0681C33D02DB1FDF750F8A0EB08000A
:104D6000A8422CD32068416821F0E00141606068CE
:104D7000B0F5827F0BD1A068B0F5004F02D0B0F53E
:104D8000806F04D12068016821F040010160A06AB1
:104D9000B0F5005F0AD1206801684DF6FF7211403E
:104DA00001602068016841F400510160012084F82D
:104DB0005100002084F850000320BDE8F0812068F5
:104DC000806836EA000004D00020B842C1D100203B
:104DD000F3E70120F9E7000010B5002306E000BF6B
:104DE00050F8024B21F813405B1C9BB29342F7D35F
:104DF00010BD00002DE9F74F82B01546029C8A468F
:104E0000A4F10064B4F5803F58D2FCF7AFFEA70AC6
:104E1000C4F34806C6F50074A54200D82C46DFF856
:104E2000A4904FF4007B00BF4FF0006000EB8720A0
:104E300080465A462349FFF7CFFF00204FF6FF7107
:104E400006E0331839F813208A4203D1401C80B29F
:104E5000A042F6D3A0422BD21A480021103801609C
:104E60000121C0E902816946FCF7E2FD002825D155
:104E7000494606E03AF810208319401C21F8132017
:104E800080B2A042F6D340465A460E4900F01CF8C4
:104E9000A54211D002980AEB440A20440290281B34
:104EA000002685B25C467F1CA542BDD82C46BBE7D8
:104EB000224651460298E9E7FCF70EFE05B0BDE830
:104EC000F08F0000CC0600202DE9F04116460F4679
:104ED000054600240AE000BF37F8142000232946C5
:104EE0000120FCF703FE641CA4B2AD1CB442F3D352
:104EF000BDE8F081704700003EB5434C434D294664
:104F0000A06CFBF789F9FBF7D6FBADF8000029464A
:104F1000E06CFBF781F9FBF7CEFBADF80400294606
:104F2000206DFBF779F9FBF7C6FBADF8080001220D
:104F300069463748FFF75EFF3548012201A9801C0A
:104F4000FFF758FF3248012202A9001DFFF752FF68
:104F50002946D4F8E400FBF75FF9FBF7ACFBADF8AA
:104F600000002946D4F8E800FBF756F9FBF7A3FB4D
:104F7000ADF804002946D4F8EC00FBF74DF9FBF737
:104F80009AFBADF80800224801226946801DFFF710
:104F900031FF1F48012201A90830FFF72BFF1C48F1
:104FA000012202A90A30FFF725FF2946D4F8800123
:104FB000FBF732F9FBF77FFBADF800002946D4F888
:104FC0008401FBF729F9FBF776FBADF804002946CD
:104FD000D4F88801FBF720F9FBF76DFBADF808006A
:104FE0000B48012269460C30FFF704FF08480122F4
:104FF00001A90E30FFF7FEFE0548012202A910307C
:10500000FFF7F8FE3EBD0000CC0A002000007A4405
:1050100034FC00083EB5434C434D29466069FBF71C
:10502000FBF8FBF748FBADF800002946A069FBF749
:10503000F3F8FBF740FBADF804002946E069FBF705
:10504000EBF8FBF738FBADF808000122694637485A
:10505000FFF7D0FE3548012201A9801CFFF7CAFEE8
:105060003248012202A9001DFFF7C4FE2946D4F8E8
:10507000B000FBF7D1F8FBF71EFBADF800002946A6
:10508000D4F8B400FBF7C8F8FBF715FBADF8040043
:105090002946D4F8B800FBF7BFF8FBF70CFBADF8D6
:1050A00008002248012269460830FFF7A3FE1F4886
:1050B000012201A90A30FFF79DFE1C48012202A926
:1050C0000C30FFF797FE2946D4F84C01FBF7A4F803
:1050D000FBF7F1FAADF800002946D4F85001FBF7D0
:1050E0009BF8FBF7E8FAADF804002946D4F8540120
:1050F000FBF792F8FBF7DFFAADF808000B48012246
:1051000069460E30FFF776FE0848012201A91030EB
:10511000FFF770FE0548012202A91230FFF76AFE70
:105120003EBD0000CC0A002000007A4420FC0008AC
:10513000F0B589B00E46074600252C46202168466A
:10514000FBF707F8AA208DF800008DF80100EF208A
:105150008DF8020002208DF803008DF804708DF8A0
:1051600005606846015D641C2944E4B2CDB2062C9A
:10517000F8D301468DF80650FF2307220248FEF7B8
:1051800097FA09B0F0BD0000E80E002010B5FDF759
:10519000ABF8BDE81040FDF744BE30B593B0012137
:1051A0000804CDE900100025029502240491CDE900
:1051B00007404FF4A01009906846FDF735FB00B199
:1051C000FEE70AA90F2081E831004FF48060CDE9A5
:1051D0000D0502210AA8FDF721FA00B1FEE74FF400
:1051E000804011900F940FA8FDF7A2F900B1FEE7DF
:1051F000FDF7BEFA4FF47A71B0FBF1F0FDF7FDFD5B
:105200000420FDF7EDFD00221146501EFDF7FAF8CF
:1052100013B030BD0D48016841F0010101604168E3
:105220000B4A1140416001680A4A1140016001685F
:1052300021F480210160416821F4FE0141604FF4B6
:105240001F0181600449C0030860704700100240DC
:105250000000FFF8FFFFF6FE08ED00E00148FDF753
:10526000DFBE0000280E00200148FDF7D9BE000077
:10527000A80E0020F0B50268164B174C174D4FF0E2
:105280008047984205D0B84203D0A04201D0A8423E
:1052900003D122F070064A683243984205D0B842E2
:1052A00003D0A04201D0A84203D122F44074CA68BE
:1052B000224322F080044A69224302608A68C26263
:1052C0000A688262984201D1096901630121416142
:1052D000F0BD0000002C0140000400400008004028
:1052E00010B50123046A8B409C430462036A8A4020
:1052F0001343036210BD10B5846842EA032224F40C
:105300007F440A432243826010BD826822F070020B
:105310000A4342F0070181607047000030B5026A1D
:1053200022F001020262026A4368846924F0730574
:105330000C682C4322F002058A682A430A4DA842D1
:105340000BD122F00805CA6823F440732A434D6943
:1053500022F004021D438B692B434360846149683A
:105360004163026230BD0000002C014030B5026A8A
:1053700022F010020262026A436884690D6824F414
:10538000E64444EA05248D6822F0200242EA051230
:105390000B4DA8420ED1CD6822F0800242EA0512E0
:1053A0004D6923F4406343EA85038D6922F040028E
:1053B00043EA85034360846149688163026230BDCA
:1053C000002C014030B5026A22F480720262036A46
:1053D0004268C46923F4007324F073050C682C43FD
:1053E0008D6843EA05230C4DA8420ED1CD6823F405
:1053F000006343EA05234D6922F4405242EA051254
:105400008D6923F4806342EA05124260C4614968F1
:10541000C163036230BD0000002C014030B5026A58
:1054200022F480520262046A4268C3690D6823F460
:10543000E64343EA05238D6824F4005444EA053426
:10544000064DA84204D14D6922F4804242EA8512F9
:105450004260C36149680164046230BD002C0140B0
:1054600010B5036A046A24F001040462846924F01C
:10547000F00444EA021423F00A020A43846102623F
:1054800010BD10B5036A23F0100303628369046A38
:1054900023F4704343EA023224F0A00343EA0111EB
:1054A0008261016210BD10B5406A0021C185C184CE
:1054B000FDF7CBFF10BD0168CA6822F49072CA6084
:1054C00001684A6922F001024A61202180F83A10FD
:1054D000704710B590F83A10222901D0022010BD73
:1054E0008168B1F5805F11D00169002901681FD082
:1054F000496801F07F03816A4A1C82620B70C18D8A
:10550000491E0904090CC18518D02BE00269816A83
:10551000002A0268526805D0D2B20A80816A491C0A
:105520008162ECE7C2F308020A80816A891CF7E70E
:105530004A68816A4B1C83620A70E0E70168CA68A6
:1055400022F02002CA600168CA6822F48072CA6030
:1055500001684A6922F001024A61202180F83A106C
:10556000FEF796F8002010BD2DE9F04104460068D2
:105570000169E26821F44051114301612169A06889
:105580000843616908432168CA6841F20C639A4381
:105590000243CA6020684169A26921F44071114345
:1055A00041614C4920686425322688423CD1FDF790
:1055B000F5F800EBC00101EB001061688900B0FB59
:1055C000F1F7FDF7EBF800EBC00101EB00106168AB
:1055D000B0468900B0FBF1F0B0FBF5F06FF01801B8
:1055E000484307EB800106EB0110B0FBF5F000F03B
:1055F000F006FDF7D3F800EBC00101EB0010616885
:105600008900B0FBF1F0B0FBF5F006EB0016FDF7FA
:10561000C5F800EBC00101EB001061688900B0FB28
:10562000F1F7FDF7BBF83BE0FDF7A8F800EBC00190
:1056300001EB001061688900B0FBF1F7FDF79EF8FF
:1056400000EBC00101EB00106168B0468900B0FBBF
:10565000F1F0B0FBF5F06FF01801484307EB800163
:1056600006EB0110B0FBF5F000F0F006FDF786F850
:1056700000EBC00101EB001061688900B0FBF1F0A4
:10568000B0FBF5F006EB0016FDF778F800EBC00173
:1056900001EB001061688900B0FBF1F7FDF76EF8CF
:1056A00000EBC00101EB001061688900B0FBF1F074
:1056B000B0FBF5F06FF01801484307EB800108EBF1
:1056C0000110B0FBF5F0216800F00F003044886055
:1056D000BDE8F0810038014090F83910212901D04F
:1056E000022070478168B1F5805F016A0BD04A1CC7
:1056F0000262026809785160C18C491E0904090CD4
:10570000C1840ED017E009880268C1F30801516016
:1057100001690029016A02D0491C0162ECE7891C79
:10572000FBE70168CA6822F08002CA600068C168AD
:1057300041F04001C160002070472DE9F0419846DA
:1057400017460E460446069D1DE0681C1BD02DB171
:10575000FCF754FBA0EB0800A84214D92068C168EC
:1057600021F4D071C1602068416921F001014161DB
:10577000202084F8390084F83A00002084F83800AA
:105780000320BDE8F0812068006836EA000004D0FC
:105790000020B842D9D00020F3E70120F9E700004B
:1057A00010B50548FDF752FEBDE81040012203493F
:1057B0000148FDF743BF0000E80E0020400D002027
:1057C000FEE7FEE7490050EAC12018BF04204A0D59
:1057D00018BF40F0010040F2FF72B2EB515F08BF0A
:1057E00040F00200012808BF052070472DE9F04174
:1057F0004F1E00EBC7010446D1E9000115461E46C5
:1058000037F006020DD02A463346FAF728FE7F1EEF
:1058100004EBC703D3E90023FAF77AFD37F0060259
:10582000F1D1022F25D0042F13D0062F18BFBDE8C9
:10583000F0812A463346FAF712FED4E90A23FAF732
:1058400067FD2A463346FAF70AFED4E90823FAF739
:105850005FFD2A463346FAF702FED4E90623FAF73B
:1058600057FD2A463346FAF7FAFDD4E90423FAF73E
:105870004FFD2A463346FAF7F2FDD4E90223FAF740
:1058800047FD2A463346FAF7EAFDD4E90023BDE88E
:10589000F041FAF73DBD0122FAF7C2BEFAF738BD72
:1058A0000022134610461146FAF74BBE024A00206A
:1058B0001107FAF7B5BE000001FDFFFF02E008C8BE
:1058C000121F08C1002AFAD170477047002001E07A
:1058D00001C1121F002AFBD1704700000149086076
:1058E00070470000880000202DE9F04D8D4F21F019
:1058F000004A86B005460C46BA452ADBAAEB0700EB
:1059000028430AD08848824501DC1AD1CDB106B0BF
:105910002846BDE8F04DFFF7BEBF844A844B2846B9
:10592000FAF79DFD07460E46824A834B28462146DC
:10593000FAF795FD06B03A463346BDE8F04DFAF762
:10594000E7BC0120FFF7CAFF06B0BDE8F04DFFF746
:10595000A7BF7A48824542DABAF1795F0BDA284666
:10596000FFF730FF042808BFFFF7A0FF284606B066
:105970002146BDE8F08D2A460B461046FAF76FFD2A
:10598000834602466E480E460B4606217844FFF7D2
:105990002DFF5A463346FAF762FD804669488A462B
:1059A0005A46334604217844FFF720FF5A463346CF
:1059B000FAF755FD00223B46FAF7AAFC02460B46D1
:1059C00040465146FAF7BDFD2A462346FAF747FD01
:1059D00006B02A462346BDE8F04DFAF799BC2846A2
:1059E00024F0004100223D463B46FAF735FD4FF0DA
:1059F000FF32FAF715FE0646024653480F460B469D
:105A000006217844FFF7F2FE32463B46FAF727FDBF
:105A1000CDE900014D4832463B4604217844FFF76A
:105A2000E5FE32463B46FAF71AFD00222B46FAF70E
:105A30006FFC834602913046394600F071FE804685
:105A400043480D46504517DCDDE900015A46029BEC
:105A5000FAF777FD42462B46FAF701FD42462B4600
:105A6000FAF756FC0122FAF7DBFD304A304BFAF721
:105A7000F0FC304A304B4CE04FF0000A52460B46E7
:105A80004046FAF745FCCDE9031052462B46104636
:105A90001946FAF7E4FC32463B46FAF7DDFCDDE94D
:105AA0000332FAF74EFD06460F46DDE900015A467D
:105AB000029BFAF746FD83460091012230463946A3
:105AC000FAF7AEFD194A1A4BFAF7C6FC06460F461E
:105AD000012240462946FAF7A3FD5A46009BFAF7F1
