:020000040800F2
:100000002812002001010008C13B0008912E0008C1
:10001000553B00088D090008F54A00080000000063
:100020000000000000000000000000004542000841
:100030000D11000800000000A53D0008D144000893
:100040001B0100081B0100081B0100081B01000820
:100050001B0100081B0100081B0100081B01000810
:100060001B0100081B0100081B0100081B01000800
:100070001B0100081B0100081B0100081B010008F0
:100080001B0100081B0100081B0100081B010008E0
:100090001B0100081B0100081B0100081B010008D0
:1000A0001B0100081B0100081B0100081B010008C0
:1000B000914500081B0100089D4500081B01000830
:1000C0001B0100081B0100081B0100081B010008A0
:1000D0001B010008D54A00081B0100081B0100088D
:1000E0001B0100081B0100081B010008DFF80CD0F1
:1000F00000F03AFC00480047515200082812002046
:100100000648804706480047FEE7FEE7FEE7FEE7B1
:10011000FEE7FEE7FEE7FEE7FEE7FEE749450008EB
:10012000ED000008202A04DB203A21FA02F0002129
:10013000704721FA02F3D040C2F1200291400843F7
:1001400019467047D2B201E000F8012B491EFBD2DC
:1001500070470022F6E710B513460A4604461946D2
:10016000FFF7F0FF204610BDF0B480EA0102D40F83
:100170004200B2EB410F02D20246084611464A0045
:1001800042D0C30DDDB2C1F3C752AD1A202D35DA0E
:10019000C1F3160141F4000204B15242C5F1200638
:1001A00002FA06F12A411044B3EBD05F23D0C4B168
:1001B000012DA0EBC35009DCF0BC4FF0004202EA75
:1001C000C352DBB200F5000000F0F2BA400000F1CB
:1001D000807000EBC350A0F1807040EAD1704900FC
:1001E00009E0490841EAC071A0EBC35000F50000E6
:1001F000400800EBC350F0BC00F0D1BA61420122CC
:1002000002EB4101001BF6E7F0BC704781F00041B2
:10021000AAE780F00040A7E780EA010210B502F0EB
:100220000043400022D04A001FD0010E01EB1261B2
:10023000C0F35600C2F3560240F4000042F400023C
:10024000A0FB022000047F39140400D0401C50EAB7
:10025000124001D44000491EC2B20C0604EBD0107B
:10026000401C4008802A02D003E0002010BD20F08E
:100270000100002900DA0020184310BD30B480EAE4
:10028000010202F0004530F0004221F0004013D09E
:1002900090B1C30DD40DC2F31601C0F31600E41AD9
:1002A00041F4000140F400027D34914201D3641C0A
:1002B00000E04900002C02DA30BC002070474FF407
:1002C00000000023914201D3891A034340084FEAFA
:1002D0004101F7D151B1914202D14FF0004105E007
:1002E00002D24FF0010101E06FF0010103EBC450B5
:1002F000284430BC00F053BA420005D0C0F3C752C6
:100300005242914201DC0020704700EBC15070471F
:100310002DE9FE4F804681EA0300C00F0C46009095
:1003200021F0004123F00045B8EB0200A94105D2BD
:100330004046214690461C460B46024623F00040AC
:10034000104347D0270DC7F30A00C3F30A510290A8
:10035000401A019040286BDAC3F3130040F4801B6D
:100360000098924620B10023D2EB030A63EB0B0BFB
:1003700001985946C0F14002504600F0EFF9064698
:100380000D4650465946019A00F0F7F910EB080067
:100390006141002487EA115284EAE7731A4340D08E
:1003A000009A62B3019A012A4FEA075215DC001B3A
:1003B00061EB02014FF0004202EA0752CDE9004230
:1003C000001C41F5801132462B4600F02EFA03B096
:1003D000BDE8F08F40462146F9E7001B61EB0201C2
:1003E000001C41F5801300185B412018A2F500178E
:1003F00047EB030140EAD570B6196D4111E06D0875
:100400004FEA360645EAC0754FEA0752001B61EB1A
:100410000201001C41F5801149084FEA3000001923
:10042000514132462B4603B0BDE8F04F00F0EEB923
:100430000098012240000023D0EB020263EBE0733E
:10044000009821464FEAE074B8EB000061EB04012C
:10045000E9E783F000435BE781F0004158E72DE9CD
:10046000FE4F81EA030404F0004421F000410094AF
:100470004FF0000B23F0004350EA01045ED052EA33
:1004800003045BD0C3F30A54C1F30A552C44A4F20D
:10049000F3340194A0FB0254C1F3130141F4801121
:1004A000C3F3130343F4801301FB024400FB034E28
:1004B000840A970A44EA815447EA8357A4FB0768F1
:1004C00002958D0A05FB07854FEA932C04FB0C541B
:1004D0002705029D4FEA065847EA1637B5EB08058F
:1004E0006EEB070C870E920E47EA811742EA8312E1
:1004F000A7FB0201B6EB0B0164EB00042B0D43EAF2
:100500000C335E1844EB1C50DA465146E7FB0201FF
:10051000C5F313044FEA0B3343EA14534FEA043292
:10052000019C43EA0603A4F10C040294009CCDE96B
:1005300000B400F07AF903B0BDE8F08F0020014666
:10054000F9E72DE9F04D81EA030404F0004B21F0B6
:10055000004514464FF0000A23F0004150EA05021E
:1005600020D054EA01021DD0C5F30A570246C5F354
:100570001303C1F31300C1F30A5640F4801543F48A
:100580008013A7EB0608101BD64608F2FD3873EB64
:10059000050002D308F1010801E092185B41B8F1AF
:1005A000000F03DA00200146BDE8F08D00204FF473
:1005B0008011064684460EE0171B73EB050705D332
:1005C000121B63EB050306434CEA010C49084FEA92
:1005D000300092185B4150EA0107EDD152EA030066
:1005E00012D082EA040083EA0501084305D0101BFB
:1005F000AB4106D20122002306E000224FF0004367
:1006000002E06FF0010253101AEB06004CEB0851A8
:1006100010EB0A0041EB0B01BDE8F04D00F0F6B81D
:1006200070B521F0004303430CD0C1F30A550024F8
:10063000D5EB040564EB0403D617AD1AB34102DB16
:100640000020014670BD201841EB025170BDC10F62
:1006500080EAE0700844CA079623002100F0A8B899
:100660000EB540F2334102910021CDE900110A4656
:100670000B4600F0DAF803B000BD00F0004220F0B5
:100680000040C10DC0F3160040F400007F2901DADC
:1006900000207047962903DCC1F19601C84001E0B3
:1006A00096398840002AF4D04042704720F000403C
:1006B000C10DC0F3160040F400007F2901DA0020CC
:1006C0007047962903DCC1F19601C84070479639FE
:1006D0008840704700F0004230F000400AD0C10D61
:1006E00001F56071C0F3160042EA0151C2084007EB
:1006F0001143704700200146704701F0004330B4B9
:1007000021F0004150EA010206D00A0DA2F5607204
:10071000C1F31301002A02DC30BC00207047440FF3
:1007200044EAC104C100E01830BC00EBC25000F044
:1007300036B80000002801DBC0F10040002901DBD1
:10074000C1F1004181427047002801DBC0F1004047
:10075000002901DBC1F1004188427047202A04DBF7
:10076000203A00FA02F1002070479140C2F12003C4
:1007700020FA03F3194390407047202A06DBCB1779
:10078000203A41FA02F043EAE07306E041FA02F34C
:10079000D040C2F120029140084319467047002919
:1007A000A8BF7047401C490008BF20F001007047F7
:1007B00010B4B0FA80FC00FA0CF050EA010404BF57
:1007C00010BC704749B1CCF1200421FA04F411FAAD
:1007D0000CF118BF012121430843A3EB0C01CB1DF1
:1007E0004FEA00614FEA102042BF002010BC704762
:1007F00000EBC35010440029A4BF10BC7047401C3C
:10080000490008BF20F0010010BC704710B5141E4D
:1008100073F1000408DA401C41F1000192185B41B9
:100820001A4301D120F0010010BD2DE9F04D924690
:100830009B4611B1B1FA81F202E0B0FA80F22032A7
:100840009046FFF78BFF04460F4640EA0A0041EA54
:100850000B0153465A46084313D0114653EA010090
:1008600019D0C8F140025046FFF75CFC05460E4621
:10087000504659464246FFF771FF084305D0012014
:1008800004E020463946BDE8F08D0020054346EAE5
:10089000E0762C4337430A986305E40AA0EB08008E
:1008A0000022FD0A44EA47540A3002D500200146DE
:1008B000E9E7010510196941DDE9084500196941B9
:1008C000BDE8F04DA2E72DE9F04D00231A461B1AB2
:1008D0008A4103DB00200146BDE8F08DC1F30A52D6
:1008E000C1F3130141F480154FF0000BD10702D181
:1008F00000186D41521E0027044640F2FF11384691
:1009000001EB620A3E468046024600204FF4801109
:10091000FFF708FCC2197141BB1846EB0100B4EBAC
:10092000030C75EB000C04D3E41A65EB00051746C5
:100930000E46241908F101006D4180463428E3DD9C
:10094000F91946EB0600091BA84103D24FF0FF320C
:10095000134601E0002213461BEB070046EB0A5149
:10096000BDE8F04DFFF752BF064C074D06E0E068CA
:1009700040F0010394E8070098471034AC42F6D3E6
:10098000FFF7B8FB485B0008685B0008FEE7000063
:100990002DE9F74FF04CF14EDFF8C4A32078002585
:1009A00082B0884602287CD3DFF8B893B9F90210E8
:1009B000B9F90800081AFFF74AFEEB49FFF75EFC99
:1009C0004146FFF723FC074639462069FFF7CCFB79
:1009D00020616169FFF7B8FE606908D380F00040CC
:1009E0002169FFF7B1FE03D2606980F00040206109
:1009F00038467168FFF70AFCE168FFF70DFC804696
:100A00002169A068FFF708FC834639466068FFF754
:100A100003FC5946FFF7A8FB4146FFF7A5FB6062C0
:100A20007760B9F90010B9F90A00081AFFF70FFE4C
:100A3000CD49FFF723FC0299FFF7E8FB8046E16F01
:100A4000FFF792FBE067D4F88010FFF77DFED4F843
:100A5000800009D380F00040E16FFFF775FE04D2FB
:100A6000D4F8800080F00040E06740463168FFF72E
:100A7000CDFBA16FFFF7D0FB0746E16F606FFFF77B
:100A8000CBFB83464046216FFFF7C6FB5946FFF775
:100A90006BFB3946FFF768FBC4F89000C6F800808E
:100AA00000E01CE0BAF93C00FFF7D1FDD4F8E410F7
:100AB000FFF7B2FB0746B9F90610B9F90C00081A9E
:100AC000FFF7C5FDD4F8DC10FFF7A6FBA749FFF739
:100AD000D5FB3946FFF748FBC4F8FC00257014F835
:100AE0002C0BD046401C04F82C0CBAF93E00FFF742
:100AF000AEFD676E81463946FFF788FBA16EFFF7B2
:100B00008BFBE06748463946FFF72EFB616FFFF726
:100B10002BFB6067A16F2C3CFFF716FED4F8A400F6
:100B20000AD380F00040D4F8A010FFF70DFE05D2E4
:100B3000D4F8A40080F00040C4F8A000D4F8A010BD
:100B4000D4F898002434FFF767FB4746C4F88800C0
:100B500037F93E0FB7F90610401AFFF778FDA16F7D
:100B6000FFF75AFBC4F88C00B7F90200FFF76FFDDE
:100B7000276881463946FFF749FB6168FFF74CFB60
:100B8000A06148463946FFF7EFFA2169FFF7ECFA12
:100B900020616169243CFFF7D7FDA06B08D380F08A
:100BA0000040616BFFF7D0FD03D2A06B80F00040E6
:100BB0006063616BE06AA434FFF72EFB684F44F872
:100BC000640C824637F9400F0190B7F90610401ABD
:100BD000FFF73DFD54F8741CFFF71EFB44F8600C52
:100BE0008146B7F902008046FFF731FDA16DFFF79E
:100BF000BBFAE16DFFF710FB2067B7F908108346D9
:100C0000A8EB0100FFF723FD616EFFF705FB074628
:100C1000A067D4E90101FFF7A7FAE168FFF7A4FA9A
:100C20002061009054F8680C5146FFF79DFA494640
:100C3000FFF79AFA44F85C0C814639465846FFF7AC
:100C400093FA4B49E067A43C884202DC4949884258
:100C500001D9C4F820114248404F30F83E1F0C37EC
:100C6000C18001990181A0F80A803E48B0F90400D2
:100C7000B0F57A7F49DD40490978012903D011B1E7
:100C8000022906D03EE0A0F57A70B060FFF7DFFCE5
:100C900006E0B068FFF7DBFCD4F86811FFF764FAF0
:100CA000D4F8204106462146FFF75EFA80460099B7
:100CB000FFF7ACFA4946FFF7A9FAFFF7F7FC3880CF
:100CC00030462146FFF7A2FA04460099FFF74CFA96
:100CD0004946FFF79BFAFFF7E9FC78804046009908
:100CE000FFF742FA4946FFF73FFAFFF7DFFCB8800B
:100CF00020460099FFF78AFA4946FFF735FAFFF7D1
:100D0000D5FCF880388848B109E0FD80BD807D8041
:100D10003D802561E5676563C4F8A0503D80788813
:100D200000B97D80B88800B9BD80F88800B9FD8021
:100D30001248007828B1F8880090BB887A883988F2
:100D400003E000231A46194600950D4802F003FF00
:100D500005B0BDE8F08F0000540C00205C000020BE
:100D6000B4000020180800200000A0410000A040AE
:100D70000000C8420000C8C25400002052000020F9
:100D8000580700202DE9F0410026044630464A1E4F
:100D900004E0235C401C3344DEB2C0B29042F8DB76
:100DA000601810F8010CB0427DD12078AA287AD1C1
:100DB0006078AF2877D1A07801280BD122798949B2
:100DC000012A0BD0022A0ED0032A0FD0042A6AD19E
:100DD00081F8A600A07802280BD019E081F836002F
:100DE00000F020FAF6E781F86E00F3E781F83600AC
:100DF000F9E72079012856D104F01AFCA078314691
:100E000003F038FB04F0CEFCA078314603F032FB4F
:100E1000A078754FDFF8D481754D10286ED131461A
:100E200003F028FBA08840BAFFF71AFC3A46434675
:100E3000FFF715FBFFF761FC45F8940FE08840BA17
:100E4000FFF70EFC3A464346FFF709FBFFF755FC58
:100E50006860208940BAFFF703FC3A464346FFF733
:100E6000FEFAFFF74AFCA860608940BAFFF7F8FB7A
:100E70003A464346FFF7F3FAFFF73FFC45F86C0CA0
:100E8000A08940BAFFF7ECFB3A464346FFF7E7FA82
:100E9000FFF733FC45F8680CE08940BAFFF7E0FB48
:100EA0003A46434600E09AE0FFF7D9FAFFF725FCFF
:100EB00045F8640C208A40BAFFF7D2FB3A46434615
:100EC000FFF7CDFAFFF719FCE866608A40BAFFF732
:100ED000C7FB3A464346FFF7C2FAFFF70EFC286706
:100EE000A08A40BAFFF7BCFB3A464346FFF7B7FA81
:100EF000FFF703FC6867943D03F0A6F9A07811287A
:100F00006DD1314603F0B6FAA08840BAFFF7A8FBCE
:100F10003A4646464346FFF7A2FAFFF7EEFB28673C
:100F2000E08840BAFFF79CFB3A463346FFF797FA52
:100F3000FFF7E3FB6867208940BAFFF791FB3A4669
:100F40003346FFF78CFAFFF7D8FBA867608940BAF1
:100F5000FFF786FB3A463346FFF781FAFFF7CDFBF2
:100F60006860A08940BAFFF77BFB3A463346FFF73B
:100F700076FAFFF7C2FBA860E08940BAFFF770FB82
:100F80003A463346FFF76BFAFFF7B7FBE860208A73
:100F900040BAFFF765FB3A463346FFF760FAFFF7C2
:100FA000ACFBC5F8DC00608A40BAFFF759FB3A4653
:100FB0003346FFF754FAFFF7A0FBC5F8E000A08A1C
:100FC00040BAFFF74DFB3A463346FFF748FAFFF7C2
:100FD00094FBC5F8E400BDE8F04103F0C1B9BDE8F9
:100FE000F0810000B4000020FCA9F1D24D62503F16
:100FF000540C0020234930B48A78234B002472B16A
:10100000012A13D0022A17D0032A1BD00B461E4DEB
:101010005B78042A1D441DD0052A29D030E0AA2877
:101020002ED101228A70187030BC7047AF2827D1AA
:1010300002228A705870F7E7F12821D203228A70C1
:101040009870F1E732281BD204228A70D870087099
:101050004C70E9E70A789AB1521E12F0FF020A704A
:10106000287103F101034B70DED105208870DBE7A6
:101070008C7028715B1D30BCD9B20348FFF782BE6B
:101080008C70D1E74400002030060020F0B51E49E6
:101090001C484FF4966CB1F902500678B1F9004043
:1010A000B1F90430B1F9062000214FF4E16E8EB1A0
:1010B00075450FDB64450DDC63450BDC624509DCDF
:1010C000C7887F1CBFB2C780032F04D926B1017027
:1010D000C18001E0C18096B9724510DB75450EDB19
:1010E00063450CDC74450ADB0289521C92B2028112
:1010F000032A05D30278002A02D10122027001815D
:10110000F0BD0000520000201808002070470000C9
:1011100006490020C8610648016941F004010161E7
:10112000016941F04001016170470000080E002094
:1011300000200240064A0021D16106490A6942F0B6
:1011400002020A614861086940F040000861704786
:10115000080E002000200240044B0022DA61044AFD
:10116000136943F00103136101807047080E0020EA
:101170000020024014480022C168CB06134904D560
:10118000CA6942F00202CA611022C3685B0705D532
:10119000CB6943F00103CB6142F00402C369DB0772
:1011A00007D0CB6943F00403CB61C16921F0010191
:1011B000C161A2F58071013901D0C2607047C16977
:1011C00021F00101C161704700200240080E00209B
:1011D00070B5054600F07CFA0646114C09E0681C23
:1011E00007D025B100F074FA801BA84201D9032072
:1011F00070BDE068C007F2D1E068800601D520200C
:10120000E060E068C00605D4E069C00702D1E0688C
:10121000400703D5FFF7AEFF012070BD002070BD71
:101220000020024070B5264CC82500206062A062F4
:10123000E062E0652066606620E000BF02F0BAFE72
:10124000B4F93810E06D0844E065B4F93A10206E46
:1012500008442066B4F93C10606E08446066B4F936
:101260000010606A08446062B4F90210A06A084481
:10127000A062B4F90410E06A0844E0626D1EADB2E9
:10128000DCD2E16DC82091FBF0F1A4F84A10216E88
:1012900091FBF0F1A4F84C10616E91FBF0F1A4F811
:1012A0004E10616A91FBF0F16182A16A91FBF0F14D
:1012B00024F8141FA16991FBF0F0608070BD00005C
:1012C000B40000201CB50548D0E90712CDE9001292
:1012D0008369503007C801F0ADFF1CBDB400002089
:1012E00010B590F821100024022903D00421816355
:1012F00001243DE001680A6822F00E020A600168DC
:101300000A6822F001020A601A4A0168914201D17A
:10131000012121E0174A1432914201D110211BE032
:10132000144A2832914201D1891515E0114A3C3204
:10133000914201D189140FE00E4A5032914202D1FC
:101340004FF4803108E00B4A6432914202D14FF4ED
:10135000801101E04FF08071064A083A5160012186
:1013600080F82110002180F82010416B01B18847DE
:10137000204610BD0800024070B5044600F0A8F9F0
:101380000546601C02D004480078044400F0A0F92F
:10139000401BA042FAD370BD700000202DE9F04739
:1013A000054626480F460126017E01290FD001215E
:1013B000814601762868DFF888804CF25034022894
:1013C00008D0A2462046FFF703FFA8B131E0022073
:1013D000BDE8F0872046FFF7FBFE08BB0120FFF7C2
:1013E00097FE2046FFF7F4FED8F81010064621F0CD
:1013F0000401C8F810101CE04FF0FF303860AC68F2
:1014000011E02046FFF796FE5046FFF7E1FED8F8C0
:101410001010060021F00201C8F8101001D03C6045
:1014200007E004F58064D5E9020100EB8120A042C9
:10143000E7D8002189F818103046C9E7080E0020C7
:10144000002002400348016941F080010161002051
:1014500070470000002002402DE9F05F07461C485D
:1014600088460024017E15461E46012909D0012127
:10147000814601764CF2503A5046FFF7A9FE18B16A
:1014800022E00220BDE8F09F012F02D0022F00D001
:101490000427D346DFF83CA0220128463146FEF758
:1014A00041FE81B208EB4400FFF756FE5846FFF7B5
:1014B0008FFEDAF8102022F00102CAF8102018B9C5
:1014C000641CE4B2BC42E7D3002289F81820D9E7B3
:1014D000080E002000200240064900200A6912067A
:1014E00007D5054A4A60054A4A600969090600D5D8
:1014F000012070470020024023016745AB89EFCDF2
:101500002DE9F84FDFF890A100220AF1040B1446F0
:1015100001274FF00F090BF1040E00BF0B6807FA0B
:1015200004F52B40AB4274D1DFF870C14E68A6EBD6
:101530000C0866452BD00DDC032E34D005DC36B309
:10154000012E19D0022E2FD11BE0112E16D0122EF3
:101550002AD119E0B8F5881F19D006DCB8F5803F0C
:1015600015D0B8F5801F1FD111E0B8F5001F0ED0BF
:10157000B8F5041F18D10AE0CA6815E0CA68121D40
:1015800012E0CA6808320FE0CA680C320CE08A68C0
:101590002AB1012A4FF0080203D0456104E0042279
:1015A00002E0056100E00022FF2B01D8064601E0C1
:1015B00000F104064FEA840501D9A5F12005D6F80B
:1015C00000C009FA05F82CEA080C02FA05F54CEA05
:1015D000050CC6F800C04D68ED0057D5304DAE691A
:1015E00046F00106AE61AD6924F0030605F0010581
:1015F00000952C4D06EB050CDCF80850A6074FEAC9
:10160000167809FA08F6B543274EB04202D10026F3
:1016100010E03BE0254EB04201D101260AE0244E05
:10162000B04201D1022605E0224EB04201D103268C
:1016300000E0042606FA08F62E43CCF808604D6850
:10164000DAF80060ED03554601D51E4300E09E43E5
:101650002E604D68DBF80060AD035D4601D51E438A
:1016600000E09E432E604D68DEF80060ED02754696
:1016700001D51E4300E09E432E604D68AD020E4D25
:101680002E6801D51E4300E09E432E60641C102C82
:10169000FFF444AFBDE8F88F0004014000001110D2
:1016A000001002400000014000080140000C014011
:1016B00000100140001401400C040140C2684A407F
:1016C000C26070470AB1016170470904FBE700007E
:1016D00001488068704700007000002070B5040069
:1016E0001BD094F83D00002520B984F83C502046DA
:1016F00000F042FA242084F83D002068016821F0BF
:101700000101016000F0D8FB404A6168914201D8B4
:101710003F4900E03F49884201D2012070BD3E4967
:101720002368B0FBF1F159606368934206D94FF426
:10173000967359434FF47A73B1FBF3F12368491C54
:1017400019626168914210D84900401EB0FBF1F265
:10175000521CC2F30B02042A01D2042022E0B0FB87
:10176000F1F0401CC0F30B001CE0A368CBB301EB0D
:10177000C10202EB0116421EB2FBF6F2521C42F409
:101780008042120536D06BB301EBC10202EB0111AE
:10179000401EB0FBF1F0401CC0F30B0040F4804051
:1017A00040F400402168C861D4E90701084321687A
:1017B0000860D4E90310084321688860D4E9050172
:1017C00008432168C8602068016841F00101016098
:1017D0002564202084F83D00256384F83E500020D5
:1017E00070BD00E008E001EB4106421EB2FBF6F2DC
:1017F000521CC6E70120D5E701EB4101401EB0FBBA
:10180000F1F0401CC0F30B00CAE70000A086010005
:1018100080841E0000093D0040420F002DE9FF4F6B
:1018200083B09A46DDE9118793460446DDF840907F
:10183000FFF74EFF054694F83D00202872D119238A
:1018400001227B492046009501F027FC0028F5D1B4
:1018500094F83C00012865D0012084F83C00206801
:101860000168C90703D1016841F0010101602068E6
:10187000016821F400610160222084F83D004020CD
:1018800084F83E0000262664C4F82490A4F82A8038
:101890006848E062608D2085CDE9007553465A4660
:1018A0002046049901F009FB28B1206C84F83C60C3
:1018B000042851D075E0208DDFF87C8168B10128C3
:1018C00014D00228206801681ED041F480610160B4
:1018D00020684169806900909BE0206841698169C6
:1018E0000091016841F40071016092E02068016894
:1018F00021F48061016072B62068416981690091BC
:10190000016841F400710AE041F40061016072B6BF
:101910002068416981690091016821F4806101605A
:1019200062B676E081E0032850D801280BD0022867
:101930003B464FF0000241462046009512D001F090
:10194000ACFB70BB13E02A463946204601F01AFC76
:1019500030B1206C202824D0012007B0BDE8F08FE2
:1019600020684BE001F099FBD8B972B61BE0206803
:10197000016821F48061016072B620680169606AC3
:10198000421C62620170208D401E2085608D401EC9
:1019900060853B46002241462046009501F07DFBD4
:1019A00008B10320D9E72068016841F400710160A3
:1019B00020680169606A421C62620170208D401ECD
:1019C0002085608D401E608562B6C9E72A4639468B
:1019D000204601F0D7FB0028BBD120680169606A6E
:1019E000421C62620170208D401E2085608D401E69
:1019F000608520684169C94349070AD40169606A62
:101A0000421C62620170208D401E2085608D401E48
:101A10006085208D002886D1202084F83D0084F840
:101A20003E6084F83C60002097E7022095E70000C4
:101A3000020010000000FFFF040001002DE9FF4F2D
:101A400083B09A46DDE9118793460446DDF840905D
:101A5000FFF73EFE064694F83D0020287DD119236D
:101A6000012243492046009601F017FB00287CD153
:101A700094F83C00012878D0012084F83C002068CC
:101A80000168C90703D1016841F0010101602068C4
:101A9000016821F400610160212084F83D004020AC
:101AA00084F83E0000252564C4F82490A4F82A8018
:101AB0003048E062608D2085CDE9007653465A4675
:101AC0002046049901F072FA80B3206C84F83C50EF
:101AD000042848D008E032463946204601F083FB0E
:101AE00030B1206C042839D0032007B0BDE8F08F56
:101AF000606A411C6162216800780861208D401E87
:101B000080B22085618D491E618521684A69D24372
:101B100052070BD468B1606A421C626200780861A7
:101B2000208D401E2085608D401E6085208D002800
:101B3000D1D132463946204601F088FA0028D0D16A
:101B400054F83D0B016841F400710160202004F855
:101B50001E09E57765770020C7E706E02068016881
:101B600041F4007101600120BFE70220BDE70000E1
:101B7000020010000000FFFF30B50068134985B077
:101B8000884221D1C0200090122001900320104DE6
:101B9000039069462846FFF7B3FC0E4CE06940F419
:101BA0000010E061E069694600F400100490022032
:101BB00001902846FFF7A4FCE06940F40010E061C2
:101BC000E06900F40010049005B030BD00540040FE
:101BD000000C014000100240024881680278114464
:101BE0008160704770000020074810B5016841F01F
:101BF00010010160032000F09DF8002000F006F8BD
:101C000000F024F8002010BD0020024070B50D4DFA
:101C100004464FF47A712878B1FBF0F00A4909685C
:101C2000B1FBF0F000F087FC48B9102C07D200227D
:101C30002146501E00F05EF800206C6070BD01204F
:101C400070BD0000700000207C000020214808B515
:101C5000816941F001018161816901F00101009117
:101C6000C16941F08051C161C06900F080500090AD
:101C7000052000F05FF8002211466FF00B0000F025
:101C800039F8002211466FF00A0000F033F8002204
:101C900011466FF0090000F02DF800221146501F88
:101CA00000F028F800221146101F00F023F800224F
:101CB0001146901E00F01EF800221146501E00F042
:101CC00019F80548416821F0E06141F00071416078
:101CD00008BD0000001002400000014000F01F029B
:101CE000012191404009800000F1E020C0F800117E
:101CF00070470000F0B40E4B1B680C46C3F3022380
:101D0000C3F10705042D00D90425191D072901D2A7
:101D1000002300E0DB1E012606FA05F1491E2140E2
:101D200099409E40761E16403143F0BC02F02AB81E
:101D30000CED00E0064900F0070208684FF6FF03CB
:101D4000184040EA0220034A104308607047000030
:101D50000CED00E00000FA052DE9F047DFF83C81CA
:101D600005460E46D8F8000000F00700B0420CD23D
:101D7000D8F8001021F007013143C8F80010D8F856
:101D8000000000F00700B04263D12878444C80077F
:101D900005D56068A96820F0F000084360602878E5
:101DA000C00745D06868012816D02168022816D0DF
:101DB000890700294DDA616821F003010143616060
:101DC000FFF786FC6968074641F2883001290FD089
:101DD0000229814619D027E021688903E9E78901B2
:101DE000E7E700BFFFF774FCC11B494501D918E0C4
:101DF00081466068C0F381000128F3D118E000BF7C
:101E0000FFF766FCC11B49450BD86068C0F3810031
:101E10000228F5D10CE000BFFFF75AFCC11B494571
:101E200002D90320BDE8F087606810F00C0FF3D1F1
:101E3000D8F80010404601F00701B1420BD9016803
:101E400021F0070131430160006800F00700B04253
:101E500001D00120E6E72878400705D56068E968E9
:101E600020F4E060084360602878000706D56068C9
:101E7000296920F4605040EAC100606000F03CF83D
:101E80006168084AC1F30311515CC8400649086003
:101E90000020FFF7BBFE0020C4E700000020024046
:101EA000001002403E5A00087C00002001480068F3
:101EB000704700007C00002004480549006849681C
:101EC000044AC1F30221515CC84070477C000020E5
:101ED000001002404E5A000804480549006849684D
:101EE000044AC1F3C221515CC84070477C00002005
:101EF000001002404E5A000812A185B00FC98DE8AB
:101F00000F0014A0144A006804905168134801F0AF
:101F10000C03042B10D0082B0ED1C1F38343C9034B
:101F20001DF803000AD5516804AAC1F34041515C71
:101F30000A4A5043B0FBF1F005B0704708494843E6
:101F4000FAE7000002030405060708090A0B0C0D56
:101F50000E0F1010010200000010024000127A0063
:101F600000093D002DE9F84F04460078B94DC0073F
:101F700048D06868C0F38100012807D06868C0F3C2
:101F80008100022809D16868C00306D5286880034B
:101F900038D5606800286FD034E06068B0F5803FC5
:101FA0000BD010B1B0F5A02F11D0286820F48030EC
:101FB0002860286820F4802002E0286840F48030FF
:101FC0002860606888B1FFF783FB064609E028684F
:101FD00040F480202860F0E7FFF77AFB801B64283C
:101FE00075D828688003F7D50CE0FFF771FB06462B
:101FF00005E000BFFFF76CFB801B6428F0D8286861
:102000008003F7D42078944E80074FF001094FF0F9
:1020100000083BD5686810F00C0F07D06868C0F363
:102020008100022809D16868C00306D428688007A7
:1020300014D5206901281FD110E02069B0B1C6F87D
:102040000090FFF745FB074605E000BFFFF740FBA8
:10205000C01B0228C4D828688007F7D528686169A2
:1020600020F0F80040EAC10028600FE0C6F80080C8
:10207000FFF72EFB074606E0E9E000BFFFF728FB6D
:10208000C01B022823D828688007F7D420780007CF
:102090002CD57248A169D9B1C0F80090FFF718FBA0
:1020A000074604E0FFF714FBC01B02280FD8686A3C
:1020B0008007F7D56A484FF4FA510068B0FBF1F099
:1020C000009000BF0098411E0091FAD20EE080E01F
:1020D000C0F80080FFF7FCFA074604E0FFF7F8FAC3
:1020E000C01B022875D8686A8007F7D4207840079B
:1020F00060D5E8690027C00008D4E86940F0805046
:10210000E861E869012700F08050009055480168B7
:10211000C90513D40168834641F480710160FFF75B
:10212000D7FA824606E000BFFFF7D2FAA0EB0A001A
:1021300064284ED8DBF80000C005F5D5E06801281A
:102140000AD008B1052813D0286A20F001002862BF
:10215000286A20F0040002E0286A40F001002862AA
:10216000E06841F2883B98B1FFF7B2FA82460BE093
:10217000286A40F004002862EEE700BFFFF7A8FAE3
:10218000A0EB0A0159455AD8286A8007F6D50CE019
:10219000FFF79EFA824605E0FFF79AFAA0EB0A01E4
:1021A00059454CD8286A8007F6D41FB1E86920F059
:1021B0008050E861E06988B36968C1F38101022950
:1021C00045D00228C6F8608004D0FFF781FA0446A3
:1021D00038E034E0FFF77CFA074604E0FFF778FACE
:1021E000C01B02282BD828688001F7D4206AB0F5DC
:1021F000803F05D16868A16820F40030084368601A
:10220000D4E908010843696821F47411084368603F
:10221000C6F86090FFF75CFA044606E015E000BFE0
:10222000FFF756FA001B022809D828688001F7D565
:102230000BE000BFFFF74CFA001B022802D9032075
:10224000BDE8F88F28688001F4D40020F8E7012069
:10225000F6E70000001002400000424280044242C3
:102260007C0000200070004070B5040005D00025FF
:10227000A56294F8510010B104E0012070BD204621
:1022800000F034F8022084F851002068016821F041
:1022900040010160D4E901010843D4E9031211436C
:1022A000084361690843218B01F400710843E16927
:1022B0000843216A0843A16A084321680860A069AD
:1022C000042101EA1040616A0843216848602168DE
:1022D000E06A08612068C16921F40061C161656537
:1022E000012084F85100002070BD000010B5006886
:1022F000114986B088421CD11048816941F480514F
:10230000816180690E4C00F480500490A020009000
:10231000022001900320039069462046FFF7F0F861
:1023200000214020CDE90001029169462046FFF7D7
:10233000E7F806B010BD0000003001400010024078
:10234000000801402DE9F84F044690F8500000269F
:102350000A9F9A4693460D464FF0010801280ED079
:10236000012084F85000FFF7B3F9814694F851003A
:10237000616801280CD0B1F5827F07D102E002200C
:10238000BDE8F88FA16809B9042801D00226BDE094
:1023900055B1BBF1000F07D0BAF1000F04D094F88B
:1023A0005100012802D004E00126AFE0052084F8A6
:1023B000510000206065C4F838B0A4F83EA0A4F82D
:1023C0003CA02563A4F836A0A4F834A0206460647F
:1023D00020680168490603D4016841F040010160AA
:1023E000E068B0F5006F606804D0E8B3E08E0128C3
:1023F0003BD06AE010B1E08E01282ED1216835F87B
:10240000020BC860E08E401EE08626E0B8F1000FA7
:102410000DD0E08E58B120688168890707D535F85E
:10242000021BC160E08E401EE0864FF00008E08F86
:1024300058B120688168C90707D0C0682BF8020B23
:10244000E08F401EE0874FF00108781C05D0FFF7B1
:102450003FF9A0EB0900B84246D2E08E0028D5D162
:10246000E08F0028D2D136E0FFE7216815F8010B94
:102470000873E08E401EE08627E000BFB8F1000F31
:102480000DD0E08E58B120688168890707D515F80E
:10249000011B0173E08E401EE0864FF00008E08FC4
:1024A00058B120688168C90707D0C0680BF8010BD4
:1024B000E08F401EE0874FF00108781C05D0FFF741
:1024C00007F9A0EB0900B8420ED2E08E0028D5D162
:1024D000E08F0028D2D13B46012202212046CDF8D0
:1024E000009001F0D5FD08B103260FE04A463946B9
:1024F000204601F0BDFD18B101262020606505E0F1
:10250000A06818B92068C16880680090012084F82C
:102510005100002084F85000304631E74FF0E021B0
:102520000428086903D020F004000861704740F0D7
:102530000400FAE7704710B5401EB0F1807F01D368
:10254000012010BD4FF0E02460610F21601701F001
:1025500019FC0020A06107202061002010BD10B5EB
:10256000FFF7E8FF10BD7047704730B590F83C208A
:10257000012A20D0012280F83C20022380F83D303F
:1025800003685C6824F070045C6003685C680D6834
:102590002C435C6003689C6824F080049C600368A2
:1025A0009C6849680C439C6080F83D20002180F8BD
:1025B0003C10084630BD022030BD10B5040003D0E9
:1025C00094F83D0010B107E0012010BD002084F810
:1025D0003C00204600F00CF8022084F83D00211D4C
:1025E000206801F0E1FF012084F83D00002010BDCB
:1025F00008B501681448B1F1804F14D0134A9142D4
:1026000020D1C16941F00401C161C069022200F01A
:102610000400009011461E20FFF76CFB1E20BDE851
:102620000840FFF75BBBC16941F00101C161C069AE
:10263000032200F00100009002211C20FFF75AFB4A
:102640001C20ECE708BD000000100240000800401C
:102650000168CA6842F00102CA600068016841F07E
:10266000010101600020704770B5044690F83C00FD
:10267000012817D0012584F83C50022084F83D0041
:102680002068826822F0770222F47F428260086824
:10269000502837D00DDC202859D005DC88B310280D
:1026A00041D151E0022070BD302853D040283AD1AA
:1026B0003FE060282ED070280BD0B0F5805F03D0AB
:1026C000B0F5005F2FD110E02068816821F007018C
:1026D00015E0CB68D1E90121206801F0A6FF21684F
:1026E000886840F0770088601DE0CB68D1E901215F
:1026F000206801F09AFF2068816841F48041816080
:1027000011E01EE0CA684968206802F043F85021D1
:10271000206806E0CA684968206802F04CF8602129
:10272000206801F08CFF84F83D50002084F83C00C4
:1027300070BDCA684968206802F02CF84021206802
:10274000EFE700212068ECE710212068E9E720216D
:102750002068E6E730212068E3E7704770B504465B
:10276000006801694FF00005C943890715D4C168A5
:10277000C943890711D4E91E01610120207720682F
:1027800080698007204602D0FFF7E7FF04E000F0F1
:10279000B7F8204600F04CF9257720680169C94355
:1027A000490717D4C168C943490713D46FF004011E
:1027B0000161022020772068806910F4407F204664
:1027C00002D0FFF7CAFF04E000F09AF8204600F0BC
:1027D0002FF9257720680169C943090716D4C16814
:1027E000C943090712D46FF0080101610420207762
:1027F0002068C0698007204602D0FFF7AEFF04E0E2
:1028000000F07EF8204600F013F925772068016972
:10281000C943C90617D4C168C943C90613D46FF0A8
:1028200010010161082020772068C06910F4407F02
:10283000204602D0FFF791FF04E000F061F8204647
:1028400000F0F6F8257720680169C943C90708D167
:10285000C168C943C90704D1891E0161204600F03F
:1028600001F920680169C943090609D4C168C9434F
:10287000090605D46FF0800101612046FFF773FE61
:1028800020680169C943490609D4C168C94349069A
:1028900005D46FF040010161204600F067F920681F
:1028A0000169C94389060BD4C168C943890607D4A5
:1028B0006FF0200101612046BDE87040FFF754BE73
:1028C00070BD00001FB500680A49884211D133204D
:1028D000009002200190039069460748FEF710FE21
:1028E0000648416821F4406141F0E06141F4006133
:1028F00041601FBD00040040000C01400000014089
:10290000704770B5044690F83C000D4601280DD084
:10291000012684F83C60022084F83D0042B1042A7C
:1029200018D0082A2AD00C2A4DD139E0022070BDD7
:10293000206801F08DFE2068816941F00801816105
:102940002068816921F004018161206881692A6918
:10295000114311E0206801F0A3FE2068816941F471
:10296000006181612068816921F480618161206852
:1029700081692A6941EA0221816124E0206801F02D
:10298000BBFE2068C16941F00801C1612068C169CE
:1029900021F00401C1612068C1692A69114311E075
:1029A000206801F0D5FE2068C16941F40061C16171
:1029B0002068C16921F48061C1612068C1692A6908
:1029C00041EA0221C16184F83D60002084F83C00A6
:1029D00070BD10B5040003D094F83D0010B107E0BD
:1029E000012010BD002084F83C00204600F00CF8C7
:1029F000022084F83D00211D206801F0D5FD012052
:102A000084F83D00002010BD08B5006806498842E2
:102A100008D10648C16941F00201C161C06900F0F6
:102A20000200009008BD00000004004000100240B9
:102A30007047000010B504460068012201F0EAFD6D
:102A400007492068884203D1416C41F40041416448
:102A50002068016841F001010160002010BD000004
:102A6000002C01402DE9F0410546006839493A4CF7
:102A7000DFF8E880884243D16068401C6060C0078E
:102A80000BD101F097FA01F08FF9FEF71BFC3448E7
:102A90008268D0E90010FDF77BFF6068072190FB9A
:102AA000F1F201FB120131B10D2190FBF1F201FBBA
:102AB000120028B106E002F07BFC02F0E5FC01E028
:102AC00002F05EFD6068142190FBF1F201FB120040
:102AD000244E4FF4805728B9307818B13946404613
:102AE000FEF7ECFD60684FF4FA7190FBF1F201FB28
:102AF00012003178084303D139464046FEF7DEFD27
:102B00002868B0F1804F23D1072001F0E5F820704C
:102B10000146272001F01CF92078400618D5202214
:102B20001149612001F0B4F8FF21E22001F010F911
:102B30000D4801F065FA01F0F9F9FEF7A7FA02F085
:102B4000F1FE4046BDE8F0414FF40051FEF7B6BD3E
:102B5000BDE8F0810008004048000020000C014062
:102B60000C060020520000208400002070477047AF
:102B700070B5026804461068D168536910F00F0FF1
:102B800050D003F0010501F4907635435DD0C207C3
:102B900005D0CA0503D5E26B42F00102E2634207A9
:102BA00005D5DA0703D0E26B42F00202E263820746
:102BB00005D5DA0703D0E26B42F00402E2630207B4
:102BC00005D5DA0703D0E26B42F00802E263E26B5C
:102BD000002A33D0800604D5880602D5204601F0AD
:102BE00012FE20684069E16BC0F38010090700D431
:102BF00028B3204601F0F9FD2068416949061AD53D
:102C0000416921F040014161606BA0B11B49416302
:102C1000606BFEF765FB002810D0606B416BBDE870
:102C200070400847830610D58B060ED52046BDE8B8
:102C3000704001F0E8BD2046FFF799FF70BD2046C7
:102C4000FFF795FF0020E06370BD030606D50B0675
:102C500004D52046BDE8704001F0D8BE4006F3D54B
:102C60004806F1D5D168204621F04001D1602021ED
:102C700084F8391000F00BF970BD0000DB47000844
:102C800070B5040004D094F83900002510B106E0B6
:102C9000012070BD84F83850204600F023F824202D
:102CA00084F839002068C16821F40051C1602046D1
:102CB00001F0F4FD2068016921F490410161206870
:102CC000416921F02A0141612068C16841F4005145
:102CD000C160E563202084F8390084F83A000020C0
:102CE00070BD000010B50068184986B088422BD12D
:102CF0001748816941F4804181618069154C00F475
:102D0000804004904FF40070009002200190032056
:102D1000039069462046FEF7F3FB00212015CDE91C
:102D20000001029169462046FEF7EAFB02220121DA
:102D30002520FEF7DFFF2520FEF7D0FF0648012201
:102D40000178064800F00CF806B010BD00380140CC
:102D5000001002400008014050000020D807002069
:102D600090F83A30202B22D1F9B1F2B190F83830F6
:102D7000012B1CD081628285C2850021C163222281
:102D800080F83A2080F838100168CA6842F48072EE
:102D9000CA6001684A6942F001024A610068C1687C
:102DA00041F02001C16000207047012070470220DF
:102DB00070470000054810B50078FEF71BF9BDE824
:102DC00010404FF400510248FEF778BC6206002024
:102DD000000C01402DE9F843044690F839001F46E5
:102DE00016460D46202850D1A5B19EB194F8380062
:102DF00001284AD0012084F838004FF00008C4F8B8
:102E00003C80212084F83900FEF762FCA6848146CC
:102E1000E68426E00120BDE8F883E08C401EE084D3
:102E2000A0684B46B0F5805F4FF000024FF0800184
:102E30002046009703D001F01AFEE8B90DE001F03A
:102E400016FEC8B928882168C0F3080048602069C8
:102E500008B16D1C05E0AD1C03E0216815F8010BFD
:102E60004860E08C0028D8D14B4600224021204603
:102E7000009701F0FCFD08B10320CCE7202084F886
:102E8000390084F838800020C5E70220C3E7704786
:102E9000FEE701684A69D24352050CD46FF48062A0
:102EA0004A6104210164002140F8301F202242734E
:102EB000017301207047002070472DE9F84F044648
:102EC000006889460B9D01689846174641F4806169
:102ED00001602068016841F48071016000954FF045
:102EE000011A0022514620460A9B00F0D6F8F0BB9A
:102EF000216809F0FE0008610AF1010B2B465946D2
:102F000020460A9A00F0FAF818B1206C042812D072
:102F10003AE020684169806900902A4620460A9973
:102F200000F061F950B1206C04282DD120680168AF
:102F300041F4007101600120BDE8F88FFEB2B8F1E4
:102F4000010F09D02168380A08612A4620460A99EB
:102F500000F049F90028E6D1206806612A4620469B
:102F60000A9900F040F90028DDD1206800E00BE06C
:102F7000016841F4807101600095002251462046AD
:102F80000A9B00F08AF808B10320D5E7216809F010
:102F9000FF0040F0010008612B46594620460A9A7E
:102FA00000F0ACF80028B0D1C6E700002DE9F843E6
:102FB000044600680D46DDE9089701689846164604
:102FC00041F4807101604B4600224FF00111204610
:102FD000009700F062F8E8B9216805F0FE0008618A
:102FE0003B464A461849204600F088F828B1206C34
:102FF00004280FD10120BDE8F88320684169806969
:1030000000903A464946204600F0EDF820B1206C89
:10301000042813D00320EEE7F5B2B8F1010F09D070
:103020002168300A08613A464946204600F0DBF83C
:103030000028ECD1206805610020DCE720680168E9
:1030400041F400710160D5E70200010070B5164639
:103050000D4604461AE02046FFF71BFF08B1012089
:1030600070BD681C12D025B1FEF732FB801BA84250
:103070000CD954F8400F40F0200044F8100900200B
:103080002060202161732073032070BD2068406997
:10309000C0434007DFD4002070BD2DE9F0471E4635
:1030A00090460D460446C1F30747DDF8209012E034
:1030B000701C10D02EB1FEF70BFBA0EB0900B04244
:1030C00009D9002044F8300F20216173A0732073C8
:1030D0000320BDE8F0872068012F0AD0806925EA27
:1030E00000000004000C06D000214145E0D0002083
:1030F000EFE74069F3E70121F7E700002DE9F0472A
:103100009A4691460D46044600264FF02008C1F32A
:1031100007472AE020684069C043400512D4206870
:10312000016841F40071016021686FF480604861BA
:1031300004202064266384F83D8084F83C600120EC
:10314000BDE8F087B9F1FF3F0FD0B9F1000F05D00E
:10315000FEF7BEFAA0EB0A01494506D944F8306FE4
:1031600084F80D8026730320EAE72068012F07D03A
:10317000D0F8180025EA00000004000CE0D0C9E7F0
:103180004069F7E72DE9F041002590460E460446D8
:10319000202721E04069C043C0060CD421686FF0AD
:1031A000100048612564256384F83D7084F83C5024
:1031B0000120BDE8F0812EB1FEF78AFAA0EB0800ED
:1031C000B04209D954F8400F40F0200044F80409F7
:1031D000677025700320ECE720684169C943490600
:1031E000D8D40020E5E770B516460D4604461AE02F
:1031F0002046FFF74EFE08B1012070BD681C12D0BA
:1032000025B1FEF765FA801BA8420CD954F8400F8F
:1032100040F0200044F81009002020602021617354
:103220002073032070BD20684069C0430006DFD4CE
:10323000002070BD2DE9FF4FDFF8948593B0444620
:10324000D8F80C100E463046FCF7E6FF06902169D0
:1032500030460D46FCF7E0FF0790616930460F46A7
:10326000FCF7DAFF294604900846FCF7D5FF0590E5
:10327000A16928460E46FCF7CFFF39460190084663
:10328000FCF7CAFF039031463846FCF7C5FF3146CC
:1032900000900846FCF7C0FF0290A16A0B91084617
:1032A000FCF7BAFF1090E16A0E463046FCF7B4FF17
:1032B0000D90216B09910846FCF7AEFF616B8146CA
:1032C0008A465046FCF7A8FF0F9050461599FCF728
:1032D000A3FF074614990998FCF79EFF054686F060
:1032E00000401399FCF798FF2946FCF78FFF3946F9
:1032F000FCF78CFFDFF8DCB45F465946FCF78CFF27
:103300000B99FCF731FFA062054650461499FCF773
:1033100083FF119015990998FCF77EFF0E902946BE
:103320001398FCF779FF0E99FCF71EFF1199FCF733
:103330006DFF3946FCF770FF3146FCF715FF064676
:10334000E06251461398FCF767FF0E9030461599DE
:10335000FCF762FF0B9028461499FCF75DFF0B9970
:10336000FCF754FF0E99FCF7FFFE3946FCF754FFBB
:103370000999FCF7F9FE014620631398FCF74CFF0E
:10338000099030461499FCF747FF064628461599E0
:10339000FCF742FF3146FCF7E7FE0999FCF736FFE0
:1033A0003946FCF739FF5146FCF7DEFE60630D99A4
:1033B0001098FCF7D9FE4946FCF7D6FE0F99FCF7AA
:1033C000D3FEFDF787F902F00FFBFDF796F90546EE
:1033D0000146A06AFCF752FFA0622946E06AFCF7AA
:1033E0004DFFE0622946206BFCF748FF2063294629
:1033F000606BFCF743FF606320991698FCF70CFFA5
:103400002199FCF709FF10F0FF4F7DD02199084664
:10341000FCF702FF209905460846FCF7FDFE1699C9
:1034200004460846FCF7F8FE2146FCF79DFE2946B7
:10343000FCF79AFEFDF74EF902F0D6FAFDF75DF9BA
:10344000044601461698FCF719FF8246214620984B
:10345000FCF714FF209021462198FCF70FFF8146CE
:1034600004990198FCF7D2FE0121FCF745FF0646BE
:1034700000990798FCF778FE0121FCF73DFF05460F
:10348000DDE90510FCF7C2FE0399FCF7BFFE0299C7
:10349000FCF76AFE044629464846FCF7BDFE07468F
:1034A00021462098FCF7B8FE3946FCF7AFFE0746E8
:1034B00021465046FCF7B0FE044631464846FCF72C
:1034C000ABFE2146FCF7A2FE814631462098FCF770
:1034D000A3FE044629465046FCF79EFE2146FCF713
:1034E00095FED8F80810824644460D463846FCF74B
:1034F00093FEE169FCF738FE8046E06129464846C4
:10350000FCF78AFE216A00E05FE1FCF72DFE06462B
:10351000206229465046FCF77FFE616AFCF724FED4
:1035200005466062606839460746FCF775FE1399E8
:10353000FCF71AFE4146FCF717FE8046494638461E
:10354000FCF76AFE1499FCF70FFE3146FCF70CFEFF
:10355000064651463846FCF75FFE1599FCF704FE17
:103560002946FCF701FE07460146A0690490FCF7D6
:1035700053FE8246606931460190FCF74DFE0546D8
:1035800020694146814680F00040FCF745FE29460F
:10359000FCF73CFE5146FCF739FE5946FCF73CFE71
:1035A000E168FCF7E1FD0546E06031460498FCF770
:1035B00033FE079039460198FCF72EFE82462946D5
:1035C0004046FCF729FE5146FCF7CEFD0799FCF773
:1035D0001DFE5946FCF720FE4946FCF7C5FD20615B
:1035E000814640460499FCF717FE08903946484644
:1035F000FCF712FE824631462846FCF70DFE514686
:10360000FCF704FE0899FCF7AFFD5946FCF704FEF1
:103610000199FCF7A9FD014660614046FCF7FCFDFD
:10362000804631464846FCF7F7FD064639462846AF
:10363000FCF7F2FD3146FCF797FD4146FCF7E6FD4D
:103640005946FCF7E9FD0499FCF78EFDA061DDE920
:103650000510FCF789FD0399FCF786FD0299FCF73C
:1036600083FDFDF737F802F0BFF9FDF746F8054690
:103670000146E068FCF702FE8146E06029462069C9
:10368000FCF7FCFD8246206129466069FCF7F6FDE7
:10369000804660612946A069FCF7F0FD06460121DD
:1036A000A061FCF729FE3146FCF7B6FD05464FF058
:1036B00040414046FCF7B0FD4146FCF7ADFD2946D0
:1036C000FCF7A4FD4FF07E5B5946FCF74DFDFDF77E
:1036D00001F807460D4601214846FCF70DFE31462C
:1036E000FCF79AFD064601215046FCF705FE4146CF
:1036F000FCF792FD3146FCF737FDFCF7EBFF3A464D
:103700002B4601F0D3FC4FF0C0494A46324BFCF740
:10371000A6FEFCF7F2FF314E0121B060606905465C
:10372000FCF7EAFD82462946FCF776FD054620694E
:103730004FF040418046FCF76FFD4146FCF76CFDC1
:103740002946FCF763FD5946FCF70EFDFCF7C2FF66
:1037500007460D460121E068FCF7CEFD4146FCF727
:103760005BFD80465046A169FCF756FD4146FCF7DB
:10377000FBFCFCF7AFFF3A462B4601F097FC184FD5
:103780004A463B46FCF76BFEFCF7B7FF7060012131
:10379000E068FCF7B1FD6169FCF73EFD05464FF0BE
:1037A00040412069FCF738FDA169FCF735FD294649
:1037B000FCF7DAFCFCF78EFF01F030FA4A463B4694
:1037C000FCF74DFEFCF799FF306017B0BDE8F08FB5
:1037D0000C0000206F12833A94A94CC00C06002004
:1037E00094A94C4070B516460A4605463146104627
:1037F000FCF712FD044631464FF07E50FCF706FD03
:103800002946FCF709FD2146BDE87040FCF7ACBC39
:103810002DE9F041234886B0816941F020018161A2
:10382000816901F020010491816941F00401816105
:10383000816901F004010491816941F0080181610D
:103840008069194F00F008000490012212213846C7
:10385000FDF738FFDFF854804FF4E046012231468F
:103860004046FDF72FFF01240020CDE90040022053
:10387000029069463846FDF743FE1220CDE9000468
:10388000032569463846CDE90245FDF739FECDE905
:10389000006469464046CDE90245FDF731FE06B0B9
:1038A000BDE8F0810010024000080140000C01401A
:1038B0000E4810B50C4901600D49416000214FF4DC
:1038C00080428160C0E9031241618161C16101628E
:1038D000FDF704FF002805D0BDE81040422105A0F7
:1038E00001F009B910BD0000005400406C06002032
:1038F000A08601002E2E2F5372632F6932632E6330
:1039000000000000114810B50F4901604FF48271AA
:10391000416000218160C1604FF400720161C0E923
:1039200005121022C0E90721416281620A21C162A9
:10393000FEF79AFC002805D0BDE81040452104A000
:1039400001F0D9B810BD000000300140C0060020D1
:103950002E2E2F5372632F7370692E6300000000A8
:1039600010B5174886B04FF0804101604721002410
:10397000C0E901146321C0E903148461FEF71DFE50
:1039800018B146210FA001F0B6F84FF48050009016
:1039900069460B48FEF768FE18B14C2109A001F0FA
:1039A000AAF8049404A906480594FEF7DEFD002851
:1039B00003D0532103A001F09EF806B010BD000013
:1039C000180700202E2E2F5372632F74696D2E63FB
:1039D0000000000010B529488AB02749016047213E
:1039E0000024C0E9011440F2AF41C0E9031484612E
:1039F000FEF7EFFF18B1652121A001F07CF80794D4
:103A000007A91E480894FEF7B0FD18B16C211CA050
:103A100001F071F86020CDE90004029400226946AB
:103A200016480494FEF76DFF18B1752114A001F03B
:103A300062F8042269461148FEF763FF18B17A2143
:103A40000FA001F058F8082269460C48FEF759FF0C
:103A500018B17F210AA001F04EF80C2269460748F0
:103A6000FEF74FFF18B1842105A001F044F8034888
:103A7000FEF728FF0AB010BD0004004058070020E0
:103A80002E2E2F5372632F74696D2E630000000079
:103A900010B5184886B01649016047210024C0E9D6
:103AA000011440F2E731C0E903148461FEF785FD9B
:103AB00018B1982110A001F01EF84FF4805000902A
:103AC00069460C48FEF7D0FD18B19E210AA001F00E
:103AD00012F8049404A907480594FEF746FD00284F
:103AE00003D0A52104A001F006F806B010BD000027
:103AF00000080040980700202E2E2F5372632F7469
:103B0000696D2E63000000000D4810B50B4901607F
:103B10004FF4E1314160002181600C22C160C0E9B5
:103B200004128161C161FFF7ABF8002805D0BDE840
:103B30001040422103A000F0DEBF10BD003801405C
:103B4000D80700202E2E2F5372632F757361727465
:103B50002E630000FEE7F0B587B007466020CDE990
:103B60000001002015460C9E0290024604901C465F
:103B700069463846FEF7C5FE00213846FEF75AFF73
:103B80000422694638460195FEF7BBFE04213846FB
:103B9000FEF750FF0822694638460194FEF7B1FE51
:103BA00008213846FEF746FF0C2269463846019642
:103BB000FEF7A7FE0C213846FEF73CFF07B0F0BD2C
:103BC000704700001FB50FA10522D1E90001CDE922
:103BD000020102A9302000F097F805226946102062
:103BE00000F056F8002069460A5CA52A03D1401C63
:103BF000C0B20528F8D3052802D0012004B010BDBA
:103C00000020FBE7A5A5A5A5A500000010B5FFF7BE
:103C100079FE064C002210212046FDF753FD204678
:103C20000122BDE810400221FDF74CBD0008014013
:103C300010B5154C002210212046FDF743FD05224A
:103C400012492A2000F060F80121212000F080F8BC
:103C50000121222000F07CF82821252000F078F8AE
:103C60002021312000F074F80F21262000F070F898
:103C70000F21202000F06CF820460122BDE8104002
:103C80001021FDF71FBD000000080140395A00084F
:103C90002DE9F041DFF83C8015460F46044600222E
:103CA00002214046FDF70EFD204600F0CDF9064604
:103CB000002405E0FF2000F0C7F93855641CE4B289
:103CC000AC42F7D3012202214046FDF7FBFC30460F
:103CD000BDE8F0810008014070B50A4D044600229D
:103CE00002212846FDF7EEFC204600F0ADF9FF204A
:103CF00000F0AAF90446012202212846FDF7E2FC61
:103D0000204670BD000801402DE9F041DFF83C80FD
:103D100016460D460446002202214046FDF7D2FC1D
:103D2000204600F091F90746002405E015F8010B44
:103D300000F08AF9641CE4B2B442F7D301220221F4
:103D40004046FDF7BFFC3846BDE8F0810008014061
:103D500070B50B4D0E460446002202212846FDF7A1
:103D6000B1FC204600F070F90446304600F06CF9D2
:103D7000012202212846FDF7A5FC204670BD000067
:103D8000000801400907090E002806DA00F00F00BC
:103D900000F1E02080F8141D704700F1E02080F869
:103DA00000147047704700002DE9F047594C002778
:103DB0003E4634F9100B3D46B4F90210401A6061DA
:103DC00034F90E0CB4F90410401AA06134F90C0C4B
:103DD000E061B4F92A00B4F93C10401AE064B4F987
:103DE0003A10B4F92820891A2165B4F92C10B4F9D5
:103DF0003E20891A6165FCF72AFC8146B4F92E0041
:103E0000FCF725FCDFF8108149464246FFF7EAFC43
:103E1000FCF733FCE085206DFCF719FC8146B4F912
:103E20003000FCF714FC42464946FFF7DBFCFCF788
:103E300024FC2086606DFCF70AFC8046B4F9320051
:103E4000FCF705FC354A4146FFF7CCFCFCF715FCB6
:103E500000B260868046B4F92E00FCF7F8FBDFF86C
:103E6000C0904946FCF7D8F92064B4F93000FCF75B
:103E7000EEFB4946FCF7D0F960644046FCF7E7FBEF
:103E80004946FCF7C9F92849A064264A4878A38A1C
:103E900002F1C80C22F81030238B2CF81030B4F843
:103EA0001C8002F5C873E14623F81080B846103C28
:103EB00032F918C0674439F918C0664433F918C09C
:103EC00008F1010808F0FF086544B8F1640FEFD36A
:103ED0006423401CC2B297FBF3F096FBF3F695FB0C
:103EE000F3F34A7000B2E08036B226811DB26581DC
:103EF000642A01D100224A70FCF7A9FBA061304678
:103F0000FCF7A5FBE0612846FCF7A1FB2062BDE8B9
:103F1000F0870000B4000020CDCCCC3DCDCC4C3D92
:103F2000E4A40B3AB40300200C0000201D4810B597
:103F30004178491C11F0FF021B494270A1F116049F
:103F4000CB88E3804B88A3F6B833C3F100036380CA
:103F50000B88A3F6B833C3F1000323808988A1F24C
:103F6000DC5109B212D000224270B0F90420521A7A
:103F700002F59672B2F5167F01D9818005E00A221A
:103F800091FBF2F2A3881A44A2808180B4F9040064
:103F9000FCF75DFB054A064901F048F9FCF76DFBAB
:103FA000A08010BD520000202E08002000007A449E
:103FB0000000FA443EB5104C80200E210094CDE95B
:103FC000011001233B22D0210C48FDF727FC20885B
:103FD00041BA04F110000180618849BA4180A1888A
:103FE00049BA8180218949BA0187618949BA4187E3
:103FF000A18949BA81873EBDA40000206C0600203B
:10400000037842788178AA2B1AD1AA2A18D10129DB
:1040100016D0022914D10179C27801EB0222094994
:104020008A808279437902EB0322CA80827A437ABA
:1040300002EB03220A80027AC07902EB002048805A
:10404000704700002E08002038B5074C0123621C81
:104050002070FF200090511E0448FEF773F908B14C
:10406000FF2038BD607838BD00000020C006002069
:1040700038B50B46009204460022802100F008F873
:10408000002804D0606D40F020006065032038BD3A
:104090002DE9F0411D4617460E460446DDF818800E
:1040A00035E0681C33D02DB1FDF712FBA0EB080002
:1040B000A8422CD32068416821F0E001416060688B
:1040C000B0F5827F0BD1A068B0F5004F02D0B0F5FB
:1040D000806F04D12068016821F040010160A06A6E
:1040E000B0F5005F0AD1206801684DF6FF721140FB
:1040F00001602068016841F400510160012084F8EA
:104100005100002084F850000320BDE8F0812068B1
:10411000806836EA000004D00020B842C1D10020F7
:10412000F3E70120F9E7000010B5002306E000BF27
:1041300050F8024B21F813405B1C9BB29342F7D31B
:1041400010BD00002DE9F74F82B01546029C8A464B
:10415000A4F10064B4F5803F58D2FDF7BDF9A70A79
:10416000C4F34806C6F50074A54200D82C46DFF813
:10417000A4904FF4007B00BF4FF0006000EB87205D
:1041800080465A462349FFF7CFFF00204FF6FF71C4
:1041900006E0331839F813208A4203D1401C80B25C
:1041A000A042F6D3A0422BD21A4800211038016059
:1041B0000121C0E902816946FDF7F0F8002825D108
:1041C000494606E03AF810208319401C21F81320D4
:1041D00080B2A042F6D340465A460E4900F01CF881
:1041E000A54211D002980AEB440A20440290281BF1
:1041F000002685B25C467F1CA542BDD82C46BBE795
:10420000224651460298E9E7FDF71CF905B0BDE8E2
:10421000F08F0000540800202DE9F04116460F46AB
:10422000054600240AE000BF37F814200023294681
:104230000120FDF711F9641CA4B2AD1CB442F3D304
:10424000BDE8F081704700003EB5424C424D54F845
:10425000280F2946FBF7E0FFFCF728FAADF800002D
:1042600029466068FBF7D8FFFCF720FAADF8040098
:104270002946A068FBF7D0FFFCF718FAADF8080054
:10428000012269463548FFF75DFF3448012201A944
:10429000801CFFF757FF3148012202A9001DFFF7DC
:1042A00051FF2946E06EFBF7B7FFFCF7FFF9ADF8C9
:1042B00000002946206FFBF7AFFFFCF7F7F9ADF8D8
:1042C00004002946606FFBF7A7FFFCF7EFF9ADF894
:1042D0000800224801226946801DFFF733FF1F486E
:1042E000012201A90830FFF72DFF1C48012202A975
:1042F0000A30FFF727FF2946D4F8D800FBF78CFFD8
:10430000FCF7D4F9ADF800002946D4F8DC00FBF73F
:1043100083FFFCF7CBF9ADF804002946D4F8E000A0
:10432000FBF77AFFFCF7C2F9ADF808000B48012251
:1043300069460C30FFF706FF0848012201A90E303C
:10434000FFF700FF0548012202A91030FFF7FAFE2F
:104350003EBD0000540C002000007A4434FC0008EC
:104360003EB5414C414D29466068FBF755FFFCF7CF
:104370009DF9ADF800002946A068FBF74DFFFCF75A
:1043800095F9ADF804002946E068FBF745FFFCF716
:104390008DF9ADF80800012269463548FFF7D2FED5
:1043A0003348012201A9801CFFF7CCFE30480122CE
:1043B00002A9001DFFF7C6FE2946206FFBF72CFF60
:1043C000FCF774F9ADF800002946606FFBF724FF95
:1043D000FCF76CF9ADF804002946A06FFBF71CFF51
:1043E000FCF764F9ADF8080021480122694608305D
:1043F000FFF7A8FE1E48012201A90A30FFF7A2FE1E
:104400001B48012202A90C30FFF79CFE2946D4F874
:10441000DC00FBF701FFFCF749F9ADF80000294685
:10442000D4F8E000FBF7F8FEFCF740F9ADF8040023
:104430002946D4F8E400FBF7EFFEFCF737F9ADF8B6
:1044400008000B48012269460E30FFF77BFE084842
:10445000012201A91030FFF775FE0548012202A9CB
:104460001230FFF76FFE3EBD540C002000007A446E
:1044700020FC0008F0B589B00E46074600252C4602
:1044800020216846FBF765FEAA208DF800008DF814
:104490000100EF208DF8020002208DF803008DF856
:1044A00004708DF805606846015D641C2944E4B21F
:1044B000CDB2062CF8D301468DF80650FF23072213
:1044C0000248FEF787FC09B0F0BD0000D8070020C5
:1044D00010B5FDF781FBBDE81040FEF740B830B5E0
:1044E0008FB001210804CDE90010002402940225B8
:1044F0000491CDE907504FF4E01009906846FDF7AC
:1045000031FD00B1FEE70F20CDE90A054FF48060D0
:10451000CDE90C4002210AA80E94FDF71DFC00B164
:10452000FEE7FDF7C3FC4FF47A71B0FBF1F0FEF744
:1045300002F80420FDF7F2FF00221146501EFDF79D
:10454000D9FB0FB030BD00000D48016841F00101FA
:10455000016041680B4A1140416001680A4A1140FC
:104560000160016821F480210160416821F4FE01AD
:1045700041604FF41F0181600449C0030860704727
:10458000001002400000FFF8FFFFF6FE08ED00E01B
:104590000148FEF7E3B80000180700200148FEF7C5
:1045A000DDB8000098070020F0B50268164B174CE4
:1045B000174D4FF08047984205D0B84203D0A04233
:1045C00001D0A84203D122F070064A6832439842D3
:1045D00005D0B84203D0A04201D0A84203D122F4B2
:1045E0004074CA68224322F080044A692243026070
:1045F0008A68C2620A688262984201D109690163CD
:1046000001214161F0BD0000002C01400004004088
:104610000008004010B50123046A8B409C430462EB
:10462000036A8A401343036210BD10B5846842EAEE
:10463000032224F47F440A432243826010BD82682F
:1046400022F070020A4342F00701816070470000C7
:1046500030B5026A22F001020262026A436884698C
:1046600024F073050C682C4322F002058A682A4363
:104670000A4DA8420BD122F00805CA6823F4407302
:104680002A434D6922F004021D438B692B4343608A
:10469000846149684163026230BD0000002C014022
:1046A00030B5026A22F010020262026A436884692D
:1046B0000D6824F4E64444EA05248D6822F02002C3
:1046C00042EA05120B4DA8420ED1CD6822F08002BD
:1046D00042EA05124D6923F4406343EA85038D697C
:1046E00022F0400243EA85034360846149688163A4
:1046F000026230BD002C014030B5026A22F48072A3
:104700000262036A4268C46923F4007324F07305EB
:104710000C682C438D6843EA05230C4DA8420ED14A
:10472000CD6823F4006343EA05234D6922F4405227
:1047300042EA05128D6923F4806342EA0512426061
:10474000C4614968C163036230BD0000002C0140B0
:1047500030B5026A22F480520262046A4268C36978
:104760000D6823F4E64343EA05238D6824F40054DE
:1047700044EA0534064DA84204D14D6922F4804232
:1047800042EA85124260C36149680164046230BD37
:10479000002C014010B5036A046A24F0010404628D
:1047A000846924F0F00444EA021423F00A020A4364
:1047B0008461026210BD10B5036A23F01003036226
:1047C0008369046A23F4704343EA023224F0A003AD
:1047D00043EA01118261016210BD10B5406A0021F7
:1047E000C185C184FEF7C3F910BD0168CA6822F40F
:1047F0009072CA6001684A6922F001024A61202170
:1048000080F83A10704710B590F83A10222901D07C
:10481000022010BD8168B1F5805F11D001690029C7
:1048200001681FD0496801F07F03816A4A1C8262D7
:104830000B70C18D491E0904090CC18518D02BE0ED
:104840000269816A002A0268526805D0D2B20A80E1
:10485000816A491C8162ECE7C2F308020A80816A1E
:10486000891CF7E74A68816A4B1C83620A70E0E79B
:104870000168CA6822F02002CA600168CA6822F48E
:104880008072CA6001684A6922F001024A612021EF
:1048900080F83A10FEF78EFA002010BD2DE9F041A5
:1048A000044600680169E26821F440511143016146
:1048B0002169A0680843616908432168CA6841F218
:1048C0000C639A430243CA6020684169A26921F4DB
:1048D0004071114341614C49206864253226884269
:1048E0003CD1FDF7F9FA00EBC00101EB0010616863
:1048F0008900B0FBF1F7FDF7EFFA00EBC00101EB27
:1049000000106168B0468900B0FBF1F0B0FBF5F033
:104910006FF01801484307EB800106EB0110B0FB74
:10492000F5F000F0F006FDF7D7FA00EBC00101EB5F
:10493000001061688900B0FBF1F0B0FBF5F006EB08
:104940000016FDF7C9FA00EBC00101EB0010616829
:104950008900B0FBF1F7FDF7BFFA3BE0FDF7ACFAD9
:1049600000EBC00101EB001061688900B0FBF1F7BA
:10497000FDF7A2FA00EBC00101EB00106168B04640
:104980008900B0FBF1F0B0FBF5F06FF0180148437F
:1049900007EB800106EB0110B0FBF5F000F0F0062C
:1049A000FDF78AFA00EBC00101EB00106168890095
:1049B000B0FBF1F0B0FBF5F006EB0016FDF77CFA6A
:1049C00000EBC00101EB001061688900B0FBF1F75A
:1049D000FDF772FA00EBC00101EB0010616889007D
:1049E000B0FBF1F0B0FBF5F06FF01801484307EBB6
:1049F000800108EB0110B0FBF5F0216800F00F001A
:104A000030448860BDE8F0810038014090F83910EA
:104A1000212901D0022070478168B1F5805F016AC9
:104A20000BD04A1C0262026809785160C18C491E91
:104A30000904090CC1840ED017E009880268C1F38B
:104A40000801516001690029016A02D0491C016214
:104A5000ECE7891CFBE70168CA6822F08002CA60A3
:104A60000068C16841F04001C160002070472DE935
:104A7000F041984617460E460446069D1DE0681C08
:104A80001BD02DB1FCF724FEA0EB0800A84214D9DE
:104A90002068C16821F4D071C1602068416921F0AB
:104AA00001014161202084F8390084F83A00002097
:104AB00084F838000320BDE8F0812068006836EAF9
:104AC000000004D00020B842D9D00020F3E7012034
:104AD000F9E7000010B50548FEF74AF8BDE81040B8
:104AE000012203490148FEF73BB90000D807002026
:104AF00062060020FEE7FEE7490050EAC12018BF29
:104B000004204A0D18BF40F0010040F2FF72B2EBE2
:104B1000515F08BF40F00200012808BF0520704720
:104B20002DE9F0414F1E00EBC7010446D1E9000119
:104B300015461E4637F006020DD02A463346FBF7CF
:104B40008EFC7F1E04EBC703D3E90023FBF7E0FBD9
:104B500037F00602F1D1022F25D0042F13D0062FF3
:104B600018BFBDE8F0812A463346FBF778FCD4E94C
:104B70000A23FBF7CDFB2A463346FBF770FCD4E94A
:104B80000823FBF7C5FB2A463346FBF768FCD4E94C
:104B90000623FBF7BDFB2A463346FBF760FCD4E94E
:104BA0000423FBF7B5FB2A463346FBF758FCD4E950
:104BB0000223FBF7ADFB2A463346FBF750FCD4E952
:104BC0000023BDE8F041FBF7A3BB0122FBF728BDA2
:104BD000FBF79EBB0022134610461146FBF7B1BC03
:104BE000024A00201107FBF71BBD000001FDFFFF7B
:104BF00002E008C8121F08C1002AFAD170477047A6
:104C0000002001E001C1121F002AFBD17047000003
:104C10000149086070470000800000202DE9F04D38
:104C20008D4F21F0004A86B005460C46BA452ADB76
:104C3000AAEB070028430AD08848824501DC1AD134
:104C4000CDB106B02846BDE8F04DFFF7BEBF844A9F
:104C5000844B2846FBF703FC07460E46824A834BEB
:104C600028462146FBF7FBFB06B03A463346BDE833
:104C7000F04DFBF74DBB0120FFF7CAFF06B0BDE8C2
:104C8000F04DFFF7A7BF7A48824542DABAF1795F63
:104C90000BDA2846FFF730FF042808BFFFF7A0FF14
:104CA000284606B02146BDE8F08D2A460B46104640
:104CB000FBF7D5FB834602466E480E460B4606219F
:104CC0007844FFF72DFF5A463346FBF7C8FB804672
:104CD00069488A465A46334604217844FFF720FF44
:104CE0005A463346FBF7BBFB00223B46FBF710FB63
:104CF00002460B4640465146FBF723FC2A46234614
:104D0000FBF7ADFB06B02A462346BDE8F04DFBF7A6
:104D1000FFBA284624F0004100223D463B46FBF7FF
:104D20009BFB4FF0FF32FBF77BFC064602465348E5
:104D30000F460B4606217844FFF7F2FE32463B460B
:104D4000FBF78DFBCDE900014D4832463B4604217F
:104D50007844FFF7E5FE32463B46FBF780FB002236
:104D60002B46FBF7D5FA834602913046394600F0D0
:104D70003BFE804643480D46504517DCDDE9000107
:104D80005A46029BFBF7DDFB42462B46FBF767FBCF
:104D900042462B46FBF7BCFA0122FBF741FC304AA6
:104DA000304BFBF756FB304A304B4CE04FF0000ADB
:104DB00052460B464046FBF7ABFACDE9031052468C
:104DC0002B4610461946FBF74AFB32463B46FBF79B
:104DD00043FBDDE90332FBF7B4FB06460F46DDE992
:104DE00000015A46029BFBF7ACFB8346009101226F
:104DF00030463946FBF714FC194A1A4BFBF72CFBDB
:104E000006460F46012240462946FBF709FC5A4652
:104E1000009BFBF724FB32463B46FBF71AFB06469A
:104E20000F46012250462946FBF7FAFB0E4DDFF8EC
:104E300058802A464346FBF70FFB32463B46FBF7BA
:104E40000BFB2A464346FBF707FB002CD8BF81F03B
:104E5000004106B0BDE8F08D0000F03F0000F07F9B
:104E6000075C143326A6913C182D4454FB21F93FCE
:104E70000000E03F940D0000AA0D00001E0D000090
:104E8000340D00003333EF3FFB21E93F2DE9F84FAC
:104E900004460D4621F0004000917349814211DC27
:104EA0007249884201DC06D12CB120462946BDE872
:104EB000F84FFFF78ABE6E48002DCCBF6D496E4992
:104EC000BDE8F88F6D49814211DD6D498142D8BF3F
:104ED0004FF0FF366DDD20462946FFF70DFE042812
:104EE00008BFFFF77DFE20462946BDE8F88F6549DB
:104EF000654F25F00045814233DD6449814219DD6B
:104F0000002632464FF0804320462946FBF700FA40
:104F100080468A46012220462946FBF781FB002273
:104F20003B46FBF796FA42465346FBF70AFB04461C
:104F30000D463EE001260022BA463B462046294661
:104F4000FBF7E6F980460F460022534620462946E5
:104F5000FBF77FFA42463B46FBF7F3FA04460D4661
:104F600027E04B4981421BDDDFF828A10226002201
:104F7000534620462946FBF772FA00223B46FBF7D0
:104F8000C7F980460F460022534620462946FBF7C4
:104F900060FA42463B46FBF7D4FA04460D4608E069
:104FA000032622462B4600203B49FBF7CAFA04465B
:104FB0000D4622462B4610461946FBF750FA8B4603
:104FC000824602460B46FBF74AFA0746024633483A
:104FD00088460B4606217844FFF7A2FD52465B4601
:104FE000FBF73DFA82462E488B463A46434605215A
:104FF0007844FFF795FD3A464346FBF730FA024600
:105000000B46002E504659460CDAFBF781F9224632
:105010002B46FBF724FA01B022462B46BDE8F04FA1
:10502000FBF71ABAFBF774F922462B46FBF717FA7F
:105030001C4A7A4402EBC603D3E90023FBF709FAC2
:1050400022462B46FBF705FA174A7A4402EBC603C1
:10505000D3E90023FBF700FA009A002AB8BF81F0D9
:105060000041BDE8F88F0000000010440000F07F10
:10507000182D4454FB21F93FFB21F9BF0000DC3F10
:105080000000203E0000F33F0000F03F0000E63F3C
:10509000008003400000F83F0000F0BF360B000026
:1050A000F40A0000920A00005A0A00002DE9F04DAF
:1050B0009446CCF1000423F000464CEA0404524F1D
:1050C00046EAD4749A46884621F00042BC4206D88B
:1050D000454240EA050442EAD474BC4204D9BDE822
:1050E000F04D6246FFF774BDAAF14055A5F17F650A
:1050F00055EA0C040BD0022404EAAA74434DDFF8ED
:1051000010E144EAD87452EA000B04D00CE0BDE888
:10511000F04DFFF7BBBE002C14BF012CBDE8F08D95
:10512000022C30D0032C32D056EA0C0B0AD0BE42EF
:1051300020D1BA4209D126F0804622F0804233467F
:10514000114617E000291ADB25E0DFF8C8B0FB4460
:10515000002C04BFDBE90001BDE8F08D012C02BF8B
:10516000DBE9000181F00041BDE8F08D022C0AD09E
:10517000032C0CD0BA4212D1B8F1000F0BDA23483D
:105180002549BDE8F08D28462449BDE8F08D284624
:105190007146BDE8F08D1D482149BDE8F08D921B98
:1051A00012153C2AC4BF19481D490EDCBAF1000F84
:1051B000BEBF12F13C0F0020014606DB6246FBF742
:1051C000C0F921F00041FFF761FE002C08BFBDE8E7
:1051D000F08D012C04BF81F00041BDE8F08D114A33
:1051E000114B022C07D0FBF734F92A46BDE8F04DED
:1051F0000A4BFBF72EB9FBF72CF92A46BDE8F04D18
:10520000064BFBF729B900000000F07F182D44542D
:10521000FB2109C0EE090000FB21F9BFFB21094079
:10522000FB21F93F075C143326A6A13C70B5154657
:105230000E460446FBF788FA01D2344605E02946BB
:105240002046FBF777FA00D22C46204670BD0000BE
:10525000FCF7CAFCFFF743F9FEF7DAFAFEF752FB58
:10526000FEF752FCFEF7B6FBFEF712FCFEF720FB42
:10527000FEF776FB4FF480451A4C4FF47A7606E041
:1052800029462046FCF71AFA3046FCF775F800F07C
:1052900033F80028F4D1FBF7C5FFFEF7B7FC4FF455
:1052A000FA7606E029462046FCF708FA3046FCF775
:1052B00063F8FEF787FC0028F4D1FEF7B9FC0A4832
:1052C000FDF7C6F90948FDF7C3F901220849094865
:1052D000FDF746FD07490868C26842F02002C26037
:1052E000F9E70000000C0140980700201807002093
:1052F00062060020D8070020FEB52B4C00270126AF
:105300002770CDE90046102533466B22D02127486F
:105310000295FCF793FB03202070CDE900460123A2
:105320006B22D02121480295FCF788FB2770CDE93C
:10533000004601231922D0211C480295FCF77EFB70
:1053400004202070CDE9004601231A22D0211748FD
:105350000295FCF773FB2570CDE9004601231C2262
:10536000D02112480295FCF769FB18202070CDE986
:10537000004601231B22D0210C480295FCF75EFB5E
:10538000CDE9004601237522D02108480295FCF79B
:1053900045FA6420FBF7F0FF2078682801D001204F
:1053A000FEBD0020FEBD00000A0000206C060020AB
:1053B00030B589B000252C4620216846FAF7C9FE91
:1053C000AA208DF800008DF8010002208DF802005F
:1053D00012208DF803002A48C1798DF804108179D4
:1053E0008DF80510417A8DF80610017A8DF80710B6
:1053F000C17A8DF80810817A8DF8091090F83F1065
:105400008DF80A1090F83E108DF80B1090F84110AE
:105410008DF80C1090F840108DF80D1090F8431096
:105420008DF80E1090F842108DF80F1090F8711052
:105430008DF8101090F870108DF8111090F873100E
:105440008DF8121090F872108DF8131090F87510F6
:105450008DF8141090F874008DF815006846015D01
:10546000641C294424B20DB2162CF8DB01468DF8D9
:105470001650FF2317220348FDF7ACFC09B030BDDE
:10548000B4000020D80700202DE9F0418CB00025A1
:105490002C4620216846FAF75CFEAA208DF8000011
:1054A0008DF801000127324E8DF802700C20DFF8D4
:1054B000C4808DF8030041467068FAF7ADFEFBF733
:1054C000DCF8ADF828009DF829008DF804009DF85F
:1054D00028008DF8050041463068FAF79DFEFBF77D
:1054E000CCF8ADF828009DF829008DF806009DF84D
:1054F00028008DF807004146B068FAF78DFEFBF7EB
:10550000BCF8ADF828009DF829008DF808009DF83A
:1055100028008DF809000020ADF828009DF829002A
:105520008DF80C009DF828008DF80D00ADF828705E
:105530009DF828008DF80E000F480078ADF828007F
:105540009DF828008DF80F006846015D641C294411
:10555000E4B2CDB2102CF8D301468DF81050FF23E1
:1055600011220648FDF736FC0CB0BDE8F0810000C2
:105570000C0600200000C84252000020D80700207E
:1055800030B589B000252C46ADF820502021684662
:10559000FAF7DFFDAA208DF800008DF80100062043
:1055A0008DF8020010208DF803001F4841788DF817
:1055B000041001788DF80510C1788DF806108178F7
:1055C0008DF8071041798DF8081001798DF80910D0
:1055D000C1798DF80A1080798DF80B009DF82100B3
:1055E0008DF80C009DF820108DF810008DF80D102E
:1055F0008DF811108DF80E008DF812008DF80F1037
:105600008DF813106846015D641C2944E4B2CDB2E4
:10561000142CF8D301468DF81450FF2315220348AB
:10562000FDF7D8FB09B030BD68000020D807002086
:105630002DE9F0418AB000263546202101A8FAF76D
:1056400088FDAA208DF804008DF8050010208DF843
:105650000600514C1220DFF844818DF8070054F801
:10566000940F4146FAF7D8FDFBF720F8ADF800009B
:105670009DF801008DF808009DF800008DF80900E4
:1056800041466068FAF7C8FDFBF710F80746ADF829
:1056900000009DF801008DF80A009DF800008DF8CB
:1056A0000B004146A068FAF7B7FDFAF7FFFFADF827
:1056B00000009DF801008DF80C009DF800008DF8A9
:1056C0000D0054F86C0C4146FAF7A6FDFAF7EEFF10
:1056D000ADF800009DF801008DF80E009DF8000067
:1056E0008DF80F00ADF800709DF801008DF81000E6
:1056F0009DF800008DF8110054F8640C4146FAF74B
:105700008BFDFAF7D3FFADF800009DF801008DF88E
:1057100012009DF800008DF813004146E06EFAF784
:105720007BFDFAF7C3FFADF800009DF801008DF88E
:1057300014009DF800008DF815000020ADF8000061
:105740009DF801008DF816009DF800008DF81700F7
:105750004146606FFAF760FDFAF7A8FFADF8000068
:105760009DF801008DF818009DF800008DF81900D3
:1057700001A8415D6D1C3144EDB2CEB2162DF8D3B7
:1057800001468DF81A60FF2317220548FDF722FB1A
:105790000AB0BDE8F0810000540C002000007A44FB
:1057A000D8070020F0B589B000263546202101A891
:1057B000FAF7CFFCAA208DF804008DF8050011201F
:1057C0008DF80600544C1220544F8DF807003946CE
:1057D000206FFAF721FDFAF769FFADF800009DF898
:1057E00001008DF808009DF800008DF80900394689
:1057F000606FFAF711FDFAF759FFADF800009DF858
:1058000001008DF80A009DF800008DF80B00394664
:10581000A06FFAF701FDFAF749FFADF800009DF817
:1058200001008DF80C009DF800008DF80D00394640
:105830006068FAF7F1FCFAF739FFADF800009DF85F
:1058400001008DF80E009DF800008DF80F0039461C
:10585000A068FAF7E1FCFAF729FFADF800009DF81F
:1058600001008DF810009DF800008DF811003946F8
:10587000E068FAF7D1FCFAF719FFADF800009DF8DF
:1058800001008DF812009DF800008DF813003946D4
:10589000D4F8DC00FAF7C0FCFAF708FFADF8000016
:1058A0009DF801008DF814009DF800008DF815009A
:1058B0003946D4F8E000FAF7AFFCFAF7F7FEADF896
:1058C00000009DF801008DF816009DF800008DF88D
:1058D00017003946D4F8E400FAF79EFCFAF7E6FE22
:1058E000ADF800009DF801008DF818009DF800004B
:1058F0008DF8190001A8415D6D1C3144EDB2CEB2A6
:10590000162DF8D301468DF81A60FF23172204489C
:10591000FDF760FA09B0F0BD540C002000007A4495
:10592000D807002030B589B000252C4620216846D4
:10593000FAF70FFCAA208DF800008DF80100032073
:105940008DF8020014208DF80300254841798DF868
:10595000041001798DF80510C1798DF80610817950
:105960008DF8071041788DF8081001788DF809102E
:10597000C1788DF80A1080788DF80B004FF47A709A
:10598000ADF820009DF821008DF80C009DF8201046
:105990008DF810008DF814008DF80D108DF8111091
:1059A0008DF815108DF80E008DF812008DF8160088
:1059B0008DF80F108DF813108DF817106846015DE3
:1059C000641C2944E4B2CDB2182CF8D301468DF8FA
:1059D0001850FF2319220348FDF7FCF909B030BD28
:1059E00018080020D80700202DE9F04106460F4690
:1059F000FAF769FF041E0D4618BF0120284320F066
:105A00000040C0F17F6000F1E040C00F0ED0301CBC
:105A100018BF0120384320F00040C0F17F6000F142
:105A2000E040C00F04BF0120FFF7F2F820462946EE
:105A3000BDE8F081AABBCC0001AABBCC00010000EC
:105A4000000000000000010203040607080900002E
:105A50000000010203040000555555555555C53F3A
:105A60007D6FEB0312D6D4BF5544880E55C1C93F94
:105A70003B8F68B52882A4BF88B20175E0EF493F2B
:105A800009F7FD0DE13D023F4B2D8A1C273A03C06B
:105A9000C88A599CE52A004059018D1B6C06E6BF57
:105AA00082922EB1C5B8B33F4FBB610567ACDD3FF5
:105AB000182D4454FB21E93F9BF681D20B73EF3F35
:105AC000182D4454FB21F93FE2652F227F2B7A3CAD
:105AD000075C143326A6813CBDCBF07A8807703C66
