:020000040800F2
:1000000080050020010100089F1B00083115000831
:100010009D1B0008490100081D2000080000000089
:10002000000000000000000000000000C31B0008EA
:100030004B01000800000000C11B0008C51B0008A0
:100040001B0100081B0100081B0100081B01000820
:100050001B0100081B0100081B0100081B01000810
:100060001B0100081B0100081B0100081B01000800
:100070001B0100081B0100081B0100081B010008F0
:100080001B0100081B0100081B0100081B010008E0
:100090001B0100081B0100081B0100081B010008D0
:1000A0001B0100081B0100081B0100081B010008C0
:1000B0001B0100081B010008851C00081B0100082B
:1000C0001B0100081B0100081B0100081B010008A0
:1000D0001B0100081B0100081B0100081B01000890
:1000E0001B0100081B0100081B010008DFF80CD0F1
:1000F00000F018F800480047412000088005002063
:100100000648804706480047FEE7FEE7FEE7FEE7B1
:10011000FEE7FEE7FEE7FEE7FEE7FEE73D1C000820
:10012000ED000008064C074D06E0E06840F00103D2
:1001300094E8070098471034AC42F6D3FFF7DAFF93
:100140006C2100088C210008FEE7704770B504465A
:1001500000F0F6F80546601C02D00448007804441C
:1001600000F0EEF8401BA042FAD370BD040000205E
:100170002DE9F84FDFF890A100220AF1040B144694
:1001800001274FF00F090BF1040E00BF0B6807FAAF
:1001900004F52B40AB4274D1DFF870C14E68A6EB7A
:1001A0000C0866452BD00DDC032E34D005DC36B3AD
:1001B000012E19D0022E2FD11BE0112E16D0122E97
:1001C0002AD119E0B8F5881F19D006DCB8F5803FB0
:1001D00015D0B8F5801F1FD111E0B8F5001F0ED063
:1001E000B8F5041F18D10AE0CA6815E0CA68121DE4
:1001F00012E0CA6808320FE0CA680C320CE08A6864
:100200002AB1012A4FF0080203D0456104E004221C
:1002100002E0056100E00022FF2B01D8064601E064
:1002200000F104064FEA840501D9A5F12005D6F8AE
:1002300000C009FA05F82CEA080C02FA05F54CEAA8
:10024000050CC6F800C04D68ED0057D5304DAE69BD
:1002500046F00106AE61AD6924F0030605F0010524
:1002600000952C4D06EB050CDCF80850A6074FEA6C
:10027000167809FA08F6B543274EB04202D1002697
:1002800010E03BE0254EB04201D101260AE0244EA9
:10029000B04201D1022605E0224EB04201D1032630
:1002A00000E0042606FA08F62E43CCF808604D68F4
:1002B000DAF80060ED03554601D51E4300E09E4389
:1002C0002E604D68DBF80060AD035D4601D51E432E
:1002D00000E09E432E604D68DEF80060ED0275463A
:1002E00001D51E4300E09E432E604D68AD020E4DC9
:1002F0002E6801D51E4300E09E432E60641C102C26
:10030000FFF444AFBDE8F88F000401400000111075
:10031000001002400000014000080140000C0140B4
:1003200000100140001401400C040140C2684A4022
:10033000C26070470AB1016170470904FBE7000021
:1003400001488068704700000400002070B5040078
:100350001BD094F83D00002520B984F83C5020467D
:1003600000F042FA242084F83D002068016821F062
:100370000101016000F0CAFB404A6168914201D866
:100380003F4900E03F49884201D2012070BD3E490B
:100390002368B0FBF1F159606368934206D94FF4CA
:1003A000967359434FF47A73B1FBF3F12368491CF8
:1003B00019626168914210D84900401EB0FBF1F209
:1003C000521CC2F30B02042A01D2042022E0B0FB2B
:1003D000F1F0401CC0F30B001CE0A368CBB301EBB1
:1003E000C10202EB0116421EB2FBF6F2521C42F4AD
:1003F0008042120536D06BB301EBC10202EB011152
:10040000401EB0FBF1F0401CC0F30B0040F48040F4
:1004100040F400402168C861D4E90701084321681D
:100420000860D4E90310084321688860D4E9050115
:1004300008432168C8602068016841F0010101603B
:100440002564202084F83D00256384F83E50002078
:1004500070BD00E008E001EB4106421EB2FBF6F27F
:10046000521CC6E70120D5E701EB4101401EB0FB5D
:10047000F1F0401CC0F30B00CAE70000A0860100A9
:1004800080841E0000093D0040420F002DE9FF4F0F
:1004900083B09A46DDE9118793460446DDF8409023
:1004A000FFF74EFF054694F83D00202872D119232E
:1004B00001227B492046009501F03FF90028F5D143
:1004C00094F83C00012865D0012084F83C002068A5
:1004D0000168C90703D1016841F00101016020688A
:1004E000016821F400610160222084F83D00402071
:1004F00084F83E0000262664C4F82490A4F82A80DC
:100500006848E062608D2085CDE9007553465A4603
:100510002046049901F021F828B1206C84F83C6051
:10052000042851D075E0208DDFF87C8168B1012866
:1005300014D00228206801681ED041F48061016057
:1005400020684169806900909BE020684169816969
:100550000091016841F40071016092E02068016837
:1005600021F48061016072B620684169816900915F
:10057000016841F400710AE041F40061016072B663
:100580002068416981690091016821F480610160FE
:1005900062B676E081E0032850D801280BD002280B
:1005A0003B464FF0000241462046009512D001F034
:1005B000C4F870BB13E02A463946204601F032F9F0
:1005C00030B1206C202824D0012007B0BDE8F08F86
:1005D00020684BE001F0B1F8D8B972B61BE0206892
:1005E000016821F48061016072B620680169606A67
:1005F000421C62620170208D401E2085608D401E6D
:1006000060853B46002241462046009501F095F862
:1006100008B10320D9E72068016841F40071016046
:1006200020680169606A421C62620170208D401E70
:100630002085608D401E608562B6C9E72A4639462E
:10064000204601F0EFF80028BBD120680169606AFC
:10065000421C62620170208D401E2085608D401E0C
:10066000608520684169C94349070AD40169606A05
:10067000421C62620170208D401E2085608D401EEC
:100680006085208D002886D1202084F83D0084F8E4
:100690003E6084F83C60002097E7022095E7000068
:1006A000020010000000FFFF040001002DE9FF4FD1
:1006B00083B09A46DDE9118793460446DDF8409001
:1006C000FFF73EFE064694F83D0020287DD1192311
:1006D000012243492046009601F02FF800287CD1E2
:1006E00094F83C00012878D0012084F83C00206870
:1006F0000168C90703D1016841F001010160206868
:10070000016821F400610160212084F83D0040204F
:1007100084F83E0000252564C4F82490A4F82A80BB
:100720003048E062608D2085CDE9007653465A4618
:100730002046049900F08AFF80B3206C84F83C5076
:10074000042848D008E032463946204601F09BF89C
:1007500030B1206C042839D0032007B0BDE8F08FF9
:10076000606A411C6162216800780861208D401E2A
:1007700080B22085618D491E618521684A69D24316
:1007800052070BD468B1606A421C6262007808614B
:10079000208D401E2085608D401E6085208D0028A4
:1007A000D1D132463946204600F0A0FF0028D0D1F2
:1007B00054F83D0B016841F400710160202004F8F9
:1007C0001E09E57765770020C7E706E02068016825
:1007D00041F4007101600120BFE70220BDE7000085
:1007E000020010000000FFFF10B500680C4986B041
:1007F000884213D1C0200224CDE9000403200390D5
:1008000069460848FFF7B4FC07480194C16941F400
:100810000011C161C06900F40010049006B010BD61
:1008200000540040000C0140001002400248816862
:10083000027811448160704704000020074810B519
:10084000016841F010010160032000F09DF80020D4
:1008500000F006F800F024F8002010BD002002404F
:1008600070B50D4D04464FF47A712878B1FBF0F065
:100870000A490968B1FBF0F000F09BFB48B9102C65
:1008800007D200222146501E00F05EF800206C6066
:1008900070BD012070BD0000040000201000002089
:1008A000214808B5816941F001018161816901F048
:1008B00001010091C16941F08051C161C06900F03E
:1008C00080500090052000F05FF8002211466FF084
:1008D0000B0000F039F8002211466FF00A0000F01A
:1008E00033F8002211466FF0090000F02DF80022C5
:1008F0001146501F00F028F800221146101F00F08A
:1009000023F800221146901E00F01EF80022114626
:10091000501E00F019F80548416821F0E06141F0EF
:100920000071416008BD000000100240000001405D
:1009300000F01F02012191404009800000F1E020F9
:10094000C0F8001170470000F0B40E4B1B680C4655
:10095000C3F30223C3F10705042D00D90425191D93
:10096000072901D2002300E0DB1E012606FA05F16B
:10097000491E214099409E40761E16403143F0BCEE
:1009800001F00EB90CED00E0064900F0070208681E
:100990004FF6FF03184040EA0220034A1043086064
:1009A000704700000CED00E00000FA052DE9F0476B
:1009B000DFF83C8105460E46D8F8000000F007003D
:1009C000B0420CD2D8F8001021F007013143C8F82A
:1009D0000010D8F8000000F00700B04263D128787A
:1009E000444C800705D56068A96820F0F0000843F2
:1009F00060602878C00745D06868012816D0216853
:100A0000022816D0890700294DDA616821F0030118
:100A100001436160FFF794FC6968074641F2883042
:100A200001290FD00229814619D027E021688903C6
:100A3000E9E78901E7E700BFFFF782FCC11B4945F1
:100A400001D918E081466068C0F381000128F3D124
:100A500018E000BFFFF774FCC11B49450BD8606864
:100A6000C0F381000228F5D10CE000BFFFF768FC5D
:100A7000C11B494502D90320BDE8F087606810F02A
:100A80000C0FF3D1D8F80010404601F00701B14235
:100A90000BD9016821F0070131430160006800F0C3
:100AA0000700B04201D00120E6E72878400705D5CD
:100AB0006068E96820F4E060084360602878000717
:100AC00006D56068296920F4605040EAC100606082
:100AD00000F03CF86168084AC1F30311515CC8405A
:100AE000064908600020FFF7BBFE0020C4E70000B5
:100AF0000020024000100240542100081000002095
:100B000001480068704700001000002004480549B3
:100B100000684968044AC1F30221515CC84070472B
:100B2000100000200010024064210008044805491C
:100B300000684968044AC1F3C221515CC84070474B
:100B400010000020001002406421000812A185B0AE
:100B50000FC98DE80F0014A0144A00680490516872
:100B6000134801F00C03042B10D0082B0ED1C1F355
:100B70008343C9031DF803000AD5516804AAC1F3D1
:100B80004041515C0A4A5043B0FBF1F005B0704758
:100B900008494843FAE7000002030405060708096C
:100BA0000A0B0C0D0E0F1010010200000010024085
:100BB00000127A0000093D002DE9F84F0446007844
:100BC000B94DC00748D06868C0F38100012807D03C
:100BD0006868C0F38100022809D16868C00306D59F
:100BE0002868800338D5606800286FD034E06068DA
:100BF000B0F5803F0BD010B1B0F5A02F11D0286810
:100C000020F480302860286820F4802002E02868E2
:100C100040F480302860606888B1FFF791FB064699
:100C200009E0286840F480202860F0E7FFF788FB9F
:100C3000801B642875D828688003F7D50CE0FFF77F
:100C40007FFB064605E000BFFFF77AFB801B6428A8
:100C5000F0D828688003F7D42078944E80074FF0AE
:100C600001094FF000083BD5686810F00C0F07D061
:100C70006868C0F38100022809D16868C00306D4FF
:100C80002868800714D5206901281FD110E0206949
:100C9000B0B1C6F80090FFF753FB074605E000BF70
:100CA000FFF74EFBC01B0228C4D828688007F7D581
:100CB0002868616920F0F80040EAC10028600FE070
:100CC000C6F80080FFF73CFB074606E0E9E000BFFE
:100CD000FFF736FBC01B022823D828688007F7D40B
:100CE000207800072CD57248A169D9B1C0F80090CE
:100CF000FFF726FB074604E0FFF722FBC01B022894
:100D00000FD8686A8007F7D56A484FF4FA5100682F
:100D1000B0FBF1F0009000BF0098411E0091FAD2A4
:100D20000EE080E0C0F80080FFF70AFB074604E011
:100D3000FFF706FBC01B022875D8686A8007F7D446
:100D40002078400760D5E8690027C00008D4E8692A
:100D500040F08050E861E869012700F08050009081
:100D600055480168C90513D40168834641F4807170
:100D70000160FFF7E5FA824606E000BFFFF7E0FA00
:100D8000A0EB0A0064284ED8DBF80000C005F5D5BA
:100D9000E06801280AD008B1052813D0286A20F09D
:100DA00001002862286A20F0040002E0286A40F06E
:100DB00001002862E06841F2883B98B1FFF7C0FA71
:100DC00082460BE0286A40F004002862EEE700BF8C
:100DD000FFF7B6FAA0EB0A0159455AD8286A8007EE
:100DE000F6D50CE0FFF7ACFA824605E0FFF7A8FA6B
:100DF000A0EB0A0159454CD8286A8007F6D41FB1E8
:100E0000E86920F08050E861E06988B36968C1F35F
:100E10008101022945D00228C6F8608004D0FFF77E
:100E20008FFA044638E034E0FFF78AFA074604E018
:100E3000FFF786FAC01B02282BD828688001F7D458
:100E4000206AB0F5803F05D16868A16820F40030C1
:100E500008436860D4E908010843696821F4741103
:100E600008436860C6F86090FFF76AFA044606E037
:100E700015E000BFFFF764FA001B022809D82868B4
:100E80008001F7D50BE000BFFFF75AFA001B0228DC
:100E900002D90320BDE8F88F28688001F4D400202F
:100EA000F8E70120F6E7000000100240000042428F
:100EB00080044242100000200070004070B5040021
:100EC00005D00025A56294F8510010B104E001207E
:100ED00070BD204600F034F8022084F851002068EC
:100EE000016821F040010160D4E901010843D4E91F
:100EF00003121143084361690843218B01F4007117
:100F00000843E1690843216A0843A16A084321684C
:100F10000860A069042101EA1040616A0843216861
:100F200048602168E06A08612068C16921F40061B5
:100F3000C1616565012084F85100002070BD00008A
:100F400010B50068114986B088421CD110488169EB
:100F500041F48051816180690E4C00F4805004900E
:100F6000A0200090022001900320039069462046B3
:100F7000FFF7FEF800214020CDE90001029169460B
:100F80002046FFF7F5F806B010BD00000030014024
:100F900000100240000801404FF0E02104280869D9
:100FA00003D020F004000861704740F00400FAE725
:100FB000704710B5401EB0F1807F01D3012010BDF5
:100FC0004FF0E02460610F21601700F0E9FD002080
:100FD000A06107202061002010BD10B5FFF7E8FFD9
:100FE00010BD7047704730B590F83C20012A20D0E2
:100FF000012280F83C20022380F83D3003685C68C1
:1010000024F070045C6003685C680D682C435C60CD
:1010100003689C6824F080049C6003689C684968AD
:101020000C439C6080F83D20002180F83C1008466D
:1010300030BD022030BD10B5040003D094F83D004F
:1010400010B107E0012010BD002084F83C002046CC
:1010500000F00CF8022084F83D00211D206800F00B
:1010600017FE012084F83D00002010BD08B500687F
:101070000B49884212D10B48C16941F00401C1619A
:10108000C069032200F00400009002211E20FFF737
:101090005BFCBDE808401E20FFF74ABC08BD00000D
:1010A000000800400010024070B5044690F83C0073
:1010B000012817D0012584F83C50022084F83D0017
:1010C0002068826822F0770222F47F4282600868FA
:1010D000502837D00DDC202859D005DC88B31028E3
:1010E00041D151E0022070BD302853D040283AD180
:1010F0003FE060282ED070280BD0B0F5805F03D081
:10110000B0F5005F2FD110E02068816821F0070161
:1011100015E0CB68D1E90121206800F0EFFD2168DE
:10112000886840F0770088601DE0CB68D1E9012134
:10113000206800F0E3FD2068816841F4804181600F
:1011400011E01EE0CA684968206800F08BFE50215B
:10115000206806E0CA684968206800F094FE6021B3
:10116000206800F0D5FD84F83D50002084F83C0054
:1011700070BDCA684968206800F074FE402120688C
:10118000EFE700212068ECE710212068E9E7202143
:101190002068E6E730212068E3E7704770B5044631
:1011A000006801694FF00005C943890715D4C1687B
:1011B000C943890711D4E91E016101202077206805
:1011C00080698007204602D0FFF7E7FF04E000F0C7
:1011D000B7F8204600F04CF9257720680169C9432B
:1011E000490717D4C168C943490713D46FF00401F4
:1011F0000161022020772068806910F4407F20463A
:1012000002D0FFF7CAFF04E000F09AF8204600F091
:101210002FF9257720680169C943090716D4C168E9
:10122000C943090712D46FF0080101610420207737
:101230002068C0698007204602D0FFF7AEFF04E0B7
:1012400000F07EF8204600F013F925772068016948
:10125000C943C90617D4C168C943C90613D46FF07E
:1012600010010161082020772068C06910F4407FD8
:10127000204602D0FFF791FF04E000F061F820461D
:1012800000F0F6F8257720680169C943C90708D13D
:10129000C168C943C90704D1891E0161204600F015
:1012A000E8F820680169C943090609D4C168C9433F
:1012B000090605D46FF0800101612046FFF791FE19
:1012C00020680169C943490609D4C168C943490670
:1012D00005D46FF040010161204600F0CBF8206892
:1012E0000169C94389060BD4C168C943890607D47B
:1012F0006FF0200101612046BDE87040FFF772BE2B
:1013000070BD00001FB500680A49884211D1332022
:10131000009002200190039069460748FEF728FFDD
:101320000648416821F4406141F0E06141F4006108
:1013300041601FBD00040040000C0140000001405E
:10134000704770B5044690F83C000D4601280DD05A
:10135000012684F83C60022084F83D0042B1042A52
:1013600018D0082A2AD00C2A4DD139E0022070BDAD
:10137000206800F0D5FC2068816941F00801816196
:101380002068816921F004018161206881692A69EE
:10139000114311E0206800F0EBFC2068816941F402
:1013A000006181612068816921F480618161206828
:1013B00081692A6941EA0221816124E0206800F004
:1013C00003FD2068C16941F00801C1612068C1695D
:1013D00021F00401C1612068C1692A69114311E04B
:1013E000206800F01DFD2068C16941F40061C16101
:1013F0002068C16921F48061C1612068C1692A69DE
:1014000041EA0221C16184F83D60002084F83C007B
:1014100070BD10B5040003D094F83D0010B107E092
:10142000012010BD002084F83C00204600F00CF89C
:10143000022084F83D00211D206800F029FC0120D5
:1014400084F83D00002010BD08B5006806498842B8
:1014500008D10648C16941F00201C161C06900F0CC
:101460000200009008BD000000040040001002408F
:1014700070477047704770B5040004D094F8390085
:10148000002510B106E0012070BD84F838502046D8
:1014900000F022F8242084F839002068C16821F483
:1014A0000051C160204600F001FD2068016921F46F
:1014B000904101612068416921F02A014161206861
:1014C000C16841F40051C160E563202084F839000F
:1014D00084F83A00002070BD10B50068114986B04C
:1014E00088421DD11048816941F480418161806941
:1014F0000E4C00F4804004904FF4007000900220E5
:1015000001900320039069462046FEF731FE00213A
:101510002015CDE90001029169462046FEF728FE1C
:1015200006B010BD00380140001002400008014024
:10153000FEE701684A69D24352050CD46FF4806219
:101540004A6104210164002140F8301F20224273C7
:10155000017301207047002070472DE9F84F0446C1
:10156000006889460B9D01689846174641F48061E2
:1015700001602068016841F48071016000954FF0BE
:10158000011A0022514620460A9B00F0D6F8F0BB13
:10159000216809F0FE0008610AF1010B2B4659464B
:1015A00020460A9A00F0FAF818B1206C042812D0EC
:1015B0003AE020684169806900902A4620460A99ED
:1015C00000F061F950B1206C04282DD12068016829
:1015D00041F4007101600120BDE8F88FFEB2B8F15E
:1015E000010F09D02168380A08612A4620460A9965
:1015F00000F049F90028E6D1206806612A46204615
:101600000A9900F040F90028DDD1206800E00BE0E5
:10161000016841F480710160009500225146204626
:101620000A9B00F08AF808B10320D5E7216809F089
:10163000FF0040F0010008612B46594620460A9AF7
:1016400000F0ACF80028B0D1C6E700002DE9F8435F
:10165000044600680D46DDE908970168984616467D
:1016600041F4807101604B4600224FF00111204689
:10167000009700F062F8E8B9216805F0FE00086103
:101680003B464A461849204600F088F828B1206CAD
:1016900004280FD10120BDE8F883206841698069E2
:1016A00000903A464946204600F0EDF820B1206C03
:1016B000042813D00320EEE7F5B2B8F1010F09D0EA
:1016C0002168300A08613A464946204600F0DBF8B6
:1016D0000028ECD1206805610020DCE72068016863
:1016E00041F400710160D5E70200010070B51646B3
:1016F0000D4604461AE02046FFF71BFF08B1012003
:1017000070BD681C12D025B1FEF71AFE801BA842DE
:101710000CD954F8400F40F0200044F81009002084
:101720002060202161732073032070BD2068406910
:10173000C0434007DFD4002070BD2DE9F0471E46AE
:1017400090460D460446C1F30747DDF8209012E0AD
:10175000701C10D02EB1FEF7F3FDA0EB0900B042D3
:1017600009D9002044F8300F20216173A073207341
:101770000320BDE8F0872068012F0AD0806925EAA0
:1017800000000004000C06D000214145E0D00020FC
:10179000EFE74069F3E70121F7E700002DE9F047A3
:1017A0009A4691460D46044600264FF02008C1F3A4
:1017B00007472AE020684069C043400512D42068EA
:1017C000016841F40071016021686FF48060486134
:1017D00004202064266384F83D8084F83C60012066
:1017E000BDE8F087B9F1FF3F0FD0B9F1000F05D088
:1017F000FEF7A6FDA0EB0A01494506D944F8306F73
:1018000084F80D8026730320EAE72068012F07D0B3
:10181000D0F8180025EA00000004000CE0D0C9E769
:101820004069F7E72DE9F041002590460E46044651
:10183000202721E04069C043C0060CD421686FF026
:10184000100048612564256384F83D7084F83C509D
:101850000120BDE8F0812EB1FEF772FDA0EB08007B
:10186000B04209D954F8400F40F0200044F8040970
:10187000677025700320ECE720684169C943490679
:10188000D8D40020E5E770B516460D4604461AE0A8
:101890002046FFF74EFE08B1012070BD681C12D033
:1018A00025B1FEF74DFD801BA8420CD954F8400F1E
:1018B00040F0200044F810090020206020216173CE
:1018C0002073032070BD20684069C0430006DFD448
:1018D000002070BD2DE9F041234886B0816941F0B8
:1018E00020018161816901F020010491816941F049
:1018F00004018161816901F004010491816941F071
:10190000080181618069194F00F0080004900122EC
:1019100012213846FEF70EFDDFF854804FF4E04602
:10192000012231464046FEF705FD01240020CDE9A5
:1019300000400220029069463846FEF719FC12204A
:10194000CDE90004032569463846CDE90245FEF796
:101950000FFCCDE9006469464046CDE90245FEF73B
:1019600007FC06B0BDE8F08100100240000801400D
:10197000000C01400E4810B50C4901600D49416052
:1019800000214FF480428160C0E90312416181610E
:10199000C1610162FEF7DAFC002805D0BDE8104005
:1019A000422105A000F03BBB10BD000000540040E8
:1019B00014000020A08601002E2E2F5372632F6981
:1019C00032632E6300000000114810B50F4901601A
:1019D0004FF48271416000218160C1604FF4007258
:1019E0000161C0E905121022C0E90721416281624C
:1019F0000A21C162FFF762FA002805D0BDE8104055
:101A0000452104A000F00BBB10BD000000300140D8
:101A1000680000202E2E2F5372632F7370692E637F
:101A20000000000010B529488AB02749016047210D
:101A30000024C0E9011440F2AF41C0E903148461FD
:101A4000FFF7E7FC18B1402121A000F0E8FA079465
:101A500007A91E480894FFF7C6FA18B147211CA031
:101A600000F0DDFA6020CDE900040294002269460E
:101A700016480494FFF765FC18B1502114A000F03B
:101A8000CEFA042269461148FFF75BFC18B15521D4
:101A90000FA000F0C4FA082269460C48FFF751FC79
:101AA00018B15A210AA000F0BAFA0C226946074878
:101AB000FFF747FC18B15F2105A000F0B0FA03481A
:101AC000FFF720FC0AB010BD00040040C000002059
:101AD0002E2E2F5372632F74696D2E630000000049
:101AE00010B5164886B014490024C0E9001484607B
:101AF000C46004618461FFF79EFA18B1732110A0DD
:101B000000F08DFA4FF48050009069460B48FFF7C3
:101B1000CBFA18B179210AA000F081FA049404A943
:101B200006480594FFF75FFA002803D0802104A03F
:101B300000F075FA06B010BD00080040000100205A
:101B40002E2E2F5372632F74696D2E6300000000D8
:101B50000D4810B50B4901604FF4E131416000219F
:101B600081600C22C160C0E904128161C161FFF78C
:101B700082FC002805D0BDE81040422103A000F0FF
:101B80004EBA10BD00380140400100202E2E2F53C8
:101B900072632F75736172742E630000FEE77047E5
:101BA0000907090E002806DA00F00F0000F1E02016
:101BB00080F8141D704700F1E02080F80014704791
:101BC0007047704710B5FEF731FEBDE81040FFF7D3
:101BD00004BA30B58FB001210804CDE9001000240B
:101BE000029402250491CDE907504FF4E0100990CA
:101BF0006846FEF7E1FF00B1FEE70F20CDE90A05D8
:101C00004FF48060CDE90C4002210AA80E94FEF743
:101C1000CDFE00B1FEE7FEF773FF4FF47A71B0FB23
:101C2000F1F0FFF7C6F90420FFF7B6F900221146DC
:101C3000501EFEF789FE0FB030BD00000D48016850
:101C400041F00101016041680B4A114041600168A7
:101C50000A4A11400160016821F480210160416855
:101C600021F4FE0141604FF41F0181600449C0036B
:101C700008607047001002400000FFF8FFFFF6FE0A
:101C800008ED00E00148FFF789BA000000010020DC
:101C9000F0B50268164B174C174D4FF0804798422D
:101CA00005D0B84203D0A04201D0A84203D122F00F
:101CB00070064A683243984205D0B84203D0A04229
:101CC00001D0A84203D122F44074CA68224322F012
:101CD00080044A69224302608A68C2620A6882629A
:101CE000984201D10969016301214161F0BD000001
:101CF000002C0140000400400008004010B584683A
:101D000042EA032224F47F440A432243826010BD46
:101D1000826822F070020A4342F007018160704736
:101D200030B5026A22F001020262026A43688469E5
:101D300024F073050C682C4322F002058A682A43BC
:101D40000A4DA8420BD122F00805CA6823F440735B
:101D50002A434D6922F004021D438B692B434360E3
:101D6000846149684163026230BD0000002C01407B
:101D700030B5026A22F010020262026A4368846986
:101D80000D6824F4E64444EA05248D6822F020021C
:101D900042EA05120B4DA8420ED1CD6822F0800216
:101DA00042EA05124D6923F4406343EA85038D69D5
:101DB00022F0400243EA85034360846149688163FD
:101DC000026230BD002C014030B5026A22F48072FC
:101DD0000262036A4268C46923F4007324F0730545
:101DE0000C682C438D6843EA05230C4DA8420ED1A4
:101DF000CD6823F4006343EA05234D6922F4405281
:101E000042EA05128D6923F4806342EA05124260BA
:101E1000C4614968C163036230BD0000002C014009
:101E200030B5026A22F480520262046A4268C369D1
:101E30000D6823F4E64343EA05238D6824F4005437
:101E400044EA0534064DA84204D14D6922F480428B
:101E500042EA85124260C36149680164046230BD90
:101E6000002C014010B5036A046A24F001040462E6
:101E7000846924F0F00444EA021423F00A020A43BD
:101E80008461026210BD10B5036A23F0100303627F
:101E90008369046A23F4704343EA023224F0A00306
:101EA00043EA01118261016210BD00002DE9F04199
:101EB000044600680169E26821F440511143016160
:101EC0002169A0680843616908432168CA6841F232
:101ED0000C639A430243CA6020684169A26921F4F5
:101EE0004071114341614C49206864253226884283
:101EF0003CD1FEF71BFE00EBC00101EB0010616856
:101F00008900B0FBF1F7FEF711FE00EBC00101EB19
:101F100000106168B0468900B0FBF1F0B0FBF5F04D
:101F20006FF01801484307EB800106EB0110B0FB8E
:101F3000F5F000F0F006FEF7F9FD00EBC00101EB53
:101F4000001061688900B0FBF1F0B0FBF5F006EB22
:101F50000016FEF7EBFD00EBC00101EB001061681D
:101F60008900B0FBF1F7FEF7E1FD3BE0FEF7CEFDA7
:101F700000EBC00101EB001061688900B0FBF1F7D4
:101F8000FEF7C4FD00EBC00101EB00106168B04634
:101F90008900B0FBF1F0B0FBF5F06FF01801484399
:101FA00007EB800106EB0110B0FBF5F000F0F00646
:101FB000FEF7ACFD00EBC00101EB00106168890089
:101FC000B0FBF1F0B0FBF5F006EB0016FEF79EFD5E
:101FD00000EBC00101EB001061688900B0FBF1F774
:101FE000FEF794FD00EBC00101EB00106168890071
:101FF000B0FBF1F0B0FBF5F06FF01801484307EBD0
:10200000800108EB0110B0FBF5F0216800F00F0033
:1020100030448860BDE8F08100380140FEE7FEE70B
:1020200002E008C8121F08C1002AFAD170477047A1
:10203000002001E001C1121F002AFBD170470000FF
:10204000FEF7FCFBFFF7C5FDFFF744FCFFF7BCFC08
:10205000FFF77EFDFFF7E6FCFFF742FDFFF78AFC86
:102060000D4D4FF47A744FF4804606E03146284611
:10207000FEF75CF92046FEF769F800F00FF800283B
:10208000F4D14FF4805631462846FEF74FF92046EA
:10209000FEF75CF8F7E70000000C0140FEB52B4CA2
:1020A000002701262770CDE90046102533466B2214
:1020B000D02127480295FEF7F9FA03202070CDE9D8
:1020C000004601236B22D02121480295FEF7EEFA4B
:1020D0002770CDE9004601231922D0211C48029522
:1020E000FEF7E4FA04202070CDE9004601231A220D
:1020F000D02117480295FEF7D9FA2570CDE90046A0
:1021000001231C22D02112480295FEF7CFFA182095
:102110002070CDE9004601231B22D0210C480295F6
:10212000FEF7C4FACDE9004601237522D021084804
:102130000295FEF7ABF96420FEF708F820786828CE
:1021400001D00120FEBD0020FEBD000000000020E7
:102150001400002000000000000000000102030441
:102160000607080900000000010203048C21000892
:10217000000000201400000020200008A02100081A
:10218000140000206C050000302000080000000052
:1021900001000000100000000000000000A24A043E
:04000005080000ED02
:00000001FF
